{
  "contractName": "BullNFT",
  "abi": [
    {
      "inputs": [],
      "stateMutability": "nonpayable",
      "type": "constructor"
    },
    {
      "anonymous": false,
      "inputs": [
        {
          "indexed": true,
          "internalType": "address",
          "name": "owner",
          "type": "address"
        },
        {
          "indexed": true,
          "internalType": "address",
          "name": "approved",
          "type": "address"
        },
        {
          "indexed": true,
          "internalType": "uint256",
          "name": "tokenId",
          "type": "uint256"
        }
      ],
      "name": "Approval",
      "type": "event"
    },
    {
      "anonymous": false,
      "inputs": [
        {
          "indexed": true,
          "internalType": "address",
          "name": "owner",
          "type": "address"
        },
        {
          "indexed": true,
          "internalType": "address",
          "name": "operator",
          "type": "address"
        },
        {
          "indexed": false,
          "internalType": "bool",
          "name": "approved",
          "type": "bool"
        }
      ],
      "name": "ApprovalForAll",
      "type": "event"
    },
    {
      "anonymous": false,
      "inputs": [
        {
          "indexed": true,
          "internalType": "address",
          "name": "newMintable",
          "type": "address"
        }
      ],
      "name": "MintableSet",
      "type": "event"
    },
    {
      "anonymous": false,
      "inputs": [
        {
          "indexed": true,
          "internalType": "address",
          "name": "previousOwner",
          "type": "address"
        },
        {
          "indexed": true,
          "internalType": "address",
          "name": "newOwner",
          "type": "address"
        }
      ],
      "name": "OwnershipTransferred",
      "type": "event"
    },
    {
      "anonymous": false,
      "inputs": [
        {
          "indexed": true,
          "internalType": "address",
          "name": "from",
          "type": "address"
        },
        {
          "indexed": true,
          "internalType": "address",
          "name": "to",
          "type": "address"
        },
        {
          "indexed": true,
          "internalType": "uint256",
          "name": "tokenId",
          "type": "uint256"
        }
      ],
      "name": "Transfer",
      "type": "event"
    },
    {
      "inputs": [
        {
          "internalType": "address",
          "name": "to",
          "type": "address"
        },
        {
          "internalType": "uint256",
          "name": "tokenId",
          "type": "uint256"
        }
      ],
      "name": "approve",
      "outputs": [],
      "stateMutability": "nonpayable",
      "type": "function"
    },
    {
      "inputs": [
        {
          "internalType": "address",
          "name": "owner",
          "type": "address"
        }
      ],
      "name": "balanceOf",
      "outputs": [
        {
          "internalType": "uint256",
          "name": "",
          "type": "uint256"
        }
      ],
      "stateMutability": "view",
      "type": "function"
    },
    {
      "inputs": [
        {
          "internalType": "uint256",
          "name": "tokenId",
          "type": "uint256"
        }
      ],
      "name": "getApproved",
      "outputs": [
        {
          "internalType": "address",
          "name": "",
          "type": "address"
        }
      ],
      "stateMutability": "view",
      "type": "function"
    },
    {
      "inputs": [
        {
          "internalType": "address",
          "name": "owner",
          "type": "address"
        },
        {
          "internalType": "address",
          "name": "operator",
          "type": "address"
        }
      ],
      "name": "isApprovedForAll",
      "outputs": [
        {
          "internalType": "bool",
          "name": "",
          "type": "bool"
        }
      ],
      "stateMutability": "view",
      "type": "function"
    },
    {
      "inputs": [
        {
          "internalType": "address",
          "name": "addr",
          "type": "address"
        }
      ],
      "name": "isMintable",
      "outputs": [
        {
          "internalType": "bool",
          "name": "",
          "type": "bool"
        }
      ],
      "stateMutability": "view",
      "type": "function"
    },
    {
      "inputs": [
        {
          "internalType": "address",
          "name": "",
          "type": "address"
        }
      ],
      "name": "mintable",
      "outputs": [
        {
          "internalType": "bool",
          "name": "",
          "type": "bool"
        }
      ],
      "stateMutability": "view",
      "type": "function"
    },
    {
      "inputs": [],
      "name": "name",
      "outputs": [
        {
          "internalType": "string",
          "name": "",
          "type": "string"
        }
      ],
      "stateMutability": "view",
      "type": "function"
    },
    {
      "inputs": [],
      "name": "owner",
      "outputs": [
        {
          "internalType": "address",
          "name": "",
          "type": "address"
        }
      ],
      "stateMutability": "view",
      "type": "function"
    },
    {
      "inputs": [
        {
          "internalType": "uint256",
          "name": "tokenId",
          "type": "uint256"
        }
      ],
      "name": "ownerOf",
      "outputs": [
        {
          "internalType": "address",
          "name": "",
          "type": "address"
        }
      ],
      "stateMutability": "view",
      "type": "function"
    },
    {
      "inputs": [],
      "name": "renounceOwnership",
      "outputs": [],
      "stateMutability": "nonpayable",
      "type": "function"
    },
    {
      "inputs": [
        {
          "internalType": "address",
          "name": "from",
          "type": "address"
        },
        {
          "internalType": "address",
          "name": "to",
          "type": "address"
        },
        {
          "internalType": "uint256",
          "name": "tokenId",
          "type": "uint256"
        }
      ],
      "name": "safeTransferFrom",
      "outputs": [],
      "stateMutability": "nonpayable",
      "type": "function"
    },
    {
      "inputs": [
        {
          "internalType": "address",
          "name": "from",
          "type": "address"
        },
        {
          "internalType": "address",
          "name": "to",
          "type": "address"
        },
        {
          "internalType": "uint256",
          "name": "tokenId",
          "type": "uint256"
        },
        {
          "internalType": "bytes",
          "name": "_data",
          "type": "bytes"
        }
      ],
      "name": "safeTransferFrom",
      "outputs": [],
      "stateMutability": "nonpayable",
      "type": "function"
    },
    {
      "inputs": [
        {
          "internalType": "address",
          "name": "operator",
          "type": "address"
        },
        {
          "internalType": "bool",
          "name": "approved",
          "type": "bool"
        }
      ],
      "name": "setApprovalForAll",
      "outputs": [],
      "stateMutability": "nonpayable",
      "type": "function"
    },
    {
      "inputs": [
        {
          "internalType": "bytes4",
          "name": "interfaceId",
          "type": "bytes4"
        }
      ],
      "name": "supportsInterface",
      "outputs": [
        {
          "internalType": "bool",
          "name": "",
          "type": "bool"
        }
      ],
      "stateMutability": "view",
      "type": "function"
    },
    {
      "inputs": [],
      "name": "symbol",
      "outputs": [
        {
          "internalType": "string",
          "name": "",
          "type": "string"
        }
      ],
      "stateMutability": "view",
      "type": "function"
    },
    {
      "inputs": [
        {
          "internalType": "address",
          "name": "from",
          "type": "address"
        },
        {
          "internalType": "address",
          "name": "to",
          "type": "address"
        },
        {
          "internalType": "uint256",
          "name": "tokenId",
          "type": "uint256"
        }
      ],
      "name": "transferFrom",
      "outputs": [],
      "stateMutability": "nonpayable",
      "type": "function"
    },
    {
      "inputs": [
        {
          "internalType": "address",
          "name": "newOwner",
          "type": "address"
        }
      ],
      "name": "transferOwnership",
      "outputs": [],
      "stateMutability": "nonpayable",
      "type": "function"
    },
    {
      "inputs": [
        {
          "internalType": "uint8",
          "name": "_rarity",
          "type": "uint8"
        },
        {
          "internalType": "uint8",
          "name": "_breed",
          "type": "uint8"
        },
        {
          "internalType": "address",
          "name": "_owner",
          "type": "address"
        }
      ],
      "name": "mint",
      "outputs": [],
      "stateMutability": "nonpayable",
      "type": "function"
    },
    {
      "inputs": [
        {
          "internalType": "uint256",
          "name": "_tokenId",
          "type": "uint256"
        }
      ],
      "name": "burn",
      "outputs": [],
      "stateMutability": "nonpayable",
      "type": "function"
    },
    {
      "inputs": [
        {
          "internalType": "uint256",
          "name": "_tokenId",
          "type": "uint256"
        }
      ],
      "name": "attrOf",
      "outputs": [
        {
          "components": [
            {
              "internalType": "uint8",
              "name": "rarity",
              "type": "uint8"
            },
            {
              "internalType": "uint8",
              "name": "breed",
              "type": "uint8"
            },
            {
              "internalType": "uint256",
              "name": "birth",
              "type": "uint256"
            }
          ],
          "internalType": "struct IBullNFT.CattleAttr",
          "name": "",
          "type": "tuple"
        }
      ],
      "stateMutability": "view",
      "type": "function"
    },
    {
      "inputs": [
        {
          "internalType": "address",
          "name": "_owner",
          "type": "address"
        }
      ],
      "name": "tokenIdsOf",
      "outputs": [
        {
          "internalType": "uint256[]",
          "name": "",
          "type": "uint256[]"
        }
      ],
      "stateMutability": "view",
      "type": "function"
    },
    {
      "inputs": [
        {
          "internalType": "string",
          "name": "_baseUri",
          "type": "string"
        }
      ],
      "name": "setBaseTokenURI",
      "outputs": [],
      "stateMutability": "nonpayable",
      "type": "function"
    },
    {
      "inputs": [
        {
          "internalType": "uint256",
          "name": "_tokenId",
          "type": "uint256"
        }
      ],
      "name": "tokenURI",
      "outputs": [
        {
          "internalType": "string",
          "name": "",
          "type": "string"
        }
      ],
      "stateMutability": "view",
      "type": "function"
    },
    {
      "inputs": [
        {
          "internalType": "address",
          "name": "_addr",
          "type": "address"
        }
      ],
      "name": "setMintable",
      "outputs": [],
      "stateMutability": "nonpayable",
      "type": "function"
    }
  ],
  "bytecode": "0x60806040523480156200001157600080fd5b506040518060400160405280601081526020017f43617368436f772042756c6c204e4654000000000000000000000000000000008152506040518060400160405280600381526020017f43424e0000000000000000000000000000000000000000000000000000000000815250816000908051906020019062000096929190620001a6565b508060019080519060200190620000af929190620001a6565b505050620000d2620000c6620000d860201b60201c565b620000e060201b60201c565b620002bb565b600033905090565b6000600660009054906101000a900473ffffffffffffffffffffffffffffffffffffffff16905081600660006101000a81548173ffffffffffffffffffffffffffffffffffffffff021916908373ffffffffffffffffffffffffffffffffffffffff1602179055508173ffffffffffffffffffffffffffffffffffffffff168173ffffffffffffffffffffffffffffffffffffffff167f8be0079c531659141344cd1fd0a4f28419497f9722a3daafe3b4186f6b6457e060405160405180910390a35050565b828054620001b49062000285565b90600052602060002090601f016020900481019282620001d8576000855562000224565b82601f10620001f357805160ff191683800117855562000224565b8280016001018555821562000224579182015b828111156200022357825182559160200191906001019062000206565b5b50905062000233919062000237565b5090565b5b808211156200025257600081600090555060010162000238565b5090565b7f4e487b7100000000000000000000000000000000000000000000000000000000600052602260045260246000fd5b600060028204905060018216806200029e57607f821691505b60208210811415620002b557620002b462000256565b5b50919050565b613ba480620002cb6000396000f3fe608060405234801561001057600080fd5b50600436106101585760003560e01c806370a08231116100c3578063a3b261f21161007c578063a3b261f2146103d5578063b88d4fde14610405578063c87b56dd14610421578063d20e487414610451578063e985e9c51461046d578063f2fde38b1461049d57610158565b806370a0823114610327578063715018a6146103575780638da5cb5b146103615780638ea859791461037f57806395d89b411461039b578063a22cb465146103b957610158565b806330176e131161011557806330176e131461024357806342842e0e1461025f57806342966c681461027b57806359441eae146102975780636352211e146102c757806368ba0bcf146102f757610158565b806301ffc9a71461015d57806306fdde031461018d578063081812fc146101ab578063095ea7b3146101db578063222b15fb146101f757806323b872dd14610227575b600080fd5b61017760048036038101906101729190612473565b6104b9565b60405161018491906124bb565b60405180910390f35b61019561059b565b6040516101a2919061256f565b60405180910390f35b6101c560048036038101906101c091906125c7565b61062d565b6040516101d29190612635565b60405180910390f35b6101f560048036038101906101f0919061267c565b6106b2565b005b610211600480360381019061020c91906126bc565b6107ca565b60405161021e91906124bb565b60405180910390f35b610241600480360381019061023c91906126e9565b610820565b005b61025d60048036038101906102589190612871565b610880565b005b610279600480360381019061027491906126e9565b61089a565b005b610295600480360381019061029091906125c7565b6108ba565b005b6102b160048036038101906102ac91906126bc565b61099f565b6040516102be91906124bb565b60405180910390f35b6102e160048036038101906102dc91906125c7565b6109bf565b6040516102ee9190612635565b60405180910390f35b610311600480360381019061030c91906125c7565b610a71565b60405161031e9190612927565b60405180910390f35b610341600480360381019061033c91906126bc565b610ae2565b60405161034e9190612951565b60405180910390f35b61035f610b9a565b005b610369610c22565b6040516103769190612635565b60405180910390f35b610399600480360381019061039491906126bc565b610c4c565b005b6103a3610d93565b6040516103b0919061256f565b60405180910390f35b6103d360048036038101906103ce9190612998565b610e25565b005b6103ef60048036038101906103ea91906126bc565b610e3b565b6040516103fc9190612a87565b60405180910390f35b61041f600480360381019061041a9190612b4a565b610f4d565b005b61043b600480360381019061043691906125c7565b610faf565b604051610448919061256f565b60405180910390f35b61046b60048036038101906104669190612bf9565b6110b5565b005b61048760048036038101906104829190612c4c565b611263565b60405161049491906124bb565b60405180910390f35b6104b760048036038101906104b291906126bc565b6112f7565b005b60007f80ac58cd000000000000000000000000000000000000000000000000000000007bffffffffffffffffffffffffffffffffffffffffffffffffffffffff1916827bffffffffffffffffffffffffffffffffffffffffffffffffffffffff1916148061058457507f5b5e139f000000000000000000000000000000000000000000000000000000007bffffffffffffffffffffffffffffffffffffffffffffffffffffffff1916827bffffffffffffffffffffffffffffffffffffffffffffffffffffffff1916145b806105945750610593826113ef565b5b9050919050565b6060600080546105aa90612cbb565b80601f01602080910402602001604051908101604052809291908181526020018280546105d690612cbb565b80156106235780601f106105f857610100808354040283529160200191610623565b820191906000526020600020905b81548152906001019060200180831161060657829003601f168201915b5050505050905090565b600061063882611459565b610677576040517f08c379a000000000000000000000000000000000000000000000000000000000815260040161066e90612d5f565b60405180910390fd5b6004600083815260200190815260200160002060009054906101000a900473ffffffffffffffffffffffffffffffffffffffff169050919050565b60006106bd826109bf565b90508073ffffffffffffffffffffffffffffffffffffffff168373ffffffffffffffffffffffffffffffffffffffff16141561072e576040517f08c379a000000000000000000000000000000000000000000000000000000000815260040161072590612df1565b60405180910390fd5b8073ffffffffffffffffffffffffffffffffffffffff1661074d6114c5565b73ffffffffffffffffffffffffffffffffffffffff16148061077c575061077b816107766114c5565b611263565b5b6107bb576040517f08c379a00000000000000000000000000000000000000000000000000000000081526004016107b290612e83565b60405180910390fd5b6107c583836114cd565b505050565b6000600760008373ffffffffffffffffffffffffffffffffffffffff1673ffffffffffffffffffffffffffffffffffffffff16815260200190815260200160002060009054906101000a900460ff169050919050565b61083161082b6114c5565b82611586565b610870576040517f08c379a000000000000000000000000000000000000000000000000000000000815260040161086790612f15565b60405180910390fd5b61087b838383611664565b505050565b80600a908051906020019061089692919061233d565b5050565b6108b583838360405180602001604052806000815250610f4d565b505050565b60011515600760003373ffffffffffffffffffffffffffffffffffffffff1673ffffffffffffffffffffffffffffffffffffffff16815260200190815260200160002060009054906101000a900460ff1615151461094d576040517f08c379a000000000000000000000000000000000000000000000000000000000815260040161094490612f81565b60405180910390fd5b60096000828152602001908152602001600020600080820160006101000a81549060ff02191690556000820160016101000a81549060ff02191690556001820160009055505061099c816118cb565b50565b60076020528060005260406000206000915054906101000a900460ff1681565b6000806002600084815260200190815260200160002060009054906101000a900473ffffffffffffffffffffffffffffffffffffffff169050600073ffffffffffffffffffffffffffffffffffffffff168173ffffffffffffffffffffffffffffffffffffffff161415610a68576040517f08c379a0000000000000000000000000000000000000000000000000000000008152600401610a5f90613013565b60405180910390fd5b80915050919050565b610a796123c3565b600960008381526020019081526020016000206040518060600160405290816000820160009054906101000a900460ff1660ff1660ff1681526020016000820160019054906101000a900460ff1660ff1660ff1681526020016001820154815250509050919050565b60008073ffffffffffffffffffffffffffffffffffffffff168273ffffffffffffffffffffffffffffffffffffffff161415610b53576040517f08c379a0000000000000000000000000000000000000000000000000000000008152600401610b4a906130a5565b60405180910390fd5b600360008373ffffffffffffffffffffffffffffffffffffffff1673ffffffffffffffffffffffffffffffffffffffff168152602001908152602001600020549050919050565b610ba26114c5565b73ffffffffffffffffffffffffffffffffffffffff16610bc0610c22565b73ffffffffffffffffffffffffffffffffffffffff1614610c16576040517f08c379a0000000000000000000000000000000000000000000000000000000008152600401610c0d90613111565b60405180910390fd5b610c2060006119e8565b565b6000600660009054906101000a900473ffffffffffffffffffffffffffffffffffffffff16905090565b610c546114c5565b73ffffffffffffffffffffffffffffffffffffffff16610c72610c22565b73ffffffffffffffffffffffffffffffffffffffff1614610cc8576040517f08c379a0000000000000000000000000000000000000000000000000000000008152600401610cbf90613111565b60405180910390fd5b600073ffffffffffffffffffffffffffffffffffffffff168173ffffffffffffffffffffffffffffffffffffffff161415610d38576040517f08c379a0000000000000000000000000000000000000000000000000000000008152600401610d2f906131a3565b60405180910390fd5b6001600760008373ffffffffffffffffffffffffffffffffffffffff1673ffffffffffffffffffffffffffffffffffffffff16815260200190815260200160002060006101000a81548160ff02191690831515021790555050565b606060018054610da290612cbb565b80601f0160208091040260200160405190810160405280929190818152602001828054610dce90612cbb565b8015610e1b5780601f10610df057610100808354040283529160200191610e1b565b820191906000526020600020905b815481529060010190602001808311610dfe57829003601f168201915b5050505050905090565b610e37610e306114c5565b8383611aae565b5050565b60606000610e4883610ae2565b905060008167ffffffffffffffff811115610e6657610e65612746565b5b604051908082528060200260200182016040528015610e945781602001602082028036833780820191505090505b5090506000821415610eaa578092505050610f48565b600080600190505b610ebc6008611c1b565b8111610f40578573ffffffffffffffffffffffffffffffffffffffff16610ee2826109bf565b73ffffffffffffffffffffffffffffffffffffffff161415610f2d5780838381518110610f1257610f116131c3565b5b6020026020010181815250508180610f2990613221565b9250505b8080610f3890613221565b915050610eb2565b508193505050505b919050565b610f5e610f586114c5565b83611586565b610f9d576040517f08c379a0000000000000000000000000000000000000000000000000000000008152600401610f9490612f15565b60405180910390fd5b610fa984848484611c29565b50505050565b6060610fba82611459565b610ff9576040517f08c379a0000000000000000000000000000000000000000000000000000000008152600401610ff0906132dc565b60405180910390fd5b600061100483610a71565b90506000611018826020015160ff16611c85565b611028836000015160ff16611c85565b6040516020016110399291906133d0565b60405160208183030381529060405290506000611054611de6565b905060008151141561106b578193505050506110b0565b6000825111156110a157808260405160200161108892919061340a565b60405160208183030381529060405293505050506110b0565b6110aa85611e78565b93505050505b919050565b60011515600760003373ffffffffffffffffffffffffffffffffffffffff1673ffffffffffffffffffffffffffffffffffffffff16815260200190815260200160002060009054906101000a900460ff16151514611148576040517f08c379a000000000000000000000000000000000000000000000000000000000815260040161113f90612f81565b60405180910390fd5b600073ffffffffffffffffffffffffffffffffffffffff168173ffffffffffffffffffffffffffffffffffffffff1614156111b8576040517f08c379a00000000000000000000000000000000000000000000000000000000081526004016111af906134a0565b60405180910390fd5b6111c26008611f1f565b60006111ce6008611c1b565b905060405180606001604052808560ff1681526020018460ff168152602001428152506009600083815260200190815260200160002060008201518160000160006101000a81548160ff021916908360ff16021790555060208201518160000160016101000a81548160ff021916908360ff1602179055506040820151816001015590505061125d8282611f35565b50505050565b6000600560008473ffffffffffffffffffffffffffffffffffffffff1673ffffffffffffffffffffffffffffffffffffffff16815260200190815260200160002060008373ffffffffffffffffffffffffffffffffffffffff1673ffffffffffffffffffffffffffffffffffffffff16815260200190815260200160002060009054906101000a900460ff16905092915050565b6112ff6114c5565b73ffffffffffffffffffffffffffffffffffffffff1661131d610c22565b73ffffffffffffffffffffffffffffffffffffffff1614611373576040517f08c379a000000000000000000000000000000000000000000000000000000000815260040161136a90613111565b60405180910390fd5b600073ffffffffffffffffffffffffffffffffffffffff168173ffffffffffffffffffffffffffffffffffffffff1614156113e3576040517f08c379a00000000000000000000000000000000000000000000000000000000081526004016113da90613532565b60405180910390fd5b6113ec816119e8565b50565b60007f01ffc9a7000000000000000000000000000000000000000000000000000000007bffffffffffffffffffffffffffffffffffffffffffffffffffffffff1916827bffffffffffffffffffffffffffffffffffffffffffffffffffffffff1916149050919050565b60008073ffffffffffffffffffffffffffffffffffffffff166002600084815260200190815260200160002060009054906101000a900473ffffffffffffffffffffffffffffffffffffffff1673ffffffffffffffffffffffffffffffffffffffff1614159050919050565b600033905090565b816004600083815260200190815260200160002060006101000a81548173ffffffffffffffffffffffffffffffffffffffff021916908373ffffffffffffffffffffffffffffffffffffffff160217905550808273ffffffffffffffffffffffffffffffffffffffff16611540836109bf565b73ffffffffffffffffffffffffffffffffffffffff167f8c5be1e5ebec7d5bd14f71427d1e84f3dd0314c0f7b2291e5b200ac8c7c3b92560405160405180910390a45050565b600061159182611459565b6115d0576040517f08c379a00000000000000000000000000000000000000000000000000000000081526004016115c7906135c4565b60405180910390fd5b60006115db836109bf565b90508073ffffffffffffffffffffffffffffffffffffffff168473ffffffffffffffffffffffffffffffffffffffff16148061164a57508373ffffffffffffffffffffffffffffffffffffffff166116328461062d565b73ffffffffffffffffffffffffffffffffffffffff16145b8061165b575061165a8185611263565b5b91505092915050565b8273ffffffffffffffffffffffffffffffffffffffff16611684826109bf565b73ffffffffffffffffffffffffffffffffffffffff16146116da576040517f08c379a00000000000000000000000000000000000000000000000000000000081526004016116d190613656565b60405180910390fd5b600073ffffffffffffffffffffffffffffffffffffffff168273ffffffffffffffffffffffffffffffffffffffff16141561174a576040517f08c379a0000000000000000000000000000000000000000000000000000000008152600401611741906136e8565b60405180910390fd5b611755838383611f53565b6117606000826114cd565b6001600360008573ffffffffffffffffffffffffffffffffffffffff1673ffffffffffffffffffffffffffffffffffffffff16815260200190815260200160002060008282546117b09190613708565b925050819055506001600360008473ffffffffffffffffffffffffffffffffffffffff1673ffffffffffffffffffffffffffffffffffffffff1681526020019081526020016000206000828254611807919061373c565b92505081905550816002600083815260200190815260200160002060006101000a81548173ffffffffffffffffffffffffffffffffffffffff021916908373ffffffffffffffffffffffffffffffffffffffff160217905550808273ffffffffffffffffffffffffffffffffffffffff168473ffffffffffffffffffffffffffffffffffffffff167fddf252ad1be2c89b69c2b068fc378daa952ba7f163c4a11628f55a4df523b3ef60405160405180910390a46118c6838383611f58565b505050565b60006118d6826109bf565b90506118e481600084611f53565b6118ef6000836114cd565b6001600360008373ffffffffffffffffffffffffffffffffffffffff1673ffffffffffffffffffffffffffffffffffffffff168152602001908152602001600020600082825461193f9190613708565b925050819055506002600083815260200190815260200160002060006101000a81549073ffffffffffffffffffffffffffffffffffffffff021916905581600073ffffffffffffffffffffffffffffffffffffffff168273ffffffffffffffffffffffffffffffffffffffff167fddf252ad1be2c89b69c2b068fc378daa952ba7f163c4a11628f55a4df523b3ef60405160405180910390a46119e481600084611f58565b5050565b6000600660009054906101000a900473ffffffffffffffffffffffffffffffffffffffff16905081600660006101000a81548173ffffffffffffffffffffffffffffffffffffffff021916908373ffffffffffffffffffffffffffffffffffffffff1602179055508173ffffffffffffffffffffffffffffffffffffffff168173ffffffffffffffffffffffffffffffffffffffff167f8be0079c531659141344cd1fd0a4f28419497f9722a3daafe3b4186f6b6457e060405160405180910390a35050565b8173ffffffffffffffffffffffffffffffffffffffff168373ffffffffffffffffffffffffffffffffffffffff161415611b1d576040517f08c379a0000000000000000000000000000000000000000000000000000000008152600401611b14906137de565b60405180910390fd5b80600560008573ffffffffffffffffffffffffffffffffffffffff1673ffffffffffffffffffffffffffffffffffffffff16815260200190815260200160002060008473ffffffffffffffffffffffffffffffffffffffff1673ffffffffffffffffffffffffffffffffffffffff16815260200190815260200160002060006101000a81548160ff0219169083151502179055508173ffffffffffffffffffffffffffffffffffffffff168373ffffffffffffffffffffffffffffffffffffffff167f17307eab39ab6107e8899845ad3d59bd9653f200f220920489ca2b5937696c3183604051611c0e91906124bb565b60405180910390a3505050565b600081600001549050919050565b611c34848484611664565b611c4084848484611f5d565b611c7f576040517f08c379a0000000000000000000000000000000000000000000000000000000008152600401611c7690613870565b60405180910390fd5b50505050565b60606000821415611ccd576040518060400160405280600181526020017f30000000000000000000000000000000000000000000000000000000000000008152509050611de1565b600082905060005b60008214611cff578080611ce890613221565b915050600a82611cf891906138bf565b9150611cd5565b60008167ffffffffffffffff811115611d1b57611d1a612746565b5b6040519080825280601f01601f191660200182016040528015611d4d5781602001600182028036833780820191505090505b5090505b60008514611dda57600182611d669190613708565b9150600a85611d7591906138f0565b6030611d81919061373c565b60f81b818381518110611d9757611d966131c3565b5b60200101907effffffffffffffffffffffffffffffffffffffffffffffffffffffffffffff1916908160001a905350600a85611dd391906138bf565b9450611d51565b8093505050505b919050565b6060600a8054611df590612cbb565b80601f0160208091040260200160405190810160405280929190818152602001828054611e2190612cbb565b8015611e6e5780601f10611e4357610100808354040283529160200191611e6e565b820191906000526020600020905b815481529060010190602001808311611e5157829003601f168201915b5050505050905090565b6060611e8382611459565b611ec2576040517f08c379a0000000000000000000000000000000000000000000000000000000008152600401611eb990613993565b60405180910390fd5b6000611ecc611de6565b90506000815111611eec5760405180602001604052806000815250611f17565b80611ef684611c85565b604051602001611f0792919061340a565b6040516020818303038152906040525b915050919050565b6001816000016000828254019250508190555050565b611f4f8282604051806020016040528060008152506120e5565b5050565b505050565b505050565b6000611f7e8473ffffffffffffffffffffffffffffffffffffffff16612140565b156120d8578373ffffffffffffffffffffffffffffffffffffffff1663150b7a02611fa76114c5565b8786866040518563ffffffff1660e01b8152600401611fc99493929190613a08565b6020604051808303816000875af192505050801561200557506040513d601f19601f820116820180604052508101906120029190613a69565b60015b612088573d8060008114612035576040519150601f19603f3d011682016040523d82523d6000602084013e61203a565b606091505b50600081511415612080576040517f08c379a000000000000000000000000000000000000000000000000000000000815260040161207790613870565b60405180910390fd5b805181602001fd5b63150b7a0260e01b7bffffffffffffffffffffffffffffffffffffffffffffffffffffffff1916817bffffffffffffffffffffffffffffffffffffffffffffffffffffffff1916149150506120dd565b600190505b949350505050565b6120ef8383612163565b6120fc6000848484611f5d565b61213b576040517f08c379a000000000000000000000000000000000000000000000000000000000815260040161213290613870565b60405180910390fd5b505050565b6000808273ffffffffffffffffffffffffffffffffffffffff163b119050919050565b600073ffffffffffffffffffffffffffffffffffffffff168273ffffffffffffffffffffffffffffffffffffffff1614156121d3576040517f08c379a00000000000000000000000000000000000000000000000000000000081526004016121ca90613ae2565b60405180910390fd5b6121dc81611459565b1561221c576040517f08c379a000000000000000000000000000000000000000000000000000000000815260040161221390613b4e565b60405180910390fd5b61222860008383611f53565b6001600360008473ffffffffffffffffffffffffffffffffffffffff1673ffffffffffffffffffffffffffffffffffffffff1681526020019081526020016000206000828254612278919061373c565b92505081905550816002600083815260200190815260200160002060006101000a81548173ffffffffffffffffffffffffffffffffffffffff021916908373ffffffffffffffffffffffffffffffffffffffff160217905550808273ffffffffffffffffffffffffffffffffffffffff16600073ffffffffffffffffffffffffffffffffffffffff167fddf252ad1be2c89b69c2b068fc378daa952ba7f163c4a11628f55a4df523b3ef60405160405180910390a461233960008383611f58565b5050565b82805461234990612cbb565b90600052602060002090601f01602090048101928261236b57600085556123b2565b82601f1061238457805160ff19168380011785556123b2565b828001600101855582156123b2579182015b828111156123b1578251825591602001919060010190612396565b5b5090506123bf91906123ea565b5090565b6040518060600160405280600060ff168152602001600060ff168152602001600081525090565b5b808211156124035760008160009055506001016123eb565b5090565b6000604051905090565b600080fd5b600080fd5b60007fffffffff0000000000000000000000000000000000000000000000000000000082169050919050565b6124508161241b565b811461245b57600080fd5b50565b60008135905061246d81612447565b92915050565b60006020828403121561248957612488612411565b5b60006124978482850161245e565b91505092915050565b60008115159050919050565b6124b5816124a0565b82525050565b60006020820190506124d060008301846124ac565b92915050565b600081519050919050565b600082825260208201905092915050565b60005b838110156125105780820151818401526020810190506124f5565b8381111561251f576000848401525b50505050565b6000601f19601f8301169050919050565b6000612541826124d6565b61254b81856124e1565b935061255b8185602086016124f2565b61256481612525565b840191505092915050565b600060208201905081810360008301526125898184612536565b905092915050565b6000819050919050565b6125a481612591565b81146125af57600080fd5b50565b6000813590506125c18161259b565b92915050565b6000602082840312156125dd576125dc612411565b5b60006125eb848285016125b2565b91505092915050565b600073ffffffffffffffffffffffffffffffffffffffff82169050919050565b600061261f826125f4565b9050919050565b61262f81612614565b82525050565b600060208201905061264a6000830184612626565b92915050565b61265981612614565b811461266457600080fd5b50565b60008135905061267681612650565b92915050565b6000806040838503121561269357612692612411565b5b60006126a185828601612667565b92505060206126b2858286016125b2565b9150509250929050565b6000602082840312156126d2576126d1612411565b5b60006126e084828501612667565b91505092915050565b60008060006060848603121561270257612701612411565b5b600061271086828701612667565b935050602061272186828701612667565b9250506040612732868287016125b2565b9150509250925092565b600080fd5b600080fd5b7f4e487b7100000000000000000000000000000000000000000000000000000000600052604160045260246000fd5b61277e82612525565b810181811067ffffffffffffffff8211171561279d5761279c612746565b5b80604052505050565b60006127b0612407565b90506127bc8282612775565b919050565b600067ffffffffffffffff8211156127dc576127db612746565b5b6127e582612525565b9050602081019050919050565b82818337600083830152505050565b600061281461280f846127c1565b6127a6565b9050828152602081018484840111156128305761282f612741565b5b61283b8482856127f2565b509392505050565b600082601f8301126128585761285761273c565b5b8135612868848260208601612801565b91505092915050565b60006020828403121561288757612886612411565b5b600082013567ffffffffffffffff8111156128a5576128a4612416565b5b6128b184828501612843565b91505092915050565b600060ff82169050919050565b6128d0816128ba565b82525050565b6128df81612591565b82525050565b6060820160008201516128fb60008501826128c7565b50602082015161290e60208501826128c7565b50604082015161292160408501826128d6565b50505050565b600060608201905061293c60008301846128e5565b92915050565b61294b81612591565b82525050565b60006020820190506129666000830184612942565b92915050565b612975816124a0565b811461298057600080fd5b50565b6000813590506129928161296c565b92915050565b600080604083850312156129af576129ae612411565b5b60006129bd85828601612667565b92505060206129ce85828601612983565b9150509250929050565b600081519050919050565b600082825260208201905092915050565b6000819050602082019050919050565b6000612a1083836128d6565b60208301905092915050565b6000602082019050919050565b6000612a34826129d8565b612a3e81856129e3565b9350612a49836129f4565b8060005b83811015612a7a578151612a618882612a04565b9750612a6c83612a1c565b925050600181019050612a4d565b5085935050505092915050565b60006020820190508181036000830152612aa18184612a29565b905092915050565b600067ffffffffffffffff821115612ac457612ac3612746565b5b612acd82612525565b9050602081019050919050565b6000612aed612ae884612aa9565b6127a6565b905082815260208101848484011115612b0957612b08612741565b5b612b148482856127f2565b509392505050565b600082601f830112612b3157612b3061273c565b5b8135612b41848260208601612ada565b91505092915050565b60008060008060808587031215612b6457612b63612411565b5b6000612b7287828801612667565b9450506020612b8387828801612667565b9350506040612b94878288016125b2565b925050606085013567ffffffffffffffff811115612bb557612bb4612416565b5b612bc187828801612b1c565b91505092959194509250565b612bd6816128ba565b8114612be157600080fd5b50565b600081359050612bf381612bcd565b92915050565b600080600060608486031215612c1257612c11612411565b5b6000612c2086828701612be4565b9350506020612c3186828701612be4565b9250506040612c4286828701612667565b9150509250925092565b60008060408385031215612c6357612c62612411565b5b6000612c7185828601612667565b9250506020612c8285828601612667565b9150509250929050565b7f4e487b7100000000000000000000000000000000000000000000000000000000600052602260045260246000fd5b60006002820490506001821680612cd357607f821691505b60208210811415612ce757612ce6612c8c565b5b50919050565b7f4552433732313a20617070726f76656420717565727920666f72206e6f6e657860008201527f697374656e7420746f6b656e0000000000000000000000000000000000000000602082015250565b6000612d49602c836124e1565b9150612d5482612ced565b604082019050919050565b60006020820190508181036000830152612d7881612d3c565b9050919050565b7f4552433732313a20617070726f76616c20746f2063757272656e74206f776e6560008201527f7200000000000000000000000000000000000000000000000000000000000000602082015250565b6000612ddb6021836124e1565b9150612de682612d7f565b604082019050919050565b60006020820190508181036000830152612e0a81612dce565b9050919050565b7f4552433732313a20617070726f76652063616c6c6572206973206e6f74206f7760008201527f6e6572206e6f7220617070726f76656420666f7220616c6c0000000000000000602082015250565b6000612e6d6038836124e1565b9150612e7882612e11565b604082019050919050565b60006020820190508181036000830152612e9c81612e60565b9050919050565b7f4552433732313a207472616e736665722063616c6c6572206973206e6f74206f60008201527f776e6572206e6f7220617070726f766564000000000000000000000000000000602082015250565b6000612eff6031836124e1565b9150612f0a82612ea3565b604082019050919050565b60006020820190508181036000830152612f2e81612ef2565b9050919050565b7f4e6f74206d696e7461626c650000000000000000000000000000000000000000600082015250565b6000612f6b600c836124e1565b9150612f7682612f35565b602082019050919050565b60006020820190508181036000830152612f9a81612f5e565b9050919050565b7f4552433732313a206f776e657220717565727920666f72206e6f6e657869737460008201527f656e7420746f6b656e0000000000000000000000000000000000000000000000602082015250565b6000612ffd6029836124e1565b915061300882612fa1565b604082019050919050565b6000602082019050818103600083015261302c81612ff0565b9050919050565b7f4552433732313a2062616c616e636520717565727920666f7220746865207a6560008201527f726f206164647265737300000000000000000000000000000000000000000000602082015250565b600061308f602a836124e1565b915061309a82613033565b604082019050919050565b600060208201905081810360008301526130be81613082565b9050919050565b7f4f776e61626c653a2063616c6c6572206973206e6f7420746865206f776e6572600082015250565b60006130fb6020836124e1565b9150613106826130c5565b602082019050919050565b6000602082019050818103600083015261312a816130ee565b9050919050565b7f42756c6c4e46543a204d696e7461626c65206d757374206265206e6f6e2d7a6560008201527f726f206164647265737300000000000000000000000000000000000000000000602082015250565b600061318d602a836124e1565b915061319882613131565b604082019050919050565b600060208201905081810360008301526131bc81613180565b9050919050565b7f4e487b7100000000000000000000000000000000000000000000000000000000600052603260045260246000fd5b7f4e487b7100000000000000000000000000000000000000000000000000000000600052601160045260246000fd5b600061322c82612591565b91507fffffffffffffffffffffffffffffffffffffffffffffffffffffffffffffffff82141561325f5761325e6131f2565b5b600182019050919050565b7f42756c6c4e46543a20546f6b656e2055524920666f72206e6f6e65786973746560008201527f6e7420746f6b656e000000000000000000000000000000000000000000000000602082015250565b60006132c66028836124e1565b91506132d18261326a565b604082019050919050565b600060208201905081810360008301526132f5816132b9565b9050919050565b600081905092915050565b6000613312826124d6565b61331c81856132fc565b935061332c8185602086016124f2565b80840191505092915050565b7f2d00000000000000000000000000000000000000000000000000000000000000600082015250565b600061336e6001836132fc565b915061337982613338565b600182019050919050565b7f2e6a736f6e000000000000000000000000000000000000000000000000000000600082015250565b60006133ba6005836132fc565b91506133c582613384565b600582019050919050565b60006133dc8285613307565b91506133e782613361565b91506133f38284613307565b91506133fe826133ad565b91508190509392505050565b60006134168285613307565b91506134228284613307565b91508190509392505050565b7f42756c6c4e46543a204f776e6572206d757374206265206e6f6e2d7a65726f2060008201527f616464726573732e000000000000000000000000000000000000000000000000602082015250565b600061348a6028836124e1565b91506134958261342e565b604082019050919050565b600060208201905081810360008301526134b98161347d565b9050919050565b7f4f776e61626c653a206e6577206f776e657220697320746865207a65726f206160008201527f6464726573730000000000000000000000000000000000000000000000000000602082015250565b600061351c6026836124e1565b9150613527826134c0565b604082019050919050565b6000602082019050818103600083015261354b8161350f565b9050919050565b7f4552433732313a206f70657261746f7220717565727920666f72206e6f6e657860008201527f697374656e7420746f6b656e0000000000000000000000000000000000000000602082015250565b60006135ae602c836124e1565b91506135b982613552565b604082019050919050565b600060208201905081810360008301526135dd816135a1565b9050919050565b7f4552433732313a207472616e736665722066726f6d20696e636f72726563742060008201527f6f776e6572000000000000000000000000000000000000000000000000000000602082015250565b60006136406025836124e1565b915061364b826135e4565b604082019050919050565b6000602082019050818103600083015261366f81613633565b9050919050565b7f4552433732313a207472616e7366657220746f20746865207a65726f2061646460008201527f7265737300000000000000000000000000000000000000000000000000000000602082015250565b60006136d26024836124e1565b91506136dd82613676565b604082019050919050565b60006020820190508181036000830152613701816136c5565b9050919050565b600061371382612591565b915061371e83612591565b925082821015613731576137306131f2565b5b828203905092915050565b600061374782612591565b915061375283612591565b9250827fffffffffffffffffffffffffffffffffffffffffffffffffffffffffffffffff03821115613787576137866131f2565b5b828201905092915050565b7f4552433732313a20617070726f766520746f2063616c6c657200000000000000600082015250565b60006137c86019836124e1565b91506137d382613792565b602082019050919050565b600060208201905081810360008301526137f7816137bb565b9050919050565b7f4552433732313a207472616e7366657220746f206e6f6e20455243373231526560008201527f63656976657220696d706c656d656e7465720000000000000000000000000000602082015250565b600061385a6032836124e1565b9150613865826137fe565b604082019050919050565b600060208201905081810360008301526138898161384d565b9050919050565b7f4e487b7100000000000000000000000000000000000000000000000000000000600052601260045260246000fd5b60006138ca82612591565b91506138d583612591565b9250826138e5576138e4613890565b5b828204905092915050565b60006138fb82612591565b915061390683612591565b92508261391657613915613890565b5b828206905092915050565b7f4552433732314d657461646174613a2055524920717565727920666f72206e6f60008201527f6e6578697374656e7420746f6b656e0000000000000000000000000000000000602082015250565b600061397d602f836124e1565b915061398882613921565b604082019050919050565b600060208201905081810360008301526139ac81613970565b9050919050565b600081519050919050565b600082825260208201905092915050565b60006139da826139b3565b6139e481856139be565b93506139f48185602086016124f2565b6139fd81612525565b840191505092915050565b6000608082019050613a1d6000830187612626565b613a2a6020830186612626565b613a376040830185612942565b8181036060830152613a4981846139cf565b905095945050505050565b600081519050613a6381612447565b92915050565b600060208284031215613a7f57613a7e612411565b5b6000613a8d84828501613a54565b91505092915050565b7f4552433732313a206d696e7420746f20746865207a65726f2061646472657373600082015250565b6000613acc6020836124e1565b9150613ad782613a96565b602082019050919050565b60006020820190508181036000830152613afb81613abf565b9050919050565b7f4552433732313a20746f6b656e20616c7265616479206d696e74656400000000600082015250565b6000613b38601c836124e1565b9150613b4382613b02565b602082019050919050565b60006020820190508181036000830152613b6781613b2b565b905091905056fea264697066735822122088df22bbf6b1e8433b49e6cfd21fb78c577e39c4f46653caa5801d11b95cf17264736f6c634300080c0033",
  "immutableReferences": {},
  "source": "// SPDX-License-Identifier: MIT\npragma solidity >=0.4.22 <0.9.0;\n\nimport \"@openzeppelin/contracts/token/ERC721/ERC721.sol\";\nimport \"@openzeppelin/contracts/utils/Counters.sol\";\nimport \"@openzeppelin/contracts/access/Ownable.sol\";\nimport \"./access/Mintable.sol\";\nimport \"./interfaces/IBullNFT.sol\";\n\ncontract BullNFT is IBullNFT, ERC721, Ownable, Mintable {\n  using Counters for Counters.Counter;\n  using Strings for uint8;\n  \n  Counters.Counter private currentTokenId;\n\n  mapping(uint => CattleAttr) private attrs;\n  string private baseTokenUri;\n\n  constructor() ERC721(\"CashCow Bull NFT\", \"CBN\") {\n\n  }\n\n  function mint(uint8 _rarity, uint8 _breed, address _owner) public onlyMintable {\n    require(_owner != address(0), \"BullNFT: Owner must be non-zero address.\");\n\n    currentTokenId.increment();\n    uint256 tokenId = currentTokenId.current();\n    attrs[tokenId] = CattleAttr(_rarity, _breed, block.timestamp);\n    _safeMint(_owner, tokenId);\n  }\n\n  function burn(uint _tokenId) public onlyMintable {\n    // Missing: Check if valid tokenId\n    delete attrs[_tokenId];\n    _burn(_tokenId);\n  }\n\n  // Get attributes of the NFT by its tokenId.\n  function attrOf(uint _tokenId) public view returns (CattleAttr memory) {\n    return attrs[_tokenId];\n  }\n\n  // Get list of tokenIds of owner.\n  function tokenIdsOf(address _owner) public view returns (uint[] memory) {\n    uint tokenAmount = balanceOf(_owner);\n    uint[] memory tokenIds = new uint[](tokenAmount);\n    if(tokenAmount == 0) {\n      return tokenIds;\n    }\n    \n    uint tokenIdx = 0;\n    for(uint tokenId=1;tokenId <= currentTokenId.current();tokenId ++) {\n      if(ownerOf(tokenId) == _owner) {\n        tokenIds[tokenIdx] = tokenId;\n        tokenIdx ++;\n      }\n    }\n\n    return tokenIds;\n  }\n\n  // Set base token uri.\n  function setBaseTokenURI(string memory _baseUri) public {\n    baseTokenUri = _baseUri;\n  }\n\n  // Get token uri by its tokenId.\n  function tokenURI(uint _tokenId) public view override returns (string memory) {\n    require(_exists(_tokenId), \"BullNFT: Token URI for nonexistent token\");\n\n    CattleAttr memory attr = attrOf(_tokenId);\n    string memory tokenUri = string(abi.encodePacked(attr.breed.toString(), \"-\", attr.rarity.toString(), \".json\"));\n    string memory base = _baseURI();\n\n    // If there is no base URI, return the token URI.\n    if (bytes(base).length == 0) {\n        return tokenUri;\n    }\n    // If both are set, concatenate the baseURI and tokenURI (via abi.encodePacked).\n    if (bytes(tokenUri).length > 0) {\n        return string(abi.encodePacked(base, tokenUri));\n    }\n\n    return super.tokenURI(_tokenId);\n  }\n\n  function setMintable(address _addr) public override onlyOwner {\n    require(_addr != address(0), \"BullNFT: Mintable must be non-zero address\");\n    mintable[_addr] = true;\n  }\n  \n  function _baseURI() internal view override returns (string memory) {\n    return baseTokenUri;\n  }\n}\n",
  "sourcePath": "D:\\Workspace\\Projects\\CashCow\\game-contracts\\contracts\\BullNFT.sol",
  "compiler": {
    "name": "solc",
    "version": "0.8.12+commit.f00d7308.Emscripten.clang"
  },
  "schemaVersion": "3.4.6",
  "updatedAt": "2022-04-10T19:25:52.036Z",
  "devdoc": {
    "kind": "dev",
    "methods": {
      "approve(address,uint256)": {
        "details": "See {IERC721-approve}."
      },
      "balanceOf(address)": {
        "details": "See {IERC721-balanceOf}."
      },
      "getApproved(uint256)": {
        "details": "See {IERC721-getApproved}."
      },
      "isApprovedForAll(address,address)": {
        "details": "See {IERC721-isApprovedForAll}."
      },
      "name()": {
        "details": "See {IERC721Metadata-name}."
      },
      "owner()": {
        "details": "Returns the address of the current owner."
      },
      "ownerOf(uint256)": {
        "details": "See {IERC721-ownerOf}."
      },
      "renounceOwnership()": {
        "details": "Leaves the contract without owner. It will not be possible to call `onlyOwner` functions anymore. Can only be called by the current owner. NOTE: Renouncing ownership will leave the contract without an owner, thereby removing any functionality that is only available to the owner."
      },
      "safeTransferFrom(address,address,uint256)": {
        "details": "See {IERC721-safeTransferFrom}."
      },
      "safeTransferFrom(address,address,uint256,bytes)": {
        "details": "See {IERC721-safeTransferFrom}."
      },
      "setApprovalForAll(address,bool)": {
        "details": "See {IERC721-setApprovalForAll}."
      },
      "supportsInterface(bytes4)": {
        "details": "See {IERC165-supportsInterface}."
      },
      "symbol()": {
        "details": "See {IERC721Metadata-symbol}."
      },
      "transferFrom(address,address,uint256)": {
        "details": "See {IERC721-transferFrom}."
      },
      "transferOwnership(address)": {
        "details": "Transfers ownership of the contract to a new account (`newOwner`). Can only be called by the current owner."
      }
    },
    "version": 1
  },
  "userdoc": {
    "kind": "user",
    "methods": {},
    "version": 1
  }
}