{
  "contractName": "Genesis",
  "abi": [
    {
      "inputs": [
        {
          "internalType": "uint256",
          "name": "_blockNumber",
          "type": "uint256"
        },
        {
          "internalType": "contract IMilkToken",
          "name": "_tokenMilk",
          "type": "address"
        },
        {
          "internalType": "string",
          "name": "_baseURI",
          "type": "string"
        },
        {
          "internalType": "string",
          "name": "_cID",
          "type": "string"
        },
        {
          "internalType": "address",
          "name": "_marketAddress",
          "type": "address"
        },
        {
          "internalType": "address",
          "name": "_ownerAddr",
          "type": "address"
        }
      ],
      "stateMutability": "nonpayable",
      "type": "constructor"
    },
    {
      "anonymous": false,
      "inputs": [
        {
          "indexed": true,
          "internalType": "address",
          "name": "owner",
          "type": "address"
        },
        {
          "indexed": true,
          "internalType": "address",
          "name": "approved",
          "type": "address"
        },
        {
          "indexed": true,
          "internalType": "uint256",
          "name": "tokenId",
          "type": "uint256"
        }
      ],
      "name": "Approval",
      "type": "event"
    },
    {
      "anonymous": false,
      "inputs": [
        {
          "indexed": true,
          "internalType": "address",
          "name": "owner",
          "type": "address"
        },
        {
          "indexed": true,
          "internalType": "address",
          "name": "operator",
          "type": "address"
        },
        {
          "indexed": false,
          "internalType": "bool",
          "name": "approved",
          "type": "bool"
        }
      ],
      "name": "ApprovalForAll",
      "type": "event"
    },
    {
      "anonymous": false,
      "inputs": [
        {
          "indexed": true,
          "internalType": "uint256",
          "name": "itemId",
          "type": "uint256"
        },
        {
          "indexed": false,
          "internalType": "string",
          "name": "metaHash",
          "type": "string"
        }
      ],
      "name": "BuyBlindBox",
      "type": "event"
    },
    {
      "anonymous": false,
      "inputs": [
        {
          "indexed": true,
          "internalType": "address",
          "name": "previousOwner",
          "type": "address"
        },
        {
          "indexed": true,
          "internalType": "address",
          "name": "newOwner",
          "type": "address"
        }
      ],
      "name": "OwnershipTransferred",
      "type": "event"
    },
    {
      "anonymous": false,
      "inputs": [
        {
          "indexed": true,
          "internalType": "address",
          "name": "from",
          "type": "address"
        },
        {
          "indexed": true,
          "internalType": "address",
          "name": "to",
          "type": "address"
        },
        {
          "indexed": true,
          "internalType": "uint256",
          "name": "tokenId",
          "type": "uint256"
        }
      ],
      "name": "Transfer",
      "type": "event"
    },
    {
      "inputs": [
        {
          "internalType": "address",
          "name": "to",
          "type": "address"
        },
        {
          "internalType": "uint256",
          "name": "tokenId",
          "type": "uint256"
        }
      ],
      "name": "approve",
      "outputs": [],
      "stateMutability": "nonpayable",
      "type": "function"
    },
    {
      "inputs": [
        {
          "internalType": "address",
          "name": "owner",
          "type": "address"
        }
      ],
      "name": "balanceOf",
      "outputs": [
        {
          "internalType": "uint256",
          "name": "",
          "type": "uint256"
        }
      ],
      "stateMutability": "view",
      "type": "function",
      "constant": true
    },
    {
      "inputs": [],
      "name": "baseURI",
      "outputs": [
        {
          "internalType": "string",
          "name": "",
          "type": "string"
        }
      ],
      "stateMutability": "view",
      "type": "function",
      "constant": true
    },
    {
      "inputs": [],
      "name": "blockNumber",
      "outputs": [
        {
          "internalType": "uint256",
          "name": "",
          "type": "uint256"
        }
      ],
      "stateMutability": "view",
      "type": "function",
      "constant": true
    },
    {
      "inputs": [],
      "name": "cID",
      "outputs": [
        {
          "internalType": "string",
          "name": "",
          "type": "string"
        }
      ],
      "stateMutability": "view",
      "type": "function",
      "constant": true
    },
    {
      "inputs": [
        {
          "internalType": "uint256",
          "name": "tokenId",
          "type": "uint256"
        }
      ],
      "name": "getApproved",
      "outputs": [
        {
          "internalType": "address",
          "name": "",
          "type": "address"
        }
      ],
      "stateMutability": "view",
      "type": "function",
      "constant": true
    },
    {
      "inputs": [
        {
          "internalType": "address",
          "name": "owner",
          "type": "address"
        },
        {
          "internalType": "address",
          "name": "operator",
          "type": "address"
        }
      ],
      "name": "isApprovedForAll",
      "outputs": [
        {
          "internalType": "bool",
          "name": "",
          "type": "bool"
        }
      ],
      "stateMutability": "view",
      "type": "function",
      "constant": true
    },
    {
      "inputs": [],
      "name": "marketAddress",
      "outputs": [
        {
          "internalType": "address",
          "name": "",
          "type": "address"
        }
      ],
      "stateMutability": "view",
      "type": "function",
      "constant": true
    },
    {
      "inputs": [],
      "name": "name",
      "outputs": [
        {
          "internalType": "string",
          "name": "",
          "type": "string"
        }
      ],
      "stateMutability": "view",
      "type": "function",
      "constant": true
    },
    {
      "inputs": [],
      "name": "owner",
      "outputs": [
        {
          "internalType": "address",
          "name": "",
          "type": "address"
        }
      ],
      "stateMutability": "view",
      "type": "function",
      "constant": true
    },
    {
      "inputs": [
        {
          "internalType": "uint256",
          "name": "tokenId",
          "type": "uint256"
        }
      ],
      "name": "ownerOf",
      "outputs": [
        {
          "internalType": "address",
          "name": "",
          "type": "address"
        }
      ],
      "stateMutability": "view",
      "type": "function",
      "constant": true
    },
    {
      "inputs": [],
      "name": "price",
      "outputs": [
        {
          "internalType": "uint256",
          "name": "",
          "type": "uint256"
        }
      ],
      "stateMutability": "view",
      "type": "function",
      "constant": true
    },
    {
      "inputs": [],
      "name": "renounceOwnership",
      "outputs": [],
      "stateMutability": "nonpayable",
      "type": "function"
    },
    {
      "inputs": [
        {
          "internalType": "address",
          "name": "from",
          "type": "address"
        },
        {
          "internalType": "address",
          "name": "to",
          "type": "address"
        },
        {
          "internalType": "uint256",
          "name": "tokenId",
          "type": "uint256"
        }
      ],
      "name": "safeTransferFrom",
      "outputs": [],
      "stateMutability": "nonpayable",
      "type": "function"
    },
    {
      "inputs": [
        {
          "internalType": "address",
          "name": "from",
          "type": "address"
        },
        {
          "internalType": "address",
          "name": "to",
          "type": "address"
        },
        {
          "internalType": "uint256",
          "name": "tokenId",
          "type": "uint256"
        },
        {
          "internalType": "bytes",
          "name": "_data",
          "type": "bytes"
        }
      ],
      "name": "safeTransferFrom",
      "outputs": [],
      "stateMutability": "nonpayable",
      "type": "function"
    },
    {
      "inputs": [
        {
          "internalType": "address",
          "name": "operator",
          "type": "address"
        },
        {
          "internalType": "bool",
          "name": "approved",
          "type": "bool"
        }
      ],
      "name": "setApprovalForAll",
      "outputs": [],
      "stateMutability": "nonpayable",
      "type": "function"
    },
    {
      "inputs": [
        {
          "internalType": "bytes4",
          "name": "interfaceId",
          "type": "bytes4"
        }
      ],
      "name": "supportsInterface",
      "outputs": [
        {
          "internalType": "bool",
          "name": "",
          "type": "bool"
        }
      ],
      "stateMutability": "view",
      "type": "function",
      "constant": true
    },
    {
      "inputs": [],
      "name": "symbol",
      "outputs": [
        {
          "internalType": "string",
          "name": "",
          "type": "string"
        }
      ],
      "stateMutability": "view",
      "type": "function",
      "constant": true
    },
    {
      "inputs": [
        {
          "internalType": "uint256",
          "name": "tokenId",
          "type": "uint256"
        }
      ],
      "name": "tokenURI",
      "outputs": [
        {
          "internalType": "string",
          "name": "",
          "type": "string"
        }
      ],
      "stateMutability": "view",
      "type": "function",
      "constant": true
    },
    {
      "inputs": [
        {
          "internalType": "address",
          "name": "from",
          "type": "address"
        },
        {
          "internalType": "address",
          "name": "to",
          "type": "address"
        },
        {
          "internalType": "uint256",
          "name": "tokenId",
          "type": "uint256"
        }
      ],
      "name": "transferFrom",
      "outputs": [],
      "stateMutability": "nonpayable",
      "type": "function"
    },
    {
      "inputs": [
        {
          "internalType": "address",
          "name": "newOwner",
          "type": "address"
        }
      ],
      "name": "transferOwnership",
      "outputs": [],
      "stateMutability": "nonpayable",
      "type": "function"
    },
    {
      "inputs": [],
      "name": "buyBlindBox",
      "outputs": [],
      "stateMutability": "nonpayable",
      "type": "function"
    },
    {
      "inputs": [
        {
          "internalType": "address",
          "name": "_ownerAddr",
          "type": "address"
        }
      ],
      "name": "setOwnerAddr",
      "outputs": [],
      "stateMutability": "nonpayable",
      "type": "function"
    },
    {
      "inputs": [],
      "name": "getOwnerAddr",
      "outputs": [
        {
          "internalType": "address",
          "name": "",
          "type": "address"
        }
      ],
      "stateMutability": "view",
      "type": "function",
      "constant": true
    },
    {
      "inputs": [
        {
          "internalType": "uint256",
          "name": "_price",
          "type": "uint256"
        }
      ],
      "name": "setPrice",
      "outputs": [],
      "stateMutability": "nonpayable",
      "type": "function"
    },
    {
      "inputs": [
        {
          "internalType": "uint256",
          "name": "_blockNumber",
          "type": "uint256"
        }
      ],
      "name": "setBlockNumber",
      "outputs": [],
      "stateMutability": "nonpayable",
      "type": "function"
    },
    {
      "inputs": [
        {
          "internalType": "string",
          "name": "_baseURI",
          "type": "string"
        }
      ],
      "name": "setBaseURI",
      "outputs": [],
      "stateMutability": "nonpayable",
      "type": "function"
    },
    {
      "inputs": [
        {
          "internalType": "string",
          "name": "_cID",
          "type": "string"
        }
      ],
      "name": "setCID",
      "outputs": [],
      "stateMutability": "nonpayable",
      "type": "function"
    },
    {
      "inputs": [
        {
          "internalType": "address",
          "name": "_from",
          "type": "address"
        },
        {
          "internalType": "address",
          "name": "_to",
          "type": "address"
        },
        {
          "internalType": "uint256",
          "name": "_tokenId",
          "type": "uint256"
        }
      ],
      "name": "transfer",
      "outputs": [],
      "stateMutability": "nonpayable",
      "type": "function"
    },
    {
      "inputs": [],
      "name": "getBlockNumber",
      "outputs": [
        {
          "internalType": "uint256",
          "name": "",
          "type": "uint256"
        }
      ],
      "stateMutability": "view",
      "type": "function",
      "constant": true
    },
    {
      "inputs": [],
      "name": "totalSupply",
      "outputs": [
        {
          "internalType": "uint256",
          "name": "",
          "type": "uint256"
        }
      ],
      "stateMutability": "view",
      "type": "function",
      "constant": true
    },
    {
      "inputs": [
        {
          "internalType": "uint256",
          "name": "tokenId",
          "type": "uint256"
        }
      ],
      "name": "getTokenFullURI",
      "outputs": [
        {
          "internalType": "string",
          "name": "",
          "type": "string"
        }
      ],
      "stateMutability": "view",
      "type": "function",
      "constant": true
    },
    {
      "inputs": [],
      "name": "getBaseURI",
      "outputs": [
        {
          "internalType": "string",
          "name": "",
          "type": "string"
        }
      ],
      "stateMutability": "view",
      "type": "function",
      "constant": true
    },
    {
      "inputs": [],
      "name": "fetchMyNfts",
      "outputs": [
        {
          "internalType": "uint256[]",
          "name": "",
          "type": "uint256[]"
        }
      ],
      "stateMutability": "view",
      "type": "function",
      "constant": true
    }
  ],
  "bytecode": "0x60806040523480156200001157600080fd5b5060405162004acb38038062004acb83398181016040528101906200003791906200044c565b6040518060400160405280600781526020017f47656e65736973000000000000000000000000000000000000000000000000008152506040518060400160405280600381526020017f474e540000000000000000000000000000000000000000000000000000000000815250620000d5620000c062000219640100000000026401000000009004565b62000221640100000000026401000000009004565b8160019080519060200190620000ed929190620002e5565b50806002908051906020019062000106929190620002e5565b50505085600b8190555084600f60006101000a81548173ffffffffffffffffffffffffffffffffffffffff021916908373ffffffffffffffffffffffffffffffffffffffff16021790555083600d908051906020019062000169929190620002e5565b506001600c8190555082600e90805190602001906200018a929190620002e5565b5081600a60006101000a81548173ffffffffffffffffffffffffffffffffffffffff021916908373ffffffffffffffffffffffffffffffffffffffff16021790555080600960006101000a81548173ffffffffffffffffffffffffffffffffffffffff021916908373ffffffffffffffffffffffffffffffffffffffff16021790555050505050505062000724565b600033905090565b60008060009054906101000a900473ffffffffffffffffffffffffffffffffffffffff169050816000806101000a81548173ffffffffffffffffffffffffffffffffffffffff021916908373ffffffffffffffffffffffffffffffffffffffff1602179055508173ffffffffffffffffffffffffffffffffffffffff168173ffffffffffffffffffffffffffffffffffffffff167f8be0079c531659141344cd1fd0a4f28419497f9722a3daafe3b4186f6b6457e060405160405180910390a35050565b828054620002f390620005fb565b90600052602060002090601f01602090048101928262000317576000855562000363565b82601f106200033257805160ff191683800117855562000363565b8280016001018555821562000363579182015b828111156200036257825182559160200191906001019062000345565b5b50905062000372919062000376565b5090565b5b808211156200039157600081600090555060010162000377565b5090565b6000620003ac620003a6846200053d565b62000514565b905082815260208101848484011115620003c557600080fd5b620003d2848285620005c5565b509392505050565b600081519050620003eb81620006d6565b92915050565b6000815190506200040281620006f0565b92915050565b600082601f8301126200041a57600080fd5b81516200042c84826020860162000395565b91505092915050565b60008151905062000446816200070a565b92915050565b60008060008060008060c087890312156200046657600080fd5b60006200047689828a0162000435565b96505060206200048989828a01620003f1565b955050604087015167ffffffffffffffff811115620004a757600080fd5b620004b589828a0162000408565b945050606087015167ffffffffffffffff811115620004d357600080fd5b620004e189828a0162000408565b9350506080620004f489828a01620003da565b92505060a06200050789828a01620003da565b9150509295509295509295565b60006200052062000533565b90506200052e828262000631565b919050565b6000604051905090565b600067ffffffffffffffff8211156200055b576200055a62000696565b5b6200056682620006c5565b9050602081019050919050565b600062000580826200059b565b9050919050565b6000620005948262000573565b9050919050565b600073ffffffffffffffffffffffffffffffffffffffff82169050919050565b6000819050919050565b60005b83811015620005e5578082015181840152602081019050620005c8565b83811115620005f5576000848401525b50505050565b600060028204905060018216806200061457607f821691505b602082108114156200062b576200062a62000667565b5b50919050565b6200063c82620006c5565b810181811067ffffffffffffffff821117156200065e576200065d62000696565b5b80604052505050565b7f4e487b7100000000000000000000000000000000000000000000000000000000600052602260045260246000fd5b7f4e487b7100000000000000000000000000000000000000000000000000000000600052604160045260246000fd5b6000601f19601f8301169050919050565b620006e18162000573565b8114620006ed57600080fd5b50565b620006fb8162000587565b81146200070757600080fd5b50565b6200071581620005bb565b81146200072157600080fd5b50565b61439780620007346000396000f3fe608060405234801561001057600080fd5b5060043610610223576000357c01000000000000000000000000000000000000000000000000000000009004806380e719c611610137578063a8c3c850116100ca578063c87b56dd11610099578063c87b56dd146105ac578063e074278d146105dc578063e6704723146105f8578063e985e9c514610616578063f2fde38b1461064657610223565b8063a8c3c8501461053c578063b88d4fde14610558578063beabacc814610574578063c3d6ee7f1461059057610223565b806395d89b411161010657806395d89b41146104c657806399a2f2d7146104e4578063a035b1fe14610502578063a22cb4651461052057610223565b806380e719c61461043e5780638da5cb5b1461046e57806391b7f5ed1461048c57806395623641146104a857610223565b806342cbb15c116101ba5780636c0360eb116101895780636c0360eb146103be57806370a08231146103dc578063714c53981461040c578063715018a61461042a578063778743ee1461043457610223565b806342cbb15c1461033657806355f804b31461035457806357e871e7146103705780636352211e1461038e57610223565b8063128ae712116101f6578063128ae712146102c257806318160ddd146102e057806323b872dd146102fe57806342842e0e1461031a57610223565b806301ffc9a71461022857806306fdde0314610258578063081812fc14610276578063095ea7b3146102a6575b600080fd5b610242600480360381019061023d9190612e30565b610662565b60405161024f919061355c565b60405180910390f35b610260610744565b60405161026d9190613577565b60405180910390f35b610290600480360381019061028b9190612ec3565b6107d6565b60405161029d919061349c565b60405180910390f35b6102c060048036038101906102bb9190612dcb565b61085b565b005b6102ca610973565b6040516102d7919061353a565b60405180910390f35b6102e8610b40565b6040516102f59190613859565b60405180910390f35b61031860048036038101906103139190612cc5565b610b51565b005b610334600480360381019061032f9190612cc5565b610bb1565b005b61033e610bd1565b60405161034b9190613859565b60405180910390f35b61036e60048036038101906103699190612e82565b610bd9565b005b610378610c6f565b6040516103859190613859565b60405180910390f35b6103a860048036038101906103a39190612ec3565b610c75565b6040516103b5919061349c565b60405180910390f35b6103c6610d27565b6040516103d39190613577565b60405180910390f35b6103f660048036038101906103f19190612c60565b610db5565b6040516104039190613859565b60405180910390f35b610414610e6d565b6040516104219190613577565b60405180910390f35b610432610f05565b005b61043c610f8d565b005b61045860048036038101906104539190612ec3565b611340565b6040516104659190613577565b60405180910390f35b610476611358565b604051610483919061349c565b60405180910390f35b6104a660048036038101906104a19190612ec3565b611381565b005b6104b0611407565b6040516104bd919061349c565b60405180910390f35b6104ce61142d565b6040516104db9190613577565b60405180910390f35b6104ec6114bf565b6040516104f99190613577565b60405180910390f35b61050a61154d565b6040516105179190613859565b60405180910390f35b61053a60048036038101906105359190612d8f565b611553565b005b61055660048036038101906105519190612ec3565b6116d4565b005b610572600480360381019061056d9190612d14565b61175a565b005b61058e60048036038101906105899190612cc5565b6117bc565b005b6105aa60048036038101906105a59190612e82565b611848565b005b6105c660048036038101906105c19190612ec3565b6118de565b6040516105d39190613577565b60405180910390f35b6105f660048036038101906105f19190612c60565b611a30565b005b610600611b60565b60405161060d919061349c565b60405180910390f35b610630600480360381019061062b9190612c89565b611c06565b60405161063d919061355c565b60405180910390f35b610660600480360381019061065b9190612c60565b611c9a565b005b60007f80ac58cd000000000000000000000000000000000000000000000000000000007bffffffffffffffffffffffffffffffffffffffffffffffffffffffff1916827bffffffffffffffffffffffffffffffffffffffffffffffffffffffff1916148061072d57507f5b5e139f000000000000000000000000000000000000000000000000000000007bffffffffffffffffffffffffffffffffffffffffffffffffffffffff1916827bffffffffffffffffffffffffffffffffffffffffffffffffffffffff1916145b8061073d575061073c82611d92565b5b9050919050565b60606001805461075390613afd565b80601f016020809104026020016040519081016040528092919081815260200182805461077f90613afd565b80156107cc5780601f106107a1576101008083540402835291602001916107cc565b820191906000526020600020905b8154815290600101906020018083116107af57829003601f168201915b5050505050905090565b60006107e182611dfc565b610820576040517f08c379a000000000000000000000000000000000000000000000000000000000815260040161081790613799565b60405180910390fd5b6005600083815260200190815260200160002060009054906101000a900473ffffffffffffffffffffffffffffffffffffffff169050919050565b600061086682610c75565b90508073ffffffffffffffffffffffffffffffffffffffff168373ffffffffffffffffffffffffffffffffffffffff1614156108d7576040517f08c379a00000000000000000000000000000000000000000000000000000000081526004016108ce90613819565b60405180910390fd5b8073ffffffffffffffffffffffffffffffffffffffff166108f6611e68565b73ffffffffffffffffffffffffffffffffffffffff16148061092557506109248161091f611e68565b611c06565b5b610964576040517f08c379a000000000000000000000000000000000000000000000000000000000815260040161095b90613699565b60405180910390fd5b61096e8383611e70565b505050565b60606000806109826008611f29565b905060005b818110156109f9573373ffffffffffffffffffffffffffffffffffffffff166109bb6001836109b6919061398c565b610c75565b73ffffffffffffffffffffffffffffffffffffffff1614156109e65782806109e290613b60565b9350505b80806109f190613b60565b915050610987565b5060008267ffffffffffffffff811115610a3c577f4e487b7100000000000000000000000000000000000000000000000000000000600052604160045260246000fd5b604051908082528060200260200182016040528015610a6a5781602001602082028036833780820191505090505b5090506000805b83811015610b35573373ffffffffffffffffffffffffffffffffffffffff16610aa5600183610aa0919061398c565b610c75565b73ffffffffffffffffffffffffffffffffffffffff161415610b2257600181610ace919061398c565b838381518110610b07577f4e487b7100000000000000000000000000000000000000000000000000000000600052603260045260246000fd5b6020026020010181815250508180610b1e90613b60565b9250505b8080610b2d90613b60565b915050610a71565b508194505050505090565b6000610b4c6008611f29565b905090565b610b62610b5c611e68565b82611f37565b610ba1576040517f08c379a0000000000000000000000000000000000000000000000000000000008152600401610b9890613839565b60405180910390fd5b610bac838383612015565b505050565b610bcc8383836040518060200160405280600081525061175a565b505050565b600043905090565b610be1611e68565b73ffffffffffffffffffffffffffffffffffffffff16610bff611358565b73ffffffffffffffffffffffffffffffffffffffff1614610c55576040517f08c379a0000000000000000000000000000000000000000000000000000000008152600401610c4c906137b9565b60405180910390fd5b80600d9080519060200190610c6b929190612a5a565b5050565b600b5481565b6000806003600084815260200190815260200160002060009054906101000a900473ffffffffffffffffffffffffffffffffffffffff169050600073ffffffffffffffffffffffffffffffffffffffff168173ffffffffffffffffffffffffffffffffffffffff161415610d1e576040517f08c379a0000000000000000000000000000000000000000000000000000000008152600401610d15906136d9565b60405180910390fd5b80915050919050565b600d8054610d3490613afd565b80601f0160208091040260200160405190810160405280929190818152602001828054610d6090613afd565b8015610dad5780601f10610d8257610100808354040283529160200191610dad565b820191906000526020600020905b815481529060010190602001808311610d9057829003601f168201915b505050505081565b60008073ffffffffffffffffffffffffffffffffffffffff168273ffffffffffffffffffffffffffffffffffffffff161415610e26576040517f08c379a0000000000000000000000000000000000000000000000000000000008152600401610e1d906136b9565b60405180910390fd5b600460008373ffffffffffffffffffffffffffffffffffffffff1673ffffffffffffffffffffffffffffffffffffffff168152602001908152602001600020549050919050565b60606000600d8054610e7e90613afd565b80601f0160208091040260200160405190810160405280929190818152602001828054610eaa90613afd565b8015610ef75780601f10610ecc57610100808354040283529160200191610ef7565b820191906000526020600020905b815481529060010190602001808311610eda57829003601f168201915b505050505090508091505090565b610f0d611e68565b73ffffffffffffffffffffffffffffffffffffffff16610f2b611358565b73ffffffffffffffffffffffffffffffffffffffff1614610f81576040517f08c379a0000000000000000000000000000000000000000000000000000000008152600401610f78906137b9565b60405180910390fd5b610f8b6000612271565b565b600073ffffffffffffffffffffffffffffffffffffffff163373ffffffffffffffffffffffffffffffffffffffff161415610ffd576040517f08c379a0000000000000000000000000000000000000000000000000000000008152600401610ff490613679565b60405180910390fd5b6103e861100a6008611f29565b111561104b576040517f08c379a000000000000000000000000000000000000000000000000000000000815260040161104290613739565b60405180910390fd5b600c54600f60009054906101000a900473ffffffffffffffffffffffffffffffffffffffff1673ffffffffffffffffffffffffffffffffffffffff166370a08231336040518263ffffffff167c01000000000000000000000000000000000000000000000000000000000281526004016110c5919061349c565b60206040518083038186803b1580156110dd57600080fd5b505afa1580156110f1573d6000803e3d6000fd5b505050506040513d601f19601f820116820180604052508101906111159190612eec565b1015611156576040517f08c379a000000000000000000000000000000000000000000000000000000000815260040161114d906135d9565b60405180910390fd5b600f60009054906101000a900473ffffffffffffffffffffffffffffffffffffffff1673ffffffffffffffffffffffffffffffffffffffff166323b872dd33600960009054906101000a900473ffffffffffffffffffffffffffffffffffffffff16600c546040518463ffffffff167c01000000000000000000000000000000000000000000000000000000000281526004016111f5939291906134b7565b602060405180830381600087803b15801561120f57600080fd5b505af1158015611223573d6000803e3d6000fd5b505050506040513d601f19601f820116820180604052508101906112479190612e07565b506112526008612335565b600061125e6008611f29565b90506000600d600e61126f8461234b565b60405160200161128193929190613455565b604051602081830303815290604052905061129c3383612517565b6112a682826126e5565b6112d233600a60009054906101000a900473ffffffffffffffffffffffffffffffffffffffff16611c06565b61130457611303600a60009054906101000a900473ffffffffffffffffffffffffffffffffffffffff166001611553565b5b817f3ca34f54675bad9d785db929cb916abd42ddf71feb18d41797015aa66e3d8c31826040516113349190613577565b60405180910390a25050565b6060600061134d836118de565b905080915050919050565b60008060009054906101000a900473ffffffffffffffffffffffffffffffffffffffff16905090565b611389611e68565b73ffffffffffffffffffffffffffffffffffffffff166113a7611358565b73ffffffffffffffffffffffffffffffffffffffff16146113fd576040517f08c379a00000000000000000000000000000000000000000000000000000000081526004016113f4906137b9565b60405180910390fd5b80600c8190555050565b600a60009054906101000a900473ffffffffffffffffffffffffffffffffffffffff1681565b60606002805461143c90613afd565b80601f016020809104026020016040519081016040528092919081815260200182805461146890613afd565b80156114b55780601f1061148a576101008083540402835291602001916114b5565b820191906000526020600020905b81548152906001019060200180831161149857829003601f168201915b5050505050905090565b600e80546114cc90613afd565b80601f01602080910402602001604051908101604052809291908181526020018280546114f890613afd565b80156115455780601f1061151a57610100808354040283529160200191611545565b820191906000526020600020905b81548152906001019060200180831161152857829003601f168201915b505050505081565b600c5481565b61155b611e68565b73ffffffffffffffffffffffffffffffffffffffff168273ffffffffffffffffffffffffffffffffffffffff1614156115c9576040517f08c379a00000000000000000000000000000000000000000000000000000000081526004016115c090613639565b60405180910390fd5b80600660006115d6611e68565b73ffffffffffffffffffffffffffffffffffffffff1673ffffffffffffffffffffffffffffffffffffffff16815260200190815260200160002060008473ffffffffffffffffffffffffffffffffffffffff1673ffffffffffffffffffffffffffffffffffffffff16815260200190815260200160002060006101000a81548160ff0219169083151502179055508173ffffffffffffffffffffffffffffffffffffffff16611683611e68565b73ffffffffffffffffffffffffffffffffffffffff167f17307eab39ab6107e8899845ad3d59bd9653f200f220920489ca2b5937696c31836040516116c8919061355c565b60405180910390a35050565b6116dc611e68565b73ffffffffffffffffffffffffffffffffffffffff166116fa611358565b73ffffffffffffffffffffffffffffffffffffffff1614611750576040517f08c379a0000000000000000000000000000000000000000000000000000000008152600401611747906137b9565b60405180910390fd5b80600b8190555050565b61176b611765611e68565b83611f37565b6117aa576040517f08c379a00000000000000000000000000000000000000000000000000000000081526004016117a190613839565b60405180910390fd5b6117b684848484612759565b50505050565b6117c4611e68565b73ffffffffffffffffffffffffffffffffffffffff166117e2611358565b73ffffffffffffffffffffffffffffffffffffffff1614611838576040517f08c379a000000000000000000000000000000000000000000000000000000000815260040161182f906137b9565b60405180910390fd5b611843838383610b51565b505050565b611850611e68565b73ffffffffffffffffffffffffffffffffffffffff1661186e611358565b73ffffffffffffffffffffffffffffffffffffffff16146118c4576040517f08c379a00000000000000000000000000000000000000000000000000000000081526004016118bb906137b9565b60405180910390fd5b80600e90805190602001906118da929190612a5a565b5050565b60606118e982611dfc565b611928576040517f08c379a000000000000000000000000000000000000000000000000000000000815260040161191f90613779565b60405180910390fd5b600060076000848152602001908152602001600020805461194890613afd565b80601f016020809104026020016040519081016040528092919081815260200182805461197490613afd565b80156119c15780601f10611996576101008083540402835291602001916119c1565b820191906000526020600020905b8154815290600101906020018083116119a457829003601f168201915b5050505050905060006119d26127b5565b90506000815114156119e8578192505050611a2b565b600082511115611a1d578082604051602001611a05929190613431565b60405160208183030381529060405292505050611a2b565b611a26846127cc565b925050505b919050565b611a38611e68565b73ffffffffffffffffffffffffffffffffffffffff16611a56611358565b73ffffffffffffffffffffffffffffffffffffffff1614611aac576040517f08c379a0000000000000000000000000000000000000000000000000000000008152600401611aa3906137b9565b60405180910390fd5b600073ffffffffffffffffffffffffffffffffffffffff168173ffffffffffffffffffffffffffffffffffffffff161415611b1c576040517f08c379a0000000000000000000000000000000000000000000000000000000008152600401611b13906136f9565b60405180910390fd5b80600960006101000a81548173ffffffffffffffffffffffffffffffffffffffff021916908373ffffffffffffffffffffffffffffffffffffffff16021790555050565b6000611b6a611e68565b73ffffffffffffffffffffffffffffffffffffffff16611b88611358565b73ffffffffffffffffffffffffffffffffffffffff1614611bde576040517f08c379a0000000000000000000000000000000000000000000000000000000008152600401611bd5906137b9565b60405180910390fd5b600960009054906101000a900473ffffffffffffffffffffffffffffffffffffffff16905090565b6000600660008473ffffffffffffffffffffffffffffffffffffffff1673ffffffffffffffffffffffffffffffffffffffff16815260200190815260200160002060008373ffffffffffffffffffffffffffffffffffffffff1673ffffffffffffffffffffffffffffffffffffffff16815260200190815260200160002060009054906101000a900460ff16905092915050565b611ca2611e68565b73ffffffffffffffffffffffffffffffffffffffff16611cc0611358565b73ffffffffffffffffffffffffffffffffffffffff1614611d16576040517f08c379a0000000000000000000000000000000000000000000000000000000008152600401611d0d906137b9565b60405180910390fd5b600073ffffffffffffffffffffffffffffffffffffffff168173ffffffffffffffffffffffffffffffffffffffff161415611d86576040517f08c379a0000000000000000000000000000000000000000000000000000000008152600401611d7d906135b9565b60405180910390fd5b611d8f81612271565b50565b60007f01ffc9a7000000000000000000000000000000000000000000000000000000007bffffffffffffffffffffffffffffffffffffffffffffffffffffffff1916827bffffffffffffffffffffffffffffffffffffffffffffffffffffffff1916149050919050565b60008073ffffffffffffffffffffffffffffffffffffffff166003600084815260200190815260200160002060009054906101000a900473ffffffffffffffffffffffffffffffffffffffff1673ffffffffffffffffffffffffffffffffffffffff1614159050919050565b600033905090565b816005600083815260200190815260200160002060006101000a81548173ffffffffffffffffffffffffffffffffffffffff021916908373ffffffffffffffffffffffffffffffffffffffff160217905550808273ffffffffffffffffffffffffffffffffffffffff16611ee383610c75565b73ffffffffffffffffffffffffffffffffffffffff167f8c5be1e5ebec7d5bd14f71427d1e84f3dd0314c0f7b2291e5b200ac8c7c3b92560405160405180910390a45050565b600081600001549050919050565b6000611f4282611dfc565b611f81576040517f08c379a0000000000000000000000000000000000000000000000000000000008152600401611f7890613659565b60405180910390fd5b6000611f8c83610c75565b90508073ffffffffffffffffffffffffffffffffffffffff168473ffffffffffffffffffffffffffffffffffffffff161480611ffb57508373ffffffffffffffffffffffffffffffffffffffff16611fe3846107d6565b73ffffffffffffffffffffffffffffffffffffffff16145b8061200c575061200b8185611c06565b5b91505092915050565b8273ffffffffffffffffffffffffffffffffffffffff1661203582610c75565b73ffffffffffffffffffffffffffffffffffffffff161461208b576040517f08c379a0000000000000000000000000000000000000000000000000000000008152600401612082906137d9565b60405180910390fd5b600073ffffffffffffffffffffffffffffffffffffffff168273ffffffffffffffffffffffffffffffffffffffff1614156120fb576040517f08c379a00000000000000000000000000000000000000000000000000000000081526004016120f290613619565b60405180910390fd5b612106838383612873565b612111600082611e70565b6001600460008573ffffffffffffffffffffffffffffffffffffffff1673ffffffffffffffffffffffffffffffffffffffff16815260200190815260200160002060008282546121619190613a13565b925050819055506001600460008473ffffffffffffffffffffffffffffffffffffffff1673ffffffffffffffffffffffffffffffffffffffff16815260200190815260200160002060008282546121b8919061398c565b92505081905550816003600083815260200190815260200160002060006101000a81548173ffffffffffffffffffffffffffffffffffffffff021916908373ffffffffffffffffffffffffffffffffffffffff160217905550808273ffffffffffffffffffffffffffffffffffffffff168473ffffffffffffffffffffffffffffffffffffffff167fddf252ad1be2c89b69c2b068fc378daa952ba7f163c4a11628f55a4df523b3ef60405160405180910390a4505050565b60008060009054906101000a900473ffffffffffffffffffffffffffffffffffffffff169050816000806101000a81548173ffffffffffffffffffffffffffffffffffffffff021916908373ffffffffffffffffffffffffffffffffffffffff1602179055508173ffffffffffffffffffffffffffffffffffffffff168173ffffffffffffffffffffffffffffffffffffffff167f8be0079c531659141344cd1fd0a4f28419497f9722a3daafe3b4186f6b6457e060405160405180910390a35050565b6001816000016000828254019250508190555050565b60606000821415612393576040518060400160405280600181526020017f30000000000000000000000000000000000000000000000000000000000000008152509050612512565b600082905060005b600082146123c55780806123ae90613b60565b915050600a826123be91906139e2565b915061239b565b60008167ffffffffffffffff811115612407577f4e487b7100000000000000000000000000000000000000000000000000000000600052604160045260246000fd5b6040519080825280601f01601f1916602001820160405280156124395781602001600182028036833780820191505090505b5090505b6000851461250b576001826124529190613a13565b9150600a856124619190613ba9565b603061246d919061398c565b7f0100000000000000000000000000000000000000000000000000000000000000028183815181106124c8577f4e487b7100000000000000000000000000000000000000000000000000000000600052603260045260246000fd5b60200101907effffffffffffffffffffffffffffffffffffffffffffffffffffffffffffff1916908160001a905350600a8561250491906139e2565b945061243d565b8093505050505b919050565b600073ffffffffffffffffffffffffffffffffffffffff168273ffffffffffffffffffffffffffffffffffffffff161415612587576040517f08c379a000000000000000000000000000000000000000000000000000000000815260040161257e90613759565b60405180910390fd5b61259081611dfc565b156125d0576040517f08c379a00000000000000000000000000000000000000000000000000000000081526004016125c7906135f9565b60405180910390fd5b6125dc60008383612873565b6001600460008473ffffffffffffffffffffffffffffffffffffffff1673ffffffffffffffffffffffffffffffffffffffff168152602001908152602001600020600082825461262c919061398c565b92505081905550816003600083815260200190815260200160002060006101000a81548173ffffffffffffffffffffffffffffffffffffffff021916908373ffffffffffffffffffffffffffffffffffffffff160217905550808273ffffffffffffffffffffffffffffffffffffffff16600073ffffffffffffffffffffffffffffffffffffffff167fddf252ad1be2c89b69c2b068fc378daa952ba7f163c4a11628f55a4df523b3ef60405160405180910390a45050565b6126ee82611dfc565b61272d576040517f08c379a000000000000000000000000000000000000000000000000000000000815260040161272490613719565b60405180910390fd5b80600760008481526020019081526020016000209080519060200190612754929190612a5a565b505050565b612764848484612015565b61277084848484612878565b6127af576040517f08c379a00000000000000000000000000000000000000000000000000000000081526004016127a690613599565b60405180910390fd5b50505050565b606060405180602001604052806000815250905090565b60606127d782611dfc565b612816576040517f08c379a000000000000000000000000000000000000000000000000000000000815260040161280d906137f9565b60405180910390fd5b60006128206127b5565b90506000815111612840576040518060200160405280600081525061286b565b8061284a8461234b565b60405160200161285b929190613431565b6040516020818303038152906040525b915050919050565b505050565b60006128998473ffffffffffffffffffffffffffffffffffffffff16612a47565b15612a3a578373ffffffffffffffffffffffffffffffffffffffff1663150b7a026128c2611e68565b8786866040518563ffffffff167c010000000000000000000000000000000000000000000000000000000002815260040161290094939291906134ee565b602060405180830381600087803b15801561291a57600080fd5b505af192505050801561294b57506040513d601f19601f820116820180604052508101906129489190612e59565b60015b6129ce573d806000811461297b576040519150601f19603f3d011682016040523d82523d6000602084013e612980565b606091505b506000815114156129c6576040517f08c379a00000000000000000000000000000000000000000000000000000000081526004016129bd90613599565b60405180910390fd5b805181602001fd5b63150b7a027c0100000000000000000000000000000000000000000000000000000000027bffffffffffffffffffffffffffffffffffffffffffffffffffffffff1916817bffffffffffffffffffffffffffffffffffffffffffffffffffffffff191614915050612a3f565b600190505b949350505050565b600080823b905060008111915050919050565b828054612a6690613afd565b90600052602060002090601f016020900481019282612a885760008555612acf565b82601f10612aa157805160ff1916838001178555612acf565b82800160010185558215612acf579182015b82811115612ace578251825591602001919060010190612ab3565b5b509050612adc9190612ae0565b5090565b5b80821115612af9576000816000905550600101612ae1565b5090565b6000612b10612b0b84613899565b613874565b905082815260208101848484011115612b2857600080fd5b612b33848285613abb565b509392505050565b6000612b4e612b49846138ca565b613874565b905082815260208101848484011115612b6657600080fd5b612b71848285613abb565b509392505050565b600081359050612b8881614305565b92915050565b600081359050612b9d8161431c565b92915050565b600081519050612bb28161431c565b92915050565b600081359050612bc781614333565b92915050565b600081519050612bdc81614333565b92915050565b600082601f830112612bf357600080fd5b8135612c03848260208601612afd565b91505092915050565b600082601f830112612c1d57600080fd5b8135612c2d848260208601612b3b565b91505092915050565b600081359050612c458161434a565b92915050565b600081519050612c5a8161434a565b92915050565b600060208284031215612c7257600080fd5b6000612c8084828501612b79565b91505092915050565b60008060408385031215612c9c57600080fd5b6000612caa85828601612b79565b9250506020612cbb85828601612b79565b9150509250929050565b600080600060608486031215612cda57600080fd5b6000612ce886828701612b79565b9350506020612cf986828701612b79565b9250506040612d0a86828701612c36565b9150509250925092565b60008060008060808587031215612d2a57600080fd5b6000612d3887828801612b79565b9450506020612d4987828801612b79565b9350506040612d5a87828801612c36565b925050606085013567ffffffffffffffff811115612d7757600080fd5b612d8387828801612be2565b91505092959194509250565b60008060408385031215612da257600080fd5b6000612db085828601612b79565b9250506020612dc185828601612b8e565b9150509250929050565b60008060408385031215612dde57600080fd5b6000612dec85828601612b79565b9250506020612dfd85828601612c36565b9150509250929050565b600060208284031215612e1957600080fd5b6000612e2784828501612ba3565b91505092915050565b600060208284031215612e4257600080fd5b6000612e5084828501612bb8565b91505092915050565b600060208284031215612e6b57600080fd5b6000612e7984828501612bcd565b91505092915050565b600060208284031215612e9457600080fd5b600082013567ffffffffffffffff811115612eae57600080fd5b612eba84828501612c0c565b91505092915050565b600060208284031215612ed557600080fd5b6000612ee384828501612c36565b91505092915050565b600060208284031215612efe57600080fd5b6000612f0c84828501612c4b565b91505092915050565b6000612f218383613413565b60208301905092915050565b612f3681613a47565b82525050565b6000612f4782613920565b612f51818561394e565b9350612f5c836138fb565b8060005b83811015612f8d578151612f748882612f15565b9750612f7f83613941565b925050600181019050612f60565b5085935050505092915050565b612fa381613a59565b82525050565b6000612fb48261392b565b612fbe818561395f565b9350612fce818560208601613aca565b612fd781613c96565b840191505092915050565b6000612fed82613936565b612ff78185613970565b9350613007818560208601613aca565b61301081613c96565b840191505092915050565b600061302682613936565b6130308185613981565b9350613040818560208601613aca565b80840191505092915050565b6000815461305981613afd565b6130638186613981565b9450600182166000811461307e576001811461308f576130c2565b60ff198316865281860193506130c2565b6130988561390b565b60005b838110156130ba5781548189015260018201915060208101905061309b565b838801955050505b50505092915050565b60006130d8603283613970565b91506130e382613ca7565b604082019050919050565b60006130fb602683613970565b915061310682613cf6565b604082019050919050565b600061311e603483613970565b915061312982613d45565b604082019050919050565b6000613141601c83613970565b915061314c82613d94565b602082019050919050565b6000613164602483613970565b915061316f82613dbd565b604082019050919050565b6000613187601983613970565b915061319282613e0c565b602082019050919050565b60006131aa602c83613970565b91506131b582613e35565b604082019050919050565b60006131cd602283613970565b91506131d882613e84565b604082019050919050565b60006131f0603883613970565b91506131fb82613ed3565b604082019050919050565b6000613213602a83613970565b915061321e82613f22565b604082019050919050565b6000613236602983613970565b915061324182613f71565b604082019050919050565b6000613259602383613970565b915061326482613fc0565b604082019050919050565b600061327c602e83613970565b91506132878261400f565b604082019050919050565b600061329f601183613970565b91506132aa8261405e565b602082019050919050565b60006132c2602083613970565b91506132cd82614087565b602082019050919050565b60006132e5603183613970565b91506132f0826140b0565b604082019050919050565b6000613308602c83613970565b9150613313826140ff565b604082019050919050565b600061332b600583613981565b91506133368261414e565b600582019050919050565b600061334e602083613970565b915061335982614177565b602082019050919050565b6000613371602983613970565b915061337c826141a0565b604082019050919050565b6000613394602f83613970565b915061339f826141ef565b604082019050919050565b60006133b7602183613970565b91506133c28261423e565b604082019050919050565b60006133da603183613970565b91506133e58261428d565b604082019050919050565b60006133fd600183613981565b9150613408826142dc565b600182019050919050565b61341c81613ab1565b82525050565b61342b81613ab1565b82525050565b600061343d828561301b565b9150613449828461301b565b91508190509392505050565b6000613461828661304c565b915061346d828561304c565b9150613478826133f0565b9150613484828461301b565b915061348f8261331e565b9150819050949350505050565b60006020820190506134b16000830184612f2d565b92915050565b60006060820190506134cc6000830186612f2d565b6134d96020830185612f2d565b6134e66040830184613422565b949350505050565b60006080820190506135036000830187612f2d565b6135106020830186612f2d565b61351d6040830185613422565b818103606083015261352f8184612fa9565b905095945050505050565b600060208201905081810360008301526135548184612f3c565b905092915050565b60006020820190506135716000830184612f9a565b92915050565b600060208201905081810360008301526135918184612fe2565b905092915050565b600060208201905081810360008301526135b2816130cb565b9050919050565b600060208201905081810360008301526135d2816130ee565b9050919050565b600060208201905081810360008301526135f281613111565b9050919050565b6000602082019050818103600083015261361281613134565b9050919050565b6000602082019050818103600083015261363281613157565b9050919050565b600060208201905081810360008301526136528161317a565b9050919050565b600060208201905081810360008301526136728161319d565b9050919050565b60006020820190508181036000830152613692816131c0565b9050919050565b600060208201905081810360008301526136b2816131e3565b9050919050565b600060208201905081810360008301526136d281613206565b9050919050565b600060208201905081810360008301526136f281613229565b9050919050565b600060208201905081810360008301526137128161324c565b9050919050565b600060208201905081810360008301526137328161326f565b9050919050565b6000602082019050818103600083015261375281613292565b9050919050565b60006020820190508181036000830152613772816132b5565b9050919050565b60006020820190508181036000830152613792816132d8565b9050919050565b600060208201905081810360008301526137b2816132fb565b9050919050565b600060208201905081810360008301526137d281613341565b9050919050565b600060208201905081810360008301526137f281613364565b9050919050565b6000602082019050818103600083015261381281613387565b9050919050565b60006020820190508181036000830152613832816133aa565b9050919050565b60006020820190508181036000830152613852816133cd565b9050919050565b600060208201905061386e6000830184613422565b92915050565b600061387e61388f565b905061388a8282613b2f565b919050565b6000604051905090565b600067ffffffffffffffff8211156138b4576138b3613c67565b5b6138bd82613c96565b9050602081019050919050565b600067ffffffffffffffff8211156138e5576138e4613c67565b5b6138ee82613c96565b9050602081019050919050565b6000819050602082019050919050565b60008190508160005260206000209050919050565b600081519050919050565b600081519050919050565b600081519050919050565b6000602082019050919050565b600082825260208201905092915050565b600082825260208201905092915050565b600082825260208201905092915050565b600081905092915050565b600061399782613ab1565b91506139a283613ab1565b9250827fffffffffffffffffffffffffffffffffffffffffffffffffffffffffffffffff038211156139d7576139d6613bda565b5b828201905092915050565b60006139ed82613ab1565b91506139f883613ab1565b925082613a0857613a07613c09565b5b828204905092915050565b6000613a1e82613ab1565b9150613a2983613ab1565b925082821015613a3c57613a3b613bda565b5b828203905092915050565b6000613a5282613a91565b9050919050565b60008115159050919050565b60007fffffffff0000000000000000000000000000000000000000000000000000000082169050919050565b600073ffffffffffffffffffffffffffffffffffffffff82169050919050565b6000819050919050565b82818337600083830152505050565b60005b83811015613ae8578082015181840152602081019050613acd565b83811115613af7576000848401525b50505050565b60006002820490506001821680613b1557607f821691505b60208210811415613b2957613b28613c38565b5b50919050565b613b3882613c96565b810181811067ffffffffffffffff82111715613b5757613b56613c67565b5b80604052505050565b6000613b6b82613ab1565b91507fffffffffffffffffffffffffffffffffffffffffffffffffffffffffffffffff821415613b9e57613b9d613bda565b5b600182019050919050565b6000613bb482613ab1565b9150613bbf83613ab1565b925082613bcf57613bce613c09565b5b828206905092915050565b7f4e487b7100000000000000000000000000000000000000000000000000000000600052601160045260246000fd5b7f4e487b7100000000000000000000000000000000000000000000000000000000600052601260045260246000fd5b7f4e487b7100000000000000000000000000000000000000000000000000000000600052602260045260246000fd5b7f4e487b7100000000000000000000000000000000000000000000000000000000600052604160045260246000fd5b6000601f19601f8301169050919050565b7f4552433732313a207472616e7366657220746f206e6f6e20455243373231526560008201527f63656976657220696d706c656d656e7465720000000000000000000000000000602082015250565b7f4f776e61626c653a206e6577206f776e657220697320746865207a65726f206160008201527f6464726573730000000000000000000000000000000000000000000000000000602082015250565b7f42616c616e6365206f66204d696c6b20746f6b656e206973206e6f7420656e6f60008201527f7567687420746f2062757920426c696e64426f78000000000000000000000000602082015250565b7f4552433732313a20746f6b656e20616c7265616479206d696e74656400000000600082015250565b7f4552433732313a207472616e7366657220746f20746865207a65726f2061646460008201527f7265737300000000000000000000000000000000000000000000000000000000602082015250565b7f4552433732313a20617070726f766520746f2063616c6c657200000000000000600082015250565b7f4552433732313a206f70657261746f7220717565727920666f72206e6f6e657860008201527f697374656e7420746f6b656e0000000000000000000000000000000000000000602082015250565b7f4d696e7420416464726573732063616e2774206265207a65726f20616464726560008201527f7373000000000000000000000000000000000000000000000000000000000000602082015250565b7f4552433732313a20617070726f76652063616c6c6572206973206e6f74206f7760008201527f6e6572206e6f7220617070726f76656420666f7220616c6c0000000000000000602082015250565b7f4552433732313a2062616c616e636520717565727920666f7220746865207a6560008201527f726f206164647265737300000000000000000000000000000000000000000000602082015250565b7f4552433732313a206f776e657220717565727920666f72206e6f6e657869737460008201527f656e7420746f6b656e0000000000000000000000000000000000000000000000602082015250565b7f4f776e657220416464726573732063616e2774206265207a65726f206164647260008201527f6573730000000000000000000000000000000000000000000000000000000000602082015250565b7f45524337323155524953746f726167653a2055524920736574206f66206e6f6e60008201527f6578697374656e7420746f6b656e000000000000000000000000000000000000602082015250565b7f416c6c204e4654732061726520736f6c64000000000000000000000000000000600082015250565b7f4552433732313a206d696e7420746f20746865207a65726f2061646472657373600082015250565b7f45524337323155524953746f726167653a2055524920717565727920666f722060008201527f6e6f6e6578697374656e7420746f6b656e000000000000000000000000000000602082015250565b7f4552433732313a20617070726f76656420717565727920666f72206e6f6e657860008201527f697374656e7420746f6b656e0000000000000000000000000000000000000000602082015250565b7f2e6a736f6e000000000000000000000000000000000000000000000000000000600082015250565b7f4f776e61626c653a2063616c6c6572206973206e6f7420746865206f776e6572600082015250565b7f4552433732313a207472616e73666572206f6620746f6b656e2074686174206960008201527f73206e6f74206f776e0000000000000000000000000000000000000000000000602082015250565b7f4552433732314d657461646174613a2055524920717565727920666f72206e6f60008201527f6e6578697374656e7420746f6b656e0000000000000000000000000000000000602082015250565b7f4552433732313a20617070726f76616c20746f2063757272656e74206f776e6560008201527f7200000000000000000000000000000000000000000000000000000000000000602082015250565b7f4552433732313a207472616e736665722063616c6c6572206973206e6f74206f60008201527f776e6572206e6f7220617070726f766564000000000000000000000000000000602082015250565b7f2f00000000000000000000000000000000000000000000000000000000000000600082015250565b61430e81613a47565b811461431957600080fd5b50565b61432581613a59565b811461433057600080fd5b50565b61433c81613a65565b811461434757600080fd5b50565b61435381613ab1565b811461435e57600080fd5b5056fea2646970667358221220e932d0e6b7b23253c070015d2df4d9f4668c4cda70c8b236299614e6796c9dcd64736f6c63430008040033",
  "immutableReferences": {},
  "source": "// SPDX-License-Identifier: MIT\r\npragma solidity ^0.8.4;\r\n\r\nimport \"@openzeppelin/contracts/access/Ownable.sol\";\r\nimport \"@openzeppelin/contracts/utils/Counters.sol\";\r\nimport \"@openzeppelin/contracts/token/ERC721/ERC721.sol\";\r\nimport \"@openzeppelin/contracts/token/ERC721/extensions/ERC721URIStorage.sol\";\r\nimport \"@openzeppelin/contracts/utils/Strings.sol\";\r\nimport \"./interfaces/IMilkToken.sol\";\r\n\r\ncontract Genesis is Ownable, ERC721URIStorage {\r\n    using Counters for Counters.Counter;\r\n    Counters.Counter private _tokenIds;\r\n\r\n    address private ownerAddr;\r\n    address public marketAddress;\r\n    uint256 public blockNumber;\r\n    uint256 public price;\r\n    string public baseURI;\r\n    string public cID;\r\n\r\n    IMilkToken tokenMilk;\r\n\r\n    event BuyBlindBox(\r\n        uint256 indexed itemId,\r\n        string metaHash\r\n    );\r\n\r\n    constructor(\r\n        uint256 _blockNumber,\r\n        IMilkToken _tokenMilk,\r\n        string memory _baseURI,\r\n        string memory _cID,\r\n        address _marketAddress,\r\n        address _ownerAddr\r\n    ) ERC721(\"Genesis\", \"GNT\") {\r\n        blockNumber = _blockNumber;\r\n        tokenMilk = _tokenMilk;\r\n        baseURI = _baseURI;\r\n        price = 1;\r\n        cID = _cID;\r\n        marketAddress = _marketAddress;\r\n        ownerAddr = _ownerAddr;\r\n    }\r\n\r\n    function buyBlindBox() public {\r\n        require(msg.sender != address(0), \"Mint Address can't be zero address\");\r\n        // require(block.number >= blockNumber, \"Blindbox Sale is not started\");\r\n        require(_tokenIds.current() <= 1000, \"All NFTs are sold\");\r\n        require(\r\n            tokenMilk.balanceOf(msg.sender) >= price,\r\n            \"Balance of Milk token is not enought to buy BlindBox\"\r\n        );\r\n\r\n        tokenMilk.transferFrom(msg.sender, ownerAddr, price);\r\n\r\n        _tokenIds.increment();\r\n        uint256 newItemId = _tokenIds.current();\r\n        string memory s = string(abi.encodePacked(baseURI, cID, '/', Strings.toString(newItemId), '.json'));\r\n\r\n        _mint(msg.sender, newItemId);\r\n        _setTokenURI(newItemId, s);\r\n\r\n        if (!isApprovedForAll(msg.sender, marketAddress)) {\r\n            setApprovalForAll(marketAddress, true);\r\n        }\r\n        \r\n        emit BuyBlindBox(newItemId, s);\r\n    }\r\n\r\n    function setOwnerAddr(address _ownerAddr) public onlyOwner {\r\n        require(\r\n            _ownerAddr != address(0),\r\n            \"Owner Address can't be zero address\"\r\n        );\r\n        ownerAddr = _ownerAddr;\r\n    }\r\n\r\n    function getOwnerAddr() public view onlyOwner returns (address) {\r\n        return ownerAddr;\r\n    }\r\n\r\n    function setPrice(uint256 _price) public onlyOwner {\r\n        price = _price;\r\n    }\r\n\r\n    function setBlockNumber(uint256 _blockNumber) public onlyOwner {\r\n        blockNumber = _blockNumber;\r\n    }\r\n\r\n    function setBaseURI(string memory _baseURI) public onlyOwner {\r\n        baseURI = _baseURI;\r\n    }\r\n\r\n    function setCID(string memory _cID) public onlyOwner {\r\n        cID = _cID;\r\n    }\r\n\r\n    function transfer(\r\n        address _from,\r\n        address _to,\r\n        uint256 _tokenId\r\n    ) external onlyOwner {\r\n        transferFrom(_from, _to, _tokenId);\r\n    }\r\n\r\n    function getBlockNumber() external view returns (uint256) {\r\n        return block.number;\r\n    }\r\n\r\n    function totalSupply() external view returns (uint256) {\r\n        return (_tokenIds.current());\r\n    }\r\n\r\n    function getTokenFullURI(uint256 tokenId)\r\n        external\r\n        view\r\n        returns (string memory)\r\n    {\r\n        string memory _tokenURI = tokenURI(tokenId);\r\n\r\n        return _tokenURI;\r\n    }\r\n\r\n    function getBaseURI() external view returns (string memory) {\r\n        string memory _baseURI = baseURI;\r\n        return _baseURI;\r\n    }\r\n\r\n    function fetchMyNfts() external view returns (uint256[] memory) {\r\n        uint256 tokenCount = 0;\r\n        uint256 _totalSupply = _tokenIds.current();\r\n        for (uint256 i = 0; i < _totalSupply; i++) {\r\n            if (ownerOf(i + 1) == msg.sender) {\r\n                tokenCount++;\r\n            }\r\n        }\r\n\r\n        uint256[] memory tokenIds = new uint256[](tokenCount);\r\n        uint256 currentIndex = 0;\r\n        for (uint256 i = 0; i < _totalSupply; i++) {\r\n            if (ownerOf(i + 1) == msg.sender) {\r\n                tokenIds[currentIndex] = i + 1;\r\n                currentIndex++;\r\n            }\r\n        }\r\n\r\n        return tokenIds;\r\n    }\r\n}\r\n",
  "sourcePath": "E:\\Git for Project\\Ethereum\\NFT\\CashCow\\nft-contracts\\contracts\\Genesis.sol",
  "compiler": {
    "name": "solc",
    "version": "0.8.4+commit.c7e474f2.Emscripten.clang"
  },
  "schemaVersion": "3.4.2",
  "updatedAt": "2022-02-04T17:51:12.617Z",
  "networkType": "ethereum",
  "devdoc": {
    "kind": "dev",
    "methods": {
      "approve(address,uint256)": {
        "details": "See {IERC721-approve}."
      },
      "balanceOf(address)": {
        "details": "See {IERC721-balanceOf}."
      },
      "getApproved(uint256)": {
        "details": "See {IERC721-getApproved}."
      },
      "isApprovedForAll(address,address)": {
        "details": "See {IERC721-isApprovedForAll}."
      },
      "name()": {
        "details": "See {IERC721Metadata-name}."
      },
      "owner()": {
        "details": "Returns the address of the current owner."
      },
      "ownerOf(uint256)": {
        "details": "See {IERC721-ownerOf}."
      },
      "renounceOwnership()": {
        "details": "Leaves the contract without owner. It will not be possible to call `onlyOwner` functions anymore. Can only be called by the current owner. NOTE: Renouncing ownership will leave the contract without an owner, thereby removing any functionality that is only available to the owner."
      },
      "safeTransferFrom(address,address,uint256)": {
        "details": "See {IERC721-safeTransferFrom}."
      },
      "safeTransferFrom(address,address,uint256,bytes)": {
        "details": "See {IERC721-safeTransferFrom}."
      },
      "setApprovalForAll(address,bool)": {
        "details": "See {IERC721-setApprovalForAll}."
      },
      "supportsInterface(bytes4)": {
        "details": "See {IERC165-supportsInterface}."
      },
      "symbol()": {
        "details": "See {IERC721Metadata-symbol}."
      },
      "tokenURI(uint256)": {
        "details": "See {IERC721Metadata-tokenURI}."
      },
      "transferFrom(address,address,uint256)": {
        "details": "See {IERC721-transferFrom}."
      },
      "transferOwnership(address)": {
        "details": "Transfers ownership of the contract to a new account (`newOwner`). Can only be called by the current owner."
      }
    },
    "version": 1
  },
  "userdoc": {
    "kind": "user",
    "methods": {},
    "version": 1
  }
}