{
  "contractName": "HappyCows",
  "abi": [
    {
      "inputs": [
        {
          "internalType": "uint256",
          "name": "_blockNumber",
          "type": "uint256"
        },
        {
          "internalType": "contract IMilkToken",
          "name": "_tokenMilk",
          "type": "address"
        },
        {
          "internalType": "string",
          "name": "_baseURI",
          "type": "string"
        },
        {
          "internalType": "string",
          "name": "_cID",
          "type": "string"
        },
        {
          "internalType": "address",
          "name": "_marketAddress",
          "type": "address"
        },
        {
          "internalType": "address",
          "name": "_ownerAddr",
          "type": "address"
        }
      ],
      "stateMutability": "nonpayable",
      "type": "constructor"
    },
    {
      "anonymous": false,
      "inputs": [
        {
          "indexed": true,
          "internalType": "address",
          "name": "owner",
          "type": "address"
        },
        {
          "indexed": true,
          "internalType": "address",
          "name": "approved",
          "type": "address"
        },
        {
          "indexed": true,
          "internalType": "uint256",
          "name": "tokenId",
          "type": "uint256"
        }
      ],
      "name": "Approval",
      "type": "event"
    },
    {
      "anonymous": false,
      "inputs": [
        {
          "indexed": true,
          "internalType": "address",
          "name": "owner",
          "type": "address"
        },
        {
          "indexed": true,
          "internalType": "address",
          "name": "operator",
          "type": "address"
        },
        {
          "indexed": false,
          "internalType": "bool",
          "name": "approved",
          "type": "bool"
        }
      ],
      "name": "ApprovalForAll",
      "type": "event"
    },
    {
      "anonymous": false,
      "inputs": [
        {
          "indexed": true,
          "internalType": "uint256",
          "name": "itemId",
          "type": "uint256"
        },
        {
          "indexed": false,
          "internalType": "string",
          "name": "metaHash",
          "type": "string"
        }
      ],
      "name": "BuyBlindBox",
      "type": "event"
    },
    {
      "anonymous": false,
      "inputs": [
        {
          "indexed": true,
          "internalType": "address",
          "name": "previousOwner",
          "type": "address"
        },
        {
          "indexed": true,
          "internalType": "address",
          "name": "newOwner",
          "type": "address"
        }
      ],
      "name": "OwnershipTransferred",
      "type": "event"
    },
    {
      "anonymous": false,
      "inputs": [
        {
          "indexed": true,
          "internalType": "address",
          "name": "from",
          "type": "address"
        },
        {
          "indexed": true,
          "internalType": "address",
          "name": "to",
          "type": "address"
        },
        {
          "indexed": true,
          "internalType": "uint256",
          "name": "tokenId",
          "type": "uint256"
        }
      ],
      "name": "Transfer",
      "type": "event"
    },
    {
      "inputs": [
        {
          "internalType": "address",
          "name": "to",
          "type": "address"
        },
        {
          "internalType": "uint256",
          "name": "tokenId",
          "type": "uint256"
        }
      ],
      "name": "approve",
      "outputs": [],
      "stateMutability": "nonpayable",
      "type": "function"
    },
    {
      "inputs": [
        {
          "internalType": "address",
          "name": "owner",
          "type": "address"
        }
      ],
      "name": "balanceOf",
      "outputs": [
        {
          "internalType": "uint256",
          "name": "",
          "type": "uint256"
        }
      ],
      "stateMutability": "view",
      "type": "function",
      "constant": true
    },
    {
      "inputs": [],
      "name": "baseURI",
      "outputs": [
        {
          "internalType": "string",
          "name": "",
          "type": "string"
        }
      ],
      "stateMutability": "view",
      "type": "function",
      "constant": true
    },
    {
      "inputs": [],
      "name": "blockNumber",
      "outputs": [
        {
          "internalType": "uint256",
          "name": "",
          "type": "uint256"
        }
      ],
      "stateMutability": "view",
      "type": "function",
      "constant": true
    },
    {
      "inputs": [],
      "name": "cID",
      "outputs": [
        {
          "internalType": "string",
          "name": "",
          "type": "string"
        }
      ],
      "stateMutability": "view",
      "type": "function",
      "constant": true
    },
    {
      "inputs": [
        {
          "internalType": "uint256",
          "name": "tokenId",
          "type": "uint256"
        }
      ],
      "name": "getApproved",
      "outputs": [
        {
          "internalType": "address",
          "name": "",
          "type": "address"
        }
      ],
      "stateMutability": "view",
      "type": "function",
      "constant": true
    },
    {
      "inputs": [
        {
          "internalType": "address",
          "name": "owner",
          "type": "address"
        },
        {
          "internalType": "address",
          "name": "operator",
          "type": "address"
        }
      ],
      "name": "isApprovedForAll",
      "outputs": [
        {
          "internalType": "bool",
          "name": "",
          "type": "bool"
        }
      ],
      "stateMutability": "view",
      "type": "function",
      "constant": true
    },
    {
      "inputs": [],
      "name": "marketAddress",
      "outputs": [
        {
          "internalType": "address",
          "name": "",
          "type": "address"
        }
      ],
      "stateMutability": "view",
      "type": "function",
      "constant": true
    },
    {
      "inputs": [],
      "name": "name",
      "outputs": [
        {
          "internalType": "string",
          "name": "",
          "type": "string"
        }
      ],
      "stateMutability": "view",
      "type": "function",
      "constant": true
    },
    {
      "inputs": [],
      "name": "owner",
      "outputs": [
        {
          "internalType": "address",
          "name": "",
          "type": "address"
        }
      ],
      "stateMutability": "view",
      "type": "function",
      "constant": true
    },
    {
      "inputs": [
        {
          "internalType": "uint256",
          "name": "tokenId",
          "type": "uint256"
        }
      ],
      "name": "ownerOf",
      "outputs": [
        {
          "internalType": "address",
          "name": "",
          "type": "address"
        }
      ],
      "stateMutability": "view",
      "type": "function",
      "constant": true
    },
    {
      "inputs": [],
      "name": "price",
      "outputs": [
        {
          "internalType": "uint256",
          "name": "",
          "type": "uint256"
        }
      ],
      "stateMutability": "view",
      "type": "function",
      "constant": true
    },
    {
      "inputs": [],
      "name": "renounceOwnership",
      "outputs": [],
      "stateMutability": "nonpayable",
      "type": "function"
    },
    {
      "inputs": [
        {
          "internalType": "address",
          "name": "from",
          "type": "address"
        },
        {
          "internalType": "address",
          "name": "to",
          "type": "address"
        },
        {
          "internalType": "uint256",
          "name": "tokenId",
          "type": "uint256"
        }
      ],
      "name": "safeTransferFrom",
      "outputs": [],
      "stateMutability": "nonpayable",
      "type": "function"
    },
    {
      "inputs": [
        {
          "internalType": "address",
          "name": "from",
          "type": "address"
        },
        {
          "internalType": "address",
          "name": "to",
          "type": "address"
        },
        {
          "internalType": "uint256",
          "name": "tokenId",
          "type": "uint256"
        },
        {
          "internalType": "bytes",
          "name": "_data",
          "type": "bytes"
        }
      ],
      "name": "safeTransferFrom",
      "outputs": [],
      "stateMutability": "nonpayable",
      "type": "function"
    },
    {
      "inputs": [
        {
          "internalType": "address",
          "name": "operator",
          "type": "address"
        },
        {
          "internalType": "bool",
          "name": "approved",
          "type": "bool"
        }
      ],
      "name": "setApprovalForAll",
      "outputs": [],
      "stateMutability": "nonpayable",
      "type": "function"
    },
    {
      "inputs": [
        {
          "internalType": "bytes4",
          "name": "interfaceId",
          "type": "bytes4"
        }
      ],
      "name": "supportsInterface",
      "outputs": [
        {
          "internalType": "bool",
          "name": "",
          "type": "bool"
        }
      ],
      "stateMutability": "view",
      "type": "function",
      "constant": true
    },
    {
      "inputs": [],
      "name": "symbol",
      "outputs": [
        {
          "internalType": "string",
          "name": "",
          "type": "string"
        }
      ],
      "stateMutability": "view",
      "type": "function",
      "constant": true
    },
    {
      "inputs": [
        {
          "internalType": "uint256",
          "name": "tokenId",
          "type": "uint256"
        }
      ],
      "name": "tokenURI",
      "outputs": [
        {
          "internalType": "string",
          "name": "",
          "type": "string"
        }
      ],
      "stateMutability": "view",
      "type": "function",
      "constant": true
    },
    {
      "inputs": [
        {
          "internalType": "address",
          "name": "from",
          "type": "address"
        },
        {
          "internalType": "address",
          "name": "to",
          "type": "address"
        },
        {
          "internalType": "uint256",
          "name": "tokenId",
          "type": "uint256"
        }
      ],
      "name": "transferFrom",
      "outputs": [],
      "stateMutability": "nonpayable",
      "type": "function"
    },
    {
      "inputs": [
        {
          "internalType": "address",
          "name": "newOwner",
          "type": "address"
        }
      ],
      "name": "transferOwnership",
      "outputs": [],
      "stateMutability": "nonpayable",
      "type": "function"
    },
    {
      "inputs": [],
      "name": "buyBlindBox",
      "outputs": [],
      "stateMutability": "nonpayable",
      "type": "function"
    },
    {
      "inputs": [
        {
          "internalType": "address",
          "name": "_ownerAddr",
          "type": "address"
        }
      ],
      "name": "setOwnerAddr",
      "outputs": [],
      "stateMutability": "nonpayable",
      "type": "function"
    },
    {
      "inputs": [],
      "name": "getOwnerAddr",
      "outputs": [
        {
          "internalType": "address",
          "name": "",
          "type": "address"
        }
      ],
      "stateMutability": "view",
      "type": "function",
      "constant": true
    },
    {
      "inputs": [
        {
          "internalType": "uint256",
          "name": "_price",
          "type": "uint256"
        }
      ],
      "name": "setPrice",
      "outputs": [],
      "stateMutability": "nonpayable",
      "type": "function"
    },
    {
      "inputs": [
        {
          "internalType": "uint256",
          "name": "_blockNumber",
          "type": "uint256"
        }
      ],
      "name": "setBlockNumber",
      "outputs": [],
      "stateMutability": "nonpayable",
      "type": "function"
    },
    {
      "inputs": [
        {
          "internalType": "string",
          "name": "_baseURI",
          "type": "string"
        }
      ],
      "name": "setBaseURI",
      "outputs": [],
      "stateMutability": "nonpayable",
      "type": "function"
    },
    {
      "inputs": [
        {
          "internalType": "string",
          "name": "_cID",
          "type": "string"
        }
      ],
      "name": "setCID",
      "outputs": [],
      "stateMutability": "nonpayable",
      "type": "function"
    },
    {
      "inputs": [
        {
          "internalType": "address",
          "name": "_from",
          "type": "address"
        },
        {
          "internalType": "address",
          "name": "_to",
          "type": "address"
        },
        {
          "internalType": "uint256",
          "name": "_tokenId",
          "type": "uint256"
        }
      ],
      "name": "transfer",
      "outputs": [],
      "stateMutability": "nonpayable",
      "type": "function"
    },
    {
      "inputs": [],
      "name": "getBlockNumber",
      "outputs": [
        {
          "internalType": "uint256",
          "name": "",
          "type": "uint256"
        }
      ],
      "stateMutability": "view",
      "type": "function",
      "constant": true
    },
    {
      "inputs": [],
      "name": "totalSupply",
      "outputs": [
        {
          "internalType": "uint256",
          "name": "",
          "type": "uint256"
        }
      ],
      "stateMutability": "view",
      "type": "function",
      "constant": true
    },
    {
      "inputs": [
        {
          "internalType": "uint256",
          "name": "tokenId",
          "type": "uint256"
        }
      ],
      "name": "getTokenFullURI",
      "outputs": [
        {
          "internalType": "string",
          "name": "",
          "type": "string"
        }
      ],
      "stateMutability": "view",
      "type": "function",
      "constant": true
    },
    {
      "inputs": [],
      "name": "getBaseURI",
      "outputs": [
        {
          "internalType": "string",
          "name": "",
          "type": "string"
        }
      ],
      "stateMutability": "view",
      "type": "function",
      "constant": true
    },
    {
      "inputs": [],
      "name": "fetchMyNfts",
      "outputs": [
        {
          "internalType": "uint256[]",
          "name": "",
          "type": "uint256[]"
        }
      ],
      "stateMutability": "view",
      "type": "function",
      "constant": true
    }
  ],
  "bytecode": "0x60806040523480156200001157600080fd5b5060405162004bfc38038062004bfc83398181016040528101906200003791906200044c565b6040518060400160405280600981526020017f4861707079436f777300000000000000000000000000000000000000000000008152506040518060400160405280600381526020017f4843430000000000000000000000000000000000000000000000000000000000815250620000d5620000c062000219640100000000026401000000009004565b62000221640100000000026401000000009004565b8160019080519060200190620000ed929190620002e5565b50806002908051906020019062000106929190620002e5565b50505085600b8190555084600f60006101000a81548173ffffffffffffffffffffffffffffffffffffffff021916908373ffffffffffffffffffffffffffffffffffffffff16021790555083600d908051906020019062000169929190620002e5565b506064600c8190555082600e90805190602001906200018a929190620002e5565b5081600a60006101000a81548173ffffffffffffffffffffffffffffffffffffffff021916908373ffffffffffffffffffffffffffffffffffffffff16021790555080600960006101000a81548173ffffffffffffffffffffffffffffffffffffffff021916908373ffffffffffffffffffffffffffffffffffffffff16021790555050505050505062000724565b600033905090565b60008060009054906101000a900473ffffffffffffffffffffffffffffffffffffffff169050816000806101000a81548173ffffffffffffffffffffffffffffffffffffffff021916908373ffffffffffffffffffffffffffffffffffffffff1602179055508173ffffffffffffffffffffffffffffffffffffffff168173ffffffffffffffffffffffffffffffffffffffff167f8be0079c531659141344cd1fd0a4f28419497f9722a3daafe3b4186f6b6457e060405160405180910390a35050565b828054620002f390620005fb565b90600052602060002090601f01602090048101928262000317576000855562000363565b82601f106200033257805160ff191683800117855562000363565b8280016001018555821562000363579182015b828111156200036257825182559160200191906001019062000345565b5b50905062000372919062000376565b5090565b5b808211156200039157600081600090555060010162000377565b5090565b6000620003ac620003a6846200053d565b62000514565b905082815260208101848484011115620003c557600080fd5b620003d2848285620005c5565b509392505050565b600081519050620003eb81620006d6565b92915050565b6000815190506200040281620006f0565b92915050565b600082601f8301126200041a57600080fd5b81516200042c84826020860162000395565b91505092915050565b60008151905062000446816200070a565b92915050565b60008060008060008060c087890312156200046657600080fd5b60006200047689828a0162000435565b96505060206200048989828a01620003f1565b955050604087015167ffffffffffffffff811115620004a757600080fd5b620004b589828a0162000408565b945050606087015167ffffffffffffffff811115620004d357600080fd5b620004e189828a0162000408565b9350506080620004f489828a01620003da565b92505060a06200050789828a01620003da565b9150509295509295509295565b60006200052062000533565b90506200052e828262000631565b919050565b6000604051905090565b600067ffffffffffffffff8211156200055b576200055a62000696565b5b6200056682620006c5565b9050602081019050919050565b600062000580826200059b565b9050919050565b6000620005948262000573565b9050919050565b600073ffffffffffffffffffffffffffffffffffffffff82169050919050565b6000819050919050565b60005b83811015620005e5578082015181840152602081019050620005c8565b83811115620005f5576000848401525b50505050565b600060028204905060018216806200061457607f821691505b602082108114156200062b576200062a62000667565b5b50919050565b6200063c82620006c5565b810181811067ffffffffffffffff821117156200065e576200065d62000696565b5b80604052505050565b7f4e487b7100000000000000000000000000000000000000000000000000000000600052602260045260246000fd5b7f4e487b7100000000000000000000000000000000000000000000000000000000600052604160045260246000fd5b6000601f19601f8301169050919050565b620006e18162000573565b8114620006ed57600080fd5b50565b620006fb8162000587565b81146200070757600080fd5b50565b6200071581620005bb565b81146200072157600080fd5b50565b6144c880620007346000396000f3fe608060405234801561001057600080fd5b5060043610610223576000357c01000000000000000000000000000000000000000000000000000000009004806380e719c611610137578063a8c3c850116100ca578063c87b56dd11610099578063c87b56dd146105ac578063e074278d146105dc578063e6704723146105f8578063e985e9c514610616578063f2fde38b1461064657610223565b8063a8c3c8501461053c578063b88d4fde14610558578063beabacc814610574578063c3d6ee7f1461059057610223565b806395d89b411161010657806395d89b41146104c657806399a2f2d7146104e4578063a035b1fe14610502578063a22cb4651461052057610223565b806380e719c61461043e5780638da5cb5b1461046e57806391b7f5ed1461048c57806395623641146104a857610223565b806342cbb15c116101ba5780636c0360eb116101895780636c0360eb146103be57806370a08231146103dc578063714c53981461040c578063715018a61461042a578063778743ee1461043457610223565b806342cbb15c1461033657806355f804b31461035457806357e871e7146103705780636352211e1461038e57610223565b8063128ae712116101f6578063128ae712146102c257806318160ddd146102e057806323b872dd146102fe57806342842e0e1461031a57610223565b806301ffc9a71461022857806306fdde0314610258578063081812fc14610276578063095ea7b3146102a6575b600080fd5b610242600480360381019061023d9190612e9b565b610662565b60405161024f91906135ea565b60405180910390f35b610260610744565b60405161026d9190613605565b60405180910390f35b610290600480360381019061028b9190612f2e565b6107d6565b60405161029d919061352a565b60405180910390f35b6102c060048036038101906102bb9190612e36565b61085b565b005b6102ca610973565b6040516102d791906135c8565b60405180910390f35b6102e8610b40565b6040516102f59190613907565b60405180910390f35b61031860048036038101906103139190612d30565b610b51565b005b610334600480360381019061032f9190612d30565b610bb1565b005b61033e610bd1565b60405161034b9190613907565b60405180910390f35b61036e60048036038101906103699190612eed565b610bd9565b005b610378610c6f565b6040516103859190613907565b60405180910390f35b6103a860048036038101906103a39190612f2e565b610c75565b6040516103b5919061352a565b60405180910390f35b6103c6610d27565b6040516103d39190613605565b60405180910390f35b6103f660048036038101906103f19190612ccb565b610db5565b6040516104039190613907565b60405180910390f35b610414610e6d565b6040516104219190613605565b60405180910390f35b610432610f05565b005b61043c610f8d565b005b61045860048036038101906104539190612f2e565b6113ab565b6040516104659190613605565b60405180910390f35b6104766113c3565b604051610483919061352a565b60405180910390f35b6104a660048036038101906104a19190612f2e565b6113ec565b005b6104b0611472565b6040516104bd919061352a565b60405180910390f35b6104ce611498565b6040516104db9190613605565b60405180910390f35b6104ec61152a565b6040516104f99190613605565b60405180910390f35b61050a6115b8565b6040516105179190613907565b60405180910390f35b61053a60048036038101906105359190612dfa565b6115be565b005b61055660048036038101906105519190612f2e565b61173f565b005b610572600480360381019061056d9190612d7f565b6117c5565b005b61058e60048036038101906105899190612d30565b611827565b005b6105aa60048036038101906105a59190612eed565b6118b3565b005b6105c660048036038101906105c19190612f2e565b611949565b6040516105d39190613605565b60405180910390f35b6105f660048036038101906105f19190612ccb565b611a9b565b005b610600611bcb565b60405161060d919061352a565b60405180910390f35b610630600480360381019061062b9190612cf4565b611c71565b60405161063d91906135ea565b60405180910390f35b610660600480360381019061065b9190612ccb565b611d05565b005b60007f80ac58cd000000000000000000000000000000000000000000000000000000007bffffffffffffffffffffffffffffffffffffffffffffffffffffffff1916827bffffffffffffffffffffffffffffffffffffffffffffffffffffffff1916148061072d57507f5b5e139f000000000000000000000000000000000000000000000000000000007bffffffffffffffffffffffffffffffffffffffffffffffffffffffff1916827bffffffffffffffffffffffffffffffffffffffffffffffffffffffff1916145b8061073d575061073c82611dfd565b5b9050919050565b60606001805461075390613c05565b80601f016020809104026020016040519081016040528092919081815260200182805461077f90613c05565b80156107cc5780601f106107a1576101008083540402835291602001916107cc565b820191906000526020600020905b8154815290600101906020018083116107af57829003601f168201915b5050505050905090565b60006107e182611e67565b610820576040517f08c379a000000000000000000000000000000000000000000000000000000000815260040161081790613847565b60405180910390fd5b6005600083815260200190815260200160002060009054906101000a900473ffffffffffffffffffffffffffffffffffffffff169050919050565b600061086682610c75565b90508073ffffffffffffffffffffffffffffffffffffffff168373ffffffffffffffffffffffffffffffffffffffff1614156108d7576040517f08c379a00000000000000000000000000000000000000000000000000000000081526004016108ce906138c7565b60405180910390fd5b8073ffffffffffffffffffffffffffffffffffffffff166108f6611ed3565b73ffffffffffffffffffffffffffffffffffffffff16148061092557506109248161091f611ed3565b611c71565b5b610964576040517f08c379a000000000000000000000000000000000000000000000000000000000815260040161095b90613727565b60405180910390fd5b61096e8383611edb565b505050565b60606000806109826008611f94565b905060005b818110156109f9573373ffffffffffffffffffffffffffffffffffffffff166109bb6001836109b69190613a3a565b610c75565b73ffffffffffffffffffffffffffffffffffffffff1614156109e65782806109e290613c68565b9350505b80806109f190613c68565b915050610987565b5060008267ffffffffffffffff811115610a3c577f4e487b7100000000000000000000000000000000000000000000000000000000600052604160045260246000fd5b604051908082528060200260200182016040528015610a6a5781602001602082028036833780820191505090505b5090506000805b83811015610b35573373ffffffffffffffffffffffffffffffffffffffff16610aa5600183610aa09190613a3a565b610c75565b73ffffffffffffffffffffffffffffffffffffffff161415610b2257600181610ace9190613a3a565b838381518110610b07577f4e487b7100000000000000000000000000000000000000000000000000000000600052603260045260246000fd5b6020026020010181815250508180610b1e90613c68565b9250505b8080610b2d90613c68565b915050610a71565b508194505050505090565b6000610b4c6008611f94565b905090565b610b62610b5c611ed3565b82611fa2565b610ba1576040517f08c379a0000000000000000000000000000000000000000000000000000000008152600401610b98906138e7565b60405180910390fd5b610bac838383612080565b505050565b610bcc838383604051806020016040528060008152506117c5565b505050565b600043905090565b610be1611ed3565b73ffffffffffffffffffffffffffffffffffffffff16610bff6113c3565b73ffffffffffffffffffffffffffffffffffffffff1614610c55576040517f08c379a0000000000000000000000000000000000000000000000000000000008152600401610c4c90613867565b60405180910390fd5b80600d9080519060200190610c6b929190612ac5565b5050565b600b5481565b6000806003600084815260200190815260200160002060009054906101000a900473ffffffffffffffffffffffffffffffffffffffff169050600073ffffffffffffffffffffffffffffffffffffffff168173ffffffffffffffffffffffffffffffffffffffff161415610d1e576040517f08c379a0000000000000000000000000000000000000000000000000000000008152600401610d1590613767565b60405180910390fd5b80915050919050565b600d8054610d3490613c05565b80601f0160208091040260200160405190810160405280929190818152602001828054610d6090613c05565b8015610dad5780601f10610d8257610100808354040283529160200191610dad565b820191906000526020600020905b815481529060010190602001808311610d9057829003601f168201915b505050505081565b60008073ffffffffffffffffffffffffffffffffffffffff168273ffffffffffffffffffffffffffffffffffffffff161415610e26576040517f08c379a0000000000000000000000000000000000000000000000000000000008152600401610e1d90613747565b60405180910390fd5b600460008373ffffffffffffffffffffffffffffffffffffffff1673ffffffffffffffffffffffffffffffffffffffff168152602001908152602001600020549050919050565b60606000600d8054610e7e90613c05565b80601f0160208091040260200160405190810160405280929190818152602001828054610eaa90613c05565b8015610ef75780601f10610ecc57610100808354040283529160200191610ef7565b820191906000526020600020905b815481529060010190602001808311610eda57829003601f168201915b505050505090508091505090565b610f0d611ed3565b73ffffffffffffffffffffffffffffffffffffffff16610f2b6113c3565b73ffffffffffffffffffffffffffffffffffffffff1614610f81576040517f08c379a0000000000000000000000000000000000000000000000000000000008152600401610f7890613867565b60405180910390fd5b610f8b60006122dc565b565b600073ffffffffffffffffffffffffffffffffffffffff163373ffffffffffffffffffffffffffffffffffffffff161415610ffd576040517f08c379a0000000000000000000000000000000000000000000000000000000008152600401610ff490613707565b60405180910390fd5b600b54431015611042576040517f08c379a0000000000000000000000000000000000000000000000000000000008152600401611039906137e7565b60405180910390fd5b6103e861104f6008611f94565b1115611090576040517f08c379a0000000000000000000000000000000000000000000000000000000008152600401611087906137c7565b60405180910390fd5b670de0b6b3a7640000600c546110a69190613ac1565b600f60009054906101000a900473ffffffffffffffffffffffffffffffffffffffff1673ffffffffffffffffffffffffffffffffffffffff166370a08231336040518263ffffffff167c010000000000000000000000000000000000000000000000000000000002815260040161111d919061352a565b60206040518083038186803b15801561113557600080fd5b505afa158015611149573d6000803e3d6000fd5b505050506040513d601f19601f8201168201806040525081019061116d9190612f57565b10156111ae576040517f08c379a00000000000000000000000000000000000000000000000000000000081526004016111a590613667565b60405180910390fd5b600f60009054906101000a900473ffffffffffffffffffffffffffffffffffffffff1673ffffffffffffffffffffffffffffffffffffffff166323b872dd33600960009054906101000a900473ffffffffffffffffffffffffffffffffffffffff16670de0b6b3a7640000600c546112269190613ac1565b6040518463ffffffff167c010000000000000000000000000000000000000000000000000000000002815260040161126093929190613545565b602060405180830381600087803b15801561127a57600080fd5b505af115801561128e573d6000803e3d6000fd5b505050506040513d601f19601f820116820180604052508101906112b29190612e72565b506112bd60086123a0565b60006112c96008611f94565b90506000600d600e6112da846123b6565b6040516020016112ec939291906134e3565b60405160208183030381529060405290506113073383612582565b6113118282612750565b61133d33600a60009054906101000a900473ffffffffffffffffffffffffffffffffffffffff16611c71565b61136f5761136e600a60009054906101000a900473ffffffffffffffffffffffffffffffffffffffff1660016115be565b5b817f3ca34f54675bad9d785db929cb916abd42ddf71feb18d41797015aa66e3d8c318260405161139f9190613605565b60405180910390a25050565b606060006113b883611949565b905080915050919050565b60008060009054906101000a900473ffffffffffffffffffffffffffffffffffffffff16905090565b6113f4611ed3565b73ffffffffffffffffffffffffffffffffffffffff166114126113c3565b73ffffffffffffffffffffffffffffffffffffffff1614611468576040517f08c379a000000000000000000000000000000000000000000000000000000000815260040161145f90613867565b60405180910390fd5b80600c8190555050565b600a60009054906101000a900473ffffffffffffffffffffffffffffffffffffffff1681565b6060600280546114a790613c05565b80601f01602080910402602001604051908101604052809291908181526020018280546114d390613c05565b80156115205780601f106114f557610100808354040283529160200191611520565b820191906000526020600020905b81548152906001019060200180831161150357829003601f168201915b5050505050905090565b600e805461153790613c05565b80601f016020809104026020016040519081016040528092919081815260200182805461156390613c05565b80156115b05780601f10611585576101008083540402835291602001916115b0565b820191906000526020600020905b81548152906001019060200180831161159357829003601f168201915b505050505081565b600c5481565b6115c6611ed3565b73ffffffffffffffffffffffffffffffffffffffff168273ffffffffffffffffffffffffffffffffffffffff161415611634576040517f08c379a000000000000000000000000000000000000000000000000000000000815260040161162b906136c7565b60405180910390fd5b8060066000611641611ed3565b73ffffffffffffffffffffffffffffffffffffffff1673ffffffffffffffffffffffffffffffffffffffff16815260200190815260200160002060008473ffffffffffffffffffffffffffffffffffffffff1673ffffffffffffffffffffffffffffffffffffffff16815260200190815260200160002060006101000a81548160ff0219169083151502179055508173ffffffffffffffffffffffffffffffffffffffff166116ee611ed3565b73ffffffffffffffffffffffffffffffffffffffff167f17307eab39ab6107e8899845ad3d59bd9653f200f220920489ca2b5937696c318360405161173391906135ea565b60405180910390a35050565b611747611ed3565b73ffffffffffffffffffffffffffffffffffffffff166117656113c3565b73ffffffffffffffffffffffffffffffffffffffff16146117bb576040517f08c379a00000000000000000000000000000000000000000000000000000000081526004016117b290613867565b60405180910390fd5b80600b8190555050565b6117d66117d0611ed3565b83611fa2565b611815576040517f08c379a000000000000000000000000000000000000000000000000000000000815260040161180c906138e7565b60405180910390fd5b611821848484846127c4565b50505050565b61182f611ed3565b73ffffffffffffffffffffffffffffffffffffffff1661184d6113c3565b73ffffffffffffffffffffffffffffffffffffffff16146118a3576040517f08c379a000000000000000000000000000000000000000000000000000000000815260040161189a90613867565b60405180910390fd5b6118ae838383610b51565b505050565b6118bb611ed3565b73ffffffffffffffffffffffffffffffffffffffff166118d96113c3565b73ffffffffffffffffffffffffffffffffffffffff161461192f576040517f08c379a000000000000000000000000000000000000000000000000000000000815260040161192690613867565b60405180910390fd5b80600e9080519060200190611945929190612ac5565b5050565b606061195482611e67565b611993576040517f08c379a000000000000000000000000000000000000000000000000000000000815260040161198a90613827565b60405180910390fd5b60006007600084815260200190815260200160002080546119b390613c05565b80601f01602080910402602001604051908101604052809291908181526020018280546119df90613c05565b8015611a2c5780601f10611a0157610100808354040283529160200191611a2c565b820191906000526020600020905b815481529060010190602001808311611a0f57829003601f168201915b505050505090506000611a3d612820565b9050600081511415611a53578192505050611a96565b600082511115611a88578082604051602001611a709291906134bf565b60405160208183030381529060405292505050611a96565b611a9184612837565b925050505b919050565b611aa3611ed3565b73ffffffffffffffffffffffffffffffffffffffff16611ac16113c3565b73ffffffffffffffffffffffffffffffffffffffff1614611b17576040517f08c379a0000000000000000000000000000000000000000000000000000000008152600401611b0e90613867565b60405180910390fd5b600073ffffffffffffffffffffffffffffffffffffffff168173ffffffffffffffffffffffffffffffffffffffff161415611b87576040517f08c379a0000000000000000000000000000000000000000000000000000000008152600401611b7e90613787565b60405180910390fd5b80600960006101000a81548173ffffffffffffffffffffffffffffffffffffffff021916908373ffffffffffffffffffffffffffffffffffffffff16021790555050565b6000611bd5611ed3565b73ffffffffffffffffffffffffffffffffffffffff16611bf36113c3565b73ffffffffffffffffffffffffffffffffffffffff1614611c49576040517f08c379a0000000000000000000000000000000000000000000000000000000008152600401611c4090613867565b60405180910390fd5b600960009054906101000a900473ffffffffffffffffffffffffffffffffffffffff16905090565b6000600660008473ffffffffffffffffffffffffffffffffffffffff1673ffffffffffffffffffffffffffffffffffffffff16815260200190815260200160002060008373ffffffffffffffffffffffffffffffffffffffff1673ffffffffffffffffffffffffffffffffffffffff16815260200190815260200160002060009054906101000a900460ff16905092915050565b611d0d611ed3565b73ffffffffffffffffffffffffffffffffffffffff16611d2b6113c3565b73ffffffffffffffffffffffffffffffffffffffff1614611d81576040517f08c379a0000000000000000000000000000000000000000000000000000000008152600401611d7890613867565b60405180910390fd5b600073ffffffffffffffffffffffffffffffffffffffff168173ffffffffffffffffffffffffffffffffffffffff161415611df1576040517f08c379a0000000000000000000000000000000000000000000000000000000008152600401611de890613647565b60405180910390fd5b611dfa816122dc565b50565b60007f01ffc9a7000000000000000000000000000000000000000000000000000000007bffffffffffffffffffffffffffffffffffffffffffffffffffffffff1916827bffffffffffffffffffffffffffffffffffffffffffffffffffffffff1916149050919050565b60008073ffffffffffffffffffffffffffffffffffffffff166003600084815260200190815260200160002060009054906101000a900473ffffffffffffffffffffffffffffffffffffffff1673ffffffffffffffffffffffffffffffffffffffff1614159050919050565b600033905090565b816005600083815260200190815260200160002060006101000a81548173ffffffffffffffffffffffffffffffffffffffff021916908373ffffffffffffffffffffffffffffffffffffffff160217905550808273ffffffffffffffffffffffffffffffffffffffff16611f4e83610c75565b73ffffffffffffffffffffffffffffffffffffffff167f8c5be1e5ebec7d5bd14f71427d1e84f3dd0314c0f7b2291e5b200ac8c7c3b92560405160405180910390a45050565b600081600001549050919050565b6000611fad82611e67565b611fec576040517f08c379a0000000000000000000000000000000000000000000000000000000008152600401611fe3906136e7565b60405180910390fd5b6000611ff783610c75565b90508073ffffffffffffffffffffffffffffffffffffffff168473ffffffffffffffffffffffffffffffffffffffff16148061206657508373ffffffffffffffffffffffffffffffffffffffff1661204e846107d6565b73ffffffffffffffffffffffffffffffffffffffff16145b8061207757506120768185611c71565b5b91505092915050565b8273ffffffffffffffffffffffffffffffffffffffff166120a082610c75565b73ffffffffffffffffffffffffffffffffffffffff16146120f6576040517f08c379a00000000000000000000000000000000000000000000000000000000081526004016120ed90613887565b60405180910390fd5b600073ffffffffffffffffffffffffffffffffffffffff168273ffffffffffffffffffffffffffffffffffffffff161415612166576040517f08c379a000000000000000000000000000000000000000000000000000000000815260040161215d906136a7565b60405180910390fd5b6121718383836128de565b61217c600082611edb565b6001600460008573ffffffffffffffffffffffffffffffffffffffff1673ffffffffffffffffffffffffffffffffffffffff16815260200190815260200160002060008282546121cc9190613b1b565b925050819055506001600460008473ffffffffffffffffffffffffffffffffffffffff1673ffffffffffffffffffffffffffffffffffffffff16815260200190815260200160002060008282546122239190613a3a565b92505081905550816003600083815260200190815260200160002060006101000a81548173ffffffffffffffffffffffffffffffffffffffff021916908373ffffffffffffffffffffffffffffffffffffffff160217905550808273ffffffffffffffffffffffffffffffffffffffff168473ffffffffffffffffffffffffffffffffffffffff167fddf252ad1be2c89b69c2b068fc378daa952ba7f163c4a11628f55a4df523b3ef60405160405180910390a4505050565b60008060009054906101000a900473ffffffffffffffffffffffffffffffffffffffff169050816000806101000a81548173ffffffffffffffffffffffffffffffffffffffff021916908373ffffffffffffffffffffffffffffffffffffffff1602179055508173ffffffffffffffffffffffffffffffffffffffff168173ffffffffffffffffffffffffffffffffffffffff167f8be0079c531659141344cd1fd0a4f28419497f9722a3daafe3b4186f6b6457e060405160405180910390a35050565b6001816000016000828254019250508190555050565b606060008214156123fe576040518060400160405280600181526020017f3000000000000000000000000000000000000000000000000000000000000000815250905061257d565b600082905060005b6000821461243057808061241990613c68565b915050600a826124299190613a90565b9150612406565b60008167ffffffffffffffff811115612472577f4e487b7100000000000000000000000000000000000000000000000000000000600052604160045260246000fd5b6040519080825280601f01601f1916602001820160405280156124a45781602001600182028036833780820191505090505b5090505b60008514612576576001826124bd9190613b1b565b9150600a856124cc9190613cb1565b60306124d89190613a3a565b7f010000000000000000000000000000000000000000000000000000000000000002818381518110612533577f4e487b7100000000000000000000000000000000000000000000000000000000600052603260045260246000fd5b60200101907effffffffffffffffffffffffffffffffffffffffffffffffffffffffffffff1916908160001a905350600a8561256f9190613a90565b94506124a8565b8093505050505b919050565b600073ffffffffffffffffffffffffffffffffffffffff168273ffffffffffffffffffffffffffffffffffffffff1614156125f2576040517f08c379a00000000000000000000000000000000000000000000000000000000081526004016125e990613807565b60405180910390fd5b6125fb81611e67565b1561263b576040517f08c379a000000000000000000000000000000000000000000000000000000000815260040161263290613687565b60405180910390fd5b612647600083836128de565b6001600460008473ffffffffffffffffffffffffffffffffffffffff1673ffffffffffffffffffffffffffffffffffffffff16815260200190815260200160002060008282546126979190613a3a565b92505081905550816003600083815260200190815260200160002060006101000a81548173ffffffffffffffffffffffffffffffffffffffff021916908373ffffffffffffffffffffffffffffffffffffffff160217905550808273ffffffffffffffffffffffffffffffffffffffff16600073ffffffffffffffffffffffffffffffffffffffff167fddf252ad1be2c89b69c2b068fc378daa952ba7f163c4a11628f55a4df523b3ef60405160405180910390a45050565b61275982611e67565b612798576040517f08c379a000000000000000000000000000000000000000000000000000000000815260040161278f906137a7565b60405180910390fd5b806007600084815260200190815260200160002090805190602001906127bf929190612ac5565b505050565b6127cf848484612080565b6127db848484846128e3565b61281a576040517f08c379a000000000000000000000000000000000000000000000000000000000815260040161281190613627565b60405180910390fd5b50505050565b606060405180602001604052806000815250905090565b606061284282611e67565b612881576040517f08c379a0000000000000000000000000000000000000000000000000000000008152600401612878906138a7565b60405180910390fd5b600061288b612820565b905060008151116128ab57604051806020016040528060008152506128d6565b806128b5846123b6565b6040516020016128c69291906134bf565b6040516020818303038152906040525b915050919050565b505050565b60006129048473ffffffffffffffffffffffffffffffffffffffff16612ab2565b15612aa5578373ffffffffffffffffffffffffffffffffffffffff1663150b7a0261292d611ed3565b8786866040518563ffffffff167c010000000000000000000000000000000000000000000000000000000002815260040161296b949392919061357c565b602060405180830381600087803b15801561298557600080fd5b505af19250505080156129b657506040513d601f19601f820116820180604052508101906129b39190612ec4565b60015b612a39573d80600081146129e6576040519150601f19603f3d011682016040523d82523d6000602084013e6129eb565b606091505b50600081511415612a31576040517f08c379a0000000000000000000000000000000000000000000000000000000008152600401612a2890613627565b60405180910390fd5b805181602001fd5b63150b7a027c0100000000000000000000000000000000000000000000000000000000027bffffffffffffffffffffffffffffffffffffffffffffffffffffffff1916817bffffffffffffffffffffffffffffffffffffffffffffffffffffffff191614915050612aaa565b600190505b949350505050565b600080823b905060008111915050919050565b828054612ad190613c05565b90600052602060002090601f016020900481019282612af35760008555612b3a565b82601f10612b0c57805160ff1916838001178555612b3a565b82800160010185558215612b3a579182015b82811115612b39578251825591602001919060010190612b1e565b5b509050612b479190612b4b565b5090565b5b80821115612b64576000816000905550600101612b4c565b5090565b6000612b7b612b7684613947565b613922565b905082815260208101848484011115612b9357600080fd5b612b9e848285613bc3565b509392505050565b6000612bb9612bb484613978565b613922565b905082815260208101848484011115612bd157600080fd5b612bdc848285613bc3565b509392505050565b600081359050612bf381614436565b92915050565b600081359050612c088161444d565b92915050565b600081519050612c1d8161444d565b92915050565b600081359050612c3281614464565b92915050565b600081519050612c4781614464565b92915050565b600082601f830112612c5e57600080fd5b8135612c6e848260208601612b68565b91505092915050565b600082601f830112612c8857600080fd5b8135612c98848260208601612ba6565b91505092915050565b600081359050612cb08161447b565b92915050565b600081519050612cc58161447b565b92915050565b600060208284031215612cdd57600080fd5b6000612ceb84828501612be4565b91505092915050565b60008060408385031215612d0757600080fd5b6000612d1585828601612be4565b9250506020612d2685828601612be4565b9150509250929050565b600080600060608486031215612d4557600080fd5b6000612d5386828701612be4565b9350506020612d6486828701612be4565b9250506040612d7586828701612ca1565b9150509250925092565b60008060008060808587031215612d9557600080fd5b6000612da387828801612be4565b9450506020612db487828801612be4565b9350506040612dc587828801612ca1565b925050606085013567ffffffffffffffff811115612de257600080fd5b612dee87828801612c4d565b91505092959194509250565b60008060408385031215612e0d57600080fd5b6000612e1b85828601612be4565b9250506020612e2c85828601612bf9565b9150509250929050565b60008060408385031215612e4957600080fd5b6000612e5785828601612be4565b9250506020612e6885828601612ca1565b9150509250929050565b600060208284031215612e8457600080fd5b6000612e9284828501612c0e565b91505092915050565b600060208284031215612ead57600080fd5b6000612ebb84828501612c23565b91505092915050565b600060208284031215612ed657600080fd5b6000612ee484828501612c38565b91505092915050565b600060208284031215612eff57600080fd5b600082013567ffffffffffffffff811115612f1957600080fd5b612f2584828501612c77565b91505092915050565b600060208284031215612f4057600080fd5b6000612f4e84828501612ca1565b91505092915050565b600060208284031215612f6957600080fd5b6000612f7784828501612cb6565b91505092915050565b6000612f8c83836134a1565b60208301905092915050565b612fa181613b4f565b82525050565b6000612fb2826139ce565b612fbc81856139fc565b9350612fc7836139a9565b8060005b83811015612ff8578151612fdf8882612f80565b9750612fea836139ef565b925050600181019050612fcb565b5085935050505092915050565b61300e81613b61565b82525050565b600061301f826139d9565b6130298185613a0d565b9350613039818560208601613bd2565b61304281613d9e565b840191505092915050565b6000613058826139e4565b6130628185613a1e565b9350613072818560208601613bd2565b61307b81613d9e565b840191505092915050565b6000613091826139e4565b61309b8185613a2f565b93506130ab818560208601613bd2565b80840191505092915050565b600081546130c481613c05565b6130ce8186613a2f565b945060018216600081146130e957600181146130fa5761312d565b60ff1983168652818601935061312d565b613103856139b9565b60005b8381101561312557815481890152600182019150602081019050613106565b838801955050505b50505092915050565b6000613143603283613a1e565b915061314e82613daf565b604082019050919050565b6000613166602683613a1e565b915061317182613dfe565b604082019050919050565b6000613189603483613a1e565b915061319482613e4d565b604082019050919050565b60006131ac601c83613a1e565b91506131b782613e9c565b602082019050919050565b60006131cf602483613a1e565b91506131da82613ec5565b604082019050919050565b60006131f2601983613a1e565b91506131fd82613f14565b602082019050919050565b6000613215602c83613a1e565b915061322082613f3d565b604082019050919050565b6000613238602283613a1e565b915061324382613f8c565b604082019050919050565b600061325b603883613a1e565b915061326682613fdb565b604082019050919050565b600061327e602a83613a1e565b91506132898261402a565b604082019050919050565b60006132a1602983613a1e565b91506132ac82614079565b604082019050919050565b60006132c4602383613a1e565b91506132cf826140c8565b604082019050919050565b60006132e7602e83613a1e565b91506132f282614117565b604082019050919050565b600061330a601183613a1e565b915061331582614166565b602082019050919050565b600061332d601c83613a1e565b91506133388261418f565b602082019050919050565b6000613350602083613a1e565b915061335b826141b8565b602082019050919050565b6000613373603183613a1e565b915061337e826141e1565b604082019050919050565b6000613396602c83613a1e565b91506133a182614230565b604082019050919050565b60006133b9600583613a2f565b91506133c48261427f565b600582019050919050565b60006133dc602083613a1e565b91506133e7826142a8565b602082019050919050565b60006133ff602983613a1e565b915061340a826142d1565b604082019050919050565b6000613422602f83613a1e565b915061342d82614320565b604082019050919050565b6000613445602183613a1e565b91506134508261436f565b604082019050919050565b6000613468603183613a1e565b9150613473826143be565b604082019050919050565b600061348b600183613a2f565b91506134968261440d565b600182019050919050565b6134aa81613bb9565b82525050565b6134b981613bb9565b82525050565b60006134cb8285613086565b91506134d78284613086565b91508190509392505050565b60006134ef82866130b7565b91506134fb82856130b7565b91506135068261347e565b91506135128284613086565b915061351d826133ac565b9150819050949350505050565b600060208201905061353f6000830184612f98565b92915050565b600060608201905061355a6000830186612f98565b6135676020830185612f98565b61357460408301846134b0565b949350505050565b60006080820190506135916000830187612f98565b61359e6020830186612f98565b6135ab60408301856134b0565b81810360608301526135bd8184613014565b905095945050505050565b600060208201905081810360008301526135e28184612fa7565b905092915050565b60006020820190506135ff6000830184613005565b92915050565b6000602082019050818103600083015261361f818461304d565b905092915050565b6000602082019050818103600083015261364081613136565b9050919050565b6000602082019050818103600083015261366081613159565b9050919050565b600060208201905081810360008301526136808161317c565b9050919050565b600060208201905081810360008301526136a08161319f565b9050919050565b600060208201905081810360008301526136c0816131c2565b9050919050565b600060208201905081810360008301526136e0816131e5565b9050919050565b6000602082019050818103600083015261370081613208565b9050919050565b600060208201905081810360008301526137208161322b565b9050919050565b600060208201905081810360008301526137408161324e565b9050919050565b6000602082019050818103600083015261376081613271565b9050919050565b6000602082019050818103600083015261378081613294565b9050919050565b600060208201905081810360008301526137a0816132b7565b9050919050565b600060208201905081810360008301526137c0816132da565b9050919050565b600060208201905081810360008301526137e0816132fd565b9050919050565b6000602082019050818103600083015261380081613320565b9050919050565b6000602082019050818103600083015261382081613343565b9050919050565b6000602082019050818103600083015261384081613366565b9050919050565b6000602082019050818103600083015261386081613389565b9050919050565b60006020820190508181036000830152613880816133cf565b9050919050565b600060208201905081810360008301526138a0816133f2565b9050919050565b600060208201905081810360008301526138c081613415565b9050919050565b600060208201905081810360008301526138e081613438565b9050919050565b600060208201905081810360008301526139008161345b565b9050919050565b600060208201905061391c60008301846134b0565b92915050565b600061392c61393d565b90506139388282613c37565b919050565b6000604051905090565b600067ffffffffffffffff82111561396257613961613d6f565b5b61396b82613d9e565b9050602081019050919050565b600067ffffffffffffffff82111561399357613992613d6f565b5b61399c82613d9e565b9050602081019050919050565b6000819050602082019050919050565b60008190508160005260206000209050919050565b600081519050919050565b600081519050919050565b600081519050919050565b6000602082019050919050565b600082825260208201905092915050565b600082825260208201905092915050565b600082825260208201905092915050565b600081905092915050565b6000613a4582613bb9565b9150613a5083613bb9565b9250827fffffffffffffffffffffffffffffffffffffffffffffffffffffffffffffffff03821115613a8557613a84613ce2565b5b828201905092915050565b6000613a9b82613bb9565b9150613aa683613bb9565b925082613ab657613ab5613d11565b5b828204905092915050565b6000613acc82613bb9565b9150613ad783613bb9565b9250817fffffffffffffffffffffffffffffffffffffffffffffffffffffffffffffffff0483118215151615613b1057613b0f613ce2565b5b828202905092915050565b6000613b2682613bb9565b9150613b3183613bb9565b925082821015613b4457613b43613ce2565b5b828203905092915050565b6000613b5a82613b99565b9050919050565b60008115159050919050565b60007fffffffff0000000000000000000000000000000000000000000000000000000082169050919050565b600073ffffffffffffffffffffffffffffffffffffffff82169050919050565b6000819050919050565b82818337600083830152505050565b60005b83811015613bf0578082015181840152602081019050613bd5565b83811115613bff576000848401525b50505050565b60006002820490506001821680613c1d57607f821691505b60208210811415613c3157613c30613d40565b5b50919050565b613c4082613d9e565b810181811067ffffffffffffffff82111715613c5f57613c5e613d6f565b5b80604052505050565b6000613c7382613bb9565b91507fffffffffffffffffffffffffffffffffffffffffffffffffffffffffffffffff821415613ca657613ca5613ce2565b5b600182019050919050565b6000613cbc82613bb9565b9150613cc783613bb9565b925082613cd757613cd6613d11565b5b828206905092915050565b7f4e487b7100000000000000000000000000000000000000000000000000000000600052601160045260246000fd5b7f4e487b7100000000000000000000000000000000000000000000000000000000600052601260045260246000fd5b7f4e487b7100000000000000000000000000000000000000000000000000000000600052602260045260246000fd5b7f4e487b7100000000000000000000000000000000000000000000000000000000600052604160045260246000fd5b6000601f19601f8301169050919050565b7f4552433732313a207472616e7366657220746f206e6f6e20455243373231526560008201527f63656976657220696d706c656d656e7465720000000000000000000000000000602082015250565b7f4f776e61626c653a206e6577206f776e657220697320746865207a65726f206160008201527f6464726573730000000000000000000000000000000000000000000000000000602082015250565b7f42616c616e6365206f66204d696c6b20746f6b656e206973206e6f7420656e6f60008201527f7567687420746f2062757920426c696e64426f78000000000000000000000000602082015250565b7f4552433732313a20746f6b656e20616c7265616479206d696e74656400000000600082015250565b7f4552433732313a207472616e7366657220746f20746865207a65726f2061646460008201527f7265737300000000000000000000000000000000000000000000000000000000602082015250565b7f4552433732313a20617070726f766520746f2063616c6c657200000000000000600082015250565b7f4552433732313a206f70657261746f7220717565727920666f72206e6f6e657860008201527f697374656e7420746f6b656e0000000000000000000000000000000000000000602082015250565b7f4d696e7420416464726573732063616e2774206265207a65726f20616464726560008201527f7373000000000000000000000000000000000000000000000000000000000000602082015250565b7f4552433732313a20617070726f76652063616c6c6572206973206e6f74206f7760008201527f6e6572206e6f7220617070726f76656420666f7220616c6c0000000000000000602082015250565b7f4552433732313a2062616c616e636520717565727920666f7220746865207a6560008201527f726f206164647265737300000000000000000000000000000000000000000000602082015250565b7f4552433732313a206f776e657220717565727920666f72206e6f6e657869737460008201527f656e7420746f6b656e0000000000000000000000000000000000000000000000602082015250565b7f4f776e657220416464726573732063616e2774206265207a65726f206164647260008201527f6573730000000000000000000000000000000000000000000000000000000000602082015250565b7f45524337323155524953746f726167653a2055524920736574206f66206e6f6e60008201527f6578697374656e7420746f6b656e000000000000000000000000000000000000602082015250565b7f416c6c204e4654732061726520736f6c64000000000000000000000000000000600082015250565b7f426c696e64626f782053616c65206973206e6f74207374617274656400000000600082015250565b7f4552433732313a206d696e7420746f20746865207a65726f2061646472657373600082015250565b7f45524337323155524953746f726167653a2055524920717565727920666f722060008201527f6e6f6e6578697374656e7420746f6b656e000000000000000000000000000000602082015250565b7f4552433732313a20617070726f76656420717565727920666f72206e6f6e657860008201527f697374656e7420746f6b656e0000000000000000000000000000000000000000602082015250565b7f2e6a736f6e000000000000000000000000000000000000000000000000000000600082015250565b7f4f776e61626c653a2063616c6c6572206973206e6f7420746865206f776e6572600082015250565b7f4552433732313a207472616e73666572206f6620746f6b656e2074686174206960008201527f73206e6f74206f776e0000000000000000000000000000000000000000000000602082015250565b7f4552433732314d657461646174613a2055524920717565727920666f72206e6f60008201527f6e6578697374656e7420746f6b656e0000000000000000000000000000000000602082015250565b7f4552433732313a20617070726f76616c20746f2063757272656e74206f776e6560008201527f7200000000000000000000000000000000000000000000000000000000000000602082015250565b7f4552433732313a207472616e736665722063616c6c6572206973206e6f74206f60008201527f776e6572206e6f7220617070726f766564000000000000000000000000000000602082015250565b7f2f00000000000000000000000000000000000000000000000000000000000000600082015250565b61443f81613b4f565b811461444a57600080fd5b50565b61445681613b61565b811461446157600080fd5b50565b61446d81613b6d565b811461447857600080fd5b50565b61448481613bb9565b811461448f57600080fd5b5056fea2646970667358221220377d4eb933a65e87a349579775319a232c7a89be2628b28548c4db8e1a41dbea64736f6c63430008040033",
  "immutableReferences": {},
  "source": "// SPDX-License-Identifier: MIT\r\npragma solidity ^0.8.4;\r\n\r\nimport \"@openzeppelin/contracts/access/Ownable.sol\";\r\nimport \"@openzeppelin/contracts/utils/Counters.sol\";\r\nimport \"@openzeppelin/contracts/token/ERC721/ERC721.sol\";\r\nimport \"@openzeppelin/contracts/token/ERC721/extensions/ERC721URIStorage.sol\";\r\nimport \"@openzeppelin/contracts/utils/Strings.sol\";\r\nimport \"./interfaces/IMilkToken.sol\";\r\n\r\ncontract HappyCows is Ownable, ERC721URIStorage {\r\n    using Counters for Counters.Counter;\r\n    Counters.Counter private _tokenIds;\r\n\r\n    address private ownerAddr;\r\n    address public marketAddress;\r\n    uint256 public blockNumber;\r\n    uint256 public price;\r\n    string public baseURI;\r\n    string public cID;\r\n\r\n    IMilkToken tokenMilk;\r\n\r\n    event BuyBlindBox(\r\n        uint256 indexed itemId,\r\n        string metaHash\r\n    );\r\n\r\n    constructor(\r\n        uint256 _blockNumber,\r\n        IMilkToken _tokenMilk,\r\n        string memory _baseURI,\r\n        string memory _cID,\r\n        address _marketAddress,\r\n        address _ownerAddr\r\n    ) ERC721(\"HappyCows\", \"HCC\") {\r\n        blockNumber = _blockNumber;\r\n        tokenMilk = _tokenMilk;\r\n        baseURI = _baseURI;\r\n        price = 100;\r\n        cID = _cID;\r\n        marketAddress = _marketAddress;\r\n        ownerAddr = _ownerAddr;\r\n    }\r\n\r\n    function buyBlindBox() public {\r\n        require(msg.sender != address(0), \"Mint Address can't be zero address\");\r\n        require(block.number >= blockNumber, \"Blindbox Sale is not started\");\r\n        require(_tokenIds.current() <= 1000, \"All NFTs are sold\");\r\n        require(\r\n            tokenMilk.balanceOf(msg.sender) >= price * 10**18,\r\n            \"Balance of Milk token is not enought to buy BlindBox\"\r\n        );\r\n\r\n        tokenMilk.transferFrom(msg.sender, ownerAddr, price * 10**18);\r\n\r\n        _tokenIds.increment();\r\n        uint256 newItemId = _tokenIds.current();\r\n        string memory s = string(abi.encodePacked(baseURI, cID, '/', Strings.toString(newItemId), '.json'));\r\n\r\n        _mint(msg.sender, newItemId);\r\n        _setTokenURI(newItemId, s);\r\n\r\n        if (!isApprovedForAll(msg.sender, marketAddress)) {\r\n            setApprovalForAll(marketAddress, true);\r\n        }\r\n        \r\n        emit BuyBlindBox(newItemId, s);\r\n    }\r\n\r\n    function setOwnerAddr(address _ownerAddr) public onlyOwner {\r\n        require(\r\n            _ownerAddr != address(0),\r\n            \"Owner Address can't be zero address\"\r\n        );\r\n        ownerAddr = _ownerAddr;\r\n    }\r\n\r\n    function getOwnerAddr() public view onlyOwner returns (address) {\r\n        return ownerAddr;\r\n    }\r\n\r\n    function setPrice(uint256 _price) public onlyOwner {\r\n        price = _price;\r\n    }\r\n\r\n    function setBlockNumber(uint256 _blockNumber) public onlyOwner {\r\n        blockNumber = _blockNumber;\r\n    }\r\n\r\n    function setBaseURI(string memory _baseURI) public onlyOwner {\r\n        baseURI = _baseURI;\r\n    }\r\n\r\n    function setCID(string memory _cID) public onlyOwner {\r\n        cID = _cID;\r\n    }\r\n\r\n    function transfer(\r\n        address _from,\r\n        address _to,\r\n        uint256 _tokenId\r\n    ) external onlyOwner {\r\n        transferFrom(_from, _to, _tokenId);\r\n    }\r\n\r\n    function getBlockNumber() external view returns (uint256) {\r\n        return block.number;\r\n    }\r\n\r\n    function totalSupply() external view returns (uint256) {\r\n        return (_tokenIds.current());\r\n    }\r\n\r\n    function getTokenFullURI(uint256 tokenId)\r\n        external\r\n        view\r\n        returns (string memory)\r\n    {\r\n        string memory _tokenURI = tokenURI(tokenId);\r\n\r\n        return _tokenURI;\r\n    }\r\n\r\n    function getBaseURI() external view returns (string memory) {\r\n        string memory _baseURI = baseURI;\r\n        return _baseURI;\r\n    }\r\n\r\n    function fetchMyNfts() external view returns (uint256[] memory) {\r\n        uint256 tokenCount = 0;\r\n        uint256 _totalSupply = _tokenIds.current();\r\n        for (uint256 i = 0; i < _totalSupply; i++) {\r\n            if (ownerOf(i + 1) == msg.sender) {\r\n                tokenCount++;\r\n            }\r\n        }\r\n\r\n        uint256[] memory tokenIds = new uint256[](tokenCount);\r\n        uint256 currentIndex = 0;\r\n        for (uint256 i = 0; i < _totalSupply; i++) {\r\n            if (ownerOf(i + 1) == msg.sender) {\r\n                tokenIds[currentIndex] = i + 1;\r\n                currentIndex++;\r\n            }\r\n        }\r\n\r\n        return tokenIds;\r\n    }\r\n}\r\n",
  "sourcePath": "C:\\_work\\nft-contracts\\contracts\\HappyCows.sol",
  "compiler": {
    "name": "solc",
    "version": "0.8.4+commit.c7e474f2.Emscripten.clang"
  },
  "schemaVersion": "3.4.4",
  "updatedAt": "2021-12-21T16:00:56.077Z",
  "networkType": "ethereum",
  "devdoc": {
    "kind": "dev",
    "methods": {
      "approve(address,uint256)": {
        "details": "See {IERC721-approve}."
      },
      "balanceOf(address)": {
        "details": "See {IERC721-balanceOf}."
      },
      "getApproved(uint256)": {
        "details": "See {IERC721-getApproved}."
      },
      "isApprovedForAll(address,address)": {
        "details": "See {IERC721-isApprovedForAll}."
      },
      "name()": {
        "details": "See {IERC721Metadata-name}."
      },
      "owner()": {
        "details": "Returns the address of the current owner."
      },
      "ownerOf(uint256)": {
        "details": "See {IERC721-ownerOf}."
      },
      "renounceOwnership()": {
        "details": "Leaves the contract without owner. It will not be possible to call `onlyOwner` functions anymore. Can only be called by the current owner. NOTE: Renouncing ownership will leave the contract without an owner, thereby removing any functionality that is only available to the owner."
      },
      "safeTransferFrom(address,address,uint256)": {
        "details": "See {IERC721-safeTransferFrom}."
      },
      "safeTransferFrom(address,address,uint256,bytes)": {
        "details": "See {IERC721-safeTransferFrom}."
      },
      "setApprovalForAll(address,bool)": {
        "details": "See {IERC721-setApprovalForAll}."
      },
      "supportsInterface(bytes4)": {
        "details": "See {IERC165-supportsInterface}."
      },
      "symbol()": {
        "details": "See {IERC721Metadata-symbol}."
      },
      "tokenURI(uint256)": {
        "details": "See {IERC721Metadata-tokenURI}."
      },
      "transferFrom(address,address,uint256)": {
        "details": "See {IERC721-transferFrom}."
      },
      "transferOwnership(address)": {
        "details": "Transfers ownership of the contract to a new account (`newOwner`). Can only be called by the current owner."
      }
    },
    "version": 1
  },
  "userdoc": {
    "kind": "user",
    "methods": {},
    "version": 1
  }
}