{
  "contractName": "LandNFT",
  "abi": [
    {
      "inputs": [],
      "stateMutability": "nonpayable",
      "type": "constructor"
    },
    {
      "anonymous": false,
      "inputs": [
        {
          "indexed": true,
          "internalType": "address",
          "name": "owner",
          "type": "address"
        },
        {
          "indexed": true,
          "internalType": "address",
          "name": "approved",
          "type": "address"
        },
        {
          "indexed": true,
          "internalType": "uint256",
          "name": "tokenId",
          "type": "uint256"
        }
      ],
      "name": "Approval",
      "type": "event"
    },
    {
      "anonymous": false,
      "inputs": [
        {
          "indexed": true,
          "internalType": "address",
          "name": "owner",
          "type": "address"
        },
        {
          "indexed": true,
          "internalType": "address",
          "name": "operator",
          "type": "address"
        },
        {
          "indexed": false,
          "internalType": "bool",
          "name": "approved",
          "type": "bool"
        }
      ],
      "name": "ApprovalForAll",
      "type": "event"
    },
    {
      "anonymous": false,
      "inputs": [
        {
          "indexed": true,
          "internalType": "address",
          "name": "newMintable",
          "type": "address"
        }
      ],
      "name": "MintableSet",
      "type": "event"
    },
    {
      "anonymous": false,
      "inputs": [
        {
          "indexed": true,
          "internalType": "address",
          "name": "previousOwner",
          "type": "address"
        },
        {
          "indexed": true,
          "internalType": "address",
          "name": "newOwner",
          "type": "address"
        }
      ],
      "name": "OwnershipTransferred",
      "type": "event"
    },
    {
      "anonymous": false,
      "inputs": [
        {
          "indexed": true,
          "internalType": "address",
          "name": "from",
          "type": "address"
        },
        {
          "indexed": true,
          "internalType": "address",
          "name": "to",
          "type": "address"
        },
        {
          "indexed": true,
          "internalType": "uint256",
          "name": "tokenId",
          "type": "uint256"
        }
      ],
      "name": "Transfer",
      "type": "event"
    },
    {
      "inputs": [
        {
          "internalType": "address",
          "name": "to",
          "type": "address"
        },
        {
          "internalType": "uint256",
          "name": "tokenId",
          "type": "uint256"
        }
      ],
      "name": "approve",
      "outputs": [],
      "stateMutability": "nonpayable",
      "type": "function"
    },
    {
      "inputs": [
        {
          "internalType": "address",
          "name": "owner",
          "type": "address"
        }
      ],
      "name": "balanceOf",
      "outputs": [
        {
          "internalType": "uint256",
          "name": "",
          "type": "uint256"
        }
      ],
      "stateMutability": "view",
      "type": "function"
    },
    {
      "inputs": [
        {
          "internalType": "uint256",
          "name": "tokenId",
          "type": "uint256"
        }
      ],
      "name": "getApproved",
      "outputs": [
        {
          "internalType": "address",
          "name": "",
          "type": "address"
        }
      ],
      "stateMutability": "view",
      "type": "function"
    },
    {
      "inputs": [
        {
          "internalType": "address",
          "name": "owner",
          "type": "address"
        },
        {
          "internalType": "address",
          "name": "operator",
          "type": "address"
        }
      ],
      "name": "isApprovedForAll",
      "outputs": [
        {
          "internalType": "bool",
          "name": "",
          "type": "bool"
        }
      ],
      "stateMutability": "view",
      "type": "function"
    },
    {
      "inputs": [
        {
          "internalType": "address",
          "name": "addr",
          "type": "address"
        }
      ],
      "name": "isMintable",
      "outputs": [
        {
          "internalType": "bool",
          "name": "",
          "type": "bool"
        }
      ],
      "stateMutability": "view",
      "type": "function"
    },
    {
      "inputs": [
        {
          "internalType": "address",
          "name": "",
          "type": "address"
        }
      ],
      "name": "mintable",
      "outputs": [
        {
          "internalType": "bool",
          "name": "",
          "type": "bool"
        }
      ],
      "stateMutability": "view",
      "type": "function"
    },
    {
      "inputs": [],
      "name": "name",
      "outputs": [
        {
          "internalType": "string",
          "name": "",
          "type": "string"
        }
      ],
      "stateMutability": "view",
      "type": "function"
    },
    {
      "inputs": [],
      "name": "owner",
      "outputs": [
        {
          "internalType": "address",
          "name": "",
          "type": "address"
        }
      ],
      "stateMutability": "view",
      "type": "function"
    },
    {
      "inputs": [
        {
          "internalType": "uint256",
          "name": "tokenId",
          "type": "uint256"
        }
      ],
      "name": "ownerOf",
      "outputs": [
        {
          "internalType": "address",
          "name": "",
          "type": "address"
        }
      ],
      "stateMutability": "view",
      "type": "function"
    },
    {
      "inputs": [],
      "name": "renounceOwnership",
      "outputs": [],
      "stateMutability": "nonpayable",
      "type": "function"
    },
    {
      "inputs": [
        {
          "internalType": "address",
          "name": "from",
          "type": "address"
        },
        {
          "internalType": "address",
          "name": "to",
          "type": "address"
        },
        {
          "internalType": "uint256",
          "name": "tokenId",
          "type": "uint256"
        }
      ],
      "name": "safeTransferFrom",
      "outputs": [],
      "stateMutability": "nonpayable",
      "type": "function"
    },
    {
      "inputs": [
        {
          "internalType": "address",
          "name": "from",
          "type": "address"
        },
        {
          "internalType": "address",
          "name": "to",
          "type": "address"
        },
        {
          "internalType": "uint256",
          "name": "tokenId",
          "type": "uint256"
        },
        {
          "internalType": "bytes",
          "name": "_data",
          "type": "bytes"
        }
      ],
      "name": "safeTransferFrom",
      "outputs": [],
      "stateMutability": "nonpayable",
      "type": "function"
    },
    {
      "inputs": [
        {
          "internalType": "address",
          "name": "operator",
          "type": "address"
        },
        {
          "internalType": "bool",
          "name": "approved",
          "type": "bool"
        }
      ],
      "name": "setApprovalForAll",
      "outputs": [],
      "stateMutability": "nonpayable",
      "type": "function"
    },
    {
      "inputs": [
        {
          "internalType": "bytes4",
          "name": "interfaceId",
          "type": "bytes4"
        }
      ],
      "name": "supportsInterface",
      "outputs": [
        {
          "internalType": "bool",
          "name": "",
          "type": "bool"
        }
      ],
      "stateMutability": "view",
      "type": "function"
    },
    {
      "inputs": [],
      "name": "symbol",
      "outputs": [
        {
          "internalType": "string",
          "name": "",
          "type": "string"
        }
      ],
      "stateMutability": "view",
      "type": "function"
    },
    {
      "inputs": [
        {
          "internalType": "address",
          "name": "from",
          "type": "address"
        },
        {
          "internalType": "address",
          "name": "to",
          "type": "address"
        },
        {
          "internalType": "uint256",
          "name": "tokenId",
          "type": "uint256"
        }
      ],
      "name": "transferFrom",
      "outputs": [],
      "stateMutability": "nonpayable",
      "type": "function"
    },
    {
      "inputs": [
        {
          "internalType": "address",
          "name": "newOwner",
          "type": "address"
        }
      ],
      "name": "transferOwnership",
      "outputs": [],
      "stateMutability": "nonpayable",
      "type": "function"
    },
    {
      "inputs": [
        {
          "internalType": "uint8",
          "name": "_rarity",
          "type": "uint8"
        },
        {
          "internalType": "uint8",
          "name": "_kind",
          "type": "uint8"
        },
        {
          "internalType": "address",
          "name": "_owner",
          "type": "address"
        }
      ],
      "name": "mint",
      "outputs": [],
      "stateMutability": "nonpayable",
      "type": "function"
    },
    {
      "inputs": [
        {
          "internalType": "uint256",
          "name": "_tokenId",
          "type": "uint256"
        }
      ],
      "name": "attrOf",
      "outputs": [
        {
          "components": [
            {
              "internalType": "uint8",
              "name": "rarity",
              "type": "uint8"
            },
            {
              "internalType": "uint8",
              "name": "landType",
              "type": "uint8"
            }
          ],
          "internalType": "struct ILandNFT.LandAttr",
          "name": "",
          "type": "tuple"
        }
      ],
      "stateMutability": "view",
      "type": "function"
    },
    {
      "inputs": [
        {
          "internalType": "address",
          "name": "_owner",
          "type": "address"
        }
      ],
      "name": "tokenIdsOf",
      "outputs": [
        {
          "internalType": "uint256[]",
          "name": "",
          "type": "uint256[]"
        }
      ],
      "stateMutability": "view",
      "type": "function"
    },
    {
      "inputs": [
        {
          "internalType": "string",
          "name": "_baseUri",
          "type": "string"
        }
      ],
      "name": "setBaseTokenURI",
      "outputs": [],
      "stateMutability": "nonpayable",
      "type": "function"
    },
    {
      "inputs": [
        {
          "internalType": "uint256",
          "name": "_tokenId",
          "type": "uint256"
        }
      ],
      "name": "tokenURI",
      "outputs": [
        {
          "internalType": "string",
          "name": "",
          "type": "string"
        }
      ],
      "stateMutability": "view",
      "type": "function"
    },
    {
      "inputs": [
        {
          "internalType": "address",
          "name": "_addr",
          "type": "address"
        }
      ],
      "name": "setMintable",
      "outputs": [],
      "stateMutability": "nonpayable",
      "type": "function"
    }
  ],
  "bytecode": "0x60806040523480156200001157600080fd5b506040518060400160405280601081526020017f43617368436f77204c616e64204e4654000000000000000000000000000000008152506040518060400160405280600381526020017f434c4e0000000000000000000000000000000000000000000000000000000000815250816000908051906020019062000096929190620001a6565b508060019080519060200190620000af929190620001a6565b505050620000d2620000c6620000d860201b60201c565b620000e060201b60201c565b620002bb565b600033905090565b6000600660009054906101000a900473ffffffffffffffffffffffffffffffffffffffff16905081600660006101000a81548173ffffffffffffffffffffffffffffffffffffffff021916908373ffffffffffffffffffffffffffffffffffffffff1602179055508173ffffffffffffffffffffffffffffffffffffffff168173ffffffffffffffffffffffffffffffffffffffff167f8be0079c531659141344cd1fd0a4f28419497f9722a3daafe3b4186f6b6457e060405160405180910390a35050565b828054620001b49062000285565b90600052602060002090601f016020900481019282620001d8576000855562000224565b82601f10620001f357805160ff191683800117855562000224565b8280016001018555821562000224579182015b828111156200022357825182559160200191906001019062000206565b5b50905062000233919062000237565b5090565b5b808211156200025257600081600090555060010162000238565b5090565b7f4e487b7100000000000000000000000000000000000000000000000000000000600052602260045260246000fd5b600060028204905060018216806200029e57607f821691505b60208210811415620002b557620002b462000256565b5b50919050565b61394780620002cb6000396000f3fe608060405234801561001057600080fd5b506004361061014d5760003560e01c806370a08231116100c3578063a3b261f21161007c578063a3b261f2146103ae578063b88d4fde146103de578063c87b56dd146103fa578063d20e48741461042a578063e985e9c514610446578063f2fde38b146104765761014d565b806370a0823114610300578063715018a6146103305780638da5cb5b1461033a5780638ea859791461035857806395d89b4114610374578063a22cb465146103925761014d565b806323b872dd1161011557806323b872dd1461021c57806330176e131461023857806342842e0e1461025457806359441eae146102705780636352211e146102a057806368ba0bcf146102d05761014d565b806301ffc9a71461015257806306fdde0314610182578063081812fc146101a0578063095ea7b3146101d0578063222b15fb146101ec575b600080fd5b61016c60048036038101906101679190612229565b610492565b6040516101799190612271565b60405180910390f35b61018a610574565b6040516101979190612325565b60405180910390f35b6101ba60048036038101906101b5919061237d565b610606565b6040516101c791906123eb565b60405180910390f35b6101ea60048036038101906101e59190612432565b61068b565b005b61020660048036038101906102019190612472565b6107a3565b6040516102139190612271565b60405180910390f35b6102366004803603810190610231919061249f565b6107f9565b005b610252600480360381019061024d9190612627565b610859565b005b61026e6004803603810190610269919061249f565b610873565b005b61028a60048036038101906102859190612472565b610893565b6040516102979190612271565b60405180910390f35b6102ba60048036038101906102b5919061237d565b6108b3565b6040516102c791906123eb565b60405180910390f35b6102ea60048036038101906102e5919061237d565b610965565b6040516102f791906126bb565b60405180910390f35b61031a60048036038101906103159190612472565b6109cc565b60405161032791906126e5565b60405180910390f35b610338610a84565b005b610342610b0c565b60405161034f91906123eb565b60405180910390f35b610372600480360381019061036d9190612472565b610b36565b005b61037c610c7d565b6040516103899190612325565b60405180910390f35b6103ac60048036038101906103a7919061272c565b610d0f565b005b6103c860048036038101906103c39190612472565b610d25565b6040516103d5919061282a565b60405180910390f35b6103f860048036038101906103f391906128ed565b610e37565b005b610414600480360381019061040f919061237d565b610e99565b6040516104219190612325565b60405180910390f35b610444600480360381019061043f919061299c565b610f9f565b005b610460600480360381019061045b91906129ef565b61113d565b60405161046d9190612271565b60405180910390f35b610490600480360381019061048b9190612472565b6111d1565b005b60007f80ac58cd000000000000000000000000000000000000000000000000000000007bffffffffffffffffffffffffffffffffffffffffffffffffffffffff1916827bffffffffffffffffffffffffffffffffffffffffffffffffffffffff1916148061055d57507f5b5e139f000000000000000000000000000000000000000000000000000000007bffffffffffffffffffffffffffffffffffffffffffffffffffffffff1916827bffffffffffffffffffffffffffffffffffffffffffffffffffffffff1916145b8061056d575061056c826112c9565b5b9050919050565b60606000805461058390612a5e565b80601f01602080910402602001604051908101604052809291908181526020018280546105af90612a5e565b80156105fc5780601f106105d1576101008083540402835291602001916105fc565b820191906000526020600020905b8154815290600101906020018083116105df57829003601f168201915b5050505050905090565b600061061182611333565b610650576040517f08c379a000000000000000000000000000000000000000000000000000000000815260040161064790612b02565b60405180910390fd5b6004600083815260200190815260200160002060009054906101000a900473ffffffffffffffffffffffffffffffffffffffff169050919050565b6000610696826108b3565b90508073ffffffffffffffffffffffffffffffffffffffff168373ffffffffffffffffffffffffffffffffffffffff161415610707576040517f08c379a00000000000000000000000000000000000000000000000000000000081526004016106fe90612b94565b60405180910390fd5b8073ffffffffffffffffffffffffffffffffffffffff1661072661139f565b73ffffffffffffffffffffffffffffffffffffffff16148061075557506107548161074f61139f565b61113d565b5b610794576040517f08c379a000000000000000000000000000000000000000000000000000000000815260040161078b90612c26565b60405180910390fd5b61079e83836113a7565b505050565b6000600760008373ffffffffffffffffffffffffffffffffffffffff1673ffffffffffffffffffffffffffffffffffffffff16815260200190815260200160002060009054906101000a900460ff169050919050565b61080a61080461139f565b82611460565b610849576040517f08c379a000000000000000000000000000000000000000000000000000000000815260040161084090612cb8565b60405180910390fd5b61085483838361153e565b505050565b80600a908051906020019061086f9291906120fa565b5050565b61088e83838360405180602001604052806000815250610e37565b505050565b60076020528060005260406000206000915054906101000a900460ff1681565b6000806002600084815260200190815260200160002060009054906101000a900473ffffffffffffffffffffffffffffffffffffffff169050600073ffffffffffffffffffffffffffffffffffffffff168173ffffffffffffffffffffffffffffffffffffffff16141561095c576040517f08c379a000000000000000000000000000000000000000000000000000000000815260040161095390612d4a565b60405180910390fd5b80915050919050565b61096d612180565b600960008381526020019081526020016000206040518060400160405290816000820160009054906101000a900460ff1660ff1660ff1681526020016000820160019054906101000a900460ff1660ff1660ff16815250509050919050565b60008073ffffffffffffffffffffffffffffffffffffffff168273ffffffffffffffffffffffffffffffffffffffff161415610a3d576040517f08c379a0000000000000000000000000000000000000000000000000000000008152600401610a3490612ddc565b60405180910390fd5b600360008373ffffffffffffffffffffffffffffffffffffffff1673ffffffffffffffffffffffffffffffffffffffff168152602001908152602001600020549050919050565b610a8c61139f565b73ffffffffffffffffffffffffffffffffffffffff16610aaa610b0c565b73ffffffffffffffffffffffffffffffffffffffff1614610b00576040517f08c379a0000000000000000000000000000000000000000000000000000000008152600401610af790612e48565b60405180910390fd5b610b0a60006117a5565b565b6000600660009054906101000a900473ffffffffffffffffffffffffffffffffffffffff16905090565b610b3e61139f565b73ffffffffffffffffffffffffffffffffffffffff16610b5c610b0c565b73ffffffffffffffffffffffffffffffffffffffff1614610bb2576040517f08c379a0000000000000000000000000000000000000000000000000000000008152600401610ba990612e48565b60405180910390fd5b600073ffffffffffffffffffffffffffffffffffffffff168173ffffffffffffffffffffffffffffffffffffffff161415610c22576040517f08c379a0000000000000000000000000000000000000000000000000000000008152600401610c1990612eda565b60405180910390fd5b6001600760008373ffffffffffffffffffffffffffffffffffffffff1673ffffffffffffffffffffffffffffffffffffffff16815260200190815260200160002060006101000a81548160ff02191690831515021790555050565b606060018054610c8c90612a5e565b80601f0160208091040260200160405190810160405280929190818152602001828054610cb890612a5e565b8015610d055780601f10610cda57610100808354040283529160200191610d05565b820191906000526020600020905b815481529060010190602001808311610ce857829003601f168201915b5050505050905090565b610d21610d1a61139f565b838361186b565b5050565b60606000610d32836109cc565b905060008167ffffffffffffffff811115610d5057610d4f6124fc565b5b604051908082528060200260200182016040528015610d7e5781602001602082028036833780820191505090505b5090506000821415610d94578092505050610e32565b600080600190505b610da660086119d8565b8111610e2a578573ffffffffffffffffffffffffffffffffffffffff16610dcc826108b3565b73ffffffffffffffffffffffffffffffffffffffff161415610e175780838381518110610dfc57610dfb612efa565b5b6020026020010181815250508180610e1390612f58565b9250505b8080610e2290612f58565b915050610d9c565b508193505050505b919050565b610e48610e4261139f565b83611460565b610e87576040517f08c379a0000000000000000000000000000000000000000000000000000000008152600401610e7e90612cb8565b60405180910390fd5b610e93848484846119e6565b50505050565b6060610ea482611333565b610ee3576040517f08c379a0000000000000000000000000000000000000000000000000000000008152600401610eda90613013565b60405180910390fd5b6000610eee83610965565b90506000610f02826020015160ff16611a42565b610f12836000015160ff16611a42565b604051602001610f23929190613107565b60405160208183030381529060405290506000610f3e611ba3565b9050600081511415610f5557819350505050610f9a565b600082511115610f8b578082604051602001610f72929190613141565b6040516020818303038152906040529350505050610f9a565b610f9485611c35565b93505050505b919050565b60011515600760003373ffffffffffffffffffffffffffffffffffffffff1673ffffffffffffffffffffffffffffffffffffffff16815260200190815260200160002060009054906101000a900460ff16151514611032576040517f08c379a0000000000000000000000000000000000000000000000000000000008152600401611029906131b1565b60405180910390fd5b600073ffffffffffffffffffffffffffffffffffffffff168173ffffffffffffffffffffffffffffffffffffffff1614156110a2576040517f08c379a000000000000000000000000000000000000000000000000000000000815260040161109990613243565b60405180910390fd5b6110ac6008611cdc565b60006110b860086119d8565b905060405180604001604052808560ff1681526020018460ff168152506009600083815260200190815260200160002060008201518160000160006101000a81548160ff021916908360ff16021790555060208201518160000160016101000a81548160ff021916908360ff1602179055509050506111378282611cf2565b50505050565b6000600560008473ffffffffffffffffffffffffffffffffffffffff1673ffffffffffffffffffffffffffffffffffffffff16815260200190815260200160002060008373ffffffffffffffffffffffffffffffffffffffff1673ffffffffffffffffffffffffffffffffffffffff16815260200190815260200160002060009054906101000a900460ff16905092915050565b6111d961139f565b73ffffffffffffffffffffffffffffffffffffffff166111f7610b0c565b73ffffffffffffffffffffffffffffffffffffffff161461124d576040517f08c379a000000000000000000000000000000000000000000000000000000000815260040161124490612e48565b60405180910390fd5b600073ffffffffffffffffffffffffffffffffffffffff168173ffffffffffffffffffffffffffffffffffffffff1614156112bd576040517f08c379a00000000000000000000000000000000000000000000000000000000081526004016112b4906132d5565b60405180910390fd5b6112c6816117a5565b50565b60007f01ffc9a7000000000000000000000000000000000000000000000000000000007bffffffffffffffffffffffffffffffffffffffffffffffffffffffff1916827bffffffffffffffffffffffffffffffffffffffffffffffffffffffff1916149050919050565b60008073ffffffffffffffffffffffffffffffffffffffff166002600084815260200190815260200160002060009054906101000a900473ffffffffffffffffffffffffffffffffffffffff1673ffffffffffffffffffffffffffffffffffffffff1614159050919050565b600033905090565b816004600083815260200190815260200160002060006101000a81548173ffffffffffffffffffffffffffffffffffffffff021916908373ffffffffffffffffffffffffffffffffffffffff160217905550808273ffffffffffffffffffffffffffffffffffffffff1661141a836108b3565b73ffffffffffffffffffffffffffffffffffffffff167f8c5be1e5ebec7d5bd14f71427d1e84f3dd0314c0f7b2291e5b200ac8c7c3b92560405160405180910390a45050565b600061146b82611333565b6114aa576040517f08c379a00000000000000000000000000000000000000000000000000000000081526004016114a190613367565b60405180910390fd5b60006114b5836108b3565b90508073ffffffffffffffffffffffffffffffffffffffff168473ffffffffffffffffffffffffffffffffffffffff16148061152457508373ffffffffffffffffffffffffffffffffffffffff1661150c84610606565b73ffffffffffffffffffffffffffffffffffffffff16145b806115355750611534818561113d565b5b91505092915050565b8273ffffffffffffffffffffffffffffffffffffffff1661155e826108b3565b73ffffffffffffffffffffffffffffffffffffffff16146115b4576040517f08c379a00000000000000000000000000000000000000000000000000000000081526004016115ab906133f9565b60405180910390fd5b600073ffffffffffffffffffffffffffffffffffffffff168273ffffffffffffffffffffffffffffffffffffffff161415611624576040517f08c379a000000000000000000000000000000000000000000000000000000000815260040161161b9061348b565b60405180910390fd5b61162f838383611d10565b61163a6000826113a7565b6001600360008573ffffffffffffffffffffffffffffffffffffffff1673ffffffffffffffffffffffffffffffffffffffff168152602001908152602001600020600082825461168a91906134ab565b925050819055506001600360008473ffffffffffffffffffffffffffffffffffffffff1673ffffffffffffffffffffffffffffffffffffffff16815260200190815260200160002060008282546116e191906134df565b92505081905550816002600083815260200190815260200160002060006101000a81548173ffffffffffffffffffffffffffffffffffffffff021916908373ffffffffffffffffffffffffffffffffffffffff160217905550808273ffffffffffffffffffffffffffffffffffffffff168473ffffffffffffffffffffffffffffffffffffffff167fddf252ad1be2c89b69c2b068fc378daa952ba7f163c4a11628f55a4df523b3ef60405160405180910390a46117a0838383611d15565b505050565b6000600660009054906101000a900473ffffffffffffffffffffffffffffffffffffffff16905081600660006101000a81548173ffffffffffffffffffffffffffffffffffffffff021916908373ffffffffffffffffffffffffffffffffffffffff1602179055508173ffffffffffffffffffffffffffffffffffffffff168173ffffffffffffffffffffffffffffffffffffffff167f8be0079c531659141344cd1fd0a4f28419497f9722a3daafe3b4186f6b6457e060405160405180910390a35050565b8173ffffffffffffffffffffffffffffffffffffffff168373ffffffffffffffffffffffffffffffffffffffff1614156118da576040517f08c379a00000000000000000000000000000000000000000000000000000000081526004016118d190613581565b60405180910390fd5b80600560008573ffffffffffffffffffffffffffffffffffffffff1673ffffffffffffffffffffffffffffffffffffffff16815260200190815260200160002060008473ffffffffffffffffffffffffffffffffffffffff1673ffffffffffffffffffffffffffffffffffffffff16815260200190815260200160002060006101000a81548160ff0219169083151502179055508173ffffffffffffffffffffffffffffffffffffffff168373ffffffffffffffffffffffffffffffffffffffff167f17307eab39ab6107e8899845ad3d59bd9653f200f220920489ca2b5937696c31836040516119cb9190612271565b60405180910390a3505050565b600081600001549050919050565b6119f184848461153e565b6119fd84848484611d1a565b611a3c576040517f08c379a0000000000000000000000000000000000000000000000000000000008152600401611a3390613613565b60405180910390fd5b50505050565b60606000821415611a8a576040518060400160405280600181526020017f30000000000000000000000000000000000000000000000000000000000000008152509050611b9e565b600082905060005b60008214611abc578080611aa590612f58565b915050600a82611ab59190613662565b9150611a92565b60008167ffffffffffffffff811115611ad857611ad76124fc565b5b6040519080825280601f01601f191660200182016040528015611b0a5781602001600182028036833780820191505090505b5090505b60008514611b9757600182611b2391906134ab565b9150600a85611b329190613693565b6030611b3e91906134df565b60f81b818381518110611b5457611b53612efa565b5b60200101907effffffffffffffffffffffffffffffffffffffffffffffffffffffffffffff1916908160001a905350600a85611b909190613662565b9450611b0e565b8093505050505b919050565b6060600a8054611bb290612a5e565b80601f0160208091040260200160405190810160405280929190818152602001828054611bde90612a5e565b8015611c2b5780601f10611c0057610100808354040283529160200191611c2b565b820191906000526020600020905b815481529060010190602001808311611c0e57829003601f168201915b5050505050905090565b6060611c4082611333565b611c7f576040517f08c379a0000000000000000000000000000000000000000000000000000000008152600401611c7690613736565b60405180910390fd5b6000611c89611ba3565b90506000815111611ca95760405180602001604052806000815250611cd4565b80611cb384611a42565b604051602001611cc4929190613141565b6040516020818303038152906040525b915050919050565b6001816000016000828254019250508190555050565b611d0c828260405180602001604052806000815250611ea2565b5050565b505050565b505050565b6000611d3b8473ffffffffffffffffffffffffffffffffffffffff16611efd565b15611e95578373ffffffffffffffffffffffffffffffffffffffff1663150b7a02611d6461139f565b8786866040518563ffffffff1660e01b8152600401611d8694939291906137ab565b6020604051808303816000875af1925050508015611dc257506040513d601f19601f82011682018060405250810190611dbf919061380c565b60015b611e45573d8060008114611df2576040519150601f19603f3d011682016040523d82523d6000602084013e611df7565b606091505b50600081511415611e3d576040517f08c379a0000000000000000000000000000000000000000000000000000000008152600401611e3490613613565b60405180910390fd5b805181602001fd5b63150b7a0260e01b7bffffffffffffffffffffffffffffffffffffffffffffffffffffffff1916817bffffffffffffffffffffffffffffffffffffffffffffffffffffffff191614915050611e9a565b600190505b949350505050565b611eac8383611f20565b611eb96000848484611d1a565b611ef8576040517f08c379a0000000000000000000000000000000000000000000000000000000008152600401611eef90613613565b60405180910390fd5b505050565b6000808273ffffffffffffffffffffffffffffffffffffffff163b119050919050565b600073ffffffffffffffffffffffffffffffffffffffff168273ffffffffffffffffffffffffffffffffffffffff161415611f90576040517f08c379a0000000000000000000000000000000000000000000000000000000008152600401611f8790613885565b60405180910390fd5b611f9981611333565b15611fd9576040517f08c379a0000000000000000000000000000000000000000000000000000000008152600401611fd0906138f1565b60405180910390fd5b611fe560008383611d10565b6001600360008473ffffffffffffffffffffffffffffffffffffffff1673ffffffffffffffffffffffffffffffffffffffff168152602001908152602001600020600082825461203591906134df565b92505081905550816002600083815260200190815260200160002060006101000a81548173ffffffffffffffffffffffffffffffffffffffff021916908373ffffffffffffffffffffffffffffffffffffffff160217905550808273ffffffffffffffffffffffffffffffffffffffff16600073ffffffffffffffffffffffffffffffffffffffff167fddf252ad1be2c89b69c2b068fc378daa952ba7f163c4a11628f55a4df523b3ef60405160405180910390a46120f660008383611d15565b5050565b82805461210690612a5e565b90600052602060002090601f016020900481019282612128576000855561216f565b82601f1061214157805160ff191683800117855561216f565b8280016001018555821561216f579182015b8281111561216e578251825591602001919060010190612153565b5b50905061217c91906121a0565b5090565b6040518060400160405280600060ff168152602001600060ff1681525090565b5b808211156121b95760008160009055506001016121a1565b5090565b6000604051905090565b600080fd5b600080fd5b60007fffffffff0000000000000000000000000000000000000000000000000000000082169050919050565b612206816121d1565b811461221157600080fd5b50565b600081359050612223816121fd565b92915050565b60006020828403121561223f5761223e6121c7565b5b600061224d84828501612214565b91505092915050565b60008115159050919050565b61226b81612256565b82525050565b60006020820190506122866000830184612262565b92915050565b600081519050919050565b600082825260208201905092915050565b60005b838110156122c65780820151818401526020810190506122ab565b838111156122d5576000848401525b50505050565b6000601f19601f8301169050919050565b60006122f78261228c565b6123018185612297565b93506123118185602086016122a8565b61231a816122db565b840191505092915050565b6000602082019050818103600083015261233f81846122ec565b905092915050565b6000819050919050565b61235a81612347565b811461236557600080fd5b50565b60008135905061237781612351565b92915050565b600060208284031215612393576123926121c7565b5b60006123a184828501612368565b91505092915050565b600073ffffffffffffffffffffffffffffffffffffffff82169050919050565b60006123d5826123aa565b9050919050565b6123e5816123ca565b82525050565b600060208201905061240060008301846123dc565b92915050565b61240f816123ca565b811461241a57600080fd5b50565b60008135905061242c81612406565b92915050565b60008060408385031215612449576124486121c7565b5b60006124578582860161241d565b925050602061246885828601612368565b9150509250929050565b600060208284031215612488576124876121c7565b5b60006124968482850161241d565b91505092915050565b6000806000606084860312156124b8576124b76121c7565b5b60006124c68682870161241d565b93505060206124d78682870161241d565b92505060406124e886828701612368565b9150509250925092565b600080fd5b600080fd5b7f4e487b7100000000000000000000000000000000000000000000000000000000600052604160045260246000fd5b612534826122db565b810181811067ffffffffffffffff82111715612553576125526124fc565b5b80604052505050565b60006125666121bd565b9050612572828261252b565b919050565b600067ffffffffffffffff821115612592576125916124fc565b5b61259b826122db565b9050602081019050919050565b82818337600083830152505050565b60006125ca6125c584612577565b61255c565b9050828152602081018484840111156125e6576125e56124f7565b5b6125f18482856125a8565b509392505050565b600082601f83011261260e5761260d6124f2565b5b813561261e8482602086016125b7565b91505092915050565b60006020828403121561263d5761263c6121c7565b5b600082013567ffffffffffffffff81111561265b5761265a6121cc565b5b612667848285016125f9565b91505092915050565b600060ff82169050919050565b61268681612670565b82525050565b6040820160008201516126a2600085018261267d565b5060208201516126b5602085018261267d565b50505050565b60006040820190506126d0600083018461268c565b92915050565b6126df81612347565b82525050565b60006020820190506126fa60008301846126d6565b92915050565b61270981612256565b811461271457600080fd5b50565b60008135905061272681612700565b92915050565b60008060408385031215612743576127426121c7565b5b60006127518582860161241d565b925050602061276285828601612717565b9150509250929050565b600081519050919050565b600082825260208201905092915050565b6000819050602082019050919050565b6127a181612347565b82525050565b60006127b38383612798565b60208301905092915050565b6000602082019050919050565b60006127d78261276c565b6127e18185612777565b93506127ec83612788565b8060005b8381101561281d57815161280488826127a7565b975061280f836127bf565b9250506001810190506127f0565b5085935050505092915050565b6000602082019050818103600083015261284481846127cc565b905092915050565b600067ffffffffffffffff821115612867576128666124fc565b5b612870826122db565b9050602081019050919050565b600061289061288b8461284c565b61255c565b9050828152602081018484840111156128ac576128ab6124f7565b5b6128b78482856125a8565b509392505050565b600082601f8301126128d4576128d36124f2565b5b81356128e484826020860161287d565b91505092915050565b60008060008060808587031215612907576129066121c7565b5b60006129158782880161241d565b94505060206129268782880161241d565b935050604061293787828801612368565b925050606085013567ffffffffffffffff811115612958576129576121cc565b5b612964878288016128bf565b91505092959194509250565b61297981612670565b811461298457600080fd5b50565b60008135905061299681612970565b92915050565b6000806000606084860312156129b5576129b46121c7565b5b60006129c386828701612987565b93505060206129d486828701612987565b92505060406129e58682870161241d565b9150509250925092565b60008060408385031215612a0657612a056121c7565b5b6000612a148582860161241d565b9250506020612a258582860161241d565b9150509250929050565b7f4e487b7100000000000000000000000000000000000000000000000000000000600052602260045260246000fd5b60006002820490506001821680612a7657607f821691505b60208210811415612a8a57612a89612a2f565b5b50919050565b7f4552433732313a20617070726f76656420717565727920666f72206e6f6e657860008201527f697374656e7420746f6b656e0000000000000000000000000000000000000000602082015250565b6000612aec602c83612297565b9150612af782612a90565b604082019050919050565b60006020820190508181036000830152612b1b81612adf565b9050919050565b7f4552433732313a20617070726f76616c20746f2063757272656e74206f776e6560008201527f7200000000000000000000000000000000000000000000000000000000000000602082015250565b6000612b7e602183612297565b9150612b8982612b22565b604082019050919050565b60006020820190508181036000830152612bad81612b71565b9050919050565b7f4552433732313a20617070726f76652063616c6c6572206973206e6f74206f7760008201527f6e6572206e6f7220617070726f76656420666f7220616c6c0000000000000000602082015250565b6000612c10603883612297565b9150612c1b82612bb4565b604082019050919050565b60006020820190508181036000830152612c3f81612c03565b9050919050565b7f4552433732313a207472616e736665722063616c6c6572206973206e6f74206f60008201527f776e6572206e6f7220617070726f766564000000000000000000000000000000602082015250565b6000612ca2603183612297565b9150612cad82612c46565b604082019050919050565b60006020820190508181036000830152612cd181612c95565b9050919050565b7f4552433732313a206f776e657220717565727920666f72206e6f6e657869737460008201527f656e7420746f6b656e0000000000000000000000000000000000000000000000602082015250565b6000612d34602983612297565b9150612d3f82612cd8565b604082019050919050565b60006020820190508181036000830152612d6381612d27565b9050919050565b7f4552433732313a2062616c616e636520717565727920666f7220746865207a6560008201527f726f206164647265737300000000000000000000000000000000000000000000602082015250565b6000612dc6602a83612297565b9150612dd182612d6a565b604082019050919050565b60006020820190508181036000830152612df581612db9565b9050919050565b7f4f776e61626c653a2063616c6c6572206973206e6f7420746865206f776e6572600082015250565b6000612e32602083612297565b9150612e3d82612dfc565b602082019050919050565b60006020820190508181036000830152612e6181612e25565b9050919050565b7f4c616e644e46543a204d696e7461626c65206d757374206265206e6f6e2d7a6560008201527f726f206164647265737300000000000000000000000000000000000000000000602082015250565b6000612ec4602a83612297565b9150612ecf82612e68565b604082019050919050565b60006020820190508181036000830152612ef381612eb7565b9050919050565b7f4e487b7100000000000000000000000000000000000000000000000000000000600052603260045260246000fd5b7f4e487b7100000000000000000000000000000000000000000000000000000000600052601160045260246000fd5b6000612f6382612347565b91507fffffffffffffffffffffffffffffffffffffffffffffffffffffffffffffffff821415612f9657612f95612f29565b5b600182019050919050565b7f4c616e644e46543a20546f6b656e2055524920666f72206e6f6e65786973746560008201527f6e7420746f6b656e000000000000000000000000000000000000000000000000602082015250565b6000612ffd602883612297565b915061300882612fa1565b604082019050919050565b6000602082019050818103600083015261302c81612ff0565b9050919050565b600081905092915050565b60006130498261228c565b6130538185613033565b93506130638185602086016122a8565b80840191505092915050565b7f2d00000000000000000000000000000000000000000000000000000000000000600082015250565b60006130a5600183613033565b91506130b08261306f565b600182019050919050565b7f2e6a736f6e000000000000000000000000000000000000000000000000000000600082015250565b60006130f1600583613033565b91506130fc826130bb565b600582019050919050565b6000613113828561303e565b915061311e82613098565b915061312a828461303e565b9150613135826130e4565b91508190509392505050565b600061314d828561303e565b9150613159828461303e565b91508190509392505050565b7f4e6f74206d696e7461626c650000000000000000000000000000000000000000600082015250565b600061319b600c83612297565b91506131a682613165565b602082019050919050565b600060208201905081810360008301526131ca8161318e565b9050919050565b7f4c616e644e46543a204f776e6572206d757374206265206e6f6e2d7a65726f2060008201527f616464726573732e000000000000000000000000000000000000000000000000602082015250565b600061322d602883612297565b9150613238826131d1565b604082019050919050565b6000602082019050818103600083015261325c81613220565b9050919050565b7f4f776e61626c653a206e6577206f776e657220697320746865207a65726f206160008201527f6464726573730000000000000000000000000000000000000000000000000000602082015250565b60006132bf602683612297565b91506132ca82613263565b604082019050919050565b600060208201905081810360008301526132ee816132b2565b9050919050565b7f4552433732313a206f70657261746f7220717565727920666f72206e6f6e657860008201527f697374656e7420746f6b656e0000000000000000000000000000000000000000602082015250565b6000613351602c83612297565b915061335c826132f5565b604082019050919050565b6000602082019050818103600083015261338081613344565b9050919050565b7f4552433732313a207472616e736665722066726f6d20696e636f72726563742060008201527f6f776e6572000000000000000000000000000000000000000000000000000000602082015250565b60006133e3602583612297565b91506133ee82613387565b604082019050919050565b60006020820190508181036000830152613412816133d6565b9050919050565b7f4552433732313a207472616e7366657220746f20746865207a65726f2061646460008201527f7265737300000000000000000000000000000000000000000000000000000000602082015250565b6000613475602483612297565b915061348082613419565b604082019050919050565b600060208201905081810360008301526134a481613468565b9050919050565b60006134b682612347565b91506134c183612347565b9250828210156134d4576134d3612f29565b5b828203905092915050565b60006134ea82612347565b91506134f583612347565b9250827fffffffffffffffffffffffffffffffffffffffffffffffffffffffffffffffff0382111561352a57613529612f29565b5b828201905092915050565b7f4552433732313a20617070726f766520746f2063616c6c657200000000000000600082015250565b600061356b601983612297565b915061357682613535565b602082019050919050565b6000602082019050818103600083015261359a8161355e565b9050919050565b7f4552433732313a207472616e7366657220746f206e6f6e20455243373231526560008201527f63656976657220696d706c656d656e7465720000000000000000000000000000602082015250565b60006135fd603283612297565b9150613608826135a1565b604082019050919050565b6000602082019050818103600083015261362c816135f0565b9050919050565b7f4e487b7100000000000000000000000000000000000000000000000000000000600052601260045260246000fd5b600061366d82612347565b915061367883612347565b92508261368857613687613633565b5b828204905092915050565b600061369e82612347565b91506136a983612347565b9250826136b9576136b8613633565b5b828206905092915050565b7f4552433732314d657461646174613a2055524920717565727920666f72206e6f60008201527f6e6578697374656e7420746f6b656e0000000000000000000000000000000000602082015250565b6000613720602f83612297565b915061372b826136c4565b604082019050919050565b6000602082019050818103600083015261374f81613713565b9050919050565b600081519050919050565b600082825260208201905092915050565b600061377d82613756565b6137878185613761565b93506137978185602086016122a8565b6137a0816122db565b840191505092915050565b60006080820190506137c060008301876123dc565b6137cd60208301866123dc565b6137da60408301856126d6565b81810360608301526137ec8184613772565b905095945050505050565b600081519050613806816121fd565b92915050565b600060208284031215613822576138216121c7565b5b6000613830848285016137f7565b91505092915050565b7f4552433732313a206d696e7420746f20746865207a65726f2061646472657373600082015250565b600061386f602083612297565b915061387a82613839565b602082019050919050565b6000602082019050818103600083015261389e81613862565b9050919050565b7f4552433732313a20746f6b656e20616c7265616479206d696e74656400000000600082015250565b60006138db601c83612297565b91506138e6826138a5565b602082019050919050565b6000602082019050818103600083015261390a816138ce565b905091905056fea26469706673582212209239dd71eec9b4f96971a9240ec87f122fc9f9f3d5da72b0bee0a4cbde98a46564736f6c634300080c0033",
  "immutableReferences": {},
  "source": "// SPDX-License-Identifier: MIT\npragma solidity >=0.4.22 <0.9.0;\n\nimport \"@openzeppelin/contracts/token/ERC721/ERC721.sol\";\nimport \"@openzeppelin/contracts/utils/Counters.sol\";\nimport \"@openzeppelin/contracts/access/Ownable.sol\";\nimport \"./access/Mintable.sol\";\nimport \"./interfaces/ILandNFT.sol\";\n\ncontract LandNFT is ILandNFT, ERC721, Ownable, Mintable {\n  using Counters for Counters.Counter;\n  using Strings for uint8;\n  \n  Counters.Counter private currentTokenId;\n\n  mapping(uint => LandAttr) private attrs;\n  string private baseTokenUri;\n\n  constructor() ERC721(\"CashCow Land NFT\", \"CLN\") {\n\n  }\n\n  function mint(uint8 _rarity, uint8 _kind, address _owner) public onlyMintable {\n    require(_owner != address(0), \"LandNFT: Owner must be non-zero address.\");\n\n    currentTokenId.increment();\n    uint256 tokenId = currentTokenId.current();\n    attrs[tokenId] = LandAttr(_rarity, _kind);\n    _safeMint(_owner, tokenId);\n  }\n\n  function attrOf(uint _tokenId) public view returns (LandAttr memory) {\n    return attrs[_tokenId];\n  }\n\n  // Get list of tokenIds of owner.\n  function tokenIdsOf(address _owner) public view returns (uint[] memory) {\n    uint tokenAmount = balanceOf(_owner);\n    uint[] memory tokenIds = new uint[](tokenAmount);\n    if(tokenAmount == 0) {\n      return tokenIds;\n    }\n    \n    uint tokenIdx = 0;\n    for(uint tokenId=1;tokenId <= currentTokenId.current();tokenId ++) {\n      if(ownerOf(tokenId) == _owner) {\n        tokenIds[tokenIdx] = tokenId;\n        tokenIdx ++;\n      }\n    }\n\n    return tokenIds;\n  }\n  \n  function setBaseTokenURI(string memory _baseUri) public {\n    baseTokenUri = _baseUri;\n  }\n\n  function tokenURI(uint _tokenId) public view override returns (string memory) {\n    require(_exists(_tokenId), \"LandNFT: Token URI for nonexistent token\");\n\n    LandAttr memory attr = attrOf(_tokenId);\n    string memory tokenUri = string(abi.encodePacked(attr.landType.toString(), \"-\", attr.rarity.toString(), \".json\"));\n    string memory base = _baseURI();\n\n    // If there is no base URI, return the token URI.\n    if (bytes(base).length == 0) {\n        return tokenUri;\n    }\n    // If both are set, concatenate the baseURI and tokenURI (via abi.encodePacked).\n    if (bytes(tokenUri).length > 0) {\n        return string(abi.encodePacked(base, tokenUri));\n    }\n\n    return super.tokenURI(_tokenId);\n  }\n\n  function setMintable(address _addr) public override onlyOwner {\n    require(_addr != address(0), \"LandNFT: Mintable must be non-zero address\");\n    mintable[_addr] = true;\n  }\n  \n  function _baseURI() internal view override returns (string memory) {\n    return baseTokenUri;\n  }\n\n}\n",
  "sourcePath": "D:\\Workspace\\Projects\\CashCow\\game-contracts\\contracts\\LandNFT.sol",
  "compiler": {
    "name": "solc",
    "version": "0.8.12+commit.f00d7308.Emscripten.clang"
  },
  "schemaVersion": "3.4.6",
  "updatedAt": "2022-04-10T19:25:52.202Z",
  "devdoc": {
    "kind": "dev",
    "methods": {
      "approve(address,uint256)": {
        "details": "See {IERC721-approve}."
      },
      "balanceOf(address)": {
        "details": "See {IERC721-balanceOf}."
      },
      "getApproved(uint256)": {
        "details": "See {IERC721-getApproved}."
      },
      "isApprovedForAll(address,address)": {
        "details": "See {IERC721-isApprovedForAll}."
      },
      "name()": {
        "details": "See {IERC721Metadata-name}."
      },
      "owner()": {
        "details": "Returns the address of the current owner."
      },
      "ownerOf(uint256)": {
        "details": "See {IERC721-ownerOf}."
      },
      "renounceOwnership()": {
        "details": "Leaves the contract without owner. It will not be possible to call `onlyOwner` functions anymore. Can only be called by the current owner. NOTE: Renouncing ownership will leave the contract without an owner, thereby removing any functionality that is only available to the owner."
      },
      "safeTransferFrom(address,address,uint256)": {
        "details": "See {IERC721-safeTransferFrom}."
      },
      "safeTransferFrom(address,address,uint256,bytes)": {
        "details": "See {IERC721-safeTransferFrom}."
      },
      "setApprovalForAll(address,bool)": {
        "details": "See {IERC721-setApprovalForAll}."
      },
      "supportsInterface(bytes4)": {
        "details": "See {IERC165-supportsInterface}."
      },
      "symbol()": {
        "details": "See {IERC721Metadata-symbol}."
      },
      "transferFrom(address,address,uint256)": {
        "details": "See {IERC721-transferFrom}."
      },
      "transferOwnership(address)": {
        "details": "Transfers ownership of the contract to a new account (`newOwner`). Can only be called by the current owner."
      }
    },
    "version": 1
  },
  "userdoc": {
    "kind": "user",
    "methods": {},
    "version": 1
  }
}