{
  "contractName": "Market",
  "abi": [
    {
      "inputs": [
        {
          "internalType": "contract IMilkToken",
          "name": "_tokenMilk",
          "type": "address"
        },
        {
          "internalType": "address",
          "name": "_ownerAddr",
          "type": "address"
        }
      ],
      "stateMutability": "nonpayable",
      "type": "constructor"
    },
    {
      "anonymous": false,
      "inputs": [
        {
          "indexed": true,
          "internalType": "uint256",
          "name": "itemId",
          "type": "uint256"
        },
        {
          "indexed": true,
          "internalType": "address",
          "name": "nftContract",
          "type": "address"
        },
        {
          "indexed": true,
          "internalType": "uint256",
          "name": "tokenId",
          "type": "uint256"
        },
        {
          "indexed": false,
          "internalType": "address",
          "name": "seller",
          "type": "address"
        },
        {
          "indexed": false,
          "internalType": "address",
          "name": "owner",
          "type": "address"
        },
        {
          "indexed": false,
          "internalType": "uint256",
          "name": "price",
          "type": "uint256"
        },
        {
          "indexed": false,
          "internalType": "uint256",
          "name": "listedTime",
          "type": "uint256"
        },
        {
          "indexed": false,
          "internalType": "bool",
          "name": "isSold",
          "type": "bool"
        }
      ],
      "name": "MarketItemCreated",
      "type": "event"
    },
    {
      "anonymous": false,
      "inputs": [
        {
          "indexed": true,
          "internalType": "address",
          "name": "previousOwner",
          "type": "address"
        },
        {
          "indexed": true,
          "internalType": "address",
          "name": "newOwner",
          "type": "address"
        }
      ],
      "name": "OwnershipTransferred",
      "type": "event"
    },
    {
      "inputs": [],
      "name": "feePercent",
      "outputs": [
        {
          "internalType": "uint8",
          "name": "",
          "type": "uint8"
        }
      ],
      "stateMutability": "view",
      "type": "function",
      "constant": true
    },
    {
      "inputs": [],
      "name": "owner",
      "outputs": [
        {
          "internalType": "address",
          "name": "",
          "type": "address"
        }
      ],
      "stateMutability": "view",
      "type": "function",
      "constant": true
    },
    {
      "inputs": [],
      "name": "renounceOwnership",
      "outputs": [],
      "stateMutability": "nonpayable",
      "type": "function"
    },
    {
      "inputs": [
        {
          "internalType": "address",
          "name": "newOwner",
          "type": "address"
        }
      ],
      "name": "transferOwnership",
      "outputs": [],
      "stateMutability": "nonpayable",
      "type": "function"
    },
    {
      "inputs": [
        {
          "internalType": "uint8",
          "name": "_feePercent",
          "type": "uint8"
        }
      ],
      "name": "setFeePercent",
      "outputs": [],
      "stateMutability": "nonpayable",
      "type": "function"
    },
    {
      "inputs": [
        {
          "internalType": "address",
          "name": "_ownerAddr",
          "type": "address"
        }
      ],
      "name": "setOwnerAddr",
      "outputs": [],
      "stateMutability": "nonpayable",
      "type": "function"
    },
    {
      "inputs": [],
      "name": "getOwnerAddr",
      "outputs": [
        {
          "internalType": "address",
          "name": "",
          "type": "address"
        }
      ],
      "stateMutability": "view",
      "type": "function",
      "constant": true
    },
    {
      "inputs": [
        {
          "internalType": "address",
          "name": "nftContract",
          "type": "address"
        },
        {
          "internalType": "uint256",
          "name": "tokenId",
          "type": "uint256"
        },
        {
          "internalType": "uint256",
          "name": "price",
          "type": "uint256"
        }
      ],
      "name": "createMarketItem",
      "outputs": [],
      "stateMutability": "nonpayable",
      "type": "function"
    },
    {
      "inputs": [
        {
          "internalType": "address",
          "name": "nftContract",
          "type": "address"
        },
        {
          "internalType": "uint256",
          "name": "itemId",
          "type": "uint256"
        }
      ],
      "name": "unlistMarketItem",
      "outputs": [],
      "stateMutability": "nonpayable",
      "type": "function"
    },
    {
      "inputs": [
        {
          "internalType": "address",
          "name": "nftContract",
          "type": "address"
        },
        {
          "internalType": "uint256",
          "name": "itemId",
          "type": "uint256"
        }
      ],
      "name": "createMarketSale",
      "outputs": [],
      "stateMutability": "nonpayable",
      "type": "function"
    },
    {
      "inputs": [],
      "name": "fetchMarketItems",
      "outputs": [
        {
          "components": [
            {
              "internalType": "uint256",
              "name": "itemId",
              "type": "uint256"
            },
            {
              "internalType": "address",
              "name": "nftContract",
              "type": "address"
            },
            {
              "internalType": "uint256",
              "name": "tokenId",
              "type": "uint256"
            },
            {
              "internalType": "address",
              "name": "seller",
              "type": "address"
            },
            {
              "internalType": "address",
              "name": "buyer",
              "type": "address"
            },
            {
              "internalType": "uint256",
              "name": "price",
              "type": "uint256"
            },
            {
              "internalType": "uint256",
              "name": "listedTime",
              "type": "uint256"
            },
            {
              "internalType": "bool",
              "name": "isSold",
              "type": "bool"
            }
          ],
          "internalType": "struct Market.MarketItem[]",
          "name": "",
          "type": "tuple[]"
        }
      ],
      "stateMutability": "view",
      "type": "function",
      "constant": true
    },
    {
      "inputs": [],
      "name": "fetchMyNFTs",
      "outputs": [
        {
          "components": [
            {
              "internalType": "uint256",
              "name": "itemId",
              "type": "uint256"
            },
            {
              "internalType": "address",
              "name": "nftContract",
              "type": "address"
            },
            {
              "internalType": "uint256",
              "name": "tokenId",
              "type": "uint256"
            },
            {
              "internalType": "address",
              "name": "seller",
              "type": "address"
            },
            {
              "internalType": "address",
              "name": "buyer",
              "type": "address"
            },
            {
              "internalType": "uint256",
              "name": "price",
              "type": "uint256"
            },
            {
              "internalType": "uint256",
              "name": "listedTime",
              "type": "uint256"
            },
            {
              "internalType": "bool",
              "name": "isSold",
              "type": "bool"
            }
          ],
          "internalType": "struct Market.MarketItem[]",
          "name": "",
          "type": "tuple[]"
        }
      ],
      "stateMutability": "view",
      "type": "function",
      "constant": true
    },
    {
      "inputs": [],
      "name": "fetchItemsCreated",
      "outputs": [
        {
          "components": [
            {
              "internalType": "uint256",
              "name": "itemId",
              "type": "uint256"
            },
            {
              "internalType": "address",
              "name": "nftContract",
              "type": "address"
            },
            {
              "internalType": "uint256",
              "name": "tokenId",
              "type": "uint256"
            },
            {
              "internalType": "address",
              "name": "seller",
              "type": "address"
            },
            {
              "internalType": "address",
              "name": "buyer",
              "type": "address"
            },
            {
              "internalType": "uint256",
              "name": "price",
              "type": "uint256"
            },
            {
              "internalType": "uint256",
              "name": "listedTime",
              "type": "uint256"
            },
            {
              "internalType": "bool",
              "name": "isSold",
              "type": "bool"
            }
          ],
          "internalType": "struct Market.MarketItem[]",
          "name": "",
          "type": "tuple[]"
        }
      ],
      "stateMutability": "view",
      "type": "function",
      "constant": true
    },
    {
      "inputs": [
        {
          "internalType": "uint256",
          "name": "_marketId",
          "type": "uint256"
        }
      ],
      "name": "fetchSellerOfMarketItem",
      "outputs": [
        {
          "internalType": "address",
          "name": "",
          "type": "address"
        }
      ],
      "stateMutability": "view",
      "type": "function",
      "constant": true
    },
    {
      "inputs": [
        {
          "internalType": "uint256",
          "name": "_marketId",
          "type": "uint256"
        }
      ],
      "name": "fetchPriceOfMarketItem",
      "outputs": [
        {
          "internalType": "uint256",
          "name": "",
          "type": "uint256"
        }
      ],
      "stateMutability": "view",
      "type": "function",
      "constant": true
    },
    {
      "inputs": [
        {
          "internalType": "uint256",
          "name": "_marketId",
          "type": "uint256"
        }
      ],
      "name": "fetchBuyerOfMarketItem",
      "outputs": [
        {
          "internalType": "address",
          "name": "",
          "type": "address"
        }
      ],
      "stateMutability": "view",
      "type": "function",
      "constant": true
    }
  ],
  "bytecode": "0x60806040523480156200001157600080fd5b506040516200321238038062003212833981810160405281019062000037919062000213565b6001600081905550620000716200005c62000117640100000000026401000000009004565b6200011f640100000000026401000000009004565b81600460006101000a81548173ffffffffffffffffffffffffffffffffffffffff021916908373ffffffffffffffffffffffffffffffffffffffff160217905550600a600560146101000a81548160ff021916908360ff16021790555080600560006101000a81548173ffffffffffffffffffffffffffffffffffffffff021916908373ffffffffffffffffffffffffffffffffffffffff1602179055505050620002d0565b600033905090565b6000600160009054906101000a900473ffffffffffffffffffffffffffffffffffffffff16905081600160006101000a81548173ffffffffffffffffffffffffffffffffffffffff021916908373ffffffffffffffffffffffffffffffffffffffff1602179055508173ffffffffffffffffffffffffffffffffffffffff168173ffffffffffffffffffffffffffffffffffffffff167f8be0079c531659141344cd1fd0a4f28419497f9722a3daafe3b4186f6b6457e060405160405180910390a35050565b600081519050620001f6816200029c565b92915050565b6000815190506200020d81620002b6565b92915050565b600080604083850312156200022757600080fd5b60006200023785828601620001fc565b92505060206200024a85828601620001e5565b9150509250929050565b600062000261826200027c565b9050919050565b6000620002758262000254565b9050919050565b600073ffffffffffffffffffffffffffffffffffffffff82169050919050565b620002a78162000254565b8114620002b357600080fd5b50565b620002c18162000268565b8114620002cd57600080fd5b50565b612f3280620002e06000396000f3fe608060405234801561001057600080fd5b506004361061011d576000357c010000000000000000000000000000000000000000000000000000000090048063a9e0c316116100b4578063e670472311610083578063e6704723146102a4578063f064c32e146102c2578063f2fde38b146102e0578063f4838176146102fc5761011d565b8063a9e0c31614610220578063c23b139e1461023c578063c919319314610258578063e074278d146102885761011d565b8063715018a6116100f0578063715018a6146101aa5780637fd6f15c146101b45780638da5cb5b146101d257806392198437146101f05761011d565b80630f08efe014610122578063202e37401461014057806358eb2df51461015e578063591b8f611461017a575b600080fd5b61012a610318565b6040516101379190612720565b60405180910390f35b610148610638565b6040516101559190612720565b60405180910390f35b6101786004803603810190610173919061223f565b6109dd565b005b610194600480360381019061018f91906122b7565b610d2c565b6040516101a1919061267b565b60405180910390f35b6101b2610dcf565b005b6101bc610e57565b6040516101c991906128fd565b60405180910390f35b6101da610e6a565b6040516101e7919061267b565b60405180910390f35b61020a600480360381019061020591906122b7565b610e94565b604051610217919061267b565b60405180910390f35b61023a60048036038101906102359190612203565b610ed4565b005b61025660048036038101906102519190612203565b6112c8565b005b610272600480360381019061026d91906122b7565b611873565b60405161027f91906128e2565b60405180910390f35b6102a2600480360381019061029d91906121da565b611893565b005b6102ac6119c3565b6040516102b9919061267b565b60405180910390f35b6102ca611a69565b6040516102d79190612720565b60405180910390f35b6102fa60048036038101906102f591906121da565b611e0e565b005b61031660048036038101906103119190612309565b611f06565b005b606060006103266002611ff6565b905060006103346003611ff6565b61033e6002611ff6565b6103489190612a43565b90506000808267ffffffffffffffff81111561038d577f4e487b7100000000000000000000000000000000000000000000000000000000600052604160045260246000fd5b6040519080825280602002602001820160405280156103c657816020015b6103b36120e8565b8152602001906001900390816103ab5790505b50905060005b8481101561062d57600073ffffffffffffffffffffffffffffffffffffffff16600660006001846103fd9190612962565b815260200190815260200160002060040160009054906101000a900473ffffffffffffffffffffffffffffffffffffffff1673ffffffffffffffffffffffffffffffffffffffff16141561061a57600060018261045a9190612962565b905060006006600083815260200190815260200160002090508060405180610100016040529081600082015481526020016001820160009054906101000a900473ffffffffffffffffffffffffffffffffffffffff1673ffffffffffffffffffffffffffffffffffffffff1673ffffffffffffffffffffffffffffffffffffffff168152602001600282015481526020016003820160009054906101000a900473ffffffffffffffffffffffffffffffffffffffff1673ffffffffffffffffffffffffffffffffffffffff1673ffffffffffffffffffffffffffffffffffffffff1681526020016004820160009054906101000a900473ffffffffffffffffffffffffffffffffffffffff1673ffffffffffffffffffffffffffffffffffffffff1673ffffffffffffffffffffffffffffffffffffffff16815260200160058201548152602001600682015481526020016007820160009054906101000a900460ff1615151515815250508486815181106105fe577f4e487b7100000000000000000000000000000000000000000000000000000000600052603260045260246000fd5b6020026020010181905250848061061490612b00565b95505050505b808061062590612b00565b9150506103cc565b508094505050505090565b606060006106466002611ff6565b905060008060005b838110156106ef573373ffffffffffffffffffffffffffffffffffffffff166006600060018461067e9190612962565b815260200190815260200160002060040160009054906101000a900473ffffffffffffffffffffffffffffffffffffffff1673ffffffffffffffffffffffffffffffffffffffff1614156106dc576001836106d99190612962565b92505b80806106e790612b00565b91505061064e565b5060008267ffffffffffffffff811115610732577f4e487b7100000000000000000000000000000000000000000000000000000000600052604160045260246000fd5b60405190808252806020026020018201604052801561076b57816020015b6107586120e8565b8152602001906001900390816107505790505b50905060005b848110156109d2573373ffffffffffffffffffffffffffffffffffffffff16600660006001846107a19190612962565b815260200190815260200160002060040160009054906101000a900473ffffffffffffffffffffffffffffffffffffffff1673ffffffffffffffffffffffffffffffffffffffff1614156109bf5760006001826107fe9190612962565b905060006006600083815260200190815260200160002090508060405180610100016040529081600082015481526020016001820160009054906101000a900473ffffffffffffffffffffffffffffffffffffffff1673ffffffffffffffffffffffffffffffffffffffff1673ffffffffffffffffffffffffffffffffffffffff168152602001600282015481526020016003820160009054906101000a900473ffffffffffffffffffffffffffffffffffffffff1673ffffffffffffffffffffffffffffffffffffffff1673ffffffffffffffffffffffffffffffffffffffff1681526020016004820160009054906101000a900473ffffffffffffffffffffffffffffffffffffffff1673ffffffffffffffffffffffffffffffffffffffff1673ffffffffffffffffffffffffffffffffffffffff16815260200160058201548152602001600682015481526020016007820160009054906101000a900460ff1615151515815250508486815181106109a2577f4e487b7100000000000000000000000000000000000000000000000000000000600052603260045260246000fd5b60200260200101819052506001856109ba9190612962565b945050505b80806109ca90612b00565b915050610771565b508094505050505090565b60026000541415610a23576040517f08c379a0000000000000000000000000000000000000000000000000000000008152600401610a1a906128c2565b60405180910390fd5b600260008190555060008111610a6e576040517f08c379a0000000000000000000000000000000000000000000000000000000008152600401610a65906127e2565b60405180910390fd5b610a786002612004565b6000610a846002611ff6565b90506040518061010001604052808281526020018573ffffffffffffffffffffffffffffffffffffffff1681526020018481526020013373ffffffffffffffffffffffffffffffffffffffff168152602001600073ffffffffffffffffffffffffffffffffffffffff16815260200183815260200142815260200160001515815250600660008381526020019081526020016000206000820151816000015560208201518160010160006101000a81548173ffffffffffffffffffffffffffffffffffffffff021916908373ffffffffffffffffffffffffffffffffffffffff1602179055506040820151816002015560608201518160030160006101000a81548173ffffffffffffffffffffffffffffffffffffffff021916908373ffffffffffffffffffffffffffffffffffffffff16021790555060808201518160040160006101000a81548173ffffffffffffffffffffffffffffffffffffffff021916908373ffffffffffffffffffffffffffffffffffffffff16021790555060a0820151816005015560c0820151816006015560e08201518160070160006101000a81548160ff0219169083151502179055509050508373ffffffffffffffffffffffffffffffffffffffff166323b872dd3330866040518463ffffffff167c0100000000000000000000000000000000000000000000000000000000028152600401610c9293929190612696565b600060405180830381600087803b158015610cac57600080fd5b505af1158015610cc0573d6000803e3d6000fd5b50505050828473ffffffffffffffffffffffffffffffffffffffff16827fd0bb1eaea8ab6cd0c288f209757734c5e280d8f4e05f93b1db82da8db727875833600087426000604051610d169594939291906126cd565b60405180910390a4506001600081905550505050565b60006006600083815260200190815260200160002060070160009054906101000a900460ff16610d91576040517f08c379a0000000000000000000000000000000000000000000000000000000008152600401610d8890612802565b60405180910390fd5b6006600083815260200190815260200160002060040160009054906101000a900473ffffffffffffffffffffffffffffffffffffffff169050919050565b610dd761201a565b73ffffffffffffffffffffffffffffffffffffffff16610df5610e6a565b73ffffffffffffffffffffffffffffffffffffffff1614610e4b576040517f08c379a0000000000000000000000000000000000000000000000000000000008152600401610e4290612822565b60405180910390fd5b610e556000612022565b565b600560149054906101000a900460ff1681565b6000600160009054906101000a900473ffffffffffffffffffffffffffffffffffffffff16905090565b60006006600083815260200190815260200160002060030160009054906101000a900473ffffffffffffffffffffffffffffffffffffffff169050919050565b60026000541415610f1a576040517f08c379a0000000000000000000000000000000000000000000000000000000008152600401610f11906128c2565b60405180910390fd5b60026000819055506000600660008381526020019081526020016000206002015490506000821415610f81576040517f08c379a0000000000000000000000000000000000000000000000000000000008152600401610f78906127c2565b60405180910390fd5b6006600083815260200190815260200160002060030160009054906101000a900473ffffffffffffffffffffffffffffffffffffffff1673ffffffffffffffffffffffffffffffffffffffff163373ffffffffffffffffffffffffffffffffffffffff1614611025576040517f08c379a000000000000000000000000000000000000000000000000000000000815260040161101c906127a2565b60405180910390fd5b6006600083815260200190815260200160002060010160009054906101000a900473ffffffffffffffffffffffffffffffffffffffff1673ffffffffffffffffffffffffffffffffffffffff168373ffffffffffffffffffffffffffffffffffffffff16146110c9576040517f08c379a00000000000000000000000000000000000000000000000000000000081526004016110c090612882565b60405180910390fd5b600115156006600084815260200190815260200160002060070160009054906101000a900460ff161515141580156111635750600073ffffffffffffffffffffffffffffffffffffffff166006600084815260200190815260200160002060040160009054906101000a900473ffffffffffffffffffffffffffffffffffffffff1673ffffffffffffffffffffffffffffffffffffffff16145b6111a2576040517f08c379a0000000000000000000000000000000000000000000000000000000008152600401611199906128a2565b60405180910390fd5b8273ffffffffffffffffffffffffffffffffffffffff166323b872dd3033846040518463ffffffff167c01000000000000000000000000000000000000000000000000000000000281526004016111fb93929190612696565b600060405180830381600087803b15801561121557600080fd5b505af1158015611229573d6000803e3d6000fd5b50505050336006600084815260200190815260200160002060040160006101000a81548173ffffffffffffffffffffffffffffffffffffffff021916908373ffffffffffffffffffffffffffffffffffffffff16021790555060016006600084815260200190815260200160002060070160006101000a81548160ff0219169083151502179055506112bb6003612004565b5060016000819055505050565b6002600054141561130e576040517f08c379a0000000000000000000000000000000000000000000000000000000008152600401611305906128c2565b60405180910390fd5b600260008190555060006006600083815260200190815260200160002060050154905060006006600084815260200190815260200160002060020154905081600460009054906101000a900473ffffffffffffffffffffffffffffffffffffffff1673ffffffffffffffffffffffffffffffffffffffff166370a08231336040518263ffffffff167c01000000000000000000000000000000000000000000000000000000000281526004016113c4919061267b565b60206040518083038186803b1580156113dc57600080fd5b505afa1580156113f0573d6000803e3d6000fd5b505050506040513d601f19601f8201168201806040525081019061141491906122e0565b1015611455576040517f08c379a000000000000000000000000000000000000000000000000000000000815260040161144c90612782565b60405180910390fd5b6006600084815260200190815260200160002060030160009054906101000a900473ffffffffffffffffffffffffffffffffffffffff1673ffffffffffffffffffffffffffffffffffffffff163373ffffffffffffffffffffffffffffffffffffffff1614156114fa576040517f08c379a00000000000000000000000000000000000000000000000000000000081526004016114f190612842565b60405180910390fd5b600460009054906101000a900473ffffffffffffffffffffffffffffffffffffffff1673ffffffffffffffffffffffffffffffffffffffff166323b872dd336006600087815260200190815260200160002060030160009054906101000a900473ffffffffffffffffffffffffffffffffffffffff166064600560149054906101000a900460ff16606461158e9190612a77565b60ff168761159c91906129e9565b6115a691906129b8565b6040518463ffffffff167c01000000000000000000000000000000000000000000000000000000000281526004016115e093929190612696565b602060405180830381600087803b1580156115fa57600080fd5b505af115801561160e573d6000803e3d6000fd5b505050506040513d601f19601f82011682018060405250810190611632919061228e565b50600460009054906101000a900473ffffffffffffffffffffffffffffffffffffffff1673ffffffffffffffffffffffffffffffffffffffff166323b872dd33600560009054906101000a900473ffffffffffffffffffffffffffffffffffffffff166064600560149054906101000a900460ff1660ff16876116b591906129e9565b6116bf91906129b8565b6040518463ffffffff167c01000000000000000000000000000000000000000000000000000000000281526004016116f993929190612696565b602060405180830381600087803b15801561171357600080fd5b505af1158015611727573d6000803e3d6000fd5b505050506040513d601f19601f8201168201806040525081019061174b919061228e565b508373ffffffffffffffffffffffffffffffffffffffff166323b872dd3033846040518463ffffffff167c01000000000000000000000000000000000000000000000000000000000281526004016117a593929190612696565b600060405180830381600087803b1580156117bf57600080fd5b505af11580156117d3573d6000803e3d6000fd5b50505050336006600085815260200190815260200160002060040160006101000a81548173ffffffffffffffffffffffffffffffffffffffff021916908373ffffffffffffffffffffffffffffffffffffffff16021790555060016006600085815260200190815260200160002060070160006101000a81548160ff0219169083151502179055506118656003612004565b505060016000819055505050565b600060066000838152602001908152602001600020600501549050919050565b61189b61201a565b73ffffffffffffffffffffffffffffffffffffffff166118b9610e6a565b73ffffffffffffffffffffffffffffffffffffffff161461190f576040517f08c379a000000000000000000000000000000000000000000000000000000000815260040161190690612822565b60405180910390fd5b600073ffffffffffffffffffffffffffffffffffffffff168173ffffffffffffffffffffffffffffffffffffffff16141561197f576040517f08c379a000000000000000000000000000000000000000000000000000000000815260040161197690612742565b60405180910390fd5b80600560006101000a81548173ffffffffffffffffffffffffffffffffffffffff021916908373ffffffffffffffffffffffffffffffffffffffff16021790555050565b60006119cd61201a565b73ffffffffffffffffffffffffffffffffffffffff166119eb610e6a565b73ffffffffffffffffffffffffffffffffffffffff1614611a41576040517f08c379a0000000000000000000000000000000000000000000000000000000008152600401611a3890612822565b60405180910390fd5b600560009054906101000a900473ffffffffffffffffffffffffffffffffffffffff16905090565b60606000611a776002611ff6565b905060008060005b83811015611b20573373ffffffffffffffffffffffffffffffffffffffff1660066000600184611aaf9190612962565b815260200190815260200160002060030160009054906101000a900473ffffffffffffffffffffffffffffffffffffffff1673ffffffffffffffffffffffffffffffffffffffff161415611b0d57600183611b0a9190612962565b92505b8080611b1890612b00565b915050611a7f565b5060008267ffffffffffffffff811115611b63577f4e487b7100000000000000000000000000000000000000000000000000000000600052604160045260246000fd5b604051908082528060200260200182016040528015611b9c57816020015b611b896120e8565b815260200190600190039081611b815790505b50905060005b84811015611e03573373ffffffffffffffffffffffffffffffffffffffff1660066000600184611bd29190612962565b815260200190815260200160002060030160009054906101000a900473ffffffffffffffffffffffffffffffffffffffff1673ffffffffffffffffffffffffffffffffffffffff161415611df0576000600182611c2f9190612962565b905060006006600083815260200190815260200160002090508060405180610100016040529081600082015481526020016001820160009054906101000a900473ffffffffffffffffffffffffffffffffffffffff1673ffffffffffffffffffffffffffffffffffffffff1673ffffffffffffffffffffffffffffffffffffffff168152602001600282015481526020016003820160009054906101000a900473ffffffffffffffffffffffffffffffffffffffff1673ffffffffffffffffffffffffffffffffffffffff1673ffffffffffffffffffffffffffffffffffffffff1681526020016004820160009054906101000a900473ffffffffffffffffffffffffffffffffffffffff1673ffffffffffffffffffffffffffffffffffffffff1673ffffffffffffffffffffffffffffffffffffffff16815260200160058201548152602001600682015481526020016007820160009054906101000a900460ff161515151581525050848681518110611dd3577f4e487b7100000000000000000000000000000000000000000000000000000000600052603260045260246000fd5b6020026020010181905250600185611deb9190612962565b945050505b8080611dfb90612b00565b915050611ba2565b508094505050505090565b611e1661201a565b73ffffffffffffffffffffffffffffffffffffffff16611e34610e6a565b73ffffffffffffffffffffffffffffffffffffffff1614611e8a576040517f08c379a0000000000000000000000000000000000000000000000000000000008152600401611e8190612822565b60405180910390fd5b600073ffffffffffffffffffffffffffffffffffffffff168173ffffffffffffffffffffffffffffffffffffffff161415611efa576040517f08c379a0000000000000000000000000000000000000000000000000000000008152600401611ef190612762565b60405180910390fd5b611f0381612022565b50565b611f0e61201a565b73ffffffffffffffffffffffffffffffffffffffff16611f2c610e6a565b73ffffffffffffffffffffffffffffffffffffffff1614611f82576040517f08c379a0000000000000000000000000000000000000000000000000000000008152600401611f7990612822565b60405180910390fd5b601e8160ff1611158015611f99575060008160ff16115b611fd8576040517f08c379a0000000000000000000000000000000000000000000000000000000008152600401611fcf90612862565b60405180910390fd5b80600560146101000a81548160ff021916908360ff16021790555050565b600081600001549050919050565b6001816000016000828254019250508190555050565b600033905090565b6000600160009054906101000a900473ffffffffffffffffffffffffffffffffffffffff16905081600160006101000a81548173ffffffffffffffffffffffffffffffffffffffff021916908373ffffffffffffffffffffffffffffffffffffffff1602179055508173ffffffffffffffffffffffffffffffffffffffff168173ffffffffffffffffffffffffffffffffffffffff167f8be0079c531659141344cd1fd0a4f28419497f9722a3daafe3b4186f6b6457e060405160405180910390a35050565b60405180610100016040528060008152602001600073ffffffffffffffffffffffffffffffffffffffff16815260200160008152602001600073ffffffffffffffffffffffffffffffffffffffff168152602001600073ffffffffffffffffffffffffffffffffffffffff16815260200160008152602001600081526020016000151581525090565b60008135905061218081612ea0565b92915050565b60008151905061219581612eb7565b92915050565b6000813590506121aa81612ece565b92915050565b6000815190506121bf81612ece565b92915050565b6000813590506121d481612ee5565b92915050565b6000602082840312156121ec57600080fd5b60006121fa84828501612171565b91505092915050565b6000806040838503121561221657600080fd5b600061222485828601612171565b92505060206122358582860161219b565b9150509250929050565b60008060006060848603121561225457600080fd5b600061226286828701612171565b93505060206122738682870161219b565b92505060406122848682870161219b565b9150509250925092565b6000602082840312156122a057600080fd5b60006122ae84828501612186565b91505092915050565b6000602082840312156122c957600080fd5b60006122d78482850161219b565b91505092915050565b6000602082840312156122f257600080fd5b6000612300848285016121b0565b91505092915050565b60006020828403121561231b57600080fd5b6000612329848285016121c5565b91505092915050565b600061233e83836125ac565b6101008301905092915050565b61235481612aab565b82525050565b61236381612aab565b82525050565b600061237482612928565b61237e8185612940565b935061238983612918565b8060005b838110156123ba5781516123a18882612332565b97506123ac83612933565b92505060018101905061238d565b5085935050505092915050565b6123d081612abd565b82525050565b6123df81612abd565b82525050565b60006123f2602783612951565b91506123fd82612ba7565b604082019050919050565b6000612415602683612951565b915061242082612bf6565b604082019050919050565b6000612438602383612951565b915061244382612c45565b604082019050919050565b600061245b602a83612951565b915061246682612c94565b604082019050919050565b600061247e601a83612951565b915061248982612ce3565b602082019050919050565b60006124a1601383612951565b91506124ac82612d0c565b602082019050919050565b60006124c4601983612951565b91506124cf82612d35565b602082019050919050565b60006124e7602083612951565b91506124f282612d5e565b602082019050919050565b600061250a601783612951565b915061251582612d87565b602082019050919050565b600061252d603583612951565b915061253882612db0565b604082019050919050565b6000612550602483612951565b915061255b82612dff565b604082019050919050565b6000612573601b83612951565b915061257e82612e4e565b602082019050919050565b6000612596601f83612951565b91506125a182612e77565b602082019050919050565b610100820160008201516125c3600085018261264e565b5060208201516125d6602085018261234b565b5060408201516125e9604085018261264e565b5060608201516125fc606085018261234b565b50608082015161260f608085018261234b565b5060a082015161262260a085018261264e565b5060c082015161263560c085018261264e565b5060e082015161264860e08501826123c7565b50505050565b61265781612ae9565b82525050565b61266681612ae9565b82525050565b61267581612af3565b82525050565b6000602082019050612690600083018461235a565b92915050565b60006060820190506126ab600083018661235a565b6126b8602083018561235a565b6126c5604083018461265d565b949350505050565b600060a0820190506126e2600083018861235a565b6126ef602083018761235a565b6126fc604083018661265d565b612709606083018561265d565b61271660808301846123d6565b9695505050505050565b6000602082019050818103600083015261273a8184612369565b905092915050565b6000602082019050818103600083015261275b816123e5565b9050919050565b6000602082019050818103600083015261277b81612408565b9050919050565b6000602082019050818103600083015261279b8161242b565b9050919050565b600060208201905081810360008301526127bb8161244e565b9050919050565b600060208201905081810360008301526127db81612471565b9050919050565b600060208201905081810360008301526127fb81612494565b9050919050565b6000602082019050818103600083015261281b816124b7565b9050919050565b6000602082019050818103600083015261283b816124da565b9050919050565b6000602082019050818103600083015261285b816124fd565b9050919050565b6000602082019050818103600083015261287b81612520565b9050919050565b6000602082019050818103600083015261289b81612543565b9050919050565b600060208201905081810360008301526128bb81612566565b9050919050565b600060208201905081810360008301526128db81612589565b9050919050565b60006020820190506128f7600083018461265d565b92915050565b6000602082019050612912600083018461266c565b92915050565b6000819050602082019050919050565b600081519050919050565b6000602082019050919050565b600082825260208201905092915050565b600082825260208201905092915050565b600061296d82612ae9565b915061297883612ae9565b9250827fffffffffffffffffffffffffffffffffffffffffffffffffffffffffffffffff038211156129ad576129ac612b49565b5b828201905092915050565b60006129c382612ae9565b91506129ce83612ae9565b9250826129de576129dd612b78565b5b828204905092915050565b60006129f482612ae9565b91506129ff83612ae9565b9250817fffffffffffffffffffffffffffffffffffffffffffffffffffffffffffffffff0483118215151615612a3857612a37612b49565b5b828202905092915050565b6000612a4e82612ae9565b9150612a5983612ae9565b925082821015612a6c57612a6b612b49565b5b828203905092915050565b6000612a8282612af3565b9150612a8d83612af3565b925082821015612aa057612a9f612b49565b5b828203905092915050565b6000612ab682612ac9565b9050919050565b60008115159050919050565b600073ffffffffffffffffffffffffffffffffffffffff82169050919050565b6000819050919050565b600060ff82169050919050565b6000612b0b82612ae9565b91507fffffffffffffffffffffffffffffffffffffffffffffffffffffffffffffffff821415612b3e57612b3d612b49565b5b600182019050919050565b7f4e487b7100000000000000000000000000000000000000000000000000000000600052601160045260246000fd5b7f4e487b7100000000000000000000000000000000000000000000000000000000600052601260045260246000fd5b7f5a65726f20416464726573732063616e277420626520746865206f776e65722060008201527f6164647265737300000000000000000000000000000000000000000000000000602082015250565b7f4f776e61626c653a206e6577206f776e657220697320746865207a65726f206160008201527f6464726573730000000000000000000000000000000000000000000000000000602082015250565b7f42616c616e6365206f66206275796572206973206c657373207468616e20707260008201527f6963650000000000000000000000000000000000000000000000000000000000602082015250565b7f54686973206163636f756e74206973206e6f742073656c6c6572206f66206d6160008201527f726b6574206974656d2100000000000000000000000000000000000000000000602082015250565b7f4974656d2049642063616e2774206e6f74206265207a65726f21000000000000600082015250565b7f50726963652063616e2774206265207a65726f00000000000000000000000000600082015250565b7f54686973204974656d206973206e6f7420736f6c642079657400000000000000600082015250565b7f4f776e61626c653a2063616c6c6572206973206e6f7420746865206f776e6572600082015250565b7f557365722063616e27742062757920686973204e465421000000000000000000600082015250565b7f50657263656e74206f6620466565206d757374206265206c657373207468616e60008201527f20333025206f722063616e2774206265207a65726f0000000000000000000000602082015250565b7f54686973204e4654206973206e6f742061737369676e65642077697468204d6160008201527f726b657400000000000000000000000000000000000000000000000000000000602082015250565b7f54686973206974656d2077617320736f6c6420616c7265616479210000000000600082015250565b7f5265656e7472616e637947756172643a207265656e7472616e742063616c6c00600082015250565b612ea981612aab565b8114612eb457600080fd5b50565b612ec081612abd565b8114612ecb57600080fd5b50565b612ed781612ae9565b8114612ee257600080fd5b50565b612eee81612af3565b8114612ef957600080fd5b5056fea2646970667358221220dd13166b6c4933e4dcb56a47856c65ef2ce759679c4cd7a47db9addd22632dcf64736f6c63430008040033",
  "immutableReferences": {},
  "source": "// SPDX-License-Identifier: MIT\r\npragma solidity ^0.8.4;\r\nimport \"@openzeppelin/contracts/utils/Counters.sol\";\r\nimport \"@openzeppelin/contracts/token/ERC721/ERC721.sol\";\r\nimport \"@openzeppelin/contracts/security/ReentrancyGuard.sol\";\r\nimport \"@openzeppelin/contracts/access/Ownable.sol\";\r\nimport \"./interfaces/IMilkToken.sol\";\r\n\r\ncontract Market is ReentrancyGuard, Ownable {\r\n    using Counters for Counters.Counter;\r\n    Counters.Counter private _itemIds;\r\n    Counters.Counter private _itemSold;\r\n\r\n    IMilkToken tokenMilk;\r\n\r\n    address private ownerAddr;\r\n\r\n    struct MarketItem {\r\n        uint256 itemId;\r\n        address nftContract;\r\n        uint256 tokenId;\r\n        address seller;\r\n        address buyer;\r\n        uint256 price;\r\n        uint256 listedTime;\r\n        bool isSold;\r\n    }\r\n\r\n    uint8 public feePercent;\r\n\r\n    mapping(uint256 => MarketItem) private idToMarketItem;\r\n\r\n    event MarketItemCreated(\r\n        uint256 indexed itemId,\r\n        address indexed nftContract,\r\n        uint256 indexed tokenId,\r\n        address seller,\r\n        address owner,\r\n        uint256 price,\r\n        uint256 listedTime,\r\n        bool isSold\r\n    );\r\n\r\n    constructor(IMilkToken _tokenMilk, address _ownerAddr) {\r\n        tokenMilk = _tokenMilk;\r\n        feePercent = 10;\r\n        ownerAddr = _ownerAddr;\r\n    }\r\n\r\n    function setFeePercent(uint8 _feePercent) public onlyOwner {\r\n        require(\r\n            _feePercent <= 30 && _feePercent > 0,\r\n            \"Percent of Fee must be less than 30% or can't be zero\"\r\n        );\r\n        feePercent = _feePercent;\r\n    }\r\n\r\n    function setOwnerAddr(address _ownerAddr) public onlyOwner {\r\n        require(\r\n            _ownerAddr != address(0),\r\n            \"Zero Address can't be the owner address\"\r\n        );\r\n        ownerAddr = _ownerAddr;\r\n    }\r\n\r\n    function getOwnerAddr() public view onlyOwner returns (address) {\r\n        return ownerAddr;\r\n    }\r\n\r\n    function createMarketItem(\r\n        address nftContract,\r\n        uint256 tokenId,\r\n        uint256 price\r\n    ) public nonReentrant {\r\n        require(price > 0, \"Price can't be zero\");\r\n\r\n        _itemIds.increment();\r\n        uint256 itemId = _itemIds.current();\r\n\r\n        idToMarketItem[itemId] = MarketItem(\r\n            itemId,\r\n            nftContract,\r\n            tokenId,\r\n            msg.sender,\r\n            address(0),\r\n            price,\r\n            block.timestamp,\r\n            false\r\n        );\r\n\r\n        IERC721(nftContract).transferFrom(msg.sender, address(this), tokenId);\r\n\r\n        emit MarketItemCreated(\r\n            itemId,\r\n            nftContract,\r\n            tokenId,\r\n            msg.sender,\r\n            address(0),\r\n            price,\r\n            block.timestamp,\r\n            false\r\n        );\r\n    }\r\n\r\n    function unlistMarketItem(address nftContract, uint256 itemId)\r\n        public\r\n        nonReentrant\r\n    {\r\n        uint256 tokenId = idToMarketItem[itemId].tokenId;\r\n\r\n        require(itemId != 0, \"Item Id can't not be zero!\");\r\n\r\n        require(\r\n            msg.sender == idToMarketItem[itemId].seller,\r\n            \"This account is not seller of market item!\"\r\n        );\r\n\r\n        require(\r\n            nftContract == idToMarketItem[itemId].nftContract,\r\n            \"This NFT is not assigned with Market\"\r\n        );\r\n\r\n        require(\r\n            idToMarketItem[itemId].isSold != true &&\r\n                idToMarketItem[itemId].buyer == address(0),\r\n            \"This item was sold already!\"\r\n        );\r\n\r\n        IERC721(nftContract).transferFrom(address(this), msg.sender, tokenId);\r\n        idToMarketItem[itemId].buyer = msg.sender;\r\n        idToMarketItem[itemId].isSold = true;\r\n        _itemSold.increment();\r\n    }\r\n\r\n    function createMarketSale(address nftContract, uint256 itemId)\r\n        public\r\n        nonReentrant\r\n    {\r\n        uint256 price = idToMarketItem[itemId].price;\r\n        uint256 tokenId = idToMarketItem[itemId].tokenId;\r\n\r\n        require(\r\n            tokenMilk.balanceOf(msg.sender) >= price,\r\n            \"Balance of buyer is less than price\"\r\n        );\r\n\r\n        require(\r\n            msg.sender != idToMarketItem[itemId].seller,\r\n            \"User can't buy his NFT!\"\r\n        );\r\n\r\n        tokenMilk.transferFrom(\r\n            msg.sender,\r\n            idToMarketItem[itemId].seller,\r\n            (price * (100 - feePercent)) / 100\r\n        );\r\n\r\n        tokenMilk.transferFrom(\r\n            msg.sender,\r\n            ownerAddr,\r\n            (price * feePercent) / 100\r\n        );\r\n\r\n        IERC721(nftContract).transferFrom(address(this), msg.sender, tokenId);\r\n        idToMarketItem[itemId].buyer = msg.sender;\r\n        idToMarketItem[itemId].isSold = true;\r\n        _itemSold.increment();\r\n    }\r\n\r\n    function fetchMarketItems() public view returns (MarketItem[] memory) {\r\n        uint256 itemCount = _itemIds.current();\r\n        uint256 unsoldItemCount = _itemIds.current() - _itemSold.current();\r\n        uint256 currentIndex = 0;\r\n\r\n        MarketItem[] memory items = new MarketItem[](unsoldItemCount);\r\n\r\n        for (uint256 i = 0; i < itemCount; i++) {\r\n            if (idToMarketItem[i + 1].buyer == address(0)) {\r\n                uint256 currentId = i + 1;\r\n                MarketItem storage currentItem = idToMarketItem[currentId];\r\n                items[currentIndex] = currentItem;\r\n                currentIndex++;\r\n            }\r\n        }\r\n\r\n        return items;\r\n    }\r\n\r\n    function fetchMyNFTs() public view returns (MarketItem[] memory) {\r\n        uint256 totalItemCount = _itemIds.current();\r\n        uint256 itemCount = 0;\r\n        uint256 currentIndex = 0;\r\n\r\n        for (uint256 i = 0; i < totalItemCount; i++) {\r\n            if (idToMarketItem[i + 1].buyer == msg.sender) {\r\n                itemCount += 1;\r\n            }\r\n        }\r\n\r\n        MarketItem[] memory items = new MarketItem[](itemCount);\r\n\r\n        for (uint256 i = 0; i < totalItemCount; i++) {\r\n            if (idToMarketItem[i + 1].buyer == msg.sender) {\r\n                uint256 currentId = i + 1;\r\n                MarketItem storage currentItem = idToMarketItem[currentId];\r\n                items[currentIndex] = currentItem;\r\n                currentIndex += 1;\r\n            }\r\n        }\r\n\r\n        return items;\r\n    }\r\n\r\n    function fetchItemsCreated() public view returns (MarketItem[] memory) {\r\n        uint256 totalItemCount = _itemIds.current();\r\n        uint256 itemCount = 0;\r\n        uint256 currentIndex = 0;\r\n\r\n        for (uint256 i = 0; i < totalItemCount; i++) {\r\n            if (idToMarketItem[i + 1].seller == msg.sender) {\r\n                itemCount += 1;\r\n            }\r\n        }\r\n\r\n        MarketItem[] memory items = new MarketItem[](itemCount);\r\n\r\n        for (uint256 i = 0; i < totalItemCount; i++) {\r\n            if (idToMarketItem[i + 1].seller == msg.sender) {\r\n                uint256 currentId = i + 1;\r\n                MarketItem storage currentItem = idToMarketItem[currentId];\r\n                items[currentIndex] = currentItem;\r\n                currentIndex += 1;\r\n            }\r\n        }\r\n\r\n        return items;\r\n    }\r\n\r\n    function fetchSellerOfMarketItem(uint256 _marketId)\r\n        public\r\n        view\r\n        returns (address)\r\n    {\r\n        return idToMarketItem[_marketId].seller;\r\n    }\r\n\r\n    function fetchPriceOfMarketItem(uint256 _marketId)\r\n        public\r\n        view\r\n        returns (uint256)\r\n    {\r\n        return idToMarketItem[_marketId].price;\r\n    }\r\n\r\n    function fetchBuyerOfMarketItem(uint256 _marketId)\r\n        public\r\n        view\r\n        returns (address)\r\n    {\r\n        require(idToMarketItem[_marketId].isSold, \"This Item is not sold yet\");\r\n\r\n        return idToMarketItem[_marketId].buyer;\r\n    }\r\n}\r\n",
  "sourcePath": "C:\\_work\\nft-contracts\\contracts\\Market.sol",
  "compiler": {
    "name": "solc",
    "version": "0.8.4+commit.c7e474f2.Emscripten.clang"
  },
  "schemaVersion": "3.4.4",
  "updatedAt": "2021-12-21T16:00:56.112Z",
  "networkType": "ethereum",
  "devdoc": {
    "kind": "dev",
    "methods": {
      "owner()": {
        "details": "Returns the address of the current owner."
      },
      "renounceOwnership()": {
        "details": "Leaves the contract without owner. It will not be possible to call `onlyOwner` functions anymore. Can only be called by the current owner. NOTE: Renouncing ownership will leave the contract without an owner, thereby removing any functionality that is only available to the owner."
      },
      "transferOwnership(address)": {
        "details": "Transfers ownership of the contract to a new account (`newOwner`). Can only be called by the current owner."
      }
    },
    "version": 1
  },
  "userdoc": {
    "kind": "user",
    "methods": {},
    "version": 1
  }
}