{
  "contractName": "MilkToken",
  "abi": [
    {
      "inputs": [],
      "stateMutability": "nonpayable",
      "type": "constructor"
    },
    {
      "anonymous": false,
      "inputs": [
        {
          "indexed": true,
          "internalType": "address",
          "name": "owner",
          "type": "address"
        },
        {
          "indexed": true,
          "internalType": "address",
          "name": "spender",
          "type": "address"
        },
        {
          "indexed": false,
          "internalType": "uint256",
          "name": "value",
          "type": "uint256"
        }
      ],
      "name": "Approval",
      "type": "event"
    },
    {
      "anonymous": false,
      "inputs": [
        {
          "indexed": true,
          "internalType": "address",
          "name": "from",
          "type": "address"
        },
        {
          "indexed": true,
          "internalType": "address",
          "name": "to",
          "type": "address"
        },
        {
          "indexed": false,
          "internalType": "uint256",
          "name": "value",
          "type": "uint256"
        }
      ],
      "name": "Transfer",
      "type": "event"
    },
    {
      "inputs": [],
      "name": "_decimals",
      "outputs": [
        {
          "internalType": "uint8",
          "name": "",
          "type": "uint8"
        }
      ],
      "stateMutability": "view",
      "type": "function"
    },
    {
      "inputs": [],
      "name": "_name",
      "outputs": [
        {
          "internalType": "string",
          "name": "",
          "type": "string"
        }
      ],
      "stateMutability": "view",
      "type": "function"
    },
    {
      "inputs": [],
      "name": "_symbol",
      "outputs": [
        {
          "internalType": "string",
          "name": "",
          "type": "string"
        }
      ],
      "stateMutability": "view",
      "type": "function"
    },
    {
      "inputs": [],
      "name": "decimals",
      "outputs": [
        {
          "internalType": "uint8",
          "name": "",
          "type": "uint8"
        }
      ],
      "stateMutability": "view",
      "type": "function"
    },
    {
      "inputs": [],
      "name": "symbol",
      "outputs": [
        {
          "internalType": "string",
          "name": "",
          "type": "string"
        }
      ],
      "stateMutability": "view",
      "type": "function"
    },
    {
      "inputs": [],
      "name": "name",
      "outputs": [
        {
          "internalType": "string",
          "name": "",
          "type": "string"
        }
      ],
      "stateMutability": "view",
      "type": "function"
    },
    {
      "inputs": [],
      "name": "totalSupply",
      "outputs": [
        {
          "internalType": "uint256",
          "name": "",
          "type": "uint256"
        }
      ],
      "stateMutability": "view",
      "type": "function"
    },
    {
      "inputs": [
        {
          "internalType": "address",
          "name": "account",
          "type": "address"
        }
      ],
      "name": "balanceOf",
      "outputs": [
        {
          "internalType": "uint256",
          "name": "",
          "type": "uint256"
        }
      ],
      "stateMutability": "view",
      "type": "function"
    },
    {
      "inputs": [
        {
          "internalType": "address",
          "name": "_recipient",
          "type": "address"
        },
        {
          "internalType": "uint256",
          "name": "_amount",
          "type": "uint256"
        }
      ],
      "name": "transfer",
      "outputs": [
        {
          "internalType": "bool",
          "name": "",
          "type": "bool"
        }
      ],
      "stateMutability": "nonpayable",
      "type": "function"
    },
    {
      "inputs": [
        {
          "internalType": "address",
          "name": "_owner",
          "type": "address"
        },
        {
          "internalType": "address",
          "name": "_spender",
          "type": "address"
        }
      ],
      "name": "allowance",
      "outputs": [
        {
          "internalType": "uint256",
          "name": "",
          "type": "uint256"
        }
      ],
      "stateMutability": "view",
      "type": "function"
    },
    {
      "inputs": [
        {
          "internalType": "address",
          "name": "_spender",
          "type": "address"
        },
        {
          "internalType": "uint256",
          "name": "_amount",
          "type": "uint256"
        }
      ],
      "name": "approve",
      "outputs": [
        {
          "internalType": "bool",
          "name": "",
          "type": "bool"
        }
      ],
      "stateMutability": "nonpayable",
      "type": "function"
    },
    {
      "inputs": [
        {
          "internalType": "address",
          "name": "_sender",
          "type": "address"
        },
        {
          "internalType": "address",
          "name": "_recipient",
          "type": "address"
        },
        {
          "internalType": "uint256",
          "name": "_amount",
          "type": "uint256"
        }
      ],
      "name": "transferFrom",
      "outputs": [
        {
          "internalType": "bool",
          "name": "",
          "type": "bool"
        }
      ],
      "stateMutability": "nonpayable",
      "type": "function"
    },
    {
      "inputs": [
        {
          "internalType": "address",
          "name": "_spender",
          "type": "address"
        },
        {
          "internalType": "uint256",
          "name": "_addedValue",
          "type": "uint256"
        }
      ],
      "name": "increaseAllowance",
      "outputs": [
        {
          "internalType": "bool",
          "name": "",
          "type": "bool"
        }
      ],
      "stateMutability": "nonpayable",
      "type": "function"
    },
    {
      "inputs": [
        {
          "internalType": "address",
          "name": "_spender",
          "type": "address"
        },
        {
          "internalType": "uint256",
          "name": "_subtractedValue",
          "type": "uint256"
        }
      ],
      "name": "decreaseAllowance",
      "outputs": [
        {
          "internalType": "bool",
          "name": "",
          "type": "bool"
        }
      ],
      "stateMutability": "nonpayable",
      "type": "function"
    },
    {
      "inputs": [
        {
          "internalType": "uint256",
          "name": "_amount",
          "type": "uint256"
        }
      ],
      "name": "burn",
      "outputs": [],
      "stateMutability": "nonpayable",
      "type": "function"
    }
  ],
  "bytecode": "0x60806040523480156200001157600080fd5b506040518060400160405280600a81526020017f4d696c6b20546f6b656e00000000000000000000000000000000000000000000815250600390805190602001906200005f92919062000127565b506040518060400160405280600381526020017f4d4954000000000000000000000000000000000000000000000000000000000081525060049080519060200190620000ad92919062000127565b506012600560006101000a81548160ff021916908360ff1602179055506af8277896582678ac0000006002819055506002546000803373ffffffffffffffffffffffffffffffffffffffff1673ffffffffffffffffffffffffffffffffffffffff168152602001908152602001600020819055506200023c565b8280546200013590620001d7565b90600052602060002090601f016020900481019282620001595760008555620001a5565b82601f106200017457805160ff1916838001178555620001a5565b82800160010185558215620001a5579182015b82811115620001a457825182559160200191906001019062000187565b5b509050620001b49190620001b8565b5090565b5b80821115620001d3576000816000905550600101620001b9565b5090565b60006002820490506001821680620001f057607f821691505b602082108114156200020757620002066200020d565b5b50919050565b7f4e487b7100000000000000000000000000000000000000000000000000000000600052602260045260246000fd5b611584806200024c6000396000f3fe608060405234801561001057600080fd5b5060043610610112576000357c01000000000000000000000000000000000000000000000000000000009004806342966c68116100b4578063a9059cbb11610083578063a9059cbb146102b9578063b09f1266146102e9578063d28d885214610307578063dd62ed3e1461032557610112565b806342966c681461021f57806370a082311461023b57806395d89b411461026b578063a457c2d71461028957610112565b806323b872dd116100f057806323b872dd14610183578063313ce567146101b357806332424aa3146101d157806339509351146101ef57610112565b806306fdde0314610117578063095ea7b31461013557806318160ddd14610165575b600080fd5b61011f610355565b60405161012c919061111a565b60405180910390f35b61014f600480360381019061014a9190610f85565b6103e7565b60405161015c91906110ff565b60405180910390f35b61016d610405565b60405161017a91906111dc565b60405180910390f35b61019d60048036038101906101989190610f36565b61040f565b6040516101aa91906110ff565b60405180910390f35b6101bb6104c7565b6040516101c891906111f7565b60405180910390f35b6101d96104de565b6040516101e691906111f7565b60405180910390f35b61020960048036038101906102049190610f85565b6104f1565b60405161021691906110ff565b60405180910390f35b61023960048036038101906102349190610fc1565b61059d565b005b61025560048036038101906102509190610ed1565b6105b1565b60405161026291906111dc565b60405180910390f35b6102736105f9565b604051610280919061111a565b60405180910390f35b6102a3600480360381019061029e9190610f85565b61068b565b6040516102b091906110ff565b60405180910390f35b6102d360048036038101906102ce9190610f85565b610737565b6040516102e091906110ff565b60405180910390f35b6102f1610755565b6040516102fe919061111a565b60405180910390f35b61030f6107e3565b60405161031c919061111a565b60405180910390f35b61033f600480360381019061033a9190610efa565b610871565b60405161034c91906111dc565b60405180910390f35b60606003805461036490611340565b80601f016020809104026020016040519081016040528092919081815260200182805461039090611340565b80156103dd5780601f106103b2576101008083540402835291602001916103dd565b820191906000526020600020905b8154815290600101906020018083116103c057829003601f168201915b5050505050905090565b60006103fb6103f46108f8565b8484610900565b6001905092915050565b6000600254905090565b600061041c848484610acb565b6104bc846104286108f8565b84600160008973ffffffffffffffffffffffffffffffffffffffff1673ffffffffffffffffffffffffffffffffffffffff16815260200190815260200160002060006104726108f8565b73ffffffffffffffffffffffffffffffffffffffff1673ffffffffffffffffffffffffffffffffffffffff168152602001908152602001600020546104b79190611284565b610900565b600190509392505050565b6000600560009054906101000a900460ff16905090565b600560009054906101000a900460ff1681565b60006105936104fe6108f8565b84846001600061050c6108f8565b73ffffffffffffffffffffffffffffffffffffffff1673ffffffffffffffffffffffffffffffffffffffff16815260200190815260200160002060008873ffffffffffffffffffffffffffffffffffffffff1673ffffffffffffffffffffffffffffffffffffffff1681526020019081526020016000205461058e919061122e565b610900565b6001905092915050565b6105ae6105a86108f8565b82610d2d565b50565b60008060008373ffffffffffffffffffffffffffffffffffffffff1673ffffffffffffffffffffffffffffffffffffffff168152602001908152602001600020549050919050565b60606004805461060890611340565b80601f016020809104026020016040519081016040528092919081815260200182805461063490611340565b80156106815780601f1061065657610100808354040283529160200191610681565b820191906000526020600020905b81548152906001019060200180831161066457829003601f168201915b5050505050905090565b600061072d6106986108f8565b8484600160006106a66108f8565b73ffffffffffffffffffffffffffffffffffffffff1673ffffffffffffffffffffffffffffffffffffffff16815260200190815260200160002060008873ffffffffffffffffffffffffffffffffffffffff1673ffffffffffffffffffffffffffffffffffffffff168152602001908152602001600020546107289190611284565b610900565b6001905092915050565b600061074b6107446108f8565b8484610acb565b6001905092915050565b6004805461076290611340565b80601f016020809104026020016040519081016040528092919081815260200182805461078e90611340565b80156107db5780601f106107b0576101008083540402835291602001916107db565b820191906000526020600020905b8154815290600101906020018083116107be57829003601f168201915b505050505081565b600380546107f090611340565b80601f016020809104026020016040519081016040528092919081815260200182805461081c90611340565b80156108695780601f1061083e57610100808354040283529160200191610869565b820191906000526020600020905b81548152906001019060200180831161084c57829003601f168201915b505050505081565b6000600160008473ffffffffffffffffffffffffffffffffffffffff1673ffffffffffffffffffffffffffffffffffffffff16815260200190815260200160002060008373ffffffffffffffffffffffffffffffffffffffff1673ffffffffffffffffffffffffffffffffffffffff16815260200190815260200160002054905092915050565b600033905090565b600073ffffffffffffffffffffffffffffffffffffffff168373ffffffffffffffffffffffffffffffffffffffff161415610970576040517f08c379a00000000000000000000000000000000000000000000000000000000081526004016109679061119c565b60405180910390fd5b600073ffffffffffffffffffffffffffffffffffffffff168273ffffffffffffffffffffffffffffffffffffffff1614156109e0576040517f08c379a00000000000000000000000000000000000000000000000000000000081526004016109d79061115c565b60405180910390fd5b80600160008573ffffffffffffffffffffffffffffffffffffffff1673ffffffffffffffffffffffffffffffffffffffff16815260200190815260200160002060008473ffffffffffffffffffffffffffffffffffffffff1673ffffffffffffffffffffffffffffffffffffffff168152602001908152602001600020819055508173ffffffffffffffffffffffffffffffffffffffff168373ffffffffffffffffffffffffffffffffffffffff167f8c5be1e5ebec7d5bd14f71427d1e84f3dd0314c0f7b2291e5b200ac8c7c3b92583604051610abe91906111dc565b60405180910390a3505050565b600073ffffffffffffffffffffffffffffffffffffffff168373ffffffffffffffffffffffffffffffffffffffff161415610b3b576040517f08c379a0000000000000000000000000000000000000000000000000000000008152600401610b32906111bc565b60405180910390fd5b600073ffffffffffffffffffffffffffffffffffffffff168273ffffffffffffffffffffffffffffffffffffffff161415610bab576040517f08c379a0000000000000000000000000000000000000000000000000000000008152600401610ba29061113c565b60405180910390fd5b806000808573ffffffffffffffffffffffffffffffffffffffff1673ffffffffffffffffffffffffffffffffffffffff16815260200190815260200160002054610bf59190611284565b6000808573ffffffffffffffffffffffffffffffffffffffff1673ffffffffffffffffffffffffffffffffffffffff16815260200190815260200160002081905550806000808473ffffffffffffffffffffffffffffffffffffffff1673ffffffffffffffffffffffffffffffffffffffff16815260200190815260200160002054610c81919061122e565b6000808473ffffffffffffffffffffffffffffffffffffffff1673ffffffffffffffffffffffffffffffffffffffff168152602001908152602001600020819055508173ffffffffffffffffffffffffffffffffffffffff168373ffffffffffffffffffffffffffffffffffffffff167fddf252ad1be2c89b69c2b068fc378daa952ba7f163c4a11628f55a4df523b3ef83604051610d2091906111dc565b60405180910390a3505050565b600073ffffffffffffffffffffffffffffffffffffffff168273ffffffffffffffffffffffffffffffffffffffff161415610d9d576040517f08c379a0000000000000000000000000000000000000000000000000000000008152600401610d949061117c565b60405180910390fd5b806000808473ffffffffffffffffffffffffffffffffffffffff1673ffffffffffffffffffffffffffffffffffffffff16815260200190815260200160002054610de79190611284565b6000808473ffffffffffffffffffffffffffffffffffffffff1673ffffffffffffffffffffffffffffffffffffffff1681526020019081526020016000208190555080600254610e379190611284565b600281905550600073ffffffffffffffffffffffffffffffffffffffff168273ffffffffffffffffffffffffffffffffffffffff167fddf252ad1be2c89b69c2b068fc378daa952ba7f163c4a11628f55a4df523b3ef83604051610e9b91906111dc565b60405180910390a35050565b600081359050610eb681611520565b92915050565b600081359050610ecb81611537565b92915050565b600060208284031215610ee357600080fd5b6000610ef184828501610ea7565b91505092915050565b60008060408385031215610f0d57600080fd5b6000610f1b85828601610ea7565b9250506020610f2c85828601610ea7565b9150509250929050565b600080600060608486031215610f4b57600080fd5b6000610f5986828701610ea7565b9350506020610f6a86828701610ea7565b9250506040610f7b86828701610ebc565b9150509250925092565b60008060408385031215610f9857600080fd5b6000610fa685828601610ea7565b9250506020610fb785828601610ebc565b9150509250929050565b600060208284031215610fd357600080fd5b6000610fe184828501610ebc565b91505092915050565b610ff3816112ca565b82525050565b600061100482611212565b61100e818561121d565b935061101e81856020860161130d565b611027816113d0565b840191505092915050565b600061103f60218361121d565b915061104a826113e1565b604082019050919050565b600061106260208361121d565b915061106d82611430565b602082019050919050565b6000611085601f8361121d565b915061109082611459565b602082019050919050565b60006110a860228361121d565b91506110b382611482565b604082019050919050565b60006110cb60238361121d565b91506110d6826114d1565b604082019050919050565b6110ea816112f6565b82525050565b6110f981611300565b82525050565b60006020820190506111146000830184610fea565b92915050565b600060208201905081810360008301526111348184610ff9565b905092915050565b6000602082019050818103600083015261115581611032565b9050919050565b6000602082019050818103600083015261117581611055565b9050919050565b6000602082019050818103600083015261119581611078565b9050919050565b600060208201905081810360008301526111b58161109b565b9050919050565b600060208201905081810360008301526111d5816110be565b9050919050565b60006020820190506111f160008301846110e1565b92915050565b600060208201905061120c60008301846110f0565b92915050565b600081519050919050565b600082825260208201905092915050565b6000611239826112f6565b9150611244836112f6565b9250827fffffffffffffffffffffffffffffffffffffffffffffffffffffffffffffffff0382111561127957611278611372565b5b828201905092915050565b600061128f826112f6565b915061129a836112f6565b9250828210156112ad576112ac611372565b5b828203905092915050565b60006112c3826112d6565b9050919050565b60008115159050919050565b600073ffffffffffffffffffffffffffffffffffffffff82169050919050565b6000819050919050565b600060ff82169050919050565b60005b8381101561132b578082015181840152602081019050611310565b8381111561133a576000848401525b50505050565b6000600282049050600182168061135857607f821691505b6020821081141561136c5761136b6113a1565b5b50919050565b7f4e487b7100000000000000000000000000000000000000000000000000000000600052601160045260246000fd5b7f4e487b7100000000000000000000000000000000000000000000000000000000600052602260045260246000fd5b6000601f19601f8301169050919050565b7f4d49543a207472616e7366657220746f20746865207a65726f2061646472657360008201527f7300000000000000000000000000000000000000000000000000000000000000602082015250565b7f4d49543a20617070726f766520746f20746865207a65726f2061646472657373600082015250565b7f4d49543a206275726e2066726f6d20746865207a65726f206164647265737300600082015250565b7f4d49543a20617070726f76652066726f6d20746865207a65726f20616464726560008201527f7373000000000000000000000000000000000000000000000000000000000000602082015250565b7f4d49543a207472616e736665722066726f6d20746865207a65726f206164647260008201527f6573730000000000000000000000000000000000000000000000000000000000602082015250565b611529816112b8565b811461153457600080fd5b50565b611540816112f6565b811461154b57600080fd5b5056fea2646970667358221220a68f61e923b130e334ff412be906a2cce686244779207e355352504c14a0cd5164736f6c63430008040033",
  "immutableReferences": {},
  "source": "// SPDX-License-Identifier: MIT\r\npragma solidity ^0.8.4;\r\n\r\nimport \"@openzeppelin/contracts/utils/Context.sol\";\r\nimport \"./interfaces/IMilkToken.sol\";\r\n\r\ncontract MilkToken is Context, IMilkToken {\r\n    mapping(address => uint256) private _balances;\r\n    mapping(address => mapping(address => uint256)) private _allowances;\r\n\r\n    uint256 private _totalSupply;\r\n    string public _name;\r\n    string public _symbol;\r\n    uint8 public _decimals;\r\n\r\n    constructor() {\r\n        _name = \"Milk Token\";\r\n        _symbol = \"MIT\";\r\n        _decimals = 18;\r\n        _totalSupply = 3 * 10**8 * 10**18; // 500m\r\n        _balances[msg.sender] = _totalSupply;\r\n    }\r\n\r\n    /**\r\n     * @dev Returns the token decimals.\r\n     */\r\n    function decimals() external view virtual override returns (uint8) {\r\n        return _decimals;\r\n    }\r\n\r\n    /**\r\n     * @dev Returns the token symbol.\r\n     */\r\n    function symbol() external view virtual override returns (string memory) {\r\n        return _symbol;\r\n    }\r\n\r\n    /**\r\n     * @dev Returns the token name.\r\n     */\r\n    function name() external view virtual override returns (string memory) {\r\n        return _name;\r\n    }\r\n\r\n    /**\r\n     * @dev See total supply of token.\r\n     */\r\n    function totalSupply() external view virtual override returns (uint256) {\r\n        return _totalSupply;\r\n    }\r\n\r\n    /**\r\n     * @dev See balance of account.\r\n     */\r\n    function balanceOf(address account)\r\n        external\r\n        view\r\n        virtual\r\n        override\r\n        returns (uint256)\r\n    {\r\n        return _balances[account];\r\n    }\r\n\r\n    /**\r\n     * @dev transfer token from msg.sender to recipient\r\n     * @param _recipient address of account to receive token,\r\n     *                   where it cannot be zero\r\n     * @param _amount amount of token to transfer\r\n     */\r\n    function transfer(address _recipient, uint256 _amount)\r\n        external\r\n        override\r\n        returns (bool)\r\n    {\r\n        _transfer(_msgSender(), _recipient, _amount);\r\n        return true;\r\n    }\r\n\r\n    /**\r\n     * @dev get allowance spender by owner\r\n     * @param _owner owner of token\r\n     * @param _spender account to be approved.\r\n     */\r\n    function allowance(address _owner, address _spender)\r\n        external\r\n        view\r\n        override\r\n        returns (uint256)\r\n    {\r\n        return _allowances[_owner][_spender];\r\n    }\r\n\r\n    /**\r\n     * @dev approve spender by owner\r\n     * @param _spender account to be approved\r\n     * @param _amount amount to transfer\r\n     */\r\n    function approve(address _spender, uint256 _amount)\r\n        external\r\n        override\r\n        returns (bool)\r\n    {\r\n        _approve(_msgSender(), _spender, _amount);\r\n        return true;\r\n    }\r\n\r\n    /**\r\n     * @dev transfer token from _sender to _recipient and update allowance\r\n     */\r\n    function transferFrom(\r\n        address _sender,\r\n        address _recipient,\r\n        uint256 _amount\r\n    ) external override returns (bool) {\r\n        _transfer(_sender, _recipient, _amount);\r\n        _approve(\r\n            _sender,\r\n            _msgSender(),\r\n            (_allowances[_sender][_msgSender()] - _amount)\r\n        );\r\n        return true;\r\n    }\r\n\r\n    /**\r\n     * @dev Atomically increases the allowance granted to `spender` by the caller.\r\n     *\r\n     * This is an alternative to {approve} that can be used as a mitigation for\r\n     * problems described in {BEP20-approve}.\r\n     *\r\n     * Emits an {Approval} event indicating the updated allowance.\r\n     */\r\n    function increaseAllowance(address _spender, uint256 _addedValue)\r\n        public\r\n        returns (bool)\r\n    {\r\n        _approve(\r\n            _msgSender(),\r\n            _spender,\r\n            _allowances[_msgSender()][_spender] + _addedValue\r\n        );\r\n        return true;\r\n    }\r\n\r\n    /**\r\n     * @dev Atomically decreases the allowance granted to `spender` by the caller.\r\n     *\r\n     * This is an alternative to {approve} that can be used as a mitigation for\r\n     * problems described in {BEP20-approve}.\r\n     *\r\n     * Emits an {Approval} event indicating the updated allowance.\r\n     */\r\n    function decreaseAllowance(address _spender, uint256 _subtractedValue)\r\n        public\r\n        returns (bool)\r\n    {\r\n        _approve(\r\n            _msgSender(),\r\n            _spender,\r\n            (_allowances[_msgSender()][_spender] - _subtractedValue)\r\n        );\r\n        return true;\r\n    }\r\n\r\n    /**\r\n     * @dev Destroys `_amount` tokens from the caller.\r\n     */\r\n    function burn(uint256 _amount) public virtual {\r\n        _burn(_msgSender(), _amount);\r\n    }\r\n\r\n    /**\r\n     * @dev Moves tokens `amount` from `sender` to `recipient`.\r\n     *\r\n     * This is internal function is equivalent to {transfer}, and can be used to\r\n     * e.g. implement automatic token fees, slashing mechanisms, etc.\r\n     *\r\n     * Emits a {Transfer} event.\r\n     *\r\n     * Requirements:\r\n     *\r\n     * - `sender` cannot be the zero address.\r\n     * - `recipient` cannot be the zero address.\r\n     * - `sender` must have a balance of at least `amount`.\r\n     */\r\n    function _transfer(\r\n        address _sender,\r\n        address _recipient,\r\n        uint256 _amount\r\n    ) internal {\r\n        require(_sender != address(0), \"MIT: transfer from the zero address\");\r\n        require(_recipient != address(0), \"MIT: transfer to the zero address\");\r\n\r\n        _balances[_sender] = _balances[_sender] - _amount;\r\n        _balances[_recipient] = _balances[_recipient] + _amount;\r\n        emit Transfer(_sender, _recipient, _amount);\r\n    }\r\n\r\n    /**\r\n     * @dev Destroys `amount` tokens from `_account`, reducing the\r\n     * total supply.\r\n     *\r\n     * Emits a {Transfer} event with `to` set to the zero address.\r\n     *\r\n     * Requirements\r\n     *\r\n     * - `_account` cannot be the zero address.\r\n     * - `_account` must have at least `_amount` tokens.\r\n     */\r\n    function _burn(address _account, uint256 _amount) internal {\r\n        require(_account != address(0), \"MIT: burn from the zero address\");\r\n\r\n        _balances[_account] = _balances[_account] - _amount;\r\n        _totalSupply = _totalSupply - _amount;\r\n        emit Transfer(_account, address(0), _amount);\r\n    }\r\n\r\n    /**\r\n     * @dev Sets `_amount` as the allowance of `spender` over the `_owner`s tokens.\r\n     *\r\n     * This is internal function is equivalent to `approve`, and can be used to\r\n     * e.g. set automatic allowances for certain subsystems, etc.\r\n     *\r\n     * Emits an {Approval} event.\r\n     *\r\n     * Requirements:\r\n     *\r\n     * - `_owner` cannot be the zero address.\r\n     * - `_spender` cannot be the zero address.\r\n     */\r\n    function _approve(\r\n        address _owner,\r\n        address _spender,\r\n        uint256 _amount\r\n    ) internal {\r\n        require(_owner != address(0), \"MIT: approve from the zero address\");\r\n        require(_spender != address(0), \"MIT: approve to the zero address\");\r\n\r\n        _allowances[_owner][_spender] = _amount;\r\n        emit Approval(_owner, _spender, _amount);\r\n    }\r\n}\r\n",
  "sourcePath": "C:\\_work\\nft-contracts\\contracts\\MilkToken.sol",
  "compiler": {
    "name": "solc",
    "version": "0.8.4+commit.c7e474f2.Emscripten.clang"
  },
  "schemaVersion": "3.4.4",
  "updatedAt": "2021-12-21T15:59:45.566Z",
  "devdoc": {
    "kind": "dev",
    "methods": {
      "allowance(address,address)": {
        "details": "get allowance spender by owner",
        "params": {
          "_owner": "owner of token",
          "_spender": "account to be approved."
        }
      },
      "approve(address,uint256)": {
        "details": "approve spender by owner",
        "params": {
          "_amount": "amount to transfer",
          "_spender": "account to be approved"
        }
      },
      "balanceOf(address)": {
        "details": "See balance of account."
      },
      "burn(uint256)": {
        "details": "Destroys `_amount` tokens from the caller."
      },
      "decimals()": {
        "details": "Returns the token decimals."
      },
      "decreaseAllowance(address,uint256)": {
        "details": "Atomically decreases the allowance granted to `spender` by the caller. This is an alternative to {approve} that can be used as a mitigation for problems described in {BEP20-approve}. Emits an {Approval} event indicating the updated allowance."
      },
      "increaseAllowance(address,uint256)": {
        "details": "Atomically increases the allowance granted to `spender` by the caller. This is an alternative to {approve} that can be used as a mitigation for problems described in {BEP20-approve}. Emits an {Approval} event indicating the updated allowance."
      },
      "name()": {
        "details": "Returns the token name."
      },
      "symbol()": {
        "details": "Returns the token symbol."
      },
      "totalSupply()": {
        "details": "See total supply of token."
      },
      "transfer(address,uint256)": {
        "details": "transfer token from msg.sender to recipient",
        "params": {
          "_amount": "amount of token to transfer",
          "_recipient": "address of account to receive token,                   where it cannot be zero"
        }
      },
      "transferFrom(address,address,uint256)": {
        "details": "transfer token from _sender to _recipient and update allowance"
      }
    },
    "version": 1
  },
  "userdoc": {
    "kind": "user",
    "methods": {},
    "version": 1
  }
}