{
  "contractName": "Breeding",
  "abi": [
    {
      "anonymous": false,
      "inputs": [
        {
          "indexed": false,
          "internalType": "uint256",
          "name": "_cowTokenId",
          "type": "uint256"
        },
        {
          "indexed": false,
          "internalType": "uint256",
          "name": "_bullTokenId",
          "type": "uint256"
        },
        {
          "indexed": false,
          "internalType": "address",
          "name": "_owner",
          "type": "address"
        }
      ],
      "name": "Breed",
      "type": "event"
    },
    {
      "anonymous": false,
      "inputs": [
        {
          "indexed": false,
          "internalType": "address",
          "name": "_owner",
          "type": "address"
        },
        {
          "indexed": false,
          "internalType": "uint256",
          "name": "_cowTokenId",
          "type": "uint256"
        },
        {
          "indexed": false,
          "internalType": "uint256",
          "name": "_bullTokenId",
          "type": "uint256"
        }
      ],
      "name": "ClaimedNewCattle",
      "type": "event"
    },
    {
      "anonymous": false,
      "inputs": [
        {
          "indexed": true,
          "internalType": "address",
          "name": "previousOwner",
          "type": "address"
        },
        {
          "indexed": true,
          "internalType": "address",
          "name": "newOwner",
          "type": "address"
        }
      ],
      "name": "OwnershipTransferred",
      "type": "event"
    },
    {
      "anonymous": false,
      "inputs": [
        {
          "indexed": false,
          "internalType": "address",
          "name": "owner",
          "type": "address"
        },
        {
          "indexed": false,
          "internalType": "uint256",
          "name": "tokenId",
          "type": "uint256"
        }
      ],
      "name": "StakeBull",
      "type": "event"
    },
    {
      "anonymous": false,
      "inputs": [
        {
          "indexed": false,
          "internalType": "address",
          "name": "owner",
          "type": "address"
        },
        {
          "indexed": false,
          "internalType": "uint256",
          "name": "tokenId",
          "type": "uint256"
        }
      ],
      "name": "StakeCow",
      "type": "event"
    },
    {
      "inputs": [
        {
          "internalType": "uint256",
          "name": "",
          "type": "uint256"
        }
      ],
      "name": "baseRecoveryTime",
      "outputs": [
        {
          "internalType": "uint256",
          "name": "",
          "type": "uint256"
        }
      ],
      "stateMutability": "view",
      "type": "function",
      "constant": true
    },
    {
      "inputs": [],
      "name": "breedingPrice",
      "outputs": [
        {
          "internalType": "uint256",
          "name": "",
          "type": "uint256"
        }
      ],
      "stateMutability": "view",
      "type": "function",
      "constant": true
    },
    {
      "inputs": [
        {
          "internalType": "uint256",
          "name": "",
          "type": "uint256"
        }
      ],
      "name": "breedingVaults",
      "outputs": [
        {
          "internalType": "uint256",
          "name": "cowTokenId",
          "type": "uint256"
        },
        {
          "internalType": "uint256",
          "name": "rarity",
          "type": "uint256"
        },
        {
          "internalType": "uint256",
          "name": "cowBreed",
          "type": "uint256"
        },
        {
          "internalType": "uint256",
          "name": "bullTokenId",
          "type": "uint256"
        },
        {
          "internalType": "uint256",
          "name": "bullBreed",
          "type": "uint256"
        },
        {
          "internalType": "uint256",
          "name": "unlockTime",
          "type": "uint256"
        },
        {
          "internalType": "address",
          "name": "owner",
          "type": "address"
        }
      ],
      "stateMutability": "view",
      "type": "function",
      "constant": true
    },
    {
      "inputs": [],
      "name": "maxRecoveryTime",
      "outputs": [
        {
          "internalType": "uint256",
          "name": "",
          "type": "uint256"
        }
      ],
      "stateMutability": "view",
      "type": "function",
      "constant": true
    },
    {
      "inputs": [],
      "name": "minterAddr",
      "outputs": [
        {
          "internalType": "address",
          "name": "",
          "type": "address"
        }
      ],
      "stateMutability": "view",
      "type": "function",
      "constant": true
    },
    {
      "inputs": [],
      "name": "owner",
      "outputs": [
        {
          "internalType": "address",
          "name": "",
          "type": "address"
        }
      ],
      "stateMutability": "view",
      "type": "function",
      "constant": true
    },
    {
      "inputs": [],
      "name": "renounceOwnership",
      "outputs": [],
      "stateMutability": "nonpayable",
      "type": "function"
    },
    {
      "inputs": [
        {
          "internalType": "address",
          "name": "newOwner",
          "type": "address"
        }
      ],
      "name": "transferOwnership",
      "outputs": [],
      "stateMutability": "nonpayable",
      "type": "function"
    },
    {
      "inputs": [
        {
          "internalType": "address",
          "name": "",
          "type": "address"
        },
        {
          "internalType": "uint256",
          "name": "",
          "type": "uint256"
        }
      ],
      "name": "userBulls",
      "outputs": [
        {
          "internalType": "uint256",
          "name": "",
          "type": "uint256"
        }
      ],
      "stateMutability": "view",
      "type": "function",
      "constant": true
    },
    {
      "inputs": [
        {
          "internalType": "address",
          "name": "",
          "type": "address"
        },
        {
          "internalType": "uint256",
          "name": "",
          "type": "uint256"
        }
      ],
      "name": "userCows",
      "outputs": [
        {
          "internalType": "uint256",
          "name": "",
          "type": "uint256"
        }
      ],
      "stateMutability": "view",
      "type": "function",
      "constant": true
    },
    {
      "inputs": [
        {
          "internalType": "address",
          "name": "_minterAddr",
          "type": "address"
        }
      ],
      "name": "initialize",
      "outputs": [],
      "stateMutability": "nonpayable",
      "type": "function"
    },
    {
      "inputs": [
        {
          "internalType": "uint256",
          "name": "tokenId",
          "type": "uint256"
        }
      ],
      "name": "stakeCow",
      "outputs": [],
      "stateMutability": "nonpayable",
      "type": "function"
    },
    {
      "inputs": [
        {
          "internalType": "uint256",
          "name": "tokenId",
          "type": "uint256"
        }
      ],
      "name": "stakeBull",
      "outputs": [],
      "stateMutability": "nonpayable",
      "type": "function"
    },
    {
      "inputs": [
        {
          "internalType": "uint256",
          "name": "tokenId",
          "type": "uint256"
        }
      ],
      "name": "unStakeCow",
      "outputs": [],
      "stateMutability": "nonpayable",
      "type": "function"
    },
    {
      "inputs": [
        {
          "internalType": "uint256",
          "name": "tokenId",
          "type": "uint256"
        }
      ],
      "name": "unStakeBull",
      "outputs": [],
      "stateMutability": "nonpayable",
      "type": "function"
    },
    {
      "inputs": [
        {
          "internalType": "uint256",
          "name": "_cowTokenId",
          "type": "uint256"
        },
        {
          "internalType": "uint256",
          "name": "_bullTokenId",
          "type": "uint256"
        }
      ],
      "name": "breed",
      "outputs": [],
      "stateMutability": "nonpayable",
      "type": "function"
    },
    {
      "inputs": [
        {
          "internalType": "uint256",
          "name": "_bullTokenId",
          "type": "uint256"
        }
      ],
      "name": "claimCattle",
      "outputs": [],
      "stateMutability": "nonpayable",
      "type": "function"
    },
    {
      "inputs": [
        {
          "internalType": "uint256",
          "name": "_price",
          "type": "uint256"
        }
      ],
      "name": "setBreedingPrice",
      "outputs": [],
      "stateMutability": "nonpayable",
      "type": "function"
    },
    {
      "inputs": [],
      "name": "withdrawMilk",
      "outputs": [],
      "stateMutability": "nonpayable",
      "type": "function"
    },
    {
      "inputs": [
        {
          "internalType": "address",
          "name": "userAddress",
          "type": "address"
        }
      ],
      "name": "getBreedingItems",
      "outputs": [
        {
          "internalType": "uint256[]",
          "name": "",
          "type": "uint256[]"
        },
        {
          "internalType": "uint256[]",
          "name": "",
          "type": "uint256[]"
        },
        {
          "internalType": "uint256[]",
          "name": "",
          "type": "uint256[]"
        },
        {
          "internalType": "uint256[]",
          "name": "",
          "type": "uint256[]"
        },
        {
          "internalType": "uint256[]",
          "name": "",
          "type": "uint256[]"
        },
        {
          "internalType": "uint256[]",
          "name": "",
          "type": "uint256[]"
        }
      ],
      "stateMutability": "view",
      "type": "function",
      "constant": true
    },
    {
      "inputs": [
        {
          "internalType": "uint256",
          "name": "_rarityP",
          "type": "uint256"
        },
        {
          "internalType": "uint256",
          "name": "_breedP",
          "type": "uint256"
        },
        {
          "internalType": "uint256",
          "name": "_cowP",
          "type": "uint256"
        }
      ],
      "name": "setProbabilities",
      "outputs": [],
      "stateMutability": "nonpayable",
      "type": "function"
    },
    {
      "inputs": [
        {
          "internalType": "uint256",
          "name": "_breedingIdx",
          "type": "uint256"
        }
      ],
      "name": "cancelBreeding",
      "outputs": [],
      "stateMutability": "nonpayable",
      "type": "function"
    },
    {
      "inputs": [
        {
          "internalType": "address",
          "name": "_owner",
          "type": "address"
        }
      ],
      "name": "getUserStakedCows",
      "outputs": [
        {
          "internalType": "uint256[]",
          "name": "",
          "type": "uint256[]"
        }
      ],
      "stateMutability": "view",
      "type": "function",
      "constant": true
    },
    {
      "inputs": [
        {
          "internalType": "address",
          "name": "_owner",
          "type": "address"
        }
      ],
      "name": "getUserStakedBulls",
      "outputs": [
        {
          "internalType": "uint256[]",
          "name": "",
          "type": "uint256[]"
        }
      ],
      "stateMutability": "view",
      "type": "function",
      "constant": true
    }
  ],
  "bytecode": "0x60806040523480156200001157600080fd5b5060016000819055506200003a6200002e6200004060201b60201c565b6200004860201b60201c565b6200010e565b600033905090565b6000600160009054906101000a900473ffffffffffffffffffffffffffffffffffffffff16905081600160006101000a81548173ffffffffffffffffffffffffffffffffffffffff021916908373ffffffffffffffffffffffffffffffffffffffff1602179055508173ffffffffffffffffffffffffffffffffffffffff168173ffffffffffffffffffffffffffffffffffffffff167f8be0079c531659141344cd1fd0a4f28419497f9722a3daafe3b4186f6b6457e060405160405180910390a35050565b6140f1806200011e6000396000f3fe608060405234801561001057600080fd5b50600436106101585760003560e01c80639409950a116100c3578063c4d66de81161007c578063c4d66de8146103b4578063d69a57b5146103d0578063d9ecad7b146103ec578063db71fed714610408578063f2fde38b14610426578063f95998d31461044257610158565b80639409950a146102df5780639564dfae146103145780639bd191eb146103305780639c2d14d51461034c578063a7032e2214610368578063b8bc818f1461039857610158565b806347a0a0be1161011557806347a0a0be146102435780636411140a14610273578063715018a614610291578063817aa4611461029b5780638aeb7389146102b75780638da5cb5b146102c157610158565b806308187ac71461015d57806309d49a251461018d5780630b71f01c146101a9578063176210cf146101c757806320ae6fd1146101e357806320f4cd8114610213575b600080fd5b610177600480360381019061017291906130db565b610478565b6040516101849190613117565b60405180910390f35b6101a760048036038101906101a29190613132565b610493565b005b6101b1610529565b6040516101be9190613117565b60405180910390f35b6101e160048036038101906101dc91906130db565b61052f565b005b6101fd60048036038101906101f891906131e3565b6106e2565b60405161020a91906132ce565b60405180910390f35b61022d600480360381019061022891906132f0565b610779565b60405161023a9190613117565b60405180910390f35b61025d600480360381019061025891906132f0565b6107aa565b60405161026a9190613117565b60405180910390f35b61027b6107db565b6040516102889190613117565b60405180910390f35b6102996107e1565b005b6102b560048036038101906102b091906130db565b610869565b005b6102bf610fae565b005b6102c9611152565b6040516102d6919061333f565b60405180910390f35b6102f960048036038101906102f491906131e3565b61117c565b60405161030b9695949392919061335a565b60405180910390f35b61032e600480360381019061032991906130db565b611671565b005b61034a600480360381019061034591906130db565b6116f7565b005b610366600480360381019061036191906130db565b6118aa565b005b610382600480360381019061037d91906131e3565b611e28565b60405161038f91906132ce565b60405180910390f35b6103b260048036038101906103ad91906130db565b611ebf565b005b6103ce60048036038101906103c991906131e3565b6120d0565b005b6103ea60048036038101906103e591906130db565b612311565b005b610406600480360381019061040191906133e5565b612522565b005b610410612d39565b60405161041d919061333f565b60405180910390f35b610440600480360381019061043b91906131e3565b612d5f565b005b61045c600480360381019061045791906130db565b612e57565b60405161046f9796959493929190613425565b60405180910390f35b6006816005811061048857600080fd5b016000915090505481565b61049b612ec9565b73ffffffffffffffffffffffffffffffffffffffff166104b9611152565b73ffffffffffffffffffffffffffffffffffffffff161461050f576040517f08c379a0000000000000000000000000000000000000000000000000000000008152600401610506906134f1565b60405180910390fd5b82600c8190555081600d8190555080600e81905550505050565b60055481565b60003390506000600360009054906101000a900473ffffffffffffffffffffffffffffffffffffffff16905060008173ffffffffffffffffffffffffffffffffffffffff1663549a1ab26040518163ffffffff1660e01b8152600401602060405180830381865afa1580156105a8573d6000803e3d6000fd5b505050506040513d601f19601f820116820180604052508101906105cc9190613526565b90508073ffffffffffffffffffffffffffffffffffffffff166323b872dd8430876040518463ffffffff1660e01b815260040161060b93929190613553565b600060405180830381600087803b15801561062557600080fd5b505af1158015610639573d6000803e3d6000fd5b50505050601060008473ffffffffffffffffffffffffffffffffffffffff1673ffffffffffffffffffffffffffffffffffffffff1681526020019081526020016000208490806001815401808255809150506001900390600052602060002001600090919091909150557f05edfa1d362394cbeadbf8617ecad12d51856343b88d3b9d0538c9061d576b7083856040516106d492919061358a565b60405180910390a150505050565b6060601060008373ffffffffffffffffffffffffffffffffffffffff1673ffffffffffffffffffffffffffffffffffffffff16815260200190815260200160002080548060200260200160405190810160405280929190818152602001828054801561076d57602002820191906000526020600020905b815481526020019060010190808311610759575b50505050509050919050565b600f602052816000526040600020818154811061079557600080fd5b90600052602060002001600091509150505481565b601060205281600052604060002081815481106107c657600080fd5b90600052602060002001600091509150505481565b600b5481565b6107e9612ec9565b73ffffffffffffffffffffffffffffffffffffffff16610807611152565b73ffffffffffffffffffffffffffffffffffffffff161461085d576040517f08c379a0000000000000000000000000000000000000000000000000000000008152600401610854906134f1565b60405180910390fd5b6108676000612ed1565b565b600061087482612f97565b905060006004828154811061088c5761088b6135b3565b5b906000526020600020906007020160060160009054906101000a900473ffffffffffffffffffffffffffffffffffffffff1690506000600483815481106108d6576108d56135b3565b5b90600052602060002090600702016000015490503373ffffffffffffffffffffffffffffffffffffffff168273ffffffffffffffffffffffffffffffffffffffff1614610958576040517f08c379a000000000000000000000000000000000000000000000000000000000815260040161094f9061362e565b60405180910390fd5b6004838154811061096c5761096b6135b3565b5b90600052602060002090600702016005015442116109bf576040517f08c379a00000000000000000000000000000000000000000000000000000000081526004016109b69061369a565b60405180910390fd5b6000600360009054906101000a900473ffffffffffffffffffffffffffffffffffffffff16905060008173ffffffffffffffffffffffffffffffffffffffff1663970844456040518163ffffffff1660e01b8152600401602060405180830381865afa158015610a33573d6000803e3d6000fd5b505050506040513d601f19601f82011682018060405250810190610a579190613526565b905060008173ffffffffffffffffffffffffffffffffffffffff166368ba0bcf856040518263ffffffff1660e01b8152600401610a949190613117565b606060405180830381865afa158015610ab1573d6000803e3d6000fd5b505050506040513d601f19601f82011682018060405250810190610ad591906137fd565b905060008373ffffffffffffffffffffffffffffffffffffffff1663549a1ab26040518163ffffffff1660e01b8152600401602060405180830381865afa158015610b24573d6000803e3d6000fd5b505050506040513d601f19601f82011682018060405250810190610b489190613526565b905060008173ffffffffffffffffffffffffffffffffffffffff166368ba0bcf8a6040518263ffffffff1660e01b8152600401610b859190613117565b606060405180830381865afa158015610ba2573d6000803e3d6000fd5b505050506040513d601f19601f82011682018060405250810190610bc6919061388e565b9050600080826020015190506000610bde6064613003565b9050600c54811080610bf757506004846000015160ff16145b15610c085783600001519250610c1c565b60018460000151610c1991906138ea565b92505b600d54811015610c2e57856020015191505b600e54811015610cac578773ffffffffffffffffffffffffffffffffffffffff1663571dc7b88b85856040518463ffffffff1660e01b8152600401610c7593929190613930565b600060405180830381600087803b158015610c8f57600080fd5b505af1158015610ca3573d6000803e3d6000fd5b50505050610d1c565b8773ffffffffffffffffffffffffffffffffffffffff16639e1686678b85856040518463ffffffff1660e01b8152600401610ce993929190613930565b600060405180830381600087803b158015610d0357600080fd5b505af1158015610d17573d6000803e3d6000fd5b505050505b600f60008b73ffffffffffffffffffffffffffffffffffffffff1673ffffffffffffffffffffffffffffffffffffffff168152602001908152602001600020899080600181540180825580915050600190039060005260206000200160009091909190915055601060008b73ffffffffffffffffffffffffffffffffffffffff1673ffffffffffffffffffffffffffffffffffffffff1681526020019081526020016000208c90806001815401808255809150506001900390600052602060002001600090919091909150557f29ff51ec65c3624cd2121704cf2daacf509b10d7d22076e560d45c327b60923d8a8a8e604051610e1b93929190613967565b60405180910390a160046001600480549050610e37919061399e565b81548110610e4857610e476135b3565b5b906000526020600020906007020160048c81548110610e6a57610e696135b3565b5b90600052602060002090600702016000820154816000015560018201548160010155600282015481600201556003820154816003015560048201548160040155600582015481600501556006820160009054906101000a900473ffffffffffffffffffffffffffffffffffffffff168160060160006101000a81548173ffffffffffffffffffffffffffffffffffffffff021916908373ffffffffffffffffffffffffffffffffffffffff1602179055509050506004805480610f3057610f2f6139d2565b5b6001900381819060005260206000209060070201600080820160009055600182016000905560028201600090556003820160009055600482016000905560058201600090556006820160006101000a81549073ffffffffffffffffffffffffffffffffffffffff021916905550509055505050505050505050505050565b610fb6612ec9565b73ffffffffffffffffffffffffffffffffffffffff16610fd4611152565b73ffffffffffffffffffffffffffffffffffffffff161461102a576040517f08c379a0000000000000000000000000000000000000000000000000000000008152600401611021906134f1565b60405180910390fd5b6000600260009054906101000a900473ffffffffffffffffffffffffffffffffffffffff16905060008173ffffffffffffffffffffffffffffffffffffffff166370a08231306040518263ffffffff1660e01b815260040161108c919061333f565b602060405180830381865afa1580156110a9573d6000803e3d6000fd5b505050506040513d601f19601f820116820180604052508101906110cd9190613a01565b90508173ffffffffffffffffffffffffffffffffffffffff1663a9059cbb33836040518363ffffffff1660e01b815260040161110a92919061358a565b6020604051808303816000875af1158015611129573d6000803e3d6000fd5b505050506040513d601f19601f8201168201806040525081019061114d9190613a66565b505050565b6000600160009054906101000a900473ffffffffffffffffffffffffffffffffffffffff16905090565b60608060608060608060008060005b600480549050811015611234578973ffffffffffffffffffffffffffffffffffffffff16600482815481106111c3576111c26135b3565b5b906000526020600020906007020160060160009054906101000a900473ffffffffffffffffffffffffffffffffffffffff1673ffffffffffffffffffffffffffffffffffffffff1614156112215760018261121e9190613a93565b91505b808061122c90613ae9565b91505061118b565b5060008167ffffffffffffffff811115611251576112506136d0565b5b60405190808252806020026020018201604052801561127f5781602001602082028036833780820191505090505b50905060008267ffffffffffffffff81111561129e5761129d6136d0565b5b6040519080825280602002602001820160405280156112cc5781602001602082028036833780820191505090505b50905060008367ffffffffffffffff8111156112eb576112ea6136d0565b5b6040519080825280602002602001820160405280156113195781602001602082028036833780820191505090505b50905060008467ffffffffffffffff811115611338576113376136d0565b5b6040519080825280602002602001820160405280156113665781602001602082028036833780820191505090505b50905060008567ffffffffffffffff811115611385576113846136d0565b5b6040519080825280602002602001820160405280156113b35781602001602082028036833780820191505090505b50905060008667ffffffffffffffff8111156113d2576113d16136d0565b5b6040519080825280602002602001820160405280156114005781602001602082028036833780820191505090505b50905060005b60048054905081101561164d578f73ffffffffffffffffffffffffffffffffffffffff166004828154811061143e5761143d6135b3565b5b906000526020600020906007020160060160009054906101000a900473ffffffffffffffffffffffffffffffffffffffff1673ffffffffffffffffffffffffffffffffffffffff16141561163a57600481815481106114a05761149f6135b3565b5b906000526020600020906007020160000154878a815181106114c5576114c46135b3565b5b602002602001018181525050600481815481106114e5576114e46135b3565b5b906000526020600020906007020160010154868a8151811061150a576115096135b3565b5b6020026020010181815250506004818154811061152a576115296135b3565b5b906000526020600020906007020160020154858a8151811061154f5761154e6135b3565b5b6020026020010181815250506004818154811061156f5761156e6135b3565b5b906000526020600020906007020160030154848a81518110611594576115936135b3565b5b602002602001018181525050600481815481106115b4576115b36135b3565b5b906000526020600020906007020160040154838a815181106115d9576115d86135b3565b5b602002602001018181525050600481815481106115f9576115f86135b3565b5b906000526020600020906007020160050154828a8151811061161e5761161d6135b3565b5b6020026020010181815250506001896116379190613a93565b98505b808061164590613ae9565b915050611406565b508585858585859d509d509d509d509d509d50505050505050505091939550919395565b611679612ec9565b73ffffffffffffffffffffffffffffffffffffffff16611697611152565b73ffffffffffffffffffffffffffffffffffffffff16146116ed576040517f08c379a00000000000000000000000000000000000000000000000000000000081526004016116e4906134f1565b60405180910390fd5b80600b8190555050565b60003390506000600360009054906101000a900473ffffffffffffffffffffffffffffffffffffffff16905060008173ffffffffffffffffffffffffffffffffffffffff1663970844456040518163ffffffff1660e01b8152600401602060405180830381865afa158015611770573d6000803e3d6000fd5b505050506040513d601f19601f820116820180604052508101906117949190613526565b90508073ffffffffffffffffffffffffffffffffffffffff166323b872dd8430876040518463ffffffff1660e01b81526004016117d393929190613553565b600060405180830381600087803b1580156117ed57600080fd5b505af1158015611801573d6000803e3d6000fd5b50505050600f60008473ffffffffffffffffffffffffffffffffffffffff1673ffffffffffffffffffffffffffffffffffffffff1681526020019081526020016000208490806001815401808255809150506001900390600052602060002001600090919091909150557f77869f7f31f08c9c375fad29ea475878e9d5f19eae97478095fec1407016837d838560405161189c92919061358a565b60405180910390a150505050565b6000600482815481106118c0576118bf6135b3565b5b90600052602060002090600702016040518060e00160405290816000820154815260200160018201548152602001600282015481526020016003820154815260200160048201548152602001600582015481526020016006820160009054906101000a900473ffffffffffffffffffffffffffffffffffffffff1673ffffffffffffffffffffffffffffffffffffffff1673ffffffffffffffffffffffffffffffffffffffff16815250509050600060048054905090506000600360009054906101000a900473ffffffffffffffffffffffffffffffffffffffff16905060008173ffffffffffffffffffffffffffffffffffffffff1663970844456040518163ffffffff1660e01b8152600401602060405180830381865afa1580156119eb573d6000803e3d6000fd5b505050506040513d601f19601f82011682018060405250810190611a0f9190613526565b905060008273ffffffffffffffffffffffffffffffffffffffff1663549a1ab26040518163ffffffff1660e01b8152600401602060405180830381865afa158015611a5e573d6000803e3d6000fd5b505050506040513d601f19601f82011682018060405250810190611a829190613526565b90503373ffffffffffffffffffffffffffffffffffffffff168560c0015173ffffffffffffffffffffffffffffffffffffffff1614611af6576040517f08c379a0000000000000000000000000000000000000000000000000000000008152600401611aed90613b7e565b60405180910390fd5b8173ffffffffffffffffffffffffffffffffffffffff166323b872dd3060048981548110611b2757611b266135b3565b5b906000526020600020906007020160060160009054906101000a900473ffffffffffffffffffffffffffffffffffffffff1660048a81548110611b6d57611b6c6135b3565b5b9060005260206000209060070201600001546040518463ffffffff1660e01b8152600401611b9d93929190613553565b600060405180830381600087803b158015611bb757600080fd5b505af1158015611bcb573d6000803e3d6000fd5b505050508073ffffffffffffffffffffffffffffffffffffffff166323b872dd3060048981548110611c0057611bff6135b3565b5b906000526020600020906007020160060160009054906101000a900473ffffffffffffffffffffffffffffffffffffffff1660048a81548110611c4657611c456135b3565b5b9060005260206000209060070201600301546040518463ffffffff1660e01b8152600401611c7693929190613553565b600060405180830381600087803b158015611c9057600080fd5b505af1158015611ca4573d6000803e3d6000fd5b505050506004600185611cb7919061399e565b81548110611cc857611cc76135b3565b5b906000526020600020906007020160048781548110611cea57611ce96135b3565b5b90600052602060002090600702016000820154816000015560018201548160010155600282015481600201556003820154816003015560048201548160040155600582015481600501556006820160009054906101000a900473ffffffffffffffffffffffffffffffffffffffff168160060160006101000a81548173ffffffffffffffffffffffffffffffffffffffff021916908373ffffffffffffffffffffffffffffffffffffffff1602179055509050506004805480611db057611daf6139d2565b5b6001900381819060005260206000209060070201600080820160009055600182016000905560028201600090556003820160009055600482016000905560058201600090556006820160006101000a81549073ffffffffffffffffffffffffffffffffffffffff021916905550509055505050505050565b6060600f60008373ffffffffffffffffffffffffffffffffffffffff1673ffffffffffffffffffffffffffffffffffffffff168152602001908152602001600020805480602002602001604051908101604052809291908181526020018280548015611eb357602002820191906000526020600020905b815481526020019060010190808311611e9f575b50505050509050919050565b6000600360009054906101000a900473ffffffffffffffffffffffffffffffffffffffff16905060008173ffffffffffffffffffffffffffffffffffffffff1663549a1ab26040518163ffffffff1660e01b8152600401602060405180830381865afa158015611f33573d6000803e3d6000fd5b505050506040513d601f19601f82011682018060405250810190611f579190613526565b90506000601060003373ffffffffffffffffffffffffffffffffffffffff1673ffffffffffffffffffffffffffffffffffffffff168152602001908152602001600020905060005b81805490508110156120c95784828281548110611fbf57611fbe6135b3565b5b906000526020600020015414156120b6578160018380549050611fe2919061399e565b81548110611ff357611ff26135b3565b5b9060005260206000200154828281548110612011576120106135b3565b5b9060005260206000200181905550818054806120305761202f6139d2565b5b600190038181906000526020600020016000905590558273ffffffffffffffffffffffffffffffffffffffff166323b872dd3033886040518463ffffffff1660e01b815260040161208393929190613553565b600060405180830381600087803b15801561209d57600080fd5b505af11580156120b1573d6000803e3d6000fd5b505050505b80806120c190613ae9565b915050611f9f565b5050505050565b600073ffffffffffffffffffffffffffffffffffffffff168173ffffffffffffffffffffffffffffffffffffffff161415612140576040517f08c379a000000000000000000000000000000000000000000000000000000000815260040161213790613c10565b60405180910390fd5b601160009054906101000a900460ff1615612190576040517f08c379a000000000000000000000000000000000000000000000000000000000815260040161218790613c7c565b60405180910390fd5b6001601160006101000a81548160ff02191690831515021790555080600360006101000a81548173ffffffffffffffffffffffffffffffffffffffff021916908373ffffffffffffffffffffffffffffffffffffffff160217905550630107ac006005819055506804e1003b28d9280000600b819055506032600c819055506050600d81905550605a600e81905550733efa66ab2b1690e9be8e82784edff2cf2dc150e0600260006101000a81548173ffffffffffffffffffffffffffffffffffffffff021916908373ffffffffffffffffffffffffffffffffffffffff16021790555061227d33612ed1565b610bb86006600060058110612295576122946135b3565b5b018190555061096060066001600581106122b2576122b16135b3565b5b018190555061070860066002600581106122cf576122ce6135b3565b5b01819055506104b060066003600581106122ec576122eb6135b3565b5b01819055506102586006600460058110612309576123086135b3565b5b018190555050565b6000600360009054906101000a900473ffffffffffffffffffffffffffffffffffffffff16905060008173ffffffffffffffffffffffffffffffffffffffff1663970844456040518163ffffffff1660e01b8152600401602060405180830381865afa158015612385573d6000803e3d6000fd5b505050506040513d601f19601f820116820180604052508101906123a99190613526565b90506000600f60003373ffffffffffffffffffffffffffffffffffffffff1673ffffffffffffffffffffffffffffffffffffffff168152602001908152602001600020905060005b818054905081101561251b5784828281548110612411576124106135b3565b5b90600052602060002001541415612508578160018380549050612434919061399e565b81548110612445576124446135b3565b5b9060005260206000200154828281548110612463576124626135b3565b5b906000526020600020018190555081805480612482576124816139d2565b5b600190038181906000526020600020016000905590558273ffffffffffffffffffffffffffffffffffffffff166323b872dd3033886040518463ffffffff1660e01b81526004016124d593929190613553565b600060405180830381600087803b1580156124ef57600080fd5b505af1158015612503573d6000803e3d6000fd5b505050505b808061251390613ae9565b9150506123f1565b5050505050565b6000600f60003373ffffffffffffffffffffffffffffffffffffffff1673ffffffffffffffffffffffffffffffffffffffff16815260200190815260200160002090506000601060003373ffffffffffffffffffffffffffffffffffffffff1673ffffffffffffffffffffffffffffffffffffffff168152602001908152602001600020905060008060005b848054905081101561266d57868582815481106125ce576125cd6135b3565b5b9060005260206000200154141561265a5784600186805490506125f1919061399e565b81548110612602576126016135b3565b5b90600052602060002001548582815481106126205761261f6135b3565b5b90600052602060002001819055508480548061263f5761263e6139d2565b5b60019003818190600052602060002001600090559055600192505b808061266590613ae9565b9150506125ae565b5060005b83805490508110156127305785848281548110612691576126906135b3565b5b9060005260206000200154141561271d5783600185805490506126b4919061399e565b815481106126c5576126c46135b3565b5b90600052602060002001548482815481106126e3576126e26135b3565b5b906000526020600020018190555083805480612702576127016139d2565b5b60019003818190600052602060002001600090559055600191505b808061272890613ae9565b915050612671565b5081612771576040517f08c379a000000000000000000000000000000000000000000000000000000000815260040161276890613ce8565b60405180910390fd5b806127b1576040517f08c379a00000000000000000000000000000000000000000000000000000000081526004016127a890613d54565b60405180910390fd5b6000600360009054906101000a900473ffffffffffffffffffffffffffffffffffffffff16905060008173ffffffffffffffffffffffffffffffffffffffff1663970844456040518163ffffffff1660e01b8152600401602060405180830381865afa158015612825573d6000803e3d6000fd5b505050506040513d601f19601f820116820180604052508101906128499190613526565b905060008273ffffffffffffffffffffffffffffffffffffffff1663549a1ab26040518163ffffffff1660e01b8152600401602060405180830381865afa158015612898573d6000803e3d6000fd5b505050506040513d601f19601f820116820180604052508101906128bc9190613526565b905060008273ffffffffffffffffffffffffffffffffffffffff166368ba0bcf8b6040518263ffffffff1660e01b81526004016128f99190613117565b606060405180830381865afa158015612916573d6000803e3d6000fd5b505050506040513d601f19601f8201168201806040525081019061293a91906137fd565b905060008273ffffffffffffffffffffffffffffffffffffffff166368ba0bcf8b6040518263ffffffff1660e01b81526004016129779190613117565b606060405180830381865afa158015612994573d6000803e3d6000fd5b505050506040513d601f19601f820116820180604052508101906129b8919061388e565b905060008160400151426129cc919061399e565b9050816000015160ff16836000015160ff1614612a1e576040517f08c379a0000000000000000000000000000000000000000000000000000000008152600401612a1590613de6565b60405180910390fd5b8060055411612a62576040517f08c379a0000000000000000000000000000000000000000000000000000000008152600401612a5990613e52565b60405180910390fd5b600260009054906101000a900473ffffffffffffffffffffffffffffffffffffffff1673ffffffffffffffffffffffffffffffffffffffff166323b872dd3330600b546040518463ffffffff1660e01b8152600401612ac393929190613553565b6020604051808303816000875af1158015612ae2573d6000803e3d6000fd5b505050506040513d601f19601f82011682018060405250810190612b069190613a66565b50612b0f613043565b8c8160000181815250508b816060018181525050836020015160ff16816040018181525050836000015160ff16816020018181525050826020015160ff16816080018181525050338160c0019073ffffffffffffffffffffffffffffffffffffffff16908173ffffffffffffffffffffffffffffffffffffffff168152505060006005546305f5e10084600554612ba6919061399e565b612bb09190613e72565b612bba9190613efb565b6305f5e100612bc9919061399e565b90506305f5e100816006866000015160ff1660058110612bec57612beb6135b3565b5b0154612bf89190613e72565b612c029190613efb565b6006856000015160ff1660058110612c1d57612c1c6135b3565b5b015442612c2a9190613a93565b612c349190613a93565b8260a00181815250506004829080600181540180825580915050600190039060005260206000209060070201600090919091909150600082015181600001556020820151816001015560408201518160020155606082015181600301556080820151816004015560a0820151816005015560c08201518160060160006101000a81548173ffffffffffffffffffffffffffffffffffffffff021916908373ffffffffffffffffffffffffffffffffffffffff16021790555050507fd41dcbb7911b5a97e6f685eed7e638c109e478d5b63c8f583d86f7b5eb1b4e928e8e33604051612d2193929190613f2c565b60405180910390a15050505050505050505050505050565b600360009054906101000a900473ffffffffffffffffffffffffffffffffffffffff1681565b612d67612ec9565b73ffffffffffffffffffffffffffffffffffffffff16612d85611152565b73ffffffffffffffffffffffffffffffffffffffff1614612ddb576040517f08c379a0000000000000000000000000000000000000000000000000000000008152600401612dd2906134f1565b60405180910390fd5b600073ffffffffffffffffffffffffffffffffffffffff168173ffffffffffffffffffffffffffffffffffffffff161415612e4b576040517f08c379a0000000000000000000000000000000000000000000000000000000008152600401612e4290613fd5565b60405180910390fd5b612e5481612ed1565b50565b60048181548110612e6757600080fd5b90600052602060002090600702016000915090508060000154908060010154908060020154908060030154908060040154908060050154908060060160009054906101000a900473ffffffffffffffffffffffffffffffffffffffff16905087565b600033905090565b6000600160009054906101000a900473ffffffffffffffffffffffffffffffffffffffff16905081600160006101000a81548173ffffffffffffffffffffffffffffffffffffffff021916908373ffffffffffffffffffffffffffffffffffffffff1602179055508173ffffffffffffffffffffffffffffffffffffffff168173ffffffffffffffffffffffffffffffffffffffff167f8be0079c531659141344cd1fd0a4f28419497f9722a3daafe3b4186f6b6457e060405160405180910390a35050565b60008060009050600090505b600480549050811015612ff9578260048281548110612fc557612fc46135b3565b5b9060005260206000209060070201600301541415612fe65780915050612ffe565b8080612ff190613ae9565b915050612fa3565b809150505b919050565b600081423360405160200161301992919061405e565b6040516020818303038152906040528051906020012060001c61303c919061408a565b9050919050565b6040518060e00160405280600081526020016000815260200160008152602001600081526020016000815260200160008152602001600073ffffffffffffffffffffffffffffffffffffffff1681525090565b6000604051905090565b600080fd5b6000819050919050565b6130b8816130a5565b81146130c357600080fd5b50565b6000813590506130d5816130af565b92915050565b6000602082840312156130f1576130f06130a0565b5b60006130ff848285016130c6565b91505092915050565b613111816130a5565b82525050565b600060208201905061312c6000830184613108565b92915050565b60008060006060848603121561314b5761314a6130a0565b5b6000613159868287016130c6565b935050602061316a868287016130c6565b925050604061317b868287016130c6565b9150509250925092565b600073ffffffffffffffffffffffffffffffffffffffff82169050919050565b60006131b082613185565b9050919050565b6131c0816131a5565b81146131cb57600080fd5b50565b6000813590506131dd816131b7565b92915050565b6000602082840312156131f9576131f86130a0565b5b6000613207848285016131ce565b91505092915050565b600081519050919050565b600082825260208201905092915050565b6000819050602082019050919050565b613245816130a5565b82525050565b6000613257838361323c565b60208301905092915050565b6000602082019050919050565b600061327b82613210565b613285818561321b565b93506132908361322c565b8060005b838110156132c15781516132a8888261324b565b97506132b383613263565b925050600181019050613294565b5085935050505092915050565b600060208201905081810360008301526132e88184613270565b905092915050565b60008060408385031215613307576133066130a0565b5b6000613315858286016131ce565b9250506020613326858286016130c6565b9150509250929050565b613339816131a5565b82525050565b60006020820190506133546000830184613330565b92915050565b600060c08201905081810360008301526133748189613270565b905081810360208301526133888188613270565b9050818103604083015261339c8187613270565b905081810360608301526133b08186613270565b905081810360808301526133c48185613270565b905081810360a08301526133d88184613270565b9050979650505050505050565b600080604083850312156133fc576133fb6130a0565b5b600061340a858286016130c6565b925050602061341b858286016130c6565b9150509250929050565b600060e08201905061343a600083018a613108565b6134476020830189613108565b6134546040830188613108565b6134616060830187613108565b61346e6080830186613108565b61347b60a0830185613108565b61348860c0830184613330565b98975050505050505050565b600082825260208201905092915050565b7f4f776e61626c653a2063616c6c6572206973206e6f7420746865206f776e6572600082015250565b60006134db602083613494565b91506134e6826134a5565b602082019050919050565b6000602082019050818103600083015261350a816134ce565b9050919050565b600081519050613520816131b7565b92915050565b60006020828403121561353c5761353b6130a0565b5b600061354a84828501613511565b91505092915050565b60006060820190506135686000830186613330565b6135756020830185613330565b6135826040830184613108565b949350505050565b600060408201905061359f6000830185613330565b6135ac6020830184613108565b9392505050565b7f4e487b7100000000000000000000000000000000000000000000000000000000600052603260045260246000fd5b7f4e6f74206f776e65720000000000000000000000000000000000000000000000600082015250565b6000613618600983613494565b9150613623826135e2565b602082019050919050565b600060208201905081810360008301526136478161360b565b9050919050565b7f5761697420756e74696c205265636f7665727900000000000000000000000000600082015250565b6000613684601383613494565b915061368f8261364e565b602082019050919050565b600060208201905081810360008301526136b381613677565b9050919050565b600080fd5b6000601f19601f8301169050919050565b7f4e487b7100000000000000000000000000000000000000000000000000000000600052604160045260246000fd5b613708826136bf565b810181811067ffffffffffffffff82111715613727576137266136d0565b5b80604052505050565b600061373a613096565b905061374682826136ff565b919050565b600060ff82169050919050565b6137618161374b565b811461376c57600080fd5b50565b60008151905061377e81613758565b92915050565b600081519050613793816130af565b92915050565b6000606082840312156137af576137ae6136ba565b5b6137b96060613730565b905060006137c98482850161376f565b60008301525060206137dd8482850161376f565b60208301525060406137f184828501613784565b60408301525092915050565b600060608284031215613813576138126130a0565b5b600061382184828501613799565b91505092915050565b6000606082840312156138405761383f6136ba565b5b61384a6060613730565b9050600061385a8482850161376f565b600083015250602061386e8482850161376f565b602083015250604061388284828501613784565b60408301525092915050565b6000606082840312156138a4576138a36130a0565b5b60006138b28482850161382a565b91505092915050565b7f4e487b7100000000000000000000000000000000000000000000000000000000600052601160045260246000fd5b60006138f58261374b565b91506139008361374b565b92508260ff03821115613916576139156138bb565b5b828201905092915050565b61392a8161374b565b82525050565b60006060820190506139456000830186613330565b6139526020830185613921565b61395f6040830184613921565b949350505050565b600060608201905061397c6000830186613330565b6139896020830185613108565b6139966040830184613108565b949350505050565b60006139a9826130a5565b91506139b4836130a5565b9250828210156139c7576139c66138bb565b5b828203905092915050565b7f4e487b7100000000000000000000000000000000000000000000000000000000600052603160045260246000fd5b600060208284031215613a1757613a166130a0565b5b6000613a2584828501613784565b91505092915050565b60008115159050919050565b613a4381613a2e565b8114613a4e57600080fd5b50565b600081519050613a6081613a3a565b92915050565b600060208284031215613a7c57613a7b6130a0565b5b6000613a8a84828501613a51565b91505092915050565b6000613a9e826130a5565b9150613aa9836130a5565b9250827fffffffffffffffffffffffffffffffffffffffffffffffffffffffffffffffff03821115613ade57613add6138bb565b5b828201905092915050565b6000613af4826130a5565b91507fffffffffffffffffffffffffffffffffffffffffffffffffffffffffffffffff821415613b2757613b266138bb565b5b600182019050919050565b7f6e6f74206f776e65720000000000000000000000000000000000000000000000600082015250565b6000613b68600983613494565b9150613b7382613b32565b602082019050919050565b60006020820190508181036000830152613b9781613b5b565b9050919050565b7f4d696e74657220636f6e7472616374206d757374206265206e6f6e2d7a65726f60008201527f2061646472657373000000000000000000000000000000000000000000000000602082015250565b6000613bfa602883613494565b9150613c0582613b9e565b604082019050919050565b60006020820190508181036000830152613c2981613bed565b9050919050565b7f616c726561647920696e697469616c697a656400000000000000000000000000600082015250565b6000613c66601383613494565b9150613c7182613c30565b602082019050919050565b60006020820190508181036000830152613c9581613c59565b9050919050565b7f756e7374616b656420636f7720746f6b656e0000000000000000000000000000600082015250565b6000613cd2601283613494565b9150613cdd82613c9c565b602082019050919050565b60006020820190508181036000830152613d0181613cc5565b9050919050565b7f756e5374616b65642062756c6c20746f6b656e00000000000000000000000000600082015250565b6000613d3e601383613494565b9150613d4982613d08565b602082019050919050565b60006020820190508181036000830152613d6d81613d31565b9050919050565b7f4272656564696e6720697320696d706f737369626c65206265747765656e206460008201527f6966666572656e74207261726974790000000000000000000000000000000000602082015250565b6000613dd0602f83613494565b9150613ddb82613d74565b604082019050919050565b60006020820190508181036000830152613dff81613dc3565b9050919050565b7f42756c6c20697320746f6f206f6c640000000000000000000000000000000000600082015250565b6000613e3c600f83613494565b9150613e4782613e06565b602082019050919050565b60006020820190508181036000830152613e6b81613e2f565b9050919050565b6000613e7d826130a5565b9150613e88836130a5565b9250817fffffffffffffffffffffffffffffffffffffffffffffffffffffffffffffffff0483118215151615613ec157613ec06138bb565b5b828202905092915050565b7f4e487b7100000000000000000000000000000000000000000000000000000000600052601260045260246000fd5b6000613f06826130a5565b9150613f11836130a5565b925082613f2157613f20613ecc565b5b828204905092915050565b6000606082019050613f416000830186613108565b613f4e6020830185613108565b613f5b6040830184613330565b949350505050565b7f4f776e61626c653a206e6577206f776e657220697320746865207a65726f206160008201527f6464726573730000000000000000000000000000000000000000000000000000602082015250565b6000613fbf602683613494565b9150613fca82613f63565b604082019050919050565b60006020820190508181036000830152613fee81613fb2565b9050919050565b6000819050919050565b61401061400b826130a5565b613ff5565b82525050565b60008160601b9050919050565b600061402e82614016565b9050919050565b600061404082614023565b9050919050565b614058614053826131a5565b614035565b82525050565b600061406a8285613fff565b60208201915061407a8284614047565b6014820191508190509392505050565b6000614095826130a5565b91506140a0836130a5565b9250826140b0576140af613ecc565b5b82820690509291505056fea264697066735822122016d0206db80b712d259f77c5c0119a3be5a54ac68e42422562a11ddb1ea888de64736f6c634300080c0033",
  "immutableReferences": {},
  "source": "// SPDX-License-Identifier: MIT\r\npragma solidity >=0.4.22 <0.9.0;\r\n\r\nimport \"@openzeppelin/contracts/security/ReentrancyGuard.sol\";\r\nimport \"@openzeppelin/contracts/access/Ownable.sol\";\r\nimport \"@openzeppelin/contracts/utils/math/SafeMath.sol\";\r\nimport \"@openzeppelin/contracts/token/ERC20/IERC20.sol\";\r\nimport \"./interfaces/INftMinter.sol\";\r\nimport \"./interfaces/ILandNFT.sol\";\r\nimport \"./interfaces/ICowNFT.sol\";\r\nimport \"./interfaces/IBullNFT.sol\";\r\n\r\n\r\ncontract Breeding is ReentrancyGuard, Ownable {\r\n    address MILK_TOKEN_ADDRESS;\r\n    address public minterAddr; // NftMinter contract address\r\n\r\n    // Structure of BreedingVault\r\n    struct BreedingVault {\r\n        uint cowTokenId; // Staked Cow tokenId\r\n        uint rarity;\r\n        uint cowBreed;\r\n        uint bullTokenId; // Staked Bull tokenId\r\n        uint bullBreed;\r\n        uint unlockTime; // Breeding time\r\n        address owner; // Owner of the couple\r\n    }\r\n    BreedingVault[] public breedingVaults; // Array of BreedingVault\r\n\r\n    uint public maxRecoveryTime;\r\n    uint[5] public baseRecoveryTime;\r\n    uint public breedingPrice;\r\n    uint256 rarityProbability;\r\n    uint256 breedProbability;\r\n    uint256 cowProbability;\r\n    mapping(address => uint256[]) public userCows;\r\n    mapping(address => uint256[]) public userBulls;\r\n    bool private initialized;\r\n    event Breed(uint _cowTokenId, uint _bullTokenId, address _owner);\r\n    event ClaimedNewCattle(address _owner, uint _cowTokenId, uint _bullTokenId);\r\n    event StakeCow(address owner, uint256 tokenId);\r\n    event StakeBull(address owner, uint256 tokenId);\r\n    // Initialize the contract. This is for Proxy functionality.\r\n    function initialize(address _minterAddr) public {\r\n        require(_minterAddr != address(0), \"Minter contract must be non-zero address\");\r\n        require(!initialized, \"already initialized\");\r\n        initialized = true;\r\n        minterAddr = _minterAddr;\r\n        maxRecoveryTime = 200 days;\r\n        breedingPrice = 90*10**18;\r\n        rarityProbability = 50;\r\n        breedProbability = 80;\r\n        cowProbability = 90;\r\n        MILK_TOKEN_ADDRESS = 0x3eFA66aB2b1690e9BE8e82784EDfF2cF2dc150e0;\r\n        _transferOwnership(msg.sender);\r\n        baseRecoveryTime[0] = 50 minutes;\r\n        baseRecoveryTime[1] = 40 minutes;\r\n        baseRecoveryTime[2] = 30 minutes;\r\n        baseRecoveryTime[3] = 20 minutes;\r\n        baseRecoveryTime[4] = 10 minutes;\r\n        // baseRecoveryTime[0] = 180 hours;\r\n        // baseRecoveryTime[1] = 90 hours;\r\n        // baseRecoveryTime[2] = 48 hours;\r\n        // baseRecoveryTime[3] = 24 hours;\r\n        // baseRecoveryTime[4] = 12 hours;\r\n    }\r\n    function stakeCow(uint256 tokenId) external {\r\n        address _owner = msg.sender;\r\n        INftMinter minter = INftMinter(address(minterAddr));\r\n        ICowNFT cowNfts = ICowNFT(address(minter.cowNftColl()));\r\n        cowNfts.transferFrom(_owner, address(this), tokenId);\r\n        userCows[_owner].push(tokenId);\r\n        emit StakeCow(_owner, tokenId);\r\n    }\r\n    function stakeBull(uint256 tokenId) external {\r\n        address _owner = msg.sender;\r\n        INftMinter minter = INftMinter(address(minterAddr));\r\n        IBullNFT bullNfts = IBullNFT(address(minter.bullNftColl()));\r\n        bullNfts.transferFrom(_owner, address(this), tokenId);\r\n        userBulls[_owner].push(tokenId);\r\n        emit StakeBull(_owner, tokenId);\r\n    }\r\n\r\n    function unStakeCow(uint256 tokenId) external {\r\n        INftMinter minter = INftMinter(address(minterAddr));\r\n        ICowNFT cowNfts = ICowNFT(address(minter.cowNftColl()));\r\n        uint256[] storage stakedCows = userCows[msg.sender];\r\n        for(uint256 i = 0; i < stakedCows.length; i++) {\r\n            if(stakedCows[i] == tokenId) {\r\n                stakedCows[i] = stakedCows[stakedCows.length - 1];\r\n                stakedCows.pop();\r\n                cowNfts.transferFrom(address(this), msg.sender, tokenId);\r\n            }\r\n        }\r\n    }\r\n    function unStakeBull(uint256 tokenId) external {\r\n        INftMinter minter = INftMinter(address(minterAddr));\r\n        IBullNFT bullNfts = IBullNFT(address(minter.bullNftColl()));\r\n        uint256[] storage stakedBulls = userBulls[msg.sender];\r\n        for(uint256 i = 0; i < stakedBulls.length; i++) {\r\n            if(stakedBulls[i] == tokenId) {\r\n                stakedBulls[i] = stakedBulls[stakedBulls.length - 1];\r\n                stakedBulls.pop();\r\n                bullNfts.transferFrom(address(this), msg.sender, tokenId);\r\n            }\r\n        }\r\n    }\r\n    // Deposit(Stake) a couple of Cow and Bull NFT for breeding.\r\n    function breed(uint _cowTokenId, uint _bullTokenId) public {\r\n        uint256[] storage cows = userCows[msg.sender];\r\n        uint256[] storage bulls = userBulls[msg.sender];\r\n        bool isStakedCow = false;\r\n        bool isStakedBull = false;\r\n        for(uint256 i = 0 ; i < cows.length; i++) {\r\n            if(cows[i] == _cowTokenId) {\r\n                cows[i] = cows[cows.length - 1];\r\n                cows.pop();\r\n                isStakedCow =true;\r\n            }\r\n        }\r\n        for(uint256 j = 0 ; j <bulls.length; j++) {\r\n            if(bulls[j] == _bullTokenId) {\r\n                bulls[j] = bulls[bulls.length - 1];\r\n                bulls.pop();\r\n                isStakedBull = true;\r\n            }\r\n        }\r\n        require(isStakedCow, \"unstaked cow token\");\r\n        require(isStakedBull, \"unStaked bull token\");\r\n        INftMinter minter = INftMinter(address(minterAddr));\r\n        ICowNFT cowNfts = ICowNFT(address(minter.cowNftColl()));\r\n        IBullNFT bullNfts = IBullNFT(address(minter.bullNftColl()));\r\n        // require(cowNfts.ownerOf(_cowTokenId) == msg.sender, \"Not owner\");\r\n        // require(bullNfts.ownerOf(_bullTokenId) == msg.sender, \"Not owner\");\r\n        ICowNFT.CattleAttr memory cowAttr = cowNfts.attrOf(_cowTokenId);\r\n        IBullNFT.CattleAttr memory bullAttr = bullNfts.attrOf(_bullTokenId);\r\n        uint256 _old = block.timestamp - bullAttr.birth;\r\n\r\n        require(cowAttr.rarity == bullAttr.rarity, \"Breeding is impossible between different rarity\");\r\n        require(maxRecoveryTime > _old, \"Bull is too old\");\r\n        IERC20(address(MILK_TOKEN_ADDRESS)).transferFrom(msg.sender, address(this), breedingPrice);\r\n\r\n        BreedingVault memory newBreeding;\r\n        newBreeding.cowTokenId = _cowTokenId;\r\n        newBreeding.bullTokenId = _bullTokenId;\r\n        newBreeding.cowBreed = cowAttr.breed;\r\n        newBreeding.rarity = cowAttr.rarity;\r\n        newBreeding.bullBreed = bullAttr.breed;\r\n        newBreeding.owner = msg.sender;\r\n\r\n        uint256 weight =1e8 - ((maxRecoveryTime - _old) * 1e8) / maxRecoveryTime;\r\n        newBreeding.unlockTime = block.timestamp + baseRecoveryTime[bullAttr.rarity] + (baseRecoveryTime[bullAttr.rarity] * weight) /1e8;\r\n        breedingVaults.push(newBreeding);\r\n        emit Breed(_cowTokenId, _bullTokenId, msg.sender);\r\n    }\r\n\r\n    // Claim newly breeded cattle(Cow or Bull NFT).\r\n    // Rarity : 80%(Parents rarity), 20%(Parents' rarity + 1)\r\n    // Breed : 50%(Cow's breed), 50%(Bull's breed)\r\n    // Cow or Bull : 95%(Cow), 5%(Bull)\r\n    function claimCattle(uint _bullTokenId) public {\r\n        uint breedingIdx = _indexOfBreedingByBull(_bullTokenId);\r\n        address _owner = breedingVaults[breedingIdx].owner;\r\n        uint256 _cowTokenId = breedingVaults[breedingIdx].cowTokenId;\r\n        // uint256 _bullTokenId = breedingVaults[breedingIdx].bullTokenId;\r\n        require(_owner == msg.sender, \"Not owner\");\r\n        require(block.timestamp > breedingVaults[breedingIdx].unlockTime, \"Wait until Recovery\");\r\n\r\n        INftMinter minter = INftMinter(address(minterAddr));\r\n        ICowNFT cowNfts = ICowNFT(address(minter.cowNftColl()));\r\n        ICowNFT.CattleAttr memory cowAttr = cowNfts.attrOf(_cowTokenId);\r\n\r\n        IBullNFT bullNfts = IBullNFT(address(minter.bullNftColl()));\r\n        IBullNFT.CattleAttr memory bullAttr = bullNfts.attrOf(_bullTokenId);\r\n        \r\n        uint8 rarityOfNew = 0;\r\n        uint8 breedOfNew = bullAttr.breed;\r\n\r\n        uint randProbability = _rand(100);\r\n        if(randProbability < rarityProbability || bullAttr.rarity == 4) {\r\n            rarityOfNew = bullAttr.rarity;\r\n        } else {\r\n            rarityOfNew = bullAttr.rarity + 1;\r\n        }\r\n\r\n        if(randProbability < breedProbability) {\r\n            breedOfNew = cowAttr.breed;\r\n        }\r\n\r\n        if(randProbability < cowProbability) {\r\n            minter.mintCow(_owner, rarityOfNew, breedOfNew);\r\n        } else {\r\n            minter.mintBull(_owner, rarityOfNew, breedOfNew);\r\n        }\r\n\r\n        // cowNfts.transferFrom(address(this), breedingVaults[breedingIdx].owner, breedingVaults[breedingIdx].cowTokenId);\r\n        // bullNfts.transferFrom(address(this), breedingVaults[breedingIdx].owner, breedingVaults[breedingIdx].bullTokenId);\r\n        userCows[_owner].push(_cowTokenId);\r\n        userBulls[_owner].push(_bullTokenId);\r\n\r\n        emit ClaimedNewCattle(_owner, _cowTokenId, _bullTokenId);\r\n\r\n        breedingVaults[breedingIdx] = breedingVaults[breedingVaults.length - 1];\r\n        breedingVaults.pop();\r\n    }\r\n\r\n    // Set breeding price\r\n    function setBreedingPrice(uint _price) public onlyOwner {\r\n        breedingPrice = _price;\r\n    }\r\n\r\n    // Withdraw MILK tokens.\r\n    function withdrawMilk() public onlyOwner{\r\n        IERC20 payToken = IERC20(address(MILK_TOKEN_ADDRESS));\r\n        uint amountOf = payToken.balanceOf(address(this));\r\n        payToken.transfer(msg.sender, amountOf);\r\n    }\r\n\r\n    function _indexOfBreedingByBull(uint _bullTokenId) private view returns (uint) {\r\n        uint idx = 0;\r\n        for(idx = 0;idx < breedingVaults.length;idx ++){\r\n            if(breedingVaults[idx].bullTokenId == _bullTokenId) {\r\n                return idx;\r\n            }\r\n        }\r\n        return idx;\r\n    }\r\n\r\n    function _rand(uint _modulus) internal view returns (uint) {\r\n        return uint(keccak256(abi.encodePacked(block.timestamp, msg.sender))) % _modulus;\r\n    }\r\n\r\n    function getBreedingItems(address userAddress) public view \r\n    returns(\r\n        uint256[] memory ,\r\n        uint256[] memory ,\r\n        uint256[] memory ,\r\n        uint256[] memory ,\r\n        uint256[] memory ,\r\n        uint256[] memory \r\n    ) {\r\n        uint k = 0;\r\n        uint ownedCount = 0;\r\n        for(uint j = 0 ; j< breedingVaults.length ; j ++ ) {\r\n            if(breedingVaults[j].owner == userAddress) {\r\n                ownedCount +=1;\r\n            }\r\n        }\r\n        uint256[] memory cowTokenIds = new uint256[](ownedCount);\r\n        uint256[] memory raritis = new uint256[](ownedCount);\r\n        uint256[] memory cowBreeds = new uint256[](ownedCount);\r\n        uint256[] memory bullTokenIds = new uint256[](ownedCount);\r\n        uint256[] memory bullBreeds = new uint256[](ownedCount);\r\n        uint256[] memory unLockTimes = new uint256[](ownedCount);\r\n        for(uint i = 0 ; i < breedingVaults.length; i++) {\r\n            if(breedingVaults[i].owner == userAddress) {\r\n                cowTokenIds[k] = breedingVaults[i].cowTokenId;\r\n                raritis[k] = breedingVaults[i].rarity;\r\n                cowBreeds[k] = breedingVaults[i].cowBreed;\r\n                bullTokenIds[k] = breedingVaults[i].bullTokenId;\r\n                bullBreeds[k] = breedingVaults[i].bullBreed;\r\n                unLockTimes[k] = breedingVaults[i].unlockTime;\r\n                k +=1;\r\n            }\r\n        }\r\n        return (cowTokenIds, raritis,cowBreeds,bullTokenIds,bullBreeds,unLockTimes);\r\n    }\r\n    function setProbabilities(uint256 _rarityP, uint256 _breedP, uint256 _cowP) public onlyOwner {\r\n        rarityProbability = _rarityP;\r\n        breedProbability = _breedP;\r\n        cowProbability = _cowP;\r\n    }\r\n    function cancelBreeding(uint256 _breedingIdx) public {\r\n        BreedingVault memory _breedingData = breedingVaults[_breedingIdx];\r\n        uint256 itemCount = breedingVaults.length;\r\n        INftMinter minter = INftMinter(address(minterAddr));\r\n        ICowNFT cowNfts = ICowNFT(address(minter.cowNftColl()));\r\n        IBullNFT bullNfts = IBullNFT(address(minter.bullNftColl()));\r\n\r\n        require(_breedingData.owner == msg.sender, \"not owner\");\r\n        cowNfts.transferFrom(address(this), breedingVaults[_breedingIdx].owner, breedingVaults[_breedingIdx].cowTokenId);\r\n        bullNfts.transferFrom(address(this), breedingVaults[_breedingIdx].owner, breedingVaults[_breedingIdx].bullTokenId);\r\n        breedingVaults[_breedingIdx] = breedingVaults[itemCount -1];\r\n        breedingVaults.pop();\r\n    }\r\n\r\n    function getUserStakedCows(address _owner) external view returns(uint256[] memory) {\r\n        return userCows[_owner];\r\n    }\r\n    function getUserStakedBulls(address _owner) external view returns(uint256[] memory) {\r\n        return userBulls[_owner];\r\n    }\r\n}",
  "sourcePath": "C:\\Users\\Administrator\\Documents\\Adam\\game-contracts\\contracts\\Breeding.sol",
  "compiler": {
    "name": "solc",
    "version": "0.8.12+commit.f00d7308.Emscripten.clang"
  },
  "schemaVersion": "3.4.6",
  "updatedAt": "2022-06-21T02:14:26.934Z",
  "networkType": "ethereum",
  "devdoc": {
    "kind": "dev",
    "methods": {
      "owner()": {
        "details": "Returns the address of the current owner."
      },
      "renounceOwnership()": {
        "details": "Leaves the contract without owner. It will not be possible to call `onlyOwner` functions anymore. Can only be called by the current owner. NOTE: Renouncing ownership will leave the contract without an owner, thereby removing any functionality that is only available to the owner."
      },
      "transferOwnership(address)": {
        "details": "Transfers ownership of the contract to a new account (`newOwner`). Can only be called by the current owner."
      }
    },
    "version": 1
  },
  "userdoc": {
    "kind": "user",
    "methods": {},
    "version": 1
  }
}