{
  "contractName": "Breeding",
  "abi": [
    {
      "anonymous": false,
      "inputs": [
        {
          "indexed": false,
          "internalType": "uint256",
          "name": "_cowTokenId",
          "type": "uint256"
        },
        {
          "indexed": false,
          "internalType": "uint256",
          "name": "_bullTokenId",
          "type": "uint256"
        },
        {
          "indexed": false,
          "internalType": "address",
          "name": "_owner",
          "type": "address"
        }
      ],
      "name": "Breed",
      "type": "event"
    },
    {
      "anonymous": false,
      "inputs": [
        {
          "indexed": false,
          "internalType": "address",
          "name": "_owner",
          "type": "address"
        },
        {
          "indexed": false,
          "internalType": "uint256",
          "name": "_cowTokenId",
          "type": "uint256"
        },
        {
          "indexed": false,
          "internalType": "uint256",
          "name": "_bullTokenId",
          "type": "uint256"
        }
      ],
      "name": "ClaimedNewCattle",
      "type": "event"
    },
    {
      "anonymous": false,
      "inputs": [
        {
          "indexed": true,
          "internalType": "address",
          "name": "previousOwner",
          "type": "address"
        },
        {
          "indexed": true,
          "internalType": "address",
          "name": "newOwner",
          "type": "address"
        }
      ],
      "name": "OwnershipTransferred",
      "type": "event"
    },
    {
      "inputs": [
        {
          "internalType": "uint256",
          "name": "",
          "type": "uint256"
        }
      ],
      "name": "baseRecoveryTime",
      "outputs": [
        {
          "internalType": "uint256",
          "name": "",
          "type": "uint256"
        }
      ],
      "stateMutability": "view",
      "type": "function"
    },
    {
      "inputs": [
        {
          "internalType": "uint256",
          "name": "",
          "type": "uint256"
        }
      ],
      "name": "breedingVaults",
      "outputs": [
        {
          "internalType": "uint256",
          "name": "cowTokenId",
          "type": "uint256"
        },
        {
          "internalType": "uint256",
          "name": "bullTokenId",
          "type": "uint256"
        },
        {
          "internalType": "uint256",
          "name": "unlockTime",
          "type": "uint256"
        },
        {
          "internalType": "address",
          "name": "owner",
          "type": "address"
        }
      ],
      "stateMutability": "view",
      "type": "function"
    },
    {
      "inputs": [],
      "name": "minterAddr",
      "outputs": [
        {
          "internalType": "address",
          "name": "",
          "type": "address"
        }
      ],
      "stateMutability": "view",
      "type": "function"
    },
    {
      "inputs": [],
      "name": "owner",
      "outputs": [
        {
          "internalType": "address",
          "name": "",
          "type": "address"
        }
      ],
      "stateMutability": "view",
      "type": "function"
    },
    {
      "inputs": [],
      "name": "renounceOwnership",
      "outputs": [],
      "stateMutability": "nonpayable",
      "type": "function"
    },
    {
      "inputs": [
        {
          "internalType": "address",
          "name": "newOwner",
          "type": "address"
        }
      ],
      "name": "transferOwnership",
      "outputs": [],
      "stateMutability": "nonpayable",
      "type": "function"
    },
    {
      "inputs": [
        {
          "internalType": "address",
          "name": "_minterAddr",
          "type": "address"
        }
      ],
      "name": "initialize",
      "outputs": [],
      "stateMutability": "nonpayable",
      "type": "function"
    },
    {
      "inputs": [
        {
          "internalType": "uint256",
          "name": "_cowTokenId",
          "type": "uint256"
        },
        {
          "internalType": "uint256",
          "name": "_bullTokenId",
          "type": "uint256"
        }
      ],
      "name": "breed",
      "outputs": [],
      "stateMutability": "nonpayable",
      "type": "function"
    },
    {
      "inputs": [
        {
          "internalType": "uint256",
          "name": "_bullTokenId",
          "type": "uint256"
        }
      ],
      "name": "claimCattle",
      "outputs": [],
      "stateMutability": "nonpayable",
      "type": "function"
    },
    {
      "inputs": [
        {
          "internalType": "uint256",
          "name": "_price",
          "type": "uint256"
        }
      ],
      "name": "setBreedingPrice",
      "outputs": [],
      "stateMutability": "nonpayable",
      "type": "function"
    },
    {
      "inputs": [],
      "name": "withdrawMilk",
      "outputs": [],
      "stateMutability": "nonpayable",
      "type": "function"
    }
  ],
  "bytecode": "0x6080604052630107ac006004556804e1003b28d9280000600a553480156200002657600080fd5b5060016000819055506200004f620000436200005560201b60201c565b6200005d60201b60201c565b62000123565b600033905090565b6000600160009054906101000a900473ffffffffffffffffffffffffffffffffffffffff16905081600160006101000a81548173ffffffffffffffffffffffffffffffffffffffff021916908373ffffffffffffffffffffffffffffffffffffffff1602179055508173ffffffffffffffffffffffffffffffffffffffff168173ffffffffffffffffffffffffffffffffffffffff167f8be0079c531659141344cd1fd0a4f28419497f9722a3daafe3b4186f6b6457e060405160405180910390a35050565b61273580620001336000396000f3fe608060405234801561001057600080fd5b50600436106100a95760003560e01c80639564dfae116100715780639564dfae1461012c578063c4d66de814610148578063d9ecad7b14610164578063db71fed714610180578063f2fde38b1461019e578063f95998d3146101ba576100a9565b806308187ac7146100ae578063715018a6146100de578063817aa461146100e85780638aeb7389146101045780638da5cb5b1461010e575b600080fd5b6100c860048036038101906100c39190611a8b565b6101ed565b6040516100d59190611ac7565b60405180910390f35b6100e6610208565b005b61010260048036038101906100fd9190611a8b565b610290565b005b61010c610c01565b005b610116610d1b565b6040516101239190611b23565b60405180910390f35b61014660048036038101906101419190611a8b565b610d45565b005b610162600480360381019061015d9190611b6a565b610dcb565b005b61017e60048036038101906101799190611b97565b610f90565b005b610188611710565b6040516101959190611b23565b60405180910390f35b6101b860048036038101906101b39190611b6a565b611736565b005b6101d460048036038101906101cf9190611a8b565b61182e565b6040516101e49493929190611bd7565b60405180910390f35b600581600581106101fd57600080fd5b016000915090505481565b61021061188e565b73ffffffffffffffffffffffffffffffffffffffff1661022e610d1b565b73ffffffffffffffffffffffffffffffffffffffff1614610284576040517f08c379a000000000000000000000000000000000000000000000000000000000815260040161027b90611c79565b60405180910390fd5b61028e6000611896565b565b600061029b8261195c565b905060038054905081106102e4576040517f08c379a00000000000000000000000000000000000000000000000000000000081526004016102db90611ce5565b60405180910390fd5b3373ffffffffffffffffffffffffffffffffffffffff166003828154811061030f5761030e611d05565b5b906000526020600020906004020160030160009054906101000a900473ffffffffffffffffffffffffffffffffffffffff1673ffffffffffffffffffffffffffffffffffffffff1614610397576040517f08c379a000000000000000000000000000000000000000000000000000000000815260040161038e90611d80565b60405180910390fd5b600381815481106103ab576103aa611d05565b5b90600052602060002090600402016002015442116103fe576040517f08c379a00000000000000000000000000000000000000000000000000000000081526004016103f590611dec565b60405180910390fd5b6000600260009054906101000a900473ffffffffffffffffffffffffffffffffffffffff16905060008173ffffffffffffffffffffffffffffffffffffffff1663970844456040518163ffffffff1660e01b8152600401602060405180830381865afa158015610472573d6000803e3d6000fd5b505050506040513d601f19601f820116820180604052508101906104969190611e21565b905060008173ffffffffffffffffffffffffffffffffffffffff166368ba0bcf600386815481106104ca576104c9611d05565b5b9060005260206000209060040201600001546040518263ffffffff1660e01b81526004016104f89190611ac7565b606060405180830381865afa158015610515573d6000803e3d6000fd5b505050506040513d601f19601f820116820180604052508101906105399190611f91565b905060008373ffffffffffffffffffffffffffffffffffffffff1663549a1ab26040518163ffffffff1660e01b8152600401602060405180830381865afa158015610588573d6000803e3d6000fd5b505050506040513d601f19601f820116820180604052508101906105ac9190611e21565b905060008173ffffffffffffffffffffffffffffffffffffffff166368ba0bcf600388815481106105e0576105df611d05565b5b9060005260206000209060040201600001546040518263ffffffff1660e01b815260040161060e9190611ac7565b606060405180830381865afa15801561062b573d6000803e3d6000fd5b505050506040513d601f19601f8201168201806040525081019061064f9190612022565b905060008082602001519050600061066760646119c8565b9050605081101561067e5783600001519250610692565b6001846000015161068f919061207e565b92505b61069c60646119c8565b905060328110156106af57856020015191505b6106b960646119c8565b9050605f81101561077d578773ffffffffffffffffffffffffffffffffffffffff1663571dc7b860038b815481106106f4576106f3611d05565b5b906000526020600020906004020160030160009054906101000a900473ffffffffffffffffffffffffffffffffffffffff1685856040518463ffffffff1660e01b8152600401610746939291906120c4565b600060405180830381600087803b15801561076057600080fd5b505af1158015610774573d6000803e3d6000fd5b50505050610832565b8773ffffffffffffffffffffffffffffffffffffffff16639e16866760038b815481106107ad576107ac611d05565b5b906000526020600020906004020160030160009054906101000a900473ffffffffffffffffffffffffffffffffffffffff1685856040518463ffffffff1660e01b81526004016107ff939291906120c4565b600060405180830381600087803b15801561081957600080fd5b505af115801561082d573d6000803e3d6000fd5b505050505b8673ffffffffffffffffffffffffffffffffffffffff166323b872dd3060038c8154811061086357610862611d05565b5b906000526020600020906004020160030160009054906101000a900473ffffffffffffffffffffffffffffffffffffffff1660038d815481106108a9576108a8611d05565b5b9060005260206000209060040201600001546040518463ffffffff1660e01b81526004016108d9939291906120fb565b600060405180830381600087803b1580156108f357600080fd5b505af1158015610907573d6000803e3d6000fd5b505050508473ffffffffffffffffffffffffffffffffffffffff166323b872dd3060038c8154811061093c5761093b611d05565b5b906000526020600020906004020160030160009054906101000a900473ffffffffffffffffffffffffffffffffffffffff1660038d8154811061098257610981611d05565b5b9060005260206000209060040201600101546040518463ffffffff1660e01b81526004016109b2939291906120fb565b600060405180830381600087803b1580156109cc57600080fd5b505af11580156109e0573d6000803e3d6000fd5b505050507f29ff51ec65c3624cd2121704cf2daacf509b10d7d22076e560d45c327b60923d60038a81548110610a1957610a18611d05565b5b906000526020600020906004020160030160009054906101000a900473ffffffffffffffffffffffffffffffffffffffff1660038b81548110610a5f57610a5e611d05565b5b90600052602060002090600402016000015460038c81548110610a8557610a84611d05565b5b906000526020600020906004020160010154604051610aa693929190612132565b60405180910390a160036001600380549050610ac29190612169565b81548110610ad357610ad2611d05565b5b906000526020600020906004020160038a81548110610af557610af4611d05565b5b90600052602060002090600402016000820154816000015560018201548160010155600282015481600201556003820160009054906101000a900473ffffffffffffffffffffffffffffffffffffffff168160030160006101000a81548173ffffffffffffffffffffffffffffffffffffffff021916908373ffffffffffffffffffffffffffffffffffffffff1602179055509050506003805480610b9d57610b9c61219d565b5b6001900381819060005260206000209060040201600080820160009055600182016000905560028201600090556003820160006101000a81549073ffffffffffffffffffffffffffffffffffffffff02191690555050905550505050505050505050565b600073e5bd6c5b1c2df8f499847a545838c09e45f4a262905060008173ffffffffffffffffffffffffffffffffffffffff166370a08231306040518263ffffffff1660e01b8152600401610c559190611b23565b602060405180830381865afa158015610c72573d6000803e3d6000fd5b505050506040513d601f19601f82011682018060405250810190610c9691906121cc565b90508173ffffffffffffffffffffffffffffffffffffffff1663a9059cbb33836040518363ffffffff1660e01b8152600401610cd39291906121f9565b6020604051808303816000875af1158015610cf2573d6000803e3d6000fd5b505050506040513d601f19601f82011682018060405250810190610d16919061225a565b505050565b6000600160009054906101000a900473ffffffffffffffffffffffffffffffffffffffff16905090565b610d4d61188e565b73ffffffffffffffffffffffffffffffffffffffff16610d6b610d1b565b73ffffffffffffffffffffffffffffffffffffffff1614610dc1576040517f08c379a0000000000000000000000000000000000000000000000000000000008152600401610db890611c79565b60405180910390fd5b80600a8190555050565b610dd361188e565b73ffffffffffffffffffffffffffffffffffffffff16610df1610d1b565b73ffffffffffffffffffffffffffffffffffffffff1614610e47576040517f08c379a0000000000000000000000000000000000000000000000000000000008152600401610e3e90611c79565b60405180910390fd5b600073ffffffffffffffffffffffffffffffffffffffff168173ffffffffffffffffffffffffffffffffffffffff161415610eb7576040517f08c379a0000000000000000000000000000000000000000000000000000000008152600401610eae906122f9565b60405180910390fd5b80600260006101000a81548173ffffffffffffffffffffffffffffffffffffffff021916908373ffffffffffffffffffffffffffffffffffffffff1602179055506209e3406005600060058110610f1157610f10611d05565b5b01819055506204f1a06005600160058110610f2f57610f2e611d05565b5b01819055506202a3006005600260058110610f4d57610f4c611d05565b5b0181905550620151806005600360058110610f6b57610f6a611d05565b5b018190555061a8c06005600460058110610f8857610f87611d05565b5b018190555050565b6000600260009054906101000a900473ffffffffffffffffffffffffffffffffffffffff16905060008173ffffffffffffffffffffffffffffffffffffffff1663970844456040518163ffffffff1660e01b8152600401602060405180830381865afa158015611004573d6000803e3d6000fd5b505050506040513d601f19601f820116820180604052508101906110289190611e21565b905060008273ffffffffffffffffffffffffffffffffffffffff1663549a1ab26040518163ffffffff1660e01b8152600401602060405180830381865afa158015611077573d6000803e3d6000fd5b505050506040513d601f19601f8201168201806040525081019061109b9190611e21565b90503373ffffffffffffffffffffffffffffffffffffffff168273ffffffffffffffffffffffffffffffffffffffff16636352211e876040518263ffffffff1660e01b81526004016110ed9190611ac7565b602060405180830381865afa15801561110a573d6000803e3d6000fd5b505050506040513d601f19601f8201168201806040525081019061112e9190611e21565b73ffffffffffffffffffffffffffffffffffffffff1614611184576040517f08c379a000000000000000000000000000000000000000000000000000000000815260040161117b90611d80565b60405180910390fd5b3373ffffffffffffffffffffffffffffffffffffffff168173ffffffffffffffffffffffffffffffffffffffff16636352211e866040518263ffffffff1660e01b81526004016111d49190611ac7565b602060405180830381865afa1580156111f1573d6000803e3d6000fd5b505050506040513d601f19601f820116820180604052508101906112159190611e21565b73ffffffffffffffffffffffffffffffffffffffff161461126b576040517f08c379a000000000000000000000000000000000000000000000000000000000815260040161126290611d80565b60405180910390fd5b60008273ffffffffffffffffffffffffffffffffffffffff166368ba0bcf876040518263ffffffff1660e01b81526004016112a69190611ac7565b606060405180830381865afa1580156112c3573d6000803e3d6000fd5b505050506040513d601f19601f820116820180604052508101906112e79190611f91565b905060008273ffffffffffffffffffffffffffffffffffffffff166368ba0bcf876040518263ffffffff1660e01b81526004016113249190611ac7565b606060405180830381865afa158015611341573d6000803e3d6000fd5b505050506040513d601f19601f820116820180604052508101906113659190612022565b9050806000015160ff16826000015160ff16146113b7576040517f08c379a00000000000000000000000000000000000000000000000000000000081526004016113ae9061238b565b60405180910390fd5b8060400151426113c79190612169565b6004541161140a576040517f08c379a0000000000000000000000000000000000000000000000000000000008152600401611401906123f7565b60405180910390fd5b73e5bd6c5b1c2df8f499847a545838c09e45f4a26273ffffffffffffffffffffffffffffffffffffffff166323b872dd3330600a546040518463ffffffff1660e01b815260040161145d939291906120fb565b6020604051808303816000875af115801561147c573d6000803e3d6000fd5b505050506040513d601f19601f820116820180604052508101906114a0919061225a565b506114a9611a08565b878160000181815250508681602001818152505033816060019073ffffffffffffffffffffffffffffffffffffffff16908173ffffffffffffffffffffffffffffffffffffffff16815250508160400151426004546115089190612169565b6115129190612417565b6004546005846000015160ff16600581106115305761152f611d05565b5b015461153c919061246d565b61154691906124f6565b426115519190612417565b816040018181525050600381908060018154018082558091505060019003906000526020600020906004020160009091909190915060008201518160000155602082015181600101556040820151816002015560608201518160030160006101000a81548173ffffffffffffffffffffffffffffffffffffffff021916908373ffffffffffffffffffffffffffffffffffffffff16021790555050508473ffffffffffffffffffffffffffffffffffffffff166323b872dd33308b6040518463ffffffff1660e01b815260040161162a939291906120fb565b600060405180830381600087803b15801561164457600080fd5b505af1158015611658573d6000803e3d6000fd5b505050508373ffffffffffffffffffffffffffffffffffffffff166323b872dd33308a6040518463ffffffff1660e01b8152600401611699939291906120fb565b600060405180830381600087803b1580156116b357600080fd5b505af11580156116c7573d6000803e3d6000fd5b505050507fd41dcbb7911b5a97e6f685eed7e638c109e478d5b63c8f583d86f7b5eb1b4e928888336040516116fe93929190612527565b60405180910390a15050505050505050565b600260009054906101000a900473ffffffffffffffffffffffffffffffffffffffff1681565b61173e61188e565b73ffffffffffffffffffffffffffffffffffffffff1661175c610d1b565b73ffffffffffffffffffffffffffffffffffffffff16146117b2576040517f08c379a00000000000000000000000000000000000000000000000000000000081526004016117a990611c79565b60405180910390fd5b600073ffffffffffffffffffffffffffffffffffffffff168173ffffffffffffffffffffffffffffffffffffffff161415611822576040517f08c379a0000000000000000000000000000000000000000000000000000000008152600401611819906125d0565b60405180910390fd5b61182b81611896565b50565b6003818154811061183e57600080fd5b90600052602060002090600402016000915090508060000154908060010154908060020154908060030160009054906101000a900473ffffffffffffffffffffffffffffffffffffffff16905084565b600033905090565b6000600160009054906101000a900473ffffffffffffffffffffffffffffffffffffffff16905081600160006101000a81548173ffffffffffffffffffffffffffffffffffffffff021916908373ffffffffffffffffffffffffffffffffffffffff1602179055508173ffffffffffffffffffffffffffffffffffffffff168173ffffffffffffffffffffffffffffffffffffffff167f8be0079c531659141344cd1fd0a4f28419497f9722a3daafe3b4186f6b6457e060405160405180910390a35050565b60008060009050600090505b6003805490508110156119be57826003828154811061198a57611989611d05565b5b90600052602060002090600402016001015414156119ab57809150506119c3565b80806119b6906125f0565b915050611968565b809150505b919050565b60008142336040516020016119de9291906126a2565b6040516020818303038152906040528051906020012060001c611a0191906126ce565b9050919050565b6040518060800160405280600081526020016000815260200160008152602001600073ffffffffffffffffffffffffffffffffffffffff1681525090565b6000604051905090565b600080fd5b6000819050919050565b611a6881611a55565b8114611a7357600080fd5b50565b600081359050611a8581611a5f565b92915050565b600060208284031215611aa157611aa0611a50565b5b6000611aaf84828501611a76565b91505092915050565b611ac181611a55565b82525050565b6000602082019050611adc6000830184611ab8565b92915050565b600073ffffffffffffffffffffffffffffffffffffffff82169050919050565b6000611b0d82611ae2565b9050919050565b611b1d81611b02565b82525050565b6000602082019050611b386000830184611b14565b92915050565b611b4781611b02565b8114611b5257600080fd5b50565b600081359050611b6481611b3e565b92915050565b600060208284031215611b8057611b7f611a50565b5b6000611b8e84828501611b55565b91505092915050565b60008060408385031215611bae57611bad611a50565b5b6000611bbc85828601611a76565b9250506020611bcd85828601611a76565b9150509250929050565b6000608082019050611bec6000830187611ab8565b611bf96020830186611ab8565b611c066040830185611ab8565b611c136060830184611b14565b95945050505050565b600082825260208201905092915050565b7f4f776e61626c653a2063616c6c6572206973206e6f7420746865206f776e6572600082015250565b6000611c63602083611c1c565b9150611c6e82611c2d565b602082019050919050565b60006020820190508181036000830152611c9281611c56565b9050919050565b7f496e76616c6964206272656564696e6700000000000000000000000000000000600082015250565b6000611ccf601083611c1c565b9150611cda82611c99565b602082019050919050565b60006020820190508181036000830152611cfe81611cc2565b9050919050565b7f4e487b7100000000000000000000000000000000000000000000000000000000600052603260045260246000fd5b7f4e6f74206f776e65720000000000000000000000000000000000000000000000600082015250565b6000611d6a600983611c1c565b9150611d7582611d34565b602082019050919050565b60006020820190508181036000830152611d9981611d5d565b9050919050565b7f5761697420756e74696c205265636f7665727900000000000000000000000000600082015250565b6000611dd6601383611c1c565b9150611de182611da0565b602082019050919050565b60006020820190508181036000830152611e0581611dc9565b9050919050565b600081519050611e1b81611b3e565b92915050565b600060208284031215611e3757611e36611a50565b5b6000611e4584828501611e0c565b91505092915050565b600080fd5b6000601f19601f8301169050919050565b7f4e487b7100000000000000000000000000000000000000000000000000000000600052604160045260246000fd5b611e9c82611e53565b810181811067ffffffffffffffff82111715611ebb57611eba611e64565b5b80604052505050565b6000611ece611a46565b9050611eda8282611e93565b919050565b600060ff82169050919050565b611ef581611edf565b8114611f0057600080fd5b50565b600081519050611f1281611eec565b92915050565b600081519050611f2781611a5f565b92915050565b600060608284031215611f4357611f42611e4e565b5b611f4d6060611ec4565b90506000611f5d84828501611f03565b6000830152506020611f7184828501611f03565b6020830152506040611f8584828501611f18565b60408301525092915050565b600060608284031215611fa757611fa6611a50565b5b6000611fb584828501611f2d565b91505092915050565b600060608284031215611fd457611fd3611e4e565b5b611fde6060611ec4565b90506000611fee84828501611f03565b600083015250602061200284828501611f03565b602083015250604061201684828501611f18565b60408301525092915050565b60006060828403121561203857612037611a50565b5b600061204684828501611fbe565b91505092915050565b7f4e487b7100000000000000000000000000000000000000000000000000000000600052601160045260246000fd5b600061208982611edf565b915061209483611edf565b92508260ff038211156120aa576120a961204f565b5b828201905092915050565b6120be81611edf565b82525050565b60006060820190506120d96000830186611b14565b6120e660208301856120b5565b6120f360408301846120b5565b949350505050565b60006060820190506121106000830186611b14565b61211d6020830185611b14565b61212a6040830184611ab8565b949350505050565b60006060820190506121476000830186611b14565b6121546020830185611ab8565b6121616040830184611ab8565b949350505050565b600061217482611a55565b915061217f83611a55565b9250828210156121925761219161204f565b5b828203905092915050565b7f4e487b7100000000000000000000000000000000000000000000000000000000600052603160045260246000fd5b6000602082840312156121e2576121e1611a50565b5b60006121f084828501611f18565b91505092915050565b600060408201905061220e6000830185611b14565b61221b6020830184611ab8565b9392505050565b60008115159050919050565b61223781612222565b811461224257600080fd5b50565b6000815190506122548161222e565b92915050565b6000602082840312156122705761226f611a50565b5b600061227e84828501612245565b91505092915050565b7f4d696e74657220636f6e7472616374206d757374206265206e6f6e2d7a65726f60008201527f2061646472657373000000000000000000000000000000000000000000000000602082015250565b60006122e3602883611c1c565b91506122ee82612287565b604082019050919050565b60006020820190508181036000830152612312816122d6565b9050919050565b7f4272656564696e6720697320696d706f737369626c65206265747765656e206460008201527f6966666572656e74207261726974790000000000000000000000000000000000602082015250565b6000612375602f83611c1c565b915061238082612319565b604082019050919050565b600060208201905081810360008301526123a481612368565b9050919050565b7f42756c6c20697320746f6f206f6c640000000000000000000000000000000000600082015250565b60006123e1600f83611c1c565b91506123ec826123ab565b602082019050919050565b60006020820190508181036000830152612410816123d4565b9050919050565b600061242282611a55565b915061242d83611a55565b9250827fffffffffffffffffffffffffffffffffffffffffffffffffffffffffffffffff038211156124625761246161204f565b5b828201905092915050565b600061247882611a55565b915061248383611a55565b9250817fffffffffffffffffffffffffffffffffffffffffffffffffffffffffffffffff04831182151516156124bc576124bb61204f565b5b828202905092915050565b7f4e487b7100000000000000000000000000000000000000000000000000000000600052601260045260246000fd5b600061250182611a55565b915061250c83611a55565b92508261251c5761251b6124c7565b5b828204905092915050565b600060608201905061253c6000830186611ab8565b6125496020830185611ab8565b6125566040830184611b14565b949350505050565b7f4f776e61626c653a206e6577206f776e657220697320746865207a65726f206160008201527f6464726573730000000000000000000000000000000000000000000000000000602082015250565b60006125ba602683611c1c565b91506125c58261255e565b604082019050919050565b600060208201905081810360008301526125e9816125ad565b9050919050565b60006125fb82611a55565b91507fffffffffffffffffffffffffffffffffffffffffffffffffffffffffffffffff82141561262e5761262d61204f565b5b600182019050919050565b6000819050919050565b61265461264f82611a55565b612639565b82525050565b60008160601b9050919050565b60006126728261265a565b9050919050565b600061268482612667565b9050919050565b61269c61269782611b02565b612679565b82525050565b60006126ae8285612643565b6020820191506126be828461268b565b6014820191508190509392505050565b60006126d982611a55565b91506126e483611a55565b9250826126f4576126f36124c7565b5b82820690509291505056fea26469706673582212205b22486445a03578b6508033bf1abe49f89b58c0e2b2ab3cb95b13e3c516332864736f6c634300080c0033",
  "immutableReferences": {},
  "source": "// SPDX-License-Identifier: MIT\r\npragma solidity >=0.4.22 <0.9.0;\r\n\r\nimport \"@openzeppelin/contracts/security/ReentrancyGuard.sol\";\r\nimport \"@openzeppelin/contracts/access/Ownable.sol\";\r\nimport \"@openzeppelin/contracts/utils/math/SafeMath.sol\";\r\nimport \"@openzeppelin/contracts/token/ERC20/IERC20.sol\";\r\nimport \"./interfaces/INftMinter.sol\";\r\nimport \"./interfaces/ILandNFT.sol\";\r\nimport \"./interfaces/ICowNFT.sol\";\r\nimport \"./interfaces/IBullNFT.sol\";\r\n\r\n\r\ncontract Breeding is ReentrancyGuard, Ownable {\r\n    address constant MILK_TOKEN_ADDRESS = 0xe5bd6C5b1c2Df8f499847a545838C09E45f4A262;\r\n    address public minterAddr; // NftMinter contract address\r\n\r\n    // Structure of BreedingVault\r\n    struct BreedingVault {\r\n        uint cowTokenId; // Staked Cow tokenId\r\n        uint bullTokenId; // Staked Bull tokenId\r\n        uint unlockTime; // Breeding time\r\n        address owner; // Owner of the couple\r\n    }\r\n    BreedingVault[] public breedingVaults; // Array of BreedingVault\r\n\r\n    uint maxRecoveryTime = 200 days;\r\n    uint[5] public baseRecoveryTime;\r\n    uint breedingPrice = 90*10**18;\r\n\r\n    event Breed(uint _cowTokenId, uint _bullTokenId, address _owner);\r\n    event ClaimedNewCattle(address _owner, uint _cowTokenId, uint _bullTokenId);\r\n\r\n    // Initialize the contract. This is for Proxy functionality.\r\n    function initialize(address _minterAddr) public onlyOwner {\r\n        require(_minterAddr != address(0), \"Minter contract must be non-zero address\");\r\n        minterAddr = _minterAddr;\r\n\r\n        baseRecoveryTime[0] = 180 hours;\r\n        baseRecoveryTime[1] = 90 hours;\r\n        baseRecoveryTime[2] = 48 hours;\r\n        baseRecoveryTime[3] = 24 hours;\r\n        baseRecoveryTime[4] = 12 hours;\r\n    }\r\n\r\n    // Deposit(Stake) a couple of Cow and Bull NFT for breeding.\r\n    function breed(uint _cowTokenId, uint _bullTokenId) public {\r\n        INftMinter minter = INftMinter(address(minterAddr));\r\n        ICowNFT cowNfts = ICowNFT(address(minter.cowNftColl()));\r\n        IBullNFT bullNfts = IBullNFT(address(minter.bullNftColl()));\r\n        require(cowNfts.ownerOf(_cowTokenId) == msg.sender, \"Not owner\");\r\n        require(bullNfts.ownerOf(_bullTokenId) == msg.sender, \"Not owner\");\r\n        ICowNFT.CattleAttr memory cowAttr = cowNfts.attrOf(_cowTokenId);\r\n        IBullNFT.CattleAttr memory bullAttr = bullNfts.attrOf(_bullTokenId);\r\n        require(cowAttr.rarity == bullAttr.rarity, \"Breeding is impossible between different rarity\");\r\n        require(maxRecoveryTime > (block.timestamp - bullAttr.birth), \"Bull is too old\");\r\n            \r\n        IERC20(address(MILK_TOKEN_ADDRESS)).transferFrom(msg.sender, address(this), breedingPrice);\r\n\r\n        BreedingVault memory newBreeding;\r\n        newBreeding.cowTokenId = _cowTokenId;\r\n        newBreeding.bullTokenId = _bullTokenId;\r\n        newBreeding.owner = msg.sender;\r\n\r\n        newBreeding.unlockTime = block.timestamp + baseRecoveryTime[bullAttr.rarity] * maxRecoveryTime / (maxRecoveryTime - block.timestamp + bullAttr.birth);\r\n        breedingVaults.push(newBreeding);\r\n\r\n        cowNfts.transferFrom(msg.sender, address(this), _cowTokenId);\r\n        bullNfts.transferFrom(msg.sender, address(this), _bullTokenId);\r\n\r\n        emit Breed(_cowTokenId, _bullTokenId, msg.sender);\r\n    }\r\n\r\n    // Claim newly breeded cattle(Cow or Bull NFT).\r\n    // Rarity : 80%(Parents rarity), 20%(Parents' rarity + 1)\r\n    // Breed : 50%(Cow's breed), 50%(Bull's breed)\r\n    // Cow or Bull : 95%(Cow), 5%(Bull)\r\n    function claimCattle(uint _bullTokenId) public {\r\n        uint breedingIdx = _indexOfBreedingByBull(_bullTokenId);\r\n        require(breedingIdx < breedingVaults.length, \"Invalid breeding\");\r\n        require(breedingVaults[breedingIdx].owner == msg.sender, \"Not owner\");\r\n        require(block.timestamp > breedingVaults[breedingIdx].unlockTime, \"Wait until Recovery\");\r\n\r\n        INftMinter minter = INftMinter(address(minterAddr));\r\n        ICowNFT cowNfts = ICowNFT(address(minter.cowNftColl()));\r\n        ICowNFT.CattleAttr memory cowAttr = cowNfts.attrOf(breedingVaults[breedingIdx].cowTokenId);\r\n\r\n        IBullNFT bullNfts = IBullNFT(address(minter.bullNftColl()));\r\n        IBullNFT.CattleAttr memory bullAttr = bullNfts.attrOf(breedingVaults[breedingIdx].cowTokenId);\r\n        \r\n        uint8 rarityOfNew = 0;\r\n        uint8 breedOfNew = bullAttr.breed;\r\n\r\n        uint randProbability = _rand(100);\r\n        if(randProbability < 80) {\r\n            rarityOfNew = bullAttr.rarity;\r\n        } else {\r\n            rarityOfNew = bullAttr.rarity + 1;\r\n        }\r\n\r\n        randProbability = _rand(100);\r\n        if(randProbability < 50) {\r\n            breedOfNew = cowAttr.breed;\r\n        }\r\n\r\n        randProbability = _rand(100);\r\n        if(randProbability < 95) {\r\n            minter.mintCow(breedingVaults[breedingIdx].owner, rarityOfNew, breedOfNew);\r\n        } else {\r\n            minter.mintBull(breedingVaults[breedingIdx].owner, rarityOfNew, breedOfNew);\r\n        }\r\n\r\n        cowNfts.transferFrom(address(this), breedingVaults[breedingIdx].owner, breedingVaults[breedingIdx].cowTokenId);\r\n        bullNfts.transferFrom(address(this), breedingVaults[breedingIdx].owner, breedingVaults[breedingIdx].bullTokenId);\r\n\r\n        emit ClaimedNewCattle(breedingVaults[breedingIdx].owner, breedingVaults[breedingIdx].cowTokenId, breedingVaults[breedingIdx].bullTokenId);\r\n\r\n        breedingVaults[breedingIdx] = breedingVaults[breedingVaults.length - 1];\r\n        breedingVaults.pop();\r\n    }\r\n\r\n    // Set breeding price\r\n    function setBreedingPrice(uint _price) public onlyOwner {\r\n        breedingPrice = _price;\r\n    }\r\n\r\n    // Withdraw MILK tokens.\r\n    function withdrawMilk() public {\r\n        IERC20 payContract = IERC20(address(MILK_TOKEN_ADDRESS));\r\n        uint amountOf = payContract.balanceOf(address(this));\r\n        payContract.transfer(msg.sender, amountOf);\r\n    }\r\n\r\n    function _indexOfBreedingByBull(uint _bullTokenId) private view returns (uint) {\r\n        uint idx = 0;\r\n        for(idx = 0;idx < breedingVaults.length;idx ++){\r\n            if(breedingVaults[idx].bullTokenId == _bullTokenId) {\r\n                return idx;\r\n            }\r\n        }\r\n        return idx;\r\n    }\r\n\r\n    function _rand(uint _modulus) internal view returns (uint) {\r\n        return uint(keccak256(abi.encodePacked(block.timestamp, msg.sender))) % _modulus;\r\n    }\r\n}",
  "sourcePath": "D:\\Workspace\\Projects\\CashCow\\game-contracts\\contracts\\Breeding.sol",
  "compiler": {
    "name": "solc",
    "version": "0.8.12+commit.f00d7308.Emscripten.clang"
  },
  "schemaVersion": "3.4.6",
  "updatedAt": "2022-04-21T13:47:33.093Z",
  "devdoc": {
    "kind": "dev",
    "methods": {
      "owner()": {
        "details": "Returns the address of the current owner."
      },
      "renounceOwnership()": {
        "details": "Leaves the contract without owner. It will not be possible to call `onlyOwner` functions anymore. Can only be called by the current owner. NOTE: Renouncing ownership will leave the contract without an owner, thereby removing any functionality that is only available to the owner."
      },
      "transferOwnership(address)": {
        "details": "Transfers ownership of the contract to a new account (`newOwner`). Can only be called by the current owner."
      }
    },
    "version": 1
  },
  "userdoc": {
    "kind": "user",
    "methods": {},
    "version": 1
  }
}