{
  "contractName": "Breeding",
  "abi": [
    {
      "anonymous": false,
      "inputs": [
        {
          "indexed": false,
          "internalType": "uint256",
          "name": "_cowTokenId",
          "type": "uint256"
        },
        {
          "indexed": false,
          "internalType": "uint256",
          "name": "_bullTokenId",
          "type": "uint256"
        },
        {
          "indexed": false,
          "internalType": "address",
          "name": "_owner",
          "type": "address"
        }
      ],
      "name": "Breed",
      "type": "event"
    },
    {
      "anonymous": false,
      "inputs": [
        {
          "indexed": false,
          "internalType": "address",
          "name": "_owner",
          "type": "address"
        },
        {
          "indexed": false,
          "internalType": "uint256",
          "name": "_cowTokenId",
          "type": "uint256"
        },
        {
          "indexed": false,
          "internalType": "uint256",
          "name": "_bullTokenId",
          "type": "uint256"
        }
      ],
      "name": "ClaimedNewCattle",
      "type": "event"
    },
    {
      "anonymous": false,
      "inputs": [
        {
          "indexed": true,
          "internalType": "address",
          "name": "previousOwner",
          "type": "address"
        },
        {
          "indexed": true,
          "internalType": "address",
          "name": "newOwner",
          "type": "address"
        }
      ],
      "name": "OwnershipTransferred",
      "type": "event"
    },
    {
      "inputs": [
        {
          "internalType": "uint256",
          "name": "",
          "type": "uint256"
        }
      ],
      "name": "baseRecoveryTime",
      "outputs": [
        {
          "internalType": "uint256",
          "name": "",
          "type": "uint256"
        }
      ],
      "stateMutability": "view",
      "type": "function",
      "constant": true
    },
    {
      "inputs": [],
      "name": "breedingPrice",
      "outputs": [
        {
          "internalType": "uint256",
          "name": "",
          "type": "uint256"
        }
      ],
      "stateMutability": "view",
      "type": "function",
      "constant": true
    },
    {
      "inputs": [
        {
          "internalType": "uint256",
          "name": "",
          "type": "uint256"
        }
      ],
      "name": "breedingVaults",
      "outputs": [
        {
          "internalType": "uint256",
          "name": "cowTokenId",
          "type": "uint256"
        },
        {
          "internalType": "uint256",
          "name": "rarity",
          "type": "uint256"
        },
        {
          "internalType": "uint256",
          "name": "cowBreed",
          "type": "uint256"
        },
        {
          "internalType": "uint256",
          "name": "bullTokenId",
          "type": "uint256"
        },
        {
          "internalType": "uint256",
          "name": "bullBreed",
          "type": "uint256"
        },
        {
          "internalType": "uint256",
          "name": "unlockTime",
          "type": "uint256"
        },
        {
          "internalType": "address",
          "name": "owner",
          "type": "address"
        }
      ],
      "stateMutability": "view",
      "type": "function",
      "constant": true
    },
    {
      "inputs": [],
      "name": "maxRecoveryTime",
      "outputs": [
        {
          "internalType": "uint256",
          "name": "",
          "type": "uint256"
        }
      ],
      "stateMutability": "view",
      "type": "function",
      "constant": true
    },
    {
      "inputs": [],
      "name": "minterAddr",
      "outputs": [
        {
          "internalType": "address",
          "name": "",
          "type": "address"
        }
      ],
      "stateMutability": "view",
      "type": "function",
      "constant": true
    },
    {
      "inputs": [],
      "name": "owner",
      "outputs": [
        {
          "internalType": "address",
          "name": "",
          "type": "address"
        }
      ],
      "stateMutability": "view",
      "type": "function",
      "constant": true
    },
    {
      "inputs": [],
      "name": "renounceOwnership",
      "outputs": [],
      "stateMutability": "nonpayable",
      "type": "function"
    },
    {
      "inputs": [
        {
          "internalType": "address",
          "name": "newOwner",
          "type": "address"
        }
      ],
      "name": "transferOwnership",
      "outputs": [],
      "stateMutability": "nonpayable",
      "type": "function"
    },
    {
      "inputs": [
        {
          "internalType": "address",
          "name": "_minterAddr",
          "type": "address"
        }
      ],
      "name": "initialize",
      "outputs": [],
      "stateMutability": "nonpayable",
      "type": "function"
    },
    {
      "inputs": [
        {
          "internalType": "uint256",
          "name": "_cowTokenId",
          "type": "uint256"
        },
        {
          "internalType": "uint256",
          "name": "_bullTokenId",
          "type": "uint256"
        }
      ],
      "name": "breed",
      "outputs": [],
      "stateMutability": "nonpayable",
      "type": "function"
    },
    {
      "inputs": [
        {
          "internalType": "uint256",
          "name": "_bullTokenId",
          "type": "uint256"
        }
      ],
      "name": "claimCattle",
      "outputs": [],
      "stateMutability": "nonpayable",
      "type": "function"
    },
    {
      "inputs": [
        {
          "internalType": "uint256",
          "name": "_price",
          "type": "uint256"
        }
      ],
      "name": "setBreedingPrice",
      "outputs": [],
      "stateMutability": "nonpayable",
      "type": "function"
    },
    {
      "inputs": [],
      "name": "withdrawMilk",
      "outputs": [],
      "stateMutability": "nonpayable",
      "type": "function"
    },
    {
      "inputs": [
        {
          "internalType": "address",
          "name": "userAddress",
          "type": "address"
        }
      ],
      "name": "getBreedingItems",
      "outputs": [
        {
          "internalType": "uint256[]",
          "name": "",
          "type": "uint256[]"
        },
        {
          "internalType": "uint256[]",
          "name": "",
          "type": "uint256[]"
        },
        {
          "internalType": "uint256[]",
          "name": "",
          "type": "uint256[]"
        },
        {
          "internalType": "uint256[]",
          "name": "",
          "type": "uint256[]"
        },
        {
          "internalType": "uint256[]",
          "name": "",
          "type": "uint256[]"
        },
        {
          "internalType": "uint256[]",
          "name": "",
          "type": "uint256[]"
        }
      ],
      "stateMutability": "view",
      "type": "function",
      "constant": true
    },
    {
      "inputs": [
        {
          "internalType": "uint256",
          "name": "_rarityP",
          "type": "uint256"
        },
        {
          "internalType": "uint256",
          "name": "_breedP",
          "type": "uint256"
        },
        {
          "internalType": "uint256",
          "name": "_cowP",
          "type": "uint256"
        }
      ],
      "name": "setProbabilities",
      "outputs": [],
      "stateMutability": "nonpayable",
      "type": "function"
    },
    {
      "inputs": [
        {
          "internalType": "uint256",
          "name": "_breedingIdx",
          "type": "uint256"
        }
      ],
      "name": "cancelBreeding",
      "outputs": [],
      "stateMutability": "nonpayable",
      "type": "function"
    }
  ],
  "bytecode": "0x6080604052630107ac006004556804e1003b28d9280000600a556032600b556050600c55605a600d553480156200003557600080fd5b5060016000819055506200005e620000526200006460201b60201c565b6200006c60201b60201c565b62000132565b600033905090565b6000600160009054906101000a900473ffffffffffffffffffffffffffffffffffffffff16905081600160006101000a81548173ffffffffffffffffffffffffffffffffffffffff021916908373ffffffffffffffffffffffffffffffffffffffff1602179055508173ffffffffffffffffffffffffffffffffffffffff168173ffffffffffffffffffffffffffffffffffffffff167f8be0079c531659141344cd1fd0a4f28419497f9722a3daafe3b4186f6b6457e060405160405180910390a35050565b61342f80620001426000396000f3fe608060405234801561001057600080fd5b50600436106101005760003560e01c80639409950a11610097578063d9ecad7b11610066578063d9ecad7b14610264578063db71fed714610280578063f2fde38b1461029e578063f95998d3146102ba57610100565b80639409950a146101db5780639564dfae146102105780639c2d14d51461022c578063c4d66de81461024857610100565b8063715018a6116100d3578063715018a61461018d578063817aa461146101975780638aeb7389146101b35780638da5cb5b146101bd57610100565b806308187ac71461010557806309d49a25146101355780630b71f01c146101515780636411140a1461016f575b600080fd5b61011f600480360381019061011a9190612553565b6102f0565b60405161012c919061258f565b60405180910390f35b61014f600480360381019061014a91906125aa565b61030b565b005b6101596103a1565b604051610166919061258f565b60405180910390f35b6101776103a7565b604051610184919061258f565b60405180910390f35b6101956103ad565b005b6101b160048036038101906101ac9190612553565b610435565b005b6101bb610df2565b005b6101c5610f0c565b6040516101d2919061263e565b60405180910390f35b6101f560048036038101906101f09190612685565b610f36565b60405161020796959493929190612770565b60405180910390f35b61022a60048036038101906102259190612553565b611381565b005b61024660048036038101906102419190612553565b611407565b005b610262600480360381019061025d9190612685565b611985565b005b61027e600480360381019061027991906127fb565b611b4a565b005b6102886121b1565b604051610295919061263e565b60405180910390f35b6102b860048036038101906102b39190612685565b6121d7565b005b6102d460048036038101906102cf9190612553565b6122cf565b6040516102e7979695949392919061283b565b60405180910390f35b6005816005811061030057600080fd5b016000915090505481565b610313612341565b73ffffffffffffffffffffffffffffffffffffffff16610331610f0c565b73ffffffffffffffffffffffffffffffffffffffff1614610387576040517f08c379a000000000000000000000000000000000000000000000000000000000815260040161037e90612907565b60405180910390fd5b82600b8190555081600c8190555080600d81905550505050565b60045481565b600a5481565b6103b5612341565b73ffffffffffffffffffffffffffffffffffffffff166103d3610f0c565b73ffffffffffffffffffffffffffffffffffffffff1614610429576040517f08c379a000000000000000000000000000000000000000000000000000000000815260040161042090612907565b60405180910390fd5b6104336000612349565b565b60006104408261240f565b90506003805490508110610489576040517f08c379a000000000000000000000000000000000000000000000000000000000815260040161048090612973565b60405180910390fd5b3373ffffffffffffffffffffffffffffffffffffffff16600382815481106104b4576104b3612993565b5b906000526020600020906007020160060160009054906101000a900473ffffffffffffffffffffffffffffffffffffffff1673ffffffffffffffffffffffffffffffffffffffff161461053c576040517f08c379a000000000000000000000000000000000000000000000000000000000815260040161053390612a0e565b60405180910390fd5b600381815481106105505761054f612993565b5b90600052602060002090600702016005015442116105a3576040517f08c379a000000000000000000000000000000000000000000000000000000000815260040161059a90612a7a565b60405180910390fd5b6000600260009054906101000a900473ffffffffffffffffffffffffffffffffffffffff16905060008173ffffffffffffffffffffffffffffffffffffffff1663970844456040518163ffffffff1660e01b8152600401602060405180830381865afa158015610617573d6000803e3d6000fd5b505050506040513d601f19601f8201168201806040525081019061063b9190612aaf565b905060008173ffffffffffffffffffffffffffffffffffffffff166368ba0bcf6003868154811061066f5761066e612993565b5b9060005260206000209060070201600001546040518263ffffffff1660e01b815260040161069d919061258f565b606060405180830381865afa1580156106ba573d6000803e3d6000fd5b505050506040513d601f19601f820116820180604052508101906106de9190612c1f565b905060008373ffffffffffffffffffffffffffffffffffffffff1663549a1ab26040518163ffffffff1660e01b8152600401602060405180830381865afa15801561072d573d6000803e3d6000fd5b505050506040513d601f19601f820116820180604052508101906107519190612aaf565b905060008173ffffffffffffffffffffffffffffffffffffffff166368ba0bcf6003888154811061078557610784612993565b5b9060005260206000209060070201600001546040518263ffffffff1660e01b81526004016107b3919061258f565b606060405180830381865afa1580156107d0573d6000803e3d6000fd5b505050506040513d601f19601f820116820180604052508101906107f49190612cb0565b905060008082602001519050600061080c606461247b565b9050600b548110801561082657506004846000015160ff16145b15610837578360000151925061084b565b600184600001516108489190612d0c565b92505b610855606461247b565b9050600c5481101561086957856020015191505b610873606461247b565b9050600d54811015610938578773ffffffffffffffffffffffffffffffffffffffff1663571dc7b860038b815481106108af576108ae612993565b5b906000526020600020906007020160060160009054906101000a900473ffffffffffffffffffffffffffffffffffffffff1685856040518463ffffffff1660e01b815260040161090193929190612d52565b600060405180830381600087803b15801561091b57600080fd5b505af115801561092f573d6000803e3d6000fd5b505050506109ed565b8773ffffffffffffffffffffffffffffffffffffffff16639e16866760038b8154811061096857610967612993565b5b906000526020600020906007020160060160009054906101000a900473ffffffffffffffffffffffffffffffffffffffff1685856040518463ffffffff1660e01b81526004016109ba93929190612d52565b600060405180830381600087803b1580156109d457600080fd5b505af11580156109e8573d6000803e3d6000fd5b505050505b8673ffffffffffffffffffffffffffffffffffffffff166323b872dd3060038c81548110610a1e57610a1d612993565b5b906000526020600020906007020160060160009054906101000a900473ffffffffffffffffffffffffffffffffffffffff1660038d81548110610a6457610a63612993565b5b9060005260206000209060070201600001546040518463ffffffff1660e01b8152600401610a9493929190612d89565b600060405180830381600087803b158015610aae57600080fd5b505af1158015610ac2573d6000803e3d6000fd5b505050508473ffffffffffffffffffffffffffffffffffffffff166323b872dd3060038c81548110610af757610af6612993565b5b906000526020600020906007020160060160009054906101000a900473ffffffffffffffffffffffffffffffffffffffff1660038d81548110610b3d57610b3c612993565b5b9060005260206000209060070201600301546040518463ffffffff1660e01b8152600401610b6d93929190612d89565b600060405180830381600087803b158015610b8757600080fd5b505af1158015610b9b573d6000803e3d6000fd5b505050507f29ff51ec65c3624cd2121704cf2daacf509b10d7d22076e560d45c327b60923d60038a81548110610bd457610bd3612993565b5b906000526020600020906007020160060160009054906101000a900473ffffffffffffffffffffffffffffffffffffffff1660038b81548110610c1a57610c19612993565b5b90600052602060002090600702016000015460038c81548110610c4057610c3f612993565b5b906000526020600020906007020160030154604051610c6193929190612dc0565b60405180910390a160036001600380549050610c7d9190612df7565b81548110610c8e57610c8d612993565b5b906000526020600020906007020160038a81548110610cb057610caf612993565b5b90600052602060002090600702016000820154816000015560018201548160010155600282015481600201556003820154816003015560048201548160040155600582015481600501556006820160009054906101000a900473ffffffffffffffffffffffffffffffffffffffff168160060160006101000a81548173ffffffffffffffffffffffffffffffffffffffff021916908373ffffffffffffffffffffffffffffffffffffffff1602179055509050506003805480610d7657610d75612e2b565b5b6001900381819060005260206000209060070201600080820160009055600182016000905560028201600090556003820160009055600482016000905560058201600090556006820160006101000a81549073ffffffffffffffffffffffffffffffffffffffff02191690555050905550505050505050505050565b6000733efa66ab2b1690e9be8e82784edff2cf2dc150e0905060008173ffffffffffffffffffffffffffffffffffffffff166370a08231306040518263ffffffff1660e01b8152600401610e46919061263e565b602060405180830381865afa158015610e63573d6000803e3d6000fd5b505050506040513d601f19601f82011682018060405250810190610e879190612e5a565b90508173ffffffffffffffffffffffffffffffffffffffff1663a9059cbb33836040518363ffffffff1660e01b8152600401610ec4929190612e87565b6020604051808303816000875af1158015610ee3573d6000803e3d6000fd5b505050506040513d601f19601f82011682018060405250810190610f079190612ee8565b505050565b6000600160009054906101000a900473ffffffffffffffffffffffffffffffffffffffff16905090565b606080606080606080600060038054905090506000808267ffffffffffffffff811115610f6657610f65612af2565b5b604051908082528060200260200182016040528015610f945781602001602082028036833780820191505090505b50905060008367ffffffffffffffff811115610fb357610fb2612af2565b5b604051908082528060200260200182016040528015610fe15781602001602082028036833780820191505090505b50905060008467ffffffffffffffff81111561100057610fff612af2565b5b60405190808252806020026020018201604052801561102e5781602001602082028036833780820191505090505b50905060008567ffffffffffffffff81111561104d5761104c612af2565b5b60405190808252806020026020018201604052801561107b5781602001602082028036833780820191505090505b50905060008667ffffffffffffffff81111561109a57611099612af2565b5b6040519080825280602002602001820160405280156110c85781602001602082028036833780820191505090505b50905060008767ffffffffffffffff8111156110e7576110e6612af2565b5b6040519080825280602002602001820160405280156111155781602001602082028036833780820191505090505b50905060005b8881101561135d578f73ffffffffffffffffffffffffffffffffffffffff166003828154811061114e5761114d612993565b5b906000526020600020906007020160060160009054906101000a900473ffffffffffffffffffffffffffffffffffffffff1673ffffffffffffffffffffffffffffffffffffffff16141561134a57600381815481106111b0576111af612993565b5b9060005260206000209060070201600001548789815181106111d5576111d4612993565b5b602002602001018181525050600381815481106111f5576111f4612993565b5b90600052602060002090600702016001015486898151811061121a57611219612993565b5b6020026020010181815250506003818154811061123a57611239612993565b5b90600052602060002090600702016002015485898151811061125f5761125e612993565b5b6020026020010181815250506003818154811061127f5761127e612993565b5b9060005260206000209060070201600301548489815181106112a4576112a3612993565b5b602002602001018181525050600381815481106112c4576112c3612993565b5b9060005260206000209060070201600401548389815181106112e9576112e8612993565b5b6020026020010181815250506003818154811061130957611308612993565b5b90600052602060002090600702016005015482898151811061132e5761132d612993565b5b6020026020010181815250506001886113479190612f15565b97505b808061135590612f6b565b91505061111b565b508585858585859d509d509d509d509d509d50505050505050505091939550919395565b611389612341565b73ffffffffffffffffffffffffffffffffffffffff166113a7610f0c565b73ffffffffffffffffffffffffffffffffffffffff16146113fd576040517f08c379a00000000000000000000000000000000000000000000000000000000081526004016113f490612907565b60405180910390fd5b80600a8190555050565b60006003828154811061141d5761141c612993565b5b90600052602060002090600702016040518060e00160405290816000820154815260200160018201548152602001600282015481526020016003820154815260200160048201548152602001600582015481526020016006820160009054906101000a900473ffffffffffffffffffffffffffffffffffffffff1673ffffffffffffffffffffffffffffffffffffffff1673ffffffffffffffffffffffffffffffffffffffff16815250509050600060038054905090506000600260009054906101000a900473ffffffffffffffffffffffffffffffffffffffff16905060008173ffffffffffffffffffffffffffffffffffffffff1663970844456040518163ffffffff1660e01b8152600401602060405180830381865afa158015611548573d6000803e3d6000fd5b505050506040513d601f19601f8201168201806040525081019061156c9190612aaf565b905060008273ffffffffffffffffffffffffffffffffffffffff1663549a1ab26040518163ffffffff1660e01b8152600401602060405180830381865afa1580156115bb573d6000803e3d6000fd5b505050506040513d601f19601f820116820180604052508101906115df9190612aaf565b90503373ffffffffffffffffffffffffffffffffffffffff168560c0015173ffffffffffffffffffffffffffffffffffffffff1614611653576040517f08c379a000000000000000000000000000000000000000000000000000000000815260040161164a90613000565b60405180910390fd5b8173ffffffffffffffffffffffffffffffffffffffff166323b872dd306003898154811061168457611683612993565b5b906000526020600020906007020160060160009054906101000a900473ffffffffffffffffffffffffffffffffffffffff1660038a815481106116ca576116c9612993565b5b9060005260206000209060070201600001546040518463ffffffff1660e01b81526004016116fa93929190612d89565b600060405180830381600087803b15801561171457600080fd5b505af1158015611728573d6000803e3d6000fd5b505050508073ffffffffffffffffffffffffffffffffffffffff166323b872dd306003898154811061175d5761175c612993565b5b906000526020600020906007020160060160009054906101000a900473ffffffffffffffffffffffffffffffffffffffff1660038a815481106117a3576117a2612993565b5b9060005260206000209060070201600301546040518463ffffffff1660e01b81526004016117d393929190612d89565b600060405180830381600087803b1580156117ed57600080fd5b505af1158015611801573d6000803e3d6000fd5b5050505060036001856118149190612df7565b8154811061182557611824612993565b5b90600052602060002090600702016003878154811061184757611846612993565b5b90600052602060002090600702016000820154816000015560018201548160010155600282015481600201556003820154816003015560048201548160040155600582015481600501556006820160009054906101000a900473ffffffffffffffffffffffffffffffffffffffff168160060160006101000a81548173ffffffffffffffffffffffffffffffffffffffff021916908373ffffffffffffffffffffffffffffffffffffffff160217905550905050600380548061190d5761190c612e2b565b5b6001900381819060005260206000209060070201600080820160009055600182016000905560028201600090556003820160009055600482016000905560058201600090556006820160006101000a81549073ffffffffffffffffffffffffffffffffffffffff021916905550509055505050505050565b61198d612341565b73ffffffffffffffffffffffffffffffffffffffff166119ab610f0c565b73ffffffffffffffffffffffffffffffffffffffff1614611a01576040517f08c379a00000000000000000000000000000000000000000000000000000000081526004016119f890612907565b60405180910390fd5b600073ffffffffffffffffffffffffffffffffffffffff168173ffffffffffffffffffffffffffffffffffffffff161415611a71576040517f08c379a0000000000000000000000000000000000000000000000000000000008152600401611a6890613092565b60405180910390fd5b80600260006101000a81548173ffffffffffffffffffffffffffffffffffffffff021916908373ffffffffffffffffffffffffffffffffffffffff1602179055506209e3406005600060058110611acb57611aca612993565b5b01819055506204f1a06005600160058110611ae957611ae8612993565b5b01819055506202a3006005600260058110611b0757611b06612993565b5b0181905550620151806005600360058110611b2557611b24612993565b5b018190555061a8c06005600460058110611b4257611b41612993565b5b018190555050565b6000600260009054906101000a900473ffffffffffffffffffffffffffffffffffffffff16905060008173ffffffffffffffffffffffffffffffffffffffff1663970844456040518163ffffffff1660e01b8152600401602060405180830381865afa158015611bbe573d6000803e3d6000fd5b505050506040513d601f19601f82011682018060405250810190611be29190612aaf565b905060008273ffffffffffffffffffffffffffffffffffffffff1663549a1ab26040518163ffffffff1660e01b8152600401602060405180830381865afa158015611c31573d6000803e3d6000fd5b505050506040513d601f19601f82011682018060405250810190611c559190612aaf565b905060008273ffffffffffffffffffffffffffffffffffffffff166368ba0bcf876040518263ffffffff1660e01b8152600401611c92919061258f565b606060405180830381865afa158015611caf573d6000803e3d6000fd5b505050506040513d601f19601f82011682018060405250810190611cd39190612c1f565b905060008273ffffffffffffffffffffffffffffffffffffffff166368ba0bcf876040518263ffffffff1660e01b8152600401611d10919061258f565b606060405180830381865afa158015611d2d573d6000803e3d6000fd5b505050506040513d601f19601f82011682018060405250810190611d519190612cb0565b90506000816040015142611d659190612df7565b9050816000015160ff16836000015160ff1614611db7576040517f08c379a0000000000000000000000000000000000000000000000000000000008152600401611dae90613124565b60405180910390fd5b6201518081611dc69190613173565b62015180600454611dd79190613173565b11611e17576040517f08c379a0000000000000000000000000000000000000000000000000000000008152600401611e0e906131f0565b60405180910390fd5b733efa66ab2b1690e9be8e82784edff2cf2dc150e073ffffffffffffffffffffffffffffffffffffffff166323b872dd3330600a546040518463ffffffff1660e01b8152600401611e6a93929190612d89565b6020604051808303816000875af1158015611e89573d6000803e3d6000fd5b505050506040513d601f19601f82011682018060405250810190611ead9190612ee8565b50611eb66124bb565b8881600001818152505087816060018181525050836020015160ff16816040018181525050836000015160ff16816020018181525050826020015160ff16816080018181525050338160c0019073ffffffffffffffffffffffffffffffffffffffff16908173ffffffffffffffffffffffffffffffffffffffff16815250506000600454600a84600454611f4a9190612df7565b611f549190613210565b611f5e9190613173565b600a611f6a9190612df7565b9050600a816005866000015160ff1660058110611f8a57611f89612993565b5b0154611f969190613210565b611fa09190613173565b6005856000015160ff1660058110611fbb57611fba612993565b5b015442611fc89190612f15565b611fd29190612f15565b8260a00181815250506003829080600181540180825580915050600190039060005260206000209060070201600090919091909150600082015181600001556020820151816001015560408201518160020155606082015181600301556080820151816004015560a0820151816005015560c08201518160060160006101000a81548173ffffffffffffffffffffffffffffffffffffffff021916908373ffffffffffffffffffffffffffffffffffffffff16021790555050508673ffffffffffffffffffffffffffffffffffffffff166323b872dd33308d6040518463ffffffff1660e01b81526004016120c993929190612d89565b600060405180830381600087803b1580156120e357600080fd5b505af11580156120f7573d6000803e3d6000fd5b505050508573ffffffffffffffffffffffffffffffffffffffff166323b872dd33308c6040518463ffffffff1660e01b815260040161213893929190612d89565b600060405180830381600087803b15801561215257600080fd5b505af1158015612166573d6000803e3d6000fd5b505050507fd41dcbb7911b5a97e6f685eed7e638c109e478d5b63c8f583d86f7b5eb1b4e928a8a3360405161219d9392919061326a565b60405180910390a150505050505050505050565b600260009054906101000a900473ffffffffffffffffffffffffffffffffffffffff1681565b6121df612341565b73ffffffffffffffffffffffffffffffffffffffff166121fd610f0c565b73ffffffffffffffffffffffffffffffffffffffff1614612253576040517f08c379a000000000000000000000000000000000000000000000000000000000815260040161224a90612907565b60405180910390fd5b600073ffffffffffffffffffffffffffffffffffffffff168173ffffffffffffffffffffffffffffffffffffffff1614156122c3576040517f08c379a00000000000000000000000000000000000000000000000000000000081526004016122ba90613313565b60405180910390fd5b6122cc81612349565b50565b600381815481106122df57600080fd5b90600052602060002090600702016000915090508060000154908060010154908060020154908060030154908060040154908060050154908060060160009054906101000a900473ffffffffffffffffffffffffffffffffffffffff16905087565b600033905090565b6000600160009054906101000a900473ffffffffffffffffffffffffffffffffffffffff16905081600160006101000a81548173ffffffffffffffffffffffffffffffffffffffff021916908373ffffffffffffffffffffffffffffffffffffffff1602179055508173ffffffffffffffffffffffffffffffffffffffff168173ffffffffffffffffffffffffffffffffffffffff167f8be0079c531659141344cd1fd0a4f28419497f9722a3daafe3b4186f6b6457e060405160405180910390a35050565b60008060009050600090505b60038054905081101561247157826003828154811061243d5761243c612993565b5b906000526020600020906007020160030154141561245e5780915050612476565b808061246990612f6b565b91505061241b565b809150505b919050565b600081423360405160200161249192919061339c565b6040516020818303038152906040528051906020012060001c6124b491906133c8565b9050919050565b6040518060e00160405280600081526020016000815260200160008152602001600081526020016000815260200160008152602001600073ffffffffffffffffffffffffffffffffffffffff1681525090565b6000604051905090565b600080fd5b6000819050919050565b6125308161251d565b811461253b57600080fd5b50565b60008135905061254d81612527565b92915050565b60006020828403121561256957612568612518565b5b60006125778482850161253e565b91505092915050565b6125898161251d565b82525050565b60006020820190506125a46000830184612580565b92915050565b6000806000606084860312156125c3576125c2612518565b5b60006125d18682870161253e565b93505060206125e28682870161253e565b92505060406125f38682870161253e565b9150509250925092565b600073ffffffffffffffffffffffffffffffffffffffff82169050919050565b6000612628826125fd565b9050919050565b6126388161261d565b82525050565b6000602082019050612653600083018461262f565b92915050565b6126628161261d565b811461266d57600080fd5b50565b60008135905061267f81612659565b92915050565b60006020828403121561269b5761269a612518565b5b60006126a984828501612670565b91505092915050565b600081519050919050565b600082825260208201905092915050565b6000819050602082019050919050565b6126e78161251d565b82525050565b60006126f983836126de565b60208301905092915050565b6000602082019050919050565b600061271d826126b2565b61272781856126bd565b9350612732836126ce565b8060005b8381101561276357815161274a88826126ed565b975061275583612705565b925050600181019050612736565b5085935050505092915050565b600060c082019050818103600083015261278a8189612712565b9050818103602083015261279e8188612712565b905081810360408301526127b28187612712565b905081810360608301526127c68186612712565b905081810360808301526127da8185612712565b905081810360a08301526127ee8184612712565b9050979650505050505050565b6000806040838503121561281257612811612518565b5b60006128208582860161253e565b92505060206128318582860161253e565b9150509250929050565b600060e082019050612850600083018a612580565b61285d6020830189612580565b61286a6040830188612580565b6128776060830187612580565b6128846080830186612580565b61289160a0830185612580565b61289e60c083018461262f565b98975050505050505050565b600082825260208201905092915050565b7f4f776e61626c653a2063616c6c6572206973206e6f7420746865206f776e6572600082015250565b60006128f16020836128aa565b91506128fc826128bb565b602082019050919050565b60006020820190508181036000830152612920816128e4565b9050919050565b7f496e76616c6964206272656564696e6700000000000000000000000000000000600082015250565b600061295d6010836128aa565b915061296882612927565b602082019050919050565b6000602082019050818103600083015261298c81612950565b9050919050565b7f4e487b7100000000000000000000000000000000000000000000000000000000600052603260045260246000fd5b7f4e6f74206f776e65720000000000000000000000000000000000000000000000600082015250565b60006129f86009836128aa565b9150612a03826129c2565b602082019050919050565b60006020820190508181036000830152612a27816129eb565b9050919050565b7f5761697420756e74696c205265636f7665727900000000000000000000000000600082015250565b6000612a646013836128aa565b9150612a6f82612a2e565b602082019050919050565b60006020820190508181036000830152612a9381612a57565b9050919050565b600081519050612aa981612659565b92915050565b600060208284031215612ac557612ac4612518565b5b6000612ad384828501612a9a565b91505092915050565b600080fd5b6000601f19601f8301169050919050565b7f4e487b7100000000000000000000000000000000000000000000000000000000600052604160045260246000fd5b612b2a82612ae1565b810181811067ffffffffffffffff82111715612b4957612b48612af2565b5b80604052505050565b6000612b5c61250e565b9050612b688282612b21565b919050565b600060ff82169050919050565b612b8381612b6d565b8114612b8e57600080fd5b50565b600081519050612ba081612b7a565b92915050565b600081519050612bb581612527565b92915050565b600060608284031215612bd157612bd0612adc565b5b612bdb6060612b52565b90506000612beb84828501612b91565b6000830152506020612bff84828501612b91565b6020830152506040612c1384828501612ba6565b60408301525092915050565b600060608284031215612c3557612c34612518565b5b6000612c4384828501612bbb565b91505092915050565b600060608284031215612c6257612c61612adc565b5b612c6c6060612b52565b90506000612c7c84828501612b91565b6000830152506020612c9084828501612b91565b6020830152506040612ca484828501612ba6565b60408301525092915050565b600060608284031215612cc657612cc5612518565b5b6000612cd484828501612c4c565b91505092915050565b7f4e487b7100000000000000000000000000000000000000000000000000000000600052601160045260246000fd5b6000612d1782612b6d565b9150612d2283612b6d565b92508260ff03821115612d3857612d37612cdd565b5b828201905092915050565b612d4c81612b6d565b82525050565b6000606082019050612d67600083018661262f565b612d746020830185612d43565b612d816040830184612d43565b949350505050565b6000606082019050612d9e600083018661262f565b612dab602083018561262f565b612db86040830184612580565b949350505050565b6000606082019050612dd5600083018661262f565b612de26020830185612580565b612def6040830184612580565b949350505050565b6000612e028261251d565b9150612e0d8361251d565b925082821015612e2057612e1f612cdd565b5b828203905092915050565b7f4e487b7100000000000000000000000000000000000000000000000000000000600052603160045260246000fd5b600060208284031215612e7057612e6f612518565b5b6000612e7e84828501612ba6565b91505092915050565b6000604082019050612e9c600083018561262f565b612ea96020830184612580565b9392505050565b60008115159050919050565b612ec581612eb0565b8114612ed057600080fd5b50565b600081519050612ee281612ebc565b92915050565b600060208284031215612efe57612efd612518565b5b6000612f0c84828501612ed3565b91505092915050565b6000612f208261251d565b9150612f2b8361251d565b9250827fffffffffffffffffffffffffffffffffffffffffffffffffffffffffffffffff03821115612f6057612f5f612cdd565b5b828201905092915050565b6000612f768261251d565b91507fffffffffffffffffffffffffffffffffffffffffffffffffffffffffffffffff821415612fa957612fa8612cdd565b5b600182019050919050565b7f6e6f74206f776e65720000000000000000000000000000000000000000000000600082015250565b6000612fea6009836128aa565b9150612ff582612fb4565b602082019050919050565b6000602082019050818103600083015261301981612fdd565b9050919050565b7f4d696e74657220636f6e7472616374206d757374206265206e6f6e2d7a65726f60008201527f2061646472657373000000000000000000000000000000000000000000000000602082015250565b600061307c6028836128aa565b915061308782613020565b604082019050919050565b600060208201905081810360008301526130ab8161306f565b9050919050565b7f4272656564696e6720697320696d706f737369626c65206265747765656e206460008201527f6966666572656e74207261726974790000000000000000000000000000000000602082015250565b600061310e602f836128aa565b9150613119826130b2565b604082019050919050565b6000602082019050818103600083015261313d81613101565b9050919050565b7f4e487b7100000000000000000000000000000000000000000000000000000000600052601260045260246000fd5b600061317e8261251d565b91506131898361251d565b92508261319957613198613144565b5b828204905092915050565b7f42756c6c20697320746f6f206f6c640000000000000000000000000000000000600082015250565b60006131da600f836128aa565b91506131e5826131a4565b602082019050919050565b60006020820190508181036000830152613209816131cd565b9050919050565b600061321b8261251d565b91506132268361251d565b9250817fffffffffffffffffffffffffffffffffffffffffffffffffffffffffffffffff048311821515161561325f5761325e612cdd565b5b828202905092915050565b600060608201905061327f6000830186612580565b61328c6020830185612580565b613299604083018461262f565b949350505050565b7f4f776e61626c653a206e6577206f776e657220697320746865207a65726f206160008201527f6464726573730000000000000000000000000000000000000000000000000000602082015250565b60006132fd6026836128aa565b9150613308826132a1565b604082019050919050565b6000602082019050818103600083015261332c816132f0565b9050919050565b6000819050919050565b61334e6133498261251d565b613333565b82525050565b60008160601b9050919050565b600061336c82613354565b9050919050565b600061337e82613361565b9050919050565b6133966133918261261d565b613373565b82525050565b60006133a8828561333d565b6020820191506133b88284613385565b6014820191508190509392505050565b60006133d38261251d565b91506133de8361251d565b9250826133ee576133ed613144565b5b82820690509291505056fea26469706673582212205e1f199918ece813fb3e14ece75750fe6e7f69b53f3d6281b3840c34926316bb64736f6c634300080c0033",
  "immutableReferences": {},
  "source": "// SPDX-License-Identifier: MIT\r\npragma solidity >=0.4.22 <0.9.0;\r\n\r\nimport \"@openzeppelin/contracts/security/ReentrancyGuard.sol\";\r\nimport \"@openzeppelin/contracts/access/Ownable.sol\";\r\nimport \"@openzeppelin/contracts/utils/math/SafeMath.sol\";\r\nimport \"@openzeppelin/contracts/token/ERC20/IERC20.sol\";\r\nimport \"./interfaces/INftMinter.sol\";\r\nimport \"./interfaces/ILandNFT.sol\";\r\nimport \"./interfaces/ICowNFT.sol\";\r\nimport \"./interfaces/IBullNFT.sol\";\r\n\r\n\r\ncontract Breeding is ReentrancyGuard, Ownable {\r\n    address constant MILK_TOKEN_ADDRESS = 0x3eFA66aB2b1690e9BE8e82784EDfF2cF2dc150e0;\r\n    address public minterAddr; // NftMinter contract address\r\n\r\n    // Structure of BreedingVault\r\n    struct BreedingVault {\r\n        uint cowTokenId; // Staked Cow tokenId\r\n        uint rarity;\r\n        uint cowBreed;\r\n        uint bullTokenId; // Staked Bull tokenId\r\n        uint bullBreed;\r\n        uint unlockTime; // Breeding time\r\n        address owner; // Owner of the couple\r\n    }\r\n    BreedingVault[] public breedingVaults; // Array of BreedingVault\r\n\r\n    uint public maxRecoveryTime = 200 days;\r\n    uint[5] public baseRecoveryTime;\r\n    uint public breedingPrice = 90*10**18;\r\n    uint256 rarityProbability = 50;\r\n    uint256 breedProbability = 80;\r\n    uint256 cowProbability = 90;\r\n    event Breed(uint _cowTokenId, uint _bullTokenId, address _owner);\r\n    event ClaimedNewCattle(address _owner, uint _cowTokenId, uint _bullTokenId);\r\n\r\n    // Initialize the contract. This is for Proxy functionality.\r\n    function initialize(address _minterAddr) public onlyOwner {\r\n        require(_minterAddr != address(0), \"Minter contract must be non-zero address\");\r\n        minterAddr = _minterAddr;\r\n\r\n        baseRecoveryTime[0] = 180 hours;\r\n        baseRecoveryTime[1] = 90 hours;\r\n        baseRecoveryTime[2] = 48 hours;\r\n        baseRecoveryTime[3] = 24 hours;\r\n        baseRecoveryTime[4] = 12 hours;\r\n    }\r\n\r\n    // Deposit(Stake) a couple of Cow and Bull NFT for breeding.\r\n    function breed(uint _cowTokenId, uint _bullTokenId) public {\r\n        INftMinter minter = INftMinter(address(minterAddr));\r\n        ICowNFT cowNfts = ICowNFT(address(minter.cowNftColl()));\r\n        IBullNFT bullNfts = IBullNFT(address(minter.bullNftColl()));\r\n        // require(cowNfts.ownerOf(_cowTokenId) == msg.sender, \"Not owner\");\r\n        // require(bullNfts.ownerOf(_bullTokenId) == msg.sender, \"Not owner\");\r\n        ICowNFT.CattleAttr memory cowAttr = cowNfts.attrOf(_cowTokenId);\r\n        IBullNFT.CattleAttr memory bullAttr = bullNfts.attrOf(_bullTokenId);\r\n        uint256 _old = block.timestamp - bullAttr.birth;\r\n\r\n        require(cowAttr.rarity == bullAttr.rarity, \"Breeding is impossible between different rarity\");\r\n        require(maxRecoveryTime / 1 days > _old / 1 days, \"Bull is too old\");\r\n        IERC20(address(MILK_TOKEN_ADDRESS)).transferFrom(msg.sender, address(this), breedingPrice);\r\n\r\n        BreedingVault memory newBreeding;\r\n        newBreeding.cowTokenId = _cowTokenId;\r\n        newBreeding.bullTokenId = _bullTokenId;\r\n        newBreeding.cowBreed = cowAttr.breed;\r\n        newBreeding.rarity = cowAttr.rarity;\r\n        newBreeding.bullBreed = bullAttr.breed;\r\n        newBreeding.owner = msg.sender;\r\n\r\n        uint256 weight =10 - (maxRecoveryTime - _old) * 10 / maxRecoveryTime;\r\n        newBreeding.unlockTime = block.timestamp + baseRecoveryTime[bullAttr.rarity] + baseRecoveryTime[bullAttr.rarity] * weight /10;\r\n        breedingVaults.push(newBreeding);\r\n\r\n        cowNfts.transferFrom(msg.sender, address(this), _cowTokenId);\r\n        bullNfts.transferFrom(msg.sender, address(this), _bullTokenId);\r\n\r\n        emit Breed(_cowTokenId, _bullTokenId, msg.sender);\r\n    }\r\n\r\n    // Claim newly breeded cattle(Cow or Bull NFT).\r\n    // Rarity : 80%(Parents rarity), 20%(Parents' rarity + 1)\r\n    // Breed : 50%(Cow's breed), 50%(Bull's breed)\r\n    // Cow or Bull : 95%(Cow), 5%(Bull)\r\n    function claimCattle(uint _bullTokenId) public {\r\n        uint breedingIdx = _indexOfBreedingByBull(_bullTokenId);\r\n        require(breedingIdx < breedingVaults.length, \"Invalid breeding\");\r\n        require(breedingVaults[breedingIdx].owner == msg.sender, \"Not owner\");\r\n        require(block.timestamp > breedingVaults[breedingIdx].unlockTime, \"Wait until Recovery\");\r\n\r\n        INftMinter minter = INftMinter(address(minterAddr));\r\n        ICowNFT cowNfts = ICowNFT(address(minter.cowNftColl()));\r\n        ICowNFT.CattleAttr memory cowAttr = cowNfts.attrOf(breedingVaults[breedingIdx].cowTokenId);\r\n\r\n        IBullNFT bullNfts = IBullNFT(address(minter.bullNftColl()));\r\n        IBullNFT.CattleAttr memory bullAttr = bullNfts.attrOf(breedingVaults[breedingIdx].cowTokenId);\r\n        \r\n        uint8 rarityOfNew = 0;\r\n        uint8 breedOfNew = bullAttr.breed;\r\n\r\n        uint randProbability = _rand(100);\r\n        if(randProbability < rarityProbability && bullAttr.rarity == 4) {\r\n            rarityOfNew = bullAttr.rarity;\r\n        } else {\r\n            rarityOfNew = bullAttr.rarity + 1;\r\n        }\r\n\r\n        randProbability = _rand(100);\r\n        if(randProbability < breedProbability) {\r\n            breedOfNew = cowAttr.breed;\r\n        }\r\n\r\n        randProbability = _rand(100);\r\n        if(randProbability < cowProbability) {\r\n            minter.mintCow(breedingVaults[breedingIdx].owner, rarityOfNew, breedOfNew);\r\n        } else {\r\n            minter.mintBull(breedingVaults[breedingIdx].owner, rarityOfNew, breedOfNew);\r\n        }\r\n\r\n        cowNfts.transferFrom(address(this), breedingVaults[breedingIdx].owner, breedingVaults[breedingIdx].cowTokenId);\r\n        bullNfts.transferFrom(address(this), breedingVaults[breedingIdx].owner, breedingVaults[breedingIdx].bullTokenId);\r\n\r\n        emit ClaimedNewCattle(breedingVaults[breedingIdx].owner, breedingVaults[breedingIdx].cowTokenId, breedingVaults[breedingIdx].bullTokenId);\r\n\r\n        breedingVaults[breedingIdx] = breedingVaults[breedingVaults.length - 1];\r\n        breedingVaults.pop();\r\n    }\r\n\r\n    // Set breeding price\r\n    function setBreedingPrice(uint _price) public onlyOwner {\r\n        breedingPrice = _price;\r\n    }\r\n\r\n    // Withdraw MILK tokens.\r\n    function withdrawMilk() public {\r\n        IERC20 payContract = IERC20(address(MILK_TOKEN_ADDRESS));\r\n        uint amountOf = payContract.balanceOf(address(this));\r\n        payContract.transfer(msg.sender, amountOf);\r\n    }\r\n\r\n    function _indexOfBreedingByBull(uint _bullTokenId) private view returns (uint) {\r\n        uint idx = 0;\r\n        for(idx = 0;idx < breedingVaults.length;idx ++){\r\n            if(breedingVaults[idx].bullTokenId == _bullTokenId) {\r\n                return idx;\r\n            }\r\n        }\r\n        return idx;\r\n    }\r\n\r\n    function _rand(uint _modulus) internal view returns (uint) {\r\n        return uint(keccak256(abi.encodePacked(block.timestamp, msg.sender))) % _modulus;\r\n    }\r\n\r\n    function getBreedingItems(address userAddress) public view \r\n    returns(\r\n        uint256[] memory ,\r\n        uint256[] memory ,\r\n        uint256[] memory ,\r\n        uint256[] memory ,\r\n        uint256[] memory ,\r\n        uint256[] memory \r\n    ) {\r\n        uint256 _blength = breedingVaults.length;\r\n        uint k = 0;\r\n        uint256[] memory cowTokenIds = new uint256[](_blength);\r\n        uint256[] memory raritis = new uint256[](_blength);\r\n        uint256[] memory cowBreeds = new uint256[](_blength);\r\n        uint256[] memory bullTokenIds = new uint256[](_blength);\r\n        uint256[] memory bullBreeds = new uint256[](_blength);\r\n        uint256[] memory unLockTimes = new uint256[](_blength);\r\n        for(uint i = 0 ; i < _blength; i++) {\r\n            if(breedingVaults[i].owner == userAddress) {\r\n                cowTokenIds[k] = breedingVaults[i].cowTokenId;\r\n                raritis[k] = breedingVaults[i].rarity;\r\n                cowBreeds[k] = breedingVaults[i].cowBreed;\r\n                bullTokenIds[k] = breedingVaults[i].bullTokenId;\r\n                bullBreeds[k] = breedingVaults[i].bullBreed;\r\n                unLockTimes[k] = breedingVaults[i].unlockTime;\r\n                k +=1;\r\n            }\r\n        }\r\n        return (cowTokenIds, raritis,cowBreeds,bullTokenIds,bullBreeds,unLockTimes);\r\n    }\r\n    function setProbabilities(uint256 _rarityP, uint256 _breedP, uint256 _cowP) public onlyOwner {\r\n        rarityProbability = _rarityP;\r\n        breedProbability = _breedP;\r\n        cowProbability = _cowP;\r\n    }\r\n    function cancelBreeding(uint256 _breedingIdx) public {\r\n        BreedingVault memory _breedingData = breedingVaults[_breedingIdx];\r\n        uint256 itemCount = breedingVaults.length;\r\n        INftMinter minter = INftMinter(address(minterAddr));\r\n        ICowNFT cowNfts = ICowNFT(address(minter.cowNftColl()));\r\n        IBullNFT bullNfts = IBullNFT(address(minter.bullNftColl()));\r\n\r\n        require(_breedingData.owner == msg.sender, \"not owner\");\r\n        cowNfts.transferFrom(address(this), breedingVaults[_breedingIdx].owner, breedingVaults[_breedingIdx].cowTokenId);\r\n        bullNfts.transferFrom(address(this), breedingVaults[_breedingIdx].owner, breedingVaults[_breedingIdx].bullTokenId);\r\n        breedingVaults[_breedingIdx] = breedingVaults[itemCount -1];\r\n        breedingVaults.pop();\r\n    }\r\n}",
  "sourcePath": "C:\\Users\\Administrator\\Documents\\Adam\\game-contracts\\contracts\\Breeding.sol",
  "compiler": {
    "name": "solc",
    "version": "0.8.12+commit.f00d7308.Emscripten.clang"
  },
  "schemaVersion": "3.4.6",
  "updatedAt": "2022-05-05T16:15:51.945Z",
  "networkType": "ethereum",
  "devdoc": {
    "kind": "dev",
    "methods": {
      "owner()": {
        "details": "Returns the address of the current owner."
      },
      "renounceOwnership()": {
        "details": "Leaves the contract without owner. It will not be possible to call `onlyOwner` functions anymore. Can only be called by the current owner. NOTE: Renouncing ownership will leave the contract without an owner, thereby removing any functionality that is only available to the owner."
      },
      "transferOwnership(address)": {
        "details": "Transfers ownership of the contract to a new account (`newOwner`). Can only be called by the current owner."
      }
    },
    "version": 1
  },
  "userdoc": {
    "kind": "user",
    "methods": {},
    "version": 1
  }
}