{
  "contractName": "Farming",
  "abi": [
    {
      "anonymous": false,
      "inputs": [
        {
          "indexed": false,
          "internalType": "address",
          "name": "_owner",
          "type": "address"
        },
        {
          "indexed": false,
          "internalType": "uint256",
          "name": "_tokenId",
          "type": "uint256"
        }
      ],
      "name": "DepositBull",
      "type": "event"
    },
    {
      "anonymous": false,
      "inputs": [
        {
          "indexed": false,
          "internalType": "address",
          "name": "_owner",
          "type": "address"
        },
        {
          "indexed": false,
          "internalType": "uint256",
          "name": "_tokenId",
          "type": "uint256"
        }
      ],
      "name": "DepositCow",
      "type": "event"
    },
    {
      "anonymous": false,
      "inputs": [
        {
          "indexed": false,
          "internalType": "address",
          "name": "_owner",
          "type": "address"
        },
        {
          "indexed": false,
          "internalType": "uint256",
          "name": "_tokenId",
          "type": "uint256"
        }
      ],
      "name": "DepositLand",
      "type": "event"
    },
    {
      "anonymous": false,
      "inputs": [
        {
          "indexed": true,
          "internalType": "address",
          "name": "previousOwner",
          "type": "address"
        },
        {
          "indexed": true,
          "internalType": "address",
          "name": "newOwner",
          "type": "address"
        }
      ],
      "name": "OwnershipTransferred",
      "type": "event"
    },
    {
      "anonymous": false,
      "inputs": [
        {
          "indexed": false,
          "internalType": "address",
          "name": "_owner",
          "type": "address"
        },
        {
          "indexed": false,
          "internalType": "uint256",
          "name": "_tokenId",
          "type": "uint256"
        }
      ],
      "name": "WithdrawBull",
      "type": "event"
    },
    {
      "anonymous": false,
      "inputs": [
        {
          "indexed": false,
          "internalType": "address",
          "name": "_owner",
          "type": "address"
        },
        {
          "indexed": false,
          "internalType": "uint256",
          "name": "_tokenId",
          "type": "uint256"
        }
      ],
      "name": "WithdrawCow",
      "type": "event"
    },
    {
      "anonymous": false,
      "inputs": [
        {
          "indexed": false,
          "internalType": "address",
          "name": "_owner",
          "type": "address"
        },
        {
          "indexed": false,
          "internalType": "uint256",
          "name": "_tokenId",
          "type": "uint256"
        }
      ],
      "name": "WithdrawLand",
      "type": "event"
    },
    {
      "inputs": [
        {
          "internalType": "uint8",
          "name": "",
          "type": "uint8"
        }
      ],
      "name": "baseMilkPower",
      "outputs": [
        {
          "internalType": "uint16",
          "name": "",
          "type": "uint16"
        }
      ],
      "stateMutability": "view",
      "type": "function"
    },
    {
      "inputs": [
        {
          "internalType": "uint8",
          "name": "",
          "type": "uint8"
        }
      ],
      "name": "bullLimitPerLand",
      "outputs": [
        {
          "internalType": "uint16",
          "name": "",
          "type": "uint16"
        }
      ],
      "stateMutability": "view",
      "type": "function"
    },
    {
      "inputs": [
        {
          "internalType": "uint8",
          "name": "",
          "type": "uint8"
        }
      ],
      "name": "cowLimitPerLand",
      "outputs": [
        {
          "internalType": "uint16",
          "name": "",
          "type": "uint16"
        }
      ],
      "stateMutability": "view",
      "type": "function"
    },
    {
      "inputs": [
        {
          "internalType": "uint256",
          "name": "",
          "type": "uint256"
        }
      ],
      "name": "farms",
      "outputs": [
        {
          "internalType": "address",
          "name": "owner",
          "type": "address"
        },
        {
          "internalType": "uint256",
          "name": "lastReward",
          "type": "uint256"
        }
      ],
      "stateMutability": "view",
      "type": "function"
    },
    {
      "inputs": [
        {
          "internalType": "uint256",
          "name": "",
          "type": "uint256"
        }
      ],
      "name": "genesisTokenIds",
      "outputs": [
        {
          "internalType": "uint256",
          "name": "",
          "type": "uint256"
        }
      ],
      "stateMutability": "view",
      "type": "function"
    },
    {
      "inputs": [
        {
          "internalType": "uint256",
          "name": "",
          "type": "uint256"
        }
      ],
      "name": "happyCowNftBreeds",
      "outputs": [
        {
          "internalType": "uint8",
          "name": "",
          "type": "uint8"
        }
      ],
      "stateMutability": "view",
      "type": "function"
    },
    {
      "inputs": [],
      "name": "minterAddr",
      "outputs": [
        {
          "internalType": "address",
          "name": "",
          "type": "address"
        }
      ],
      "stateMutability": "view",
      "type": "function"
    },
    {
      "inputs": [],
      "name": "owner",
      "outputs": [
        {
          "internalType": "address",
          "name": "",
          "type": "address"
        }
      ],
      "stateMutability": "view",
      "type": "function"
    },
    {
      "inputs": [],
      "name": "renounceOwnership",
      "outputs": [],
      "stateMutability": "nonpayable",
      "type": "function"
    },
    {
      "inputs": [
        {
          "internalType": "address",
          "name": "newOwner",
          "type": "address"
        }
      ],
      "name": "transferOwnership",
      "outputs": [],
      "stateMutability": "nonpayable",
      "type": "function"
    },
    {
      "inputs": [
        {
          "internalType": "address",
          "name": "_minterAddr",
          "type": "address"
        }
      ],
      "name": "initialize",
      "outputs": [],
      "stateMutability": "nonpayable",
      "type": "function"
    },
    {
      "inputs": [
        {
          "internalType": "uint256",
          "name": "_tokenId",
          "type": "uint256"
        }
      ],
      "name": "depositLand",
      "outputs": [],
      "stateMutability": "nonpayable",
      "type": "function"
    },
    {
      "inputs": [
        {
          "internalType": "uint256",
          "name": "_tokenId",
          "type": "uint256"
        }
      ],
      "name": "withdrawLand",
      "outputs": [],
      "stateMutability": "nonpayable",
      "type": "function"
    },
    {
      "inputs": [
        {
          "internalType": "uint256",
          "name": "_tokenId",
          "type": "uint256"
        }
      ],
      "name": "depositCow",
      "outputs": [],
      "stateMutability": "nonpayable",
      "type": "function"
    },
    {
      "inputs": [
        {
          "internalType": "uint256",
          "name": "_tokenId",
          "type": "uint256"
        }
      ],
      "name": "withdrawCow",
      "outputs": [],
      "stateMutability": "nonpayable",
      "type": "function"
    },
    {
      "inputs": [
        {
          "internalType": "uint256",
          "name": "_tokenId",
          "type": "uint256"
        }
      ],
      "name": "depositBull",
      "outputs": [],
      "stateMutability": "nonpayable",
      "type": "function"
    },
    {
      "inputs": [
        {
          "internalType": "uint256",
          "name": "_tokenId",
          "type": "uint256"
        }
      ],
      "name": "withdrawBull",
      "outputs": [],
      "stateMutability": "nonpayable",
      "type": "function"
    },
    {
      "inputs": [],
      "name": "harvest",
      "outputs": [],
      "stateMutability": "nonpayable",
      "type": "function"
    },
    {
      "inputs": [
        {
          "internalType": "uint256",
          "name": "_amount",
          "type": "uint256"
        }
      ],
      "name": "burnMilk",
      "outputs": [],
      "stateMutability": "nonpayable",
      "type": "function"
    },
    {
      "inputs": [],
      "name": "milkPowerOfGame",
      "outputs": [
        {
          "internalType": "uint256",
          "name": "",
          "type": "uint256"
        }
      ],
      "stateMutability": "view",
      "type": "function"
    },
    {
      "inputs": [
        {
          "internalType": "address",
          "name": "_farmer",
          "type": "address"
        }
      ],
      "name": "milkPowerOf",
      "outputs": [
        {
          "internalType": "uint256",
          "name": "",
          "type": "uint256"
        }
      ],
      "stateMutability": "view",
      "type": "function"
    },
    {
      "inputs": [
        {
          "internalType": "address",
          "name": "_owner",
          "type": "address"
        }
      ],
      "name": "landTokenIdsOf",
      "outputs": [
        {
          "internalType": "uint256[]",
          "name": "",
          "type": "uint256[]"
        }
      ],
      "stateMutability": "view",
      "type": "function"
    },
    {
      "inputs": [
        {
          "internalType": "address",
          "name": "_owner",
          "type": "address"
        }
      ],
      "name": "cowTokenIdsOf",
      "outputs": [
        {
          "internalType": "uint256[]",
          "name": "",
          "type": "uint256[]"
        }
      ],
      "stateMutability": "view",
      "type": "function"
    },
    {
      "inputs": [
        {
          "internalType": "address",
          "name": "_owner",
          "type": "address"
        }
      ],
      "name": "bullTokenIdsOf",
      "outputs": [
        {
          "internalType": "uint256[]",
          "name": "",
          "type": "uint256[]"
        }
      ],
      "stateMutability": "view",
      "type": "function"
    },
    {
      "inputs": [
        {
          "internalType": "address",
          "name": "_newMinterAddr",
          "type": "address"
        }
      ],
      "name": "setMinterContract",
      "outputs": [],
      "stateMutability": "nonpayable",
      "type": "function"
    },
    {
      "inputs": [
        {
          "internalType": "uint256",
          "name": "_newMaxAge",
          "type": "uint256"
        }
      ],
      "name": "setMaxAge",
      "outputs": [],
      "stateMutability": "nonpayable",
      "type": "function"
    },
    {
      "inputs": [
        {
          "internalType": "uint256[]",
          "name": "_genesisTokenIds",
          "type": "uint256[]"
        }
      ],
      "name": "setGenesisTokenIds",
      "outputs": [],
      "stateMutability": "nonpayable",
      "type": "function"
    },
    {
      "inputs": [
        {
          "internalType": "uint8[]",
          "name": "_happyCowNftBreeds",
          "type": "uint8[]"
        }
      ],
      "name": "setHappyCowNftBreeds",
      "outputs": [],
      "stateMutability": "nonpayable",
      "type": "function"
    },
    {
      "inputs": [
        {
          "internalType": "address",
          "name": "_farmer",
          "type": "address"
        }
      ],
      "name": "_totalCowLimitOf",
      "outputs": [
        {
          "internalType": "uint256",
          "name": "",
          "type": "uint256"
        }
      ],
      "stateMutability": "view",
      "type": "function"
    },
    {
      "inputs": [
        {
          "internalType": "address",
          "name": "_farmer",
          "type": "address"
        }
      ],
      "name": "_totalBullLimitOf",
      "outputs": [
        {
          "internalType": "uint256",
          "name": "",
          "type": "uint256"
        }
      ],
      "stateMutability": "view",
      "type": "function"
    },
    {
      "inputs": [
        {
          "internalType": "address",
          "name": "_farmer",
          "type": "address"
        }
      ],
      "name": "_genesisNftHolderBonusOf",
      "outputs": [
        {
          "internalType": "uint256",
          "name": "",
          "type": "uint256"
        }
      ],
      "stateMutability": "view",
      "type": "function"
    },
    {
      "inputs": [
        {
          "internalType": "address",
          "name": "_farmer",
          "type": "address"
        }
      ],
      "name": "_happyCowNftHolderBonusOf",
      "outputs": [
        {
          "internalType": "uint256[5]",
          "name": "",
          "type": "uint256[5]"
        }
      ],
      "stateMutability": "view",
      "type": "function"
    },
    {
      "inputs": [
        {
          "internalType": "address",
          "name": "_farmer",
          "type": "address"
        }
      ],
      "name": "_landNftTypeBonusOf",
      "outputs": [
        {
          "internalType": "uint256[5]",
          "name": "",
          "type": "uint256[5]"
        }
      ],
      "stateMutability": "view",
      "type": "function"
    }
  ],
  "bytecode": "0x6080604052630107ac006007553480156200001957600080fd5b50600160008190555062000042620000366200004860201b60201c565b6200005060201b60201c565b62000116565b600033905090565b6000600160009054906101000a900473ffffffffffffffffffffffffffffffffffffffff16905081600160006101000a81548173ffffffffffffffffffffffffffffffffffffffff021916908373ffffffffffffffffffffffffffffffffffffffff1602179055508173ffffffffffffffffffffffffffffffffffffffff168173ffffffffffffffffffffffffffffffffffffffff167f8be0079c531659141344cd1fd0a4f28419497f9722a3daafe3b4186f6b6457e060405160405180910390a35050565b6152c080620001266000396000f3fe608060405234801561001057600080fd5b50600436106101fb5760003560e01c8063802847861161011a578063cefd3c46116100ad578063eed74a421161007c578063eed74a42146105f7578063f2fde38b14610627578063f6f086a014610643578063fac9d57d1461065f578063fd6505a51461067b576101fb565b8063cefd3c461461055d578063db71fed71461058d578063e2b1a45d146105ab578063eed2f277146105c7576101fb565b8063c4d66de8116100e9578063c4d66de8146104ed578063c713a54514610509578063cc32dfd514610525578063ce1e9e1814610541576101fb565b806380284786146104535780638da5cb5b1461046f5780639d97a6a11461048d578063bc396984146104bd576101fb565b80635504437911610192578063715018a611610161578063715018a6146103ca57806375395618146103d45780637cb93627146103f25780637da470ea14610422576101fb565b8063550443791461031e5780635ae28fc91461034e5780635d2d9f581461036a578063685cf6d91461039a576101fb565b806338478ae7116101ce57806338478ae7146102985780633aa0a09a146102b45780634641257d146102e4578063519042c3146102ee576101fb565b8063118c951d1461020057806313c5676a1461023057806314619e181461024c5780631e9f3a8e14610268575b600080fd5b61021a60048036038101906102159190614203565b6106ab565b6040516102279190614249565b60405180910390f35b61024a60048036038101906102459190614290565b6108ea565b005b61026660048036038101906102619190614322565b610c66565b005b610282600480360381019061027d9190614203565b610d3b565b60405161028f919061442d565b60405180910390f35b6102b260048036038101906102ad9190614203565b610eb8565b005b6102ce60048036038101906102c99190614488565b610fe8565b6040516102db91906144d2565b60405180910390f35b6102ec611009565b005b61030860048036038101906103039190614488565b6111dc565b60405161031591906144d2565b60405180910390f35b61033860048036038101906103339190614203565b6111fd565b6040516103459190614571565b60405180910390f35b61036860048036038101906103639190614290565b61137e565b005b610384600480360381019061037f9190614203565b611447565b604051610391919061442d565b60405180910390f35b6103b460048036038101906103af9190614488565b6115c4565b6040516103c191906144d2565b60405180910390f35b6103d26115e5565b005b6103dc61166d565b6040516103e99190614249565b60405180910390f35b61040c60048036038101906104079190614290565b6116fa565b604051610419919061459b565b60405180910390f35b61043c60048036038101906104379190614290565b611725565b60405161044a9291906145c5565b60405180910390f35b61046d60048036038101906104689190614290565b611779565b005b610477611ccd565b60405161048491906145ee565b60405180910390f35b6104a760048036038101906104a29190614203565b611cf7565b6040516104b49190614249565b60405180910390f35b6104d760048036038101906104d29190614203565b612044565b6040516104e49190614249565b60405180910390f35b61050760048036038101906105029190614203565b612283565b005b610523600480360381019061051e9190614290565b6128da565b005b61053f600480360381019061053a9190614290565b612b34565b005b61055b6004803603810190610556919061465f565b612d0e565b005b61057760048036038101906105729190614290565b612e0d565b6040516105849190614249565b60405180910390f35b610595612e28565b6040516105a291906145ee565b60405180910390f35b6105c560048036038101906105c09190614290565b612e4e565b005b6105e160048036038101906105dc9190614203565b6131ca565b6040516105ee9190614571565b60405180910390f35b610611600480360381019061060c9190614203565b613427565b60405161061e9190614249565b60405180910390f35b610641600480360381019061063c9190614203565b61353d565b005b61065d60048036038101906106589190614290565b613635565b005b61067960048036038101906106749190614290565b61388f565b005b61069560048036038101906106909190614203565b613b5e565b6040516106a2919061442d565b60405180910390f35b6000806106b783613cdb565b90506003805490508110610700576040517f08c379a00000000000000000000000000000000000000000000000000000000081526004016106f790614709565b60405180910390fd5b600080600260009054906101000a900473ffffffffffffffffffffffffffffffffffffffff16905060008173ffffffffffffffffffffffffffffffffffffffff16632e87f9c86040518163ffffffff1660e01b8152600401602060405180830381865afa158015610775573d6000803e3d6000fd5b505050506040513d601f19601f82011682018060405250810190610799919061473e565b905060005b600385815481106107b2576107b161476b565b5b9060005260206000209060050201600001805490508110156108dd5760008273ffffffffffffffffffffffffffffffffffffffff166368ba0bcf60038881548110610800576107ff61476b565b5b906000526020600020906005020160000184815481106108235761082261476b565b5b90600052602060002001546040518263ffffffff1660e01b815260040161084a9190614249565b6040805180830381865afa158015610866573d6000803e3d6000fd5b505050506040513d601f19601f8201168201806040525081019061088a9190614890565b905060056000826000015160ff1660ff16815260200190815260200160002060009054906101000a900461ffff1661ffff16856108c791906148ec565b94505080806108d590614942565b91505061079e565b5082945050505050919050565b60006108f533613cdb565b9050600380549050811061093e576040517f08c379a000000000000000000000000000000000000000000000000000000000815260040161093590614709565b60405180910390fd5b6000600260009054906101000a900473ffffffffffffffffffffffffffffffffffffffff16905060008173ffffffffffffffffffffffffffffffffffffffff1663970844456040518163ffffffff1660e01b8152600401602060405180830381865afa1580156109b2573d6000803e3d6000fd5b505050506040513d601f19601f820116820180604052508101906109d6919061473e565b90508073ffffffffffffffffffffffffffffffffffffffff166323b872dd3060038681548110610a0957610a0861476b565b5b906000526020600020906005020160030160009054906101000a900473ffffffffffffffffffffffffffffffffffffffff16876040518463ffffffff1660e01b8152600401610a5a9392919061498b565b600060405180830381600087803b158015610a7457600080fd5b505af1158015610a88573d6000803e3d6000fd5b5050505060005b60038481548110610aa357610aa261476b565b5b906000526020600020906005020160010180549050811015610c26578460038581548110610ad457610ad361476b565b5b90600052602060002090600502016001018281548110610af757610af661476b565b5b90600052602060002001541415610c135760038481548110610b1c57610b1b61476b565b5b9060005260206000209060050201600101600160038681548110610b4357610b4261476b565b5b906000526020600020906005020160010180549050610b6291906149c2565b81548110610b7357610b7261476b565b5b906000526020600020015460038581548110610b9257610b9161476b565b5b90600052602060002090600502016001018281548110610bb557610bb461476b565b5b906000526020600020018190555060038481548110610bd757610bd661476b565b5b9060005260206000209060050201600101805480610bf857610bf76149f6565b5b60019003818190600052602060002001600090559055610c26565b8080610c1e90614942565b915050610a8f565b507f30a1b13a317384a5ee19f32abf42ec26cc325ac7d9c0c3dcb479dce0032230953385604051610c589291906145c5565b60405180910390a150505050565b610c6e613d93565b73ffffffffffffffffffffffffffffffffffffffff16610c8c611ccd565b73ffffffffffffffffffffffffffffffffffffffff1614610ce2576040517f08c379a0000000000000000000000000000000000000000000000000000000008152600401610cd990614a71565b60405180910390fd5b60005b82829050811015610d3657828282818110610d0357610d0261476b565b5b9050602002013560288260648110610d1e57610d1d61476b565b5b01819055508080610d2e90614942565b915050610ce5565b505050565b60606000610d4883613cdb565b90506003805490508110610d91576040517f08c379a0000000000000000000000000000000000000000000000000000000008152600401610d8890614709565b60405180910390fd5b600060038281548110610da757610da661476b565b5b90600052602060002090600502016000018054905067ffffffffffffffff811115610dd557610dd46147b0565b5b604051908082528060200260200182016040528015610e035781602001602082028036833780820191505090505b50905060005b60038381548110610e1d57610e1c61476b565b5b906000526020600020906005020160010180549050811015610ead5760038381548110610e4d57610e4c61476b565b5b90600052602060002090600502016001018181548110610e7057610e6f61476b565b5b9060005260206000200154828281518110610e8e57610e8d61476b565b5b6020026020010181815250508080610ea590614942565b915050610e09565b508092505050919050565b610ec0613d93565b73ffffffffffffffffffffffffffffffffffffffff16610ede611ccd565b73ffffffffffffffffffffffffffffffffffffffff1614610f34576040517f08c379a0000000000000000000000000000000000000000000000000000000008152600401610f2b90614a71565b60405180910390fd5b600073ffffffffffffffffffffffffffffffffffffffff168173ffffffffffffffffffffffffffffffffffffffff161415610fa4576040517f08c379a0000000000000000000000000000000000000000000000000000000008152600401610f9b90614add565b60405180910390fd5b80600260006101000a81548173ffffffffffffffffffffffffffffffffffffffff021916908373ffffffffffffffffffffffffffffffffffffffff16021790555050565b60046020528060005260406000206000915054906101000a900461ffff1681565b600061101361166d565b9050600061102033611cf7565b9050600073c6438ac9db413efc13f2e0727e7e70bc85d747fe90508073ffffffffffffffffffffffffffffffffffffffff1663e2bbb1586000806040518363ffffffff1660e01b8152600401611077929190614b42565b600060405180830381600087803b15801561109157600080fd5b505af11580156110a5573d6000803e3d6000fd5b505050506000739bb61d36f739f682295722ed7f5a5a48a142d85f905060008173ffffffffffffffffffffffffffffffffffffffff166370a08231306040518263ffffffff1660e01b81526004016110fd91906145ee565b602060405180830381865afa15801561111a573d6000803e3d6000fd5b505050506040513d601f19601f8201168201806040525081019061113e9190614b80565b90508173ffffffffffffffffffffffffffffffffffffffff1663a9059cbb3387878561116a9190614bad565b6111749190614c36565b6040518363ffffffff1660e01b81526004016111919291906145c5565b6020604051808303816000875af11580156111b0573d6000803e3d6000fd5b505050506040513d601f19601f820116820180604052508101906111d49190614c9f565b505050505050565b60066020528060005260406000206000915054906101000a900461ffff1681565b6112056140c0565b60006040518060a00160405280600a8152602001600a8152602001600a8152602001600a8152602001600a815250905060005b6103e881101561137457600073091551a095f19133e3482ac91c4a5db438e94b7990508473ffffffffffffffffffffffffffffffffffffffff168173ffffffffffffffffffffffffffffffffffffffff16636352211e60018561129b91906148ec565b6040518263ffffffff1660e01b81526004016112b79190614249565b602060405180830381865afa1580156112d4573d6000803e3d6000fd5b505050506040513d601f19601f820116820180604052508101906112f8919061473e565b73ffffffffffffffffffffffffffffffffffffffff16141561136057600f836008846103e8811061132c5761132b61476b565b5b602091828204019190069054906101000a900460ff1660ff16600581106113565761135561476b565b5b6020020181815250505b50808061136c90614942565b915050611238565b5080915050919050565b611386613d93565b73ffffffffffffffffffffffffffffffffffffffff166113a4611ccd565b73ffffffffffffffffffffffffffffffffffffffff16146113fa576040517f08c379a00000000000000000000000000000000000000000000000000000000081526004016113f190614a71565b60405180910390fd5b6000811161143d576040517f08c379a000000000000000000000000000000000000000000000000000000000815260040161143490614d18565b60405180910390fd5b8060078190555050565b6060600061145483613cdb565b9050600380549050811061149d576040517f08c379a000000000000000000000000000000000000000000000000000000000815260040161149490614709565b60405180910390fd5b6000600382815481106114b3576114b261476b565b5b90600052602060002090600502016000018054905067ffffffffffffffff8111156114e1576114e06147b0565b5b60405190808252806020026020018201604052801561150f5781602001602082028036833780820191505090505b50905060005b600383815481106115295761152861476b565b5b9060005260206000209060050201600001805490508110156115b957600383815481106115595761155861476b565b5b9060005260206000209060050201600001818154811061157c5761157b61476b565b5b906000526020600020015482828151811061159a5761159961476b565b5b60200260200101818152505080806115b190614942565b915050611515565b508092505050919050565b60056020528060005260406000206000915054906101000a900461ffff1681565b6115ed613d93565b73ffffffffffffffffffffffffffffffffffffffff1661160b611ccd565b73ffffffffffffffffffffffffffffffffffffffff1614611661576040517f08c379a000000000000000000000000000000000000000000000000000000000815260040161165890614a71565b60405180910390fd5b61166b6000613d9b565b565b6000806000905060005b6003805490508110156116f2576116d26003828154811061169b5761169a61476b565b5b906000526020600020906005020160030160009054906101000a900473ffffffffffffffffffffffffffffffffffffffff16611cf7565b826116dd91906148ec565b915080806116ea90614942565b915050611677565b508091505090565b6008816103e8811061170b57600080fd5b60209182820401919006915054906101000a900460ff1681565b6003818154811061173557600080fd5b90600052602060002090600502016000915090508060030160009054906101000a900473ffffffffffffffffffffffffffffffffffffffff16908060040154905082565b600061178433613cdb565b905060038054905081106117cd576040517f08c379a00000000000000000000000000000000000000000000000000000000081526004016117c490614709565b60405180910390fd5b6000600260009054906101000a900473ffffffffffffffffffffffffffffffffffffffff16905060008173ffffffffffffffffffffffffffffffffffffffff16632e87f9c86040518163ffffffff1660e01b8152600401602060405180830381865afa158015611841573d6000803e3d6000fd5b505050506040513d601f19601f82011682018060405250810190611865919061473e565b905060008173ffffffffffffffffffffffffffffffffffffffff166368ba0bcf866040518263ffffffff1660e01b81526004016118a29190614249565b6040805180830381865afa1580156118be573d6000803e3d6000fd5b505050506040513d601f19601f820116820180604052508101906118e29190614890565b9050600384815481106118f8576118f761476b565b5b90600052602060002090600502016001018054905060046000836000015160ff1660ff16815260200190815260200160002060009054906101000a900461ffff1661ffff1661194633612044565b61195091906149c2565b1015611991576040517f08c379a000000000000000000000000000000000000000000000000000000000815260040161198890614d84565b60405180910390fd5b600384815481106119a5576119a461476b565b5b90600052602060002090600502016001018054905060056000836000015160ff1660ff16815260200190815260200160002060009054906101000a900461ffff1661ffff166119f3336106ab565b6119fd91906149c2565b1015611a3e576040517f08c379a0000000000000000000000000000000000000000000000000000000008152600401611a3590614df0565b60405180910390fd5b8173ffffffffffffffffffffffffffffffffffffffff166323b872dd3060038781548110611a6f57611a6e61476b565b5b906000526020600020906005020160030160009054906101000a900473ffffffffffffffffffffffffffffffffffffffff16886040518463ffffffff1660e01b8152600401611ac09392919061498b565b600060405180830381600087803b158015611ada57600080fd5b505af1158015611aee573d6000803e3d6000fd5b5050505060005b60038581548110611b0957611b0861476b565b5b906000526020600020906005020160000180549050811015611c8c578560038681548110611b3a57611b3961476b565b5b90600052602060002090600502016000018281548110611b5d57611b5c61476b565b5b90600052602060002001541415611c795760038581548110611b8257611b8161476b565b5b9060005260206000209060050201600001600160038781548110611ba957611ba861476b565b5b906000526020600020906005020160000180549050611bc891906149c2565b81548110611bd957611bd861476b565b5b906000526020600020015460038681548110611bf857611bf761476b565b5b90600052602060002090600502016000018281548110611c1b57611c1a61476b565b5b906000526020600020018190555060038581548110611c3d57611c3c61476b565b5b9060005260206000209060050201600001805480611c5e57611c5d6149f6565b5b60019003818190600052602060002001600090559055611c8c565b8080611c8490614942565b915050611af5565b507f2ac6e3c1e4ef99df40ccf9f212268ced5a151cf274c706f1a035b9b10de10ab13386604051611cbe9291906145c5565b60405180910390a15050505050565b6000600160009054906101000a900473ffffffffffffffffffffffffffffffffffffffff16905090565b600080611d0383613cdb565b90506003805490508110611d4c576040517f08c379a0000000000000000000000000000000000000000000000000000000008152600401611d4390614709565b60405180910390fd5b6000600260009054906101000a900473ffffffffffffffffffffffffffffffffffffffff16905060008173ffffffffffffffffffffffffffffffffffffffff1663970844456040518163ffffffff1660e01b8152600401602060405180830381865afa158015611dc0573d6000803e3d6000fd5b505050506040513d601f19601f82011682018060405250810190611de4919061473e565b90506000611df186613427565b90506000611dfe87613e61565b90506000611e0b886131ca565b90506000611e18896111fd565b90506000805b60038981548110611e3257611e3161476b565b5b9060005260206000209060050201600101805490508110156120335760008773ffffffffffffffffffffffffffffffffffffffff166368ba0bcf60038c81548110611e8057611e7f61476b565b5b90600052602060002090600502016001018481548110611ea357611ea261476b565b5b90600052602060002001546040518263ffffffff1660e01b8152600401611eca9190614249565b606060405180830381865afa158015611ee7573d6000803e3d6000fd5b505050506040513d601f19601f82011682018060405250810190611f0b9190614e74565b9050600060066000836000015160ff1660ff16815260200190815260200160002060009054906101000a900461ffff1661ffff1690506000826040015142611f5391906149c2565b6007541115611f7c57826040015142611f6c91906149c2565b600754611f7991906149c2565b90505b8086846020015160ff1660058110611f9757611f9661476b565b5b602002015188856020015160ff1660058110611fb657611fb561476b565b5b60200201518a8c86611fc89190614bad565b611fd29190614bad565b611fdc9190614bad565b611fe69190614bad565b611ff09190614bad565b9150600754612710836120039190614c36565b61200d9190614c36565b9150818561201b91906148ec565b9450505050808061202b90614942565b915050611e1e565b508098505050505050505050919050565b60008061205083613cdb565b90506003805490508110612099576040517f08c379a000000000000000000000000000000000000000000000000000000000815260040161209090614709565b60405180910390fd5b600080600260009054906101000a900473ffffffffffffffffffffffffffffffffffffffff16905060008173ffffffffffffffffffffffffffffffffffffffff16632e87f9c86040518163ffffffff1660e01b8152600401602060405180830381865afa15801561210e573d6000803e3d6000fd5b505050506040513d601f19601f82011682018060405250810190612132919061473e565b905060005b6003858154811061214b5761214a61476b565b5b9060005260206000209060050201600001805490508110156122765760008273ffffffffffffffffffffffffffffffffffffffff166368ba0bcf600388815481106121995761219861476b565b5b906000526020600020906005020160000184815481106121bc576121bb61476b565b5b90600052602060002001546040518263ffffffff1660e01b81526004016121e39190614249565b6040805180830381865afa1580156121ff573d6000803e3d6000fd5b505050506040513d601f19601f820116820180604052508101906122239190614890565b905060046000826000015160ff1660ff16815260200190815260200160002060009054906101000a900461ffff1661ffff168561226091906148ec565b945050808061226e90614942565b915050612137565b5082945050505050919050565b61228b613d93565b73ffffffffffffffffffffffffffffffffffffffff166122a9611ccd565b73ffffffffffffffffffffffffffffffffffffffff16146122ff576040517f08c379a00000000000000000000000000000000000000000000000000000000081526004016122f690614a71565b60405180910390fd5b600073ffffffffffffffffffffffffffffffffffffffff168173ffffffffffffffffffffffffffffffffffffffff16141561236f576040517f08c379a000000000000000000000000000000000000000000000000000000000815260040161236690614eed565b60405180910390fd5b80600260006101000a81548173ffffffffffffffffffffffffffffffffffffffff021916908373ffffffffffffffffffffffffffffffffffffffff1602179055506028600460008060ff16815260200190815260200160002060006101000a81548161ffff021916908361ffff160217905550605060046000600160ff16815260200190815260200160002060006101000a81548161ffff021916908361ffff160217905550607860046000600260ff16815260200190815260200160002060006101000a81548161ffff021916908361ffff16021790555060c860046000600360ff16815260200190815260200160002060006101000a81548161ffff021916908361ffff16021790555061014060046000600460ff16815260200190815260200160002060006101000a81548161ffff021916908361ffff1602179055506002600560008060ff16815260200190815260200160002060006101000a81548161ffff021916908361ffff160217905550600460056000600160ff16815260200190815260200160002060006101000a81548161ffff021916908361ffff160217905550600660056000600260ff16815260200190815260200160002060006101000a81548161ffff021916908361ffff160217905550600a60056000600360ff16815260200190815260200160002060006101000a81548161ffff021916908361ffff160217905550601060056000600460ff16815260200190815260200160002060006101000a81548161ffff021916908361ffff1602179055506107d0600660008060ff16815260200190815260200160002060006101000a81548161ffff021916908361ffff160217905550610bb860066000600160ff16815260200190815260200160002060006101000a81548161ffff021916908361ffff16021790555061138860066000600260ff16815260200190815260200160002060006101000a81548161ffff021916908361ffff160217905550611f4060066000600360ff16815260200190815260200160002060006101000a81548161ffff021916908361ffff1602179055506132c860066000600460ff16815260200190815260200160002060006101000a81548161ffff021916908361ffff160217905550600073c6438ac9db413efc13f2e0727e7e70bc85d747fe9050600073c25e8b265ee64a0cde09347dc8d3e40419e8311f90508073ffffffffffffffffffffffffffffffffffffffff1663095ea7b373c6438ac9db413efc13f2e0727e7e70bc85d747fe8373ffffffffffffffffffffffffffffffffffffffff166370a08231306040518263ffffffff1660e01b815260040161274c91906145ee565b602060405180830381865afa158015612769573d6000803e3d6000fd5b505050506040513d601f19601f8201168201806040525081019061278d9190614b80565b6040518363ffffffff1660e01b81526004016127aa9291906145c5565b6020604051808303816000875af11580156127c9573d6000803e3d6000fd5b505050506040513d601f19601f820116820180604052508101906127ed9190614c9f565b508173ffffffffffffffffffffffffffffffffffffffff1663e2bbb15860008373ffffffffffffffffffffffffffffffffffffffff166370a08231306040518263ffffffff1660e01b815260040161284591906145ee565b602060405180830381865afa158015612862573d6000803e3d6000fd5b505050506040513d601f19601f820116820180604052508101906128869190614b80565b6040518363ffffffff1660e01b81526004016128a3929190614f0d565b600060405180830381600087803b1580156128bd57600080fd5b505af11580156128d1573d6000803e3d6000fd5b50505050505050565b60006128e533613cdb565b9050600380549050811061292e576040517f08c379a000000000000000000000000000000000000000000000000000000000815260040161292590614709565b60405180910390fd5b600381815481106129425761294161476b565b5b90600052602060002090600502016001018054905061296033612044565b116129a0576040517f08c379a000000000000000000000000000000000000000000000000000000000815260040161299790614f82565b60405180910390fd5b6000600260009054906101000a900473ffffffffffffffffffffffffffffffffffffffff16905060008173ffffffffffffffffffffffffffffffffffffffff1663970844456040518163ffffffff1660e01b8152600401602060405180830381865afa158015612a14573d6000803e3d6000fd5b505050506040513d601f19601f82011682018060405250810190612a38919061473e565b90508073ffffffffffffffffffffffffffffffffffffffff166323b872dd3330876040518463ffffffff1660e01b8152600401612a779392919061498b565b600060405180830381600087803b158015612a9157600080fd5b505af1158015612aa5573d6000803e3d6000fd5b5050505060038381548110612abd57612abc61476b565b5b90600052602060002090600502016001018490806001815401808255809150506001900390600052602060002001600090919091909150557fdb748fa6506d8792c87332c8b83fb4b9d8e2820c01034ee2ae65cb656b636b8f3385604051612b269291906145c5565b60405180910390a150505050565b612b3c613d93565b73ffffffffffffffffffffffffffffffffffffffff16612b5a611ccd565b73ffffffffffffffffffffffffffffffffffffffff1614612bb0576040517f08c379a0000000000000000000000000000000000000000000000000000000008152600401612ba790614a71565b60405180910390fd5b6000739bb61d36f739f682295722ed7f5a5a48a142d85f905060008173ffffffffffffffffffffffffffffffffffffffff166370a08231306040518263ffffffff1660e01b8152600401612c0491906145ee565b602060405180830381865afa158015612c21573d6000803e3d6000fd5b505050506040513d601f19601f82011682018060405250810190612c459190614b80565b905082811015612c8a576040517f08c379a0000000000000000000000000000000000000000000000000000000008152600401612c8190614fee565b60405180910390fd5b8173ffffffffffffffffffffffffffffffffffffffff1663a9059cbb33856040518363ffffffff1660e01b8152600401612cc59291906145c5565b6020604051808303816000875af1158015612ce4573d6000803e3d6000fd5b505050506040513d601f19601f82011682018060405250810190612d089190614c9f565b50505050565b612d16613d93565b73ffffffffffffffffffffffffffffffffffffffff16612d34611ccd565b73ffffffffffffffffffffffffffffffffffffffff1614612d8a576040517f08c379a0000000000000000000000000000000000000000000000000000000008152600401612d8190614a71565b60405180910390fd5b60005b82829050811015612e0857828282818110612dab57612daa61476b565b5b9050602002016020810190612dc09190614488565b6008826103e88110612dd557612dd461476b565b5b602091828204019190066101000a81548160ff021916908360ff1602179055508080612e0090614942565b915050612d8d565b505050565b60288160648110612e1d57600080fd5b016000915090505481565b600260009054906101000a900473ffffffffffffffffffffffffffffffffffffffff1681565b6000612e5933613cdb565b90506003805490508110612ea2576040517f08c379a0000000000000000000000000000000000000000000000000000000008152600401612e9990614709565b60405180910390fd5b6000600260009054906101000a900473ffffffffffffffffffffffffffffffffffffffff16905060008173ffffffffffffffffffffffffffffffffffffffff1663549a1ab26040518163ffffffff1660e01b8152600401602060405180830381865afa158015612f16573d6000803e3d6000fd5b505050506040513d601f19601f82011682018060405250810190612f3a919061473e565b90508073ffffffffffffffffffffffffffffffffffffffff166323b872dd3060038681548110612f6d57612f6c61476b565b5b906000526020600020906005020160030160009054906101000a900473ffffffffffffffffffffffffffffffffffffffff16876040518463ffffffff1660e01b8152600401612fbe9392919061498b565b600060405180830381600087803b158015612fd857600080fd5b505af1158015612fec573d6000803e3d6000fd5b5050505060005b600384815481106130075761300661476b565b5b90600052602060002090600502016001018054905081101561318a5784600385815481106130385761303761476b565b5b9060005260206000209060050201600201828154811061305b5761305a61476b565b5b9060005260206000200154141561317757600384815481106130805761307f61476b565b5b90600052602060002090600502016002016001600386815481106130a7576130a661476b565b5b9060005260206000209060050201600201805490506130c691906149c2565b815481106130d7576130d661476b565b5b9060005260206000200154600385815481106130f6576130f561476b565b5b906000526020600020906005020160020182815481106131195761311861476b565b5b90600052602060002001819055506003848154811061313b5761313a61476b565b5b906000526020600020906005020160020180548061315c5761315b6149f6565b5b6001900381819060005260206000200160009055905561318a565b808061318290614942565b915050612ff3565b507f17c05b5065f7ef088f8d90fa37ba3895610a8d18defb423c168fe0bebf0bc27833856040516131bc9291906145c5565b60405180910390a150505050565b6131d26140c0565b60006131dd83613cdb565b90506003805490508110613226576040517f08c379a000000000000000000000000000000000000000000000000000000000815260040161321d90614709565b60405180910390fd5b60006040518060a00160405280600a8152602001600a8152602001600a8152602001600a8152602001600a81525090506000600260009054906101000a900473ffffffffffffffffffffffffffffffffffffffff16905060008173ffffffffffffffffffffffffffffffffffffffff16632e87f9c86040518163ffffffff1660e01b8152600401602060405180830381865afa1580156132ca573d6000803e3d6000fd5b505050506040513d601f19601f820116820180604052508101906132ee919061473e565b905060005b600385815481106133075761330661476b565b5b90600052602060002090600502016000018054905081101561341a5760008273ffffffffffffffffffffffffffffffffffffffff166368ba0bcf600388815481106133555761335461476b565b5b906000526020600020906005020160000184815481106133785761337761476b565b5b90600052602060002001546040518263ffffffff1660e01b815260040161339f9190614249565b6040805180830381865afa1580156133bb573d6000803e3d6000fd5b505050506040513d601f19601f820116820180604052508101906133df9190614890565b9050600f85826020015160ff16600581106133fd576133fc61476b565b5b60200201818152505050808061341290614942565b9150506132f3565b5082945050505050919050565b600080600090505b60648110156135325760007346d8a7a26336e43953b91e5fb198b15df8d0d9db90508373ffffffffffffffffffffffffffffffffffffffff168173ffffffffffffffffffffffffffffffffffffffff16636352211e602885606481106134985761349761476b565b5b01546040518263ffffffff1660e01b81526004016134b69190614249565b602060405180830381865afa1580156134d3573d6000803e3d6000fd5b505050506040513d601f19601f820116820180604052508101906134f7919061473e565b73ffffffffffffffffffffffffffffffffffffffff16141561351e57600f92505050613538565b50808061352a90614942565b91505061342f565b50600a90505b919050565b613545613d93565b73ffffffffffffffffffffffffffffffffffffffff16613563611ccd565b73ffffffffffffffffffffffffffffffffffffffff16146135b9576040517f08c379a00000000000000000000000000000000000000000000000000000000081526004016135b090614a71565b60405180910390fd5b600073ffffffffffffffffffffffffffffffffffffffff168173ffffffffffffffffffffffffffffffffffffffff161415613629576040517f08c379a000000000000000000000000000000000000000000000000000000000815260040161362090615080565b60405180910390fd5b61363281613d9b565b50565b600061364033613cdb565b90506003805490508110613689576040517f08c379a000000000000000000000000000000000000000000000000000000000815260040161368090614709565b60405180910390fd5b6003818154811061369d5761369c61476b565b5b9060005260206000209060050201600201805490506136bb336106ab565b116136fb576040517f08c379a00000000000000000000000000000000000000000000000000000000081526004016136f2906150ec565b60405180910390fd5b6000600260009054906101000a900473ffffffffffffffffffffffffffffffffffffffff16905060008173ffffffffffffffffffffffffffffffffffffffff1663549a1ab26040518163ffffffff1660e01b8152600401602060405180830381865afa15801561376f573d6000803e3d6000fd5b505050506040513d601f19601f82011682018060405250810190613793919061473e565b90508073ffffffffffffffffffffffffffffffffffffffff166323b872dd3330876040518463ffffffff1660e01b81526004016137d29392919061498b565b600060405180830381600087803b1580156137ec57600080fd5b505af1158015613800573d6000803e3d6000fd5b50505050600383815481106138185761381761476b565b5b90600052602060002090600502016002018490806001815401808255809150506001900390600052602060002001600090919091909150557f9397adb80f5c2f1c37158916f5beb10ffcb153bed4eaf738e31245cc97fafb5833856040516138819291906145c5565b60405180910390a150505050565b600061389a33613cdb565b905060038054905081106139ca576138b06140e2565b33816060019073ffffffffffffffffffffffffffffffffffffffff16908173ffffffffffffffffffffffffffffffffffffffff1681525050428160800181815250506003819080600181540180825580915050600190039060005260206000209060050201600090919091909150600082015181600001908051906020019061393a929190614127565b506020820151816001019080519060200190613957929190614127565b506040820151816002019080519060200190613974929190614127565b5060608201518160030160006101000a81548173ffffffffffffffffffffffffffffffffffffffff021916908373ffffffffffffffffffffffffffffffffffffffff160217905550608082015181600401555050505b6000600260009054906101000a900473ffffffffffffffffffffffffffffffffffffffff16905060008173ffffffffffffffffffffffffffffffffffffffff16632e87f9c86040518163ffffffff1660e01b8152600401602060405180830381865afa158015613a3e573d6000803e3d6000fd5b505050506040513d601f19601f82011682018060405250810190613a62919061473e565b905060038381548110613a7857613a7761476b565b5b90600052602060002090600502016000018490806001815401808255809150506001900390600052602060002001600090919091909150558073ffffffffffffffffffffffffffffffffffffffff166323b872dd3330876040518463ffffffff1660e01b8152600401613aed9392919061498b565b600060405180830381600087803b158015613b0757600080fd5b505af1158015613b1b573d6000803e3d6000fd5b505050507f908bf600f2d727dfbe4228f96a4e69e34c248d575fe6aff2fca48b3beb2b12203385604051613b509291906145c5565b60405180910390a150505050565b60606000613b6b83613cdb565b90506003805490508110613bb4576040517f08c379a0000000000000000000000000000000000000000000000000000000008152600401613bab90614709565b60405180910390fd5b600060038281548110613bca57613bc961476b565b5b90600052602060002090600502016002018054905067ffffffffffffffff811115613bf857613bf76147b0565b5b604051908082528060200260200182016040528015613c265781602001602082028036833780820191505090505b50905060005b60038381548110613c4057613c3f61476b565b5b906000526020600020906005020160020180549050811015613cd05760038381548110613c7057613c6f61476b565b5b90600052602060002090600502016002018181548110613c9357613c9261476b565b5b9060005260206000200154828281518110613cb157613cb061476b565b5b6020026020010181815250508080613cc890614942565b915050613c2c565b508092505050919050565b60008060009050600090505b600380549050811015613d89578273ffffffffffffffffffffffffffffffffffffffff1660038281548110613d1f57613d1e61476b565b5b906000526020600020906005020160030160009054906101000a900473ffffffffffffffffffffffffffffffffffffffff1673ffffffffffffffffffffffffffffffffffffffff161415613d765780915050613d8e565b8080613d8190614942565b915050613ce7565b809150505b919050565b600033905090565b6000600160009054906101000a900473ffffffffffffffffffffffffffffffffffffffff16905081600160006101000a81548173ffffffffffffffffffffffffffffffffffffffff021916908373ffffffffffffffffffffffffffffffffffffffff1602179055508173ffffffffffffffffffffffffffffffffffffffff168173ffffffffffffffffffffffffffffffffffffffff167f8be0079c531659141344cd1fd0a4f28419497f9722a3daafe3b4186f6b6457e060405160405180910390a35050565b600080737d43051bbbbe2804c14ef7a99f56ffe456767a89905060008173ffffffffffffffffffffffffffffffffffffffff166370a08231856040518263ffffffff1660e01b8152600401613eb691906145ee565b602060405180830381865afa158015613ed3573d6000803e3d6000fd5b505050506040513d601f19601f82011682018060405250810190613ef79190614b80565b90506009600a613f07919061523f565b600a613f139190614bad565b811015613f2557600a925050506140bb565b6009600a613f33919061523f565b6014613f3f9190614bad565b811015613f5157600b925050506140bb565b6009600a613f5f919061523f565b601e613f6b9190614bad565b811015613f7d57600c925050506140bb565b6009600a613f8b919061523f565b6032613f979190614bad565b811015613fa957600d925050506140bb565b6009600a613fb7919061523f565b6050613fc39190614bad565b811015613fd557600e925050506140bb565b6009600a613fe3919061523f565b6082613fef9190614bad565b81101561400157600f925050506140bb565b6009600a61400f919061523f565b60d261401b9190614bad565b81101561402d576010925050506140bb565b6009600a61403b919061523f565b6101546140489190614bad565b81101561405a576011925050506140bb565b6009600a614068919061523f565b6102266140759190614bad565b811015614087576012925050506140bb565b6009600a614095919061523f565b61037a6140a29190614bad565b8110156140b4576013925050506140bb565b6014925050505b919050565b6040518060a00160405280600590602082028036833780820191505090505090565b6040518060a00160405280606081526020016060815260200160608152602001600073ffffffffffffffffffffffffffffffffffffffff168152602001600081525090565b828054828255906000526020600020908101928215614163579160200282015b82811115614162578251825591602001919060010190614147565b5b5090506141709190614174565b5090565b5b8082111561418d576000816000905550600101614175565b5090565b6000604051905090565b600080fd5b600080fd5b600073ffffffffffffffffffffffffffffffffffffffff82169050919050565b60006141d0826141a5565b9050919050565b6141e0816141c5565b81146141eb57600080fd5b50565b6000813590506141fd816141d7565b92915050565b6000602082840312156142195761421861419b565b5b6000614227848285016141ee565b91505092915050565b6000819050919050565b61424381614230565b82525050565b600060208201905061425e600083018461423a565b92915050565b61426d81614230565b811461427857600080fd5b50565b60008135905061428a81614264565b92915050565b6000602082840312156142a6576142a561419b565b5b60006142b48482850161427b565b91505092915050565b600080fd5b600080fd5b600080fd5b60008083601f8401126142e2576142e16142bd565b5b8235905067ffffffffffffffff8111156142ff576142fe6142c2565b5b60208301915083602082028301111561431b5761431a6142c7565b5b9250929050565b600080602083850312156143395761433861419b565b5b600083013567ffffffffffffffff811115614357576143566141a0565b5b614363858286016142cc565b92509250509250929050565b600081519050919050565b600082825260208201905092915050565b6000819050602082019050919050565b6143a481614230565b82525050565b60006143b6838361439b565b60208301905092915050565b6000602082019050919050565b60006143da8261436f565b6143e4818561437a565b93506143ef8361438b565b8060005b8381101561442057815161440788826143aa565b9750614412836143c2565b9250506001810190506143f3565b5085935050505092915050565b6000602082019050818103600083015261444781846143cf565b905092915050565b600060ff82169050919050565b6144658161444f565b811461447057600080fd5b50565b6000813590506144828161445c565b92915050565b60006020828403121561449e5761449d61419b565b5b60006144ac84828501614473565b91505092915050565b600061ffff82169050919050565b6144cc816144b5565b82525050565b60006020820190506144e760008301846144c3565b92915050565b600060059050919050565b600081905092915050565b6000819050919050565b6000602082019050919050565b614523816144ed565b61452d81846144f8565b925061453882614503565b8060005b8381101561456957815161455087826143aa565b965061455b8361450d565b92505060018101905061453c565b505050505050565b600060a082019050614586600083018461451a565b92915050565b6145958161444f565b82525050565b60006020820190506145b0600083018461458c565b92915050565b6145bf816141c5565b82525050565b60006040820190506145da60008301856145b6565b6145e7602083018461423a565b9392505050565b600060208201905061460360008301846145b6565b92915050565b60008083601f84011261461f5761461e6142bd565b5b8235905067ffffffffffffffff81111561463c5761463b6142c2565b5b602083019150836020820283011115614658576146576142c7565b5b9250929050565b600080602083850312156146765761467561419b565b5b600083013567ffffffffffffffff811115614694576146936141a0565b5b6146a085828601614609565b92509250509250929050565b600082825260208201905092915050565b7f546865206661726d657220686173206e6f206661726d00000000000000000000600082015250565b60006146f36016836146ac565b91506146fe826146bd565b602082019050919050565b60006020820190508181036000830152614722816146e6565b9050919050565b600081519050614738816141d7565b92915050565b6000602082840312156147545761475361419b565b5b600061476284828501614729565b91505092915050565b7f4e487b7100000000000000000000000000000000000000000000000000000000600052603260045260246000fd5b600080fd5b6000601f19601f8301169050919050565b7f4e487b7100000000000000000000000000000000000000000000000000000000600052604160045260246000fd5b6147e88261479f565b810181811067ffffffffffffffff82111715614807576148066147b0565b5b80604052505050565b600061481a614191565b905061482682826147df565b919050565b60008151905061483a8161445c565b92915050565b6000604082840312156148565761485561479a565b5b6148606040614810565b905060006148708482850161482b565b60008301525060206148848482850161482b565b60208301525092915050565b6000604082840312156148a6576148a561419b565b5b60006148b484828501614840565b91505092915050565b7f4e487b7100000000000000000000000000000000000000000000000000000000600052601160045260246000fd5b60006148f782614230565b915061490283614230565b9250827fffffffffffffffffffffffffffffffffffffffffffffffffffffffffffffffff03821115614937576149366148bd565b5b828201905092915050565b600061494d82614230565b91507fffffffffffffffffffffffffffffffffffffffffffffffffffffffffffffffff8214156149805761497f6148bd565b5b600182019050919050565b60006060820190506149a060008301866145b6565b6149ad60208301856145b6565b6149ba604083018461423a565b949350505050565b60006149cd82614230565b91506149d883614230565b9250828210156149eb576149ea6148bd565b5b828203905092915050565b7f4e487b7100000000000000000000000000000000000000000000000000000000600052603160045260246000fd5b7f4f776e61626c653a2063616c6c6572206973206e6f7420746865206f776e6572600082015250565b6000614a5b6020836146ac565b9150614a6682614a25565b602082019050919050565b60006020820190508181036000830152614a8a81614a4e565b9050919050565b7f536574206279207a65726f206164647265737300000000000000000000000000600082015250565b6000614ac76013836146ac565b9150614ad282614a91565b602082019050919050565b60006020820190508181036000830152614af681614aba565b9050919050565b6000819050919050565b6000819050919050565b6000614b2c614b27614b2284614afd565b614b07565b614230565b9050919050565b614b3c81614b11565b82525050565b6000604082019050614b57600083018561423a565b614b646020830184614b33565b9392505050565b600081519050614b7a81614264565b92915050565b600060208284031215614b9657614b9561419b565b5b6000614ba484828501614b6b565b91505092915050565b6000614bb882614230565b9150614bc383614230565b9250817fffffffffffffffffffffffffffffffffffffffffffffffffffffffffffffffff0483118215151615614bfc57614bfb6148bd565b5b828202905092915050565b7f4e487b7100000000000000000000000000000000000000000000000000000000600052601260045260246000fd5b6000614c4182614230565b9150614c4c83614230565b925082614c5c57614c5b614c07565b5b828204905092915050565b60008115159050919050565b614c7c81614c67565b8114614c8757600080fd5b50565b600081519050614c9981614c73565b92915050565b600060208284031215614cb557614cb461419b565b5b6000614cc384828501614c8a565b91505092915050565b7f4d757374206265206e6f6e2d7a65726f00000000000000000000000000000000600082015250565b6000614d026010836146ac565b9150614d0d82614ccc565b602082019050919050565b60006020820190508181036000830152614d3181614cf5565b9050919050565b7f436f77204c696d69743a20576974686472617720436f77732066697273740000600082015250565b6000614d6e601e836146ac565b9150614d7982614d38565b602082019050919050565b60006020820190508181036000830152614d9d81614d61565b9050919050565b7f42756c6c204c696d69743a2057697468647261772042756c6c73206669727374600082015250565b6000614dda6020836146ac565b9150614de582614da4565b602082019050919050565b60006020820190508181036000830152614e0981614dcd565b9050919050565b600060608284031215614e2657614e2561479a565b5b614e306060614810565b90506000614e408482850161482b565b6000830152506020614e548482850161482b565b6020830152506040614e6884828501614b6b565b60408301525092915050565b600060608284031215614e8a57614e8961419b565b5b6000614e9884828501614e10565b91505092915050565b7f496e697469616c697a696e67206279207a65726f206164647265737300000000600082015250565b6000614ed7601c836146ac565b9150614ee282614ea1565b602082019050919050565b60006020820190508181036000830152614f0681614eca565b9050919050565b6000604082019050614f22600083018561423a565b614f2f602083018461423a565b9392505050565b7f4c696d6974206f6620436f777300000000000000000000000000000000000000600082015250565b6000614f6c600d836146ac565b9150614f7782614f36565b602082019050919050565b60006020820190508181036000830152614f9b81614f5f565b9050919050565b7f4f7665722062616c616e63650000000000000000000000000000000000000000600082015250565b6000614fd8600c836146ac565b9150614fe382614fa2565b602082019050919050565b6000602082019050818103600083015261500781614fcb565b9050919050565b7f4f776e61626c653a206e6577206f776e657220697320746865207a65726f206160008201527f6464726573730000000000000000000000000000000000000000000000000000602082015250565b600061506a6026836146ac565b91506150758261500e565b604082019050919050565b600060208201905081810360008301526150998161505d565b9050919050565b7f4c696d6974206f662042756c6c73000000000000000000000000000000000000600082015250565b60006150d6600e836146ac565b91506150e1826150a0565b602082019050919050565b60006020820190508181036000830152615105816150c9565b9050919050565b60008160011c9050919050565b6000808291508390505b60018511156151635780860481111561513f5761513e6148bd565b5b600185161561514e5780820291505b808102905061515c8561510c565b9450615123565b94509492505050565b60008261517c5760019050615238565b8161518a5760009050615238565b81600181146151a057600281146151aa576151d9565b6001915050615238565b60ff8411156151bc576151bb6148bd565b5b8360020a9150848211156151d3576151d26148bd565b5b50615238565b5060208310610133831016604e8410600b841016171561520e5782820a905083811115615209576152086148bd565b5b615238565b61521b8484846001615119565b92509050818404811115615232576152316148bd565b5b81810290505b9392505050565b600061524a82614230565b915061525583614230565b92506152827fffffffffffffffffffffffffffffffffffffffffffffffffffffffffffffffff848461516c565b90509291505056fea26469706673582212208d575ab2c79355e81546102381bf0978c254fc476c2a0cececf66a95dd01226e64736f6c634300080c0033",
  "immutableReferences": {},
  "source": "// SPDX-License-Identifier: MIT\r\npragma solidity >=0.4.22 <0.9.0;\r\n\r\nimport \"@openzeppelin/contracts/security/ReentrancyGuard.sol\";\r\nimport \"@openzeppelin/contracts/access/Ownable.sol\";\r\nimport \"@openzeppelin/contracts/token/ERC20/IERC20.sol\";\r\nimport \"./interfaces/INftMinter.sol\";\r\nimport \"./interfaces/ILandNFT.sol\";\r\nimport \"./interfaces/ICowNFT.sol\";\r\nimport \"./interfaces/IBullNFT.sol\";\r\nimport \"./interfaces/IMasterChef.sol\";\r\n\r\ncontract Farming is ReentrancyGuard, Ownable {\r\n    //address constant HAPPY_COW_ADDRESS = 0xf470C4B8564B1069E34Eaf00B26e6892A5391d80;\r\n    //address constant AIR_NFT_ADDRESS = 0xF5db804101d8600c26598A1Ba465166c33CdAA4b;\r\n    //address constant COW_TOKEN_ADDRESS = 0x8B6fA031c7D2E60fbFe4E663EC1B8f37Df1ba483;\r\n    //address constant MASTERCHEF_ADDRESS = 0x94098E24FCf4701237CF58ef2A222C1cF5003c86;\r\n    //address constant MILK_TOKEN_ADDRESS = 0xe5bd6C5b1c2Df8f499847a545838C09E45f4A262;\r\n    //address constant SECRET_LP_ADDRESS = ;\r\n    uint constant COW_TOKEN_DECIMALS = 9;\r\n    uint constant MASTERCHEF_PID = 0;\r\n    \r\n    address constant HAPPY_COW_ADDRESS = 0x091551a095f19133e3482Ac91c4A5dB438e94b79; // Deployed on testnet, For TEST\r\n    address constant AIR_NFT_ADDRESS = 0x46D8A7a26336e43953B91e5fb198B15DF8D0d9Db; // Deployed on testnet, For TEST\r\n    address constant COW_TOKEN_ADDRESS = 0x7D43051BBbbE2804C14eF7A99F56fFE456767A89; // Deployed on testnet, For TEST\r\n    address constant MILK_TOKEN_ADDRESS = 0x9Bb61D36F739F682295722ED7f5A5a48A142D85F; // Deployed on testnet, For TEST\r\n    address constant MASTERCHEF_ADDRESS = 0xc6438Ac9Db413Efc13F2e0727e7E70Bc85d747fE; // Deployed on testnet, For TEST\r\n    address constant SECRET_LP_ADDRESS = 0xC25e8b265Ee64A0CDE09347dC8d3e40419E8311f; // Deployed on testnet, For TEST\r\n    \r\n    \r\n    \r\n    address public minterAddr; // NftMinter contract address\r\n\r\n    // Structure of FarmingVault\r\n    struct FarmingVault {\r\n        uint[] landTokenIds; // Array of Lands to be staked\r\n        uint[] cowTokenIds; // Array of Cows to be staked\r\n        uint[] bullTokenIds; // Array of Cows to be staked\r\n        address owner; // Owner of the farm. Can be used as primary key of the farm.\r\n        uint lastReward; // block time of last reward\r\n    }\r\n    FarmingVault[] public farms; // Array of farms\r\n\r\n    mapping(uint8 => uint16) public cowLimitPerLand;\r\n    mapping(uint8 => uint16) public bullLimitPerLand;\r\n\r\n    mapping(uint8 => uint16) public baseMilkPower; // Base MilkPower of Cows by rarity\r\n    \r\n    uint maxAge = 200 days; // Maximum age of Cow and Bull. Used to change the aging speed.\r\n\r\n    uint8[1000] public happyCowNftBreeds;\r\n    uint[100] public genesisTokenIds;\r\n\r\n    event DepositLand(address _owner, uint _tokenId);\r\n    event WithdrawLand(address _owner, uint _tokenId);\r\n    event DepositCow(address _owner, uint _tokenId);\r\n    event WithdrawCow(address _owner, uint _tokenId);\r\n    event DepositBull(address _owner, uint _tokenId);\r\n    event WithdrawBull(address _owner, uint _tokenId);\r\n\r\n    // From here, state variables for test\r\n    //address public genesisNftContractAddr; // For TEST\r\n    //address public happyCowNftContractAddr; // For TEST\r\n    //address public cowTokenAddr; // For TEST\r\n    // To here, state variables for test\r\n\r\n    // Initialize the contract. This is for Proxy functionality.  Can be called only by the owner.\r\n    function initialize(address _minterAddr) public onlyOwner {\r\n        require(_minterAddr != address(0), \"Initializing by zero address\");\r\n        minterAddr = _minterAddr;\r\n\r\n        cowLimitPerLand[0] = 40;\r\n        cowLimitPerLand[1] = 80;\r\n        cowLimitPerLand[2] = 120;\r\n        cowLimitPerLand[3] = 200;\r\n        cowLimitPerLand[4] = 320;\r\n\r\n        bullLimitPerLand[0] = 2;\r\n        bullLimitPerLand[1] = 4;\r\n        bullLimitPerLand[2] = 6;\r\n        bullLimitPerLand[3] = 10;\r\n        bullLimitPerLand[4] = 16;\r\n\r\n        baseMilkPower[0] = 2000;\r\n        baseMilkPower[1] = 3000;\r\n        baseMilkPower[2] = 5000;\r\n        baseMilkPower[3] = 8000;\r\n        baseMilkPower[4] = 13000;\r\n\r\n        IMasterChef masterChef = IMasterChef(address(MASTERCHEF_ADDRESS));\r\n        IERC20 secretLpTokenContract = IERC20(address(SECRET_LP_ADDRESS));\r\n        secretLpTokenContract.approve(MASTERCHEF_ADDRESS, secretLpTokenContract.balanceOf(address(this)));\r\n        masterChef.deposit(MASTERCHEF_PID, secretLpTokenContract.balanceOf(address(this)));\r\n    }\r\n\r\n    // Deposit(Stake) Land NFT.\r\n    function depositLand(uint _tokenId) public {\r\n        uint farmIdx = _indexOfFarmByOwner(msg.sender);\r\n\r\n        // If the farmer has no farms, build a new farm of the farmer.\r\n        if(farmIdx >= farms.length) {\r\n            FarmingVault memory newFarm;\r\n            newFarm.owner = msg.sender;\r\n            newFarm.lastReward = block.timestamp;\r\n            farms.push(newFarm);\r\n        }\r\n        INftMinter minter = INftMinter(address(minterAddr));\r\n        ILandNFT landNfts = ILandNFT(address(minter.landNftColl()));\r\n\r\n        farms[farmIdx].landTokenIds.push(_tokenId);\r\n        landNfts.transferFrom(msg.sender, address(this), _tokenId);\r\n\r\n        emit DepositLand(msg.sender, _tokenId);\r\n    }\r\n\r\n    // Withdraw(Unstake) Land NFT.\r\n    function withdrawLand(uint _tokenId) public {\r\n        uint farmIdx = _indexOfFarmByOwner(msg.sender);\r\n        require(farmIdx < farms.length, \"The farmer has no farm\");\r\n\r\n        INftMinter minter = INftMinter(address(minterAddr));\r\n        ILandNFT landNfts = ILandNFT(address(minter.landNftColl()));\r\n        ILandNFT.LandAttr memory attr = landNfts.attrOf(_tokenId);\r\n        require(_totalCowLimitOf(msg.sender) - cowLimitPerLand[attr.rarity] >= farms[farmIdx].cowTokenIds.length, \"Cow Limit: Withdraw Cows first\");\r\n        require(_totalBullLimitOf(msg.sender) - bullLimitPerLand[attr.rarity] >= farms[farmIdx].cowTokenIds.length, \"Bull Limit: Withdraw Bulls first\");\r\n\r\n        landNfts.transferFrom(address(this), farms[farmIdx].owner, _tokenId);\r\n        \r\n        for(uint idx = 0;idx < farms[farmIdx].landTokenIds.length;idx ++) {\r\n            if(farms[farmIdx].landTokenIds[idx] == _tokenId) {\r\n                farms[farmIdx].landTokenIds[idx] = farms[farmIdx].landTokenIds[farms[farmIdx].landTokenIds.length - 1];\r\n                farms[farmIdx].landTokenIds.pop();\r\n                break;\r\n            }\r\n        }\r\n\r\n        emit WithdrawLand(msg.sender, _tokenId);\r\n    }\r\n\r\n    // Deposit(Stake) a Cow NFT.\r\n    function depositCow(uint _tokenId) public {\r\n        uint farmIdx = _indexOfFarmByOwner(msg.sender);\r\n        require(farmIdx < farms.length, \"The farmer has no farm\");\r\n        require(_totalCowLimitOf(msg.sender) > farms[farmIdx].cowTokenIds.length, \"Limit of Cows\");\r\n\r\n        INftMinter minter = INftMinter(address(minterAddr));\r\n        ICowNFT cowNfts = ICowNFT(address(minter.cowNftColl()));\r\n        cowNfts.transferFrom(msg.sender, address(this), _tokenId);\r\n        farms[farmIdx].cowTokenIds.push(_tokenId);\r\n\r\n        emit DepositCow(msg.sender, _tokenId);\r\n    }\r\n\r\n    // Withdraw(Unstake) a Cow NFT.\r\n    function withdrawCow(uint _tokenId) public {\r\n        uint farmIdx = _indexOfFarmByOwner(msg.sender);\r\n        require(farmIdx < farms.length, \"The farmer has no farm\");\r\n\r\n        INftMinter minter = INftMinter(address(minterAddr));\r\n        ICowNFT cowNfts = ICowNFT(address(minter.cowNftColl()));\r\n        cowNfts.transferFrom(address(this), farms[farmIdx].owner, _tokenId);\r\n        \r\n        for(uint idx = 0;idx < farms[farmIdx].cowTokenIds.length;idx ++) {\r\n            if(farms[farmIdx].cowTokenIds[idx] == _tokenId) {\r\n                farms[farmIdx].cowTokenIds[idx] = farms[farmIdx].cowTokenIds[farms[farmIdx].cowTokenIds.length - 1];\r\n                farms[farmIdx].cowTokenIds.pop();\r\n                break;\r\n            }\r\n        }\r\n\r\n        emit WithdrawCow(msg.sender, _tokenId);\r\n    }\r\n\r\n    // Deposit(Stake)  Bull NFT.\r\n    function depositBull(uint _tokenId) public {\r\n        uint farmIdx = _indexOfFarmByOwner(msg.sender);\r\n        require(farmIdx < farms.length, \"The farmer has no farm\");\r\n        require(_totalBullLimitOf(msg.sender) > farms[farmIdx].bullTokenIds.length, \"Limit of Bulls\");\r\n\r\n        INftMinter minter = INftMinter(address(minterAddr));\r\n        IBullNFT bullNfts = IBullNFT(address(minter.bullNftColl()));\r\n        bullNfts.transferFrom(msg.sender, address(this), _tokenId);\r\n        farms[farmIdx].bullTokenIds.push(_tokenId);\r\n\r\n        emit DepositBull(msg.sender, _tokenId);\r\n    }\r\n\r\n    // Withdraw(Unstake) a Bull NFT.\r\n    function withdrawBull(uint _tokenId) public {\r\n        uint farmIdx = _indexOfFarmByOwner(msg.sender);\r\n        require(farmIdx < farms.length, \"The farmer has no farm\");\r\n\r\n        INftMinter minter = INftMinter(address(minterAddr));\r\n        IBullNFT bullNfts = IBullNFT(address(minter.bullNftColl()));\r\n        bullNfts.transferFrom(address(this), farms[farmIdx].owner, _tokenId);\r\n        \r\n        for(uint idx = 0;idx < farms[farmIdx].cowTokenIds.length;idx ++) {\r\n            if(farms[farmIdx].bullTokenIds[idx] == _tokenId) {\r\n                farms[farmIdx].bullTokenIds[idx] = farms[farmIdx].bullTokenIds[farms[farmIdx].bullTokenIds.length - 1];\r\n                farms[farmIdx].bullTokenIds.pop();\r\n                break;\r\n            }\r\n        }\r\n\r\n        emit WithdrawBull(msg.sender, _tokenId);\r\n    }\r\n\r\n    function harvest() public {\r\n        uint gameMilkPower = milkPowerOfGame();\r\n        uint userMilkPower = milkPowerOf(msg.sender);\r\n\r\n        IMasterChef masterChef = IMasterChef(address(MASTERCHEF_ADDRESS));\r\n        masterChef.deposit(MASTERCHEF_PID, 0);\r\n        IERC20 milkTokenContract = IERC20(address(MILK_TOKEN_ADDRESS));\r\n        uint totalReward = milkTokenContract.balanceOf(address(this));\r\n        milkTokenContract.transfer(msg.sender, totalReward * userMilkPower / gameMilkPower);\r\n    }\r\n\r\n    function burnMilk(uint _amount) public onlyOwner {\r\n        IERC20 milkTokenContract = IERC20(address(MILK_TOKEN_ADDRESS));\r\n        uint totalAmount = milkTokenContract.balanceOf(address(this));\r\n        require(totalAmount >= _amount, \"Over balance\");\r\n        milkTokenContract.transfer(msg.sender, _amount);\r\n    }\r\n\r\n    // Calculate total MilkPower of the game(all farmers).\r\n    function milkPowerOfGame() public view returns (uint) {\r\n        uint milkPowerSum = 0;\r\n        for(uint farmIdx = 0;farmIdx < farms.length;farmIdx ++) {\r\n            milkPowerSum += milkPowerOf(farms[farmIdx].owner);\r\n        }\r\n        return milkPowerSum;\r\n    }\r\n\r\n    // Calculate MilkPower of a farmer\r\n    function milkPowerOf(address _farmer) public view returns (uint) {\r\n        uint farmIdx = _indexOfFarmByOwner(_farmer);\r\n        require(farmIdx < farms.length, \"The farmer has no farm\");\r\n\r\n        INftMinter minter = INftMinter(address(minterAddr));\r\n        ICowNFT cowNfts = ICowNFT(address(minter.cowNftColl()));\r\n        \r\n        uint genesisNftHolderBonusMultiplier = _genesisNftHolderBonusOf(_farmer);\r\n        uint cowTokenHolderBonusMultiplier = _cowTokenHolderBonusOf(_farmer);\r\n        uint[5] memory landNftTypeBonus = _landNftTypeBonusOf(_farmer);\r\n        uint[5] memory happyCowNftHolderBonus = _happyCowNftHolderBonusOf(_farmer);\r\n        uint farmerMilkPower = 0;\r\n        for(uint cowIdx = 0; cowIdx < farms[farmIdx].cowTokenIds.length;cowIdx ++) {\r\n            ICowNFT.CattleAttr memory attr = cowNfts.attrOf(farms[farmIdx].cowTokenIds[cowIdx]);\r\n            uint cowTotalMilkPower = baseMilkPower[attr.rarity];\r\n            uint cowAgingMultiplier = 0;\r\n            if(maxAge > (block.timestamp - attr.birth)){\r\n                cowAgingMultiplier = maxAge - (block.timestamp - attr.birth);\r\n            }\r\n            // uint cowAgingMultiplier = maxAge - 3 days; // For TEST\r\n            cowTotalMilkPower = cowTotalMilkPower * genesisNftHolderBonusMultiplier * cowTokenHolderBonusMultiplier * landNftTypeBonus[attr.breed] * happyCowNftHolderBonus[attr.breed] * cowAgingMultiplier;\r\n            cowTotalMilkPower = cowTotalMilkPower /  10000 / maxAge;\r\n            farmerMilkPower += cowTotalMilkPower;\r\n        }\r\n\r\n        return farmerMilkPower;\r\n    }\r\n\r\n    function landTokenIdsOf(address _owner) public view returns (uint[] memory){\r\n        uint farmIdx = _indexOfFarmByOwner(_owner);\r\n        require(farmIdx < farms.length, \"The farmer has no farm\");\r\n\r\n        uint[] memory tids = new uint[](farms[farmIdx].landTokenIds.length);\r\n        for(uint iii = 0;iii < farms[farmIdx].landTokenIds.length;iii ++) {\r\n            tids[iii] = farms[farmIdx].landTokenIds[iii];\r\n        }\r\n        return tids;\r\n    }\r\n\r\n    function cowTokenIdsOf(address _owner) public view returns (uint[] memory){\r\n        uint farmIdx = _indexOfFarmByOwner(_owner);\r\n        require(farmIdx < farms.length, \"The farmer has no farm\");\r\n\r\n        uint[] memory tids = new uint[](farms[farmIdx].landTokenIds.length);\r\n        for(uint iii = 0;iii < farms[farmIdx].cowTokenIds.length;iii ++) {\r\n            tids[iii] = farms[farmIdx].cowTokenIds[iii];\r\n        }\r\n        return tids;\r\n    }\r\n\r\n    function bullTokenIdsOf(address _owner) public view returns (uint[] memory){\r\n        uint farmIdx = _indexOfFarmByOwner(_owner);\r\n        require(farmIdx < farms.length, \"The farmer has no farm\");\r\n\r\n        uint[] memory tids = new uint[](farms[farmIdx].bullTokenIds.length);\r\n        for(uint iii = 0;iii < farms[farmIdx].bullTokenIds.length;iii ++) {\r\n            tids[iii] = farms[farmIdx].bullTokenIds[iii];\r\n        }\r\n        return tids;\r\n    }\r\n\r\n    // Set NftMinter contract address. Can be called only by the owner.\r\n    function setMinterContract(address _newMinterAddr) public onlyOwner {\r\n        require(_newMinterAddr != address(0), \"Set by zero address\");\r\n        minterAddr = _newMinterAddr;\r\n    }\r\n\r\n    // Set MaxAge\r\n    function setMaxAge(uint _newMaxAge) public onlyOwner {\r\n        require(_newMaxAge > 0, \"Must be non-zero\");\r\n        maxAge = _newMaxAge;\r\n    }\r\n\r\n    // Set Genesis NFTs' tokenIds.\r\n    function setGenesisTokenIds(uint[] calldata _genesisTokenIds) public onlyOwner {\r\n        for(uint idx=0;idx < _genesisTokenIds.length;idx ++) {\r\n            genesisTokenIds[idx] = _genesisTokenIds[idx];\r\n        }\r\n    }\r\n\r\n    // Set HappyCow NFTs' Breed attributes.\r\n    function setHappyCowNftBreeds(uint8[] calldata _happyCowNftBreeds) public onlyOwner {\r\n        for(uint idx=0;idx < _happyCowNftBreeds.length;idx ++) {\r\n            happyCowNftBreeds[idx] = _happyCowNftBreeds[idx];\r\n        }\r\n    }\r\n\r\n    // Get index of FarmingVault in farms array which has Land of _landTokenId\r\n    function _indexOfFarmByOwner(address _farmer) private view returns (uint) {\r\n        uint idx = 0;\r\n        for(idx = 0;idx < farms.length;idx ++){\r\n            if(farms[idx].owner == _farmer) {\r\n                return idx;\r\n            }\r\n        }\r\n        return idx;\r\n    }\r\n\r\n    // Get total Cow limits of a farmer.\r\n    function _totalCowLimitOf(address _farmer) public view returns (uint) {\r\n        uint farmIdx = _indexOfFarmByOwner(_farmer);\r\n        require(farmIdx < farms.length, \"The farmer has no farm\");\r\n\r\n        uint totalCowLimit = 0;\r\n        INftMinter minter = INftMinter(address(minterAddr));\r\n        ILandNFT landNfts = ILandNFT(address(minter.landNftColl()));\r\n        for(uint idx = 0;idx < farms[farmIdx].landTokenIds.length;idx ++) {\r\n            ILandNFT.LandAttr memory attr = landNfts.attrOf(farms[farmIdx].landTokenIds[idx]);\r\n            totalCowLimit += cowLimitPerLand[attr.rarity];\r\n        }\r\n        return totalCowLimit;\r\n    }\r\n\r\n    // Get total Bull limits of a farmer.\r\n    function _totalBullLimitOf(address _farmer) public view returns (uint) {\r\n        uint farmIdx = _indexOfFarmByOwner(_farmer);\r\n        require(farmIdx < farms.length, \"The farmer has no farm\");\r\n\r\n        uint totalBullLimit = 0;\r\n        INftMinter minter = INftMinter(address(minterAddr));\r\n        ILandNFT landNfts = ILandNFT(address(minter.landNftColl()));\r\n        for(uint idx = 0;idx < farms[farmIdx].landTokenIds.length;idx ++) {\r\n            ILandNFT.LandAttr memory attr = landNfts.attrOf(farms[farmIdx].landTokenIds[idx]);\r\n            totalBullLimit += bullLimitPerLand[attr.rarity];\r\n        }\r\n        return totalBullLimit;\r\n    }\r\n\r\n    // Calculate $COW Holder Bonus. 11 - 20\r\n    function _cowTokenHolderBonusOf(address _farmer) private view returns(uint) {\r\n        IERC20 cowTokenContract = IERC20(address(COW_TOKEN_ADDRESS));\r\n        //IERC20 cowTokenContract = IERC20(address(cowTokenAddr)); // For TEST\r\n        uint amount = cowTokenContract.balanceOf(_farmer);\r\n\r\n        if(amount < 10*10**COW_TOKEN_DECIMALS) {\r\n            return 10;\r\n        }\r\n        if(amount < 20*10**COW_TOKEN_DECIMALS) {\r\n            return 11;\r\n        }\r\n        if(amount < 30*10**COW_TOKEN_DECIMALS) {\r\n            return 12;\r\n        }\r\n        if(amount < 50*10**COW_TOKEN_DECIMALS) {\r\n            return 13;\r\n        }\r\n        if(amount < 80*10**COW_TOKEN_DECIMALS) {\r\n            return 14;\r\n        }\r\n        if(amount < 130*10**COW_TOKEN_DECIMALS) {\r\n            return 15;\r\n        }\r\n        if(amount < 210*10**COW_TOKEN_DECIMALS) {\r\n            return 16;\r\n        }\r\n        if(amount < 340*10**COW_TOKEN_DECIMALS) {\r\n            return 17;\r\n        }\r\n        if(amount < 550*10**COW_TOKEN_DECIMALS) {\r\n            return 18;\r\n        }\r\n        if(amount < 890*10**COW_TOKEN_DECIMALS) {\r\n            return 19;\r\n        }\r\n        return 20;\r\n    }\r\n\r\n    // Calculate CashCow Genesis NFT Holder Bonus. 10 or 15\r\n    function _genesisNftHolderBonusOf(address _farmer) public view returns(uint) {\r\n        for(uint idx = 0;idx < 100;idx ++) {\r\n            IERC721 genesisNfts = IERC721(address(AIR_NFT_ADDRESS));\r\n            //IERC721 genesisNfts = IERC721(address(genesisNftContractAddr)); // For TEST\r\n            if(genesisNfts.ownerOf(genesisTokenIds[idx]) == _farmer) {\r\n                return 15;\r\n            }\r\n        }\r\n        return 10;\r\n    }\r\n\r\n    // Calculate CashCow HappyCow NFT Holder Bonus. 10 or 15\r\n    function _happyCowNftHolderBonusOf(address _farmer) public view returns(uint[5] memory) {\r\n        uint[5] memory bonuses = [(uint)(10), 10, 10, 10, 10];\r\n        for(uint idx = 0;idx < 1000;idx ++) {\r\n            IERC721 happyCowNfts = IERC721(address(HAPPY_COW_ADDRESS));\r\n            //IERC721 happyCowNfts = IERC721(address(happyCowNftContractAddr)); // For TEST\r\n            if(happyCowNfts.ownerOf(idx+1) == _farmer) {\r\n                bonuses[happyCowNftBreeds[idx]] = 15;\r\n            }\r\n        }\r\n        return bonuses;\r\n    }\r\n\r\n    // Calculate Land NFT Type Bonus.\r\n    function _landNftTypeBonusOf(address _farmer) public view returns(uint[5] memory) {\r\n        uint farmIdx = _indexOfFarmByOwner(_farmer);\r\n        require(farmIdx < farms.length, \"The farmer has no farm\");\r\n        uint[5] memory bonuses = [(uint)(10), 10, 10, 10, 10];\r\n\r\n        INftMinter minter = INftMinter(address(minterAddr));\r\n        ILandNFT landNfts = ILandNFT(address(minter.landNftColl()));\r\n        for(uint landIdx = 0;landIdx < farms[farmIdx].landTokenIds.length;landIdx ++) {\r\n            ILandNFT.LandAttr memory attr = landNfts.attrOf(farms[farmIdx].landTokenIds[landIdx]);\r\n            bonuses[attr.landType] = 15;\r\n        }\r\n        return bonuses;\r\n    }\r\n\r\n    /* // For TEST\r\n    function setGenesisNftColl(address _newAddr) public onlyOwner {\r\n        require(_newAddr != address(0), \"Genesis NFT address must be non-zero\");\r\n        genesisNftContractAddr = _newAddr;\r\n    }\r\n\r\n    // For TEST\r\n    function setHappyCowNftColl(address _newAddr) public onlyOwner {\r\n        require(_newAddr != address(0), \"Genesis NFT address must be non-zero\");\r\n        happyCowNftContractAddr = _newAddr;\r\n    }\r\n\r\n    // For TEST\r\n    function setCowToken(address _newAddr) public onlyOwner {\r\n        require(_newAddr != address(0), \"COW token contract address must be non-zero\");\r\n        cowTokenAddr = _newAddr;\r\n    } */\r\n}",
  "sourcePath": "D:\\Workspace\\Projects\\CashCow\\game-contracts\\contracts\\Farming.sol",
  "compiler": {
    "name": "solc",
    "version": "0.8.12+commit.f00d7308.Emscripten.clang"
  },
  "schemaVersion": "3.4.6",
  "updatedAt": "2022-04-21T13:47:33.225Z",
  "devdoc": {
    "kind": "dev",
    "methods": {
      "owner()": {
        "details": "Returns the address of the current owner."
      },
      "renounceOwnership()": {
        "details": "Leaves the contract without owner. It will not be possible to call `onlyOwner` functions anymore. Can only be called by the current owner. NOTE: Renouncing ownership will leave the contract without an owner, thereby removing any functionality that is only available to the owner."
      },
      "transferOwnership(address)": {
        "details": "Transfers ownership of the contract to a new account (`newOwner`). Can only be called by the current owner."
      }
    },
    "version": 1
  },
  "userdoc": {
    "kind": "user",
    "methods": {},
    "version": 1
  }
}