{
  "contractName": "Farming",
  "abi": [
    {
      "anonymous": false,
      "inputs": [
        {
          "indexed": false,
          "internalType": "address",
          "name": "_owner",
          "type": "address"
        },
        {
          "indexed": false,
          "internalType": "uint256",
          "name": "_tokenId",
          "type": "uint256"
        }
      ],
      "name": "DepositBull",
      "type": "event"
    },
    {
      "anonymous": false,
      "inputs": [
        {
          "indexed": false,
          "internalType": "address",
          "name": "_owner",
          "type": "address"
        },
        {
          "indexed": false,
          "internalType": "uint256",
          "name": "_tokenId",
          "type": "uint256"
        }
      ],
      "name": "DepositCow",
      "type": "event"
    },
    {
      "anonymous": false,
      "inputs": [
        {
          "indexed": false,
          "internalType": "address",
          "name": "_owner",
          "type": "address"
        },
        {
          "indexed": false,
          "internalType": "uint256",
          "name": "_tokenId",
          "type": "uint256"
        }
      ],
      "name": "DepositLand",
      "type": "event"
    },
    {
      "anonymous": false,
      "inputs": [
        {
          "indexed": true,
          "internalType": "address",
          "name": "previousOwner",
          "type": "address"
        },
        {
          "indexed": true,
          "internalType": "address",
          "name": "newOwner",
          "type": "address"
        }
      ],
      "name": "OwnershipTransferred",
      "type": "event"
    },
    {
      "anonymous": false,
      "inputs": [
        {
          "indexed": false,
          "internalType": "address",
          "name": "_owner",
          "type": "address"
        },
        {
          "indexed": false,
          "internalType": "uint256",
          "name": "_tokenId",
          "type": "uint256"
        }
      ],
      "name": "WithdrawBull",
      "type": "event"
    },
    {
      "anonymous": false,
      "inputs": [
        {
          "indexed": false,
          "internalType": "address",
          "name": "_owner",
          "type": "address"
        },
        {
          "indexed": false,
          "internalType": "uint256",
          "name": "_tokenId",
          "type": "uint256"
        }
      ],
      "name": "WithdrawCow",
      "type": "event"
    },
    {
      "anonymous": false,
      "inputs": [
        {
          "indexed": false,
          "internalType": "address",
          "name": "_owner",
          "type": "address"
        },
        {
          "indexed": false,
          "internalType": "uint256",
          "name": "_tokenId",
          "type": "uint256"
        }
      ],
      "name": "WithdrawLand",
      "type": "event"
    },
    {
      "inputs": [],
      "name": "AIR_NFT_ADDRESS",
      "outputs": [
        {
          "internalType": "address",
          "name": "",
          "type": "address"
        }
      ],
      "stateMutability": "view",
      "type": "function",
      "constant": true
    },
    {
      "inputs": [],
      "name": "COW_TOKEN_ADDRESS",
      "outputs": [
        {
          "internalType": "address",
          "name": "",
          "type": "address"
        }
      ],
      "stateMutability": "view",
      "type": "function",
      "constant": true
    },
    {
      "inputs": [],
      "name": "HAPPY_COW_ADDRESS",
      "outputs": [
        {
          "internalType": "address",
          "name": "",
          "type": "address"
        }
      ],
      "stateMutability": "view",
      "type": "function",
      "constant": true
    },
    {
      "inputs": [],
      "name": "MASTERCHEF_ADDRESS",
      "outputs": [
        {
          "internalType": "address",
          "name": "",
          "type": "address"
        }
      ],
      "stateMutability": "view",
      "type": "function",
      "constant": true
    },
    {
      "inputs": [],
      "name": "MILK_TOKEN_ADDRESS",
      "outputs": [
        {
          "internalType": "address",
          "name": "",
          "type": "address"
        }
      ],
      "stateMutability": "view",
      "type": "function",
      "constant": true
    },
    {
      "inputs": [],
      "name": "SECRET_LP_ADDRESS",
      "outputs": [
        {
          "internalType": "address",
          "name": "",
          "type": "address"
        }
      ],
      "stateMutability": "view",
      "type": "function",
      "constant": true
    },
    {
      "inputs": [
        {
          "internalType": "address",
          "name": "",
          "type": "address"
        }
      ],
      "name": "airNftBonus",
      "outputs": [
        {
          "internalType": "uint256",
          "name": "",
          "type": "uint256"
        }
      ],
      "stateMutability": "view",
      "type": "function",
      "constant": true
    },
    {
      "inputs": [
        {
          "internalType": "uint256",
          "name": "",
          "type": "uint256"
        }
      ],
      "name": "baseMilkPower",
      "outputs": [
        {
          "internalType": "uint256",
          "name": "",
          "type": "uint256"
        }
      ],
      "stateMutability": "view",
      "type": "function",
      "constant": true
    },
    {
      "inputs": [
        {
          "internalType": "uint256",
          "name": "",
          "type": "uint256"
        }
      ],
      "name": "baseRecoveryTime",
      "outputs": [
        {
          "internalType": "uint256",
          "name": "",
          "type": "uint256"
        }
      ],
      "stateMutability": "view",
      "type": "function",
      "constant": true
    },
    {
      "inputs": [],
      "name": "breedProbability",
      "outputs": [
        {
          "internalType": "uint256",
          "name": "",
          "type": "uint256"
        }
      ],
      "stateMutability": "view",
      "type": "function",
      "constant": true
    },
    {
      "inputs": [],
      "name": "breedingPrice",
      "outputs": [
        {
          "internalType": "uint256",
          "name": "",
          "type": "uint256"
        }
      ],
      "stateMutability": "view",
      "type": "function",
      "constant": true
    },
    {
      "inputs": [
        {
          "internalType": "uint256",
          "name": "",
          "type": "uint256"
        }
      ],
      "name": "breedingVaults",
      "outputs": [
        {
          "components": [
            {
              "internalType": "uint256",
              "name": "tokenId",
              "type": "uint256"
            },
            {
              "internalType": "uint8",
              "name": "rarity",
              "type": "uint8"
            },
            {
              "internalType": "uint256",
              "name": "birth",
              "type": "uint256"
            },
            {
              "internalType": "uint8",
              "name": "breed",
              "type": "uint8"
            },
            {
              "internalType": "bool",
              "name": "isBreeding",
              "type": "bool"
            }
          ],
          "internalType": "struct Farming.CowBullInfo",
          "name": "cowTokenInfo",
          "type": "tuple"
        },
        {
          "components": [
            {
              "internalType": "uint256",
              "name": "tokenId",
              "type": "uint256"
            },
            {
              "internalType": "uint8",
              "name": "rarity",
              "type": "uint8"
            },
            {
              "internalType": "uint256",
              "name": "birth",
              "type": "uint256"
            },
            {
              "internalType": "uint8",
              "name": "breed",
              "type": "uint8"
            },
            {
              "internalType": "bool",
              "name": "isBreeding",
              "type": "bool"
            }
          ],
          "internalType": "struct Farming.CowBullInfo",
          "name": "bullTokenInfo",
          "type": "tuple"
        },
        {
          "internalType": "uint256",
          "name": "unlockTime",
          "type": "uint256"
        },
        {
          "internalType": "address",
          "name": "owner",
          "type": "address"
        }
      ],
      "stateMutability": "view",
      "type": "function",
      "constant": true
    },
    {
      "inputs": [
        {
          "internalType": "uint256",
          "name": "",
          "type": "uint256"
        }
      ],
      "name": "bullLimitPerLand",
      "outputs": [
        {
          "internalType": "uint256",
          "name": "",
          "type": "uint256"
        }
      ],
      "stateMutability": "view",
      "type": "function",
      "constant": true
    },
    {
      "inputs": [
        {
          "internalType": "uint256",
          "name": "",
          "type": "uint256"
        }
      ],
      "name": "cowLimitPerLand",
      "outputs": [
        {
          "internalType": "uint256",
          "name": "",
          "type": "uint256"
        }
      ],
      "stateMutability": "view",
      "type": "function",
      "constant": true
    },
    {
      "inputs": [],
      "name": "cowProbability",
      "outputs": [
        {
          "internalType": "uint256",
          "name": "",
          "type": "uint256"
        }
      ],
      "stateMutability": "view",
      "type": "function",
      "constant": true
    },
    {
      "inputs": [
        {
          "internalType": "uint256",
          "name": "",
          "type": "uint256"
        }
      ],
      "name": "genesisTokenIds",
      "outputs": [
        {
          "internalType": "uint256",
          "name": "",
          "type": "uint256"
        }
      ],
      "stateMutability": "view",
      "type": "function",
      "constant": true
    },
    {
      "inputs": [
        {
          "internalType": "address",
          "name": "",
          "type": "address"
        },
        {
          "internalType": "uint256",
          "name": "",
          "type": "uint256"
        }
      ],
      "name": "happyCowBonus",
      "outputs": [
        {
          "internalType": "uint256",
          "name": "",
          "type": "uint256"
        }
      ],
      "stateMutability": "view",
      "type": "function",
      "constant": true
    },
    {
      "inputs": [
        {
          "internalType": "uint256",
          "name": "",
          "type": "uint256"
        }
      ],
      "name": "happyCowNftBreeds",
      "outputs": [
        {
          "internalType": "uint256",
          "name": "",
          "type": "uint256"
        }
      ],
      "stateMutability": "view",
      "type": "function",
      "constant": true
    },
    {
      "inputs": [
        {
          "internalType": "uint256",
          "name": "",
          "type": "uint256"
        }
      ],
      "name": "initMilkPower",
      "outputs": [
        {
          "internalType": "uint256",
          "name": "",
          "type": "uint256"
        }
      ],
      "stateMutability": "view",
      "type": "function",
      "constant": true
    },
    {
      "inputs": [],
      "name": "maxAge",
      "outputs": [
        {
          "internalType": "uint256",
          "name": "",
          "type": "uint256"
        }
      ],
      "stateMutability": "view",
      "type": "function",
      "constant": true
    },
    {
      "inputs": [],
      "name": "maxRecoveryTime",
      "outputs": [
        {
          "internalType": "uint256",
          "name": "",
          "type": "uint256"
        }
      ],
      "stateMutability": "view",
      "type": "function",
      "constant": true
    },
    {
      "inputs": [],
      "name": "milkPerBlock",
      "outputs": [
        {
          "internalType": "uint256",
          "name": "",
          "type": "uint256"
        }
      ],
      "stateMutability": "view",
      "type": "function",
      "constant": true
    },
    {
      "inputs": [],
      "name": "minterAddr",
      "outputs": [
        {
          "internalType": "address",
          "name": "",
          "type": "address"
        }
      ],
      "stateMutability": "view",
      "type": "function",
      "constant": true
    },
    {
      "inputs": [],
      "name": "owner",
      "outputs": [
        {
          "internalType": "address",
          "name": "",
          "type": "address"
        }
      ],
      "stateMutability": "view",
      "type": "function",
      "constant": true
    },
    {
      "inputs": [],
      "name": "rarityProbability",
      "outputs": [
        {
          "internalType": "uint256",
          "name": "",
          "type": "uint256"
        }
      ],
      "stateMutability": "view",
      "type": "function",
      "constant": true
    },
    {
      "inputs": [],
      "name": "renounceOwnership",
      "outputs": [],
      "stateMutability": "nonpayable",
      "type": "function"
    },
    {
      "inputs": [],
      "name": "totalMilkPower",
      "outputs": [
        {
          "internalType": "uint256",
          "name": "",
          "type": "uint256"
        }
      ],
      "stateMutability": "view",
      "type": "function",
      "constant": true
    },
    {
      "inputs": [
        {
          "internalType": "address",
          "name": "newOwner",
          "type": "address"
        }
      ],
      "name": "transferOwnership",
      "outputs": [],
      "stateMutability": "nonpayable",
      "type": "function"
    },
    {
      "inputs": [
        {
          "internalType": "address",
          "name": "",
          "type": "address"
        }
      ],
      "name": "userFarms",
      "outputs": [
        {
          "internalType": "address",
          "name": "owner",
          "type": "address"
        },
        {
          "internalType": "uint256",
          "name": "lastReward",
          "type": "uint256"
        }
      ],
      "stateMutability": "view",
      "type": "function",
      "constant": true
    },
    {
      "inputs": [
        {
          "internalType": "address",
          "name": "_minterAddr",
          "type": "address"
        },
        {
          "internalType": "address",
          "name": "_happyCowAddress",
          "type": "address"
        },
        {
          "internalType": "address",
          "name": "_airNftAddress",
          "type": "address"
        },
        {
          "internalType": "address",
          "name": "_cowTokenAddress",
          "type": "address"
        },
        {
          "internalType": "address",
          "name": "_milkTokenAddress",
          "type": "address"
        },
        {
          "internalType": "address",
          "name": "_masterChefAddress",
          "type": "address"
        },
        {
          "internalType": "address",
          "name": "_secretLpAddress",
          "type": "address"
        }
      ],
      "name": "initialize",
      "outputs": [],
      "stateMutability": "nonpayable",
      "type": "function"
    },
    {
      "inputs": [],
      "name": "depositLP",
      "outputs": [],
      "stateMutability": "nonpayable",
      "type": "function"
    },
    {
      "inputs": [
        {
          "internalType": "uint256",
          "name": "_amount",
          "type": "uint256"
        }
      ],
      "name": "withdrawLp",
      "outputs": [],
      "stateMutability": "nonpayable",
      "type": "function"
    },
    {
      "inputs": [
        {
          "internalType": "uint256",
          "name": "newValue",
          "type": "uint256"
        }
      ],
      "name": "setMilkPerBlock",
      "outputs": [],
      "stateMutability": "nonpayable",
      "type": "function"
    },
    {
      "inputs": [
        {
          "internalType": "uint256",
          "name": "_tokenId",
          "type": "uint256"
        }
      ],
      "name": "depositLand",
      "outputs": [],
      "stateMutability": "nonpayable",
      "type": "function"
    },
    {
      "inputs": [
        {
          "internalType": "uint256",
          "name": "_tokenId",
          "type": "uint256"
        }
      ],
      "name": "withdrawLand",
      "outputs": [],
      "stateMutability": "nonpayable",
      "type": "function"
    },
    {
      "inputs": [
        {
          "internalType": "uint256",
          "name": "_tokenId",
          "type": "uint256"
        }
      ],
      "name": "depositCow",
      "outputs": [],
      "stateMutability": "nonpayable",
      "type": "function"
    },
    {
      "inputs": [
        {
          "internalType": "uint256",
          "name": "_tokenId",
          "type": "uint256"
        }
      ],
      "name": "withdrawCow",
      "outputs": [],
      "stateMutability": "nonpayable",
      "type": "function"
    },
    {
      "inputs": [
        {
          "internalType": "uint256",
          "name": "amount",
          "type": "uint256"
        }
      ],
      "name": "depositCowTokens",
      "outputs": [],
      "stateMutability": "nonpayable",
      "type": "function"
    },
    {
      "inputs": [
        {
          "internalType": "uint256",
          "name": "_amount",
          "type": "uint256"
        }
      ],
      "name": "withdrawCowTokens",
      "outputs": [],
      "stateMutability": "nonpayable",
      "type": "function"
    },
    {
      "inputs": [
        {
          "internalType": "uint256",
          "name": "_tokenId",
          "type": "uint256"
        }
      ],
      "name": "depositBull",
      "outputs": [],
      "stateMutability": "nonpayable",
      "type": "function"
    },
    {
      "inputs": [
        {
          "internalType": "uint256",
          "name": "_tokenId",
          "type": "uint256"
        }
      ],
      "name": "withdrawBull",
      "outputs": [],
      "stateMutability": "nonpayable",
      "type": "function"
    },
    {
      "inputs": [
        {
          "internalType": "uint256",
          "name": "_tokenId",
          "type": "uint256"
        }
      ],
      "name": "depositHappyCow",
      "outputs": [
        {
          "internalType": "uint256",
          "name": "",
          "type": "uint256"
        }
      ],
      "stateMutability": "nonpayable",
      "type": "function"
    },
    {
      "inputs": [
        {
          "internalType": "uint256",
          "name": "_tokenId",
          "type": "uint256"
        }
      ],
      "name": "withdrawHappyCow",
      "outputs": [],
      "stateMutability": "nonpayable",
      "type": "function"
    },
    {
      "inputs": [
        {
          "internalType": "uint256",
          "name": "_tokenId",
          "type": "uint256"
        }
      ],
      "name": "depositAirNft",
      "outputs": [],
      "stateMutability": "nonpayable",
      "type": "function"
    },
    {
      "inputs": [
        {
          "internalType": "uint256",
          "name": "_tokenId",
          "type": "uint256"
        }
      ],
      "name": "withdrawAirNft",
      "outputs": [],
      "stateMutability": "nonpayable",
      "type": "function"
    },
    {
      "inputs": [],
      "name": "harvest",
      "outputs": [],
      "stateMutability": "nonpayable",
      "type": "function"
    },
    {
      "inputs": [],
      "name": "getUserRewardAmount",
      "outputs": [
        {
          "internalType": "uint256",
          "name": "",
          "type": "uint256"
        }
      ],
      "stateMutability": "view",
      "type": "function",
      "constant": true
    },
    {
      "inputs": [],
      "name": "getUserDailyMilk",
      "outputs": [
        {
          "internalType": "uint256",
          "name": "",
          "type": "uint256"
        }
      ],
      "stateMutability": "view",
      "type": "function",
      "constant": true
    },
    {
      "inputs": [
        {
          "internalType": "uint256",
          "name": "_amount",
          "type": "uint256"
        }
      ],
      "name": "burnMilk",
      "outputs": [],
      "stateMutability": "nonpayable",
      "type": "function"
    },
    {
      "inputs": [
        {
          "internalType": "address",
          "name": "_farmer",
          "type": "address"
        }
      ],
      "name": "milkPowerOf",
      "outputs": [
        {
          "internalType": "uint256",
          "name": "",
          "type": "uint256"
        }
      ],
      "stateMutability": "view",
      "type": "function",
      "constant": true
    },
    {
      "inputs": [
        {
          "internalType": "address",
          "name": "_owner",
          "type": "address"
        }
      ],
      "name": "landTokenIdsOf",
      "outputs": [
        {
          "internalType": "uint256[]",
          "name": "",
          "type": "uint256[]"
        }
      ],
      "stateMutability": "view",
      "type": "function",
      "constant": true
    },
    {
      "inputs": [
        {
          "internalType": "address",
          "name": "_owner",
          "type": "address"
        }
      ],
      "name": "cowTokenIdsOf",
      "outputs": [
        {
          "internalType": "uint256[]",
          "name": "",
          "type": "uint256[]"
        }
      ],
      "stateMutability": "view",
      "type": "function",
      "constant": true
    },
    {
      "inputs": [
        {
          "internalType": "address",
          "name": "_owner",
          "type": "address"
        }
      ],
      "name": "breedingCowTokenIdsOf",
      "outputs": [
        {
          "internalType": "uint256[]",
          "name": "",
          "type": "uint256[]"
        }
      ],
      "stateMutability": "view",
      "type": "function",
      "constant": true
    },
    {
      "inputs": [
        {
          "internalType": "address",
          "name": "_owner",
          "type": "address"
        }
      ],
      "name": "bullTokenIdsOf",
      "outputs": [
        {
          "internalType": "uint256[]",
          "name": "",
          "type": "uint256[]"
        }
      ],
      "stateMutability": "view",
      "type": "function",
      "constant": true
    },
    {
      "inputs": [
        {
          "internalType": "address",
          "name": "_owner",
          "type": "address"
        }
      ],
      "name": "breedingBullTokenIdsOf",
      "outputs": [
        {
          "internalType": "uint256[]",
          "name": "",
          "type": "uint256[]"
        }
      ],
      "stateMutability": "view",
      "type": "function",
      "constant": true
    },
    {
      "inputs": [
        {
          "internalType": "address",
          "name": "_owner",
          "type": "address"
        }
      ],
      "name": "happyCowTokenIdsOf",
      "outputs": [
        {
          "internalType": "uint256[]",
          "name": "",
          "type": "uint256[]"
        }
      ],
      "stateMutability": "view",
      "type": "function",
      "constant": true
    },
    {
      "inputs": [
        {
          "internalType": "address",
          "name": "_owner",
          "type": "address"
        }
      ],
      "name": "genesisTokenIdsOf",
      "outputs": [
        {
          "internalType": "uint256[]",
          "name": "",
          "type": "uint256[]"
        }
      ],
      "stateMutability": "view",
      "type": "function",
      "constant": true
    },
    {
      "inputs": [
        {
          "internalType": "address",
          "name": "_newMinterAddr",
          "type": "address"
        }
      ],
      "name": "setMinterContract",
      "outputs": [],
      "stateMutability": "nonpayable",
      "type": "function"
    },
    {
      "inputs": [
        {
          "internalType": "uint256",
          "name": "_newMaxAge",
          "type": "uint256"
        }
      ],
      "name": "setMaxAge",
      "outputs": [],
      "stateMutability": "nonpayable",
      "type": "function"
    },
    {
      "inputs": [
        {
          "internalType": "uint256[]",
          "name": "_genesisTokenIds",
          "type": "uint256[]"
        }
      ],
      "name": "setGenesisTokenIds",
      "outputs": [],
      "stateMutability": "nonpayable",
      "type": "function"
    },
    {
      "inputs": [
        {
          "internalType": "uint256[]",
          "name": "_happyCowNftBreeds",
          "type": "uint256[]"
        }
      ],
      "name": "setHappyCowNftBreeds",
      "outputs": [],
      "stateMutability": "nonpayable",
      "type": "function"
    },
    {
      "inputs": [
        {
          "internalType": "address",
          "name": "_farmer",
          "type": "address"
        }
      ],
      "name": "_totalCowLimitOf",
      "outputs": [
        {
          "internalType": "uint256",
          "name": "",
          "type": "uint256"
        }
      ],
      "stateMutability": "view",
      "type": "function",
      "constant": true
    },
    {
      "inputs": [
        {
          "internalType": "address",
          "name": "_farmer",
          "type": "address"
        }
      ],
      "name": "_totalBullLimitOf",
      "outputs": [
        {
          "internalType": "uint256",
          "name": "",
          "type": "uint256"
        }
      ],
      "stateMutability": "view",
      "type": "function",
      "constant": true
    },
    {
      "inputs": [
        {
          "internalType": "address",
          "name": "_farmer",
          "type": "address"
        }
      ],
      "name": "_landNftTypeBonusOf",
      "outputs": [
        {
          "internalType": "uint256[5]",
          "name": "",
          "type": "uint256[5]"
        }
      ],
      "stateMutability": "view",
      "type": "function",
      "constant": true
    },
    {
      "inputs": [
        {
          "internalType": "uint256",
          "name": "_cowTokenId",
          "type": "uint256"
        },
        {
          "internalType": "uint256",
          "name": "_bullTokenId",
          "type": "uint256"
        }
      ],
      "name": "breed",
      "outputs": [],
      "stateMutability": "nonpayable",
      "type": "function"
    },
    {
      "inputs": [
        {
          "internalType": "uint256",
          "name": "_price",
          "type": "uint256"
        }
      ],
      "name": "setBreedingPrice",
      "outputs": [],
      "stateMutability": "nonpayable",
      "type": "function"
    },
    {
      "inputs": [],
      "name": "withdrawMilk",
      "outputs": [],
      "stateMutability": "nonpayable",
      "type": "function"
    },
    {
      "inputs": [
        {
          "internalType": "uint256",
          "name": "_bullTokenId",
          "type": "uint256"
        },
        {
          "internalType": "uint256[]",
          "name": "_seed",
          "type": "uint256[]"
        }
      ],
      "name": "claimCattle",
      "outputs": [],
      "stateMutability": "nonpayable",
      "type": "function"
    },
    {
      "inputs": [
        {
          "internalType": "address",
          "name": "userAddress",
          "type": "address"
        }
      ],
      "name": "getBreedingItems",
      "outputs": [
        {
          "internalType": "uint256[]",
          "name": "",
          "type": "uint256[]"
        },
        {
          "internalType": "uint256[]",
          "name": "",
          "type": "uint256[]"
        },
        {
          "internalType": "uint256[]",
          "name": "",
          "type": "uint256[]"
        },
        {
          "internalType": "uint256[]",
          "name": "",
          "type": "uint256[]"
        },
        {
          "internalType": "uint256[]",
          "name": "",
          "type": "uint256[]"
        },
        {
          "internalType": "uint256[]",
          "name": "",
          "type": "uint256[]"
        }
      ],
      "stateMutability": "view",
      "type": "function",
      "constant": true
    },
    {
      "inputs": [
        {
          "internalType": "uint256",
          "name": "_rarityP",
          "type": "uint256"
        },
        {
          "internalType": "uint256",
          "name": "_breedP",
          "type": "uint256"
        },
        {
          "internalType": "uint256",
          "name": "_cowP",
          "type": "uint256"
        }
      ],
      "name": "setProbabilities",
      "outputs": [],
      "stateMutability": "nonpayable",
      "type": "function"
    }
  ],
  "bytecode": "0x6080604052600960025560066003553480156200001b57600080fd5b5060016000556200002c3362000032565b62000084565b600180546001600160a01b038381166001600160a01b0319831681179093556040519116919082907f8be0079c531659141344cd1fd0a4f28419497f9722a3daafe3b4186f6b6457e090600090a35050565b6159ee80620000946000396000f3fe608060405234801561001057600080fd5b50600436106104125760003560e01c80637cb9362711610220578063c7c2818811610130578063e0d4f57e116100b8578063f2fde38b11610087578063f2fde38b14610921578063f6f086a014610934578063f95998d314610947578063fac9d57d1461096a578063fd6505a51461097d57600080fd5b8063e0d4f57e146108c6578063e2b1a45d146108ce578063e7055b41146108e1578063eed2f2771461090157600080fd5b8063cc32dfd5116100ff578063cc32dfd514610867578063cefd3c461461087a578063cf9b3d7e1461088d578063d9ecad7b146108a0578063db71fed7146108b357600080fd5b8063c7c281881461081b578063ca83fe1e1461082e578063cac6b58314610841578063cbe36f5e1461085457600080fd5b8063959afa15116101b3578063b60ea1cc11610182578063b60ea1cc146107bc578063baebe509146107cf578063bc396984146107e2578063bfb5cbe9146107f5578063c713a5451461080857600080fd5b8063959afa15146107635780639bc253f7146107765780639d97a6a1146107895780639da8da231461079c57600080fd5b806391608970116101ef57806391608970146107195780639409950a146107225780639564dfae146107475780639584d3451461075a57600080fd5b80637cb93627146106da57806380284786146106ed5780638aeb7389146107005780638da5cb5b1461070857600080fd5b80632f22ff5e11610326578063555e7f4a116102ae5780636411140a1161027d5780636411140a146106a4578063687043c5146106ad5780637011edb8146106b6578063715018a6146106c95780637506f534146106d157600080fd5b8063555e7f4a1461061a5780635a91a0221461065e5780635ae28fc91461067e5780635d2d9f581461069157600080fd5b806339c2676a116102f557806339c2676a146105c35780634641257d146105e357806349c4ab0c146105eb5780634f8f8c2a146105f457806352e3df581461060757600080fd5b80632f22ff5e1461057757806332b8cfac1461058a578063358764761461059d57806338478ae7146105b057600080fd5b8063137823c1116103a95780631e8f743a116103785780631e8f743a146105165780631e9f3a8e146105295780631ec13d551461053c57806326161ef91461055c5780632c6f60281461056457600080fd5b8063137823c1146104d557806313c5676a146104dd57806314619e18146104f05780631abeb22e1461050357600080fd5b80630c8d9574116103e55780630c8d95741461046e5780631023d8d31461049957806311498c12146104a2578063118c951d146104c257600080fd5b806308187ac714610417578063097d53991461043d57806309d49a25146104525780630b71f01c14610465575b600080fd5b61042a6104253660046151d1565b610990565b6040519081526020015b60405180910390f35b61045061044b3660046151ea565b6109a7565b005b61045061046036600461525e565b6109c0565b61042a60195481565b601454610481906001600160a01b031681565b6040516001600160a01b039091168152602001610434565b61042a60205481565b6104b56104b036600461529f565b6109d6565b60405161043491906152f7565b61042a6104d036600461529f565b610b4b565b61042a610caf565b6104506104eb3660046151d1565b610d01565b6104506104fe3660046151ea565b610fba565b601354610481906001600160a01b031681565b6104506105243660046151d1565b610fce565b6104b561053736600461529f565b610fdb565b61042a61054a3660046151d1565b60076020526000908152604090205481565b6104506110a6565b6104b561057236600461529f565b61125f565b6104506105853660046151d1565b6113ca565b6104506105983660046151d1565b611473565b6104506105ab36600461530a565b61157b565b6104506105be36600461529f565b611941565b61042a6105d13660046151d1565b60086020526000908152604090205481565b6104506119b7565b61042a600b5481565b6104506106023660046151d1565b611b90565b61042a6106153660046151d1565b611ce4565b61065061062836600461529f565b600660205260009081526040902060048101546005909101546001600160a01b039091169082565b6040516104349291906153a0565b61042a61066c3660046151d1565b60096020526000908152604090205481565b61045061068c3660046151d1565b611ea7565b6104b561069f36600461529f565b611ef7565b61042a601f5481565b61042a600a5481565b601654610481906001600160a01b031681565b610450611fb0565b61042a600e5481565b61042a6106e83660046151d1565b611fc4565b6104506106fb3660046151d1565b611fe5565b610450612332565b6001546001600160a01b0316610481565b61042a60215481565b61073561073036600461529f565b61241f565b604051610434969594939291906153b9565b6104506107553660046151d1565b612876565b61042a60225481565b6104506107713660046151d1565b612883565b61042a61078436600461543b565b6129da565b61042a61079736600461529f565b6129ff565b61042a6107aa3660046151d1565b60056020526000908152604090205481565b6104b56107ca36600461529f565b612cd2565b601554610481906001600160a01b031681565b61042a6107f036600461529f565b612d44565b6104506108033660046154ad565b612e9d565b6104506108163660046151d1565b61349d565b601754610481906001600160a01b031681565b61045061083c3660046151d1565b6137a3565b6104b561084f36600461529f565b6137f1565b601254610481906001600160a01b031681565b6104506108753660046151d1565b613861565b61042a6108883660046151d1565b613949565b61045061089b3660046151d1565b613959565b6104506108ae36600461555e565b613b52565b600454610481906001600160a01b031681565b61042a6142f1565b6104506108dc3660046151d1565b6143af565b61042a6108ef36600461529f565b60116020526000908152604090205481565b61091461090f36600461529f565b614616565b6040516104349190615580565b61045061092f36600461529f565b614797565b6104506109423660046151d1565b614810565b61095a6109553660046151d1565b614a84565b60405161043494939291906155b1565b6104506109783660046151d1565b614b55565b6104b561098b36600461529f565b614ca4565b601a81600581106109a057600080fd5b0154905081565b6109af614d67565b6109bb600c83836150f2565b505050565b6109c8614d67565b602092909255602155602255565b6001600160a01b03811660009081526006602081905260408220606092910190805b8254811015610a5657828181548110610a1357610a1361564b565b906000526020600020906004020160030160019054906101000a900460ff16610a4457610a41600183615677565b91505b80610a4e8161568f565b9150506109f8565b506000816001600160401b03811115610a7157610a71615467565b604051908082528060200260200182016040528015610a9a578160200160208202803683370190505b5090506000805b8454811015610b4057848181548110610abc57610abc61564b565b906000526020600020906004020160030160019054906101000a900460ff16610b2e57848181548110610af157610af161564b565b906000526020600020906004020160000154838381518110610b1557610b1561564b565b602090810291909101015281610b2a8161568f565b9250505b80610b388161568f565b915050610aa1565b509095945050505050565b6001600160a01b0380821660009081526006602090815260408083206004805483516305d0ff3960e31b81529351959692958795919093169385938593632e87f9c89383820193909291908290030181865afa158015610baf573d6000803e3d6000fd5b505050506040513d601f19601f82011682018060405250810190610bd391906156aa565b905060005b8454811015610ca4576000826001600160a01b03166368ba0bcf878481548110610c0457610c0461564b565b90600052602060002001546040518263ffffffff1660e01b8152600401610c2d91815260200190565b6040805180830381865afa158015610c49573d6000803e3d6000fd5b505050506040513d601f19601f82011682018060405250810190610c6d91906156dd565b805160ff16600090815260086020526040902054909150610c8e9086615677565b9450508080610c9c9061568f565b915050610bd8565b509195945050505050565b600080610cbb336129ff565b9050600062015180905060006003600b548484600e54610cdb9190615737565b610ce59190615737565b610cef919061576c565b610cf9919061576c565b949350505050565b336000908152600660209081526040808320600480548351639708444560e01b8152935192956001600160a01b03909116949093859363970844459382810193928290030181865afa158015610d5b573d6000803e3d6000fd5b505050506040513d601f19601f82011682018060405250810190610d7f91906156aa565b6004808501546040516323b872dd60e01b81529293506001600160a01b03808516936323b872dd93610db793309316918a9101615780565b600060405180830381600087803b158015610dd157600080fd5b505af1158015610de5573d6000803e3d6000fd5b50505060068401905060005b8154811015610f365785828281548110610e0d57610e0d61564b565b9060005260206000209060040201600001541415610f245781548290610e35906001906157a4565b81548110610e4557610e4561564b565b9060005260206000209060040201828281548110610e6557610e6561564b565b600091825260209091208254600490920201908155600180830154908201805460ff92831660ff1991821617909155600280850154908401556003938401805494909301805494831691851682178155925461ffff19909416176101009384900490911615159092029190911790558154829080610ee557610ee56157bb565b60008281526020812060046000199093019283020181815560018101805460ff191690556002810191909155600301805461ffff191690559055610f36565b80610f2e8161568f565b915050610df1565b50600085815260056020526040812054600b805491929091610f599084906157a4565b90915550610f6790506142f1565b33600081815260236020526040908190209290925590517f30a1b13a317384a5ee19f32abf42ec26cc325ac7d9c0c3dcb479dce00322309591610fab9188906153a0565b60405180910390a15050505050565b610fc2614d67565b6109bb600d83836150f2565b610fd6614d67565b600e55565b6001600160a01b03811660009081526006602081905260408220018054606092906001600160401b0381111561101357611013615467565b60405190808252806020026020018201604052801561103c578160200160208202803683370190505b50905060005b825481101561109e5782818154811061105d5761105d61564b565b9060005260206000209060040201600001548282815181106110815761108161564b565b6020908102919091010152806110968161568f565b915050611042565b509392505050565b6110ae614d67565b6016546017546040516370a0823160e01b81523060048201526001600160a01b039283169290911690819063095ea7b390849083906370a0823190602401602060405180830381865afa158015611109573d6000803e3d6000fd5b505050506040513d601f19601f8201168201806040525081019061112d91906157d1565b6040518363ffffffff1660e01b815260040161114a9291906153a0565b6020604051808303816000875af1158015611169573d6000803e3d6000fd5b505050506040513d601f19601f8201168201806040525081019061118d91906157ea565b506003546040516370a0823160e01b81523060048201526001600160a01b038085169263e2bbb1589290918516906370a0823190602401602060405180830381865afa1580156111e1573d6000803e3d6000fd5b505050506040513d601f19601f8201168201806040525081019061120591906157d1565b6040516001600160e01b031960e085901b16815260048101929092526024820152604401600060405180830381600087803b15801561124357600080fd5b505af1158015611257573d6000803e3d6000fd5b505050505050565b6001600160a01b0381166000908152600660205260408120606091600190910190805b82548110156112e05782818154811061129d5761129d61564b565b906000526020600020906004020160030160019054906101000a900460ff166112ce576112cb600183615677565b91505b806112d88161568f565b915050611282565b506000816001600160401b038111156112fb576112fb615467565b604051908082528060200260200182016040528015611324578160200160208202803683370190505b5090506000805b8454811015610b40578481815481106113465761134661564b565b906000526020600020906004020160030160019054906101000a900460ff166113b85784818154811061137b5761137b61564b565b90600052602060002090600402016000015483838151811061139f5761139f61564b565b6020908102919091010152816113b48161568f565b9250505b806113c28161568f565b91505061132b565b336000818152600660205260409081902060135491516323b872dd60e01b815290926001600160a01b039092169182916323b872dd916114109130908890600401615780565b600060405180830381600087803b15801561142a57600080fd5b505af115801561143e573d6000803e3d6000fd5b5050506003909201805460018101825560009182526020808320909101949094553381526011909352505060409020600f9055565b3360008181526006602052604090819020601454915163095ea7b360e01b815290926001600160a01b0390921691829163095ea7b3916114b79187906004016153a0565b6020604051808303816000875af11580156114d6573d6000803e3d6000fd5b505050506040513d601f19601f820116820180604052508101906114fa91906157ea565b506004828101546040516323b872dd60e01b81526001600160a01b03848116936323b872dd9361153293309390911691899101615780565b6020604051808303816000875af1158015611551573d6000803e3d6000fd5b505050506040513d601f19601f8201168201806040525081019061157591906157ea565b50505050565b6001600160a01b0387166115d65760405162461bcd60e51b815260206004820152601c60248201527f496e697469616c697a696e67206279207a65726f20616464726573730000000060448201526064015b60405180910390fd5b600f5460ff161561161f5760405162461bcd60e51b8152602060048201526013602482015272185b1c9958591e481a5b9a5d1a585b1a5e9959606a1b60448201526064016115cd565b600f8054600160ff19909116179055600480546001600160a01b03199081166001600160a01b038a811691909117909255601280548216898416179055601380548216888416179055601480548216878416179055601580548216868416179055601680548216858416179055601780549091169183169190911790556116a533614dc1565b630107ac00600a81815560287f6d5257204ebe7d88fd91ae87941cb2dd9d8062b64ae5a2bd2d28ec40b9fbf6df5560507fb39221ace053465ec3453ce2b36430bd138b997ecea25c1043da0c366812b82881905560787fb7c774451310d1be4108bc180d1b52823cb0ee0274a6c0081bcaf94f115fb96d5560c87f3be6fd20d5acfde5b873b48692cd31f4d3c7e8ee8a813af4696af8859e5ca6c6556101407fb805995a7ec585a251200611a61d179cfd7fb105e1ab17dc415a7336783786f75560027f5eff886ea0ce6ca488a3d6e336d6c0f75f46d19b42c06ce5ee98e42c96d256c781905560047fad67d757c34507f157cacfa2e3153e9f260a2244f30428821be7be64587ac55f81905560067f6add646517a5b0f6793cd5891b7937d28a5b2981a5d88ebc7cd776088fea90418190557f625b35f5e76f098dd7c3a05b10e2e5e78a4a01228d60c3b143426cdf36d264559490945560107f9321edea6e3be4df59a344b401fab4f888b556fda1f954244cff9204bad624b855600960208181526107d07fec8156718a8372b1db44bb411437d0870f3e3790d4a08526d024ce1b0b668f6b55610bb87f92e85d02570a8092d09a6e3a57665bc3815a2699a4074001bf1ccabf660f5a368190556113887f6cde3cea4b3a3fb2488b2808bae7556f4a405e50f65e1794383bc026131b13c355611f407fc575c31fea594a6eb97c8e9d3f9caee4c16218c6ef37e923234c0fe9014a61e7556000939093526132c87f8dc18c4ccfd75f5c815b63770fa542fd953e8fef7e0e44bbdd4913470ce7e9cb5592556003939093556019939093556804e1003b28d9280000601f556032909255602191909155605a602255601a55610960601b55610708601c556104b0601d55610258601e5561193833614dc1565b50505050505050565b611949614d67565b6001600160a01b0381166119955760405162461bcd60e51b8152602060048201526013602482015272536574206279207a65726f206164647265737360681b60448201526064016115cd565b600480546001600160a01b0319166001600160a01b0392909216919091179055565b60006119c2336129ff565b601654600354604051631c57762b60e31b81526004810191909152600060248201529192506001600160a01b031690819063e2bbb15890604401600060405180830381600087803b158015611a1657600080fd5b505af1158015611a2a573d6000803e3d6000fd5b5050601554336000908152600660205260408120600501546001600160a01b0390921693509150611a5b90426157a4565b33600090815260066020526040902060050154909150611a7e9062015180615677565b4210611a8a5750620151805b33600090815260066020526040902060050154611aa5575060005b60006003600b548684600e54611abb9190615737565b611ac59190615737565b611acf919061576c565b611ad9919061576c565b33600090815260236020526040902054611af39190615677565b60405163a9059cbb60e01b81529091506001600160a01b0384169063a9059cbb90611b2490339085906004016153a0565b6020604051808303816000875af1158015611b43573d6000803e3d6000fd5b505050506040513d601f19601f82011682018060405250810190611b6791906157ea565b505033600090815260066020908152604080832042600590910155602390915281205550505050565b336000908152600660205260409081902060135460048083015493516323b872dd60e01b815292936001600160a01b039283169384936323b872dd93611bdd933093921691899101615780565b600060405180830381600087803b158015611bf757600080fd5b505af1158015611c0b573d6000803e3d6000fd5b50505060038301905060005b8154811015611cdd5784828281548110611c3357611c3361564b565b90600052602060002001541415611ccb5781548290611c54906001906157a4565b81548110611c6457611c6461564b565b9060005260206000200154828281548110611c8157611c8161564b565b906000526020600020018190555081805480611c9f57611c9f6157bb565b600082815260208082208301600019908101839055909201909255338252601190526040812055611cdd565b80611cd58161568f565b915050611c17565b5050505050565b3360008181526006602052604080822060125491516323b872dd60e01b8152929390926001600160a01b039092169182916323b872dd91611d2c919030908990600401615780565b600060405180830381600087803b158015611d4657600080fd5b505af1158015611d5a573d6000803e3d6000fd5b50505050600282018054600181018255600082815260208082209092018790556040805160a081018252828152808401839052808201839052606081018390526080810183905233835260109093529020611db691600561513d565b5060005b8154811015611e9d573360009081526010602052604090208254600c90849084908110611de957611de961564b565b906000526020600020015481548110611e0457611e0461564b565b906000526020600020015460058110611e1f57611e1f61564b565b0154600f14611e8b573360009081526010602052604090208254600f9190600c90859085908110611e5257611e5261564b565b906000526020600020015481548110611e6d57611e6d61564b565b906000526020600020015460058110611e8857611e8861564b565b01555b80611e958161568f565b915050611dba565b5054949350505050565b611eaf614d67565b60008111611ef25760405162461bcd60e51b815260206004820152601060248201526f4d757374206265206e6f6e2d7a65726f60801b60448201526064016115cd565b600a55565b6001600160a01b03811660009081526006602052604081208054606092906001600160401b03811115611f2c57611f2c615467565b604051908082528060200260200182016040528015611f55578160200160208202803683370190505b50905060005b825481101561109e57828181548110611f7657611f7661564b565b9060005260206000200154828281518110611f9357611f9361564b565b602090810291909101015280611fa88161568f565b915050611f5b565b611fb8614d67565b611fc26000614dc1565b565b600c8181548110611fd457600080fd5b600091825260209091200154905081565b60048054604080516305d0ff3960e31b815290516001600160a01b03909216926000928492632e87f9c892818101926020929091908290030181865afa158015612033573d6000803e3d6000fd5b505050506040513d601f19601f8201168201806040525081019061205791906156aa565b6040516368ba0bcf60e01b8152600481018590529091506000906001600160a01b038316906368ba0bcf906024016040805180830381865afa1580156120a1573d6000803e3d6000fd5b505050506040513d601f19601f820116820180604052508101906120c591906156dd565b33600081815260066020818152604080842092830154865160ff1685526007909252909220549394509290916120fa90612d44565b61210491906157a4565b10156121525760405162461bcd60e51b815260206004820152601e60248201527f436f77204c696d69743a20576974686472617720436f7773206669727374000060448201526064016115cd565b6001810154825160ff1660009081526008602052604090205461217433610b4b565b61217e91906157a4565b10156121cc5760405162461bcd60e51b815260206004820181905260248201527f42756c6c204c696d69743a2057697468647261772042756c6c7320666972737460448201526064016115cd565b6004818101546040516323b872dd60e01b81526001600160a01b03868116936323b872dd93612203933093909116918b9101615780565b600060405180830381600087803b15801561221d57600080fd5b505af1158015612231573d6000803e3d6000fd5b5083925060009150505b81548110156122f057868282815481106122575761225761564b565b906000526020600020015414156122de5781548290612278906001906157a4565b815481106122885761228861564b565b90600052602060002001548282815481106122a5576122a561564b565b9060005260206000200181905550818054806122c3576122c36157bb565b600190038181906000526020600020016000905590556122f0565b806122e88161568f565b91505061223b565b507f2ac6e3c1e4ef99df40ccf9f212268ced5a151cf274c706f1a035b9b10de10ab133876040516123229291906153a0565b60405180910390a1505050505050565b61233a614d67565b6015546040516370a0823160e01b81523060048201526001600160a01b039091169060009082906370a0823190602401602060405180830381865afa158015612387573d6000803e3d6000fd5b505050506040513d601f19601f820116820180604052508101906123ab91906157d1565b60405163a9059cbb60e01b81529091506001600160a01b0383169063a9059cbb906123dc90339085906004016153a0565b6020604051808303816000875af11580156123fb573d6000803e3d6000fd5b505050506040513d601f19601f820116820180604052508101906109bb91906157ea565b60608060608060608060008060005b60185481101561249857896001600160a01b0316601882815481106124555761245561564b565b600091825260209091206009600a9092020101546001600160a01b0316141561248657612483600183615677565b91505b806124908161568f565b91505061242e565b506000816001600160401b038111156124b3576124b3615467565b6040519080825280602002602001820160405280156124dc578160200160208202803683370190505b5090506000826001600160401b038111156124f9576124f9615467565b604051908082528060200260200182016040528015612522578160200160208202803683370190505b5090506000836001600160401b0381111561253f5761253f615467565b604051908082528060200260200182016040528015612568578160200160208202803683370190505b5090506000846001600160401b0381111561258557612585615467565b6040519080825280602002602001820160405280156125ae578160200160208202803683370190505b5090506000856001600160401b038111156125cb576125cb615467565b6040519080825280602002602001820160405280156125f4578160200160208202803683370190505b5090506000866001600160401b0381111561261157612611615467565b60405190808252806020026020018201604052801561263a578160200160208202803683370190505b50905060005b60185481101561285f578f6001600160a01b0316601882815481106126675761266761564b565b600091825260209091206009600a9092020101546001600160a01b0316141561284d576018818154811061269d5761269d61564b565b90600052602060002090600a020160000160000154878a815181106126c4576126c461564b565b602002602001018181525050601881815481106126e3576126e361564b565b600091825260209091206001600a909202010154865160ff9091169087908b9081106127115761271161564b565b602002602001018181525050601881815481106127305761273061564b565b600091825260209091206003600a909202010154855160ff9091169086908b90811061275e5761275e61564b565b6020026020010181815250506018818154811061277d5761277d61564b565b90600052602060002090600a020160040160000154848a815181106127a4576127a461564b565b602002602001018181525050601881815481106127c3576127c361564b565b600091825260209091206007600a909202010154835160ff9091169084908b9081106127f1576127f161564b565b602002602001018181525050601881815481106128105761281061564b565b90600052602060002090600a020160080154828a815181106128345761283461564b565b602090810291909101015261284a60018a615677565b98505b806128578161568f565b915050612640565b50949e939d50919b50995097509095509350505050565b61287e614d67565b601f55565b61288b614d67565b6016546017546040516370a0823160e01b81523060048201526001600160a01b039283169290911690819063095ea7b390849083906370a0823190602401602060405180830381865afa1580156128e6573d6000803e3d6000fd5b505050506040513d601f19601f8201168201806040525081019061290a91906157d1565b6040518363ffffffff1660e01b81526004016129279291906153a0565b6020604051808303816000875af1158015612946573d6000803e3d6000fd5b505050506040513d601f19601f8201168201806040525081019061296a91906157ea565b50600354604051630441a3e760e41b81526004810191909152602481018490526001600160a01b0383169063441a3e7090604401600060405180830381600087803b1580156129b857600080fd5b505af11580156129cc573d6000803e3d6000fd5b50506000600e555050505050565b601060205281600052604060002081600581106129f657600080fd5b01549150829050565b6001600160a01b0381166000908152600660208190526040822090810182612a2685614e13565b90506000612a3386614616565b90506000805b6006860154811015612c4b57600060096000878481548110612a5d57612a5d61564b565b906000526020600020906004020160010160009054906101000a900460ff1660ff1681526020019081526020016000205490506000868381548110612aa457612aa461564b565b90600052602060002090600402016002015442612ac191906157a4565b600a541115612b0957868381548110612adc57612adc61564b565b90600052602060002090600402016002015442612af991906157a4565b600a54612b0691906157a4565b90505b6001600160a01b038a1660009081526010602052604090208754889085908110612b3557612b3561564b565b600091825260209091206003600490920201015460ff1660058110612b5c57612b5c61564b565b0154612bc8578085888581548110612b7657612b7661564b565b600091825260209091206003600490920201015460ff1660058110612b9d57612b9d61564b565b6020020151612bac9084615737565b612bb790600a615737565b612bc19190615737565b9150612c2a565b8085888581548110612bdc57612bdc61564b565b600091825260209091206003600490920201015460ff1660058110612c0357612c0361564b565b6020020151612c129084615737565b612c1d90600f615737565b612c279190615737565b91505b612c348285615677565b935050508080612c439061568f565b915050612a39565b506001600160a01b038716600090815260116020526040902054612ca657600a546127108483600a612c7d9190615737565b612c879190615737565b612c91919061576c565b612c9b919061576c565b979650505050505050565b600a546001600160a01b038816600090815260116020526040902054612710908590612c7d9085615737565b6001600160a01b0381166000908152600660209081526040918290206003810180548451818502810185019095528085526060949293830182828015612d3757602002820191906000526020600020905b815481526020019060010190808311612d23575b5050505050915050919050565b6001600160a01b0380821660009081526006602090815260408083206004805483516305d0ff3960e31b81529351959692958795919093169385938593632e87f9c89383820193909291908290030181865afa158015612da8573d6000803e3d6000fd5b505050506040513d601f19601f82011682018060405250810190612dcc91906156aa565b905060005b8454811015610ca4576000826001600160a01b03166368ba0bcf878481548110612dfd57612dfd61564b565b90600052602060002001546040518263ffffffff1660e01b8152600401612e2691815260200190565b6040805180830381865afa158015612e42573d6000803e3d6000fd5b505050506040513d601f19601f82011682018060405250810190612e6691906156dd565b805160ff16600090815260076020526040902054909150612e879086615677565b9450508080612e959061568f565b915050612dd1565b6000612ea88361503a565b9050600060188281548110612ebf57612ebf61564b565b6000918252602082206009600a909202010154601880546001600160a01b0390921693509084908110612ef457612ef461564b565b90600052602060002090600a02016000019050600060188481548110612f1c57612f1c61564b565b90600052602060002090600a02016004019050336001600160a01b0316836001600160a01b031614612f7c5760405162461bcd60e51b81526020600482015260096024820152682737ba1037bbb732b960b91b60448201526064016115cd565b60188481548110612f8f57612f8f61564b565b90600052602060002090600a0201600801544211612fe55760405162461bcd60e51b81526020600482015260136024820152725761697420756e74696c205265636f7665727960681b60448201526064016115cd565b600454600382015486516001600160a01b039092169160009160ff16908290613028906064908b90849061301b5761301b61564b565b6020026020010151615095565b90506020548110806130415750600185015460ff166004145b1561305557600185015460ff16925061306d565b60018086015461306a9160ff9091169061580c565b92505b61308560648a60018151811061301b5761301b61564b565b905060215481101561309c57600386015460ff1691505b6130b460648a60028151811061301b5761301b61564b565b905060225481101561313157604051630ae3b8f760e31b81526001600160a01b03888116600483015260ff80861660248401528416604483015285169063571dc7b890606401600060405180830381600087803b15801561311457600080fd5b505af1158015613128573d6000803e3d6000fd5b5050505061319e565b604051639e16866760e01b81526001600160a01b03888116600483015260ff808616602484015284166044830152851690639e16866790606401600060405180830381600087803b15801561318557600080fd5b505af1158015613199573d6000803e3d6000fd5b505050505b3360009081526006602081905260408220908101916001909101905b82548110156132415788600001548382815481106131da576131da61564b565b906000526020600020906004020160000154141561322f5760008382815481106132065761320661564b565b906000526020600020906004020160030160016101000a81548160ff0219169083151502179055505b806132398161568f565b9150506131ba565b5060005b81548110156132cc5787600001548282815481106132655761326561564b565b90600052602060002090600402016000015414156132ba5760008282815481106132915761329161564b565b906000526020600020906004020160030160016101000a81548160ff0219169083151502179055505b806132c48161568f565b915050613245565b50601880546132dd906001906157a4565b815481106132ed576132ed61564b565b90600052602060002090600a020160188b8154811061330e5761330e61564b565b600091825260209091208254600a90920201908155600180830154908201805460ff1990811660ff9384161790915560028085015490840155600380850180549185018054808516938616938417825591546101009081900486161515810261ffff1993841690941793909317905560048087015490860155600580870154908601805485169186169190911790556006808701549086015560078087018054918701805495861692871692831781559054849004909516151590920292161717905560088083015490820155600991820154910180546001600160a01b0319166001600160a01b039092169190911790556018805480613411576134116157bb565b600082815260208120600a6000199093019283020181815560018101805460ff199081169091556002820183905560038201805461ffff1990811690915560048301849055600583018054909216909155600682018390556007820180549091169055600881019190915560090180546001600160a01b03191690559055505050505050505050505050565b336000908152600660208190526040909120908101546134be906001615677565b6134c733612d44565b10156135055760405162461bcd60e51b815260206004820152600d60248201526c4c696d6974206f6620436f777360981b60448201526064016115cd565b6004805460408051639708444560e01b815290516001600160a01b03909216926000928492639708444592818101926020929091908290030181865afa158015613553573d6000803e3d6000fd5b505050506040513d601f19601f8201168201806040525081019061357791906156aa565b6040516323b872dd60e01b81529091506001600160a01b038216906323b872dd906135aa90339030908990600401615780565b600060405180830381600087803b1580156135c457600080fd5b505af11580156135d8573d6000803e3d6000fd5b505050506135e46142f1565b336000908152602360205260408082209290925542600586015590516368ba0bcf60e01b8152600481018690526001600160a01b038316906368ba0bcf90602401606060405180830381865afa158015613642573d6000803e3d6000fd5b505050506040513d601f19601f820116820180604052508101906136669190615898565b905060006040518060a00160405280878152602001836000015160ff16815260200183604001518152602001836020015160ff16815260200160001515815250905060006136b3336129ff565b60068701805460018181018355600092835260208084208751600490940201928355860151908201805460ff92831660ff1990911617905560408601516002830155606086015160039092018054608088015115156101000261ffff1990911693909216929092171790559091508161372b336129ff565b61373591906157a4565b905080600b60008282546137499190615677565b909155505060008881526005602052604090819020829055517fdb748fa6506d8792c87332c8b83fb4b9d8e2820c01034ee2ae65cb656b636b8f906137919033908b906153a0565b60405180910390a15050505050505050565b336000908152600660205260409081902060145460048083015493516323b872dd60e01b815292936001600160a01b039283169384936323b872dd9361153293909116913091899101615780565b6001600160a01b0381166000908152600660209081526040918290206002810180548451818502810185019095528085526060949293830182828015612d375760200282019190600052602060002090815481526020019060010190808311612d23575050505050915050919050565b613869614d67565b6015546040516370a0823160e01b81523060048201526001600160a01b039091169060009082906370a0823190602401602060405180830381865afa1580156138b6573d6000803e3d6000fd5b505050506040513d601f19601f820116820180604052508101906138da91906157d1565b90508281101561391b5760405162461bcd60e51b815260206004820152600c60248201526b4f7665722062616c616e636560a01b60448201526064016115cd565b60405163a9059cbb60e01b81526001600160a01b0383169063a9059cbb9061153290339087906004016153a0565b600d8181548110611fd457600080fd5b336000908152600660205260409081902060125460048083015493516323b872dd60e01b815292936001600160a01b039283169384936323b872dd936139a6933093921691899101615780565b600060405180830381600087803b1580156139c057600080fd5b505af11580156139d4573d6000803e3d6000fd5b50505060028301905060005b8154811015613a9557848282815481106139fc576139fc61564b565b90600052602060002001541415613a835781548290613a1d906001906157a4565b81548110613a2d57613a2d61564b565b9060005260206000200154828281548110613a4a57613a4a61564b565b906000526020600020018190555081805480613a6857613a686157bb565b60019003818190600052602060002001600090559055613a95565b80613a8d8161568f565b9150506139e0565b5060006040518060a00160405280600081526020016000815260200160008152602001600081526020016000815250905060005b8254811015613b3657600f82600c858481548110613ae957613ae961564b565b906000526020600020015481548110613b0457613b0461564b565b906000526020600020015460058110613b1f57613b1f61564b565b602002015280613b2e8161568f565b915050613ac9565b5033600090815260106020526040902061125790826005615170565b336000908152600660208190526040822091908201906001830190808080805b8654811015613c365789878281548110613b8e57613b8e61564b565b906000526020600020906004020160000154148015613bdb5750868181548110613bba57613bba61564b565b906000526020600020906004020160030160019054906101000a900460ff16155b15613c24576001878281548110613bf457613bf461564b565b906000526020600020906004020160030160016101000a81548160ff021916908315150217905550600194508092505b80613c2e8161568f565b915050613b72565b5060005b8554811015613cfe5788868281548110613c5657613c5661564b565b906000526020600020906004020160000154148015613ca35750858181548110613c8257613c8261564b565b906000526020600020906004020160030160019054906101000a900460ff16155b15613cec576001868281548110613cbc57613cbc61564b565b906000526020600020906004020160030160016101000a81548160ff021916908315150217905550600193508091505b80613cf68161568f565b915050613c3a565b506000868381548110613d1357613d1361564b565b906000526020600020906004020190506000868381548110613d3757613d3761564b565b9060005260206000209060040201905085613d895760405162461bcd60e51b81526020600482015260126024820152713ab739ba30b5b2b21031b7bb903a37b5b2b760711b60448201526064016115cd565b84613dcc5760405162461bcd60e51b81526020600482015260136024820152723ab729ba30b5b2b210313ab636103a37b5b2b760691b60448201526064016115cd565b6000816002015442613dde91906157a4565b6001808401549085015491925060ff918216911614613e575760405162461bcd60e51b815260206004820152602f60248201527f4272656564696e6720697320696d706f737369626c65206265747765656e206460448201526e6966666572656e742072617269747960881b60648201526084016115cd565b8060195411613e9a5760405162461bcd60e51b815260206004820152600f60248201526e109d5b1b081a5cc81d1bdbc81bdb19608a1b60448201526064016115cd565b601554601f546040516323b872dd60e01b81526001600160a01b03909216916323b872dd91613ecf9133913091600401615780565b6020604051808303816000875af1158015613eee573d6000803e3d6000fd5b505050506040513d601f19601f82011682018060405250810190613f1291906157ea565b5060408051610120810182526000608080830182815260a080850184905260c0850184905260e0850184905261010085018490529084528451908101855282815260208082018490528186018490526060808301859052928201849052840152928201819052918101919091526040805160a080820183528654825260018088015460ff9081166020808601919091526002808b0154868801526003808c01548085166060808a019190915261010091829004861615156080808b0191909152988b5289519788018a528c548852958c0154851687850152918b0154978601979097529589015480831685850152959095041615159282019290925291830191909152339082015260195460009061402a84826157a4565b614038906305f5e100615737565b614042919061576c565b614050906305f5e1006157a4565b60018501549091506305f5e100908290601a9060ff16600581106140765761407661564b565b01546140829190615737565b61408c919061576c565b6001850154601a9060ff16600581106140a7576140a761564b565b01546140b39042615677565b6140bd9190615677565b604083810191825260188054600181018255600091909152845180517fb13d2d76d1f4b7be834882e410b3e3a8afaf69f83600ae24db354391d2378d2e600a909302928301556020808201517fb13d2d76d1f4b7be834882e410b3e3a8afaf69f83600ae24db354391d2378d2f8401805460ff1990811660ff93841617909155838601517fb13d2d76d1f4b7be834882e410b3e3a8afaf69f83600ae24db354391d2378d308601556060808501517fb13d2d76d1f4b7be834882e410b3e3a8afaf69f83600ae24db354391d2378d318701805460809788015192861661ffff1991821617610100931515840217909155858c015180517fb13d2d76d1f4b7be834882e410b3e3a8afaf69f83600ae24db354391d2378d328a0155958601517fb13d2d76d1f4b7be834882e410b3e3a8afaf69f83600ae24db354391d2378d338901805490951690861617909355968401517fb13d2d76d1f4b7be834882e410b3e3a8afaf69f83600ae24db354391d2378d34870155838101517fb13d2d76d1f4b7be834882e410b3e3a8afaf69f83600ae24db354391d2378d358701805495909601519316939091169290921790151590940293909317905591517fb13d2d76d1f4b7be834882e410b3e3a8afaf69f83600ae24db354391d2378d36830155909201517fb13d2d76d1f4b7be834882e410b3e3a8afaf69f83600ae24db354391d2378d3790920180546001600160a01b0319166001600160a01b039093169290921790915550505050505050505050505050565b6000806142fd336129ff565b33600090815260066020526040812060050154919250906143219062015180615677565b4210614331575062015180614351565b3360009081526006602052604090206005015461434e90426157a4565b90505b600b546143615760009250505090565b60006003600b548484600e546143779190615737565b6143819190615737565b61438b919061576c565b614395919061576c565b33600090815260236020526040902054610cf99190615677565b336000908152600660209081526040808320600480548351632a4d0d5960e11b8152935192956001600160a01b03909116949093859363549a1ab29382810193928290030181865afa158015614409573d6000803e3d6000fd5b505050506040513d601f19601f8201168201806040525081019061442d91906156aa565b6004808501546040516323b872dd60e01b81529293506001600160a01b03808516936323b872dd9361446593309316918a9101615780565b600060405180830381600087803b15801561447f57600080fd5b505af1158015614493573d6000803e3d6000fd5b50505060018401905060005b81548110156145e457858282815481106144bb576144bb61564b565b90600052602060002090600402016000015414156145d257815482906144e3906001906157a4565b815481106144f3576144f361564b565b90600052602060002090600402018282815481106145135761451361564b565b600091825260209091208254600490920201908155600180830154908201805460ff92831660ff1991821617909155600280850154908401556003938401805494909301805494831691851682178155925461ffff19909416176101009384900490911615159092029190911790558154829080614593576145936157bb565b60008281526020812060046000199093019283020181815560018101805460ff191690556002810191909155600301805461ffff1916905590556145e4565b806145dc8161568f565b91505061449f565b507f17c05b5065f7ef088f8d90fa37ba3895610a8d18defb423c168fe0bebf0bc2783386604051610fab9291906153a0565b61461e61519e565b6001600160a01b038083166000908152600660209081526040808320815160a081018352600a8082528185018190528184018190526060820181905260808201526004805484516305d0ff3960e31b815294519397929692169491938593632e87f9c8938284019390928290030181865afa1580156146a1573d6000803e3d6000fd5b505050506040513d601f19601f820116820180604052508101906146c591906156aa565b905060005b8454811015610ca4576000826001600160a01b03166368ba0bcf8760000184815481106146f9576146f961564b565b90600052602060002001546040518263ffffffff1660e01b815260040161472291815260200190565b6040805180830381865afa15801561473e573d6000803e3d6000fd5b505050506040513d601f19601f8201168201806040525081019061476291906156dd565b9050600f85826020015160ff166005811061477f5761477f61564b565b6020020152508061478f8161568f565b9150506146ca565b61479f614d67565b6001600160a01b0381166148045760405162461bcd60e51b815260206004820152602660248201527f4f776e61626c653a206e6577206f776e657220697320746865207a65726f206160448201526564647265737360d01b60648201526084016115cd565b61480d81614dc1565b50565b33600090815260066020526040902060018082015461482e91615677565b61483733610b4b565b10156148765760405162461bcd60e51b815260206004820152600e60248201526d4c696d6974206f662042756c6c7360901b60448201526064016115cd565b6004805460408051632a4d0d5960e11b815290516001600160a01b0390921692600092849263549a1ab292818101926020929091908290030181865afa1580156148c4573d6000803e3d6000fd5b505050506040513d601f19601f820116820180604052508101906148e891906156aa565b6040516323b872dd60e01b81529091506001600160a01b038216906323b872dd9061491b90339030908990600401615780565b600060405180830381600087803b15801561493557600080fd5b505af1158015614949573d6000803e3d6000fd5b50506040516368ba0bcf60e01b815260048101879052600092506001600160a01b03841691506368ba0bcf90602401606060405180830381865afa158015614995573d6000803e3d6000fd5b505050506040513d601f19601f820116820180604052508101906149b99190615898565b6040805160a081018252878152825160ff9081166020808401918252848601518486019081528187015184166060860190815260006080870181815260018e8101805480830182559084529590922088516004909602019485559451908401805491871660ff19909216919091179055905160028301555160039091018054925115156101000261ffff1990931691909316171790559051919250907f9397adb80f5c2f1c37158916f5beb10ffcb153bed4eaf738e31245cc97fafb589061232290339089906153a0565b60188181548110614a9457600080fd5b60009182526020918290206040805160a08082018352600a90940290920180548352600181015460ff90811684870152600282015484840152600382015480821660608087019190915261010091829004831615156080808801919091528551978801865260048501548852600585015484169888019890985260068401549487019490945260078301548083169487019490945290920490911615159383019390935260088301546009909301549093509091906001600160a01b031684565b60048054604080516305d0ff3960e31b815290516001600160a01b03909216926000928492632e87f9c892818101926020929091908290030181865afa158015614ba3573d6000803e3d6000fd5b505050506040513d601f19601f82011682018060405250810190614bc791906156aa565b336000818152600660209081526040808320805460018101825581855292909320909101879055600480830180546001600160a01b0319168517905590516323b872dd60e01b815293945090926001600160a01b038516926323b872dd92614c339230918a9101615780565b600060405180830381600087803b158015614c4d57600080fd5b505af1158015614c61573d6000803e3d6000fd5b505050507f908bf600f2d727dfbe4228f96a4e69e34c248d575fe6aff2fca48b3beb2b12203385604051614c969291906153a0565b60405180910390a150505050565b6001600160a01b03811660009081526006602052604081206001018054606092906001600160401b03811115614cdc57614cdc615467565b604051908082528060200260200182016040528015614d05578160200160208202803683370190505b50905060005b825481101561109e57828181548110614d2657614d2661564b565b906000526020600020906004020160000154828281518110614d4a57614d4a61564b565b602090810291909101015280614d5f8161568f565b915050614d0b565b6001546001600160a01b03163314611fc25760405162461bcd60e51b815260206004820181905260248201527f4f776e61626c653a2063616c6c6572206973206e6f7420746865206f776e657260448201526064016115cd565b600180546001600160a01b038381166001600160a01b0319831681179093556040519116919082907f8be0079c531659141344cd1fd0a4f28419497f9722a3daafe3b4186f6b6457e090600090a35050565b6014546040516370a0823160e01b81526001600160a01b0383811660048301526000921690829082906370a0823190602401602060405180830381865afa158015614e62573d6000803e3d6000fd5b505050506040513d601f19601f82011682018060405250810190614e8691906157d1565b9050600254600a614e979190615998565b614ea290600a615737565b811015614eb35750600a9392505050565b600254614ec190600a615998565b614ecc906014615737565b811015614edd5750600b9392505050565b600254614eeb90600a615998565b614ef690601e615737565b811015614f075750600c9392505050565b600254614f1590600a615998565b614f20906032615737565b811015614f315750600d9392505050565b600254614f3f90600a615998565b614f4a906050615737565b811015614f5b5750600e9392505050565b600254614f6990600a615998565b614f74906082615737565b811015614f855750600f9392505050565b600254614f9390600a615998565b614f9e9060d2615737565b811015614faf575060109392505050565b600254614fbd90600a615998565b614fc990610154615737565b811015614fda575060119392505050565b600254614fe890600a615998565b614ff490610226615737565b811015615005575060129392505050565b60025461501390600a615998565b61501f9061037a615737565b811015615030575060139392505050565b5060149392505050565b6000805b60185481101561508f57826018828154811061505c5761505c61564b565b90600052602060002090600a020160040160000154141561507d5792915050565b806150878161568f565b91505061503e565b92915050565b604080514260208201526bffffffffffffffffffffffff193360601b16918101919091526054810182905260009083906074016040516020818303038152906040528051906020012060001c6150eb91906159a4565b9392505050565b82805482825590600052602060002090810192821561512d579160200282015b8281111561512d578235825591602001919060010190615112565b506151399291506151bc565b5090565b826005810192821561512d579160200282015b8281111561512d578251829060ff16905591602001919060010190615150565b826005810192821561512d579160200282015b8281111561512d578251825591602001919060010190615183565b6040518060a001604052806005906020820280368337509192915050565b5b8082111561513957600081556001016151bd565b6000602082840312156151e357600080fd5b5035919050565b600080602083850312156151fd57600080fd5b82356001600160401b038082111561521457600080fd5b818501915085601f83011261522857600080fd5b81358181111561523757600080fd5b8660208260051b850101111561524c57600080fd5b60209290920196919550909350505050565b60008060006060848603121561527357600080fd5b505081359360208301359350604090920135919050565b6001600160a01b038116811461480d57600080fd5b6000602082840312156152b157600080fd5b81356150eb8161528a565b600081518084526020808501945080840160005b838110156152ec578151875295820195908201906001016152d0565b509495945050505050565b6020815260006150eb60208301846152bc565b600080600080600080600060e0888a03121561532557600080fd5b87356153308161528a565b965060208801356153408161528a565b955060408801356153508161528a565b945060608801356153608161528a565b935060808801356153708161528a565b925060a08801356153808161528a565b915060c08801356153908161528a565b8091505092959891949750929550565b6001600160a01b03929092168252602082015260400190565b60c0815260006153cc60c08301896152bc565b82810360208401526153de81896152bc565b905082810360408401526153f281886152bc565b9050828103606084015261540681876152bc565b9050828103608084015261541a81866152bc565b905082810360a084015261542e81856152bc565b9998505050505050505050565b6000806040838503121561544e57600080fd5b82356154598161528a565b946020939093013593505050565b634e487b7160e01b600052604160045260246000fd5b604051601f8201601f191681016001600160401b03811182821017156154a5576154a5615467565b604052919050565b600080604083850312156154c057600080fd5b823591506020808401356001600160401b03808211156154df57600080fd5b818601915086601f8301126154f357600080fd5b81358181111561550557615505615467565b8060051b915061551684830161547d565b818152918301840191848101908984111561553057600080fd5b938501935b8385101561554e57843582529385019390850190615535565b8096505050505050509250929050565b6000806040838503121561557157600080fd5b50508035926020909101359150565b60a08101818360005b60058110156155a8578151835260209283019290910190600101615589565b50505092915050565b61018081016155f382878051825260ff60208201511660208301526040810151604083015260ff60608201511660608301526080810151151560808301525050565b845160a0830152602085015160ff90811660c0840152604086015160e084015260608601511661010083015260809094015115156101208201526101408101929092526001600160a01b031661016090910152919050565b634e487b7160e01b600052603260045260246000fd5b634e487b7160e01b600052601160045260246000fd5b6000821982111561568a5761568a615661565b500190565b60006000198214156156a3576156a3615661565b5060010190565b6000602082840312156156bc57600080fd5b81516150eb8161528a565b805160ff811681146156d857600080fd5b919050565b6000604082840312156156ef57600080fd5b604051604081018181106001600160401b038211171561571157615711615467565b60405261571d836156c7565b815261572b602084016156c7565b60208201529392505050565b600081600019048311821515161561575157615751615661565b500290565b634e487b7160e01b600052601260045260246000fd5b60008261577b5761577b615756565b500490565b6001600160a01b039384168152919092166020820152604081019190915260600190565b6000828210156157b6576157b6615661565b500390565b634e487b7160e01b600052603160045260246000fd5b6000602082840312156157e357600080fd5b5051919050565b6000602082840312156157fc57600080fd5b815180151581146150eb57600080fd5b600060ff821660ff84168060ff0382111561582957615829615661565b019392505050565b60006060828403121561584357600080fd5b604051606081018181106001600160401b038211171561586557615865615467565b604052905080615874836156c7565b8152615882602084016156c7565b6020820152604083015160408201525092915050565b6000606082840312156158aa57600080fd5b6150eb8383615831565b600181815b808511156158ef5781600019048211156158d5576158d5615661565b808516156158e257918102915b93841c93908002906158b9565b509250929050565b6000826159065750600161508f565b816159135750600061508f565b816001811461592957600281146159335761594f565b600191505061508f565b60ff84111561594457615944615661565b50506001821b61508f565b5060208310610133831016604e8410600b8410161715615972575081810a61508f565b61597c83836158b4565b806000190482111561599057615990615661565b029392505050565b60006150eb83836158f7565b6000826159b3576159b3615756565b50069056fea2646970667358221220bf8f11cd1f1324860a83e00220e98960a407a28dfa451919d5c6c1712342dce764736f6c634300080c0033",
  "immutableReferences": {},
  "source": "// SPDX-License-Identifier: MIT\npragma solidity >=0.4.22 <0.9.0;\n\nimport \"@openzeppelin/contracts/security/ReentrancyGuard.sol\";\nimport \"@openzeppelin/contracts/access/Ownable.sol\";\nimport \"@openzeppelin/contracts/token/ERC20/IERC20.sol\";\nimport \"@openzeppelin/contracts/token/ERC721/IERC721.sol\";\nimport \"./interfaces/INftMinter.sol\";\nimport \"./interfaces/ILandNFT.sol\";\nimport \"./interfaces/ICowNFT.sol\";\nimport \"./interfaces/IBullNFT.sol\";\nimport \"./interfaces/IMasterChef.sol\";\nimport \"./interfaces/IHappyCow.sol\";\n\ncontract Farming is ReentrancyGuard, Ownable {\n    uint COW_TOKEN_DECIMALS = 9;\n    // uint MASTERCHEF_PID = 5;\n    uint MASTERCHEF_PID = 6;\n    \n    // address HAPPY_COW_ADDRESS = 0xD220d3E1bab3A30f170E81b3587fa382BB4A6263; // Deployed on testnet, For TEST\n    // address AIR_NFT_ADDRESS = 0x74A9Bb4F6b05236507614cA70d32f65436064786; // Deployed on testnet, For TEST\n    // address COW_TOKEN_ADDRESS = 0x562d2BFc80FD1afF3bF5e4Bd8Fa5312E65305C14; // Deployed on testnet, For TEST\n    // address MILK_TOKEN_ADDRESS = 0x3eFA66aB2b1690e9BE8e82784EDfF2cF2dc150e0; // Deployed on testnet, For TEST\n    // address MASTERCHEF_ADDRESS = 0xB11C302675FD4a0bD725ecB7e0c3b9F6a3caEa8b; // Deployed on testnet, For TEST\n    // address SECRET_LP_ADDRESS = 0xC25e8b265Ee64A0CDE09347dC8d3e40419E8311f; // Deployed on testnet, For TEST\n    // address SECRET_LP_ADDRESS = 0xFED350e5e65FDe282d9164297316B781BA1bEa94; // Deployed on testnet, For TEST\n    \n    address public minterAddr; // NftMinter contract address\n\n    // Structure of FarmingVault\n    struct CowBullInfo {\n        uint256 tokenId;\n        uint8 rarity;\n        uint256 birth;\n        uint8 breed;\n        bool isBreeding;\n    }\n\n\n    struct FarmingVault {\n        uint[] landTokenIds; // Array of Lands to be staked\n        CowBullInfo[] bulls; // Array of Cows to be staked\n        uint256[] happyCowIds; // Array of Happy Cows to be staked\n        uint256[] airIds; // Array of Genesis to be staked\n        address owner; // Owner of the farm. Can be used as primary key of the farm.\n        uint lastReward; // block time of last reward\n        CowBullInfo[] cows;\n        uint256[] cowTokens; //Cow Tokens to be deposited\n    }\n    // FarmingVault[] public farms; // Array of farms\n    mapping(uint256 => uint256 ) public initMilkPower;\n    mapping(address => FarmingVault) public userFarms;\n    mapping(uint256 => uint256) public cowLimitPerLand;\n    mapping(uint256 => uint256) public bullLimitPerLand;\n\n    mapping(uint256 => uint256) public baseMilkPower; // Base MilkPower of Cows by rarity\n    \n    uint public maxAge; // Maximum age of Cow and Bull. Used to change the aging speed.\n    uint256 public totalMilkPower;\n    uint[] public happyCowNftBreeds;\n    uint[] public genesisTokenIds;\n    uint256 public milkPerBlock;\n    bool private initialized;\n    mapping(address => uint256[5]) public happyCowBonus;\n    mapping(address => uint256) public airNftBonus;\n\n    address public HAPPY_COW_ADDRESS;\n    address public AIR_NFT_ADDRESS;\n    address public COW_TOKEN_ADDRESS;\n    address public MILK_TOKEN_ADDRESS;\n    address public MASTERCHEF_ADDRESS;\n    address public SECRET_LP_ADDRESS;\n    // address SECRET_LP_ADDRESS = 0xC25e8b265Ee64A0CDE09347dC8d3e40419E8311f;\n\n    struct BreedingVault {\n        CowBullInfo cowTokenInfo; // Staked Cow tokenId\n        CowBullInfo bullTokenInfo; // Staked Bull tokenId\n        uint unlockTime; // Breeding time\n        address owner; // Owner of the couple\n    }\n\n    BreedingVault[] public breedingVaults; // Array of BreedingVault\n\n    uint public maxRecoveryTime;\n    uint[5] public baseRecoveryTime;\n    uint public breedingPrice;\n    uint256 public rarityProbability;\n    uint256 public breedProbability;\n    uint256 public cowProbability;\n    mapping(address => uint256) private reserveAmount;\n\n    event DepositLand(address _owner, uint _tokenId);\n    event WithdrawLand(address _owner, uint _tokenId);\n    event DepositCow(address _owner, uint _tokenId);\n    event WithdrawCow(address _owner, uint _tokenId);\n    event DepositBull(address _owner, uint _tokenId);\n    event WithdrawBull(address _owner, uint _tokenId);\n\n    // Initialize the contract. This is for Proxy functionality.  Can be called only by the owner.\n    function initialize(address _minterAddr, address _happyCowAddress, address _airNftAddress,address _cowTokenAddress, address _milkTokenAddress, address _masterChefAddress, address _secretLpAddress) public {\n\n        require(_minterAddr != address(0), \"Initializing by zero address\");\n        require(!initialized, \"already initialized\");\n        initialized = true;\n        minterAddr = _minterAddr;\n\n        HAPPY_COW_ADDRESS = _happyCowAddress;\n        AIR_NFT_ADDRESS = _airNftAddress;\n        COW_TOKEN_ADDRESS = _cowTokenAddress;\n        MILK_TOKEN_ADDRESS = _milkTokenAddress;\n        MASTERCHEF_ADDRESS = _masterChefAddress;\n        SECRET_LP_ADDRESS = _secretLpAddress;\n\n        _transferOwnership(msg.sender);\n\n        maxAge = 200 days;\n        cowLimitPerLand[0] = 40;\n        cowLimitPerLand[1] = 80;\n        cowLimitPerLand[2] = 120;\n        cowLimitPerLand[3] = 200;\n        cowLimitPerLand[4] = 320;\n\n        bullLimitPerLand[0] = 2;\n        bullLimitPerLand[1] = 4;\n        bullLimitPerLand[2] = 6;\n        bullLimitPerLand[3] = 10;\n        bullLimitPerLand[4] = 16;\n\n        baseMilkPower[0] = 2000;\n        baseMilkPower[1] = 3000;\n        baseMilkPower[2] = 5000;\n        baseMilkPower[3] = 8000;\n        baseMilkPower[4] = 13000;\n        \n        // HAPPY_COW_ADDRESS = 0xD220d3E1bab3A30f170E81b3587fa382BB4A6263; // Deployed on testnet, For TEST\n        // AIR_NFT_ADDRESS = 0x74A9Bb4F6b05236507614cA70d32f65436064786; // Deployed on testnet, For TEST\n        // COW_TOKEN_ADDRESS = 0x562d2BFc80FD1afF3bF5e4Bd8Fa5312E65305C14; // Deployed on testnet, For TEST\n        // MILK_TOKEN_ADDRESS = 0x3eFA66aB2b1690e9BE8e82784EDfF2cF2dc150e0; // Deployed on testnet, For TEST\n        // MASTERCHEF_ADDRESS = 0xB11C302675FD4a0bD725ecB7e0c3b9F6a3caEa8b; // Deployed on testnet, For TEST\n        // SECRET_LP_ADDRESS = 0xC25e8b265Ee64A0CDE09347dC8d3e40419E8311f; // Deployed on testnet, For TEST\n\n        COW_TOKEN_DECIMALS = 9;\n        MASTERCHEF_PID = 6;\n\n        maxRecoveryTime = 200 days;\n        breedingPrice = 90*10**18;\n        rarityProbability = 50;\n        breedProbability = 80;\n        cowProbability = 90;\n        baseRecoveryTime[0] = 50 minutes;\n        baseRecoveryTime[1] = 40 minutes;\n        baseRecoveryTime[2] = 30 minutes;\n        baseRecoveryTime[3] = 20 minutes;\n        baseRecoveryTime[4] = 10 minutes;\n        // baseRecoveryTime[0] = 180 hours;\n        // baseRecoveryTime[1] = 90 hours;\n        // baseRecoveryTime[2] = 48 hours;\n        // baseRecoveryTime[3] = 24 hours;\n        // baseRecoveryTime[4] = 12 hours;\n        _transferOwnership(msg.sender);\n    }\n\n    function depositLP() external onlyOwner{\n        IMasterChef masterChef = IMasterChef(address(MASTERCHEF_ADDRESS));\n        IERC20 secretLpTokenContract = IERC20(address(SECRET_LP_ADDRESS));\n        secretLpTokenContract.approve(MASTERCHEF_ADDRESS, secretLpTokenContract.balanceOf(address(this)));\n        masterChef.deposit(MASTERCHEF_PID, secretLpTokenContract.balanceOf(address(this)));\n    }\n    \n    function withdrawLp(uint256 _amount) external onlyOwner{\n        IMasterChef masterChef = IMasterChef(address(MASTERCHEF_ADDRESS));\n        IERC20 secretLpTokenContract = IERC20(address(SECRET_LP_ADDRESS));\n        secretLpTokenContract.approve(MASTERCHEF_ADDRESS, secretLpTokenContract.balanceOf(address(this)));\n        masterChef.withdraw(MASTERCHEF_PID, _amount);\n        milkPerBlock = 0;\n    }\n\n    // Deposit(Stake) Land NFT.\n    function setMilkPerBlock(uint256 newValue) external onlyOwner {\n        milkPerBlock = newValue;\n    }\n\n    function depositLand(uint _tokenId) public {\n        INftMinter minter = INftMinter(address(minterAddr));\n        ILandNFT landNfts = ILandNFT(address(minter.landNftColl()));\n        FarmingVault storage _userFarm = userFarms[msg.sender];\n        _userFarm.landTokenIds.push(_tokenId);\n        _userFarm.owner = msg.sender;\n        landNfts.transferFrom(msg.sender, address(this), _tokenId);\n\n        emit DepositLand(msg.sender, _tokenId);\n    }\n\n    // Withdraw(Unstake) Land NFT.\n    function withdrawLand(uint _tokenId) public {\n        INftMinter minter = INftMinter(address(minterAddr));\n        ILandNFT landNfts = ILandNFT(address(minter.landNftColl()));\n        ILandNFT.LandAttr memory attr = landNfts.attrOf(_tokenId);\n        FarmingVault storage _userFarm = userFarms[msg.sender];\n\n        require(_totalCowLimitOf(msg.sender) - cowLimitPerLand[attr.rarity] >= _userFarm.cows.length, \"Cow Limit: Withdraw Cows first\");\n        require(_totalBullLimitOf(msg.sender) - bullLimitPerLand[attr.rarity] >= _userFarm.bulls.length, \"Bull Limit: Withdraw Bulls first\");\n        landNfts.transferFrom(address(this), _userFarm.owner, _tokenId);\n        uint256[] storage userLands = _userFarm.landTokenIds;\n        for(uint idx = 0;idx < userLands.length;idx ++) {\n            if(userLands[idx] == _tokenId) {\n                userLands[idx] = userLands[userLands.length - 1];\n                userLands.pop();\n                break;\n            }\n        }\n\n        emit WithdrawLand(msg.sender, _tokenId);\n    }\n\n    // Deposit(Stake) a Cow NFT.\n    function depositCow(uint _tokenId) external {\n        FarmingVault storage _userFarm = userFarms[msg.sender];\n        require(_totalCowLimitOf(msg.sender) >= _userFarm.cows.length + 1, \"Limit of Cows\");\n\n        INftMinter minter = INftMinter(address(minterAddr));\n        ICowNFT cowNfts = ICowNFT(address(minter.cowNftColl()));\n        cowNfts.transferFrom(msg.sender, address(this), _tokenId);\n        reserveAmount[msg.sender] =  getUserRewardAmount();\n        _userFarm.lastReward = block.timestamp;\n        ICowNFT.CattleAttr memory cowAttr = cowNfts.attrOf(_tokenId);\n        // _userFarm.cowTokenIds.push(_tokenId);\n        CowBullInfo memory _cows = CowBullInfo(_tokenId, cowAttr.rarity, cowAttr.birth, cowAttr.breed, false);\n        uint256 _beforeMilkpower = milkPowerOf(msg.sender);\n        _userFarm.cows.push(_cows);\n        uint256 _milkpower = milkPowerOf(msg.sender) - _beforeMilkpower;\n        totalMilkPower += _milkpower;\n        initMilkPower[_tokenId] = _milkpower;\n        emit DepositCow(msg.sender, _tokenId);\n    }\n\n    // Withdraw(Unstake) a Cow NFT.\n    function withdrawCow(uint _tokenId) public {\n        FarmingVault storage _userFarm = userFarms[msg.sender];\n        INftMinter minter = INftMinter(address(minterAddr));\n        ICowNFT cowNfts = ICowNFT(address(minter.cowNftColl()));\n        cowNfts.transferFrom(address(this), _userFarm.owner, _tokenId);\n        CowBullInfo[] storage userCows = _userFarm.cows;\n        for(uint idx = 0;idx < userCows.length;idx ++) {\n            if(userCows[idx].tokenId == _tokenId) {\n                userCows[idx] = userCows[userCows.length - 1];\n                userCows.pop();\n                break;\n            }\n        }\n        totalMilkPower -= initMilkPower[_tokenId];\n        reserveAmount[msg.sender] = getUserRewardAmount();\n        emit WithdrawCow(msg.sender, _tokenId);\n    }\n\n    // Deposit (stake) Cow Tokens\n    function depositCowTokens(uint256 amount) public {\n        FarmingVault storage _userFarm = userFarms[msg.sender];\n        IERC20 cowTokenContract = IERC20(address(COW_TOKEN_ADDRESS));\n        cowTokenContract.transferFrom(_userFarm.owner, address(this), amount);\n    }\n\n    function withdrawCowTokens(uint256 _amount) public {\n        FarmingVault storage _userFarm = userFarms[msg.sender];\n        IERC20 cowTokenContract = IERC20(address(COW_TOKEN_ADDRESS));\n        cowTokenContract.approve(msg.sender, _amount);\n        cowTokenContract.transferFrom(address(this), _userFarm.owner, _amount);\n    }\n\n    // Deposit (Stake) Bull NFT.\n    function depositBull(uint _tokenId) public {\n        FarmingVault storage _userFarm = userFarms[msg.sender];\n\n        require(_totalBullLimitOf(msg.sender) >= _userFarm.bulls.length + 1, \"Limit of Bulls\");\n\n        INftMinter minter = INftMinter(address(minterAddr));\n        IBullNFT bullNfts = IBullNFT(address(minter.bullNftColl()));\n        bullNfts.transferFrom(msg.sender, address(this), _tokenId);\n        IBullNFT.CattleAttr memory bullAttr = bullNfts.attrOf(_tokenId);\n        // _userFarm.cowTokenIds.push(_tokenId);\n        CowBullInfo memory _bulls = CowBullInfo(_tokenId, bullAttr.rarity, bullAttr.birth, bullAttr.breed, false);\n        _userFarm.bulls.push(_bulls);\n\n        emit DepositBull(msg.sender, _tokenId);\n    }\n\n    // Withdraw (Unstake) a Bull NFT.\n    function withdrawBull(uint _tokenId) public {\n        FarmingVault storage _userFarm = userFarms[msg.sender];\n        INftMinter minter = INftMinter(address(minterAddr));\n        IBullNFT bullNfts = IBullNFT(address(minter.bullNftColl()));\n        bullNfts.transferFrom(address(this), _userFarm.owner, _tokenId);\n        CowBullInfo[] storage userBulls = _userFarm.bulls;\n        for(uint idx = 0;idx < userBulls.length;idx ++) {\n            if(userBulls[idx].tokenId == _tokenId) {\n                userBulls[idx] = userBulls[userBulls.length - 1];\n                userBulls.pop();\n                break;\n            }\n        }\n\n        emit WithdrawBull(msg.sender, _tokenId);\n    }\n\n    // for the happycow nft\n    function depositHappyCow(uint _tokenId) public returns (uint256) {\n        FarmingVault storage _userFarm = userFarms[msg.sender];\n        IHappyCow nfts = IHappyCow(HAPPY_COW_ADDRESS);\n\n        nfts.transferFrom(msg.sender, address(this), _tokenId);\n\n        _userFarm.happyCowIds.push(_tokenId);\n        \n        uint256[] storage happyCows = _userFarm.happyCowIds;\n\n        happyCowBonus[msg.sender] = [0,0,0,0,0];\n\n        for(uint idx = 0 ; idx < happyCows.length; idx ++) {\n            if(happyCowBonus[msg.sender][happyCowNftBreeds[happyCows[idx]]]  != 15) {\n                happyCowBonus[msg.sender][happyCowNftBreeds[happyCows[idx]]] = 15;\n            }\n        }\n\n        return happyCows.length;\n\n    }\n\n    function withdrawHappyCow(uint _tokenId) public {\n        FarmingVault storage _userFarm = userFarms[msg.sender];\n        IERC721 happycowNft = IERC721(HAPPY_COW_ADDRESS);\n        happycowNft.transferFrom(address(this), _userFarm.owner, _tokenId);\n        uint256[] storage userHappycows = _userFarm.happyCowIds;\n        for(uint idx = 0;idx < userHappycows.length;idx ++) {\n            if(userHappycows[idx] == _tokenId) {\n                userHappycows[idx] = userHappycows[userHappycows.length - 1];\n                userHappycows.pop();\n                break;\n            }\n        }\n        uint256[5] memory  _bonus = [uint256(0),0,0,0,0];\n        for(uint i = 0 ; i <userHappycows.length; i ++) {\n            _bonus[happyCowNftBreeds[userHappycows[i]]] = 15;\n        }\n        happyCowBonus[msg.sender] = _bonus;\n    }\n\n    // for the genesis nft\n    function depositAirNft(uint _tokenId) public {\n        FarmingVault storage _userFarm = userFarms[msg.sender];\n        IERC721 airNft = IERC721(AIR_NFT_ADDRESS);\n        airNft.transferFrom(msg.sender, address(this), _tokenId);\n       _userFarm.airIds.push(_tokenId);\n       airNftBonus[msg.sender] = 15;\n    }\n\n    function withdrawAirNft(uint _tokenId) public {\n        FarmingVault storage _userFarm = userFarms[msg.sender];\n        IERC721 airNft = IERC721(AIR_NFT_ADDRESS);\n        airNft.transferFrom(address(this), _userFarm.owner, _tokenId);\n        uint256[] storage userAirs = _userFarm.airIds;\n        for(uint idx = 0;idx < userAirs.length;idx ++) {\n            if(userAirs[idx] == _tokenId) {\n                userAirs[idx] = userAirs[userAirs.length - 1];\n                userAirs.pop();\n                airNftBonus[msg.sender] = 0;\n                break;\n            }\n        }\n    }\n\n\n\n    function harvest() external {\n\n        uint userMilkPower = milkPowerOf(msg.sender);\n        IMasterChef masterChef = IMasterChef(address(MASTERCHEF_ADDRESS));\n        masterChef.deposit(MASTERCHEF_PID, 0);\n        IERC20 milkTokenContract = IERC20(address(MILK_TOKEN_ADDRESS));\n\n        uint256 _rewardTime = block.timestamp - userFarms[msg.sender].lastReward;\n        if(block.timestamp >= userFarms[msg.sender].lastReward + 1 days) {\n            _rewardTime = 1 days;\n        }\n        if(userFarms[msg.sender].lastReward == 0) {\n            _rewardTime = 0;\n        }\n        \n        uint256 _reward =reserveAmount[msg.sender] + milkPerBlock * _rewardTime  * userMilkPower / totalMilkPower / 3;\n        milkTokenContract.transfer(msg.sender, _reward);\n        userFarms[msg.sender].lastReward = block.timestamp;\n        reserveAmount[msg.sender] = 0;\n    }\n\n    function getUserRewardAmount() public view returns (uint256 ) {\n        uint userMilkPower = milkPowerOf(msg.sender);\n\n        uint256 _rewardTime = 0;\n        if(block.timestamp >= userFarms[msg.sender].lastReward + 1 days) {\n            _rewardTime = 1 days;\n        } else {\n            _rewardTime = block.timestamp - userFarms[msg.sender].lastReward;\n        }\n        if(totalMilkPower == 0 ) {\n            return 0;\n        }\n        uint256 _reward = reserveAmount[msg.sender] + milkPerBlock * _rewardTime  * userMilkPower / totalMilkPower / 3;\n        return _reward;\n    }\n\n    function getUserDailyMilk() public view returns (uint256 ) {\n        uint userMilkPower = milkPowerOf(msg.sender);\n        uint256 _rewardTime = 1 days;\n        uint256 _reward = milkPerBlock * _rewardTime  * userMilkPower / totalMilkPower / 3;\n        return _reward;\n    }\n\n    function burnMilk(uint _amount) external onlyOwner {\n        IERC20 milkTokenContract = IERC20(address(MILK_TOKEN_ADDRESS));\n        uint totalAmount = milkTokenContract.balanceOf(address(this));\n        require(totalAmount >= _amount, \"Over balance\");\n        milkTokenContract.transfer(msg.sender, _amount);\n    }\n\n    // Calculate MilkPower of a farmer\n    function milkPowerOf(address _farmer) public view returns (uint) {\n        // Define Farming and Info about cows\n        FarmingVault storage _userFarm = userFarms[_farmer];\n        CowBullInfo[] storage userCows = _userFarm.cows;\n\n        // Fetch User Bonus Based on Qty of COW TOKEN\n        uint cowTokenHolderBonusMultiplier = _cowTokenHolderBonusOf(_farmer);\n\n        // Fetch User Bonus Based on Type of LAND\n        uint[5] memory landNftTypeBonus = _landNftTypeBonusOf(_farmer);\n\n        // Define Base Variable for Milk Power\n        uint farmerMilkPower = 0;\n\n        // Interating along common cows\n        for(uint cowIdx = 0; cowIdx < _userFarm.cows.length;cowIdx ++) {\n\n            // Milk Power based on Rarity\n            uint cowTotalMilkPower = baseMilkPower[userCows[cowIdx].rarity];\n            uint cowAgingMultiplier = 0;\n\n            // Milk Power affecred by Cow Age\n            if(maxAge > (block.timestamp - userCows[cowIdx].birth)){\n                cowAgingMultiplier = maxAge - (block.timestamp - userCows[cowIdx].birth);\n            }\n            // uint cowAgingMultiplier = maxAge - 3 days; // For TEST\n\n            // Milk Power based on Happy Cows Bonus (deposited on smart contract)\n            if(happyCowBonus[_farmer][userCows[cowIdx].breed] == 0) {\n                // Case 1: If this user has not a happy cow of the specified breed\n                cowTotalMilkPower = cowTotalMilkPower * landNftTypeBonus[userCows[cowIdx].breed] * 10 * cowAgingMultiplier;\n            } else {\n                // Case 2: If this user has a happy cow of the specified breed\n                cowTotalMilkPower = cowTotalMilkPower * landNftTypeBonus[userCows[cowIdx].breed] * 15 * cowAgingMultiplier;\n            }\n\n            // Add to farmerMilkPower the unitary cow milk power\n            farmerMilkPower += cowTotalMilkPower;\n        }\n\n        // Milk Power based on Genesis NFT Staked\n        if(airNftBonus[_farmer] == 0) {\n            // Case 1: User has no Genesis Staked\n            return farmerMilkPower * 10 * cowTokenHolderBonusMultiplier / 10000 / maxAge;\n        } else {\n            // Case 2: User has genesis staked\n            return farmerMilkPower * airNftBonus[_farmer] * cowTokenHolderBonusMultiplier / 10000 / maxAge;\n        }\n    }\n\n    function landTokenIdsOf(address _owner) public view returns (uint[] memory){\n        uint256[] storage userLands = userFarms[_owner].landTokenIds;\n        uint[] memory tids = new uint[](userLands.length);\n        for(uint iii = 0;iii < userLands.length;iii ++) {\n            tids[iii] = userLands[iii];\n        }\n        return tids;\n    }\n\n    function cowTokenIdsOf(address _owner) public view returns (uint[] memory){\n        CowBullInfo[] storage userCows = userFarms[_owner].cows;\n\n        uint[] memory tids = new uint[](userCows.length);\n        for(uint iii = 0;iii < userCows.length;iii ++) {\n            tids[iii] = userCows[iii].tokenId;\n        }\n        return tids;\n    }\n\n    function breedingCowTokenIdsOf(address _owner) public view returns (uint[] memory){\n        CowBullInfo[] storage userCows = userFarms[_owner].cows;\n\n        uint256 count = 0;\n        for(uint i = 0 ; i < userCows.length; i ++) {\n            if(!userCows[i].isBreeding) {\n                count +=1;\n            }\n        }\n        uint[] memory tids = new uint[](count);\n        uint k = 0 ;\n        for(uint iii = 0;iii < userCows.length;iii ++) {\n            if(!userCows[iii].isBreeding) {\n                tids[k] =  userCows[iii].tokenId;\n                k++;\n            }\n        }\n        return tids;\n    }\n\n    function bullTokenIdsOf(address _owner) public view returns (uint[] memory){\n        CowBullInfo[] storage userBulls = userFarms[_owner].bulls;\n        uint[] memory tids = new uint[](userBulls.length);\n        for(uint iii = 0;iii < userBulls.length;iii ++) {\n            tids[iii] = userBulls[iii].tokenId;\n        }\n        return tids;\n    }\n\n    function breedingBullTokenIdsOf(address _owner) public view returns (uint[] memory){\n        CowBullInfo[] storage userBulls = userFarms[_owner].bulls;\n        uint256 count = 0;\n        for(uint i = 0 ; i < userBulls.length; i ++) {\n            if(!userBulls[i].isBreeding) {\n                count +=1;\n            }\n        }\n        uint[] memory tids = new uint[](count);\n        uint k = 0 ;\n        for(uint iii = 0;iii < userBulls.length;iii ++) {\n            if(!userBulls[iii].isBreeding) {\n                tids[k] = userBulls[iii].tokenId;\n                k++;\n            }\n        }\n        return tids;\n    }\n\n    // Fetch Happy Cows Deposited by User\n    function happyCowTokenIdsOf(address _owner) public view returns (uint[] memory){\n        FarmingVault storage _userFarm = userFarms[_owner];\n        return _userFarm.happyCowIds;\n    }\n\n    // Fetch Genesis Tokens Deposited by User\n    function genesisTokenIdsOf(address _owner) public view returns (uint[] memory){\n        FarmingVault storage _userFarm = userFarms[_owner];\n        return _userFarm.airIds;\n    }\n\n    // Set NftMinter contract address. Can be called only by the owner.\n    function setMinterContract(address _newMinterAddr) public onlyOwner {\n        require(_newMinterAddr != address(0), \"Set by zero address\");\n        minterAddr = _newMinterAddr;\n    }\n\n    // Set MaxAge\n    function setMaxAge(uint _newMaxAge) public onlyOwner {\n        require(_newMaxAge > 0, \"Must be non-zero\");\n        maxAge = _newMaxAge;\n    }\n\n    // // Set Genesis NFTs' tokenIds.\n    function setGenesisTokenIds(uint256[] calldata _genesisTokenIds) public onlyOwner {\n        genesisTokenIds = _genesisTokenIds;\n    }\n\n    // // Set HappyCow NFTs' Breed attributes.\n    function setHappyCowNftBreeds(uint[] calldata _happyCowNftBreeds) public onlyOwner {\n        happyCowNftBreeds = _happyCowNftBreeds;\n    }\n\n    // Get total Cow limits of a farmer.\n    function _totalCowLimitOf(address _farmer) public view returns (uint) {\n        uint256[] storage userLands = userFarms[_farmer].landTokenIds;\n        uint totalCowLimit = 0;\n        INftMinter minter = INftMinter(address(minterAddr));\n        ILandNFT landNfts = ILandNFT(address(minter.landNftColl()));\n        for(uint idx = 0;idx < userLands.length;idx ++) {\n            ILandNFT.LandAttr memory attr = landNfts.attrOf(userLands[idx]);\n            totalCowLimit += cowLimitPerLand[attr.rarity];\n        }\n        return totalCowLimit;\n    }\n\n    // Get total Bull limits of a farmer.\n    function _totalBullLimitOf(address _farmer) public view returns (uint) {\n        uint256[] storage userLands = userFarms[_farmer].landTokenIds;\n        uint totalBullLimit = 0;\n        INftMinter minter = INftMinter(address(minterAddr));\n        ILandNFT landNfts = ILandNFT(address(minter.landNftColl()));\n        for(uint idx = 0;idx < userLands.length;idx ++) {\n            ILandNFT.LandAttr memory attr = landNfts.attrOf(userLands[idx]);\n            totalBullLimit += bullLimitPerLand[attr.rarity];\n        }\n        return totalBullLimit;\n    }\n\n    // Calculate $COW Holder Bonus. 11 - 20\n    function _cowTokenHolderBonusOf(address _farmer) private view returns(uint) {\n        IERC20 cowTokenContract = IERC20(address(COW_TOKEN_ADDRESS));\n        // Check Cow in user Wallet\n        // TO MODIFY\n        uint amount = cowTokenContract.balanceOf(_farmer);\n\n        if(amount < 10*10**COW_TOKEN_DECIMALS) {\n            return 10;\n        }\n        if(amount < 20*10**COW_TOKEN_DECIMALS) {\n            return 11;\n        }\n        if(amount < 30*10**COW_TOKEN_DECIMALS) {\n            return 12;\n        }\n        if(amount < 50*10**COW_TOKEN_DECIMALS) {\n            return 13;\n        }\n        if(amount < 80*10**COW_TOKEN_DECIMALS) {\n            return 14;\n        }\n        if(amount < 130*10**COW_TOKEN_DECIMALS) {\n            return 15;\n        }\n        if(amount < 210*10**COW_TOKEN_DECIMALS) {\n            return 16;\n        }\n        if(amount < 340*10**COW_TOKEN_DECIMALS) {\n            return 17;\n        }\n        if(amount < 550*10**COW_TOKEN_DECIMALS) {\n            return 18;\n        }\n        if(amount < 890*10**COW_TOKEN_DECIMALS) {\n            return 19;\n        }\n        return 20;\n    }\n\n    // Calculate CashCow Genesis NFT Holder Bonus. 10 or 15\n    // function _genesisNftHolderBonusOf(address _farmer) public view returns(uint) {\n    //     uint256 airCount = userFarms[_farmer].airIds.length;\n    //     if(airCount >0) {\n    //         return 15;\n    //     }\n    //     return 10;\n    // }\n\n    // Calculate CashCow HappyCow NFT Holder Bonus. 10 or 15\n    // function _happyCowNftHolderBonusOf(address _farmer) public view returns(uint[5] memory) {\n    //     uint[5] memory bonuses = [(uint)(10), 10, 10, 10, 10];\n    //     uint256[] storage mynfts = userFarms[_farmer].happyCowIds;\n    //     for(uint idx = 0;idx < mynfts.length;idx ++) {\n    //         bonuses[happyCowNftBreeds[mynfts[idx]]] = 15;\n    //     }\n    \n    //     return bonuses;\n    // }\n\n    // Calculate Land NFT Type Bonus.\n    function _landNftTypeBonusOf(address _farmer) public view returns(uint[5] memory) {\n\n        FarmingVault storage _userFarm = userFarms[_farmer];\n        uint[5] memory bonuses = [(uint)(10), 10, 10, 10, 10];\n        INftMinter minter = INftMinter(address(minterAddr));\n        ILandNFT landNfts = ILandNFT(address(minter.landNftColl()));\n        for(uint landIdx = 0;landIdx < _userFarm.landTokenIds.length;landIdx ++) {\n            ILandNFT.LandAttr memory attr = landNfts.attrOf(_userFarm.landTokenIds[landIdx]);\n            bonuses[attr.landType] = 15;\n        }\n        return bonuses;\n    }\n\n    function breed(uint _cowTokenId, uint _bullTokenId) public {\n        FarmingVault storage _userFarm = userFarms[msg.sender];\n        CowBullInfo[] storage cows = _userFarm.cows;\n        CowBullInfo[] storage bulls = _userFarm.bulls;\n        bool isCowAvailable = false;\n        bool isBullAvailable = false;\n        uint256 cowIdx = 0;\n        uint256 bullIdx = 0;\n        for(uint256 i = 0 ; i < cows.length; i++) {\n            if(cows[i].tokenId == _cowTokenId && !cows[i].isBreeding) {\n                cows[i].isBreeding = true;\n                isCowAvailable = true;\n                cowIdx = i;\n            }\n        }\n        for(uint256 j = 0 ; j <bulls.length; j++) {\n            if(bulls[j].tokenId == _bullTokenId && !bulls[j].isBreeding) {\n                bulls[j].isBreeding = true;\n                isBullAvailable = true;\n                bullIdx = j;\n            }\n        }\n        CowBullInfo storage cowInfo = cows[cowIdx];\n        CowBullInfo storage bullInfo = bulls[bullIdx];\n        require(isCowAvailable, \"unstaked cow token\");\n        require(isBullAvailable, \"unStaked bull token\");\n        uint256 _old = block.timestamp - bullInfo.birth;\n\n        require(cowInfo.rarity == bullInfo.rarity, \"Breeding is impossible between different rarity\");\n        require(maxRecoveryTime > _old, \"Bull is too old\");\n        IERC20(address(MILK_TOKEN_ADDRESS)).transferFrom(msg.sender, address(this), breedingPrice);\n\n        BreedingVault memory newBreeding;\n        newBreeding.cowTokenInfo = cowInfo;\n        newBreeding.bullTokenInfo = bullInfo;\n        newBreeding.owner = msg.sender;\n\n        uint256 weight =1e8 - ((maxRecoveryTime - _old) * 1e8) / maxRecoveryTime;\n        newBreeding.unlockTime = block.timestamp + baseRecoveryTime[bullInfo.rarity] + (baseRecoveryTime[bullInfo.rarity] * weight) /1e8;\n        breedingVaults.push(newBreeding);\n    }\n\n    function _indexOfBreedingByBull(uint _bullTokenId) private view returns (uint) {\n        uint idx = 0;\n        for(idx = 0;idx < breedingVaults.length;idx ++){\n            if(breedingVaults[idx].bullTokenInfo.tokenId == _bullTokenId) {\n                return idx;\n            }\n        }\n        return idx;\n    }\n\n    function setBreedingPrice(uint _price) public onlyOwner {\n        breedingPrice = _price;\n    }\n\n    function withdrawMilk() public onlyOwner{\n        IERC20 payToken = IERC20(address(MILK_TOKEN_ADDRESS));\n        uint amountOf = payToken.balanceOf(address(this));\n        payToken.transfer(msg.sender, amountOf);\n    }\n\n    function _rand(uint _modulus, uint256 _seed) internal view returns (uint) {\n        return uint(keccak256(abi.encodePacked(block.timestamp, msg.sender, _seed))) % _modulus;\n    }\n\n    function claimCattle(uint _bullTokenId, uint256[] memory _seed) public {\n        uint breedingIdx = _indexOfBreedingByBull(_bullTokenId);\n        address _owner = breedingVaults[breedingIdx].owner;\n        CowBullInfo storage cowInfo = breedingVaults[breedingIdx].cowTokenInfo;\n        CowBullInfo storage bullInfo = breedingVaults[breedingIdx].bullTokenInfo;\n        // uint256 _cowTokenId = cowInfo.tokenId;\n        // uint256 _bullTokenId = bullInfo.tokenId;\n        require(_owner == msg.sender, \"Not owner\");\n        require(block.timestamp > breedingVaults[breedingIdx].unlockTime, \"Wait until Recovery\");\n\n        INftMinter minter = INftMinter(address(minterAddr));\n\n        uint8 rarityOfNew = 0;\n        uint8 breedOfNew = bullInfo.breed;\n\n        uint randProbability = _rand(100, _seed[0]);\n        if(randProbability < rarityProbability || bullInfo.rarity == 4) {\n            rarityOfNew = bullInfo.rarity;\n        } else {\n            rarityOfNew = bullInfo.rarity + 1;\n        }\n        randProbability = _rand(100, _seed[1]);\n        if(randProbability < breedProbability) {\n            breedOfNew = cowInfo.breed;\n        }\n        randProbability = _rand(100, _seed[2]);\n        if(randProbability < cowProbability) {\n            minter.mintCow(_owner, rarityOfNew, breedOfNew);\n        } else {\n            minter.mintBull(_owner, rarityOfNew, breedOfNew);\n        }\n\n        // cowInfo.isBreeding = false;\n        // bullInfo.isBreeding = false;\n        CowBullInfo[] storage _cows = userFarms[msg.sender].cows;\n        CowBullInfo[] storage _bulls = userFarms[msg.sender].bulls;\n        for(uint i = 0 ; i < _cows.length; i ++) {\n            if(_cows[i].tokenId == cowInfo.tokenId) {\n                _cows[i].isBreeding = false;\n            }\n        }\n        for(uint j = 0 ; j < _bulls.length; j ++) {\n            if(_bulls[j].tokenId == bullInfo.tokenId) {\n                _bulls[j].isBreeding = false;\n            }\n        }\n\n\n        breedingVaults[breedingIdx] = breedingVaults[breedingVaults.length - 1];\n        breedingVaults.pop();\n    }\n\n    function getBreedingItems(address userAddress) public view \n    returns(\n        uint256[] memory ,\n        uint256[] memory ,\n        uint256[] memory ,\n        uint256[] memory ,\n        uint256[] memory ,\n        uint256[] memory \n    ) {\n        uint k = 0;\n        uint ownedCount = 0;\n        for(uint j = 0 ; j< breedingVaults.length ; j ++ ) {\n            if(breedingVaults[j].owner == userAddress) {\n                ownedCount +=1;\n            }\n        }\n        uint256[] memory cowTokenIds = new uint256[](ownedCount);\n        uint256[] memory raritis = new uint256[](ownedCount);\n        uint256[] memory cowBreeds = new uint256[](ownedCount);\n        uint256[] memory bullTokenIds = new uint256[](ownedCount);\n        uint256[] memory bullBreeds = new uint256[](ownedCount);\n        uint256[] memory unLockTimes = new uint256[](ownedCount);\n        for(uint i = 0 ; i < breedingVaults.length; i++) {\n            if(breedingVaults[i].owner == userAddress) {\n                cowTokenIds[k] = breedingVaults[i].cowTokenInfo.tokenId;\n                raritis[k] = breedingVaults[i].cowTokenInfo.rarity;\n                cowBreeds[k] = breedingVaults[i].cowTokenInfo.breed;\n                bullTokenIds[k] = breedingVaults[i].bullTokenInfo.tokenId;\n                bullBreeds[k] = breedingVaults[i].bullTokenInfo.breed;\n                unLockTimes[k] = breedingVaults[i].unlockTime;\n                k +=1;\n            }\n        }\n        return (cowTokenIds, raritis,cowBreeds,bullTokenIds,bullBreeds,unLockTimes);\n    }\n\n    function setProbabilities(uint256 _rarityP, uint256 _breedP, uint256 _cowP) public onlyOwner {\n        rarityProbability = _rarityP;\n        breedProbability = _breedP;\n        cowProbability = _cowP;\n    }\n\n\n}",
  "sourcePath": "/Users/matiascaparros/Documents/Work/projects/cashcowprotocol.com/cashcowgame/contracts/game-contracts/contracts/Farming.sol",
  "compiler": {
    "name": "solc",
    "version": "0.8.12+commit.f00d7308.Emscripten.clang"
  },
  "schemaVersion": "3.4.10",
  "updatedAt": "2022-10-29T12:58:22.024Z",
  "networkType": "ethereum",
  "devdoc": {
    "kind": "dev",
    "methods": {
      "owner()": {
        "details": "Returns the address of the current owner."
      },
      "renounceOwnership()": {
        "details": "Leaves the contract without owner. It will not be possible to call `onlyOwner` functions anymore. Can only be called by the current owner. NOTE: Renouncing ownership will leave the contract without an owner, thereby removing any functionality that is only available to the owner."
      },
      "transferOwnership(address)": {
        "details": "Transfers ownership of the contract to a new account (`newOwner`). Can only be called by the current owner."
      }
    },
    "version": 1
  },
  "userdoc": {
    "kind": "user",
    "methods": {},
    "version": 1
  }
}