{
  "contractName": "Farming",
  "abi": [
    {
      "anonymous": false,
      "inputs": [
        {
          "indexed": false,
          "internalType": "address",
          "name": "_owner",
          "type": "address"
        },
        {
          "indexed": false,
          "internalType": "uint256",
          "name": "_tokenId",
          "type": "uint256"
        }
      ],
      "name": "DepositBull",
      "type": "event"
    },
    {
      "anonymous": false,
      "inputs": [
        {
          "indexed": false,
          "internalType": "address",
          "name": "_owner",
          "type": "address"
        },
        {
          "indexed": false,
          "internalType": "uint256",
          "name": "_tokenId",
          "type": "uint256"
        }
      ],
      "name": "DepositCow",
      "type": "event"
    },
    {
      "anonymous": false,
      "inputs": [
        {
          "indexed": false,
          "internalType": "address",
          "name": "_owner",
          "type": "address"
        },
        {
          "indexed": false,
          "internalType": "uint256",
          "name": "_tokenId",
          "type": "uint256"
        }
      ],
      "name": "DepositLand",
      "type": "event"
    },
    {
      "anonymous": false,
      "inputs": [
        {
          "indexed": true,
          "internalType": "address",
          "name": "previousOwner",
          "type": "address"
        },
        {
          "indexed": true,
          "internalType": "address",
          "name": "newOwner",
          "type": "address"
        }
      ],
      "name": "OwnershipTransferred",
      "type": "event"
    },
    {
      "anonymous": false,
      "inputs": [
        {
          "indexed": false,
          "internalType": "address",
          "name": "_owner",
          "type": "address"
        },
        {
          "indexed": false,
          "internalType": "uint256",
          "name": "_tokenId",
          "type": "uint256"
        }
      ],
      "name": "WithdrawBull",
      "type": "event"
    },
    {
      "anonymous": false,
      "inputs": [
        {
          "indexed": false,
          "internalType": "address",
          "name": "_owner",
          "type": "address"
        },
        {
          "indexed": false,
          "internalType": "uint256",
          "name": "_tokenId",
          "type": "uint256"
        }
      ],
      "name": "WithdrawCow",
      "type": "event"
    },
    {
      "anonymous": false,
      "inputs": [
        {
          "indexed": false,
          "internalType": "address",
          "name": "_owner",
          "type": "address"
        },
        {
          "indexed": false,
          "internalType": "uint256",
          "name": "_tokenId",
          "type": "uint256"
        }
      ],
      "name": "WithdrawLand",
      "type": "event"
    },
    {
      "inputs": [
        {
          "internalType": "uint8",
          "name": "",
          "type": "uint8"
        }
      ],
      "name": "baseMilkPower",
      "outputs": [
        {
          "internalType": "uint16",
          "name": "",
          "type": "uint16"
        }
      ],
      "stateMutability": "view",
      "type": "function"
    },
    {
      "inputs": [
        {
          "internalType": "uint8",
          "name": "",
          "type": "uint8"
        }
      ],
      "name": "bullLimitPerLand",
      "outputs": [
        {
          "internalType": "uint16",
          "name": "",
          "type": "uint16"
        }
      ],
      "stateMutability": "view",
      "type": "function"
    },
    {
      "inputs": [
        {
          "internalType": "uint8",
          "name": "",
          "type": "uint8"
        }
      ],
      "name": "cowLimitPerLand",
      "outputs": [
        {
          "internalType": "uint16",
          "name": "",
          "type": "uint16"
        }
      ],
      "stateMutability": "view",
      "type": "function"
    },
    {
      "inputs": [
        {
          "internalType": "uint256",
          "name": "",
          "type": "uint256"
        }
      ],
      "name": "farms",
      "outputs": [
        {
          "internalType": "address",
          "name": "owner",
          "type": "address"
        },
        {
          "internalType": "uint256",
          "name": "lastReward",
          "type": "uint256"
        }
      ],
      "stateMutability": "view",
      "type": "function"
    },
    {
      "inputs": [
        {
          "internalType": "uint256",
          "name": "",
          "type": "uint256"
        }
      ],
      "name": "genesisTokenIds",
      "outputs": [
        {
          "internalType": "uint256",
          "name": "",
          "type": "uint256"
        }
      ],
      "stateMutability": "view",
      "type": "function"
    },
    {
      "inputs": [
        {
          "internalType": "uint256",
          "name": "",
          "type": "uint256"
        }
      ],
      "name": "happyCowNftBreeds",
      "outputs": [
        {
          "internalType": "uint8",
          "name": "",
          "type": "uint8"
        }
      ],
      "stateMutability": "view",
      "type": "function"
    },
    {
      "inputs": [],
      "name": "minterAddr",
      "outputs": [
        {
          "internalType": "address",
          "name": "",
          "type": "address"
        }
      ],
      "stateMutability": "view",
      "type": "function"
    },
    {
      "inputs": [],
      "name": "owner",
      "outputs": [
        {
          "internalType": "address",
          "name": "",
          "type": "address"
        }
      ],
      "stateMutability": "view",
      "type": "function"
    },
    {
      "inputs": [],
      "name": "renounceOwnership",
      "outputs": [],
      "stateMutability": "nonpayable",
      "type": "function"
    },
    {
      "inputs": [
        {
          "internalType": "address",
          "name": "newOwner",
          "type": "address"
        }
      ],
      "name": "transferOwnership",
      "outputs": [],
      "stateMutability": "nonpayable",
      "type": "function"
    },
    {
      "inputs": [
        {
          "internalType": "address",
          "name": "_minterAddr",
          "type": "address"
        }
      ],
      "name": "initialize",
      "outputs": [],
      "stateMutability": "nonpayable",
      "type": "function"
    },
    {
      "inputs": [
        {
          "internalType": "uint256",
          "name": "_tokenId",
          "type": "uint256"
        }
      ],
      "name": "depositLand",
      "outputs": [],
      "stateMutability": "nonpayable",
      "type": "function"
    },
    {
      "inputs": [
        {
          "internalType": "uint256",
          "name": "_tokenId",
          "type": "uint256"
        }
      ],
      "name": "withdrawLand",
      "outputs": [],
      "stateMutability": "nonpayable",
      "type": "function"
    },
    {
      "inputs": [
        {
          "internalType": "uint256",
          "name": "_tokenId",
          "type": "uint256"
        }
      ],
      "name": "depositCow",
      "outputs": [],
      "stateMutability": "nonpayable",
      "type": "function"
    },
    {
      "inputs": [
        {
          "internalType": "uint256",
          "name": "_tokenId",
          "type": "uint256"
        }
      ],
      "name": "withdrawCow",
      "outputs": [],
      "stateMutability": "nonpayable",
      "type": "function"
    },
    {
      "inputs": [
        {
          "internalType": "uint256",
          "name": "_tokenId",
          "type": "uint256"
        }
      ],
      "name": "depositBull",
      "outputs": [],
      "stateMutability": "nonpayable",
      "type": "function"
    },
    {
      "inputs": [
        {
          "internalType": "uint256",
          "name": "_tokenId",
          "type": "uint256"
        }
      ],
      "name": "withdrawBull",
      "outputs": [],
      "stateMutability": "nonpayable",
      "type": "function"
    },
    {
      "inputs": [],
      "name": "harvest",
      "outputs": [],
      "stateMutability": "nonpayable",
      "type": "function"
    },
    {
      "inputs": [
        {
          "internalType": "uint256",
          "name": "_amount",
          "type": "uint256"
        }
      ],
      "name": "burnMilk",
      "outputs": [],
      "stateMutability": "nonpayable",
      "type": "function"
    },
    {
      "inputs": [],
      "name": "milkPowerOfGame",
      "outputs": [
        {
          "internalType": "uint256",
          "name": "",
          "type": "uint256"
        }
      ],
      "stateMutability": "view",
      "type": "function"
    },
    {
      "inputs": [
        {
          "internalType": "address",
          "name": "_farmer",
          "type": "address"
        }
      ],
      "name": "milkPowerOf",
      "outputs": [
        {
          "internalType": "uint256",
          "name": "",
          "type": "uint256"
        }
      ],
      "stateMutability": "view",
      "type": "function"
    },
    {
      "inputs": [
        {
          "internalType": "address",
          "name": "_owner",
          "type": "address"
        }
      ],
      "name": "landTokenIdsOf",
      "outputs": [
        {
          "internalType": "uint256[]",
          "name": "",
          "type": "uint256[]"
        }
      ],
      "stateMutability": "view",
      "type": "function"
    },
    {
      "inputs": [
        {
          "internalType": "address",
          "name": "_owner",
          "type": "address"
        }
      ],
      "name": "cowTokenIdsOf",
      "outputs": [
        {
          "internalType": "uint256[]",
          "name": "",
          "type": "uint256[]"
        }
      ],
      "stateMutability": "view",
      "type": "function"
    },
    {
      "inputs": [
        {
          "internalType": "address",
          "name": "_owner",
          "type": "address"
        }
      ],
      "name": "bullTokenIdsOf",
      "outputs": [
        {
          "internalType": "uint256[]",
          "name": "",
          "type": "uint256[]"
        }
      ],
      "stateMutability": "view",
      "type": "function"
    },
    {
      "inputs": [
        {
          "internalType": "address",
          "name": "_newMinterAddr",
          "type": "address"
        }
      ],
      "name": "setMinterContract",
      "outputs": [],
      "stateMutability": "nonpayable",
      "type": "function"
    },
    {
      "inputs": [
        {
          "internalType": "uint256",
          "name": "_newMaxAge",
          "type": "uint256"
        }
      ],
      "name": "setMaxAge",
      "outputs": [],
      "stateMutability": "nonpayable",
      "type": "function"
    },
    {
      "inputs": [
        {
          "internalType": "uint256[]",
          "name": "_genesisTokenIds",
          "type": "uint256[]"
        }
      ],
      "name": "setGenesisTokenIds",
      "outputs": [],
      "stateMutability": "nonpayable",
      "type": "function"
    },
    {
      "inputs": [
        {
          "internalType": "uint8[]",
          "name": "_happyCowNftBreeds",
          "type": "uint8[]"
        }
      ],
      "name": "setHappyCowNftBreeds",
      "outputs": [],
      "stateMutability": "nonpayable",
      "type": "function"
    },
    {
      "inputs": [
        {
          "internalType": "address",
          "name": "_farmer",
          "type": "address"
        }
      ],
      "name": "_totalCowLimitOf",
      "outputs": [
        {
          "internalType": "uint256",
          "name": "",
          "type": "uint256"
        }
      ],
      "stateMutability": "view",
      "type": "function"
    },
    {
      "inputs": [
        {
          "internalType": "address",
          "name": "_farmer",
          "type": "address"
        }
      ],
      "name": "_totalBullLimitOf",
      "outputs": [
        {
          "internalType": "uint256",
          "name": "",
          "type": "uint256"
        }
      ],
      "stateMutability": "view",
      "type": "function"
    },
    {
      "inputs": [
        {
          "internalType": "address",
          "name": "_farmer",
          "type": "address"
        }
      ],
      "name": "_genesisNftHolderBonusOf",
      "outputs": [
        {
          "internalType": "uint256",
          "name": "",
          "type": "uint256"
        }
      ],
      "stateMutability": "view",
      "type": "function"
    },
    {
      "inputs": [
        {
          "internalType": "address",
          "name": "_farmer",
          "type": "address"
        }
      ],
      "name": "_happyCowNftHolderBonusOf",
      "outputs": [
        {
          "internalType": "uint256[5]",
          "name": "",
          "type": "uint256[5]"
        }
      ],
      "stateMutability": "view",
      "type": "function"
    },
    {
      "inputs": [
        {
          "internalType": "address",
          "name": "_farmer",
          "type": "address"
        }
      ],
      "name": "_landNftTypeBonusOf",
      "outputs": [
        {
          "internalType": "uint256[5]",
          "name": "",
          "type": "uint256[5]"
        }
      ],
      "stateMutability": "view",
      "type": "function"
    }
  ],
  "bytecode": "0x6080604052630107ac006007553480156200001957600080fd5b50600160008190555062000042620000366200004860201b60201c565b6200005060201b60201c565b62000116565b600033905090565b6000600160009054906101000a900473ffffffffffffffffffffffffffffffffffffffff16905081600160006101000a81548173ffffffffffffffffffffffffffffffffffffffff021916908373ffffffffffffffffffffffffffffffffffffffff1602179055508173ffffffffffffffffffffffffffffffffffffffff168173ffffffffffffffffffffffffffffffffffffffff167f8be0079c531659141344cd1fd0a4f28419497f9722a3daafe3b4186f6b6457e060405160405180910390a35050565b61529080620001266000396000f3fe608060405234801561001057600080fd5b50600436106101fb5760003560e01c8063802847861161011a578063cefd3c46116100ad578063eed74a421161007c578063eed74a42146105f7578063f2fde38b14610627578063f6f086a014610643578063fac9d57d1461065f578063fd6505a51461067b576101fb565b8063cefd3c461461055d578063db71fed71461058d578063e2b1a45d146105ab578063eed2f277146105c7576101fb565b8063c4d66de8116100e9578063c4d66de8146104ed578063c713a54514610509578063cc32dfd514610525578063ce1e9e1814610541576101fb565b806380284786146104535780638da5cb5b1461046f5780639d97a6a11461048d578063bc396984146104bd576101fb565b80635504437911610192578063715018a611610161578063715018a6146103ca57806375395618146103d45780637cb93627146103f25780637da470ea14610422576101fb565b8063550443791461031e5780635ae28fc91461034e5780635d2d9f581461036a578063685cf6d91461039a576101fb565b806338478ae7116101ce57806338478ae7146102985780633aa0a09a146102b45780634641257d146102e4578063519042c3146102ee576101fb565b8063118c951d1461020057806313c5676a1461023057806314619e181461024c5780631e9f3a8e14610268575b600080fd5b61021a600480360381019061021591906141d3565b6106ab565b6040516102279190614219565b60405180910390f35b61024a60048036038101906102459190614260565b6108ea565b005b610266600480360381019061026191906142f2565b610c66565b005b610282600480360381019061027d91906141d3565b610d3b565b60405161028f91906143fd565b60405180910390f35b6102b260048036038101906102ad91906141d3565b610eb8565b005b6102ce60048036038101906102c99190614458565b610fe8565b6040516102db91906144a2565b60405180910390f35b6102ec611009565b005b61030860048036038101906103039190614458565b6111dc565b60405161031591906144a2565b60405180910390f35b610338600480360381019061033391906141d3565b6111fd565b6040516103459190614541565b60405180910390f35b61036860048036038101906103639190614260565b61137e565b005b610384600480360381019061037f91906141d3565b611447565b60405161039191906143fd565b60405180910390f35b6103b460048036038101906103af9190614458565b6115c4565b6040516103c191906144a2565b60405180910390f35b6103d26115e5565b005b6103dc61166d565b6040516103e99190614219565b60405180910390f35b61040c60048036038101906104079190614260565b6116fa565b604051610419919061456b565b60405180910390f35b61043c60048036038101906104379190614260565b611725565b60405161044a929190614595565b60405180910390f35b61046d60048036038101906104689190614260565b611779565b005b610477611ccd565b60405161048491906145be565b60405180910390f35b6104a760048036038101906104a291906141d3565b611cf7565b6040516104b49190614219565b60405180910390f35b6104d760048036038101906104d291906141d3565b612014565b6040516104e49190614219565b60405180910390f35b610507600480360381019061050291906141d3565b612253565b005b610523600480360381019061051e9190614260565b6128aa565b005b61053f600480360381019061053a9190614260565b612b04565b005b61055b6004803603810190610556919061462f565b612cde565b005b61057760048036038101906105729190614260565b612ddd565b6040516105849190614219565b60405180910390f35b610595612df8565b6040516105a291906145be565b60405180910390f35b6105c560048036038101906105c09190614260565b612e1e565b005b6105e160048036038101906105dc91906141d3565b61319a565b6040516105ee9190614541565b60405180910390f35b610611600480360381019061060c91906141d3565b6133f7565b60405161061e9190614219565b60405180910390f35b610641600480360381019061063c91906141d3565b61350d565b005b61065d60048036038101906106589190614260565b613605565b005b61067960048036038101906106749190614260565b61385f565b005b610695600480360381019061069091906141d3565b613b2e565b6040516106a291906143fd565b60405180910390f35b6000806106b783613cab565b90506003805490508110610700576040517f08c379a00000000000000000000000000000000000000000000000000000000081526004016106f7906146d9565b60405180910390fd5b600080600260009054906101000a900473ffffffffffffffffffffffffffffffffffffffff16905060008173ffffffffffffffffffffffffffffffffffffffff16632e87f9c86040518163ffffffff1660e01b8152600401602060405180830381865afa158015610775573d6000803e3d6000fd5b505050506040513d601f19601f82011682018060405250810190610799919061470e565b905060005b600385815481106107b2576107b161473b565b5b9060005260206000209060050201600001805490508110156108dd5760008273ffffffffffffffffffffffffffffffffffffffff166368ba0bcf60038881548110610800576107ff61473b565b5b906000526020600020906005020160000184815481106108235761082261473b565b5b90600052602060002001546040518263ffffffff1660e01b815260040161084a9190614219565b6040805180830381865afa158015610866573d6000803e3d6000fd5b505050506040513d601f19601f8201168201806040525081019061088a9190614860565b905060056000826000015160ff1660ff16815260200190815260200160002060009054906101000a900461ffff1661ffff16856108c791906148bc565b94505080806108d590614912565b91505061079e565b5082945050505050919050565b60006108f533613cab565b9050600380549050811061093e576040517f08c379a0000000000000000000000000000000000000000000000000000000008152600401610935906146d9565b60405180910390fd5b6000600260009054906101000a900473ffffffffffffffffffffffffffffffffffffffff16905060008173ffffffffffffffffffffffffffffffffffffffff1663970844456040518163ffffffff1660e01b8152600401602060405180830381865afa1580156109b2573d6000803e3d6000fd5b505050506040513d601f19601f820116820180604052508101906109d6919061470e565b90508073ffffffffffffffffffffffffffffffffffffffff166323b872dd3060038681548110610a0957610a0861473b565b5b906000526020600020906005020160030160009054906101000a900473ffffffffffffffffffffffffffffffffffffffff16876040518463ffffffff1660e01b8152600401610a5a9392919061495b565b600060405180830381600087803b158015610a7457600080fd5b505af1158015610a88573d6000803e3d6000fd5b5050505060005b60038481548110610aa357610aa261473b565b5b906000526020600020906005020160010180549050811015610c26578460038581548110610ad457610ad361473b565b5b90600052602060002090600502016001018281548110610af757610af661473b565b5b90600052602060002001541415610c135760038481548110610b1c57610b1b61473b565b5b9060005260206000209060050201600101600160038681548110610b4357610b4261473b565b5b906000526020600020906005020160010180549050610b629190614992565b81548110610b7357610b7261473b565b5b906000526020600020015460038581548110610b9257610b9161473b565b5b90600052602060002090600502016001018281548110610bb557610bb461473b565b5b906000526020600020018190555060038481548110610bd757610bd661473b565b5b9060005260206000209060050201600101805480610bf857610bf76149c6565b5b60019003818190600052602060002001600090559055610c26565b8080610c1e90614912565b915050610a8f565b507f30a1b13a317384a5ee19f32abf42ec26cc325ac7d9c0c3dcb479dce0032230953385604051610c58929190614595565b60405180910390a150505050565b610c6e613d63565b73ffffffffffffffffffffffffffffffffffffffff16610c8c611ccd565b73ffffffffffffffffffffffffffffffffffffffff1614610ce2576040517f08c379a0000000000000000000000000000000000000000000000000000000008152600401610cd990614a41565b60405180910390fd5b60005b82829050811015610d3657828282818110610d0357610d0261473b565b5b9050602002013560288260648110610d1e57610d1d61473b565b5b01819055508080610d2e90614912565b915050610ce5565b505050565b60606000610d4883613cab565b90506003805490508110610d91576040517f08c379a0000000000000000000000000000000000000000000000000000000008152600401610d88906146d9565b60405180910390fd5b600060038281548110610da757610da661473b565b5b90600052602060002090600502016000018054905067ffffffffffffffff811115610dd557610dd4614780565b5b604051908082528060200260200182016040528015610e035781602001602082028036833780820191505090505b50905060005b60038381548110610e1d57610e1c61473b565b5b906000526020600020906005020160010180549050811015610ead5760038381548110610e4d57610e4c61473b565b5b90600052602060002090600502016001018181548110610e7057610e6f61473b565b5b9060005260206000200154828281518110610e8e57610e8d61473b565b5b6020026020010181815250508080610ea590614912565b915050610e09565b508092505050919050565b610ec0613d63565b73ffffffffffffffffffffffffffffffffffffffff16610ede611ccd565b73ffffffffffffffffffffffffffffffffffffffff1614610f34576040517f08c379a0000000000000000000000000000000000000000000000000000000008152600401610f2b90614a41565b60405180910390fd5b600073ffffffffffffffffffffffffffffffffffffffff168173ffffffffffffffffffffffffffffffffffffffff161415610fa4576040517f08c379a0000000000000000000000000000000000000000000000000000000008152600401610f9b90614aad565b60405180910390fd5b80600260006101000a81548173ffffffffffffffffffffffffffffffffffffffff021916908373ffffffffffffffffffffffffffffffffffffffff16021790555050565b60046020528060005260406000206000915054906101000a900461ffff1681565b600061101361166d565b9050600061102033611cf7565b9050600073c6438ac9db413efc13f2e0727e7e70bc85d747fe90508073ffffffffffffffffffffffffffffffffffffffff1663e2bbb1586000806040518363ffffffff1660e01b8152600401611077929190614b12565b600060405180830381600087803b15801561109157600080fd5b505af11580156110a5573d6000803e3d6000fd5b505050506000739bb61d36f739f682295722ed7f5a5a48a142d85f905060008173ffffffffffffffffffffffffffffffffffffffff166370a08231306040518263ffffffff1660e01b81526004016110fd91906145be565b602060405180830381865afa15801561111a573d6000803e3d6000fd5b505050506040513d601f19601f8201168201806040525081019061113e9190614b50565b90508173ffffffffffffffffffffffffffffffffffffffff1663a9059cbb3387878561116a9190614b7d565b6111749190614c06565b6040518363ffffffff1660e01b8152600401611191929190614595565b6020604051808303816000875af11580156111b0573d6000803e3d6000fd5b505050506040513d601f19601f820116820180604052508101906111d49190614c6f565b505050505050565b60066020528060005260406000206000915054906101000a900461ffff1681565b611205614090565b60006040518060a00160405280600a8152602001600a8152602001600a8152602001600a8152602001600a815250905060005b6103e881101561137457600073091551a095f19133e3482ac91c4a5db438e94b7990508473ffffffffffffffffffffffffffffffffffffffff168173ffffffffffffffffffffffffffffffffffffffff16636352211e60018561129b91906148bc565b6040518263ffffffff1660e01b81526004016112b79190614219565b602060405180830381865afa1580156112d4573d6000803e3d6000fd5b505050506040513d601f19601f820116820180604052508101906112f8919061470e565b73ffffffffffffffffffffffffffffffffffffffff16141561136057600f836008846103e8811061132c5761132b61473b565b5b602091828204019190069054906101000a900460ff1660ff16600581106113565761135561473b565b5b6020020181815250505b50808061136c90614912565b915050611238565b5080915050919050565b611386613d63565b73ffffffffffffffffffffffffffffffffffffffff166113a4611ccd565b73ffffffffffffffffffffffffffffffffffffffff16146113fa576040517f08c379a00000000000000000000000000000000000000000000000000000000081526004016113f190614a41565b60405180910390fd5b6000811161143d576040517f08c379a000000000000000000000000000000000000000000000000000000000815260040161143490614ce8565b60405180910390fd5b8060078190555050565b6060600061145483613cab565b9050600380549050811061149d576040517f08c379a0000000000000000000000000000000000000000000000000000000008152600401611494906146d9565b60405180910390fd5b6000600382815481106114b3576114b261473b565b5b90600052602060002090600502016000018054905067ffffffffffffffff8111156114e1576114e0614780565b5b60405190808252806020026020018201604052801561150f5781602001602082028036833780820191505090505b50905060005b600383815481106115295761152861473b565b5b9060005260206000209060050201600001805490508110156115b957600383815481106115595761155861473b565b5b9060005260206000209060050201600001818154811061157c5761157b61473b565b5b906000526020600020015482828151811061159a5761159961473b565b5b60200260200101818152505080806115b190614912565b915050611515565b508092505050919050565b60056020528060005260406000206000915054906101000a900461ffff1681565b6115ed613d63565b73ffffffffffffffffffffffffffffffffffffffff1661160b611ccd565b73ffffffffffffffffffffffffffffffffffffffff1614611661576040517f08c379a000000000000000000000000000000000000000000000000000000000815260040161165890614a41565b60405180910390fd5b61166b6000613d6b565b565b6000806000905060005b6003805490508110156116f2576116d26003828154811061169b5761169a61473b565b5b906000526020600020906005020160030160009054906101000a900473ffffffffffffffffffffffffffffffffffffffff16611cf7565b826116dd91906148bc565b915080806116ea90614912565b915050611677565b508091505090565b6008816103e8811061170b57600080fd5b60209182820401919006915054906101000a900460ff1681565b6003818154811061173557600080fd5b90600052602060002090600502016000915090508060030160009054906101000a900473ffffffffffffffffffffffffffffffffffffffff16908060040154905082565b600061178433613cab565b905060038054905081106117cd576040517f08c379a00000000000000000000000000000000000000000000000000000000081526004016117c4906146d9565b60405180910390fd5b6000600260009054906101000a900473ffffffffffffffffffffffffffffffffffffffff16905060008173ffffffffffffffffffffffffffffffffffffffff16632e87f9c86040518163ffffffff1660e01b8152600401602060405180830381865afa158015611841573d6000803e3d6000fd5b505050506040513d601f19601f82011682018060405250810190611865919061470e565b905060008173ffffffffffffffffffffffffffffffffffffffff166368ba0bcf866040518263ffffffff1660e01b81526004016118a29190614219565b6040805180830381865afa1580156118be573d6000803e3d6000fd5b505050506040513d601f19601f820116820180604052508101906118e29190614860565b9050600384815481106118f8576118f761473b565b5b90600052602060002090600502016001018054905060046000836000015160ff1660ff16815260200190815260200160002060009054906101000a900461ffff1661ffff1661194633612014565b6119509190614992565b1015611991576040517f08c379a000000000000000000000000000000000000000000000000000000000815260040161198890614d54565b60405180910390fd5b600384815481106119a5576119a461473b565b5b90600052602060002090600502016001018054905060056000836000015160ff1660ff16815260200190815260200160002060009054906101000a900461ffff1661ffff166119f3336106ab565b6119fd9190614992565b1015611a3e576040517f08c379a0000000000000000000000000000000000000000000000000000000008152600401611a3590614dc0565b60405180910390fd5b8173ffffffffffffffffffffffffffffffffffffffff166323b872dd3060038781548110611a6f57611a6e61473b565b5b906000526020600020906005020160030160009054906101000a900473ffffffffffffffffffffffffffffffffffffffff16886040518463ffffffff1660e01b8152600401611ac09392919061495b565b600060405180830381600087803b158015611ada57600080fd5b505af1158015611aee573d6000803e3d6000fd5b5050505060005b60038581548110611b0957611b0861473b565b5b906000526020600020906005020160000180549050811015611c8c578560038681548110611b3a57611b3961473b565b5b90600052602060002090600502016000018281548110611b5d57611b5c61473b565b5b90600052602060002001541415611c795760038581548110611b8257611b8161473b565b5b9060005260206000209060050201600001600160038781548110611ba957611ba861473b565b5b906000526020600020906005020160000180549050611bc89190614992565b81548110611bd957611bd861473b565b5b906000526020600020015460038681548110611bf857611bf761473b565b5b90600052602060002090600502016000018281548110611c1b57611c1a61473b565b5b906000526020600020018190555060038581548110611c3d57611c3c61473b565b5b9060005260206000209060050201600001805480611c5e57611c5d6149c6565b5b60019003818190600052602060002001600090559055611c8c565b8080611c8490614912565b915050611af5565b507f2ac6e3c1e4ef99df40ccf9f212268ced5a151cf274c706f1a035b9b10de10ab13386604051611cbe929190614595565b60405180910390a15050505050565b6000600160009054906101000a900473ffffffffffffffffffffffffffffffffffffffff16905090565b600080611d0383613cab565b90506003805490508110611d1b57600091505061200f565b6000600260009054906101000a900473ffffffffffffffffffffffffffffffffffffffff16905060008173ffffffffffffffffffffffffffffffffffffffff1663970844456040518163ffffffff1660e01b8152600401602060405180830381865afa158015611d8f573d6000803e3d6000fd5b505050506040513d601f19601f82011682018060405250810190611db3919061470e565b90506000611dc0866133f7565b90506000611dcd87613e31565b90506000611dda8861319a565b90506000611de7896111fd565b90506000805b60038981548110611e0157611e0061473b565b5b9060005260206000209060050201600101805490508110156120025760008773ffffffffffffffffffffffffffffffffffffffff166368ba0bcf60038c81548110611e4f57611e4e61473b565b5b90600052602060002090600502016001018481548110611e7257611e7161473b565b5b90600052602060002001546040518263ffffffff1660e01b8152600401611e999190614219565b606060405180830381865afa158015611eb6573d6000803e3d6000fd5b505050506040513d601f19601f82011682018060405250810190611eda9190614e44565b9050600060066000836000015160ff1660ff16815260200190815260200160002060009054906101000a900461ffff1661ffff1690506000826040015142611f229190614992565b6007541115611f4b57826040015142611f3b9190614992565b600754611f489190614992565b90505b8086846020015160ff1660058110611f6657611f6561473b565b5b602002015188856020015160ff1660058110611f8557611f8461473b565b5b60200201518a8c86611f979190614b7d565b611fa19190614b7d565b611fab9190614b7d565b611fb59190614b7d565b611fbf9190614b7d565b915060075461271083611fd29190614c06565b611fdc9190614c06565b91508185611fea91906148bc565b94505050508080611ffa90614912565b915050611ded565b5080985050505050505050505b919050565b60008061202083613cab565b90506003805490508110612069576040517f08c379a0000000000000000000000000000000000000000000000000000000008152600401612060906146d9565b60405180910390fd5b600080600260009054906101000a900473ffffffffffffffffffffffffffffffffffffffff16905060008173ffffffffffffffffffffffffffffffffffffffff16632e87f9c86040518163ffffffff1660e01b8152600401602060405180830381865afa1580156120de573d6000803e3d6000fd5b505050506040513d601f19601f82011682018060405250810190612102919061470e565b905060005b6003858154811061211b5761211a61473b565b5b9060005260206000209060050201600001805490508110156122465760008273ffffffffffffffffffffffffffffffffffffffff166368ba0bcf600388815481106121695761216861473b565b5b9060005260206000209060050201600001848154811061218c5761218b61473b565b5b90600052602060002001546040518263ffffffff1660e01b81526004016121b39190614219565b6040805180830381865afa1580156121cf573d6000803e3d6000fd5b505050506040513d601f19601f820116820180604052508101906121f39190614860565b905060046000826000015160ff1660ff16815260200190815260200160002060009054906101000a900461ffff1661ffff168561223091906148bc565b945050808061223e90614912565b915050612107565b5082945050505050919050565b61225b613d63565b73ffffffffffffffffffffffffffffffffffffffff16612279611ccd565b73ffffffffffffffffffffffffffffffffffffffff16146122cf576040517f08c379a00000000000000000000000000000000000000000000000000000000081526004016122c690614a41565b60405180910390fd5b600073ffffffffffffffffffffffffffffffffffffffff168173ffffffffffffffffffffffffffffffffffffffff16141561233f576040517f08c379a000000000000000000000000000000000000000000000000000000000815260040161233690614ebd565b60405180910390fd5b80600260006101000a81548173ffffffffffffffffffffffffffffffffffffffff021916908373ffffffffffffffffffffffffffffffffffffffff1602179055506028600460008060ff16815260200190815260200160002060006101000a81548161ffff021916908361ffff160217905550605060046000600160ff16815260200190815260200160002060006101000a81548161ffff021916908361ffff160217905550607860046000600260ff16815260200190815260200160002060006101000a81548161ffff021916908361ffff16021790555060c860046000600360ff16815260200190815260200160002060006101000a81548161ffff021916908361ffff16021790555061014060046000600460ff16815260200190815260200160002060006101000a81548161ffff021916908361ffff1602179055506002600560008060ff16815260200190815260200160002060006101000a81548161ffff021916908361ffff160217905550600460056000600160ff16815260200190815260200160002060006101000a81548161ffff021916908361ffff160217905550600660056000600260ff16815260200190815260200160002060006101000a81548161ffff021916908361ffff160217905550600a60056000600360ff16815260200190815260200160002060006101000a81548161ffff021916908361ffff160217905550601060056000600460ff16815260200190815260200160002060006101000a81548161ffff021916908361ffff1602179055506107d0600660008060ff16815260200190815260200160002060006101000a81548161ffff021916908361ffff160217905550610bb860066000600160ff16815260200190815260200160002060006101000a81548161ffff021916908361ffff16021790555061138860066000600260ff16815260200190815260200160002060006101000a81548161ffff021916908361ffff160217905550611f4060066000600360ff16815260200190815260200160002060006101000a81548161ffff021916908361ffff1602179055506132c860066000600460ff16815260200190815260200160002060006101000a81548161ffff021916908361ffff160217905550600073c6438ac9db413efc13f2e0727e7e70bc85d747fe9050600073c25e8b265ee64a0cde09347dc8d3e40419e8311f90508073ffffffffffffffffffffffffffffffffffffffff1663095ea7b373c6438ac9db413efc13f2e0727e7e70bc85d747fe8373ffffffffffffffffffffffffffffffffffffffff166370a08231306040518263ffffffff1660e01b815260040161271c91906145be565b602060405180830381865afa158015612739573d6000803e3d6000fd5b505050506040513d601f19601f8201168201806040525081019061275d9190614b50565b6040518363ffffffff1660e01b815260040161277a929190614595565b6020604051808303816000875af1158015612799573d6000803e3d6000fd5b505050506040513d601f19601f820116820180604052508101906127bd9190614c6f565b508173ffffffffffffffffffffffffffffffffffffffff1663e2bbb15860008373ffffffffffffffffffffffffffffffffffffffff166370a08231306040518263ffffffff1660e01b815260040161281591906145be565b602060405180830381865afa158015612832573d6000803e3d6000fd5b505050506040513d601f19601f820116820180604052508101906128569190614b50565b6040518363ffffffff1660e01b8152600401612873929190614edd565b600060405180830381600087803b15801561288d57600080fd5b505af11580156128a1573d6000803e3d6000fd5b50505050505050565b60006128b533613cab565b905060038054905081106128fe576040517f08c379a00000000000000000000000000000000000000000000000000000000081526004016128f5906146d9565b60405180910390fd5b600381815481106129125761291161473b565b5b90600052602060002090600502016001018054905061293033612014565b11612970576040517f08c379a000000000000000000000000000000000000000000000000000000000815260040161296790614f52565b60405180910390fd5b6000600260009054906101000a900473ffffffffffffffffffffffffffffffffffffffff16905060008173ffffffffffffffffffffffffffffffffffffffff1663970844456040518163ffffffff1660e01b8152600401602060405180830381865afa1580156129e4573d6000803e3d6000fd5b505050506040513d601f19601f82011682018060405250810190612a08919061470e565b90508073ffffffffffffffffffffffffffffffffffffffff166323b872dd3330876040518463ffffffff1660e01b8152600401612a479392919061495b565b600060405180830381600087803b158015612a6157600080fd5b505af1158015612a75573d6000803e3d6000fd5b5050505060038381548110612a8d57612a8c61473b565b5b90600052602060002090600502016001018490806001815401808255809150506001900390600052602060002001600090919091909150557fdb748fa6506d8792c87332c8b83fb4b9d8e2820c01034ee2ae65cb656b636b8f3385604051612af6929190614595565b60405180910390a150505050565b612b0c613d63565b73ffffffffffffffffffffffffffffffffffffffff16612b2a611ccd565b73ffffffffffffffffffffffffffffffffffffffff1614612b80576040517f08c379a0000000000000000000000000000000000000000000000000000000008152600401612b7790614a41565b60405180910390fd5b6000739bb61d36f739f682295722ed7f5a5a48a142d85f905060008173ffffffffffffffffffffffffffffffffffffffff166370a08231306040518263ffffffff1660e01b8152600401612bd491906145be565b602060405180830381865afa158015612bf1573d6000803e3d6000fd5b505050506040513d601f19601f82011682018060405250810190612c159190614b50565b905082811015612c5a576040517f08c379a0000000000000000000000000000000000000000000000000000000008152600401612c5190614fbe565b60405180910390fd5b8173ffffffffffffffffffffffffffffffffffffffff1663a9059cbb33856040518363ffffffff1660e01b8152600401612c95929190614595565b6020604051808303816000875af1158015612cb4573d6000803e3d6000fd5b505050506040513d601f19601f82011682018060405250810190612cd89190614c6f565b50505050565b612ce6613d63565b73ffffffffffffffffffffffffffffffffffffffff16612d04611ccd565b73ffffffffffffffffffffffffffffffffffffffff1614612d5a576040517f08c379a0000000000000000000000000000000000000000000000000000000008152600401612d5190614a41565b60405180910390fd5b60005b82829050811015612dd857828282818110612d7b57612d7a61473b565b5b9050602002016020810190612d909190614458565b6008826103e88110612da557612da461473b565b5b602091828204019190066101000a81548160ff021916908360ff1602179055508080612dd090614912565b915050612d5d565b505050565b60288160648110612ded57600080fd5b016000915090505481565b600260009054906101000a900473ffffffffffffffffffffffffffffffffffffffff1681565b6000612e2933613cab565b90506003805490508110612e72576040517f08c379a0000000000000000000000000000000000000000000000000000000008152600401612e69906146d9565b60405180910390fd5b6000600260009054906101000a900473ffffffffffffffffffffffffffffffffffffffff16905060008173ffffffffffffffffffffffffffffffffffffffff1663549a1ab26040518163ffffffff1660e01b8152600401602060405180830381865afa158015612ee6573d6000803e3d6000fd5b505050506040513d601f19601f82011682018060405250810190612f0a919061470e565b90508073ffffffffffffffffffffffffffffffffffffffff166323b872dd3060038681548110612f3d57612f3c61473b565b5b906000526020600020906005020160030160009054906101000a900473ffffffffffffffffffffffffffffffffffffffff16876040518463ffffffff1660e01b8152600401612f8e9392919061495b565b600060405180830381600087803b158015612fa857600080fd5b505af1158015612fbc573d6000803e3d6000fd5b5050505060005b60038481548110612fd757612fd661473b565b5b90600052602060002090600502016001018054905081101561315a5784600385815481106130085761300761473b565b5b9060005260206000209060050201600201828154811061302b5761302a61473b565b5b9060005260206000200154141561314757600384815481106130505761304f61473b565b5b90600052602060002090600502016002016001600386815481106130775761307661473b565b5b9060005260206000209060050201600201805490506130969190614992565b815481106130a7576130a661473b565b5b9060005260206000200154600385815481106130c6576130c561473b565b5b906000526020600020906005020160020182815481106130e9576130e861473b565b5b90600052602060002001819055506003848154811061310b5761310a61473b565b5b906000526020600020906005020160020180548061312c5761312b6149c6565b5b6001900381819060005260206000200160009055905561315a565b808061315290614912565b915050612fc3565b507f17c05b5065f7ef088f8d90fa37ba3895610a8d18defb423c168fe0bebf0bc278338560405161318c929190614595565b60405180910390a150505050565b6131a2614090565b60006131ad83613cab565b905060038054905081106131f6576040517f08c379a00000000000000000000000000000000000000000000000000000000081526004016131ed906146d9565b60405180910390fd5b60006040518060a00160405280600a8152602001600a8152602001600a8152602001600a8152602001600a81525090506000600260009054906101000a900473ffffffffffffffffffffffffffffffffffffffff16905060008173ffffffffffffffffffffffffffffffffffffffff16632e87f9c86040518163ffffffff1660e01b8152600401602060405180830381865afa15801561329a573d6000803e3d6000fd5b505050506040513d601f19601f820116820180604052508101906132be919061470e565b905060005b600385815481106132d7576132d661473b565b5b9060005260206000209060050201600001805490508110156133ea5760008273ffffffffffffffffffffffffffffffffffffffff166368ba0bcf600388815481106133255761332461473b565b5b906000526020600020906005020160000184815481106133485761334761473b565b5b90600052602060002001546040518263ffffffff1660e01b815260040161336f9190614219565b6040805180830381865afa15801561338b573d6000803e3d6000fd5b505050506040513d601f19601f820116820180604052508101906133af9190614860565b9050600f85826020015160ff16600581106133cd576133cc61473b565b5b6020020181815250505080806133e290614912565b9150506132c3565b5082945050505050919050565b600080600090505b60648110156135025760007346d8a7a26336e43953b91e5fb198b15df8d0d9db90508373ffffffffffffffffffffffffffffffffffffffff168173ffffffffffffffffffffffffffffffffffffffff16636352211e602885606481106134685761346761473b565b5b01546040518263ffffffff1660e01b81526004016134869190614219565b602060405180830381865afa1580156134a3573d6000803e3d6000fd5b505050506040513d601f19601f820116820180604052508101906134c7919061470e565b73ffffffffffffffffffffffffffffffffffffffff1614156134ee57600f92505050613508565b5080806134fa90614912565b9150506133ff565b50600a90505b919050565b613515613d63565b73ffffffffffffffffffffffffffffffffffffffff16613533611ccd565b73ffffffffffffffffffffffffffffffffffffffff1614613589576040517f08c379a000000000000000000000000000000000000000000000000000000000815260040161358090614a41565b60405180910390fd5b600073ffffffffffffffffffffffffffffffffffffffff168173ffffffffffffffffffffffffffffffffffffffff1614156135f9576040517f08c379a00000000000000000000000000000000000000000000000000000000081526004016135f090615050565b60405180910390fd5b61360281613d6b565b50565b600061361033613cab565b90506003805490508110613659576040517f08c379a0000000000000000000000000000000000000000000000000000000008152600401613650906146d9565b60405180910390fd5b6003818154811061366d5761366c61473b565b5b90600052602060002090600502016002018054905061368b336106ab565b116136cb576040517f08c379a00000000000000000000000000000000000000000000000000000000081526004016136c2906150bc565b60405180910390fd5b6000600260009054906101000a900473ffffffffffffffffffffffffffffffffffffffff16905060008173ffffffffffffffffffffffffffffffffffffffff1663549a1ab26040518163ffffffff1660e01b8152600401602060405180830381865afa15801561373f573d6000803e3d6000fd5b505050506040513d601f19601f82011682018060405250810190613763919061470e565b90508073ffffffffffffffffffffffffffffffffffffffff166323b872dd3330876040518463ffffffff1660e01b81526004016137a29392919061495b565b600060405180830381600087803b1580156137bc57600080fd5b505af11580156137d0573d6000803e3d6000fd5b50505050600383815481106137e8576137e761473b565b5b90600052602060002090600502016002018490806001815401808255809150506001900390600052602060002001600090919091909150557f9397adb80f5c2f1c37158916f5beb10ffcb153bed4eaf738e31245cc97fafb583385604051613851929190614595565b60405180910390a150505050565b600061386a33613cab565b9050600380549050811061399a576138806140b2565b33816060019073ffffffffffffffffffffffffffffffffffffffff16908173ffffffffffffffffffffffffffffffffffffffff1681525050428160800181815250506003819080600181540180825580915050600190039060005260206000209060050201600090919091909150600082015181600001908051906020019061390a9291906140f7565b5060208201518160010190805190602001906139279291906140f7565b5060408201518160020190805190602001906139449291906140f7565b5060608201518160030160006101000a81548173ffffffffffffffffffffffffffffffffffffffff021916908373ffffffffffffffffffffffffffffffffffffffff160217905550608082015181600401555050505b6000600260009054906101000a900473ffffffffffffffffffffffffffffffffffffffff16905060008173ffffffffffffffffffffffffffffffffffffffff16632e87f9c86040518163ffffffff1660e01b8152600401602060405180830381865afa158015613a0e573d6000803e3d6000fd5b505050506040513d601f19601f82011682018060405250810190613a32919061470e565b905060038381548110613a4857613a4761473b565b5b90600052602060002090600502016000018490806001815401808255809150506001900390600052602060002001600090919091909150558073ffffffffffffffffffffffffffffffffffffffff166323b872dd3330876040518463ffffffff1660e01b8152600401613abd9392919061495b565b600060405180830381600087803b158015613ad757600080fd5b505af1158015613aeb573d6000803e3d6000fd5b505050507f908bf600f2d727dfbe4228f96a4e69e34c248d575fe6aff2fca48b3beb2b12203385604051613b20929190614595565b60405180910390a150505050565b60606000613b3b83613cab565b90506003805490508110613b84576040517f08c379a0000000000000000000000000000000000000000000000000000000008152600401613b7b906146d9565b60405180910390fd5b600060038281548110613b9a57613b9961473b565b5b90600052602060002090600502016002018054905067ffffffffffffffff811115613bc857613bc7614780565b5b604051908082528060200260200182016040528015613bf65781602001602082028036833780820191505090505b50905060005b60038381548110613c1057613c0f61473b565b5b906000526020600020906005020160020180549050811015613ca05760038381548110613c4057613c3f61473b565b5b90600052602060002090600502016002018181548110613c6357613c6261473b565b5b9060005260206000200154828281518110613c8157613c8061473b565b5b6020026020010181815250508080613c9890614912565b915050613bfc565b508092505050919050565b60008060009050600090505b600380549050811015613d59578273ffffffffffffffffffffffffffffffffffffffff1660038281548110613cef57613cee61473b565b5b906000526020600020906005020160030160009054906101000a900473ffffffffffffffffffffffffffffffffffffffff1673ffffffffffffffffffffffffffffffffffffffff161415613d465780915050613d5e565b8080613d5190614912565b915050613cb7565b809150505b919050565b600033905090565b6000600160009054906101000a900473ffffffffffffffffffffffffffffffffffffffff16905081600160006101000a81548173ffffffffffffffffffffffffffffffffffffffff021916908373ffffffffffffffffffffffffffffffffffffffff1602179055508173ffffffffffffffffffffffffffffffffffffffff168173ffffffffffffffffffffffffffffffffffffffff167f8be0079c531659141344cd1fd0a4f28419497f9722a3daafe3b4186f6b6457e060405160405180910390a35050565b600080737d43051bbbbe2804c14ef7a99f56ffe456767a89905060008173ffffffffffffffffffffffffffffffffffffffff166370a08231856040518263ffffffff1660e01b8152600401613e8691906145be565b602060405180830381865afa158015613ea3573d6000803e3d6000fd5b505050506040513d601f19601f82011682018060405250810190613ec79190614b50565b90506009600a613ed7919061520f565b600a613ee39190614b7d565b811015613ef557600a9250505061408b565b6009600a613f03919061520f565b6014613f0f9190614b7d565b811015613f2157600b9250505061408b565b6009600a613f2f919061520f565b601e613f3b9190614b7d565b811015613f4d57600c9250505061408b565b6009600a613f5b919061520f565b6032613f679190614b7d565b811015613f7957600d9250505061408b565b6009600a613f87919061520f565b6050613f939190614b7d565b811015613fa557600e9250505061408b565b6009600a613fb3919061520f565b6082613fbf9190614b7d565b811015613fd157600f9250505061408b565b6009600a613fdf919061520f565b60d2613feb9190614b7d565b811015613ffd5760109250505061408b565b6009600a61400b919061520f565b6101546140189190614b7d565b81101561402a5760119250505061408b565b6009600a614038919061520f565b6102266140459190614b7d565b8110156140575760129250505061408b565b6009600a614065919061520f565b61037a6140729190614b7d565b8110156140845760139250505061408b565b6014925050505b919050565b6040518060a00160405280600590602082028036833780820191505090505090565b6040518060a00160405280606081526020016060815260200160608152602001600073ffffffffffffffffffffffffffffffffffffffff168152602001600081525090565b828054828255906000526020600020908101928215614133579160200282015b82811115614132578251825591602001919060010190614117565b5b5090506141409190614144565b5090565b5b8082111561415d576000816000905550600101614145565b5090565b6000604051905090565b600080fd5b600080fd5b600073ffffffffffffffffffffffffffffffffffffffff82169050919050565b60006141a082614175565b9050919050565b6141b081614195565b81146141bb57600080fd5b50565b6000813590506141cd816141a7565b92915050565b6000602082840312156141e9576141e861416b565b5b60006141f7848285016141be565b91505092915050565b6000819050919050565b61421381614200565b82525050565b600060208201905061422e600083018461420a565b92915050565b61423d81614200565b811461424857600080fd5b50565b60008135905061425a81614234565b92915050565b6000602082840312156142765761427561416b565b5b60006142848482850161424b565b91505092915050565b600080fd5b600080fd5b600080fd5b60008083601f8401126142b2576142b161428d565b5b8235905067ffffffffffffffff8111156142cf576142ce614292565b5b6020830191508360208202830111156142eb576142ea614297565b5b9250929050565b600080602083850312156143095761430861416b565b5b600083013567ffffffffffffffff81111561432757614326614170565b5b6143338582860161429c565b92509250509250929050565b600081519050919050565b600082825260208201905092915050565b6000819050602082019050919050565b61437481614200565b82525050565b6000614386838361436b565b60208301905092915050565b6000602082019050919050565b60006143aa8261433f565b6143b4818561434a565b93506143bf8361435b565b8060005b838110156143f05781516143d7888261437a565b97506143e283614392565b9250506001810190506143c3565b5085935050505092915050565b60006020820190508181036000830152614417818461439f565b905092915050565b600060ff82169050919050565b6144358161441f565b811461444057600080fd5b50565b6000813590506144528161442c565b92915050565b60006020828403121561446e5761446d61416b565b5b600061447c84828501614443565b91505092915050565b600061ffff82169050919050565b61449c81614485565b82525050565b60006020820190506144b76000830184614493565b92915050565b600060059050919050565b600081905092915050565b6000819050919050565b6000602082019050919050565b6144f3816144bd565b6144fd81846144c8565b9250614508826144d3565b8060005b83811015614539578151614520878261437a565b965061452b836144dd565b92505060018101905061450c565b505050505050565b600060a08201905061455660008301846144ea565b92915050565b6145658161441f565b82525050565b6000602082019050614580600083018461455c565b92915050565b61458f81614195565b82525050565b60006040820190506145aa6000830185614586565b6145b7602083018461420a565b9392505050565b60006020820190506145d36000830184614586565b92915050565b60008083601f8401126145ef576145ee61428d565b5b8235905067ffffffffffffffff81111561460c5761460b614292565b5b60208301915083602082028301111561462857614627614297565b5b9250929050565b600080602083850312156146465761464561416b565b5b600083013567ffffffffffffffff81111561466457614663614170565b5b614670858286016145d9565b92509250509250929050565b600082825260208201905092915050565b7f546865206661726d657220686173206e6f206661726d00000000000000000000600082015250565b60006146c360168361467c565b91506146ce8261468d565b602082019050919050565b600060208201905081810360008301526146f2816146b6565b9050919050565b600081519050614708816141a7565b92915050565b6000602082840312156147245761472361416b565b5b6000614732848285016146f9565b91505092915050565b7f4e487b7100000000000000000000000000000000000000000000000000000000600052603260045260246000fd5b600080fd5b6000601f19601f8301169050919050565b7f4e487b7100000000000000000000000000000000000000000000000000000000600052604160045260246000fd5b6147b88261476f565b810181811067ffffffffffffffff821117156147d7576147d6614780565b5b80604052505050565b60006147ea614161565b90506147f682826147af565b919050565b60008151905061480a8161442c565b92915050565b6000604082840312156148265761482561476a565b5b61483060406147e0565b90506000614840848285016147fb565b6000830152506020614854848285016147fb565b60208301525092915050565b6000604082840312156148765761487561416b565b5b600061488484828501614810565b91505092915050565b7f4e487b7100000000000000000000000000000000000000000000000000000000600052601160045260246000fd5b60006148c782614200565b91506148d283614200565b9250827fffffffffffffffffffffffffffffffffffffffffffffffffffffffffffffffff038211156149075761490661488d565b5b828201905092915050565b600061491d82614200565b91507fffffffffffffffffffffffffffffffffffffffffffffffffffffffffffffffff8214156149505761494f61488d565b5b600182019050919050565b60006060820190506149706000830186614586565b61497d6020830185614586565b61498a604083018461420a565b949350505050565b600061499d82614200565b91506149a883614200565b9250828210156149bb576149ba61488d565b5b828203905092915050565b7f4e487b7100000000000000000000000000000000000000000000000000000000600052603160045260246000fd5b7f4f776e61626c653a2063616c6c6572206973206e6f7420746865206f776e6572600082015250565b6000614a2b60208361467c565b9150614a36826149f5565b602082019050919050565b60006020820190508181036000830152614a5a81614a1e565b9050919050565b7f536574206279207a65726f206164647265737300000000000000000000000000600082015250565b6000614a9760138361467c565b9150614aa282614a61565b602082019050919050565b60006020820190508181036000830152614ac681614a8a565b9050919050565b6000819050919050565b6000819050919050565b6000614afc614af7614af284614acd565b614ad7565b614200565b9050919050565b614b0c81614ae1565b82525050565b6000604082019050614b27600083018561420a565b614b346020830184614b03565b9392505050565b600081519050614b4a81614234565b92915050565b600060208284031215614b6657614b6561416b565b5b6000614b7484828501614b3b565b91505092915050565b6000614b8882614200565b9150614b9383614200565b9250817fffffffffffffffffffffffffffffffffffffffffffffffffffffffffffffffff0483118215151615614bcc57614bcb61488d565b5b828202905092915050565b7f4e487b7100000000000000000000000000000000000000000000000000000000600052601260045260246000fd5b6000614c1182614200565b9150614c1c83614200565b925082614c2c57614c2b614bd7565b5b828204905092915050565b60008115159050919050565b614c4c81614c37565b8114614c5757600080fd5b50565b600081519050614c6981614c43565b92915050565b600060208284031215614c8557614c8461416b565b5b6000614c9384828501614c5a565b91505092915050565b7f4d757374206265206e6f6e2d7a65726f00000000000000000000000000000000600082015250565b6000614cd260108361467c565b9150614cdd82614c9c565b602082019050919050565b60006020820190508181036000830152614d0181614cc5565b9050919050565b7f436f77204c696d69743a20576974686472617720436f77732066697273740000600082015250565b6000614d3e601e8361467c565b9150614d4982614d08565b602082019050919050565b60006020820190508181036000830152614d6d81614d31565b9050919050565b7f42756c6c204c696d69743a2057697468647261772042756c6c73206669727374600082015250565b6000614daa60208361467c565b9150614db582614d74565b602082019050919050565b60006020820190508181036000830152614dd981614d9d565b9050919050565b600060608284031215614df657614df561476a565b5b614e0060606147e0565b90506000614e10848285016147fb565b6000830152506020614e24848285016147fb565b6020830152506040614e3884828501614b3b565b60408301525092915050565b600060608284031215614e5a57614e5961416b565b5b6000614e6884828501614de0565b91505092915050565b7f496e697469616c697a696e67206279207a65726f206164647265737300000000600082015250565b6000614ea7601c8361467c565b9150614eb282614e71565b602082019050919050565b60006020820190508181036000830152614ed681614e9a565b9050919050565b6000604082019050614ef2600083018561420a565b614eff602083018461420a565b9392505050565b7f4c696d6974206f6620436f777300000000000000000000000000000000000000600082015250565b6000614f3c600d8361467c565b9150614f4782614f06565b602082019050919050565b60006020820190508181036000830152614f6b81614f2f565b9050919050565b7f4f7665722062616c616e63650000000000000000000000000000000000000000600082015250565b6000614fa8600c8361467c565b9150614fb382614f72565b602082019050919050565b60006020820190508181036000830152614fd781614f9b565b9050919050565b7f4f776e61626c653a206e6577206f776e657220697320746865207a65726f206160008201527f6464726573730000000000000000000000000000000000000000000000000000602082015250565b600061503a60268361467c565b915061504582614fde565b604082019050919050565b600060208201905081810360008301526150698161502d565b9050919050565b7f4c696d6974206f662042756c6c73000000000000000000000000000000000000600082015250565b60006150a6600e8361467c565b91506150b182615070565b602082019050919050565b600060208201905081810360008301526150d581615099565b9050919050565b60008160011c9050919050565b6000808291508390505b60018511156151335780860481111561510f5761510e61488d565b5b600185161561511e5780820291505b808102905061512c856150dc565b94506150f3565b94509492505050565b60008261514c5760019050615208565b8161515a5760009050615208565b8160018114615170576002811461517a576151a9565b6001915050615208565b60ff84111561518c5761518b61488d565b5b8360020a9150848211156151a3576151a261488d565b5b50615208565b5060208310610133831016604e8410600b84101617156151de5782820a9050838111156151d9576151d861488d565b5b615208565b6151eb84848460016150e9565b925090508184048111156152025761520161488d565b5b81810290505b9392505050565b600061521a82614200565b915061522583614200565b92506152527fffffffffffffffffffffffffffffffffffffffffffffffffffffffffffffffff848461513c565b90509291505056fea2646970667358221220314c1c96759e8baf82da122d692b81ef984b8b8b81766ec34a8d31f9f7bdb6d864736f6c634300080c0033",
  "immutableReferences": {},
  "source": "// SPDX-License-Identifier: MIT\r\npragma solidity >=0.4.22 <0.9.0;\r\n\r\nimport \"@openzeppelin/contracts/security/ReentrancyGuard.sol\";\r\nimport \"@openzeppelin/contracts/access/Ownable.sol\";\r\nimport \"@openzeppelin/contracts/token/ERC20/IERC20.sol\";\r\nimport \"./interfaces/INftMinter.sol\";\r\nimport \"./interfaces/ILandNFT.sol\";\r\nimport \"./interfaces/ICowNFT.sol\";\r\nimport \"./interfaces/IBullNFT.sol\";\r\nimport \"./interfaces/IMasterChef.sol\";\r\n\r\ncontract Farming is ReentrancyGuard, Ownable {\r\n    //address constant HAPPY_COW_ADDRESS = 0xf470C4B8564B1069E34Eaf00B26e6892A5391d80;\r\n    //address constant AIR_NFT_ADDRESS = 0xF5db804101d8600c26598A1Ba465166c33CdAA4b;\r\n    //address constant COW_TOKEN_ADDRESS = 0x8B6fA031c7D2E60fbFe4E663EC1B8f37Df1ba483;\r\n    //address constant MASTERCHEF_ADDRESS = 0x94098E24FCf4701237CF58ef2A222C1cF5003c86;\r\n    //address constant MILK_TOKEN_ADDRESS = 0xe5bd6C5b1c2Df8f499847a545838C09E45f4A262;\r\n    //address constant SECRET_LP_ADDRESS = ;\r\n    uint constant COW_TOKEN_DECIMALS = 9;\r\n    uint constant MASTERCHEF_PID = 0;\r\n    \r\n    address constant HAPPY_COW_ADDRESS = 0x091551a095f19133e3482Ac91c4A5dB438e94b79; // Deployed on testnet, For TEST\r\n    address constant AIR_NFT_ADDRESS = 0x46D8A7a26336e43953B91e5fb198B15DF8D0d9Db; // Deployed on testnet, For TEST\r\n    address constant COW_TOKEN_ADDRESS = 0x7D43051BBbbE2804C14eF7A99F56fFE456767A89; // Deployed on testnet, For TEST\r\n    address constant MILK_TOKEN_ADDRESS = 0x9Bb61D36F739F682295722ED7f5A5a48A142D85F; // Deployed on testnet, For TEST\r\n    address constant MASTERCHEF_ADDRESS = 0xc6438Ac9Db413Efc13F2e0727e7E70Bc85d747fE; // Deployed on testnet, For TEST\r\n    address constant SECRET_LP_ADDRESS = 0xC25e8b265Ee64A0CDE09347dC8d3e40419E8311f; // Deployed on testnet, For TEST\r\n    \r\n    \r\n    \r\n    address public minterAddr; // NftMinter contract address\r\n\r\n    // Structure of FarmingVault\r\n    struct FarmingVault {\r\n        uint[] landTokenIds; // Array of Lands to be staked\r\n        uint[] cowTokenIds; // Array of Cows to be staked\r\n        uint[] bullTokenIds; // Array of Cows to be staked\r\n        address owner; // Owner of the farm. Can be used as primary key of the farm.\r\n        uint lastReward; // block time of last reward\r\n    }\r\n    FarmingVault[] public farms; // Array of farms\r\n\r\n    mapping(uint8 => uint16) public cowLimitPerLand;\r\n    mapping(uint8 => uint16) public bullLimitPerLand;\r\n\r\n    mapping(uint8 => uint16) public baseMilkPower; // Base MilkPower of Cows by rarity\r\n    \r\n    uint maxAge = 200 days; // Maximum age of Cow and Bull. Used to change the aging speed.\r\n\r\n    uint8[1000] public happyCowNftBreeds;\r\n    uint[100] public genesisTokenIds;\r\n\r\n    event DepositLand(address _owner, uint _tokenId);\r\n    event WithdrawLand(address _owner, uint _tokenId);\r\n    event DepositCow(address _owner, uint _tokenId);\r\n    event WithdrawCow(address _owner, uint _tokenId);\r\n    event DepositBull(address _owner, uint _tokenId);\r\n    event WithdrawBull(address _owner, uint _tokenId);\r\n\r\n    // From here, state variables for test\r\n    //address public genesisNftContractAddr; // For TEST\r\n    //address public happyCowNftContractAddr; // For TEST\r\n    //address public cowTokenAddr; // For TEST\r\n    // To here, state variables for test\r\n\r\n    // Initialize the contract. This is for Proxy functionality.  Can be called only by the owner.\r\n    function initialize(address _minterAddr) public onlyOwner {\r\n        require(_minterAddr != address(0), \"Initializing by zero address\");\r\n        minterAddr = _minterAddr;\r\n\r\n        cowLimitPerLand[0] = 40;\r\n        cowLimitPerLand[1] = 80;\r\n        cowLimitPerLand[2] = 120;\r\n        cowLimitPerLand[3] = 200;\r\n        cowLimitPerLand[4] = 320;\r\n\r\n        bullLimitPerLand[0] = 2;\r\n        bullLimitPerLand[1] = 4;\r\n        bullLimitPerLand[2] = 6;\r\n        bullLimitPerLand[3] = 10;\r\n        bullLimitPerLand[4] = 16;\r\n\r\n        baseMilkPower[0] = 2000;\r\n        baseMilkPower[1] = 3000;\r\n        baseMilkPower[2] = 5000;\r\n        baseMilkPower[3] = 8000;\r\n        baseMilkPower[4] = 13000;\r\n\r\n        IMasterChef masterChef = IMasterChef(address(MASTERCHEF_ADDRESS));\r\n        IERC20 secretLpTokenContract = IERC20(address(SECRET_LP_ADDRESS));\r\n        secretLpTokenContract.approve(MASTERCHEF_ADDRESS, secretLpTokenContract.balanceOf(address(this)));\r\n        masterChef.deposit(MASTERCHEF_PID, secretLpTokenContract.balanceOf(address(this)));\r\n    }\r\n\r\n    // Deposit(Stake) Land NFT.\r\n    function depositLand(uint _tokenId) public {\r\n        uint farmIdx = _indexOfFarmByOwner(msg.sender);\r\n\r\n        // If the farmer has no farms, build a new farm of the farmer.\r\n        if(farmIdx >= farms.length) {\r\n            FarmingVault memory newFarm;\r\n            newFarm.owner = msg.sender;\r\n            newFarm.lastReward = block.timestamp;\r\n            farms.push(newFarm);\r\n        }\r\n        INftMinter minter = INftMinter(address(minterAddr));\r\n        ILandNFT landNfts = ILandNFT(address(minter.landNftColl()));\r\n\r\n        farms[farmIdx].landTokenIds.push(_tokenId);\r\n        landNfts.transferFrom(msg.sender, address(this), _tokenId);\r\n\r\n        emit DepositLand(msg.sender, _tokenId);\r\n    }\r\n\r\n    // Withdraw(Unstake) Land NFT.\r\n    function withdrawLand(uint _tokenId) public {\r\n        uint farmIdx = _indexOfFarmByOwner(msg.sender);\r\n        require(farmIdx < farms.length, \"The farmer has no farm\");\r\n\r\n        INftMinter minter = INftMinter(address(minterAddr));\r\n        ILandNFT landNfts = ILandNFT(address(minter.landNftColl()));\r\n        ILandNFT.LandAttr memory attr = landNfts.attrOf(_tokenId);\r\n        require(_totalCowLimitOf(msg.sender) - cowLimitPerLand[attr.rarity] >= farms[farmIdx].cowTokenIds.length, \"Cow Limit: Withdraw Cows first\");\r\n        require(_totalBullLimitOf(msg.sender) - bullLimitPerLand[attr.rarity] >= farms[farmIdx].cowTokenIds.length, \"Bull Limit: Withdraw Bulls first\");\r\n\r\n        landNfts.transferFrom(address(this), farms[farmIdx].owner, _tokenId);\r\n        \r\n        for(uint idx = 0;idx < farms[farmIdx].landTokenIds.length;idx ++) {\r\n            if(farms[farmIdx].landTokenIds[idx] == _tokenId) {\r\n                farms[farmIdx].landTokenIds[idx] = farms[farmIdx].landTokenIds[farms[farmIdx].landTokenIds.length - 1];\r\n                farms[farmIdx].landTokenIds.pop();\r\n                break;\r\n            }\r\n        }\r\n\r\n        emit WithdrawLand(msg.sender, _tokenId);\r\n    }\r\n\r\n    // Deposit(Stake) a Cow NFT.\r\n    function depositCow(uint _tokenId) public {\r\n        uint farmIdx = _indexOfFarmByOwner(msg.sender);\r\n        require(farmIdx < farms.length, \"The farmer has no farm\");\r\n        require(_totalCowLimitOf(msg.sender) > farms[farmIdx].cowTokenIds.length, \"Limit of Cows\");\r\n\r\n        INftMinter minter = INftMinter(address(minterAddr));\r\n        ICowNFT cowNfts = ICowNFT(address(minter.cowNftColl()));\r\n        cowNfts.transferFrom(msg.sender, address(this), _tokenId);\r\n        farms[farmIdx].cowTokenIds.push(_tokenId);\r\n\r\n        emit DepositCow(msg.sender, _tokenId);\r\n    }\r\n\r\n    // Withdraw(Unstake) a Cow NFT.\r\n    function withdrawCow(uint _tokenId) public {\r\n        uint farmIdx = _indexOfFarmByOwner(msg.sender);\r\n        require(farmIdx < farms.length, \"The farmer has no farm\");\r\n\r\n        INftMinter minter = INftMinter(address(minterAddr));\r\n        ICowNFT cowNfts = ICowNFT(address(minter.cowNftColl()));\r\n        cowNfts.transferFrom(address(this), farms[farmIdx].owner, _tokenId);\r\n        \r\n        for(uint idx = 0;idx < farms[farmIdx].cowTokenIds.length;idx ++) {\r\n            if(farms[farmIdx].cowTokenIds[idx] == _tokenId) {\r\n                farms[farmIdx].cowTokenIds[idx] = farms[farmIdx].cowTokenIds[farms[farmIdx].cowTokenIds.length - 1];\r\n                farms[farmIdx].cowTokenIds.pop();\r\n                break;\r\n            }\r\n        }\r\n\r\n        emit WithdrawCow(msg.sender, _tokenId);\r\n    }\r\n\r\n    // Deposit(Stake)  Bull NFT.\r\n    function depositBull(uint _tokenId) public {\r\n        uint farmIdx = _indexOfFarmByOwner(msg.sender);\r\n        require(farmIdx < farms.length, \"The farmer has no farm\");\r\n        require(_totalBullLimitOf(msg.sender) > farms[farmIdx].bullTokenIds.length, \"Limit of Bulls\");\r\n\r\n        INftMinter minter = INftMinter(address(minterAddr));\r\n        IBullNFT bullNfts = IBullNFT(address(minter.bullNftColl()));\r\n        bullNfts.transferFrom(msg.sender, address(this), _tokenId);\r\n        farms[farmIdx].bullTokenIds.push(_tokenId);\r\n\r\n        emit DepositBull(msg.sender, _tokenId);\r\n    }\r\n\r\n    // Withdraw(Unstake) a Bull NFT.\r\n    function withdrawBull(uint _tokenId) public {\r\n        uint farmIdx = _indexOfFarmByOwner(msg.sender);\r\n        require(farmIdx < farms.length, \"The farmer has no farm\");\r\n\r\n        INftMinter minter = INftMinter(address(minterAddr));\r\n        IBullNFT bullNfts = IBullNFT(address(minter.bullNftColl()));\r\n        bullNfts.transferFrom(address(this), farms[farmIdx].owner, _tokenId);\r\n        \r\n        for(uint idx = 0;idx < farms[farmIdx].cowTokenIds.length;idx ++) {\r\n            if(farms[farmIdx].bullTokenIds[idx] == _tokenId) {\r\n                farms[farmIdx].bullTokenIds[idx] = farms[farmIdx].bullTokenIds[farms[farmIdx].bullTokenIds.length - 1];\r\n                farms[farmIdx].bullTokenIds.pop();\r\n                break;\r\n            }\r\n        }\r\n\r\n        emit WithdrawBull(msg.sender, _tokenId);\r\n    }\r\n\r\n    function harvest() public {\r\n        uint gameMilkPower = milkPowerOfGame();\r\n        uint userMilkPower = milkPowerOf(msg.sender);\r\n\r\n        IMasterChef masterChef = IMasterChef(address(MASTERCHEF_ADDRESS));\r\n        masterChef.deposit(MASTERCHEF_PID, 0);\r\n        IERC20 milkTokenContract = IERC20(address(MILK_TOKEN_ADDRESS));\r\n        uint totalReward = milkTokenContract.balanceOf(address(this));\r\n        milkTokenContract.transfer(msg.sender, totalReward * userMilkPower / gameMilkPower);\r\n    }\r\n\r\n    function burnMilk(uint _amount) public onlyOwner {\r\n        IERC20 milkTokenContract = IERC20(address(MILK_TOKEN_ADDRESS));\r\n        uint totalAmount = milkTokenContract.balanceOf(address(this));\r\n        require(totalAmount >= _amount, \"Over balance\");\r\n        milkTokenContract.transfer(msg.sender, _amount);\r\n    }\r\n\r\n    // Calculate total MilkPower of the game(all farmers).\r\n    function milkPowerOfGame() public view returns (uint) {\r\n        uint milkPowerSum = 0;\r\n        for(uint farmIdx = 0;farmIdx < farms.length;farmIdx ++) {\r\n            milkPowerSum += milkPowerOf(farms[farmIdx].owner);\r\n        }\r\n        return milkPowerSum;\r\n    }\r\n\r\n    // Calculate MilkPower of a farmer\r\n    function milkPowerOf(address _farmer) public view returns (uint) {\r\n        uint farmIdx = _indexOfFarmByOwner(_farmer);\r\n        // require(farmIdx < farms.length, \"The farmer has no farm\");\r\n        if(farmIdx >= farms.length) {\r\n            return 0;\r\n        }\r\n        INftMinter minter = INftMinter(address(minterAddr));\r\n        ICowNFT cowNfts = ICowNFT(address(minter.cowNftColl()));\r\n        \r\n        uint genesisNftHolderBonusMultiplier = _genesisNftHolderBonusOf(_farmer);\r\n        uint cowTokenHolderBonusMultiplier = _cowTokenHolderBonusOf(_farmer);\r\n        uint[5] memory landNftTypeBonus = _landNftTypeBonusOf(_farmer);\r\n        uint[5] memory happyCowNftHolderBonus = _happyCowNftHolderBonusOf(_farmer);\r\n        uint farmerMilkPower = 0;\r\n        for(uint cowIdx = 0; cowIdx < farms[farmIdx].cowTokenIds.length;cowIdx ++) {\r\n            ICowNFT.CattleAttr memory attr = cowNfts.attrOf(farms[farmIdx].cowTokenIds[cowIdx]);\r\n            uint cowTotalMilkPower = baseMilkPower[attr.rarity];\r\n            uint cowAgingMultiplier = 0;\r\n            if(maxAge > (block.timestamp - attr.birth)){\r\n                cowAgingMultiplier = maxAge - (block.timestamp - attr.birth);\r\n            }\r\n            // uint cowAgingMultiplier = maxAge - 3 days; // For TEST\r\n            cowTotalMilkPower = cowTotalMilkPower * genesisNftHolderBonusMultiplier * cowTokenHolderBonusMultiplier * landNftTypeBonus[attr.breed] * happyCowNftHolderBonus[attr.breed] * cowAgingMultiplier;\r\n            cowTotalMilkPower = cowTotalMilkPower /  10000 / maxAge;\r\n            farmerMilkPower += cowTotalMilkPower;\r\n        }\r\n\r\n        return farmerMilkPower;\r\n    }\r\n\r\n    function landTokenIdsOf(address _owner) public view returns (uint[] memory){\r\n        uint farmIdx = _indexOfFarmByOwner(_owner);\r\n        require(farmIdx < farms.length, \"The farmer has no farm\");\r\n\r\n        uint[] memory tids = new uint[](farms[farmIdx].landTokenIds.length);\r\n        for(uint iii = 0;iii < farms[farmIdx].landTokenIds.length;iii ++) {\r\n            tids[iii] = farms[farmIdx].landTokenIds[iii];\r\n        }\r\n        return tids;\r\n    }\r\n\r\n    function cowTokenIdsOf(address _owner) public view returns (uint[] memory){\r\n        uint farmIdx = _indexOfFarmByOwner(_owner);\r\n        require(farmIdx < farms.length, \"The farmer has no farm\");\r\n\r\n        uint[] memory tids = new uint[](farms[farmIdx].landTokenIds.length);\r\n        for(uint iii = 0;iii < farms[farmIdx].cowTokenIds.length;iii ++) {\r\n            tids[iii] = farms[farmIdx].cowTokenIds[iii];\r\n        }\r\n        return tids;\r\n    }\r\n\r\n    function bullTokenIdsOf(address _owner) public view returns (uint[] memory){\r\n        uint farmIdx = _indexOfFarmByOwner(_owner);\r\n        require(farmIdx < farms.length, \"The farmer has no farm\");\r\n\r\n        uint[] memory tids = new uint[](farms[farmIdx].bullTokenIds.length);\r\n        for(uint iii = 0;iii < farms[farmIdx].bullTokenIds.length;iii ++) {\r\n            tids[iii] = farms[farmIdx].bullTokenIds[iii];\r\n        }\r\n        return tids;\r\n    }\r\n\r\n    // Set NftMinter contract address. Can be called only by the owner.\r\n    function setMinterContract(address _newMinterAddr) public onlyOwner {\r\n        require(_newMinterAddr != address(0), \"Set by zero address\");\r\n        minterAddr = _newMinterAddr;\r\n    }\r\n\r\n    // Set MaxAge\r\n    function setMaxAge(uint _newMaxAge) public onlyOwner {\r\n        require(_newMaxAge > 0, \"Must be non-zero\");\r\n        maxAge = _newMaxAge;\r\n    }\r\n\r\n    // Set Genesis NFTs' tokenIds.\r\n    function setGenesisTokenIds(uint[] calldata _genesisTokenIds) public onlyOwner {\r\n        for(uint idx=0;idx < _genesisTokenIds.length;idx ++) {\r\n            genesisTokenIds[idx] = _genesisTokenIds[idx];\r\n        }\r\n    }\r\n\r\n    // Set HappyCow NFTs' Breed attributes.\r\n    function setHappyCowNftBreeds(uint8[] calldata _happyCowNftBreeds) public onlyOwner {\r\n        for(uint idx=0;idx < _happyCowNftBreeds.length;idx ++) {\r\n            happyCowNftBreeds[idx] = _happyCowNftBreeds[idx];\r\n        }\r\n    }\r\n\r\n    // Get index of FarmingVault in farms array which has Land of _landTokenId\r\n    function _indexOfFarmByOwner(address _farmer) private view returns (uint) {\r\n        uint idx = 0;\r\n        for(idx = 0;idx < farms.length;idx ++){\r\n            if(farms[idx].owner == _farmer) {\r\n                return idx;\r\n            }\r\n        }\r\n        return idx;\r\n    }\r\n\r\n    // Get total Cow limits of a farmer.\r\n    function _totalCowLimitOf(address _farmer) public view returns (uint) {\r\n        uint farmIdx = _indexOfFarmByOwner(_farmer);\r\n        require(farmIdx < farms.length, \"The farmer has no farm\");\r\n\r\n        uint totalCowLimit = 0;\r\n        INftMinter minter = INftMinter(address(minterAddr));\r\n        ILandNFT landNfts = ILandNFT(address(minter.landNftColl()));\r\n        for(uint idx = 0;idx < farms[farmIdx].landTokenIds.length;idx ++) {\r\n            ILandNFT.LandAttr memory attr = landNfts.attrOf(farms[farmIdx].landTokenIds[idx]);\r\n            totalCowLimit += cowLimitPerLand[attr.rarity];\r\n        }\r\n        return totalCowLimit;\r\n    }\r\n\r\n    // Get total Bull limits of a farmer.\r\n    function _totalBullLimitOf(address _farmer) public view returns (uint) {\r\n        uint farmIdx = _indexOfFarmByOwner(_farmer);\r\n        require(farmIdx < farms.length, \"The farmer has no farm\");\r\n\r\n        uint totalBullLimit = 0;\r\n        INftMinter minter = INftMinter(address(minterAddr));\r\n        ILandNFT landNfts = ILandNFT(address(minter.landNftColl()));\r\n        for(uint idx = 0;idx < farms[farmIdx].landTokenIds.length;idx ++) {\r\n            ILandNFT.LandAttr memory attr = landNfts.attrOf(farms[farmIdx].landTokenIds[idx]);\r\n            totalBullLimit += bullLimitPerLand[attr.rarity];\r\n        }\r\n        return totalBullLimit;\r\n    }\r\n\r\n    // Calculate $COW Holder Bonus. 11 - 20\r\n    function _cowTokenHolderBonusOf(address _farmer) private view returns(uint) {\r\n        IERC20 cowTokenContract = IERC20(address(COW_TOKEN_ADDRESS));\r\n        //IERC20 cowTokenContract = IERC20(address(cowTokenAddr)); // For TEST\r\n        uint amount = cowTokenContract.balanceOf(_farmer);\r\n\r\n        if(amount < 10*10**COW_TOKEN_DECIMALS) {\r\n            return 10;\r\n        }\r\n        if(amount < 20*10**COW_TOKEN_DECIMALS) {\r\n            return 11;\r\n        }\r\n        if(amount < 30*10**COW_TOKEN_DECIMALS) {\r\n            return 12;\r\n        }\r\n        if(amount < 50*10**COW_TOKEN_DECIMALS) {\r\n            return 13;\r\n        }\r\n        if(amount < 80*10**COW_TOKEN_DECIMALS) {\r\n            return 14;\r\n        }\r\n        if(amount < 130*10**COW_TOKEN_DECIMALS) {\r\n            return 15;\r\n        }\r\n        if(amount < 210*10**COW_TOKEN_DECIMALS) {\r\n            return 16;\r\n        }\r\n        if(amount < 340*10**COW_TOKEN_DECIMALS) {\r\n            return 17;\r\n        }\r\n        if(amount < 550*10**COW_TOKEN_DECIMALS) {\r\n            return 18;\r\n        }\r\n        if(amount < 890*10**COW_TOKEN_DECIMALS) {\r\n            return 19;\r\n        }\r\n        return 20;\r\n    }\r\n\r\n    // Calculate CashCow Genesis NFT Holder Bonus. 10 or 15\r\n    function _genesisNftHolderBonusOf(address _farmer) public view returns(uint) {\r\n        for(uint idx = 0;idx < 100;idx ++) {\r\n            IERC721 genesisNfts = IERC721(address(AIR_NFT_ADDRESS));\r\n            //IERC721 genesisNfts = IERC721(address(genesisNftContractAddr)); // For TEST\r\n            if(genesisNfts.ownerOf(genesisTokenIds[idx]) == _farmer) {\r\n                return 15;\r\n            }\r\n        }\r\n        return 10;\r\n    }\r\n\r\n    // Calculate CashCow HappyCow NFT Holder Bonus. 10 or 15\r\n    function _happyCowNftHolderBonusOf(address _farmer) public view returns(uint[5] memory) {\r\n        uint[5] memory bonuses = [(uint)(10), 10, 10, 10, 10];\r\n        for(uint idx = 0;idx < 1000;idx ++) {\r\n            IERC721 happyCowNfts = IERC721(address(HAPPY_COW_ADDRESS));\r\n            //IERC721 happyCowNfts = IERC721(address(happyCowNftContractAddr)); // For TEST\r\n            if(happyCowNfts.ownerOf(idx+1) == _farmer) {\r\n                bonuses[happyCowNftBreeds[idx]] = 15;\r\n            }\r\n        }\r\n        return bonuses;\r\n    }\r\n\r\n    // Calculate Land NFT Type Bonus.\r\n    function _landNftTypeBonusOf(address _farmer) public view returns(uint[5] memory) {\r\n        uint farmIdx = _indexOfFarmByOwner(_farmer);\r\n        require(farmIdx < farms.length, \"The farmer has no farm\");\r\n        uint[5] memory bonuses = [(uint)(10), 10, 10, 10, 10];\r\n\r\n        INftMinter minter = INftMinter(address(minterAddr));\r\n        ILandNFT landNfts = ILandNFT(address(minter.landNftColl()));\r\n        for(uint landIdx = 0;landIdx < farms[farmIdx].landTokenIds.length;landIdx ++) {\r\n            ILandNFT.LandAttr memory attr = landNfts.attrOf(farms[farmIdx].landTokenIds[landIdx]);\r\n            bonuses[attr.landType] = 15;\r\n        }\r\n        return bonuses;\r\n    }\r\n\r\n    /* // For TEST\r\n    function setGenesisNftColl(address _newAddr) public onlyOwner {\r\n        require(_newAddr != address(0), \"Genesis NFT address must be non-zero\");\r\n        genesisNftContractAddr = _newAddr;\r\n    }\r\n\r\n    // For TEST\r\n    function setHappyCowNftColl(address _newAddr) public onlyOwner {\r\n        require(_newAddr != address(0), \"Genesis NFT address must be non-zero\");\r\n        happyCowNftContractAddr = _newAddr;\r\n    }\r\n\r\n    // For TEST\r\n    function setCowToken(address _newAddr) public onlyOwner {\r\n        require(_newAddr != address(0), \"COW token contract address must be non-zero\");\r\n        cowTokenAddr = _newAddr;\r\n    } */\r\n}",
  "sourcePath": "C:\\Users\\Administrator\\Documents\\Adam\\game-contracts\\contracts\\Farming.sol",
  "compiler": {
    "name": "solc",
    "version": "0.8.12+commit.f00d7308.Emscripten.clang"
  },
  "schemaVersion": "3.4.6",
  "updatedAt": "2022-04-27T05:39:28.524Z",
  "devdoc": {
    "kind": "dev",
    "methods": {
      "owner()": {
        "details": "Returns the address of the current owner."
      },
      "renounceOwnership()": {
        "details": "Leaves the contract without owner. It will not be possible to call `onlyOwner` functions anymore. Can only be called by the current owner. NOTE: Renouncing ownership will leave the contract without an owner, thereby removing any functionality that is only available to the owner."
      },
      "transferOwnership(address)": {
        "details": "Transfers ownership of the contract to a new account (`newOwner`). Can only be called by the current owner."
      }
    },
    "version": 1
  },
  "userdoc": {
    "kind": "user",
    "methods": {},
    "version": 1
  }
}