{
  "contractName": "Farming",
  "abi": [
    {
      "anonymous": false,
      "inputs": [
        {
          "indexed": false,
          "internalType": "address",
          "name": "_owner",
          "type": "address"
        },
        {
          "indexed": false,
          "internalType": "uint256",
          "name": "_tokenId",
          "type": "uint256"
        }
      ],
      "name": "DepositBull",
      "type": "event"
    },
    {
      "anonymous": false,
      "inputs": [
        {
          "indexed": false,
          "internalType": "address",
          "name": "_owner",
          "type": "address"
        },
        {
          "indexed": false,
          "internalType": "uint256",
          "name": "_tokenId",
          "type": "uint256"
        }
      ],
      "name": "DepositCow",
      "type": "event"
    },
    {
      "anonymous": false,
      "inputs": [
        {
          "indexed": false,
          "internalType": "address",
          "name": "_owner",
          "type": "address"
        },
        {
          "indexed": false,
          "internalType": "uint256",
          "name": "_tokenId",
          "type": "uint256"
        }
      ],
      "name": "DepositLand",
      "type": "event"
    },
    {
      "anonymous": false,
      "inputs": [
        {
          "indexed": true,
          "internalType": "address",
          "name": "previousOwner",
          "type": "address"
        },
        {
          "indexed": true,
          "internalType": "address",
          "name": "newOwner",
          "type": "address"
        }
      ],
      "name": "OwnershipTransferred",
      "type": "event"
    },
    {
      "anonymous": false,
      "inputs": [
        {
          "indexed": false,
          "internalType": "address",
          "name": "_owner",
          "type": "address"
        },
        {
          "indexed": false,
          "internalType": "uint256",
          "name": "_tokenId",
          "type": "uint256"
        }
      ],
      "name": "WithdrawBull",
      "type": "event"
    },
    {
      "anonymous": false,
      "inputs": [
        {
          "indexed": false,
          "internalType": "address",
          "name": "_owner",
          "type": "address"
        },
        {
          "indexed": false,
          "internalType": "uint256",
          "name": "_tokenId",
          "type": "uint256"
        }
      ],
      "name": "WithdrawCow",
      "type": "event"
    },
    {
      "anonymous": false,
      "inputs": [
        {
          "indexed": false,
          "internalType": "address",
          "name": "_owner",
          "type": "address"
        },
        {
          "indexed": false,
          "internalType": "uint256",
          "name": "_tokenId",
          "type": "uint256"
        }
      ],
      "name": "WithdrawLand",
      "type": "event"
    },
    {
      "inputs": [],
      "name": "AIR_NFT_ADDRESS",
      "outputs": [
        {
          "internalType": "address",
          "name": "",
          "type": "address"
        }
      ],
      "stateMutability": "view",
      "type": "function",
      "constant": true
    },
    {
      "inputs": [],
      "name": "COW_TOKEN_ADDRESS",
      "outputs": [
        {
          "internalType": "address",
          "name": "",
          "type": "address"
        }
      ],
      "stateMutability": "view",
      "type": "function",
      "constant": true
    },
    {
      "inputs": [],
      "name": "HAPPY_COW_ADDRESS",
      "outputs": [
        {
          "internalType": "address",
          "name": "",
          "type": "address"
        }
      ],
      "stateMutability": "view",
      "type": "function",
      "constant": true
    },
    {
      "inputs": [],
      "name": "MASTERCHEF_ADDRESS",
      "outputs": [
        {
          "internalType": "address",
          "name": "",
          "type": "address"
        }
      ],
      "stateMutability": "view",
      "type": "function",
      "constant": true
    },
    {
      "inputs": [],
      "name": "MILK_TOKEN_ADDRESS",
      "outputs": [
        {
          "internalType": "address",
          "name": "",
          "type": "address"
        }
      ],
      "stateMutability": "view",
      "type": "function",
      "constant": true
    },
    {
      "inputs": [],
      "name": "SECRET_LP_ADDRESS",
      "outputs": [
        {
          "internalType": "address",
          "name": "",
          "type": "address"
        }
      ],
      "stateMutability": "view",
      "type": "function",
      "constant": true
    },
    {
      "inputs": [
        {
          "internalType": "address",
          "name": "",
          "type": "address"
        }
      ],
      "name": "airNftBonus",
      "outputs": [
        {
          "internalType": "uint256",
          "name": "",
          "type": "uint256"
        }
      ],
      "stateMutability": "view",
      "type": "function",
      "constant": true
    },
    {
      "inputs": [
        {
          "internalType": "uint256",
          "name": "",
          "type": "uint256"
        }
      ],
      "name": "baseMilkPower",
      "outputs": [
        {
          "internalType": "uint256",
          "name": "",
          "type": "uint256"
        }
      ],
      "stateMutability": "view",
      "type": "function",
      "constant": true
    },
    {
      "inputs": [
        {
          "internalType": "uint256",
          "name": "",
          "type": "uint256"
        }
      ],
      "name": "baseRecoveryTime",
      "outputs": [
        {
          "internalType": "uint256",
          "name": "",
          "type": "uint256"
        }
      ],
      "stateMutability": "view",
      "type": "function",
      "constant": true
    },
    {
      "inputs": [],
      "name": "breedProbability",
      "outputs": [
        {
          "internalType": "uint256",
          "name": "",
          "type": "uint256"
        }
      ],
      "stateMutability": "view",
      "type": "function",
      "constant": true
    },
    {
      "inputs": [],
      "name": "breedingPrice",
      "outputs": [
        {
          "internalType": "uint256",
          "name": "",
          "type": "uint256"
        }
      ],
      "stateMutability": "view",
      "type": "function",
      "constant": true
    },
    {
      "inputs": [
        {
          "internalType": "uint256",
          "name": "",
          "type": "uint256"
        }
      ],
      "name": "breedingVaults",
      "outputs": [
        {
          "components": [
            {
              "internalType": "uint256",
              "name": "tokenId",
              "type": "uint256"
            },
            {
              "internalType": "uint8",
              "name": "rarity",
              "type": "uint8"
            },
            {
              "internalType": "uint256",
              "name": "birth",
              "type": "uint256"
            },
            {
              "internalType": "uint8",
              "name": "breed",
              "type": "uint8"
            },
            {
              "internalType": "bool",
              "name": "isBreeding",
              "type": "bool"
            }
          ],
          "internalType": "struct Farming.CowBullInfo",
          "name": "cowTokenInfo",
          "type": "tuple"
        },
        {
          "components": [
            {
              "internalType": "uint256",
              "name": "tokenId",
              "type": "uint256"
            },
            {
              "internalType": "uint8",
              "name": "rarity",
              "type": "uint8"
            },
            {
              "internalType": "uint256",
              "name": "birth",
              "type": "uint256"
            },
            {
              "internalType": "uint8",
              "name": "breed",
              "type": "uint8"
            },
            {
              "internalType": "bool",
              "name": "isBreeding",
              "type": "bool"
            }
          ],
          "internalType": "struct Farming.CowBullInfo",
          "name": "bullTokenInfo",
          "type": "tuple"
        },
        {
          "internalType": "uint256",
          "name": "unlockTime",
          "type": "uint256"
        },
        {
          "internalType": "address",
          "name": "owner",
          "type": "address"
        }
      ],
      "stateMutability": "view",
      "type": "function",
      "constant": true
    },
    {
      "inputs": [
        {
          "internalType": "uint256",
          "name": "",
          "type": "uint256"
        }
      ],
      "name": "bullLimitPerLand",
      "outputs": [
        {
          "internalType": "uint256",
          "name": "",
          "type": "uint256"
        }
      ],
      "stateMutability": "view",
      "type": "function",
      "constant": true
    },
    {
      "inputs": [
        {
          "internalType": "uint256",
          "name": "",
          "type": "uint256"
        }
      ],
      "name": "cowLimitPerLand",
      "outputs": [
        {
          "internalType": "uint256",
          "name": "",
          "type": "uint256"
        }
      ],
      "stateMutability": "view",
      "type": "function",
      "constant": true
    },
    {
      "inputs": [],
      "name": "cowProbability",
      "outputs": [
        {
          "internalType": "uint256",
          "name": "",
          "type": "uint256"
        }
      ],
      "stateMutability": "view",
      "type": "function",
      "constant": true
    },
    {
      "inputs": [
        {
          "internalType": "uint256",
          "name": "",
          "type": "uint256"
        }
      ],
      "name": "genesisTokenIds",
      "outputs": [
        {
          "internalType": "uint256",
          "name": "",
          "type": "uint256"
        }
      ],
      "stateMutability": "view",
      "type": "function",
      "constant": true
    },
    {
      "inputs": [
        {
          "internalType": "address",
          "name": "",
          "type": "address"
        },
        {
          "internalType": "uint256",
          "name": "",
          "type": "uint256"
        }
      ],
      "name": "happyCowBonus",
      "outputs": [
        {
          "internalType": "uint256",
          "name": "",
          "type": "uint256"
        }
      ],
      "stateMutability": "view",
      "type": "function",
      "constant": true
    },
    {
      "inputs": [
        {
          "internalType": "uint256",
          "name": "",
          "type": "uint256"
        }
      ],
      "name": "happyCowNftBreeds",
      "outputs": [
        {
          "internalType": "uint256",
          "name": "",
          "type": "uint256"
        }
      ],
      "stateMutability": "view",
      "type": "function",
      "constant": true
    },
    {
      "inputs": [
        {
          "internalType": "uint256",
          "name": "",
          "type": "uint256"
        }
      ],
      "name": "initMilkPower",
      "outputs": [
        {
          "internalType": "uint256",
          "name": "",
          "type": "uint256"
        }
      ],
      "stateMutability": "view",
      "type": "function",
      "constant": true
    },
    {
      "inputs": [],
      "name": "maxAge",
      "outputs": [
        {
          "internalType": "uint256",
          "name": "",
          "type": "uint256"
        }
      ],
      "stateMutability": "view",
      "type": "function",
      "constant": true
    },
    {
      "inputs": [],
      "name": "maxRecoveryTime",
      "outputs": [
        {
          "internalType": "uint256",
          "name": "",
          "type": "uint256"
        }
      ],
      "stateMutability": "view",
      "type": "function",
      "constant": true
    },
    {
      "inputs": [],
      "name": "milkPerBlock",
      "outputs": [
        {
          "internalType": "uint256",
          "name": "",
          "type": "uint256"
        }
      ],
      "stateMutability": "view",
      "type": "function",
      "constant": true
    },
    {
      "inputs": [],
      "name": "minterAddr",
      "outputs": [
        {
          "internalType": "address",
          "name": "",
          "type": "address"
        }
      ],
      "stateMutability": "view",
      "type": "function",
      "constant": true
    },
    {
      "inputs": [],
      "name": "owner",
      "outputs": [
        {
          "internalType": "address",
          "name": "",
          "type": "address"
        }
      ],
      "stateMutability": "view",
      "type": "function",
      "constant": true
    },
    {
      "inputs": [],
      "name": "rarityProbability",
      "outputs": [
        {
          "internalType": "uint256",
          "name": "",
          "type": "uint256"
        }
      ],
      "stateMutability": "view",
      "type": "function",
      "constant": true
    },
    {
      "inputs": [],
      "name": "renounceOwnership",
      "outputs": [],
      "stateMutability": "nonpayable",
      "type": "function"
    },
    {
      "inputs": [],
      "name": "totalMilkPower",
      "outputs": [
        {
          "internalType": "uint256",
          "name": "",
          "type": "uint256"
        }
      ],
      "stateMutability": "view",
      "type": "function",
      "constant": true
    },
    {
      "inputs": [
        {
          "internalType": "address",
          "name": "newOwner",
          "type": "address"
        }
      ],
      "name": "transferOwnership",
      "outputs": [],
      "stateMutability": "nonpayable",
      "type": "function"
    },
    {
      "inputs": [
        {
          "internalType": "address",
          "name": "",
          "type": "address"
        }
      ],
      "name": "userFarms",
      "outputs": [
        {
          "internalType": "address",
          "name": "owner",
          "type": "address"
        },
        {
          "internalType": "uint256",
          "name": "lastReward",
          "type": "uint256"
        },
        {
          "internalType": "uint256",
          "name": "stakedCow",
          "type": "uint256"
        }
      ],
      "stateMutability": "view",
      "type": "function",
      "constant": true
    },
    {
      "inputs": [
        {
          "internalType": "address",
          "name": "_minterAddr",
          "type": "address"
        },
        {
          "internalType": "address",
          "name": "_happyCowAddress",
          "type": "address"
        },
        {
          "internalType": "address",
          "name": "_airNftAddress",
          "type": "address"
        },
        {
          "internalType": "address",
          "name": "_cowTokenAddress",
          "type": "address"
        },
        {
          "internalType": "address",
          "name": "_milkTokenAddress",
          "type": "address"
        },
        {
          "internalType": "address",
          "name": "_masterChefAddress",
          "type": "address"
        },
        {
          "internalType": "address",
          "name": "_secretLpAddress",
          "type": "address"
        }
      ],
      "name": "initialize",
      "outputs": [],
      "stateMutability": "nonpayable",
      "type": "function"
    },
    {
      "inputs": [],
      "name": "depositLP",
      "outputs": [],
      "stateMutability": "nonpayable",
      "type": "function"
    },
    {
      "inputs": [
        {
          "internalType": "uint256",
          "name": "_amount",
          "type": "uint256"
        }
      ],
      "name": "withdrawLp",
      "outputs": [],
      "stateMutability": "nonpayable",
      "type": "function"
    },
    {
      "inputs": [
        {
          "internalType": "uint256",
          "name": "newValue",
          "type": "uint256"
        }
      ],
      "name": "setMilkPerBlock",
      "outputs": [],
      "stateMutability": "nonpayable",
      "type": "function"
    },
    {
      "inputs": [
        {
          "internalType": "uint256",
          "name": "_tokenId",
          "type": "uint256"
        }
      ],
      "name": "depositLand",
      "outputs": [],
      "stateMutability": "nonpayable",
      "type": "function"
    },
    {
      "inputs": [
        {
          "internalType": "uint256",
          "name": "_tokenId",
          "type": "uint256"
        }
      ],
      "name": "withdrawLand",
      "outputs": [],
      "stateMutability": "nonpayable",
      "type": "function"
    },
    {
      "inputs": [
        {
          "internalType": "uint256",
          "name": "_tokenId",
          "type": "uint256"
        }
      ],
      "name": "depositCow",
      "outputs": [],
      "stateMutability": "nonpayable",
      "type": "function"
    },
    {
      "inputs": [
        {
          "internalType": "uint256",
          "name": "_tokenId",
          "type": "uint256"
        }
      ],
      "name": "withdrawCow",
      "outputs": [],
      "stateMutability": "nonpayable",
      "type": "function"
    },
    {
      "inputs": [
        {
          "internalType": "uint256",
          "name": "_amount",
          "type": "uint256"
        }
      ],
      "name": "depositCowTokens",
      "outputs": [],
      "stateMutability": "nonpayable",
      "type": "function"
    },
    {
      "inputs": [
        {
          "internalType": "uint256",
          "name": "_amount",
          "type": "uint256"
        }
      ],
      "name": "withdrawCowTokens",
      "outputs": [],
      "stateMutability": "nonpayable",
      "type": "function"
    },
    {
      "inputs": [
        {
          "internalType": "uint256",
          "name": "_tokenId",
          "type": "uint256"
        }
      ],
      "name": "depositBull",
      "outputs": [],
      "stateMutability": "nonpayable",
      "type": "function"
    },
    {
      "inputs": [
        {
          "internalType": "uint256",
          "name": "_tokenId",
          "type": "uint256"
        }
      ],
      "name": "withdrawBull",
      "outputs": [],
      "stateMutability": "nonpayable",
      "type": "function"
    },
    {
      "inputs": [
        {
          "internalType": "uint256",
          "name": "_tokenId",
          "type": "uint256"
        }
      ],
      "name": "depositHappyCow",
      "outputs": [
        {
          "internalType": "uint256",
          "name": "",
          "type": "uint256"
        }
      ],
      "stateMutability": "nonpayable",
      "type": "function"
    },
    {
      "inputs": [
        {
          "internalType": "uint256",
          "name": "_tokenId",
          "type": "uint256"
        }
      ],
      "name": "withdrawHappyCow",
      "outputs": [],
      "stateMutability": "nonpayable",
      "type": "function"
    },
    {
      "inputs": [
        {
          "internalType": "uint256",
          "name": "_tokenId",
          "type": "uint256"
        }
      ],
      "name": "depositAirNft",
      "outputs": [],
      "stateMutability": "nonpayable",
      "type": "function"
    },
    {
      "inputs": [
        {
          "internalType": "uint256",
          "name": "_tokenId",
          "type": "uint256"
        }
      ],
      "name": "withdrawAirNft",
      "outputs": [],
      "stateMutability": "nonpayable",
      "type": "function"
    },
    {
      "inputs": [],
      "name": "harvest",
      "outputs": [],
      "stateMutability": "nonpayable",
      "type": "function"
    },
    {
      "inputs": [],
      "name": "getUserRewardAmount",
      "outputs": [
        {
          "internalType": "uint256",
          "name": "",
          "type": "uint256"
        }
      ],
      "stateMutability": "view",
      "type": "function",
      "constant": true
    },
    {
      "inputs": [],
      "name": "getUserDailyMilk",
      "outputs": [
        {
          "internalType": "uint256",
          "name": "",
          "type": "uint256"
        }
      ],
      "stateMutability": "view",
      "type": "function",
      "constant": true
    },
    {
      "inputs": [
        {
          "internalType": "uint256",
          "name": "_amount",
          "type": "uint256"
        }
      ],
      "name": "burnMilk",
      "outputs": [],
      "stateMutability": "nonpayable",
      "type": "function"
    },
    {
      "inputs": [
        {
          "internalType": "address",
          "name": "_farmer",
          "type": "address"
        }
      ],
      "name": "milkPowerOf",
      "outputs": [
        {
          "internalType": "uint256",
          "name": "",
          "type": "uint256"
        }
      ],
      "stateMutability": "view",
      "type": "function",
      "constant": true
    },
    {
      "inputs": [
        {
          "internalType": "address",
          "name": "_owner",
          "type": "address"
        }
      ],
      "name": "landTokenIdsOf",
      "outputs": [
        {
          "internalType": "uint256[]",
          "name": "",
          "type": "uint256[]"
        }
      ],
      "stateMutability": "view",
      "type": "function",
      "constant": true
    },
    {
      "inputs": [
        {
          "internalType": "address",
          "name": "_owner",
          "type": "address"
        }
      ],
      "name": "cowTokenIdsOf",
      "outputs": [
        {
          "internalType": "uint256[]",
          "name": "",
          "type": "uint256[]"
        }
      ],
      "stateMutability": "view",
      "type": "function",
      "constant": true
    },
    {
      "inputs": [
        {
          "internalType": "address",
          "name": "_owner",
          "type": "address"
        }
      ],
      "name": "breedingCowTokenIdsOf",
      "outputs": [
        {
          "internalType": "uint256[]",
          "name": "",
          "type": "uint256[]"
        }
      ],
      "stateMutability": "view",
      "type": "function",
      "constant": true
    },
    {
      "inputs": [
        {
          "internalType": "address",
          "name": "_owner",
          "type": "address"
        }
      ],
      "name": "bullTokenIdsOf",
      "outputs": [
        {
          "internalType": "uint256[]",
          "name": "",
          "type": "uint256[]"
        }
      ],
      "stateMutability": "view",
      "type": "function",
      "constant": true
    },
    {
      "inputs": [
        {
          "internalType": "address",
          "name": "_owner",
          "type": "address"
        }
      ],
      "name": "breedingBullTokenIdsOf",
      "outputs": [
        {
          "internalType": "uint256[]",
          "name": "",
          "type": "uint256[]"
        }
      ],
      "stateMutability": "view",
      "type": "function",
      "constant": true
    },
    {
      "inputs": [
        {
          "internalType": "address",
          "name": "_owner",
          "type": "address"
        }
      ],
      "name": "happyCowTokenIdsOf",
      "outputs": [
        {
          "internalType": "uint256[]",
          "name": "",
          "type": "uint256[]"
        }
      ],
      "stateMutability": "view",
      "type": "function",
      "constant": true
    },
    {
      "inputs": [
        {
          "internalType": "address",
          "name": "_owner",
          "type": "address"
        }
      ],
      "name": "genesisTokenIdsOf",
      "outputs": [
        {
          "internalType": "uint256[]",
          "name": "",
          "type": "uint256[]"
        }
      ],
      "stateMutability": "view",
      "type": "function",
      "constant": true
    },
    {
      "inputs": [
        {
          "internalType": "address",
          "name": "_owner",
          "type": "address"
        }
      ],
      "name": "stakedCowOf",
      "outputs": [
        {
          "internalType": "uint256",
          "name": "",
          "type": "uint256"
        }
      ],
      "stateMutability": "view",
      "type": "function",
      "constant": true
    },
    {
      "inputs": [
        {
          "internalType": "address",
          "name": "_newMinterAddr",
          "type": "address"
        }
      ],
      "name": "setMinterContract",
      "outputs": [],
      "stateMutability": "nonpayable",
      "type": "function"
    },
    {
      "inputs": [
        {
          "internalType": "uint256",
          "name": "_newMaxAge",
          "type": "uint256"
        }
      ],
      "name": "setMaxAge",
      "outputs": [],
      "stateMutability": "nonpayable",
      "type": "function"
    },
    {
      "inputs": [
        {
          "internalType": "uint256[]",
          "name": "_genesisTokenIds",
          "type": "uint256[]"
        }
      ],
      "name": "setGenesisTokenIds",
      "outputs": [],
      "stateMutability": "nonpayable",
      "type": "function"
    },
    {
      "inputs": [
        {
          "internalType": "uint256[]",
          "name": "_happyCowNftBreeds",
          "type": "uint256[]"
        }
      ],
      "name": "setHappyCowNftBreeds",
      "outputs": [],
      "stateMutability": "nonpayable",
      "type": "function"
    },
    {
      "inputs": [
        {
          "internalType": "address",
          "name": "_farmer",
          "type": "address"
        }
      ],
      "name": "_totalCowLimitOf",
      "outputs": [
        {
          "internalType": "uint256",
          "name": "",
          "type": "uint256"
        }
      ],
      "stateMutability": "view",
      "type": "function",
      "constant": true
    },
    {
      "inputs": [
        {
          "internalType": "address",
          "name": "_farmer",
          "type": "address"
        }
      ],
      "name": "_totalBullLimitOf",
      "outputs": [
        {
          "internalType": "uint256",
          "name": "",
          "type": "uint256"
        }
      ],
      "stateMutability": "view",
      "type": "function",
      "constant": true
    },
    {
      "inputs": [
        {
          "internalType": "address",
          "name": "_farmer",
          "type": "address"
        }
      ],
      "name": "_landNftTypeBonusOf",
      "outputs": [
        {
          "internalType": "uint256[5]",
          "name": "",
          "type": "uint256[5]"
        }
      ],
      "stateMutability": "view",
      "type": "function",
      "constant": true
    },
    {
      "inputs": [
        {
          "internalType": "uint256",
          "name": "_cowTokenId",
          "type": "uint256"
        },
        {
          "internalType": "uint256",
          "name": "_bullTokenId",
          "type": "uint256"
        }
      ],
      "name": "breed",
      "outputs": [],
      "stateMutability": "nonpayable",
      "type": "function"
    },
    {
      "inputs": [
        {
          "internalType": "uint256",
          "name": "_price",
          "type": "uint256"
        }
      ],
      "name": "setBreedingPrice",
      "outputs": [],
      "stateMutability": "nonpayable",
      "type": "function"
    },
    {
      "inputs": [],
      "name": "withdrawMilk",
      "outputs": [],
      "stateMutability": "nonpayable",
      "type": "function"
    },
    {
      "inputs": [
        {
          "internalType": "uint256",
          "name": "_bullTokenId",
          "type": "uint256"
        },
        {
          "internalType": "uint256[]",
          "name": "_seed",
          "type": "uint256[]"
        }
      ],
      "name": "claimCattle",
      "outputs": [],
      "stateMutability": "nonpayable",
      "type": "function"
    },
    {
      "inputs": [
        {
          "internalType": "address",
          "name": "userAddress",
          "type": "address"
        }
      ],
      "name": "getBreedingItems",
      "outputs": [
        {
          "internalType": "uint256[]",
          "name": "",
          "type": "uint256[]"
        },
        {
          "internalType": "uint256[]",
          "name": "",
          "type": "uint256[]"
        },
        {
          "internalType": "uint256[]",
          "name": "",
          "type": "uint256[]"
        },
        {
          "internalType": "uint256[]",
          "name": "",
          "type": "uint256[]"
        },
        {
          "internalType": "uint256[]",
          "name": "",
          "type": "uint256[]"
        },
        {
          "internalType": "uint256[]",
          "name": "",
          "type": "uint256[]"
        }
      ],
      "stateMutability": "view",
      "type": "function",
      "constant": true
    },
    {
      "inputs": [
        {
          "internalType": "uint256",
          "name": "_rarityP",
          "type": "uint256"
        },
        {
          "internalType": "uint256",
          "name": "_breedP",
          "type": "uint256"
        },
        {
          "internalType": "uint256",
          "name": "_cowP",
          "type": "uint256"
        }
      ],
      "name": "setProbabilities",
      "outputs": [],
      "stateMutability": "nonpayable",
      "type": "function"
    }
  ],
  "bytecode": "0x6080604052600960025560066003553480156200001b57600080fd5b5060016000556200002c3362000032565b62000084565b600180546001600160a01b038381166001600160a01b0319831681179093556040519116919082907f8be0079c531659141344cd1fd0a4f28419497f9722a3daafe3b4186f6b6457e090600090a35050565b615a7980620000946000396000f3fe608060405234801561001057600080fd5b506004361061041d5760003560e01c80637506f5341161022b578063c7c2818811610130578063e0d4f57e116100b8578063f2fde38b11610087578063f2fde38b14610975578063f6f086a014610988578063f95998d31461099b578063fac9d57d146109be578063fd6505a5146109d157600080fd5b8063e0d4f57e1461091a578063e2b1a45d14610922578063e7055b4114610935578063eed2f2771461095557600080fd5b8063cc32dfd5116100ff578063cc32dfd5146108bb578063cefd3c46146108ce578063cf9b3d7e146108e1578063d9ecad7b146108f4578063db71fed71461090757600080fd5b8063c7c281881461086f578063ca83fe1e14610882578063cac6b58314610895578063cbe36f5e146108a857600080fd5b8063959afa15116101b3578063b60ea1cc11610182578063b60ea1cc14610810578063baebe50914610823578063bc39698414610836578063bfb5cbe914610849578063c713a5451461085c57600080fd5b8063959afa15146107b75780639bc253f7146107ca5780639d97a6a1146107dd5780639da8da23146107f057600080fd5b80638da5cb5b116101fa5780638da5cb5b1461075c578063916089701461076d5780639409950a146107765780639564dfae1461079b5780639584d345146107ae57600080fd5b80637506f534146107255780637cb936271461072e57806380284786146107415780638aeb73891461075457600080fd5b80632f22ff5e11610331578063555e7f4a116102b95780636411140a116102885780636411140a146106cc578063687043c5146106d55780636db9aebf146106de5780637011edb81461070a578063715018a61461071d57600080fd5b8063555e7f4a146106255780635a91a022146106865780635ae28fc9146106a65780635d2d9f58146106b957600080fd5b806339c2676a1161030057806339c2676a146105ce5780634641257d146105ee57806349c4ab0c146105f65780634f8f8c2a146105ff57806352e3df581461061257600080fd5b80632f22ff5e1461058257806332b8cfac1461059557806335876476146105a857806338478ae7146105bb57600080fd5b8063137823c1116103b45780631e8f743a116103835780631e8f743a146105215780631e9f3a8e146105345780631ec13d551461054757806326161ef9146105675780632c6f60281461056f57600080fd5b8063137823c1146104e057806313c5676a146104e857806314619e18146104fb5780631abeb22e1461050e57600080fd5b80630c8d9574116103f05780630c8d9574146104795780631023d8d3146104a457806311498c12146104ad578063118c951d146104cd57600080fd5b806308187ac714610422578063097d53991461044857806309d49a251461045d5780630b71f01c14610470575b600080fd5b61043561043036600461525c565b6109e4565b6040519081526020015b60405180910390f35b61045b610456366004615275565b6109fb565b005b61045b61046b3660046152e9565b610a14565b61043560195481565b60145461048c906001600160a01b031681565b6040516001600160a01b03909116815260200161043f565b61043560205481565b6104c06104bb36600461532a565b610a2a565b60405161043f9190615382565b6104356104db36600461532a565b610b9f565b610435610d03565b61045b6104f636600461525c565b610d55565b61045b610509366004615275565b61100e565b60135461048c906001600160a01b031681565b61045b61052f36600461525c565b611022565b6104c061054236600461532a565b61102f565b61043561055536600461525c565b60076020526000908152604090205481565b61045b6110fa565b6104c061057d36600461532a565b6112b3565b61045b61059036600461525c565b61141e565b61045b6105a336600461525c565b6114c7565b61045b6105b6366004615395565b61156d565b61045b6105c936600461532a565b611933565b6104356105dc36600461525c565b60086020526000908152604090205481565b61045b6119a9565b610435600b5481565b61045b61060d36600461525c565b611b82565b61043561062036600461525c565b611cd6565b61066161063336600461532a565b6006602052600090815260409020600481015460058201546007909201546001600160a01b03909116919083565b604080516001600160a01b03909416845260208401929092529082015260600161043f565b61043561069436600461525c565b60096020526000908152604090205481565b61045b6106b436600461525c565b611e99565b6104c06106c736600461532a565b611ee9565b610435601f5481565b610435600a5481565b6104356106ec36600461532a565b6001600160a01b031660009081526006602052604090206007015490565b60165461048c906001600160a01b031681565b61045b611fa2565b610435600e5481565b61043561073c36600461525c565b611fb6565b61045b61074f36600461525c565b611fd7565b61045b612324565b6001546001600160a01b031661048c565b61043560215481565b61078961078436600461532a565b612411565b60405161043f9695949392919061542b565b61045b6107a936600461525c565b612868565b61043560225481565b61045b6107c536600461525c565b612875565b6104356107d83660046154ad565b6129cc565b6104356107eb36600461532a565b6129f1565b6104356107fe36600461525c565b60056020526000908152604090205481565b6104c061081e36600461532a565b612cc4565b60155461048c906001600160a01b031681565b61043561084436600461532a565b612d36565b61045b61085736600461551f565b612e8f565b61045b61086a36600461525c565b61348f565b60175461048c906001600160a01b031681565b61045b61089036600461525c565b613795565b6104c06108a336600461532a565b613833565b60125461048c906001600160a01b031681565b61045b6108c936600461525c565b6138a3565b6104356108dc36600461525c565b6139d4565b61045b6108ef36600461525c565b6139e4565b61045b6109023660046155d0565b613bdd565b60045461048c906001600160a01b031681565b61043561437c565b61045b61093036600461525c565b61443a565b61043561094336600461532a565b60116020526000908152604090205481565b61096861096336600461532a565b6146a1565b60405161043f91906155f2565b61045b61098336600461532a565b614822565b61045b61099636600461525c565b61489b565b6109ae6109a936600461525c565b614b0f565b60405161043f9493929190615623565b61045b6109cc36600461525c565b614be0565b6104c06109df36600461532a565b614d2f565b601a81600581106109f457600080fd5b0154905081565b610a03614df2565b610a0f600c838361517d565b505050565b610a1c614df2565b602092909255602155602255565b6001600160a01b03811660009081526006602081905260408220606092910190805b8254811015610aaa57828181548110610a6757610a676156bd565b906000526020600020906004020160030160019054906101000a900460ff16610a9857610a956001836156e9565b91505b80610aa281615701565b915050610a4c565b506000816001600160401b03811115610ac557610ac56154d9565b604051908082528060200260200182016040528015610aee578160200160208202803683370190505b5090506000805b8454811015610b9457848181548110610b1057610b106156bd565b906000526020600020906004020160030160019054906101000a900460ff16610b8257848181548110610b4557610b456156bd565b906000526020600020906004020160000154838381518110610b6957610b696156bd565b602090810291909101015281610b7e81615701565b9250505b80610b8c81615701565b915050610af5565b509095945050505050565b6001600160a01b0380821660009081526006602090815260408083206004805483516305d0ff3960e31b81529351959692958795919093169385938593632e87f9c89383820193909291908290030181865afa158015610c03573d6000803e3d6000fd5b505050506040513d601f19601f82011682018060405250810190610c27919061571c565b905060005b8454811015610cf8576000826001600160a01b03166368ba0bcf878481548110610c5857610c586156bd565b90600052602060002001546040518263ffffffff1660e01b8152600401610c8191815260200190565b6040805180830381865afa158015610c9d573d6000803e3d6000fd5b505050506040513d601f19601f82011682018060405250810190610cc1919061574f565b805160ff16600090815260086020526040902054909150610ce290866156e9565b9450508080610cf090615701565b915050610c2c565b509195945050505050565b600080610d0f336129f1565b9050600062015180905060006003600b548484600e54610d2f91906157a9565b610d3991906157a9565b610d4391906157de565b610d4d91906157de565b949350505050565b336000908152600660209081526040808320600480548351639708444560e01b8152935192956001600160a01b03909116949093859363970844459382810193928290030181865afa158015610daf573d6000803e3d6000fd5b505050506040513d601f19601f82011682018060405250810190610dd3919061571c565b6004808501546040516323b872dd60e01b81529293506001600160a01b03808516936323b872dd93610e0b93309316918a91016157f2565b600060405180830381600087803b158015610e2557600080fd5b505af1158015610e39573d6000803e3d6000fd5b50505060068401905060005b8154811015610f8a5785828281548110610e6157610e616156bd565b9060005260206000209060040201600001541415610f785781548290610e8990600190615816565b81548110610e9957610e996156bd565b9060005260206000209060040201828281548110610eb957610eb96156bd565b600091825260209091208254600490920201908155600180830154908201805460ff92831660ff1991821617909155600280850154908401556003938401805494909301805494831691851682178155925461ffff19909416176101009384900490911615159092029190911790558154829080610f3957610f3961582d565b60008281526020812060046000199093019283020181815560018101805460ff191690556002810191909155600301805461ffff191690559055610f8a565b80610f8281615701565b915050610e45565b50600085815260056020526040812054600b805491929091610fad908490615816565b90915550610fbb905061437c565b33600081815260236020526040908190209290925590517f30a1b13a317384a5ee19f32abf42ec26cc325ac7d9c0c3dcb479dce00322309591610fff918890615843565b60405180910390a15050505050565b611016614df2565b610a0f600d838361517d565b61102a614df2565b600e55565b6001600160a01b03811660009081526006602081905260408220018054606092906001600160401b03811115611067576110676154d9565b604051908082528060200260200182016040528015611090578160200160208202803683370190505b50905060005b82548110156110f2578281815481106110b1576110b16156bd565b9060005260206000209060040201600001548282815181106110d5576110d56156bd565b6020908102919091010152806110ea81615701565b915050611096565b509392505050565b611102614df2565b6016546017546040516370a0823160e01b81523060048201526001600160a01b039283169290911690819063095ea7b390849083906370a0823190602401602060405180830381865afa15801561115d573d6000803e3d6000fd5b505050506040513d601f19601f82011682018060405250810190611181919061585c565b6040518363ffffffff1660e01b815260040161119e929190615843565b6020604051808303816000875af11580156111bd573d6000803e3d6000fd5b505050506040513d601f19601f820116820180604052508101906111e19190615875565b506003546040516370a0823160e01b81523060048201526001600160a01b038085169263e2bbb1589290918516906370a0823190602401602060405180830381865afa158015611235573d6000803e3d6000fd5b505050506040513d601f19601f82011682018060405250810190611259919061585c565b6040516001600160e01b031960e085901b16815260048101929092526024820152604401600060405180830381600087803b15801561129757600080fd5b505af11580156112ab573d6000803e3d6000fd5b505050505050565b6001600160a01b0381166000908152600660205260408120606091600190910190805b8254811015611334578281815481106112f1576112f16156bd565b906000526020600020906004020160030160019054906101000a900460ff166113225761131f6001836156e9565b91505b8061132c81615701565b9150506112d6565b506000816001600160401b0381111561134f5761134f6154d9565b604051908082528060200260200182016040528015611378578160200160208202803683370190505b5090506000805b8454811015610b945784818154811061139a5761139a6156bd565b906000526020600020906004020160030160019054906101000a900460ff1661140c578481815481106113cf576113cf6156bd565b9060005260206000209060040201600001548383815181106113f3576113f36156bd565b60209081029190910101528161140881615701565b9250505b8061141681615701565b91505061137f565b336000818152600660205260409081902060135491516323b872dd60e01b815290926001600160a01b039092169182916323b872dd9161146491309088906004016157f2565b600060405180830381600087803b15801561147e57600080fd5b505af1158015611492573d6000803e3d6000fd5b5050506003909201805460018101825560009182526020808320909101949094553381526011909352505060409020600f9055565b3360008181526006602052604090819020601454915163a9059cbb60e01b815290926001600160a01b0390921691829163a9059cbb9161150b918790600401615843565b6020604051808303816000875af115801561152a573d6000803e3d6000fd5b505050506040513d601f19601f8201168201806040525081019061154e9190615875565b50828260070160008282546115639190615816565b9091555050505050565b6001600160a01b0387166115c85760405162461bcd60e51b815260206004820152601c60248201527f496e697469616c697a696e67206279207a65726f20616464726573730000000060448201526064015b60405180910390fd5b600f5460ff16156116115760405162461bcd60e51b8152602060048201526013602482015272185b1c9958591e481a5b9a5d1a585b1a5e9959606a1b60448201526064016115bf565b600f8054600160ff19909116179055600480546001600160a01b03199081166001600160a01b038a8116919091179092556012805482168984161790556013805482168884161790556014805482168784161790556015805482168684161790556016805482168584161790556017805490911691831691909117905561169733614e4c565b630107ac00600a81815560287f6d5257204ebe7d88fd91ae87941cb2dd9d8062b64ae5a2bd2d28ec40b9fbf6df5560507fb39221ace053465ec3453ce2b36430bd138b997ecea25c1043da0c366812b82881905560787fb7c774451310d1be4108bc180d1b52823cb0ee0274a6c0081bcaf94f115fb96d5560c87f3be6fd20d5acfde5b873b48692cd31f4d3c7e8ee8a813af4696af8859e5ca6c6556101407fb805995a7ec585a251200611a61d179cfd7fb105e1ab17dc415a7336783786f75560027f5eff886ea0ce6ca488a3d6e336d6c0f75f46d19b42c06ce5ee98e42c96d256c781905560047fad67d757c34507f157cacfa2e3153e9f260a2244f30428821be7be64587ac55f81905560067f6add646517a5b0f6793cd5891b7937d28a5b2981a5d88ebc7cd776088fea90418190557f625b35f5e76f098dd7c3a05b10e2e5e78a4a01228d60c3b143426cdf36d264559490945560107f9321edea6e3be4df59a344b401fab4f888b556fda1f954244cff9204bad624b855600960208181526107d07fec8156718a8372b1db44bb411437d0870f3e3790d4a08526d024ce1b0b668f6b55610bb87f92e85d02570a8092d09a6e3a57665bc3815a2699a4074001bf1ccabf660f5a368190556113887f6cde3cea4b3a3fb2488b2808bae7556f4a405e50f65e1794383bc026131b13c355611f407fc575c31fea594a6eb97c8e9d3f9caee4c16218c6ef37e923234c0fe9014a61e7556000939093526132c87f8dc18c4ccfd75f5c815b63770fa542fd953e8fef7e0e44bbdd4913470ce7e9cb5592556003939093556019939093556804e1003b28d9280000601f556032909255602191909155605a602255601a55610960601b55610708601c556104b0601d55610258601e5561192a33614e4c565b50505050505050565b61193b614df2565b6001600160a01b0381166119875760405162461bcd60e51b8152602060048201526013602482015272536574206279207a65726f206164647265737360681b60448201526064016115bf565b600480546001600160a01b0319166001600160a01b0392909216919091179055565b60006119b4336129f1565b601654600354604051631c57762b60e31b81526004810191909152600060248201529192506001600160a01b031690819063e2bbb15890604401600060405180830381600087803b158015611a0857600080fd5b505af1158015611a1c573d6000803e3d6000fd5b5050601554336000908152600660205260408120600501546001600160a01b0390921693509150611a4d9042615816565b33600090815260066020526040902060050154909150611a7090620151806156e9565b4210611a7c5750620151805b33600090815260066020526040902060050154611a97575060005b60006003600b548684600e54611aad91906157a9565b611ab791906157a9565b611ac191906157de565b611acb91906157de565b33600090815260236020526040902054611ae591906156e9565b60405163a9059cbb60e01b81529091506001600160a01b0384169063a9059cbb90611b169033908590600401615843565b6020604051808303816000875af1158015611b35573d6000803e3d6000fd5b505050506040513d601f19601f82011682018060405250810190611b599190615875565b505033600090815260066020908152604080832042600590910155602390915281205550505050565b336000908152600660205260409081902060135460048083015493516323b872dd60e01b815292936001600160a01b039283169384936323b872dd93611bcf9330939216918991016157f2565b600060405180830381600087803b158015611be957600080fd5b505af1158015611bfd573d6000803e3d6000fd5b50505060038301905060005b8154811015611ccf5784828281548110611c2557611c256156bd565b90600052602060002001541415611cbd5781548290611c4690600190615816565b81548110611c5657611c566156bd565b9060005260206000200154828281548110611c7357611c736156bd565b906000526020600020018190555081805480611c9157611c9161582d565b600082815260208082208301600019908101839055909201909255338252601190526040812055611ccf565b80611cc781615701565b915050611c09565b5050505050565b3360008181526006602052604080822060125491516323b872dd60e01b8152929390926001600160a01b039092169182916323b872dd91611d1e9190309089906004016157f2565b600060405180830381600087803b158015611d3857600080fd5b505af1158015611d4c573d6000803e3d6000fd5b50505050600282018054600181018255600082815260208082209092018790556040805160a081018252828152808401839052808201839052606081018390526080810183905233835260109093529020611da89160056151c8565b5060005b8154811015611e8f573360009081526010602052604090208254600c90849084908110611ddb57611ddb6156bd565b906000526020600020015481548110611df657611df66156bd565b906000526020600020015460058110611e1157611e116156bd565b0154600f14611e7d573360009081526010602052604090208254600f9190600c90859085908110611e4457611e446156bd565b906000526020600020015481548110611e5f57611e5f6156bd565b906000526020600020015460058110611e7a57611e7a6156bd565b01555b80611e8781615701565b915050611dac565b5054949350505050565b611ea1614df2565b60008111611ee45760405162461bcd60e51b815260206004820152601060248201526f4d757374206265206e6f6e2d7a65726f60801b60448201526064016115bf565b600a55565b6001600160a01b03811660009081526006602052604081208054606092906001600160401b03811115611f1e57611f1e6154d9565b604051908082528060200260200182016040528015611f47578160200160208202803683370190505b50905060005b82548110156110f257828181548110611f6857611f686156bd565b9060005260206000200154828281518110611f8557611f856156bd565b602090810291909101015280611f9a81615701565b915050611f4d565b611faa614df2565b611fb46000614e4c565b565b600c8181548110611fc657600080fd5b600091825260209091200154905081565b60048054604080516305d0ff3960e31b815290516001600160a01b03909216926000928492632e87f9c892818101926020929091908290030181865afa158015612025573d6000803e3d6000fd5b505050506040513d601f19601f82011682018060405250810190612049919061571c565b6040516368ba0bcf60e01b8152600481018590529091506000906001600160a01b038316906368ba0bcf906024016040805180830381865afa158015612093573d6000803e3d6000fd5b505050506040513d601f19601f820116820180604052508101906120b7919061574f565b33600081815260066020818152604080842092830154865160ff1685526007909252909220549394509290916120ec90612d36565b6120f69190615816565b10156121445760405162461bcd60e51b815260206004820152601e60248201527f436f77204c696d69743a20576974686472617720436f7773206669727374000060448201526064016115bf565b6001810154825160ff1660009081526008602052604090205461216633610b9f565b6121709190615816565b10156121be5760405162461bcd60e51b815260206004820181905260248201527f42756c6c204c696d69743a2057697468647261772042756c6c7320666972737460448201526064016115bf565b6004818101546040516323b872dd60e01b81526001600160a01b03868116936323b872dd936121f5933093909116918b91016157f2565b600060405180830381600087803b15801561220f57600080fd5b505af1158015612223573d6000803e3d6000fd5b5083925060009150505b81548110156122e25786828281548110612249576122496156bd565b906000526020600020015414156122d0578154829061226a90600190615816565b8154811061227a5761227a6156bd565b9060005260206000200154828281548110612297576122976156bd565b9060005260206000200181905550818054806122b5576122b561582d565b600190038181906000526020600020016000905590556122e2565b806122da81615701565b91505061222d565b507f2ac6e3c1e4ef99df40ccf9f212268ced5a151cf274c706f1a035b9b10de10ab13387604051612314929190615843565b60405180910390a1505050505050565b61232c614df2565b6015546040516370a0823160e01b81523060048201526001600160a01b039091169060009082906370a0823190602401602060405180830381865afa158015612379573d6000803e3d6000fd5b505050506040513d601f19601f8201168201806040525081019061239d919061585c565b60405163a9059cbb60e01b81529091506001600160a01b0383169063a9059cbb906123ce9033908590600401615843565b6020604051808303816000875af11580156123ed573d6000803e3d6000fd5b505050506040513d601f19601f82011682018060405250810190610a0f9190615875565b60608060608060608060008060005b60185481101561248a57896001600160a01b031660188281548110612447576124476156bd565b600091825260209091206009600a9092020101546001600160a01b03161415612478576124756001836156e9565b91505b8061248281615701565b915050612420565b506000816001600160401b038111156124a5576124a56154d9565b6040519080825280602002602001820160405280156124ce578160200160208202803683370190505b5090506000826001600160401b038111156124eb576124eb6154d9565b604051908082528060200260200182016040528015612514578160200160208202803683370190505b5090506000836001600160401b03811115612531576125316154d9565b60405190808252806020026020018201604052801561255a578160200160208202803683370190505b5090506000846001600160401b03811115612577576125776154d9565b6040519080825280602002602001820160405280156125a0578160200160208202803683370190505b5090506000856001600160401b038111156125bd576125bd6154d9565b6040519080825280602002602001820160405280156125e6578160200160208202803683370190505b5090506000866001600160401b03811115612603576126036154d9565b60405190808252806020026020018201604052801561262c578160200160208202803683370190505b50905060005b601854811015612851578f6001600160a01b031660188281548110612659576126596156bd565b600091825260209091206009600a9092020101546001600160a01b0316141561283f576018818154811061268f5761268f6156bd565b90600052602060002090600a020160000160000154878a815181106126b6576126b66156bd565b602002602001018181525050601881815481106126d5576126d56156bd565b600091825260209091206001600a909202010154865160ff9091169087908b908110612703576127036156bd565b60200260200101818152505060188181548110612722576127226156bd565b600091825260209091206003600a909202010154855160ff9091169086908b908110612750576127506156bd565b6020026020010181815250506018818154811061276f5761276f6156bd565b90600052602060002090600a020160040160000154848a81518110612796576127966156bd565b602002602001018181525050601881815481106127b5576127b56156bd565b600091825260209091206007600a909202010154835160ff9091169084908b9081106127e3576127e36156bd565b60200260200101818152505060188181548110612802576128026156bd565b90600052602060002090600a020160080154828a81518110612826576128266156bd565b602090810291909101015261283c60018a6156e9565b98505b8061284981615701565b915050612632565b50949e939d50919b50995097509095509350505050565b612870614df2565b601f55565b61287d614df2565b6016546017546040516370a0823160e01b81523060048201526001600160a01b039283169290911690819063095ea7b390849083906370a0823190602401602060405180830381865afa1580156128d8573d6000803e3d6000fd5b505050506040513d601f19601f820116820180604052508101906128fc919061585c565b6040518363ffffffff1660e01b8152600401612919929190615843565b6020604051808303816000875af1158015612938573d6000803e3d6000fd5b505050506040513d601f19601f8201168201806040525081019061295c9190615875565b50600354604051630441a3e760e41b81526004810191909152602481018490526001600160a01b0383169063441a3e7090604401600060405180830381600087803b1580156129aa57600080fd5b505af11580156129be573d6000803e3d6000fd5b50506000600e555050505050565b601060205281600052604060002081600581106129e857600080fd5b01549150829050565b6001600160a01b0381166000908152600660208190526040822090810182612a1885614e9e565b90506000612a25866146a1565b90506000805b6006860154811015612c3d57600060096000878481548110612a4f57612a4f6156bd565b906000526020600020906004020160010160009054906101000a900460ff1660ff1681526020019081526020016000205490506000868381548110612a9657612a966156bd565b90600052602060002090600402016002015442612ab39190615816565b600a541115612afb57868381548110612ace57612ace6156bd565b90600052602060002090600402016002015442612aeb9190615816565b600a54612af89190615816565b90505b6001600160a01b038a1660009081526010602052604090208754889085908110612b2757612b276156bd565b600091825260209091206003600490920201015460ff1660058110612b4e57612b4e6156bd565b0154612bba578085888581548110612b6857612b686156bd565b600091825260209091206003600490920201015460ff1660058110612b8f57612b8f6156bd565b6020020151612b9e90846157a9565b612ba990600a6157a9565b612bb391906157a9565b9150612c1c565b8085888581548110612bce57612bce6156bd565b600091825260209091206003600490920201015460ff1660058110612bf557612bf56156bd565b6020020151612c0490846157a9565b612c0f90600f6157a9565b612c1991906157a9565b91505b612c2682856156e9565b935050508080612c3590615701565b915050612a2b565b506001600160a01b038716600090815260116020526040902054612c9857600a546127108483600a612c6f91906157a9565b612c7991906157a9565b612c8391906157de565b612c8d91906157de565b979650505050505050565b600a546001600160a01b038816600090815260116020526040902054612710908590612c6f90856157a9565b6001600160a01b0381166000908152600660209081526040918290206003810180548451818502810185019095528085526060949293830182828015612d2957602002820191906000526020600020905b815481526020019060010190808311612d15575b5050505050915050919050565b6001600160a01b0380821660009081526006602090815260408083206004805483516305d0ff3960e31b81529351959692958795919093169385938593632e87f9c89383820193909291908290030181865afa158015612d9a573d6000803e3d6000fd5b505050506040513d601f19601f82011682018060405250810190612dbe919061571c565b905060005b8454811015610cf8576000826001600160a01b03166368ba0bcf878481548110612def57612def6156bd565b90600052602060002001546040518263ffffffff1660e01b8152600401612e1891815260200190565b6040805180830381865afa158015612e34573d6000803e3d6000fd5b505050506040513d601f19601f82011682018060405250810190612e58919061574f565b805160ff16600090815260076020526040902054909150612e7990866156e9565b9450508080612e8790615701565b915050612dc3565b6000612e9a836150c5565b9050600060188281548110612eb157612eb16156bd565b6000918252602082206009600a909202010154601880546001600160a01b0390921693509084908110612ee657612ee66156bd565b90600052602060002090600a02016000019050600060188481548110612f0e57612f0e6156bd565b90600052602060002090600a02016004019050336001600160a01b0316836001600160a01b031614612f6e5760405162461bcd60e51b81526020600482015260096024820152682737ba1037bbb732b960b91b60448201526064016115bf565b60188481548110612f8157612f816156bd565b90600052602060002090600a0201600801544211612fd75760405162461bcd60e51b81526020600482015260136024820152725761697420756e74696c205265636f7665727960681b60448201526064016115bf565b600454600382015486516001600160a01b039092169160009160ff1690829061301a906064908b90849061300d5761300d6156bd565b6020026020010151615120565b90506020548110806130335750600185015460ff166004145b1561304757600185015460ff16925061305f565b60018086015461305c9160ff90911690615897565b92505b61307760648a60018151811061300d5761300d6156bd565b905060215481101561308e57600386015460ff1691505b6130a660648a60028151811061300d5761300d6156bd565b905060225481101561312357604051630ae3b8f760e31b81526001600160a01b03888116600483015260ff80861660248401528416604483015285169063571dc7b890606401600060405180830381600087803b15801561310657600080fd5b505af115801561311a573d6000803e3d6000fd5b50505050613190565b604051639e16866760e01b81526001600160a01b03888116600483015260ff808616602484015284166044830152851690639e16866790606401600060405180830381600087803b15801561317757600080fd5b505af115801561318b573d6000803e3d6000fd5b505050505b3360009081526006602081905260408220908101916001909101905b82548110156132335788600001548382815481106131cc576131cc6156bd565b90600052602060002090600402016000015414156132215760008382815481106131f8576131f86156bd565b906000526020600020906004020160030160016101000a81548160ff0219169083151502179055505b8061322b81615701565b9150506131ac565b5060005b81548110156132be578760000154828281548110613257576132576156bd565b90600052602060002090600402016000015414156132ac576000828281548110613283576132836156bd565b906000526020600020906004020160030160016101000a81548160ff0219169083151502179055505b806132b681615701565b915050613237565b50601880546132cf90600190615816565b815481106132df576132df6156bd565b90600052602060002090600a020160188b81548110613300576133006156bd565b600091825260209091208254600a90920201908155600180830154908201805460ff1990811660ff9384161790915560028085015490840155600380850180549185018054808516938616938417825591546101009081900486161515810261ffff1993841690941793909317905560048087015490860155600580870154908601805485169186169190911790556006808701549086015560078087018054918701805495861692871692831781559054849004909516151590920292161717905560088083015490820155600991820154910180546001600160a01b0319166001600160a01b0390921691909117905560188054806134035761340361582d565b600082815260208120600a6000199093019283020181815560018101805460ff199081169091556002820183905560038201805461ffff1990811690915560048301849055600583018054909216909155600682018390556007820180549091169055600881019190915560090180546001600160a01b03191690559055505050505050505050505050565b336000908152600660208190526040909120908101546134b09060016156e9565b6134b933612d36565b10156134f75760405162461bcd60e51b815260206004820152600d60248201526c4c696d6974206f6620436f777360981b60448201526064016115bf565b6004805460408051639708444560e01b815290516001600160a01b03909216926000928492639708444592818101926020929091908290030181865afa158015613545573d6000803e3d6000fd5b505050506040513d601f19601f82011682018060405250810190613569919061571c565b6040516323b872dd60e01b81529091506001600160a01b038216906323b872dd9061359c903390309089906004016157f2565b600060405180830381600087803b1580156135b657600080fd5b505af11580156135ca573d6000803e3d6000fd5b505050506135d661437c565b336000908152602360205260408082209290925542600586015590516368ba0bcf60e01b8152600481018690526001600160a01b038316906368ba0bcf90602401606060405180830381865afa158015613634573d6000803e3d6000fd5b505050506040513d601f19601f820116820180604052508101906136589190615923565b905060006040518060a00160405280878152602001836000015160ff16815260200183604001518152602001836020015160ff16815260200160001515815250905060006136a5336129f1565b60068701805460018181018355600092835260208084208751600490940201928355860151908201805460ff92831660ff1990911617905560408601516002830155606086015160039092018054608088015115156101000261ffff1990911693909216929092171790559091508161371d336129f1565b6137279190615816565b905080600b600082825461373b91906156e9565b909155505060008881526005602052604090819020829055517fdb748fa6506d8792c87332c8b83fb4b9d8e2820c01034ee2ae65cb656b636b8f906137839033908b90615843565b60405180910390a15050505050505050565b336000818152600660205260409081902060145491516323b872dd60e01b815290926001600160a01b039092169182916323b872dd916137db91309088906004016157f2565b6020604051808303816000875af11580156137fa573d6000803e3d6000fd5b505050506040513d601f19601f8201168201806040525081019061381e9190615875565b508282600701600082825461156391906156e9565b6001600160a01b0381166000908152600660209081526040918290206002810180548451818502810185019095528085526060949293830182828015612d295760200282019190600052602060002090815481526020019060010190808311612d15575050505050915050919050565b6138ab614df2565b6015546040516370a0823160e01b81523060048201526001600160a01b039091169060009082906370a0823190602401602060405180830381865afa1580156138f8573d6000803e3d6000fd5b505050506040513d601f19601f8201168201806040525081019061391c919061585c565b90508281101561395d5760405162461bcd60e51b815260206004820152600c60248201526b4f7665722062616c616e636560a01b60448201526064016115bf565b60405163a9059cbb60e01b81526001600160a01b0383169063a9059cbb9061398b9033908790600401615843565b6020604051808303816000875af11580156139aa573d6000803e3d6000fd5b505050506040513d601f19601f820116820180604052508101906139ce9190615875565b50505050565b600d8181548110611fc657600080fd5b336000908152600660205260409081902060125460048083015493516323b872dd60e01b815292936001600160a01b039283169384936323b872dd93613a319330939216918991016157f2565b600060405180830381600087803b158015613a4b57600080fd5b505af1158015613a5f573d6000803e3d6000fd5b50505060028301905060005b8154811015613b205784828281548110613a8757613a876156bd565b90600052602060002001541415613b0e5781548290613aa890600190615816565b81548110613ab857613ab86156bd565b9060005260206000200154828281548110613ad557613ad56156bd565b906000526020600020018190555081805480613af357613af361582d565b60019003818190600052602060002001600090559055613b20565b80613b1881615701565b915050613a6b565b5060006040518060a00160405280600081526020016000815260200160008152602001600081526020016000815250905060005b8254811015613bc157600f82600c858481548110613b7457613b746156bd565b906000526020600020015481548110613b8f57613b8f6156bd565b906000526020600020015460058110613baa57613baa6156bd565b602002015280613bb981615701565b915050613b54565b503360009081526010602052604090206112ab908260056151fb565b336000908152600660208190526040822091908201906001830190808080805b8654811015613cc15789878281548110613c1957613c196156bd565b906000526020600020906004020160000154148015613c665750868181548110613c4557613c456156bd565b906000526020600020906004020160030160019054906101000a900460ff16155b15613caf576001878281548110613c7f57613c7f6156bd565b906000526020600020906004020160030160016101000a81548160ff021916908315150217905550600194508092505b80613cb981615701565b915050613bfd565b5060005b8554811015613d895788868281548110613ce157613ce16156bd565b906000526020600020906004020160000154148015613d2e5750858181548110613d0d57613d0d6156bd565b906000526020600020906004020160030160019054906101000a900460ff16155b15613d77576001868281548110613d4757613d476156bd565b906000526020600020906004020160030160016101000a81548160ff021916908315150217905550600193508091505b80613d8181615701565b915050613cc5565b506000868381548110613d9e57613d9e6156bd565b906000526020600020906004020190506000868381548110613dc257613dc26156bd565b9060005260206000209060040201905085613e145760405162461bcd60e51b81526020600482015260126024820152713ab739ba30b5b2b21031b7bb903a37b5b2b760711b60448201526064016115bf565b84613e575760405162461bcd60e51b81526020600482015260136024820152723ab729ba30b5b2b210313ab636103a37b5b2b760691b60448201526064016115bf565b6000816002015442613e699190615816565b6001808401549085015491925060ff918216911614613ee25760405162461bcd60e51b815260206004820152602f60248201527f4272656564696e6720697320696d706f737369626c65206265747765656e206460448201526e6966666572656e742072617269747960881b60648201526084016115bf565b8060195411613f255760405162461bcd60e51b815260206004820152600f60248201526e109d5b1b081a5cc81d1bdbc81bdb19608a1b60448201526064016115bf565b601554601f546040516323b872dd60e01b81526001600160a01b03909216916323b872dd91613f5a91339130916004016157f2565b6020604051808303816000875af1158015613f79573d6000803e3d6000fd5b505050506040513d601f19601f82011682018060405250810190613f9d9190615875565b5060408051610120810182526000608080830182815260a080850184905260c0850184905260e0850184905261010085018490529084528451908101855282815260208082018490528186018490526060808301859052928201849052840152928201819052918101919091526040805160a080820183528654825260018088015460ff9081166020808601919091526002808b0154868801526003808c01548085166060808a019190915261010091829004861615156080808b0191909152988b5289519788018a528c548852958c0154851687850152918b015497860197909752958901548083168585015295909504161515928201929092529183019190915233908201526019546000906140b58482615816565b6140c3906305f5e1006157a9565b6140cd91906157de565b6140db906305f5e100615816565b60018501549091506305f5e100908290601a9060ff1660058110614101576141016156bd565b015461410d91906157a9565b61411791906157de565b6001850154601a9060ff1660058110614132576141326156bd565b015461413e90426156e9565b61414891906156e9565b604083810191825260188054600181018255600091909152845180517fb13d2d76d1f4b7be834882e410b3e3a8afaf69f83600ae24db354391d2378d2e600a909302928301556020808201517fb13d2d76d1f4b7be834882e410b3e3a8afaf69f83600ae24db354391d2378d2f8401805460ff1990811660ff93841617909155838601517fb13d2d76d1f4b7be834882e410b3e3a8afaf69f83600ae24db354391d2378d308601556060808501517fb13d2d76d1f4b7be834882e410b3e3a8afaf69f83600ae24db354391d2378d318701805460809788015192861661ffff1991821617610100931515840217909155858c015180517fb13d2d76d1f4b7be834882e410b3e3a8afaf69f83600ae24db354391d2378d328a0155958601517fb13d2d76d1f4b7be834882e410b3e3a8afaf69f83600ae24db354391d2378d338901805490951690861617909355968401517fb13d2d76d1f4b7be834882e410b3e3a8afaf69f83600ae24db354391d2378d34870155838101517fb13d2d76d1f4b7be834882e410b3e3a8afaf69f83600ae24db354391d2378d358701805495909601519316939091169290921790151590940293909317905591517fb13d2d76d1f4b7be834882e410b3e3a8afaf69f83600ae24db354391d2378d36830155909201517fb13d2d76d1f4b7be834882e410b3e3a8afaf69f83600ae24db354391d2378d3790920180546001600160a01b0319166001600160a01b039093169290921790915550505050505050505050505050565b600080614388336129f1565b33600090815260066020526040812060050154919250906143ac90620151806156e9565b42106143bc5750620151806143dc565b336000908152600660205260409020600501546143d99042615816565b90505b600b546143ec5760009250505090565b60006003600b548484600e5461440291906157a9565b61440c91906157a9565b61441691906157de565b61442091906157de565b33600090815260236020526040902054610d4d91906156e9565b336000908152600660209081526040808320600480548351632a4d0d5960e11b8152935192956001600160a01b03909116949093859363549a1ab29382810193928290030181865afa158015614494573d6000803e3d6000fd5b505050506040513d601f19601f820116820180604052508101906144b8919061571c565b6004808501546040516323b872dd60e01b81529293506001600160a01b03808516936323b872dd936144f093309316918a91016157f2565b600060405180830381600087803b15801561450a57600080fd5b505af115801561451e573d6000803e3d6000fd5b50505060018401905060005b815481101561466f5785828281548110614546576145466156bd565b906000526020600020906004020160000154141561465d578154829061456e90600190615816565b8154811061457e5761457e6156bd565b906000526020600020906004020182828154811061459e5761459e6156bd565b600091825260209091208254600490920201908155600180830154908201805460ff92831660ff1991821617909155600280850154908401556003938401805494909301805494831691851682178155925461ffff1990941617610100938490049091161515909202919091179055815482908061461e5761461e61582d565b60008281526020812060046000199093019283020181815560018101805460ff191690556002810191909155600301805461ffff19169055905561466f565b8061466781615701565b91505061452a565b507f17c05b5065f7ef088f8d90fa37ba3895610a8d18defb423c168fe0bebf0bc2783386604051610fff929190615843565b6146a9615229565b6001600160a01b038083166000908152600660209081526040808320815160a081018352600a8082528185018190528184018190526060820181905260808201526004805484516305d0ff3960e31b815294519397929692169491938593632e87f9c8938284019390928290030181865afa15801561472c573d6000803e3d6000fd5b505050506040513d601f19601f82011682018060405250810190614750919061571c565b905060005b8454811015610cf8576000826001600160a01b03166368ba0bcf876000018481548110614784576147846156bd565b90600052602060002001546040518263ffffffff1660e01b81526004016147ad91815260200190565b6040805180830381865afa1580156147c9573d6000803e3d6000fd5b505050506040513d601f19601f820116820180604052508101906147ed919061574f565b9050600f85826020015160ff166005811061480a5761480a6156bd565b6020020152508061481a81615701565b915050614755565b61482a614df2565b6001600160a01b03811661488f5760405162461bcd60e51b815260206004820152602660248201527f4f776e61626c653a206e6577206f776e657220697320746865207a65726f206160448201526564647265737360d01b60648201526084016115bf565b61489881614e4c565b50565b3360009081526006602052604090206001808201546148b9916156e9565b6148c233610b9f565b10156149015760405162461bcd60e51b815260206004820152600e60248201526d4c696d6974206f662042756c6c7360901b60448201526064016115bf565b6004805460408051632a4d0d5960e11b815290516001600160a01b0390921692600092849263549a1ab292818101926020929091908290030181865afa15801561494f573d6000803e3d6000fd5b505050506040513d601f19601f82011682018060405250810190614973919061571c565b6040516323b872dd60e01b81529091506001600160a01b038216906323b872dd906149a6903390309089906004016157f2565b600060405180830381600087803b1580156149c057600080fd5b505af11580156149d4573d6000803e3d6000fd5b50506040516368ba0bcf60e01b815260048101879052600092506001600160a01b03841691506368ba0bcf90602401606060405180830381865afa158015614a20573d6000803e3d6000fd5b505050506040513d601f19601f82011682018060405250810190614a449190615923565b6040805160a081018252878152825160ff9081166020808401918252848601518486019081528187015184166060860190815260006080870181815260018e8101805480830182559084529590922088516004909602019485559451908401805491871660ff19909216919091179055905160028301555160039091018054925115156101000261ffff1990931691909316171790559051919250907f9397adb80f5c2f1c37158916f5beb10ffcb153bed4eaf738e31245cc97fafb58906123149033908990615843565b60188181548110614b1f57600080fd5b60009182526020918290206040805160a08082018352600a90940290920180548352600181015460ff90811684870152600282015484840152600382015480821660608087019190915261010091829004831615156080808801919091528551978801865260048501548852600585015484169888019890985260068401549487019490945260078301548083169487019490945290920490911615159383019390935260088301546009909301549093509091906001600160a01b031684565b60048054604080516305d0ff3960e31b815290516001600160a01b03909216926000928492632e87f9c892818101926020929091908290030181865afa158015614c2e573d6000803e3d6000fd5b505050506040513d601f19601f82011682018060405250810190614c52919061571c565b336000818152600660209081526040808320805460018101825581855292909320909101879055600480830180546001600160a01b0319168517905590516323b872dd60e01b815293945090926001600160a01b038516926323b872dd92614cbe9230918a91016157f2565b600060405180830381600087803b158015614cd857600080fd5b505af1158015614cec573d6000803e3d6000fd5b505050507f908bf600f2d727dfbe4228f96a4e69e34c248d575fe6aff2fca48b3beb2b12203385604051614d21929190615843565b60405180910390a150505050565b6001600160a01b03811660009081526006602052604081206001018054606092906001600160401b03811115614d6757614d676154d9565b604051908082528060200260200182016040528015614d90578160200160208202803683370190505b50905060005b82548110156110f257828181548110614db157614db16156bd565b906000526020600020906004020160000154828281518110614dd557614dd56156bd565b602090810291909101015280614dea81615701565b915050614d96565b6001546001600160a01b03163314611fb45760405162461bcd60e51b815260206004820181905260248201527f4f776e61626c653a2063616c6c6572206973206e6f7420746865206f776e657260448201526064016115bf565b600180546001600160a01b038381166001600160a01b0319831681179093556040519116919082907f8be0079c531659141344cd1fd0a4f28419497f9722a3daafe3b4186f6b6457e090600090a35050565b6014546040516370a0823160e01b81526001600160a01b0383811660048301526000921690829082906370a0823190602401602060405180830381865afa158015614eed573d6000803e3d6000fd5b505050506040513d601f19601f82011682018060405250810190614f11919061585c565b9050600254600a614f229190615a23565b614f2d90600a6157a9565b811015614f3e5750600a9392505050565b600254614f4c90600a615a23565b614f579060146157a9565b811015614f685750600b9392505050565b600254614f7690600a615a23565b614f8190601e6157a9565b811015614f925750600c9392505050565b600254614fa090600a615a23565b614fab9060326157a9565b811015614fbc5750600d9392505050565b600254614fca90600a615a23565b614fd59060506157a9565b811015614fe65750600e9392505050565b600254614ff490600a615a23565b614fff9060826157a9565b8110156150105750600f9392505050565b60025461501e90600a615a23565b6150299060d26157a9565b81101561503a575060109392505050565b60025461504890600a615a23565b615054906101546157a9565b811015615065575060119392505050565b60025461507390600a615a23565b61507f906102266157a9565b811015615090575060129392505050565b60025461509e90600a615a23565b6150aa9061037a6157a9565b8110156150bb575060139392505050565b5060149392505050565b6000805b60185481101561511a5782601882815481106150e7576150e76156bd565b90600052602060002090600a02016004016000015414156151085792915050565b8061511281615701565b9150506150c9565b92915050565b604080514260208201526bffffffffffffffffffffffff193360601b16918101919091526054810182905260009083906074016040516020818303038152906040528051906020012060001c6151769190615a2f565b9392505050565b8280548282559060005260206000209081019282156151b8579160200282015b828111156151b857823582559160200191906001019061519d565b506151c4929150615247565b5090565b82600581019282156151b8579160200282015b828111156151b8578251829060ff169055916020019190600101906151db565b82600581019282156151b8579160200282015b828111156151b857825182559160200191906001019061520e565b6040518060a001604052806005906020820280368337509192915050565b5b808211156151c45760008155600101615248565b60006020828403121561526e57600080fd5b5035919050565b6000806020838503121561528857600080fd5b82356001600160401b038082111561529f57600080fd5b818501915085601f8301126152b357600080fd5b8135818111156152c257600080fd5b8660208260051b85010111156152d757600080fd5b60209290920196919550909350505050565b6000806000606084860312156152fe57600080fd5b505081359360208301359350604090920135919050565b6001600160a01b038116811461489857600080fd5b60006020828403121561533c57600080fd5b813561517681615315565b600081518084526020808501945080840160005b838110156153775781518752958201959082019060010161535b565b509495945050505050565b6020815260006151766020830184615347565b600080600080600080600060e0888a0312156153b057600080fd5b87356153bb81615315565b965060208801356153cb81615315565b955060408801356153db81615315565b945060608801356153eb81615315565b935060808801356153fb81615315565b925060a088013561540b81615315565b915060c088013561541b81615315565b8091505092959891949750929550565b60c08152600061543e60c0830189615347565b82810360208401526154508189615347565b905082810360408401526154648188615347565b905082810360608401526154788187615347565b9050828103608084015261548c8186615347565b905082810360a08401526154a08185615347565b9998505050505050505050565b600080604083850312156154c057600080fd5b82356154cb81615315565b946020939093013593505050565b634e487b7160e01b600052604160045260246000fd5b604051601f8201601f191681016001600160401b0381118282101715615517576155176154d9565b604052919050565b6000806040838503121561553257600080fd5b823591506020808401356001600160401b038082111561555157600080fd5b818601915086601f83011261556557600080fd5b813581811115615577576155776154d9565b8060051b91506155888483016154ef565b81815291830184019184810190898411156155a257600080fd5b938501935b838510156155c0578435825293850193908501906155a7565b8096505050505050509250929050565b600080604083850312156155e357600080fd5b50508035926020909101359150565b60a08101818360005b600581101561561a5781518352602092830192909101906001016155fb565b50505092915050565b610180810161566582878051825260ff60208201511660208301526040810151604083015260ff60608201511660608301526080810151151560808301525050565b845160a0830152602085015160ff90811660c0840152604086015160e084015260608601511661010083015260809094015115156101208201526101408101929092526001600160a01b031661016090910152919050565b634e487b7160e01b600052603260045260246000fd5b634e487b7160e01b600052601160045260246000fd5b600082198211156156fc576156fc6156d3565b500190565b6000600019821415615715576157156156d3565b5060010190565b60006020828403121561572e57600080fd5b815161517681615315565b805160ff8116811461574a57600080fd5b919050565b60006040828403121561576157600080fd5b604051604081018181106001600160401b0382111715615783576157836154d9565b60405261578f83615739565b815261579d60208401615739565b60208201529392505050565b60008160001904831182151516156157c3576157c36156d3565b500290565b634e487b7160e01b600052601260045260246000fd5b6000826157ed576157ed6157c8565b500490565b6001600160a01b039384168152919092166020820152604081019190915260600190565b600082821015615828576158286156d3565b500390565b634e487b7160e01b600052603160045260246000fd5b6001600160a01b03929092168252602082015260400190565b60006020828403121561586e57600080fd5b5051919050565b60006020828403121561588757600080fd5b8151801515811461517657600080fd5b600060ff821660ff84168060ff038211156158b4576158b46156d3565b019392505050565b6000606082840312156158ce57600080fd5b604051606081018181106001600160401b03821117156158f0576158f06154d9565b6040529050806158ff83615739565b815261590d60208401615739565b6020820152604083015160408201525092915050565b60006060828403121561593557600080fd5b61517683836158bc565b600181815b8085111561597a578160001904821115615960576159606156d3565b8085161561596d57918102915b93841c9390800290615944565b509250929050565b6000826159915750600161511a565b8161599e5750600061511a565b81600181146159b457600281146159be576159da565b600191505061511a565b60ff8411156159cf576159cf6156d3565b50506001821b61511a565b5060208310610133831016604e8410600b84101617156159fd575081810a61511a565b615a07838361593f565b8060001904821115615a1b57615a1b6156d3565b029392505050565b60006151768383615982565b600082615a3e57615a3e6157c8565b50069056fea2646970667358221220af4ee857c3d0b5f55f6d4f6e4c2768b469c6bbe87b6e04a155898f82a29c4a9e64736f6c634300080c0033",
  "immutableReferences": {},
  "source": "// SPDX-License-Identifier: MIT\npragma solidity >=0.4.22 <0.9.0;\n\nimport \"@openzeppelin/contracts/security/ReentrancyGuard.sol\";\nimport \"@openzeppelin/contracts/access/Ownable.sol\";\nimport \"@openzeppelin/contracts/token/ERC20/IERC20.sol\";\nimport \"@openzeppelin/contracts/token/ERC721/IERC721.sol\";\nimport \"./interfaces/INftMinter.sol\";\nimport \"./interfaces/ILandNFT.sol\";\nimport \"./interfaces/ICowNFT.sol\";\nimport \"./interfaces/IBullNFT.sol\";\nimport \"./interfaces/IMasterChef.sol\";\nimport \"./interfaces/IHappyCow.sol\";\n\ncontract Farming is ReentrancyGuard, Ownable {\n    uint COW_TOKEN_DECIMALS = 9;\n    // uint MASTERCHEF_PID = 5;\n    uint MASTERCHEF_PID = 6;\n    \n    // address HAPPY_COW_ADDRESS = 0xD220d3E1bab3A30f170E81b3587fa382BB4A6263; // Deployed on testnet, For TEST\n    // address AIR_NFT_ADDRESS = 0x74A9Bb4F6b05236507614cA70d32f65436064786; // Deployed on testnet, For TEST\n    // address COW_TOKEN_ADDRESS = 0x562d2BFc80FD1afF3bF5e4Bd8Fa5312E65305C14; // Deployed on testnet, For TEST\n    // address MILK_TOKEN_ADDRESS = 0x3eFA66aB2b1690e9BE8e82784EDfF2cF2dc150e0; // Deployed on testnet, For TEST\n    // address MASTERCHEF_ADDRESS = 0xB11C302675FD4a0bD725ecB7e0c3b9F6a3caEa8b; // Deployed on testnet, For TEST\n    // address SECRET_LP_ADDRESS = 0xC25e8b265Ee64A0CDE09347dC8d3e40419E8311f; // Deployed on testnet, For TEST\n    // address SECRET_LP_ADDRESS = 0xFED350e5e65FDe282d9164297316B781BA1bEa94; // Deployed on testnet, For TEST\n    \n    address public minterAddr; // NftMinter contract address\n\n    // Structure of CowBullInfo\n    struct CowBullInfo {\n        uint256 tokenId;\n        uint8 rarity;\n        uint256 birth;\n        uint8 breed;\n        bool isBreeding;\n    }\n\n    // Structure of FarmingVault\n    struct FarmingVault {\n        uint[] landTokenIds; // Array of Lands to be staked\n        CowBullInfo[] bulls; // Array of Cows to be staked\n        uint256[] happyCowIds; // Array of Happy Cows to be staked\n        uint256[] airIds; // Array of Genesis to be staked\n        address owner; // Owner of the farm. Can be used as primary key of the farm.\n        uint lastReward; // block time of last reward\n        CowBullInfo[] cows;\n        uint256 stakedCow; //Cow Tokens to be staked by user\n    }\n\n    // FarmingVault[] public farms; // Array of farms\n    mapping(uint256 => uint256 ) public initMilkPower;\n    mapping(address => FarmingVault) public userFarms;\n    mapping(uint256 => uint256) public cowLimitPerLand;\n    mapping(uint256 => uint256) public bullLimitPerLand;\n\n    mapping(uint256 => uint256) public baseMilkPower; // Base MilkPower of Cows by rarity\n    \n    uint public maxAge; // Maximum age of Cow and Bull. Used to change the aging speed.\n    uint256 public totalMilkPower;\n    uint[] public happyCowNftBreeds;\n    uint[] public genesisTokenIds;\n    uint256 public milkPerBlock;\n    bool private initialized;\n    mapping(address => uint256[5]) public happyCowBonus;\n    mapping(address => uint256) public airNftBonus;\n\n    // Public Variables for initialize the Contract\n    address public HAPPY_COW_ADDRESS;\n    address public AIR_NFT_ADDRESS;\n    address public COW_TOKEN_ADDRESS;\n    address public MILK_TOKEN_ADDRESS;\n    address public MASTERCHEF_ADDRESS;\n    address public SECRET_LP_ADDRESS;\n    // address SECRET_LP_ADDRESS = 0xC25e8b265Ee64A0CDE09347dC8d3e40419E8311f;\n\n    struct BreedingVault {\n        CowBullInfo cowTokenInfo; // Staked Cow tokenId\n        CowBullInfo bullTokenInfo; // Staked Bull tokenId\n        uint unlockTime; // Breeding time\n        address owner; // Owner of the couple\n    }\n\n    BreedingVault[] public breedingVaults; // Array of BreedingVault\n\n    uint public maxRecoveryTime;\n    uint[5] public baseRecoveryTime;\n    uint public breedingPrice;\n    uint256 public rarityProbability;\n    uint256 public breedProbability;\n    uint256 public cowProbability;\n    mapping(address => uint256) private reserveAmount;\n\n    event DepositLand(address _owner, uint _tokenId);\n    event WithdrawLand(address _owner, uint _tokenId);\n    event DepositCow(address _owner, uint _tokenId);\n    event WithdrawCow(address _owner, uint _tokenId);\n    event DepositBull(address _owner, uint _tokenId);\n    event WithdrawBull(address _owner, uint _tokenId);\n\n    // Initialize the contract. This is for Proxy functionality.  Can be called only by the owner.\n    function initialize(address _minterAddr, address _happyCowAddress, address _airNftAddress,address _cowTokenAddress, address _milkTokenAddress, address _masterChefAddress, address _secretLpAddress) public {\n\n        require(_minterAddr != address(0), \"Initializing by zero address\");\n        require(!initialized, \"already initialized\");\n        initialized = true;\n        minterAddr = _minterAddr;\n\n        HAPPY_COW_ADDRESS = _happyCowAddress;\n        AIR_NFT_ADDRESS = _airNftAddress;\n        COW_TOKEN_ADDRESS = _cowTokenAddress;\n        MILK_TOKEN_ADDRESS = _milkTokenAddress;\n        MASTERCHEF_ADDRESS = _masterChefAddress;\n        SECRET_LP_ADDRESS = _secretLpAddress;\n\n        _transferOwnership(msg.sender);\n\n        maxAge = 200 days;\n        cowLimitPerLand[0] = 40;\n        cowLimitPerLand[1] = 80;\n        cowLimitPerLand[2] = 120;\n        cowLimitPerLand[3] = 200;\n        cowLimitPerLand[4] = 320;\n\n        bullLimitPerLand[0] = 2;\n        bullLimitPerLand[1] = 4;\n        bullLimitPerLand[2] = 6;\n        bullLimitPerLand[3] = 10;\n        bullLimitPerLand[4] = 16;\n\n        baseMilkPower[0] = 2000;\n        baseMilkPower[1] = 3000;\n        baseMilkPower[2] = 5000;\n        baseMilkPower[3] = 8000;\n        baseMilkPower[4] = 13000;\n        \n        // HAPPY_COW_ADDRESS = 0xD220d3E1bab3A30f170E81b3587fa382BB4A6263; // Deployed on testnet, For TEST\n        // AIR_NFT_ADDRESS = 0x74A9Bb4F6b05236507614cA70d32f65436064786; // Deployed on testnet, For TEST\n        // COW_TOKEN_ADDRESS = 0x562d2BFc80FD1afF3bF5e4Bd8Fa5312E65305C14; // Deployed on testnet, For TEST\n        // MILK_TOKEN_ADDRESS = 0x3eFA66aB2b1690e9BE8e82784EDfF2cF2dc150e0; // Deployed on testnet, For TEST\n        // MASTERCHEF_ADDRESS = 0xB11C302675FD4a0bD725ecB7e0c3b9F6a3caEa8b; // Deployed on testnet, For TEST\n        // SECRET_LP_ADDRESS = 0xC25e8b265Ee64A0CDE09347dC8d3e40419E8311f; // Deployed on testnet, For TEST\n\n        COW_TOKEN_DECIMALS = 9;\n        MASTERCHEF_PID = 6;\n\n        maxRecoveryTime = 200 days;\n        breedingPrice = 90*10**18;\n        rarityProbability = 50;\n        breedProbability = 80;\n        cowProbability = 90;\n        baseRecoveryTime[0] = 50 minutes;\n        baseRecoveryTime[1] = 40 minutes;\n        baseRecoveryTime[2] = 30 minutes;\n        baseRecoveryTime[3] = 20 minutes;\n        baseRecoveryTime[4] = 10 minutes;\n        // baseRecoveryTime[0] = 180 hours;\n        // baseRecoveryTime[1] = 90 hours;\n        // baseRecoveryTime[2] = 48 hours;\n        // baseRecoveryTime[3] = 24 hours;\n        // baseRecoveryTime[4] = 12 hours;\n        _transferOwnership(msg.sender);\n    }\n\n    function depositLP() external onlyOwner{\n        IMasterChef masterChef = IMasterChef(address(MASTERCHEF_ADDRESS));\n        IERC20 secretLpTokenContract = IERC20(address(SECRET_LP_ADDRESS));\n        secretLpTokenContract.approve(MASTERCHEF_ADDRESS, secretLpTokenContract.balanceOf(address(this)));\n        masterChef.deposit(MASTERCHEF_PID, secretLpTokenContract.balanceOf(address(this)));\n    }\n    \n    function withdrawLp(uint256 _amount) external onlyOwner{\n        IMasterChef masterChef = IMasterChef(address(MASTERCHEF_ADDRESS));\n        IERC20 secretLpTokenContract = IERC20(address(SECRET_LP_ADDRESS));\n        secretLpTokenContract.approve(MASTERCHEF_ADDRESS, secretLpTokenContract.balanceOf(address(this)));\n        masterChef.withdraw(MASTERCHEF_PID, _amount);\n        milkPerBlock = 0;\n    }\n\n    // Deposit(Stake) Land NFT.\n    function setMilkPerBlock(uint256 newValue) external onlyOwner {\n        milkPerBlock = newValue;\n    }\n\n    function depositLand(uint _tokenId) public {\n        INftMinter minter = INftMinter(address(minterAddr));\n        ILandNFT landNfts = ILandNFT(address(minter.landNftColl()));\n        FarmingVault storage _userFarm = userFarms[msg.sender];\n        _userFarm.landTokenIds.push(_tokenId);\n        _userFarm.owner = msg.sender;\n        landNfts.transferFrom(msg.sender, address(this), _tokenId);\n\n        emit DepositLand(msg.sender, _tokenId);\n    }\n\n    // Withdraw(Unstake) Land NFT.\n    function withdrawLand(uint _tokenId) public {\n        INftMinter minter = INftMinter(address(minterAddr));\n        ILandNFT landNfts = ILandNFT(address(minter.landNftColl()));\n        ILandNFT.LandAttr memory attr = landNfts.attrOf(_tokenId);\n        FarmingVault storage _userFarm = userFarms[msg.sender];\n\n        require(_totalCowLimitOf(msg.sender) - cowLimitPerLand[attr.rarity] >= _userFarm.cows.length, \"Cow Limit: Withdraw Cows first\");\n        require(_totalBullLimitOf(msg.sender) - bullLimitPerLand[attr.rarity] >= _userFarm.bulls.length, \"Bull Limit: Withdraw Bulls first\");\n        landNfts.transferFrom(address(this), _userFarm.owner, _tokenId);\n        uint256[] storage userLands = _userFarm.landTokenIds;\n        for(uint idx = 0;idx < userLands.length;idx ++) {\n            if(userLands[idx] == _tokenId) {\n                userLands[idx] = userLands[userLands.length - 1];\n                userLands.pop();\n                break;\n            }\n        }\n\n        emit WithdrawLand(msg.sender, _tokenId);\n    }\n\n    // Deposit(Stake) a Cow NFT.\n    function depositCow(uint _tokenId) external {\n        FarmingVault storage _userFarm = userFarms[msg.sender];\n        require(_totalCowLimitOf(msg.sender) >= _userFarm.cows.length + 1, \"Limit of Cows\");\n\n        INftMinter minter = INftMinter(address(minterAddr));\n        ICowNFT cowNfts = ICowNFT(address(minter.cowNftColl()));\n        cowNfts.transferFrom(msg.sender, address(this), _tokenId);\n        reserveAmount[msg.sender] =  getUserRewardAmount();\n        _userFarm.lastReward = block.timestamp;\n        ICowNFT.CattleAttr memory cowAttr = cowNfts.attrOf(_tokenId);\n        // _userFarm.cowTokenIds.push(_tokenId);\n        CowBullInfo memory _cows = CowBullInfo(_tokenId, cowAttr.rarity, cowAttr.birth, cowAttr.breed, false);\n        uint256 _beforeMilkpower = milkPowerOf(msg.sender);\n        _userFarm.cows.push(_cows);\n        uint256 _milkpower = milkPowerOf(msg.sender) - _beforeMilkpower;\n        totalMilkPower += _milkpower;\n        initMilkPower[_tokenId] = _milkpower;\n        emit DepositCow(msg.sender, _tokenId);\n    }\n\n    // Withdraw(Unstake) a Cow NFT.\n    function withdrawCow(uint _tokenId) public {\n        FarmingVault storage _userFarm = userFarms[msg.sender];\n        INftMinter minter = INftMinter(address(minterAddr));\n        ICowNFT cowNfts = ICowNFT(address(minter.cowNftColl()));\n        cowNfts.transferFrom(address(this), _userFarm.owner, _tokenId);\n        CowBullInfo[] storage userCows = _userFarm.cows;\n        for(uint idx = 0;idx < userCows.length;idx ++) {\n            if(userCows[idx].tokenId == _tokenId) {\n                userCows[idx] = userCows[userCows.length - 1];\n                userCows.pop();\n                break;\n            }\n        }\n        totalMilkPower -= initMilkPower[_tokenId];\n        reserveAmount[msg.sender] = getUserRewardAmount();\n        emit WithdrawCow(msg.sender, _tokenId);\n    }\n\n    // Deposit (stake) Cow Tokens\n    function depositCowTokens(uint256 _amount) public {\n        FarmingVault storage _userFarm = userFarms[msg.sender];\n        IERC20 cowTokenContract = IERC20(address(COW_TOKEN_ADDRESS));\n        cowTokenContract.transferFrom(msg.sender, address(this), _amount);\n        _userFarm.stakedCow += _amount;\n    }\n\n    function withdrawCowTokens(uint256 _amount) public {\n        FarmingVault storage _userFarm = userFarms[msg.sender];\n        IERC20 cowTokenContract = IERC20(address(COW_TOKEN_ADDRESS));\n        // cowTokenContract.approve(msg.sender, _amount);\n        // cowTokenContract.transferFrom(address(this), msg.sender, _amount);\n        cowTokenContract.transfer(msg.sender, _amount);\n        _userFarm.stakedCow -= _amount;\n    }\n\n    // Deposit (Stake) Bull NFT.\n    function depositBull(uint _tokenId) public {\n        FarmingVault storage _userFarm = userFarms[msg.sender];\n\n        require(_totalBullLimitOf(msg.sender) >= _userFarm.bulls.length + 1, \"Limit of Bulls\");\n\n        INftMinter minter = INftMinter(address(minterAddr));\n        IBullNFT bullNfts = IBullNFT(address(minter.bullNftColl()));\n        bullNfts.transferFrom(msg.sender, address(this), _tokenId);\n        IBullNFT.CattleAttr memory bullAttr = bullNfts.attrOf(_tokenId);\n        // _userFarm.cowTokenIds.push(_tokenId);\n        CowBullInfo memory _bulls = CowBullInfo(_tokenId, bullAttr.rarity, bullAttr.birth, bullAttr.breed, false);\n        _userFarm.bulls.push(_bulls);\n\n        emit DepositBull(msg.sender, _tokenId);\n    }\n\n    // Withdraw (Unstake) a Bull NFT.\n    function withdrawBull(uint _tokenId) public {\n        FarmingVault storage _userFarm = userFarms[msg.sender];\n        INftMinter minter = INftMinter(address(minterAddr));\n        IBullNFT bullNfts = IBullNFT(address(minter.bullNftColl()));\n        bullNfts.transferFrom(address(this), _userFarm.owner, _tokenId);\n        CowBullInfo[] storage userBulls = _userFarm.bulls;\n        for(uint idx = 0;idx < userBulls.length;idx ++) {\n            if(userBulls[idx].tokenId == _tokenId) {\n                userBulls[idx] = userBulls[userBulls.length - 1];\n                userBulls.pop();\n                break;\n            }\n        }\n\n        emit WithdrawBull(msg.sender, _tokenId);\n    }\n\n    // for the happycow nft\n    function depositHappyCow(uint _tokenId) public returns (uint256) {\n        FarmingVault storage _userFarm = userFarms[msg.sender];\n        IHappyCow nfts = IHappyCow(HAPPY_COW_ADDRESS);\n\n        nfts.transferFrom(msg.sender, address(this), _tokenId);\n\n        _userFarm.happyCowIds.push(_tokenId);\n        \n        uint256[] storage happyCows = _userFarm.happyCowIds;\n\n        happyCowBonus[msg.sender] = [0,0,0,0,0];\n\n        for(uint idx = 0 ; idx < happyCows.length; idx ++) {\n            if(happyCowBonus[msg.sender][happyCowNftBreeds[happyCows[idx]]]  != 15) {\n                happyCowBonus[msg.sender][happyCowNftBreeds[happyCows[idx]]] = 15;\n            }\n        }\n\n        return happyCows.length;\n\n    }\n\n    function withdrawHappyCow(uint _tokenId) public {\n        FarmingVault storage _userFarm = userFarms[msg.sender];\n        IERC721 happycowNft = IERC721(HAPPY_COW_ADDRESS);\n        happycowNft.transferFrom(address(this), _userFarm.owner, _tokenId);\n        uint256[] storage userHappycows = _userFarm.happyCowIds;\n        for(uint idx = 0;idx < userHappycows.length;idx ++) {\n            if(userHappycows[idx] == _tokenId) {\n                userHappycows[idx] = userHappycows[userHappycows.length - 1];\n                userHappycows.pop();\n                break;\n            }\n        }\n        uint256[5] memory  _bonus = [uint256(0),0,0,0,0];\n        for(uint i = 0 ; i <userHappycows.length; i ++) {\n            _bonus[happyCowNftBreeds[userHappycows[i]]] = 15;\n        }\n        happyCowBonus[msg.sender] = _bonus;\n    }\n\n    // for the genesis nft\n    function depositAirNft(uint _tokenId) public {\n        FarmingVault storage _userFarm = userFarms[msg.sender];\n        IERC721 airNft = IERC721(AIR_NFT_ADDRESS);\n        airNft.transferFrom(msg.sender, address(this), _tokenId);\n       _userFarm.airIds.push(_tokenId);\n       airNftBonus[msg.sender] = 15;\n    }\n\n    function withdrawAirNft(uint _tokenId) public {\n        FarmingVault storage _userFarm = userFarms[msg.sender];\n        IERC721 airNft = IERC721(AIR_NFT_ADDRESS);\n        airNft.transferFrom(address(this), _userFarm.owner, _tokenId);\n        uint256[] storage userAirs = _userFarm.airIds;\n        for(uint idx = 0;idx < userAirs.length;idx ++) {\n            if(userAirs[idx] == _tokenId) {\n                userAirs[idx] = userAirs[userAirs.length - 1];\n                userAirs.pop();\n                airNftBonus[msg.sender] = 0;\n                break;\n            }\n        }\n    }\n\n    function harvest() external {\n\n        uint userMilkPower = milkPowerOf(msg.sender);\n        IMasterChef masterChef = IMasterChef(address(MASTERCHEF_ADDRESS));\n        masterChef.deposit(MASTERCHEF_PID, 0);\n        IERC20 milkTokenContract = IERC20(address(MILK_TOKEN_ADDRESS));\n\n        uint256 _rewardTime = block.timestamp - userFarms[msg.sender].lastReward;\n        if(block.timestamp >= userFarms[msg.sender].lastReward + 1 days) {\n            _rewardTime = 1 days;\n        }\n        if(userFarms[msg.sender].lastReward == 0) {\n            _rewardTime = 0;\n        }\n        \n        uint256 _reward = reserveAmount[msg.sender] + milkPerBlock * _rewardTime  * userMilkPower / totalMilkPower / 3;\n        milkTokenContract.transfer(msg.sender, _reward);\n        userFarms[msg.sender].lastReward = block.timestamp;\n        reserveAmount[msg.sender] = 0;\n    }\n\n    function getUserRewardAmount() public view returns (uint256 ) {\n        uint userMilkPower = milkPowerOf(msg.sender);\n\n        uint256 _rewardTime = 0;\n        if(block.timestamp >= userFarms[msg.sender].lastReward + 1 days) {\n            _rewardTime = 1 days;\n        } else {\n            _rewardTime = block.timestamp - userFarms[msg.sender].lastReward;\n        }\n        if(totalMilkPower == 0 ) {\n            return 0;\n        }\n        uint256 _reward = reserveAmount[msg.sender] + milkPerBlock * _rewardTime  * userMilkPower / totalMilkPower / 3;\n        return _reward;\n    }\n\n    function getUserDailyMilk() public view returns (uint256 ) {\n        uint userMilkPower = milkPowerOf(msg.sender);\n        uint256 _rewardTime = 1 days;\n        uint256 _reward = milkPerBlock * _rewardTime  * userMilkPower / totalMilkPower / 3;\n        return _reward;\n    }\n\n    function burnMilk(uint _amount) external onlyOwner {\n        IERC20 milkTokenContract = IERC20(address(MILK_TOKEN_ADDRESS));\n        uint totalAmount = milkTokenContract.balanceOf(address(this));\n        require(totalAmount >= _amount, \"Over balance\");\n        milkTokenContract.transfer(msg.sender, _amount);\n    }\n\n    // Calculate MilkPower of a farmer\n    function milkPowerOf(address _farmer) public view returns (uint) {\n        // Define Farming and Info about cows\n        FarmingVault storage _userFarm = userFarms[_farmer];\n        CowBullInfo[] storage userCows = _userFarm.cows;\n\n        // Fetch User Bonus Based on Qty of COW TOKEN\n        uint cowTokenHolderBonusMultiplier = _cowTokenHolderBonusOf(_farmer);\n\n        // Fetch User Bonus Based on Type of LAND\n        uint[5] memory landNftTypeBonus = _landNftTypeBonusOf(_farmer);\n\n        // Define Base Variable for Milk Power\n        uint farmerMilkPower = 0;\n\n        // Interating along common cows\n        for(uint cowIdx = 0; cowIdx < _userFarm.cows.length;cowIdx ++) {\n\n            // Milk Power based on Rarity\n            uint cowTotalMilkPower = baseMilkPower[userCows[cowIdx].rarity];\n            uint cowAgingMultiplier = 0;\n\n            // Milk Power affecred by Cow Age\n            if(maxAge > (block.timestamp - userCows[cowIdx].birth)){\n                cowAgingMultiplier = maxAge - (block.timestamp - userCows[cowIdx].birth);\n            }\n            // uint cowAgingMultiplier = maxAge - 3 days; // For TEST\n\n            // Milk Power based on Happy Cows Bonus (deposited on smart contract)\n            if(happyCowBonus[_farmer][userCows[cowIdx].breed] == 0) {\n                // Case 1: If this user has not a happy cow of the specified breed\n                cowTotalMilkPower = cowTotalMilkPower * landNftTypeBonus[userCows[cowIdx].breed] * 10 * cowAgingMultiplier;\n            } else {\n                // Case 2: If this user has a happy cow of the specified breed\n                cowTotalMilkPower = cowTotalMilkPower * landNftTypeBonus[userCows[cowIdx].breed] * 15 * cowAgingMultiplier;\n            }\n\n            // Add to farmerMilkPower the unitary cow milk power\n            farmerMilkPower += cowTotalMilkPower;\n        }\n\n        // Milk Power based on Genesis NFT Staked\n        if(airNftBonus[_farmer] == 0) {\n            // Case 1: User has no Genesis Staked\n            return farmerMilkPower * 10 * cowTokenHolderBonusMultiplier / 10000 / maxAge;\n        } else {\n            // Case 2: User has genesis staked\n            return farmerMilkPower * airNftBonus[_farmer] * cowTokenHolderBonusMultiplier / 10000 / maxAge;\n        }\n    }\n\n    function landTokenIdsOf(address _owner) public view returns (uint[] memory){\n        uint256[] storage userLands = userFarms[_owner].landTokenIds;\n        uint[] memory tids = new uint[](userLands.length);\n        for(uint iii = 0;iii < userLands.length;iii ++) {\n            tids[iii] = userLands[iii];\n        }\n        return tids;\n    }\n\n    function cowTokenIdsOf(address _owner) public view returns (uint[] memory){\n        CowBullInfo[] storage userCows = userFarms[_owner].cows;\n\n        uint[] memory tids = new uint[](userCows.length);\n        for(uint iii = 0;iii < userCows.length;iii ++) {\n            tids[iii] = userCows[iii].tokenId;\n        }\n        return tids;\n    }\n\n    function breedingCowTokenIdsOf(address _owner) public view returns (uint[] memory){\n        CowBullInfo[] storage userCows = userFarms[_owner].cows;\n\n        uint256 count = 0;\n        for(uint i = 0 ; i < userCows.length; i ++) {\n            if(!userCows[i].isBreeding) {\n                count +=1;\n            }\n        }\n        uint[] memory tids = new uint[](count);\n        uint k = 0 ;\n        for(uint iii = 0;iii < userCows.length;iii ++) {\n            if(!userCows[iii].isBreeding) {\n                tids[k] =  userCows[iii].tokenId;\n                k++;\n            }\n        }\n        return tids;\n    }\n\n    function bullTokenIdsOf(address _owner) public view returns (uint[] memory){\n        CowBullInfo[] storage userBulls = userFarms[_owner].bulls;\n        uint[] memory tids = new uint[](userBulls.length);\n        for(uint iii = 0;iii < userBulls.length;iii ++) {\n            tids[iii] = userBulls[iii].tokenId;\n        }\n        return tids;\n    }\n\n    function breedingBullTokenIdsOf(address _owner) public view returns (uint[] memory){\n        CowBullInfo[] storage userBulls = userFarms[_owner].bulls;\n        uint256 count = 0;\n        for(uint i = 0 ; i < userBulls.length; i ++) {\n            if(!userBulls[i].isBreeding) {\n                count +=1;\n            }\n        }\n        uint[] memory tids = new uint[](count);\n        uint k = 0 ;\n        for(uint iii = 0;iii < userBulls.length;iii ++) {\n            if(!userBulls[iii].isBreeding) {\n                tids[k] = userBulls[iii].tokenId;\n                k++;\n            }\n        }\n        return tids;\n    }\n\n    // Fetch Happy Cows Deposited by User\n    function happyCowTokenIdsOf(address _owner) public view returns (uint[] memory){\n        FarmingVault storage _userFarm = userFarms[_owner];\n        return _userFarm.happyCowIds;\n    }\n\n    // Fetch Genesis Tokens Deposited by User\n    function genesisTokenIdsOf(address _owner) public view returns (uint[] memory){\n        FarmingVault storage _userFarm = userFarms[_owner];\n        return _userFarm.airIds;\n    }\n\n    // Fetch Staked Cow From User\n    function stakedCowOf(address _owner) public view returns (uint) {\n        FarmingVault storage _userFarm = userFarms[_owner];\n        return _userFarm.stakedCow;\n    }\n\n    // Set NftMinter contract address. Can be called only by the owner.\n    function setMinterContract(address _newMinterAddr) public onlyOwner {\n        require(_newMinterAddr != address(0), \"Set by zero address\");\n        minterAddr = _newMinterAddr;\n    }\n\n    // Set MaxAge\n    function setMaxAge(uint _newMaxAge) public onlyOwner {\n        require(_newMaxAge > 0, \"Must be non-zero\");\n        maxAge = _newMaxAge;\n    }\n\n    // // Set Genesis NFTs' tokenIds.\n    function setGenesisTokenIds(uint256[] calldata _genesisTokenIds) public onlyOwner {\n        genesisTokenIds = _genesisTokenIds;\n    }\n\n    // // Set HappyCow NFTs' Breed attributes.\n    function setHappyCowNftBreeds(uint[] calldata _happyCowNftBreeds) public onlyOwner {\n        happyCowNftBreeds = _happyCowNftBreeds;\n    }\n\n    // Get total Cow limits of a farmer.\n    function _totalCowLimitOf(address _farmer) public view returns (uint) {\n        uint256[] storage userLands = userFarms[_farmer].landTokenIds;\n        uint totalCowLimit = 0;\n        INftMinter minter = INftMinter(address(minterAddr));\n        ILandNFT landNfts = ILandNFT(address(minter.landNftColl()));\n        for(uint idx = 0;idx < userLands.length;idx ++) {\n            ILandNFT.LandAttr memory attr = landNfts.attrOf(userLands[idx]);\n            totalCowLimit += cowLimitPerLand[attr.rarity];\n        }\n        return totalCowLimit;\n    }\n\n    // Get total Bull limits of a farmer.\n    function _totalBullLimitOf(address _farmer) public view returns (uint) {\n        uint256[] storage userLands = userFarms[_farmer].landTokenIds;\n        uint totalBullLimit = 0;\n        INftMinter minter = INftMinter(address(minterAddr));\n        ILandNFT landNfts = ILandNFT(address(minter.landNftColl()));\n        for(uint idx = 0;idx < userLands.length;idx ++) {\n            ILandNFT.LandAttr memory attr = landNfts.attrOf(userLands[idx]);\n            totalBullLimit += bullLimitPerLand[attr.rarity];\n        }\n        return totalBullLimit;\n    }\n\n    // Calculate $COW Holder Bonus. 11 - 20\n    function _cowTokenHolderBonusOf(address _farmer) private view returns(uint) {\n        IERC20 cowTokenContract = IERC20(address(COW_TOKEN_ADDRESS));\n        // Check Cow in user Wallet\n        // TO MODIFY\n        uint amount = cowTokenContract.balanceOf(_farmer);\n\n        if(amount < 10*10**COW_TOKEN_DECIMALS) {\n            return 10;\n        }\n        if(amount < 20*10**COW_TOKEN_DECIMALS) {\n            return 11;\n        }\n        if(amount < 30*10**COW_TOKEN_DECIMALS) {\n            return 12;\n        }\n        if(amount < 50*10**COW_TOKEN_DECIMALS) {\n            return 13;\n        }\n        if(amount < 80*10**COW_TOKEN_DECIMALS) {\n            return 14;\n        }\n        if(amount < 130*10**COW_TOKEN_DECIMALS) {\n            return 15;\n        }\n        if(amount < 210*10**COW_TOKEN_DECIMALS) {\n            return 16;\n        }\n        if(amount < 340*10**COW_TOKEN_DECIMALS) {\n            return 17;\n        }\n        if(amount < 550*10**COW_TOKEN_DECIMALS) {\n            return 18;\n        }\n        if(amount < 890*10**COW_TOKEN_DECIMALS) {\n            return 19;\n        }\n        return 20;\n    }\n\n    // Calculate CashCow Genesis NFT Holder Bonus. 10 or 15\n    // function _genesisNftHolderBonusOf(address _farmer) public view returns(uint) {\n    //     uint256 airCount = userFarms[_farmer].airIds.length;\n    //     if(airCount >0) {\n    //         return 15;\n    //     }\n    //     return 10;\n    // }\n\n    // Calculate CashCow HappyCow NFT Holder Bonus. 10 or 15\n    // function _happyCowNftHolderBonusOf(address _farmer) public view returns(uint[5] memory) {\n    //     uint[5] memory bonuses = [(uint)(10), 10, 10, 10, 10];\n    //     uint256[] storage mynfts = userFarms[_farmer].happyCowIds;\n    //     for(uint idx = 0;idx < mynfts.length;idx ++) {\n    //         bonuses[happyCowNftBreeds[mynfts[idx]]] = 15;\n    //     }\n    \n    //     return bonuses;\n    // }\n\n    // Calculate Land NFT Type Bonus.\n    function _landNftTypeBonusOf(address _farmer) public view returns(uint[5] memory) {\n\n        FarmingVault storage _userFarm = userFarms[_farmer];\n        uint[5] memory bonuses = [(uint)(10), 10, 10, 10, 10];\n        INftMinter minter = INftMinter(address(minterAddr));\n        ILandNFT landNfts = ILandNFT(address(minter.landNftColl()));\n        for(uint landIdx = 0;landIdx < _userFarm.landTokenIds.length;landIdx ++) {\n            ILandNFT.LandAttr memory attr = landNfts.attrOf(_userFarm.landTokenIds[landIdx]);\n            bonuses[attr.landType] = 15;\n        }\n        return bonuses;\n    }\n\n    function breed(uint _cowTokenId, uint _bullTokenId) public {\n        FarmingVault storage _userFarm = userFarms[msg.sender];\n        CowBullInfo[] storage cows = _userFarm.cows;\n        CowBullInfo[] storage bulls = _userFarm.bulls;\n        bool isCowAvailable = false;\n        bool isBullAvailable = false;\n        uint256 cowIdx = 0;\n        uint256 bullIdx = 0;\n        for(uint256 i = 0 ; i < cows.length; i++) {\n            if(cows[i].tokenId == _cowTokenId && !cows[i].isBreeding) {\n                cows[i].isBreeding = true;\n                isCowAvailable = true;\n                cowIdx = i;\n            }\n        }\n        for(uint256 j = 0 ; j <bulls.length; j++) {\n            if(bulls[j].tokenId == _bullTokenId && !bulls[j].isBreeding) {\n                bulls[j].isBreeding = true;\n                isBullAvailable = true;\n                bullIdx = j;\n            }\n        }\n        CowBullInfo storage cowInfo = cows[cowIdx];\n        CowBullInfo storage bullInfo = bulls[bullIdx];\n        require(isCowAvailable, \"unstaked cow token\");\n        require(isBullAvailable, \"unStaked bull token\");\n        uint256 _old = block.timestamp - bullInfo.birth;\n\n        require(cowInfo.rarity == bullInfo.rarity, \"Breeding is impossible between different rarity\");\n        require(maxRecoveryTime > _old, \"Bull is too old\");\n        IERC20(address(MILK_TOKEN_ADDRESS)).transferFrom(msg.sender, address(this), breedingPrice);\n\n        BreedingVault memory newBreeding;\n        newBreeding.cowTokenInfo = cowInfo;\n        newBreeding.bullTokenInfo = bullInfo;\n        newBreeding.owner = msg.sender;\n\n        uint256 weight =1e8 - ((maxRecoveryTime - _old) * 1e8) / maxRecoveryTime;\n        newBreeding.unlockTime = block.timestamp + baseRecoveryTime[bullInfo.rarity] + (baseRecoveryTime[bullInfo.rarity] * weight) /1e8;\n        breedingVaults.push(newBreeding);\n    }\n\n    function _indexOfBreedingByBull(uint _bullTokenId) private view returns (uint) {\n        uint idx = 0;\n        for(idx = 0;idx < breedingVaults.length;idx ++){\n            if(breedingVaults[idx].bullTokenInfo.tokenId == _bullTokenId) {\n                return idx;\n            }\n        }\n        return idx;\n    }\n\n    function setBreedingPrice(uint _price) public onlyOwner {\n        breedingPrice = _price;\n    }\n\n    function withdrawMilk() public onlyOwner{\n        IERC20 payToken = IERC20(address(MILK_TOKEN_ADDRESS));\n        uint amountOf = payToken.balanceOf(address(this));\n        payToken.transfer(msg.sender, amountOf);\n    }\n\n    function _rand(uint _modulus, uint256 _seed) internal view returns (uint) {\n        return uint(keccak256(abi.encodePacked(block.timestamp, msg.sender, _seed))) % _modulus;\n    }\n\n    function claimCattle(uint _bullTokenId, uint256[] memory _seed) public {\n        uint breedingIdx = _indexOfBreedingByBull(_bullTokenId);\n        address _owner = breedingVaults[breedingIdx].owner;\n        CowBullInfo storage cowInfo = breedingVaults[breedingIdx].cowTokenInfo;\n        CowBullInfo storage bullInfo = breedingVaults[breedingIdx].bullTokenInfo;\n        // uint256 _cowTokenId = cowInfo.tokenId;\n        // uint256 _bullTokenId = bullInfo.tokenId;\n        require(_owner == msg.sender, \"Not owner\");\n        require(block.timestamp > breedingVaults[breedingIdx].unlockTime, \"Wait until Recovery\");\n\n        INftMinter minter = INftMinter(address(minterAddr));\n\n        uint8 rarityOfNew = 0;\n        uint8 breedOfNew = bullInfo.breed;\n\n        uint randProbability = _rand(100, _seed[0]);\n        if(randProbability < rarityProbability || bullInfo.rarity == 4) {\n            rarityOfNew = bullInfo.rarity;\n        } else {\n            rarityOfNew = bullInfo.rarity + 1;\n        }\n        randProbability = _rand(100, _seed[1]);\n        if(randProbability < breedProbability) {\n            breedOfNew = cowInfo.breed;\n        }\n        randProbability = _rand(100, _seed[2]);\n        if(randProbability < cowProbability) {\n            minter.mintCow(_owner, rarityOfNew, breedOfNew);\n        } else {\n            minter.mintBull(_owner, rarityOfNew, breedOfNew);\n        }\n\n        // cowInfo.isBreeding = false;\n        // bullInfo.isBreeding = false;\n        CowBullInfo[] storage _cows = userFarms[msg.sender].cows;\n        CowBullInfo[] storage _bulls = userFarms[msg.sender].bulls;\n        for(uint i = 0 ; i < _cows.length; i ++) {\n            if(_cows[i].tokenId == cowInfo.tokenId) {\n                _cows[i].isBreeding = false;\n            }\n        }\n        for(uint j = 0 ; j < _bulls.length; j ++) {\n            if(_bulls[j].tokenId == bullInfo.tokenId) {\n                _bulls[j].isBreeding = false;\n            }\n        }\n\n\n        breedingVaults[breedingIdx] = breedingVaults[breedingVaults.length - 1];\n        breedingVaults.pop();\n    }\n\n    function getBreedingItems(address userAddress) public view \n    returns(\n        uint256[] memory ,\n        uint256[] memory ,\n        uint256[] memory ,\n        uint256[] memory ,\n        uint256[] memory ,\n        uint256[] memory \n    ) {\n        uint k = 0;\n        uint ownedCount = 0;\n        for(uint j = 0 ; j< breedingVaults.length ; j ++ ) {\n            if(breedingVaults[j].owner == userAddress) {\n                ownedCount +=1;\n            }\n        }\n        uint256[] memory cowTokenIds = new uint256[](ownedCount);\n        uint256[] memory raritis = new uint256[](ownedCount);\n        uint256[] memory cowBreeds = new uint256[](ownedCount);\n        uint256[] memory bullTokenIds = new uint256[](ownedCount);\n        uint256[] memory bullBreeds = new uint256[](ownedCount);\n        uint256[] memory unLockTimes = new uint256[](ownedCount);\n        for(uint i = 0 ; i < breedingVaults.length; i++) {\n            if(breedingVaults[i].owner == userAddress) {\n                cowTokenIds[k] = breedingVaults[i].cowTokenInfo.tokenId;\n                raritis[k] = breedingVaults[i].cowTokenInfo.rarity;\n                cowBreeds[k] = breedingVaults[i].cowTokenInfo.breed;\n                bullTokenIds[k] = breedingVaults[i].bullTokenInfo.tokenId;\n                bullBreeds[k] = breedingVaults[i].bullTokenInfo.breed;\n                unLockTimes[k] = breedingVaults[i].unlockTime;\n                k +=1;\n            }\n        }\n        return (cowTokenIds, raritis,cowBreeds,bullTokenIds,bullBreeds,unLockTimes);\n    }\n\n    function setProbabilities(uint256 _rarityP, uint256 _breedP, uint256 _cowP) public onlyOwner {\n        rarityProbability = _rarityP;\n        breedProbability = _breedP;\n        cowProbability = _cowP;\n    }\n\n\n}",
  "sourcePath": "/Users/matiascaparros/Documents/Work/projects/cashcowprotocol.com/cashcowgame/contracts/game-contracts/contracts/Farming.sol",
  "compiler": {
    "name": "solc",
    "version": "0.8.12+commit.f00d7308.Emscripten.clang"
  },
  "schemaVersion": "3.4.10",
  "updatedAt": "2022-10-31T18:25:53.479Z",
  "networkType": "ethereum",
  "devdoc": {
    "kind": "dev",
    "methods": {
      "owner()": {
        "details": "Returns the address of the current owner."
      },
      "renounceOwnership()": {
        "details": "Leaves the contract without owner. It will not be possible to call `onlyOwner` functions anymore. Can only be called by the current owner. NOTE: Renouncing ownership will leave the contract without an owner, thereby removing any functionality that is only available to the owner."
      },
      "transferOwnership(address)": {
        "details": "Transfers ownership of the contract to a new account (`newOwner`). Can only be called by the current owner."
      }
    },
    "version": 1
  },
  "userdoc": {
    "kind": "user",
    "methods": {},
    "version": 1
  }
}