{
  "contractName": "Farming",
  "abi": [
    {
      "anonymous": false,
      "inputs": [
        {
          "indexed": false,
          "internalType": "address",
          "name": "_owner",
          "type": "address"
        },
        {
          "indexed": false,
          "internalType": "uint256",
          "name": "_tokenId",
          "type": "uint256"
        }
      ],
      "name": "DepositBull",
      "type": "event"
    },
    {
      "anonymous": false,
      "inputs": [
        {
          "indexed": false,
          "internalType": "address",
          "name": "_owner",
          "type": "address"
        },
        {
          "indexed": false,
          "internalType": "uint256",
          "name": "_tokenId",
          "type": "uint256"
        }
      ],
      "name": "DepositCow",
      "type": "event"
    },
    {
      "anonymous": false,
      "inputs": [
        {
          "indexed": false,
          "internalType": "address",
          "name": "_owner",
          "type": "address"
        },
        {
          "indexed": false,
          "internalType": "uint256",
          "name": "_tokenId",
          "type": "uint256"
        }
      ],
      "name": "DepositLand",
      "type": "event"
    },
    {
      "anonymous": false,
      "inputs": [
        {
          "indexed": true,
          "internalType": "address",
          "name": "previousOwner",
          "type": "address"
        },
        {
          "indexed": true,
          "internalType": "address",
          "name": "newOwner",
          "type": "address"
        }
      ],
      "name": "OwnershipTransferred",
      "type": "event"
    },
    {
      "anonymous": false,
      "inputs": [
        {
          "indexed": false,
          "internalType": "address",
          "name": "_owner",
          "type": "address"
        },
        {
          "indexed": false,
          "internalType": "uint256",
          "name": "_tokenId",
          "type": "uint256"
        }
      ],
      "name": "WithdrawBull",
      "type": "event"
    },
    {
      "anonymous": false,
      "inputs": [
        {
          "indexed": false,
          "internalType": "address",
          "name": "_owner",
          "type": "address"
        },
        {
          "indexed": false,
          "internalType": "uint256",
          "name": "_tokenId",
          "type": "uint256"
        }
      ],
      "name": "WithdrawCow",
      "type": "event"
    },
    {
      "anonymous": false,
      "inputs": [
        {
          "indexed": false,
          "internalType": "address",
          "name": "_owner",
          "type": "address"
        },
        {
          "indexed": false,
          "internalType": "uint256",
          "name": "_tokenId",
          "type": "uint256"
        }
      ],
      "name": "WithdrawLand",
      "type": "event"
    },
    {
      "inputs": [
        {
          "internalType": "uint8",
          "name": "",
          "type": "uint8"
        }
      ],
      "name": "baseMilkPower",
      "outputs": [
        {
          "internalType": "uint16",
          "name": "",
          "type": "uint16"
        }
      ],
      "stateMutability": "view",
      "type": "function"
    },
    {
      "inputs": [
        {
          "internalType": "uint8",
          "name": "",
          "type": "uint8"
        }
      ],
      "name": "bullLimitPerLand",
      "outputs": [
        {
          "internalType": "uint16",
          "name": "",
          "type": "uint16"
        }
      ],
      "stateMutability": "view",
      "type": "function"
    },
    {
      "inputs": [
        {
          "internalType": "uint8",
          "name": "",
          "type": "uint8"
        }
      ],
      "name": "cowLimitPerLand",
      "outputs": [
        {
          "internalType": "uint16",
          "name": "",
          "type": "uint16"
        }
      ],
      "stateMutability": "view",
      "type": "function"
    },
    {
      "inputs": [
        {
          "internalType": "uint256",
          "name": "",
          "type": "uint256"
        }
      ],
      "name": "farms",
      "outputs": [
        {
          "internalType": "address",
          "name": "owner",
          "type": "address"
        },
        {
          "internalType": "uint256",
          "name": "lastReward",
          "type": "uint256"
        }
      ],
      "stateMutability": "view",
      "type": "function"
    },
    {
      "inputs": [],
      "name": "minterAddr",
      "outputs": [
        {
          "internalType": "address",
          "name": "",
          "type": "address"
        }
      ],
      "stateMutability": "view",
      "type": "function"
    },
    {
      "inputs": [],
      "name": "owner",
      "outputs": [
        {
          "internalType": "address",
          "name": "",
          "type": "address"
        }
      ],
      "stateMutability": "view",
      "type": "function"
    },
    {
      "inputs": [],
      "name": "renounceOwnership",
      "outputs": [],
      "stateMutability": "nonpayable",
      "type": "function"
    },
    {
      "inputs": [
        {
          "internalType": "address",
          "name": "newOwner",
          "type": "address"
        }
      ],
      "name": "transferOwnership",
      "outputs": [],
      "stateMutability": "nonpayable",
      "type": "function"
    },
    {
      "inputs": [
        {
          "internalType": "address",
          "name": "_minterAddr",
          "type": "address"
        }
      ],
      "name": "initialize",
      "outputs": [],
      "stateMutability": "nonpayable",
      "type": "function"
    },
    {
      "inputs": [
        {
          "internalType": "uint256",
          "name": "_tokenId",
          "type": "uint256"
        }
      ],
      "name": "depositLand",
      "outputs": [],
      "stateMutability": "nonpayable",
      "type": "function"
    },
    {
      "inputs": [
        {
          "internalType": "uint256",
          "name": "_tokenId",
          "type": "uint256"
        }
      ],
      "name": "withdrawLand",
      "outputs": [],
      "stateMutability": "nonpayable",
      "type": "function"
    },
    {
      "inputs": [
        {
          "internalType": "uint256",
          "name": "_tokenId",
          "type": "uint256"
        }
      ],
      "name": "depositCow",
      "outputs": [],
      "stateMutability": "nonpayable",
      "type": "function"
    },
    {
      "inputs": [
        {
          "internalType": "uint256",
          "name": "_tokenId",
          "type": "uint256"
        }
      ],
      "name": "withdrawCow",
      "outputs": [],
      "stateMutability": "nonpayable",
      "type": "function"
    },
    {
      "inputs": [
        {
          "internalType": "uint256",
          "name": "_tokenId",
          "type": "uint256"
        }
      ],
      "name": "depositBull",
      "outputs": [],
      "stateMutability": "nonpayable",
      "type": "function"
    },
    {
      "inputs": [
        {
          "internalType": "uint256",
          "name": "_tokenId",
          "type": "uint256"
        }
      ],
      "name": "withdrawBull",
      "outputs": [],
      "stateMutability": "nonpayable",
      "type": "function"
    },
    {
      "inputs": [],
      "name": "harvest",
      "outputs": [],
      "stateMutability": "nonpayable",
      "type": "function"
    },
    {
      "inputs": [
        {
          "internalType": "uint256",
          "name": "_amount",
          "type": "uint256"
        }
      ],
      "name": "burnMilk",
      "outputs": [],
      "stateMutability": "nonpayable",
      "type": "function"
    },
    {
      "inputs": [],
      "name": "milkPowerOfGame",
      "outputs": [
        {
          "internalType": "uint256",
          "name": "",
          "type": "uint256"
        }
      ],
      "stateMutability": "view",
      "type": "function"
    },
    {
      "inputs": [
        {
          "internalType": "address",
          "name": "_farmer",
          "type": "address"
        }
      ],
      "name": "milkPowerOf",
      "outputs": [
        {
          "internalType": "uint256",
          "name": "",
          "type": "uint256"
        }
      ],
      "stateMutability": "view",
      "type": "function"
    },
    {
      "inputs": [
        {
          "internalType": "address",
          "name": "_newMinterAddr",
          "type": "address"
        }
      ],
      "name": "setMinterContract",
      "outputs": [],
      "stateMutability": "nonpayable",
      "type": "function"
    },
    {
      "inputs": [
        {
          "internalType": "uint256",
          "name": "_newMaxAge",
          "type": "uint256"
        }
      ],
      "name": "setMaxAge",
      "outputs": [],
      "stateMutability": "nonpayable",
      "type": "function"
    },
    {
      "inputs": [
        {
          "internalType": "uint256[]",
          "name": "_genesisTokenIds",
          "type": "uint256[]"
        }
      ],
      "name": "setGenesisTokenIds",
      "outputs": [],
      "stateMutability": "nonpayable",
      "type": "function"
    },
    {
      "inputs": [
        {
          "internalType": "uint8[]",
          "name": "_happyCowNftBreeds",
          "type": "uint8[]"
        }
      ],
      "name": "setHappyCowNftBreeds",
      "outputs": [],
      "stateMutability": "nonpayable",
      "type": "function"
    }
  ],
  "bytecode": "0x6080604052630107ac006007553480156200001957600080fd5b50600160008190555062000042620000366200004860201b60201c565b6200005060201b60201c565b62000116565b600033905090565b6000600160009054906101000a900473ffffffffffffffffffffffffffffffffffffffff16905081600160006101000a81548173ffffffffffffffffffffffffffffffffffffffff021916908373ffffffffffffffffffffffffffffffffffffffff1602179055508173ffffffffffffffffffffffffffffffffffffffff168173ffffffffffffffffffffffffffffffffffffffff167f8be0079c531659141344cd1fd0a4f28419497f9722a3daafe3b4186f6b6457e060405160405180910390a35050565b6149f980620001266000396000f3fe608060405234801561001057600080fd5b506004361061014d5760003560e01c806380284786116100c3578063ce1e9e181161007c578063ce1e9e1814610373578063db71fed71461038f578063e2b1a45d146103ad578063f2fde38b146103c9578063f6f086a0146103e5578063fac9d57d146104015761014d565b806380284786146102b55780638da5cb5b146102d15780639d97a6a1146102ef578063c4d66de81461031f578063c713a5451461033b578063cc32dfd5146103575761014d565b8063519042c311610115578063519042c3146101e05780635ae28fc914610210578063685cf6d91461022c578063715018a61461025c57806375395618146102665780637da470ea146102845761014d565b806313c5676a1461015257806314619e181461016e57806338478ae71461018a5780633aa0a09a146101a65780634641257d146101d6575b600080fd5b61016c60048036038101906101679190613a58565b61041d565b005b61018860048036038101906101839190613aea565b610799565b005b6101a4600480360381019061019f9190613b95565b61086e565b005b6101c060048036038101906101bb9190613bfb565b61099e565b6040516101cd9190613c45565b60405180910390f35b6101de6109bf565b005b6101fa60048036038101906101f59190613bfb565b610b92565b6040516102079190613c45565b60405180910390f35b61022a60048036038101906102259190613a58565b610bb3565b005b61024660048036038101906102419190613bfb565b610c7c565b6040516102539190613c45565b60405180910390f35b610264610c9d565b005b61026e610d25565b60405161027b9190613c6f565b60405180910390f35b61029e60048036038101906102999190613a58565b610db2565b6040516102ac929190613c99565b60405180910390f35b6102cf60048036038101906102ca9190613a58565b610e06565b005b6102d9611358565b6040516102e69190613cc2565b60405180910390f35b61030960048036038101906103049190613b95565b611382565b6040516103169190613c6f565b60405180910390f35b61033960048036038101906103349190613b95565b6116d5565b005b61035560048036038101906103509190613a58565b611cbc565b005b610371600480360381019061036c9190613a58565b611f16565b005b61038d60048036038101906103889190613d33565b6120f0565b005b6103976121ef565b6040516103a49190613cc2565b60405180910390f35b6103c760048036038101906103c29190613a58565b612215565b005b6103e360048036038101906103de9190613b95565b612591565b005b6103ff60048036038101906103fa9190613a58565b612689565b005b61041b60048036038101906104169190613a58565b6128e3565b005b600061042833612bb2565b90506003805490508110610471576040517f08c379a000000000000000000000000000000000000000000000000000000000815260040161046890613ddd565b60405180910390fd5b6000600260009054906101000a900473ffffffffffffffffffffffffffffffffffffffff16905060008173ffffffffffffffffffffffffffffffffffffffff1663970844456040518163ffffffff1660e01b8152600401602060405180830381865afa1580156104e5573d6000803e3d6000fd5b505050506040513d601f19601f820116820180604052508101906105099190613e12565b90508073ffffffffffffffffffffffffffffffffffffffff166323b872dd306003868154811061053c5761053b613e3f565b5b906000526020600020906005020160030160009054906101000a900473ffffffffffffffffffffffffffffffffffffffff16876040518463ffffffff1660e01b815260040161058d93929190613e6e565b600060405180830381600087803b1580156105a757600080fd5b505af11580156105bb573d6000803e3d6000fd5b5050505060005b600384815481106105d6576105d5613e3f565b5b90600052602060002090600502016001018054905081101561075957846003858154811061060757610606613e3f565b5b9060005260206000209060050201600101828154811061062a57610629613e3f565b5b90600052602060002001541415610746576003848154811061064f5761064e613e3f565b5b906000526020600020906005020160010160016003868154811061067657610675613e3f565b5b9060005260206000209060050201600101805490506106959190613ed4565b815481106106a6576106a5613e3f565b5b9060005260206000200154600385815481106106c5576106c4613e3f565b5b906000526020600020906005020160010182815481106106e8576106e7613e3f565b5b90600052602060002001819055506003848154811061070a57610709613e3f565b5b906000526020600020906005020160010180548061072b5761072a613f08565b5b60019003818190600052602060002001600090559055610759565b808061075190613f37565b9150506105c2565b507f30a1b13a317384a5ee19f32abf42ec26cc325ac7d9c0c3dcb479dce003223095338560405161078b929190613c99565b60405180910390a150505050565b6107a1612c6a565b73ffffffffffffffffffffffffffffffffffffffff166107bf611358565b73ffffffffffffffffffffffffffffffffffffffff1614610815576040517f08c379a000000000000000000000000000000000000000000000000000000000815260040161080c90613fcc565b60405180910390fd5b60005b828290508110156108695782828281811061083657610835613e3f565b5b905060200201356028826064811061085157610850613e3f565b5b0181905550808061086190613f37565b915050610818565b505050565b610876612c6a565b73ffffffffffffffffffffffffffffffffffffffff16610894611358565b73ffffffffffffffffffffffffffffffffffffffff16146108ea576040517f08c379a00000000000000000000000000000000000000000000000000000000081526004016108e190613fcc565b60405180910390fd5b600073ffffffffffffffffffffffffffffffffffffffff168173ffffffffffffffffffffffffffffffffffffffff16141561095a576040517f08c379a000000000000000000000000000000000000000000000000000000000815260040161095190614038565b60405180910390fd5b80600260006101000a81548173ffffffffffffffffffffffffffffffffffffffff021916908373ffffffffffffffffffffffffffffffffffffffff16021790555050565b60046020528060005260406000206000915054906101000a900461ffff1681565b60006109c9610d25565b905060006109d633611382565b9050600073c6438ac9db413efc13f2e0727e7e70bc85d747fe90508073ffffffffffffffffffffffffffffffffffffffff1663e2bbb1586000806040518363ffffffff1660e01b8152600401610a2d92919061409d565b600060405180830381600087803b158015610a4757600080fd5b505af1158015610a5b573d6000803e3d6000fd5b505050506000739bb61d36f739f682295722ed7f5a5a48a142d85f905060008173ffffffffffffffffffffffffffffffffffffffff166370a08231306040518263ffffffff1660e01b8152600401610ab39190613cc2565b602060405180830381865afa158015610ad0573d6000803e3d6000fd5b505050506040513d601f19601f82011682018060405250810190610af491906140db565b90508173ffffffffffffffffffffffffffffffffffffffff1663a9059cbb33878785610b209190614108565b610b2a9190614191565b6040518363ffffffff1660e01b8152600401610b47929190613c99565b6020604051808303816000875af1158015610b66573d6000803e3d6000fd5b505050506040513d601f19601f82011682018060405250810190610b8a91906141fa565b505050505050565b60066020528060005260406000206000915054906101000a900461ffff1681565b610bbb612c6a565b73ffffffffffffffffffffffffffffffffffffffff16610bd9611358565b73ffffffffffffffffffffffffffffffffffffffff1614610c2f576040517f08c379a0000000000000000000000000000000000000000000000000000000008152600401610c2690613fcc565b60405180910390fd5b60008111610c72576040517f08c379a0000000000000000000000000000000000000000000000000000000008152600401610c6990614273565b60405180910390fd5b8060078190555050565b60056020528060005260406000206000915054906101000a900461ffff1681565b610ca5612c6a565b73ffffffffffffffffffffffffffffffffffffffff16610cc3611358565b73ffffffffffffffffffffffffffffffffffffffff1614610d19576040517f08c379a0000000000000000000000000000000000000000000000000000000008152600401610d1090613fcc565b60405180910390fd5b610d236000612c72565b565b6000806000905060005b600380549050811015610daa57610d8a60038281548110610d5357610d52613e3f565b5b906000526020600020906005020160030160009054906101000a900473ffffffffffffffffffffffffffffffffffffffff16611382565b82610d959190614293565b91508080610da290613f37565b915050610d2f565b508091505090565b60038181548110610dc257600080fd5b90600052602060002090600502016000915090508060030160009054906101000a900473ffffffffffffffffffffffffffffffffffffffff16908060040154905082565b6000610e1133612bb2565b90506003805490508110610e5a576040517f08c379a0000000000000000000000000000000000000000000000000000000008152600401610e5190613ddd565b60405180910390fd5b6000600260009054906101000a900473ffffffffffffffffffffffffffffffffffffffff16905060008173ffffffffffffffffffffffffffffffffffffffff16632e87f9c86040518163ffffffff1660e01b8152600401602060405180830381865afa158015610ece573d6000803e3d6000fd5b505050506040513d601f19601f82011682018060405250810190610ef29190613e12565b905060008173ffffffffffffffffffffffffffffffffffffffff166368ba0bcf866040518263ffffffff1660e01b8152600401610f2f9190613c6f565b6040805180830381865afa158015610f4b573d6000803e3d6000fd5b505050506040513d601f19601f82011682018060405250810190610f6f91906143df565b905060038481548110610f8557610f84613e3f565b5b90600052602060002090600502016001018054905060046000836000015160ff1660ff16815260200190815260200160002060009054906101000a900461ffff1661ffff16610fd333612d38565b610fdd9190613ed4565b1161101d576040517f08c379a000000000000000000000000000000000000000000000000000000000815260040161101490614458565b60405180910390fd5b6003848154811061103157611030613e3f565b5b90600052602060002090600502016001018054905060056000836000015160ff1660ff16815260200190815260200160002060009054906101000a900461ffff1661ffff1661107f33612f77565b6110899190613ed4565b116110c9576040517f08c379a00000000000000000000000000000000000000000000000000000000081526004016110c0906144c4565b60405180910390fd5b8173ffffffffffffffffffffffffffffffffffffffff166323b872dd30600387815481106110fa576110f9613e3f565b5b906000526020600020906005020160030160009054906101000a900473ffffffffffffffffffffffffffffffffffffffff16886040518463ffffffff1660e01b815260040161114b93929190613e6e565b600060405180830381600087803b15801561116557600080fd5b505af1158015611179573d6000803e3d6000fd5b5050505060005b6003858154811061119457611193613e3f565b5b9060005260206000209060050201600001805490508110156113175785600386815481106111c5576111c4613e3f565b5b906000526020600020906005020160000182815481106111e8576111e7613e3f565b5b90600052602060002001541415611304576003858154811061120d5761120c613e3f565b5b906000526020600020906005020160000160016003878154811061123457611233613e3f565b5b9060005260206000209060050201600001805490506112539190613ed4565b8154811061126457611263613e3f565b5b90600052602060002001546003868154811061128357611282613e3f565b5b906000526020600020906005020160000182815481106112a6576112a5613e3f565b5b9060005260206000200181905550600385815481106112c8576112c7613e3f565b5b90600052602060002090600502016000018054806112e9576112e8613f08565b5b60019003818190600052602060002001600090559055611317565b808061130f90613f37565b915050611180565b507f2ac6e3c1e4ef99df40ccf9f212268ced5a151cf274c706f1a035b9b10de10ab13386604051611349929190613c99565b60405180910390a15050505050565b6000600160009054906101000a900473ffffffffffffffffffffffffffffffffffffffff16905090565b60008061138e83612bb2565b905060038054905081106113d7576040517f08c379a00000000000000000000000000000000000000000000000000000000081526004016113ce90613ddd565b60405180910390fd5b6000600260009054906101000a900473ffffffffffffffffffffffffffffffffffffffff16905060008173ffffffffffffffffffffffffffffffffffffffff1663970844456040518163ffffffff1660e01b8152600401602060405180830381865afa15801561144b573d6000803e3d6000fd5b505050506040513d601f19601f8201168201806040525081019061146f9190613e12565b9050600061147c866131b6565b90506000611489876132d2565b9050600061149688613531565b905060006114a3896137a5565b90506000805b600389815481106114bd576114bc613e3f565b5b9060005260206000209060050201600101805490508110156116c45760008773ffffffffffffffffffffffffffffffffffffffff166368ba0bcf60038c8154811061150b5761150a613e3f565b5b9060005260206000209060050201600101848154811061152e5761152d613e3f565b5b90600052602060002001546040518263ffffffff1660e01b81526004016115559190613c6f565b606060405180830381865afa158015611572573d6000803e3d6000fd5b505050506040513d601f19601f820116820180604052508101906115969190614548565b9050600060066000836000015160ff1660ff16815260200190815260200160002060009054906101000a900461ffff1661ffff16905060008260400151426115de9190613ed4565b6007541115611607578260400151426115f79190613ed4565b6007546116049190613ed4565b90505b8086846020015160ff166005811061162257611621613e3f565b5b602002015160ff1688856020015160ff166005811061164457611643613e3f565b5b602002015160ff168a8c866116599190614108565b6116639190614108565b61166d9190614108565b6116779190614108565b6116819190614108565b9150600754612710836116949190614191565b61169e9190614191565b915081856116ac9190614293565b945050505080806116bc90613f37565b9150506114a9565b508098505050505050505050919050565b6116dd612c6a565b73ffffffffffffffffffffffffffffffffffffffff166116fb611358565b73ffffffffffffffffffffffffffffffffffffffff1614611751576040517f08c379a000000000000000000000000000000000000000000000000000000000815260040161174890613fcc565b60405180910390fd5b600073ffffffffffffffffffffffffffffffffffffffff168173ffffffffffffffffffffffffffffffffffffffff1614156117c1576040517f08c379a00000000000000000000000000000000000000000000000000000000081526004016117b8906145c1565b60405180910390fd5b80600260006101000a81548173ffffffffffffffffffffffffffffffffffffffff021916908373ffffffffffffffffffffffffffffffffffffffff1602179055506028600460008060ff16815260200190815260200160002060006101000a81548161ffff021916908361ffff160217905550605060046000600160ff16815260200190815260200160002060006101000a81548161ffff021916908361ffff160217905550607860046000600260ff16815260200190815260200160002060006101000a81548161ffff021916908361ffff16021790555060c860046000600360ff16815260200190815260200160002060006101000a81548161ffff021916908361ffff16021790555061014060046000600460ff16815260200190815260200160002060006101000a81548161ffff021916908361ffff1602179055506002600560008060ff16815260200190815260200160002060006101000a81548161ffff021916908361ffff160217905550600460056000600160ff16815260200190815260200160002060006101000a81548161ffff021916908361ffff160217905550600660056000600260ff16815260200190815260200160002060006101000a81548161ffff021916908361ffff160217905550600a60056000600360ff16815260200190815260200160002060006101000a81548161ffff021916908361ffff160217905550601060056000600460ff16815260200190815260200160002060006101000a81548161ffff021916908361ffff1602179055506107d0600660008060ff16815260200190815260200160002060006101000a81548161ffff021916908361ffff160217905550610bb860066000600160ff16815260200190815260200160002060006101000a81548161ffff021916908361ffff16021790555061138860066000600260ff16815260200190815260200160002060006101000a81548161ffff021916908361ffff160217905550611f4060066000600360ff16815260200190815260200160002060006101000a81548161ffff021916908361ffff1602179055506132c860066000600460ff16815260200190815260200160002060006101000a81548161ffff021916908361ffff160217905550600073c6438ac9db413efc13f2e0727e7e70bc85d747fe9050600073c25e8b265ee64a0cde09347dc8d3e40419e8311f90508073ffffffffffffffffffffffffffffffffffffffff1663095ea7b373c6438ac9db413efc13f2e0727e7e70bc85d747fe8373ffffffffffffffffffffffffffffffffffffffff166370a08231306040518263ffffffff1660e01b8152600401611b9e9190613cc2565b602060405180830381865afa158015611bbb573d6000803e3d6000fd5b505050506040513d601f19601f82011682018060405250810190611bdf91906140db565b6040518363ffffffff1660e01b8152600401611bfc929190613c99565b6020604051808303816000875af1158015611c1b573d6000803e3d6000fd5b505050506040513d601f19601f82011682018060405250810190611c3f91906141fa565b508173ffffffffffffffffffffffffffffffffffffffff1663e2bbb158600068056bc75e2d631000006040518363ffffffff1660e01b8152600401611c8592919061461c565b600060405180830381600087803b158015611c9f57600080fd5b505af1158015611cb3573d6000803e3d6000fd5b50505050505050565b6000611cc733612bb2565b90506003805490508110611d10576040517f08c379a0000000000000000000000000000000000000000000000000000000008152600401611d0790613ddd565b60405180910390fd5b60038181548110611d2457611d23613e3f565b5b906000526020600020906005020160010180549050611d4233612d38565b11611d82576040517f08c379a0000000000000000000000000000000000000000000000000000000008152600401611d7990614691565b60405180910390fd5b6000600260009054906101000a900473ffffffffffffffffffffffffffffffffffffffff16905060008173ffffffffffffffffffffffffffffffffffffffff1663970844456040518163ffffffff1660e01b8152600401602060405180830381865afa158015611df6573d6000803e3d6000fd5b505050506040513d601f19601f82011682018060405250810190611e1a9190613e12565b90508073ffffffffffffffffffffffffffffffffffffffff166323b872dd3330876040518463ffffffff1660e01b8152600401611e5993929190613e6e565b600060405180830381600087803b158015611e7357600080fd5b505af1158015611e87573d6000803e3d6000fd5b5050505060038381548110611e9f57611e9e613e3f565b5b90600052602060002090600502016001018490806001815401808255809150506001900390600052602060002001600090919091909150557fdb748fa6506d8792c87332c8b83fb4b9d8e2820c01034ee2ae65cb656b636b8f3385604051611f08929190613c99565b60405180910390a150505050565b611f1e612c6a565b73ffffffffffffffffffffffffffffffffffffffff16611f3c611358565b73ffffffffffffffffffffffffffffffffffffffff1614611f92576040517f08c379a0000000000000000000000000000000000000000000000000000000008152600401611f8990613fcc565b60405180910390fd5b6000739bb61d36f739f682295722ed7f5a5a48a142d85f905060008173ffffffffffffffffffffffffffffffffffffffff166370a08231306040518263ffffffff1660e01b8152600401611fe69190613cc2565b602060405180830381865afa158015612003573d6000803e3d6000fd5b505050506040513d601f19601f8201168201806040525081019061202791906140db565b90508281101561206c576040517f08c379a0000000000000000000000000000000000000000000000000000000008152600401612063906146fd565b60405180910390fd5b8173ffffffffffffffffffffffffffffffffffffffff1663a9059cbb33856040518363ffffffff1660e01b81526004016120a7929190613c99565b6020604051808303816000875af11580156120c6573d6000803e3d6000fd5b505050506040513d601f19601f820116820180604052508101906120ea91906141fa565b50505050565b6120f8612c6a565b73ffffffffffffffffffffffffffffffffffffffff16612116611358565b73ffffffffffffffffffffffffffffffffffffffff161461216c576040517f08c379a000000000000000000000000000000000000000000000000000000000815260040161216390613fcc565b60405180910390fd5b60005b828290508110156121ea5782828281811061218d5761218c613e3f565b5b90506020020160208101906121a29190613bfb565b6008826103e881106121b7576121b6613e3f565b5b602091828204019190066101000a81548160ff021916908360ff16021790555080806121e290613f37565b91505061216f565b505050565b600260009054906101000a900473ffffffffffffffffffffffffffffffffffffffff1681565b600061222033612bb2565b90506003805490508110612269576040517f08c379a000000000000000000000000000000000000000000000000000000000815260040161226090613ddd565b60405180910390fd5b6000600260009054906101000a900473ffffffffffffffffffffffffffffffffffffffff16905060008173ffffffffffffffffffffffffffffffffffffffff1663549a1ab26040518163ffffffff1660e01b8152600401602060405180830381865afa1580156122dd573d6000803e3d6000fd5b505050506040513d601f19601f820116820180604052508101906123019190613e12565b90508073ffffffffffffffffffffffffffffffffffffffff166323b872dd306003868154811061233457612333613e3f565b5b906000526020600020906005020160030160009054906101000a900473ffffffffffffffffffffffffffffffffffffffff16876040518463ffffffff1660e01b815260040161238593929190613e6e565b600060405180830381600087803b15801561239f57600080fd5b505af11580156123b3573d6000803e3d6000fd5b5050505060005b600384815481106123ce576123cd613e3f565b5b9060005260206000209060050201600101805490508110156125515784600385815481106123ff576123fe613e3f565b5b9060005260206000209060050201600201828154811061242257612421613e3f565b5b9060005260206000200154141561253e576003848154811061244757612446613e3f565b5b906000526020600020906005020160020160016003868154811061246e5761246d613e3f565b5b90600052602060002090600502016002018054905061248d9190613ed4565b8154811061249e5761249d613e3f565b5b9060005260206000200154600385815481106124bd576124bc613e3f565b5b906000526020600020906005020160020182815481106124e0576124df613e3f565b5b90600052602060002001819055506003848154811061250257612501613e3f565b5b906000526020600020906005020160020180548061252357612522613f08565b5b60019003818190600052602060002001600090559055612551565b808061254990613f37565b9150506123ba565b507f17c05b5065f7ef088f8d90fa37ba3895610a8d18defb423c168fe0bebf0bc2783385604051612583929190613c99565b60405180910390a150505050565b612599612c6a565b73ffffffffffffffffffffffffffffffffffffffff166125b7611358565b73ffffffffffffffffffffffffffffffffffffffff161461260d576040517f08c379a000000000000000000000000000000000000000000000000000000000815260040161260490613fcc565b60405180910390fd5b600073ffffffffffffffffffffffffffffffffffffffff168173ffffffffffffffffffffffffffffffffffffffff16141561267d576040517f08c379a00000000000000000000000000000000000000000000000000000000081526004016126749061478f565b60405180910390fd5b61268681612c72565b50565b600061269433612bb2565b905060038054905081106126dd576040517f08c379a00000000000000000000000000000000000000000000000000000000081526004016126d490613ddd565b60405180910390fd5b600381815481106126f1576126f0613e3f565b5b90600052602060002090600502016002018054905061270f33612f77565b1161274f576040517f08c379a0000000000000000000000000000000000000000000000000000000008152600401612746906147fb565b60405180910390fd5b6000600260009054906101000a900473ffffffffffffffffffffffffffffffffffffffff16905060008173ffffffffffffffffffffffffffffffffffffffff1663549a1ab26040518163ffffffff1660e01b8152600401602060405180830381865afa1580156127c3573d6000803e3d6000fd5b505050506040513d601f19601f820116820180604052508101906127e79190613e12565b90508073ffffffffffffffffffffffffffffffffffffffff166323b872dd3330876040518463ffffffff1660e01b815260040161282693929190613e6e565b600060405180830381600087803b15801561284057600080fd5b505af1158015612854573d6000803e3d6000fd5b505050506003838154811061286c5761286b613e3f565b5b90600052602060002090600502016002018490806001815401808255809150506001900390600052602060002001600090919091909150557f9397adb80f5c2f1c37158916f5beb10ffcb153bed4eaf738e31245cc97fafb5833856040516128d5929190613c99565b60405180910390a150505050565b60006128ee33612bb2565b90506003805490508110612a1e5761290461393d565b33816060019073ffffffffffffffffffffffffffffffffffffffff16908173ffffffffffffffffffffffffffffffffffffffff1681525050428160800181815250506003819080600181540180825580915050600190039060005260206000209060050201600090919091909150600082015181600001908051906020019061298e929190613982565b5060208201518160010190805190602001906129ab929190613982565b5060408201518160020190805190602001906129c8929190613982565b5060608201518160030160006101000a81548173ffffffffffffffffffffffffffffffffffffffff021916908373ffffffffffffffffffffffffffffffffffffffff160217905550608082015181600401555050505b6000600260009054906101000a900473ffffffffffffffffffffffffffffffffffffffff16905060008173ffffffffffffffffffffffffffffffffffffffff16632e87f9c86040518163ffffffff1660e01b8152600401602060405180830381865afa158015612a92573d6000803e3d6000fd5b505050506040513d601f19601f82011682018060405250810190612ab69190613e12565b905060038381548110612acc57612acb613e3f565b5b90600052602060002090600502016000018490806001815401808255809150506001900390600052602060002001600090919091909150558073ffffffffffffffffffffffffffffffffffffffff166323b872dd3330876040518463ffffffff1660e01b8152600401612b4193929190613e6e565b600060405180830381600087803b158015612b5b57600080fd5b505af1158015612b6f573d6000803e3d6000fd5b505050507f908bf600f2d727dfbe4228f96a4e69e34c248d575fe6aff2fca48b3beb2b12203385604051612ba4929190613c99565b60405180910390a150505050565b60008060009050600090505b600380549050811015612c60578273ffffffffffffffffffffffffffffffffffffffff1660038281548110612bf657612bf5613e3f565b5b906000526020600020906005020160030160009054906101000a900473ffffffffffffffffffffffffffffffffffffffff1673ffffffffffffffffffffffffffffffffffffffff161415612c4d5780915050612c65565b8080612c5890613f37565b915050612bbe565b809150505b919050565b600033905090565b6000600160009054906101000a900473ffffffffffffffffffffffffffffffffffffffff16905081600160006101000a81548173ffffffffffffffffffffffffffffffffffffffff021916908373ffffffffffffffffffffffffffffffffffffffff1602179055508173ffffffffffffffffffffffffffffffffffffffff168173ffffffffffffffffffffffffffffffffffffffff167f8be0079c531659141344cd1fd0a4f28419497f9722a3daafe3b4186f6b6457e060405160405180910390a35050565b600080612d4483612bb2565b90506003805490508110612d8d576040517f08c379a0000000000000000000000000000000000000000000000000000000008152600401612d8490613ddd565b60405180910390fd5b600080600260009054906101000a900473ffffffffffffffffffffffffffffffffffffffff16905060008173ffffffffffffffffffffffffffffffffffffffff16632e87f9c86040518163ffffffff1660e01b8152600401602060405180830381865afa158015612e02573d6000803e3d6000fd5b505050506040513d601f19601f82011682018060405250810190612e269190613e12565b905060005b60038581548110612e3f57612e3e613e3f565b5b906000526020600020906005020160000180549050811015612f6a5760008273ffffffffffffffffffffffffffffffffffffffff166368ba0bcf60038881548110612e8d57612e8c613e3f565b5b90600052602060002090600502016000018481548110612eb057612eaf613e3f565b5b90600052602060002001546040518263ffffffff1660e01b8152600401612ed79190613c6f565b6040805180830381865afa158015612ef3573d6000803e3d6000fd5b505050506040513d601f19601f82011682018060405250810190612f1791906143df565b905060046000826000015160ff1660ff16815260200190815260200160002060009054906101000a900461ffff1661ffff1685612f549190614293565b9450508080612f6290613f37565b915050612e2b565b5082945050505050919050565b600080612f8383612bb2565b90506003805490508110612fcc576040517f08c379a0000000000000000000000000000000000000000000000000000000008152600401612fc390613ddd565b60405180910390fd5b600080600260009054906101000a900473ffffffffffffffffffffffffffffffffffffffff16905060008173ffffffffffffffffffffffffffffffffffffffff16632e87f9c86040518163ffffffff1660e01b8152600401602060405180830381865afa158015613041573d6000803e3d6000fd5b505050506040513d601f19601f820116820180604052508101906130659190613e12565b905060005b6003858154811061307e5761307d613e3f565b5b9060005260206000209060050201600001805490508110156131a95760008273ffffffffffffffffffffffffffffffffffffffff166368ba0bcf600388815481106130cc576130cb613e3f565b5b906000526020600020906005020160000184815481106130ef576130ee613e3f565b5b90600052602060002001546040518263ffffffff1660e01b81526004016131169190613c6f565b6040805180830381865afa158015613132573d6000803e3d6000fd5b505050506040513d601f19601f8201168201806040525081019061315691906143df565b905060056000826000015160ff1660ff16815260200190815260200160002060009054906101000a900461ffff1661ffff16856131939190614293565b94505080806131a190613f37565b91505061306a565b5082945050505050919050565b600080600090505b60648160ff1610156132c75760007346d8a7a26336e43953b91e5fb198b15df8d0d9db90508373ffffffffffffffffffffffffffffffffffffffff168173ffffffffffffffffffffffffffffffffffffffff16636352211e60288560ff166064811061322d5761322c613e3f565b5b01546040518263ffffffff1660e01b815260040161324b9190613c6f565b602060405180830381865afa158015613268573d6000803e3d6000fd5b505050506040513d601f19601f8201168201806040525081019061328c9190613e12565b73ffffffffffffffffffffffffffffffffffffffff1614156132b357600f925050506132cd565b5080806132bf9061481b565b9150506131be565b50600a90505b919050565b600080737d43051bbbbe2804c14ef7a99f56ffe456767a89905060008173ffffffffffffffffffffffffffffffffffffffff166370a08231856040518263ffffffff1660e01b81526004016133279190613cc2565b602060405180830381865afa158015613344573d6000803e3d6000fd5b505050506040513d601f19601f8201168201806040525081019061336891906140db565b90506009600a6133789190614978565b600a6133849190614108565b81101561339657600a9250505061352c565b6009600a6133a49190614978565b60146133b09190614108565b8110156133c257600b9250505061352c565b6009600a6133d09190614978565b601e6133dc9190614108565b8110156133ee57600c9250505061352c565b6009600a6133fc9190614978565b60326134089190614108565b81101561341a57600d9250505061352c565b6009600a6134289190614978565b60506134349190614108565b81101561344657600e9250505061352c565b6009600a6134549190614978565b60826134609190614108565b81101561347257600f9250505061352c565b6009600a6134809190614978565b60d261348c9190614108565b81101561349e5760109250505061352c565b6009600a6134ac9190614978565b6101546134b99190614108565b8110156134cb5760119250505061352c565b6009600a6134d99190614978565b6102266134e69190614108565b8110156134f85760129250505061352c565b6009600a6135069190614978565b61037a6135139190614108565b8110156135255760139250505061352c565b6014925050505b919050565b6135396139cf565b600061354483612bb2565b9050600380549050811061358d576040517f08c379a000000000000000000000000000000000000000000000000000000000815260040161358490613ddd565b60405180910390fd5b60006040518060a00160405280600a60ff168152602001600a60ff168152602001600a60ff168152602001600a60ff168152602001600a60ff1681525090506000600260009054906101000a900473ffffffffffffffffffffffffffffffffffffffff16905060008173ffffffffffffffffffffffffffffffffffffffff16632e87f9c86040518163ffffffff1660e01b8152600401602060405180830381865afa158015613640573d6000803e3d6000fd5b505050506040513d601f19601f820116820180604052508101906136649190613e12565b905060005b6003858154811061367d5761367c613e3f565b5b9060005260206000209060050201600001805490508110156137985760008273ffffffffffffffffffffffffffffffffffffffff166368ba0bcf600388815481106136cb576136ca613e3f565b5b906000526020600020906005020160000184815481106136ee576136ed613e3f565b5b90600052602060002001546040518263ffffffff1660e01b81526004016137159190613c6f565b6040805180830381865afa158015613731573d6000803e3d6000fd5b505050506040513d601f19601f8201168201806040525081019061375591906143df565b9050600f85826020015160ff166005811061377357613772613e3f565b5b602002019060ff16908160ff168152505050808061379090613f37565b915050613669565b5082945050505050919050565b6137ad6139cf565b60006040518060a00160405280600a60ff168152602001600a60ff168152602001600a60ff168152602001600a60ff168152602001600a60ff16815250905060005b6103e881101561393357600073091551a095f19133e3482ac91c4a5db438e94b7990508473ffffffffffffffffffffffffffffffffffffffff168173ffffffffffffffffffffffffffffffffffffffff16636352211e6001856138529190614293565b6040518263ffffffff1660e01b815260040161386e9190613c6f565b602060405180830381865afa15801561388b573d6000803e3d6000fd5b505050506040513d601f19601f820116820180604052508101906138af9190613e12565b73ffffffffffffffffffffffffffffffffffffffff16141561391f57600f836008846103e881106138e3576138e2613e3f565b5b602091828204019190069054906101000a900460ff1660ff166005811061390d5761390c613e3f565b5b602002019060ff16908160ff16815250505b50808061392b90613f37565b9150506137ef565b5080915050919050565b6040518060a00160405280606081526020016060815260200160608152602001600073ffffffffffffffffffffffffffffffffffffffff168152602001600081525090565b8280548282559060005260206000209081019282156139be579160200282015b828111156139bd5782518255916020019190600101906139a2565b5b5090506139cb91906139f1565b5090565b6040518060a00160405280600590602082028036833780820191505090505090565b5b80821115613a0a5760008160009055506001016139f2565b5090565b6000604051905090565b600080fd5b600080fd5b6000819050919050565b613a3581613a22565b8114613a4057600080fd5b50565b600081359050613a5281613a2c565b92915050565b600060208284031215613a6e57613a6d613a18565b5b6000613a7c84828501613a43565b91505092915050565b600080fd5b600080fd5b600080fd5b60008083601f840112613aaa57613aa9613a85565b5b8235905067ffffffffffffffff811115613ac757613ac6613a8a565b5b602083019150836020820283011115613ae357613ae2613a8f565b5b9250929050565b60008060208385031215613b0157613b00613a18565b5b600083013567ffffffffffffffff811115613b1f57613b1e613a1d565b5b613b2b85828601613a94565b92509250509250929050565b600073ffffffffffffffffffffffffffffffffffffffff82169050919050565b6000613b6282613b37565b9050919050565b613b7281613b57565b8114613b7d57600080fd5b50565b600081359050613b8f81613b69565b92915050565b600060208284031215613bab57613baa613a18565b5b6000613bb984828501613b80565b91505092915050565b600060ff82169050919050565b613bd881613bc2565b8114613be357600080fd5b50565b600081359050613bf581613bcf565b92915050565b600060208284031215613c1157613c10613a18565b5b6000613c1f84828501613be6565b91505092915050565b600061ffff82169050919050565b613c3f81613c28565b82525050565b6000602082019050613c5a6000830184613c36565b92915050565b613c6981613a22565b82525050565b6000602082019050613c846000830184613c60565b92915050565b613c9381613b57565b82525050565b6000604082019050613cae6000830185613c8a565b613cbb6020830184613c60565b9392505050565b6000602082019050613cd76000830184613c8a565b92915050565b60008083601f840112613cf357613cf2613a85565b5b8235905067ffffffffffffffff811115613d1057613d0f613a8a565b5b602083019150836020820283011115613d2c57613d2b613a8f565b5b9250929050565b60008060208385031215613d4a57613d49613a18565b5b600083013567ffffffffffffffff811115613d6857613d67613a1d565b5b613d7485828601613cdd565b92509250509250929050565b600082825260208201905092915050565b7f546865206661726d657220686173206e6f206661726d00000000000000000000600082015250565b6000613dc7601683613d80565b9150613dd282613d91565b602082019050919050565b60006020820190508181036000830152613df681613dba565b9050919050565b600081519050613e0c81613b69565b92915050565b600060208284031215613e2857613e27613a18565b5b6000613e3684828501613dfd565b91505092915050565b7f4e487b7100000000000000000000000000000000000000000000000000000000600052603260045260246000fd5b6000606082019050613e836000830186613c8a565b613e906020830185613c8a565b613e9d6040830184613c60565b949350505050565b7f4e487b7100000000000000000000000000000000000000000000000000000000600052601160045260246000fd5b6000613edf82613a22565b9150613eea83613a22565b925082821015613efd57613efc613ea5565b5b828203905092915050565b7f4e487b7100000000000000000000000000000000000000000000000000000000600052603160045260246000fd5b6000613f4282613a22565b91507fffffffffffffffffffffffffffffffffffffffffffffffffffffffffffffffff821415613f7557613f74613ea5565b5b600182019050919050565b7f4f776e61626c653a2063616c6c6572206973206e6f7420746865206f776e6572600082015250565b6000613fb6602083613d80565b9150613fc182613f80565b602082019050919050565b60006020820190508181036000830152613fe581613fa9565b9050919050565b7f536574206279207a65726f206164647265737300000000000000000000000000600082015250565b6000614022601383613d80565b915061402d82613fec565b602082019050919050565b6000602082019050818103600083015261405181614015565b9050919050565b6000819050919050565b6000819050919050565b600061408761408261407d84614058565b614062565b613a22565b9050919050565b6140978161406c565b82525050565b60006040820190506140b26000830185613c60565b6140bf602083018461408e565b9392505050565b6000815190506140d581613a2c565b92915050565b6000602082840312156140f1576140f0613a18565b5b60006140ff848285016140c6565b91505092915050565b600061411382613a22565b915061411e83613a22565b9250817fffffffffffffffffffffffffffffffffffffffffffffffffffffffffffffffff048311821515161561415757614156613ea5565b5b828202905092915050565b7f4e487b7100000000000000000000000000000000000000000000000000000000600052601260045260246000fd5b600061419c82613a22565b91506141a783613a22565b9250826141b7576141b6614162565b5b828204905092915050565b60008115159050919050565b6141d7816141c2565b81146141e257600080fd5b50565b6000815190506141f4816141ce565b92915050565b6000602082840312156142105761420f613a18565b5b600061421e848285016141e5565b91505092915050565b7f4d757374206265206e6f6e2d7a65726f00000000000000000000000000000000600082015250565b600061425d601083613d80565b915061426882614227565b602082019050919050565b6000602082019050818103600083015261428c81614250565b9050919050565b600061429e82613a22565b91506142a983613a22565b9250827fffffffffffffffffffffffffffffffffffffffffffffffffffffffffffffffff038211156142de576142dd613ea5565b5b828201905092915050565b600080fd5b6000601f19601f8301169050919050565b7f4e487b7100000000000000000000000000000000000000000000000000000000600052604160045260246000fd5b614337826142ee565b810181811067ffffffffffffffff82111715614356576143556142ff565b5b80604052505050565b6000614369613a0e565b9050614375828261432e565b919050565b60008151905061438981613bcf565b92915050565b6000604082840312156143a5576143a46142e9565b5b6143af604061435f565b905060006143bf8482850161437a565b60008301525060206143d38482850161437a565b60208301525092915050565b6000604082840312156143f5576143f4613a18565b5b60006144038482850161438f565b91505092915050565b7f436f77204c696d69743a20576974686472617720436f77732066697273740000600082015250565b6000614442601e83613d80565b915061444d8261440c565b602082019050919050565b6000602082019050818103600083015261447181614435565b9050919050565b7f42756c6c204c696d69743a2057697468647261772042756c6c73206669727374600082015250565b60006144ae602083613d80565b91506144b982614478565b602082019050919050565b600060208201905081810360008301526144dd816144a1565b9050919050565b6000606082840312156144fa576144f96142e9565b5b614504606061435f565b905060006145148482850161437a565b60008301525060206145288482850161437a565b602083015250604061453c848285016140c6565b60408301525092915050565b60006060828403121561455e5761455d613a18565b5b600061456c848285016144e4565b91505092915050565b7f496e697469616c697a696e67206279207a65726f206164647265737300000000600082015250565b60006145ab601c83613d80565b91506145b682614575565b602082019050919050565b600060208201905081810360008301526145da8161459e565b9050919050565b6000819050919050565b60006146066146016145fc846145e1565b614062565b613a22565b9050919050565b614616816145eb565b82525050565b60006040820190506146316000830185613c60565b61463e602083018461460d565b9392505050565b7f4c696d6974206f6620436f777300000000000000000000000000000000000000600082015250565b600061467b600d83613d80565b915061468682614645565b602082019050919050565b600060208201905081810360008301526146aa8161466e565b9050919050565b7f4f7665722062616c616e63650000000000000000000000000000000000000000600082015250565b60006146e7600c83613d80565b91506146f2826146b1565b602082019050919050565b60006020820190508181036000830152614716816146da565b9050919050565b7f4f776e61626c653a206e6577206f776e657220697320746865207a65726f206160008201527f6464726573730000000000000000000000000000000000000000000000000000602082015250565b6000614779602683613d80565b91506147848261471d565b604082019050919050565b600060208201905081810360008301526147a88161476c565b9050919050565b7f4c696d6974206f662042756c6c73000000000000000000000000000000000000600082015250565b60006147e5600e83613d80565b91506147f0826147af565b602082019050919050565b60006020820190508181036000830152614814816147d8565b9050919050565b600061482682613bc2565b915060ff82141561483a57614839613ea5565b5b600182019050919050565b60008160011c9050919050565b6000808291508390505b600185111561489c5780860481111561487857614877613ea5565b5b60018516156148875780820291505b808102905061489585614845565b945061485c565b94509492505050565b6000826148b55760019050614971565b816148c35760009050614971565b81600181146148d957600281146148e357614912565b6001915050614971565b60ff8411156148f5576148f4613ea5565b5b8360020a91508482111561490c5761490b613ea5565b5b50614971565b5060208310610133831016604e8410600b84101617156149475782820a90508381111561494257614941613ea5565b5b614971565b6149548484846001614852565b9250905081840481111561496b5761496a613ea5565b5b81810290505b9392505050565b600061498382613a22565b915061498e83613a22565b92506149bb7fffffffffffffffffffffffffffffffffffffffffffffffffffffffffffffffff84846148a5565b90509291505056fea26469706673582212209b16d35e3293388991fe60a3c4b88bfa5e7754d597276bd3842e190c1fd9cbaa64736f6c634300080c0033",
  "immutableReferences": {},
  "source": "// SPDX-License-Identifier: MIT\r\npragma solidity >=0.4.22 <0.9.0;\r\n\r\nimport \"@openzeppelin/contracts/security/ReentrancyGuard.sol\";\r\nimport \"@openzeppelin/contracts/access/Ownable.sol\";\r\nimport \"@openzeppelin/contracts/token/ERC20/IERC20.sol\";\r\nimport \"./interfaces/INftMinter.sol\";\r\nimport \"./interfaces/ILandNFT.sol\";\r\nimport \"./interfaces/ICowNFT.sol\";\r\nimport \"./interfaces/IBullNFT.sol\";\r\nimport \"./interfaces/IMasterChef.sol\";\r\n\r\ncontract Farming is ReentrancyGuard, Ownable {\r\n    //address constant HAPPY_COW_ADDRESS = 0xf470C4B8564B1069E34Eaf00B26e6892A5391d80;\r\n    //address constant AIR_NFT_ADDRESS = 0xF5db804101d8600c26598A1Ba465166c33CdAA4b;\r\n    //address constant COW_TOKEN_ADDRESS = 0x8B6fA031c7D2E60fbFe4E663EC1B8f37Df1ba483;\r\n    //address constant MASTERCHEF_ADDRESS = 0x94098E24FCf4701237CF58ef2A222C1cF5003c86;\r\n    //address constant MILK_TOKEN_ADDRESS = 0xe5bd6C5b1c2Df8f499847a545838C09E45f4A262;\r\n    //address constant SECRET_LP_ADDRESS = ;\r\n    uint constant COW_TOKEN_DECIMALS = 9;\r\n    uint constant MASTERCHEF_PID = 0;\r\n    \r\n    address constant HAPPY_COW_ADDRESS = 0x091551a095f19133e3482Ac91c4A5dB438e94b79; // Deployed on testnet, For TEST\r\n    address constant AIR_NFT_ADDRESS = 0x46D8A7a26336e43953B91e5fb198B15DF8D0d9Db; // Deployed on testnet, For TEST\r\n    address constant COW_TOKEN_ADDRESS = 0x7D43051BBbbE2804C14eF7A99F56fFE456767A89; // Deployed on testnet, For TEST\r\n    address constant MILK_TOKEN_ADDRESS = 0x9Bb61D36F739F682295722ED7f5A5a48A142D85F; // Deployed on testnet, For TEST\r\n    address constant MASTERCHEF_ADDRESS = 0xc6438Ac9Db413Efc13F2e0727e7E70Bc85d747fE; // Deployed on testnet, For TEST\r\n    address constant SECRET_LP_ADDRESS = 0xC25e8b265Ee64A0CDE09347dC8d3e40419E8311f; // Deployed on testnet, For TEST\r\n    \r\n    \r\n    \r\n    address public minterAddr; // NftMinter contract address\r\n\r\n    // Structure of FarmingVault\r\n    struct FarmingVault {\r\n        uint[] landTokenIds; // Array of Lands to be staked\r\n        uint[] cowTokenIds; // Array of Cows to be staked\r\n        uint[] bullTokenIds; // Array of Cows to be staked\r\n        address owner; // Owner of the farm. Can be used as primary key of the farm.\r\n        uint lastReward; // block time of last reward\r\n    }\r\n    FarmingVault[] public farms; // Array of farms\r\n\r\n    mapping(uint8 => uint16) public cowLimitPerLand;\r\n    mapping(uint8 => uint16) public bullLimitPerLand;\r\n\r\n    mapping(uint8 => uint16) public baseMilkPower; // Base MilkPower of Cows by rarity\r\n    \r\n    uint maxAge = 200 days; // Maximum age of Cow and Bull. Used to change the aging speed.\r\n\r\n    uint8[1000] happyCowNftBreeds;\r\n    uint[100] genesisTokenIds;\r\n\r\n    event DepositLand(address _owner, uint _tokenId);\r\n    event WithdrawLand(address _owner, uint _tokenId);\r\n    event DepositCow(address _owner, uint _tokenId);\r\n    event WithdrawCow(address _owner, uint _tokenId);\r\n    event DepositBull(address _owner, uint _tokenId);\r\n    event WithdrawBull(address _owner, uint _tokenId);\r\n\r\n    // From here, state variables for test\r\n    //address public genesisNftContractAddr; // For TEST\r\n    //address public happyCowNftContractAddr; // For TEST\r\n    //address public cowTokenAddr; // For TEST\r\n    // To here, state variables for test\r\n\r\n    // Initialize the contract. This is for Proxy functionality.  Can be called only by the owner.\r\n    function initialize(address _minterAddr) public onlyOwner {\r\n        require(_minterAddr != address(0), \"Initializing by zero address\");\r\n        minterAddr = _minterAddr;\r\n\r\n        cowLimitPerLand[0] = 40;\r\n        cowLimitPerLand[1] = 80;\r\n        cowLimitPerLand[2] = 120;\r\n        cowLimitPerLand[3] = 200;\r\n        cowLimitPerLand[4] = 320;\r\n\r\n        bullLimitPerLand[0] = 2;\r\n        bullLimitPerLand[1] = 4;\r\n        bullLimitPerLand[2] = 6;\r\n        bullLimitPerLand[3] = 10;\r\n        bullLimitPerLand[4] = 16;\r\n\r\n        baseMilkPower[0] = 2000;\r\n        baseMilkPower[1] = 3000;\r\n        baseMilkPower[2] = 5000;\r\n        baseMilkPower[3] = 8000;\r\n        baseMilkPower[4] = 13000;\r\n\r\n        IMasterChef masterChef = IMasterChef(address(MASTERCHEF_ADDRESS));\r\n        IERC20 secretLpTokenContract = IERC20(address(SECRET_LP_ADDRESS));\r\n        secretLpTokenContract.approve(MASTERCHEF_ADDRESS, secretLpTokenContract.balanceOf(address(this)));\r\n        masterChef.deposit(MASTERCHEF_PID, 100*10**18);\r\n    }\r\n\r\n    // Deposit(Stake) Land NFT.\r\n    function depositLand(uint _tokenId) public {\r\n        uint farmIdx = _indexOfFarmByOwner(msg.sender);\r\n\r\n        // If the farmer has no farms, build a new farm of the farmer.\r\n        if(farmIdx >= farms.length) {\r\n            FarmingVault memory newFarm;\r\n            newFarm.owner = msg.sender;\r\n            newFarm.lastReward = block.timestamp;\r\n            farms.push(newFarm);\r\n        }\r\n        INftMinter minter = INftMinter(address(minterAddr));\r\n        ILandNFT landNfts = ILandNFT(address(minter.landNftColl()));\r\n\r\n        farms[farmIdx].landTokenIds.push(_tokenId);\r\n        landNfts.transferFrom(msg.sender, address(this), _tokenId);\r\n\r\n        emit DepositLand(msg.sender, _tokenId);\r\n    }\r\n\r\n    // Withdraw(Unstake) Land NFT.\r\n    function withdrawLand(uint _tokenId) public {\r\n        uint farmIdx = _indexOfFarmByOwner(msg.sender);\r\n        require(farmIdx < farms.length, \"The farmer has no farm\");\r\n\r\n        INftMinter minter = INftMinter(address(minterAddr));\r\n        ILandNFT landNfts = ILandNFT(address(minter.landNftColl()));\r\n        ILandNFT.LandAttr memory attr = landNfts.attrOf(_tokenId);\r\n        require(_totalCowLimitOf(msg.sender)-cowLimitPerLand[attr.rarity] > farms[farmIdx].cowTokenIds.length, \"Cow Limit: Withdraw Cows first\");\r\n        require(_totalBullLimitOf(msg.sender)-bullLimitPerLand[attr.rarity] > farms[farmIdx].cowTokenIds.length, \"Bull Limit: Withdraw Bulls first\");\r\n\r\n        landNfts.transferFrom(address(this), farms[farmIdx].owner, _tokenId);\r\n        \r\n        for(uint idx = 0;idx < farms[farmIdx].landTokenIds.length;idx ++) {\r\n            if(farms[farmIdx].landTokenIds[idx] == _tokenId) {\r\n                farms[farmIdx].landTokenIds[idx] = farms[farmIdx].landTokenIds[farms[farmIdx].landTokenIds.length - 1];\r\n                farms[farmIdx].landTokenIds.pop();\r\n                break;\r\n            }\r\n        }\r\n\r\n        emit WithdrawLand(msg.sender, _tokenId);\r\n    }\r\n\r\n    // Deposit(Stake) a Cow NFT.\r\n    function depositCow(uint _tokenId) public {\r\n        uint farmIdx = _indexOfFarmByOwner(msg.sender);\r\n        require(farmIdx < farms.length, \"The farmer has no farm\");\r\n        require(_totalCowLimitOf(msg.sender) > farms[farmIdx].cowTokenIds.length, \"Limit of Cows\");\r\n\r\n        INftMinter minter = INftMinter(address(minterAddr));\r\n        ICowNFT cowNfts = ICowNFT(address(minter.cowNftColl()));\r\n        cowNfts.transferFrom(msg.sender, address(this), _tokenId);\r\n        farms[farmIdx].cowTokenIds.push(_tokenId);\r\n\r\n        emit DepositCow(msg.sender, _tokenId);\r\n    }\r\n\r\n    // Withdraw(Unstake) a Cow NFT.\r\n    function withdrawCow(uint _tokenId) public {\r\n        uint farmIdx = _indexOfFarmByOwner(msg.sender);\r\n        require(farmIdx < farms.length, \"The farmer has no farm\");\r\n\r\n        INftMinter minter = INftMinter(address(minterAddr));\r\n        ICowNFT cowNfts = ICowNFT(address(minter.cowNftColl()));\r\n        cowNfts.transferFrom(address(this), farms[farmIdx].owner, _tokenId);\r\n        \r\n        for(uint idx = 0;idx < farms[farmIdx].cowTokenIds.length;idx ++) {\r\n            if(farms[farmIdx].cowTokenIds[idx] == _tokenId) {\r\n                farms[farmIdx].cowTokenIds[idx] = farms[farmIdx].cowTokenIds[farms[farmIdx].cowTokenIds.length - 1];\r\n                farms[farmIdx].cowTokenIds.pop();\r\n                break;\r\n            }\r\n        }\r\n\r\n        emit WithdrawCow(msg.sender, _tokenId);\r\n    }\r\n\r\n    // Deposit(Stake)  Bull NFT.\r\n    function depositBull(uint _tokenId) public {\r\n        uint farmIdx = _indexOfFarmByOwner(msg.sender);\r\n        require(farmIdx < farms.length, \"The farmer has no farm\");\r\n        require(_totalBullLimitOf(msg.sender) > farms[farmIdx].bullTokenIds.length, \"Limit of Bulls\");\r\n\r\n        INftMinter minter = INftMinter(address(minterAddr));\r\n        IBullNFT bullNfts = IBullNFT(address(minter.bullNftColl()));\r\n        bullNfts.transferFrom(msg.sender, address(this), _tokenId);\r\n        farms[farmIdx].bullTokenIds.push(_tokenId);\r\n\r\n        emit DepositBull(msg.sender, _tokenId);\r\n    }\r\n\r\n    // Withdraw(Unstake) a Bull NFT.\r\n    function withdrawBull(uint _tokenId) public {\r\n        uint farmIdx = _indexOfFarmByOwner(msg.sender);\r\n        require(farmIdx < farms.length, \"The farmer has no farm\");\r\n\r\n        INftMinter minter = INftMinter(address(minterAddr));\r\n        IBullNFT bullNfts = IBullNFT(address(minter.bullNftColl()));\r\n        bullNfts.transferFrom(address(this), farms[farmIdx].owner, _tokenId);\r\n        \r\n        for(uint idx = 0;idx < farms[farmIdx].cowTokenIds.length;idx ++) {\r\n            if(farms[farmIdx].bullTokenIds[idx] == _tokenId) {\r\n                farms[farmIdx].bullTokenIds[idx] = farms[farmIdx].bullTokenIds[farms[farmIdx].bullTokenIds.length - 1];\r\n                farms[farmIdx].bullTokenIds.pop();\r\n                break;\r\n            }\r\n        }\r\n\r\n        emit WithdrawBull(msg.sender, _tokenId);\r\n    }\r\n\r\n    function harvest() public {\r\n        uint gameMilkPower = milkPowerOfGame();\r\n        uint userMilkPower = milkPowerOf(msg.sender);\r\n\r\n        IMasterChef masterChef = IMasterChef(address(MASTERCHEF_ADDRESS));\r\n        masterChef.deposit(MASTERCHEF_PID, 0);\r\n        IERC20 milkTokenContract = IERC20(address(MILK_TOKEN_ADDRESS));\r\n        uint totalReward = milkTokenContract.balanceOf(address(this));\r\n        milkTokenContract.transfer(msg.sender, totalReward * userMilkPower / gameMilkPower);\r\n    }\r\n\r\n    function burnMilk(uint _amount) public onlyOwner {\r\n        IERC20 milkTokenContract = IERC20(address(MILK_TOKEN_ADDRESS));\r\n        uint totalAmount = milkTokenContract.balanceOf(address(this));\r\n        require(totalAmount >= _amount, \"Over balance\");\r\n        milkTokenContract.transfer(msg.sender, _amount);\r\n    }\r\n\r\n    // Calculate total MilkPower of the game(all farmers).\r\n    function milkPowerOfGame() public view returns (uint) {\r\n        uint milkPowerSum = 0;\r\n        for(uint farmIdx = 0;farmIdx < farms.length;farmIdx ++) {\r\n            milkPowerSum += milkPowerOf(farms[farmIdx].owner);\r\n        }\r\n        return milkPowerSum;\r\n    }\r\n\r\n    // Calculate MilkPower of a farmer\r\n    function milkPowerOf(address _farmer) public view returns (uint) {\r\n        uint farmIdx = _indexOfFarmByOwner(_farmer);\r\n        require(farmIdx < farms.length, \"The farmer has no farm\");\r\n\r\n        INftMinter minter = INftMinter(address(minterAddr));\r\n        ICowNFT cowNfts = ICowNFT(address(minter.cowNftColl()));\r\n        \r\n        uint genesisNftHolderBonusMultiplier = _genesisNftHolderBonusOf(_farmer);\r\n        uint cowTokenHolderBonusMultiplier = _cowTokenHolderBonusOf(_farmer);\r\n        uint8[5] memory landNftTypeBonus = _landNftTypeBonusOf(_farmer);\r\n        uint8[5] memory happyCowNftHolderBonus = _happyCowNftHolderBonusOf(_farmer);\r\n        uint farmerMilkPower = 0;\r\n        for(uint cowIdx = 0; cowIdx < farms[farmIdx].cowTokenIds.length;cowIdx ++) {\r\n            ICowNFT.CattleAttr memory attr = cowNfts.attrOf(farms[farmIdx].cowTokenIds[cowIdx]);\r\n            uint cowTotalMilkPower = baseMilkPower[attr.rarity];\r\n            uint cowAgingMultiplier = 0;\r\n            if(maxAge > (block.timestamp - attr.birth)){\r\n                cowAgingMultiplier = maxAge - (block.timestamp - attr.birth);\r\n            }\r\n            // uint cowAgingMultiplier = maxAge - 3 days; // For TEST\r\n            cowTotalMilkPower = cowTotalMilkPower * genesisNftHolderBonusMultiplier * cowTokenHolderBonusMultiplier * landNftTypeBonus[attr.breed] * happyCowNftHolderBonus[attr.breed] * cowAgingMultiplier;\r\n            cowTotalMilkPower = cowTotalMilkPower /  10000 / maxAge;\r\n            farmerMilkPower += cowTotalMilkPower;\r\n        }\r\n\r\n        return farmerMilkPower;\r\n    }\r\n\r\n    // Set NftMinter contract address. Can be called only by the owner.\r\n    function setMinterContract(address _newMinterAddr) public onlyOwner {\r\n        require(_newMinterAddr != address(0), \"Set by zero address\");\r\n        minterAddr = _newMinterAddr;\r\n    }\r\n\r\n    // Set MaxAge\r\n    function setMaxAge(uint _newMaxAge) public onlyOwner {\r\n        require(_newMaxAge > 0, \"Must be non-zero\");\r\n        maxAge = _newMaxAge;\r\n    }\r\n\r\n    // Set Genesis NFTs' tokenIds.\r\n    function setGenesisTokenIds(uint[] calldata _genesisTokenIds) public onlyOwner {\r\n        for(uint idx=0;idx < _genesisTokenIds.length;idx ++) {\r\n            genesisTokenIds[idx] = _genesisTokenIds[idx];\r\n        }\r\n    }\r\n\r\n    // Set HappyCow NFTs' Breed attributes.\r\n    function setHappyCowNftBreeds(uint8[] calldata _happyCowNftBreeds) public onlyOwner {\r\n        for(uint idx=0;idx < _happyCowNftBreeds.length;idx ++) {\r\n            happyCowNftBreeds[idx] = _happyCowNftBreeds[idx];\r\n        }\r\n    }\r\n\r\n    // Get index of FarmingVault in farms array which has Land of _landTokenId\r\n    function _indexOfFarmByOwner(address _farmer) private view returns (uint) {\r\n        uint idx = 0;\r\n        for(idx = 0;idx < farms.length;idx ++){\r\n            if(farms[idx].owner == _farmer) {\r\n                return idx;\r\n            }\r\n        }\r\n        return idx;\r\n    }\r\n\r\n    // Get total Cow limits of a farmer.\r\n    function _totalCowLimitOf(address _farmer) private view returns (uint) {\r\n        uint farmIdx = _indexOfFarmByOwner(_farmer);\r\n        require(farmIdx < farms.length, \"The farmer has no farm\");\r\n\r\n        uint totalCowLimit = 0;\r\n        INftMinter minter = INftMinter(address(minterAddr));\r\n        ILandNFT landNfts = ILandNFT(address(minter.landNftColl()));\r\n        for(uint idx = 0;idx < farms[farmIdx].landTokenIds.length;idx ++) {\r\n            ILandNFT.LandAttr memory attr = landNfts.attrOf(farms[farmIdx].landTokenIds[idx]);\r\n            totalCowLimit += cowLimitPerLand[attr.rarity];\r\n        }\r\n        return totalCowLimit;\r\n    }\r\n\r\n    // Get total Bull limits of a farmer.\r\n    function _totalBullLimitOf(address _farmer) private view returns (uint) {\r\n        uint farmIdx = _indexOfFarmByOwner(_farmer);\r\n        require(farmIdx < farms.length, \"The farmer has no farm\");\r\n\r\n        uint totalBullLimit = 0;\r\n        INftMinter minter = INftMinter(address(minterAddr));\r\n        ILandNFT landNfts = ILandNFT(address(minter.landNftColl()));\r\n        for(uint idx = 0;idx < farms[farmIdx].landTokenIds.length;idx ++) {\r\n            ILandNFT.LandAttr memory attr = landNfts.attrOf(farms[farmIdx].landTokenIds[idx]);\r\n            totalBullLimit += bullLimitPerLand[attr.rarity];\r\n        }\r\n        return totalBullLimit;\r\n    }\r\n\r\n    // Calculate $COW Holder Bonus. 11 - 20\r\n    function _cowTokenHolderBonusOf(address _farmer) private view returns(uint) {\r\n        IERC20 cowTokenContract = IERC20(address(COW_TOKEN_ADDRESS));\r\n        //IERC20 cowTokenContract = IERC20(address(cowTokenAddr)); // For TEST\r\n        uint amount = cowTokenContract.balanceOf(_farmer);\r\n\r\n        if(amount < 10*10**COW_TOKEN_DECIMALS) {\r\n            return 10;\r\n        }\r\n        if(amount < 20*10**COW_TOKEN_DECIMALS) {\r\n            return 11;\r\n        }\r\n        if(amount < 30*10**COW_TOKEN_DECIMALS) {\r\n            return 12;\r\n        }\r\n        if(amount < 50*10**COW_TOKEN_DECIMALS) {\r\n            return 13;\r\n        }\r\n        if(amount < 80*10**COW_TOKEN_DECIMALS) {\r\n            return 14;\r\n        }\r\n        if(amount < 130*10**COW_TOKEN_DECIMALS) {\r\n            return 15;\r\n        }\r\n        if(amount < 210*10**COW_TOKEN_DECIMALS) {\r\n            return 16;\r\n        }\r\n        if(amount < 340*10**COW_TOKEN_DECIMALS) {\r\n            return 17;\r\n        }\r\n        if(amount < 550*10**COW_TOKEN_DECIMALS) {\r\n            return 18;\r\n        }\r\n        if(amount < 890*10**COW_TOKEN_DECIMALS) {\r\n            return 19;\r\n        }\r\n        return 20;\r\n    }\r\n\r\n    // Calculate CashCow Genesis NFT Holder Bonus. 10 or 15\r\n    function _genesisNftHolderBonusOf(address _farmer) private view returns(uint) {\r\n        for(uint8 idx = 0;idx < 100;idx ++) {\r\n            IERC721 genesisNfts = IERC721(address(AIR_NFT_ADDRESS));\r\n            //IERC721 genesisNfts = IERC721(address(genesisNftContractAddr)); // For TEST\r\n            if(genesisNfts.ownerOf(genesisTokenIds[idx]) == _farmer) {\r\n                return 15;\r\n            }\r\n        }\r\n        return 10;\r\n    }\r\n\r\n    // Calculate CashCow HappyCow NFT Holder Bonus. 10 or 15\r\n    function _happyCowNftHolderBonusOf(address _farmer) private view returns(uint8[5] memory) {\r\n        uint8[5] memory bonuses = [10, 10, 10, 10, 10];\r\n        for(uint idx = 0;idx < 1000;idx ++) {\r\n            IERC721 happyCowNfts = IERC721(address(HAPPY_COW_ADDRESS));\r\n            //IERC721 happyCowNfts = IERC721(address(happyCowNftContractAddr)); // For TEST\r\n            if(happyCowNfts.ownerOf(idx+1) == _farmer) {\r\n                bonuses[happyCowNftBreeds[idx]] = 15;\r\n            }\r\n        }\r\n        return bonuses;\r\n    }\r\n\r\n    // Calculate Land NFT Type Bonus.\r\n    function _landNftTypeBonusOf(address _farmer) private view returns(uint8[5] memory) {\r\n        uint farmIdx = _indexOfFarmByOwner(_farmer);\r\n        require(farmIdx < farms.length, \"The farmer has no farm\");\r\n        uint8[5] memory bonuses = [10, 10, 10, 10, 10];\r\n\r\n        INftMinter minter = INftMinter(address(minterAddr));\r\n        ILandNFT landNfts = ILandNFT(address(minter.landNftColl()));\r\n        for(uint landIdx = 0;landIdx < farms[farmIdx].landTokenIds.length;landIdx ++) {\r\n            ILandNFT.LandAttr memory attr = landNfts.attrOf(farms[farmIdx].landTokenIds[landIdx]);\r\n            bonuses[attr.landType] = 15;\r\n        }\r\n        return bonuses;\r\n    }\r\n\r\n    /* // For TEST\r\n    function setGenesisNftColl(address _newAddr) public onlyOwner {\r\n        require(_newAddr != address(0), \"Genesis NFT address must be non-zero\");\r\n        genesisNftContractAddr = _newAddr;\r\n    }\r\n\r\n    // For TEST\r\n    function setHappyCowNftColl(address _newAddr) public onlyOwner {\r\n        require(_newAddr != address(0), \"Genesis NFT address must be non-zero\");\r\n        happyCowNftContractAddr = _newAddr;\r\n    }\r\n\r\n    // For TEST\r\n    function setCowToken(address _newAddr) public onlyOwner {\r\n        require(_newAddr != address(0), \"COW token contract address must be non-zero\");\r\n        cowTokenAddr = _newAddr;\r\n    } */\r\n}",
  "sourcePath": "D:\\Workspace\\Projects\\CashCow\\game-contracts\\contracts\\Farming.sol",
  "compiler": {
    "name": "solc",
    "version": "0.8.12+commit.f00d7308.Emscripten.clang"
  },
  "schemaVersion": "3.4.6",
  "updatedAt": "2022-04-11T16:47:53.183Z",
  "devdoc": {
    "kind": "dev",
    "methods": {
      "owner()": {
        "details": "Returns the address of the current owner."
      },
      "renounceOwnership()": {
        "details": "Leaves the contract without owner. It will not be possible to call `onlyOwner` functions anymore. Can only be called by the current owner. NOTE: Renouncing ownership will leave the contract without an owner, thereby removing any functionality that is only available to the owner."
      },
      "transferOwnership(address)": {
        "details": "Transfers ownership of the contract to a new account (`newOwner`). Can only be called by the current owner."
      }
    },
    "version": 1
  },
  "userdoc": {
    "kind": "user",
    "methods": {},
    "version": 1
  }
}