{
  "contractName": "NftMinter",
  "abi": [
    {
      "anonymous": false,
      "inputs": [
        {
          "indexed": true,
          "internalType": "address",
          "name": "newMintable",
          "type": "address"
        }
      ],
      "name": "MintableSet",
      "type": "event"
    },
    {
      "anonymous": false,
      "inputs": [
        {
          "indexed": true,
          "internalType": "address",
          "name": "previousOwner",
          "type": "address"
        },
        {
          "indexed": true,
          "internalType": "address",
          "name": "newOwner",
          "type": "address"
        }
      ],
      "name": "OwnershipTransferred",
      "type": "event"
    },
    {
      "inputs": [
        {
          "internalType": "address",
          "name": "addr",
          "type": "address"
        }
      ],
      "name": "isMintable",
      "outputs": [
        {
          "internalType": "bool",
          "name": "",
          "type": "bool"
        }
      ],
      "stateMutability": "view",
      "type": "function",
      "constant": true
    },
    {
      "inputs": [
        {
          "internalType": "address",
          "name": "",
          "type": "address"
        }
      ],
      "name": "mintable",
      "outputs": [
        {
          "internalType": "bool",
          "name": "",
          "type": "bool"
        }
      ],
      "stateMutability": "view",
      "type": "function",
      "constant": true
    },
    {
      "inputs": [],
      "name": "owner",
      "outputs": [
        {
          "internalType": "address",
          "name": "",
          "type": "address"
        }
      ],
      "stateMutability": "view",
      "type": "function",
      "constant": true
    },
    {
      "inputs": [],
      "name": "renounceOwnership",
      "outputs": [],
      "stateMutability": "nonpayable",
      "type": "function"
    },
    {
      "inputs": [
        {
          "internalType": "address",
          "name": "newOwner",
          "type": "address"
        }
      ],
      "name": "transferOwnership",
      "outputs": [],
      "stateMutability": "nonpayable",
      "type": "function"
    },
    {
      "inputs": [
        {
          "internalType": "address",
          "name": "_landCollAddr",
          "type": "address"
        },
        {
          "internalType": "address",
          "name": "_cowCollAddr",
          "type": "address"
        },
        {
          "internalType": "address",
          "name": "_bullCollAddr",
          "type": "address"
        }
      ],
      "name": "initialize",
      "outputs": [],
      "stateMutability": "nonpayable",
      "type": "function"
    },
    {
      "inputs": [
        {
          "internalType": "address",
          "name": "_owner",
          "type": "address"
        },
        {
          "internalType": "uint8",
          "name": "_rarity",
          "type": "uint8"
        },
        {
          "internalType": "uint8",
          "name": "_type",
          "type": "uint8"
        }
      ],
      "name": "mintLand",
      "outputs": [],
      "stateMutability": "nonpayable",
      "type": "function"
    },
    {
      "inputs": [
        {
          "internalType": "address",
          "name": "_owner",
          "type": "address"
        },
        {
          "internalType": "uint8",
          "name": "_rarity",
          "type": "uint8"
        },
        {
          "internalType": "uint8",
          "name": "_breed",
          "type": "uint8"
        }
      ],
      "name": "mintCow",
      "outputs": [],
      "stateMutability": "nonpayable",
      "type": "function"
    },
    {
      "inputs": [
        {
          "internalType": "address",
          "name": "_owner",
          "type": "address"
        },
        {
          "internalType": "uint8",
          "name": "_rarity",
          "type": "uint8"
        },
        {
          "internalType": "uint8",
          "name": "_breed",
          "type": "uint8"
        }
      ],
      "name": "mintBull",
      "outputs": [],
      "stateMutability": "nonpayable",
      "type": "function"
    },
    {
      "inputs": [],
      "name": "landNftColl",
      "outputs": [
        {
          "internalType": "address",
          "name": "",
          "type": "address"
        }
      ],
      "stateMutability": "view",
      "type": "function",
      "constant": true
    },
    {
      "inputs": [
        {
          "internalType": "address",
          "name": "_addr",
          "type": "address"
        }
      ],
      "name": "setLandNftColl",
      "outputs": [],
      "stateMutability": "nonpayable",
      "type": "function"
    },
    {
      "inputs": [],
      "name": "cowNftColl",
      "outputs": [
        {
          "internalType": "address",
          "name": "",
          "type": "address"
        }
      ],
      "stateMutability": "view",
      "type": "function",
      "constant": true
    },
    {
      "inputs": [
        {
          "internalType": "address",
          "name": "_addr",
          "type": "address"
        }
      ],
      "name": "setCowNftColl",
      "outputs": [],
      "stateMutability": "nonpayable",
      "type": "function"
    },
    {
      "inputs": [],
      "name": "bullNftColl",
      "outputs": [
        {
          "internalType": "address",
          "name": "",
          "type": "address"
        }
      ],
      "stateMutability": "view",
      "type": "function",
      "constant": true
    },
    {
      "inputs": [
        {
          "internalType": "address",
          "name": "_addr",
          "type": "address"
        }
      ],
      "name": "setBullNftColl",
      "outputs": [],
      "stateMutability": "nonpayable",
      "type": "function"
    },
    {
      "inputs": [
        {
          "internalType": "address",
          "name": "_addr",
          "type": "address"
        }
      ],
      "name": "setMintable",
      "outputs": [],
      "stateMutability": "nonpayable",
      "type": "function"
    },
    {
      "inputs": [
        {
          "internalType": "uint256",
          "name": "_tokenId",
          "type": "uint256"
        }
      ],
      "name": "burnBull",
      "outputs": [],
      "stateMutability": "nonpayable",
      "type": "function"
    },
    {
      "inputs": [
        {
          "internalType": "uint256",
          "name": "_tokenId",
          "type": "uint256"
        }
      ],
      "name": "burnCow",
      "outputs": [],
      "stateMutability": "nonpayable",
      "type": "function"
    }
  ],
  "bytecode": "0x608060405234801561001057600080fd5b50600160008190555061003561002a61003a60201b60201c565b61004260201b60201c565b610108565b600033905090565b6000600160009054906101000a900473ffffffffffffffffffffffffffffffffffffffff16905081600160006101000a81548173ffffffffffffffffffffffffffffffffffffffff021916908373ffffffffffffffffffffffffffffffffffffffff1602179055508173ffffffffffffffffffffffffffffffffffffffff168173ffffffffffffffffffffffffffffffffffffffff167f8be0079c531659141344cd1fd0a4f28419497f9722a3daafe3b4186f6b6457e060405160405180910390a35050565b611cce806101176000396000f3fe608060405234801561001057600080fd5b50600436106101165760003560e01c806359441eae116100a2578063970844451161007157806397084445146102a35780639e168667146102c1578063c0c53b8b146102dd578063e150fd50146102f9578063f2fde38b1461031557610116565b806359441eae1461022f578063715018a61461025f5780638da5cb5b146102695780638ea859791461028757610116565b80632e87f9c8116100e95780632e87f9c81461019f57806341fd43f9146101bd578063452cbe7e146101d9578063549a1ab2146101f5578063571dc7b81461021357610116565b80631e25dc601461011b578063222b15fb1461013757806324d74f57146101675780632c0417da14610183575b600080fd5b6101356004803603810190610130919061144c565b610331565b005b610151600480360381019061014c91906114d7565b6103c7565b60405161015e919061151f565b60405180910390f35b610181600480360381019061017c919061144c565b61041d565b005b61019d600480360381019061019891906114d7565b6104b3565b005b6101a76105e3565b6040516101b49190611549565b60405180910390f35b6101d760048036038101906101d291906114d7565b61060d565b005b6101f360048036038101906101ee91906114d7565b61073d565b005b6101fd61086d565b60405161020a9190611549565b60405180910390f35b61022d6004803603810190610228919061159d565b610897565b005b610249600480360381019061024491906114d7565b610a36565b604051610256919061151f565b60405180910390f35b610267610a56565b005b610271610ade565b60405161027e9190611549565b60405180910390f35b6102a1600480360381019061029c91906114d7565b610b08565b005b6102ab610c4f565b6040516102b89190611549565b60405180910390f35b6102db60048036038101906102d6919061159d565b610c79565b005b6102f760048036038101906102f291906115f0565b610e18565b005b610313600480360381019061030e919061159d565b6110ac565b005b61032f600480360381019061032a91906114d7565b61124b565b005b6000600560009054906101000a900473ffffffffffffffffffffffffffffffffffffffff1690508073ffffffffffffffffffffffffffffffffffffffff166342966c68836040518263ffffffff1660e01b81526004016103919190611652565b600060405180830381600087803b1580156103ab57600080fd5b505af11580156103bf573d6000803e3d6000fd5b505050505050565b6000600260008373ffffffffffffffffffffffffffffffffffffffff1673ffffffffffffffffffffffffffffffffffffffff16815260200190815260200160002060009054906101000a900460ff169050919050565b6000600460009054906101000a900473ffffffffffffffffffffffffffffffffffffffff1690508073ffffffffffffffffffffffffffffffffffffffff166342966c68836040518263ffffffff1660e01b815260040161047d9190611652565b600060405180830381600087803b15801561049757600080fd5b505af11580156104ab573d6000803e3d6000fd5b505050505050565b6104bb611343565b73ffffffffffffffffffffffffffffffffffffffff166104d9610ade565b73ffffffffffffffffffffffffffffffffffffffff161461052f576040517f08c379a0000000000000000000000000000000000000000000000000000000008152600401610526906116ca565b60405180910390fd5b600073ffffffffffffffffffffffffffffffffffffffff168173ffffffffffffffffffffffffffffffffffffffff16141561059f576040517f08c379a00000000000000000000000000000000000000000000000000000000081526004016105969061175c565b60405180910390fd5b80600560006101000a81548173ffffffffffffffffffffffffffffffffffffffff021916908373ffffffffffffffffffffffffffffffffffffffff16021790555050565b6000600360009054906101000a900473ffffffffffffffffffffffffffffffffffffffff16905090565b610615611343565b73ffffffffffffffffffffffffffffffffffffffff16610633610ade565b73ffffffffffffffffffffffffffffffffffffffff1614610689576040517f08c379a0000000000000000000000000000000000000000000000000000000008152600401610680906116ca565b60405180910390fd5b600073ffffffffffffffffffffffffffffffffffffffff168173ffffffffffffffffffffffffffffffffffffffff1614156106f9576040517f08c379a00000000000000000000000000000000000000000000000000000000081526004016106f0906117ee565b60405180910390fd5b80600460006101000a81548173ffffffffffffffffffffffffffffffffffffffff021916908373ffffffffffffffffffffffffffffffffffffffff16021790555050565b610745611343565b73ffffffffffffffffffffffffffffffffffffffff16610763610ade565b73ffffffffffffffffffffffffffffffffffffffff16146107b9576040517f08c379a00000000000000000000000000000000000000000000000000000000081526004016107b0906116ca565b60405180910390fd5b600073ffffffffffffffffffffffffffffffffffffffff168173ffffffffffffffffffffffffffffffffffffffff161415610829576040517f08c379a000000000000000000000000000000000000000000000000000000000815260040161082090611880565b60405180910390fd5b80600360006101000a81548173ffffffffffffffffffffffffffffffffffffffff021916908373ffffffffffffffffffffffffffffffffffffffff16021790555050565b6000600560009054906101000a900473ffffffffffffffffffffffffffffffffffffffff16905090565b60011515600260003373ffffffffffffffffffffffffffffffffffffffff1673ffffffffffffffffffffffffffffffffffffffff16815260200190815260200160002060009054906101000a900460ff1615151461092a576040517f08c379a0000000000000000000000000000000000000000000000000000000008152600401610921906118ec565b60405180910390fd5b600073ffffffffffffffffffffffffffffffffffffffff168373ffffffffffffffffffffffffffffffffffffffff16141561099a576040517f08c379a000000000000000000000000000000000000000000000000000000000815260040161099190611958565b60405180910390fd5b6000600460009054906101000a900473ffffffffffffffffffffffffffffffffffffffff1690508073ffffffffffffffffffffffffffffffffffffffff1663d20e48748484876040518463ffffffff1660e01b81526004016109fe93929190611987565b600060405180830381600087803b158015610a1857600080fd5b505af1158015610a2c573d6000803e3d6000fd5b5050505050505050565b60026020528060005260406000206000915054906101000a900460ff1681565b610a5e611343565b73ffffffffffffffffffffffffffffffffffffffff16610a7c610ade565b73ffffffffffffffffffffffffffffffffffffffff1614610ad2576040517f08c379a0000000000000000000000000000000000000000000000000000000008152600401610ac9906116ca565b60405180910390fd5b610adc600061134b565b565b6000600160009054906101000a900473ffffffffffffffffffffffffffffffffffffffff16905090565b610b10611343565b73ffffffffffffffffffffffffffffffffffffffff16610b2e610ade565b73ffffffffffffffffffffffffffffffffffffffff1614610b84576040517f08c379a0000000000000000000000000000000000000000000000000000000008152600401610b7b906116ca565b60405180910390fd5b600073ffffffffffffffffffffffffffffffffffffffff168173ffffffffffffffffffffffffffffffffffffffff161415610bf4576040517f08c379a0000000000000000000000000000000000000000000000000000000008152600401610beb90611a30565b60405180910390fd5b6001600260008373ffffffffffffffffffffffffffffffffffffffff1673ffffffffffffffffffffffffffffffffffffffff16815260200190815260200160002060006101000a81548160ff02191690831515021790555050565b6000600460009054906101000a900473ffffffffffffffffffffffffffffffffffffffff16905090565b60011515600260003373ffffffffffffffffffffffffffffffffffffffff1673ffffffffffffffffffffffffffffffffffffffff16815260200190815260200160002060009054906101000a900460ff16151514610d0c576040517f08c379a0000000000000000000000000000000000000000000000000000000008152600401610d03906118ec565b60405180910390fd5b600073ffffffffffffffffffffffffffffffffffffffff168373ffffffffffffffffffffffffffffffffffffffff161415610d7c576040517f08c379a0000000000000000000000000000000000000000000000000000000008152600401610d7390611958565b60405180910390fd5b6000600560009054906101000a900473ffffffffffffffffffffffffffffffffffffffff1690508073ffffffffffffffffffffffffffffffffffffffff1663d20e48748484876040518463ffffffff1660e01b8152600401610de093929190611987565b600060405180830381600087803b158015610dfa57600080fd5b505af1158015610e0e573d6000803e3d6000fd5b5050505050505050565b610e20611343565b73ffffffffffffffffffffffffffffffffffffffff16610e3e610ade565b73ffffffffffffffffffffffffffffffffffffffff1614610e94576040517f08c379a0000000000000000000000000000000000000000000000000000000008152600401610e8b906116ca565b60405180910390fd5b600073ffffffffffffffffffffffffffffffffffffffff168273ffffffffffffffffffffffffffffffffffffffff161415610f04576040517f08c379a0000000000000000000000000000000000000000000000000000000008152600401610efb90611ac2565b60405180910390fd5b600073ffffffffffffffffffffffffffffffffffffffff168173ffffffffffffffffffffffffffffffffffffffff161415610f74576040517f08c379a0000000000000000000000000000000000000000000000000000000008152600401610f6b90611b54565b60405180910390fd5b600073ffffffffffffffffffffffffffffffffffffffff168373ffffffffffffffffffffffffffffffffffffffff161415610fe4576040517f08c379a0000000000000000000000000000000000000000000000000000000008152600401610fdb90611be6565b60405180910390fd5b81600460006101000a81548173ffffffffffffffffffffffffffffffffffffffff021916908373ffffffffffffffffffffffffffffffffffffffff16021790555080600560006101000a81548173ffffffffffffffffffffffffffffffffffffffff021916908373ffffffffffffffffffffffffffffffffffffffff16021790555082600360006101000a81548173ffffffffffffffffffffffffffffffffffffffff021916908373ffffffffffffffffffffffffffffffffffffffff160217905550505050565b60011515600260003373ffffffffffffffffffffffffffffffffffffffff1673ffffffffffffffffffffffffffffffffffffffff16815260200190815260200160002060009054906101000a900460ff1615151461113f576040517f08c379a0000000000000000000000000000000000000000000000000000000008152600401611136906118ec565b60405180910390fd5b600073ffffffffffffffffffffffffffffffffffffffff168373ffffffffffffffffffffffffffffffffffffffff1614156111af576040517f08c379a00000000000000000000000000000000000000000000000000000000081526004016111a690611958565b60405180910390fd5b6000600360009054906101000a900473ffffffffffffffffffffffffffffffffffffffff1690508073ffffffffffffffffffffffffffffffffffffffff1663d20e48748484876040518463ffffffff1660e01b815260040161121393929190611987565b600060405180830381600087803b15801561122d57600080fd5b505af1158015611241573d6000803e3d6000fd5b5050505050505050565b611253611343565b73ffffffffffffffffffffffffffffffffffffffff16611271610ade565b73ffffffffffffffffffffffffffffffffffffffff16146112c7576040517f08c379a00000000000000000000000000000000000000000000000000000000081526004016112be906116ca565b60405180910390fd5b600073ffffffffffffffffffffffffffffffffffffffff168173ffffffffffffffffffffffffffffffffffffffff161415611337576040517f08c379a000000000000000000000000000000000000000000000000000000000815260040161132e90611c78565b60405180910390fd5b6113408161134b565b50565b600033905090565b6000600160009054906101000a900473ffffffffffffffffffffffffffffffffffffffff16905081600160006101000a81548173ffffffffffffffffffffffffffffffffffffffff021916908373ffffffffffffffffffffffffffffffffffffffff1602179055508173ffffffffffffffffffffffffffffffffffffffff168173ffffffffffffffffffffffffffffffffffffffff167f8be0079c531659141344cd1fd0a4f28419497f9722a3daafe3b4186f6b6457e060405160405180910390a35050565b600080fd5b6000819050919050565b61142981611416565b811461143457600080fd5b50565b60008135905061144681611420565b92915050565b60006020828403121561146257611461611411565b5b600061147084828501611437565b91505092915050565b600073ffffffffffffffffffffffffffffffffffffffff82169050919050565b60006114a482611479565b9050919050565b6114b481611499565b81146114bf57600080fd5b50565b6000813590506114d1816114ab565b92915050565b6000602082840312156114ed576114ec611411565b5b60006114fb848285016114c2565b91505092915050565b60008115159050919050565b61151981611504565b82525050565b60006020820190506115346000830184611510565b92915050565b61154381611499565b82525050565b600060208201905061155e600083018461153a565b92915050565b600060ff82169050919050565b61157a81611564565b811461158557600080fd5b50565b60008135905061159781611571565b92915050565b6000806000606084860312156115b6576115b5611411565b5b60006115c4868287016114c2565b93505060206115d586828701611588565b92505060406115e686828701611588565b9150509250925092565b60008060006060848603121561160957611608611411565b5b6000611617868287016114c2565b9350506020611628868287016114c2565b9250506040611639868287016114c2565b9150509250925092565b61164c81611416565b82525050565b60006020820190506116676000830184611643565b92915050565b600082825260208201905092915050565b7f4f776e61626c653a2063616c6c6572206973206e6f7420746865206f776e6572600082015250565b60006116b460208361166d565b91506116bf8261167e565b602082019050919050565b600060208201905081810360008301526116e3816116a7565b9050919050565b7f62756c6c4e6674436f6c6c41646472206d757374206265206e6f6e2d7a65726f60008201527f2061646472657373000000000000000000000000000000000000000000000000602082015250565b600061174660288361166d565b9150611751826116ea565b604082019050919050565b6000602082019050818103600083015261177581611739565b9050919050565b7f636f774e6674436f6c6c41646472206d757374206265206e6f6e2d7a65726f2060008201527f6164647265737300000000000000000000000000000000000000000000000000602082015250565b60006117d860278361166d565b91506117e38261177c565b604082019050919050565b60006020820190508181036000830152611807816117cb565b9050919050565b7f6c616e644e6674436f6c6c41646472206d757374206265206e6f6e2d7a65726f60008201527f2061646472657373000000000000000000000000000000000000000000000000602082015250565b600061186a60288361166d565b91506118758261180e565b604082019050919050565b600060208201905081810360008301526118998161185d565b9050919050565b7f4e6f74206d696e7461626c650000000000000000000000000000000000000000600082015250565b60006118d6600c8361166d565b91506118e1826118a0565b602082019050919050565b60006020820190508181036000830152611905816118c9565b9050919050565b7f4f776e6572206d757374206265206e6f6e2d7a65726f20616464726573730000600082015250565b6000611942601e8361166d565b915061194d8261190c565b602082019050919050565b6000602082019050818103600083015261197181611935565b9050919050565b61198181611564565b82525050565b600060608201905061199c6000830186611978565b6119a96020830185611978565b6119b6604083018461153a565b949350505050565b7f4d696e7461626c65206d757374206265206e6f6e2d7a65726f2061646472657360008201527f7300000000000000000000000000000000000000000000000000000000000000602082015250565b6000611a1a60218361166d565b9150611a25826119be565b604082019050919050565b60006020820190508181036000830152611a4981611a0d565b9050919050565b7f436f7720636f6c6c656374696f6e206d757374206265206e6f6e2d7a65726f2060008201527f6164647265737300000000000000000000000000000000000000000000000000602082015250565b6000611aac60278361166d565b9150611ab782611a50565b604082019050919050565b60006020820190508181036000830152611adb81611a9f565b9050919050565b7f42756c6c20636f6c6c656374696f6e206d757374206265206e6f6e2d7a65726f60008201527f2061646472657373000000000000000000000000000000000000000000000000602082015250565b6000611b3e60288361166d565b9150611b4982611ae2565b604082019050919050565b60006020820190508181036000830152611b6d81611b31565b9050919050565b7f4c616e6420636f6c6c656374696f6e206d757374206265206e6f6e2d7a65726f60008201527f2061646472657373000000000000000000000000000000000000000000000000602082015250565b6000611bd060288361166d565b9150611bdb82611b74565b604082019050919050565b60006020820190508181036000830152611bff81611bc3565b9050919050565b7f4f776e61626c653a206e6577206f776e657220697320746865207a65726f206160008201527f6464726573730000000000000000000000000000000000000000000000000000602082015250565b6000611c6260268361166d565b9150611c6d82611c06565b604082019050919050565b60006020820190508181036000830152611c9181611c55565b905091905056fea264697066735822122099e001c777dd06a17c1757f22f51b6f804630c725d0fe475c158ba249538f37964736f6c634300080c0033",
  "immutableReferences": {},
  "source": "// SPDX-License-Identifier: MIT\npragma solidity >=0.4.22 <0.9.0;\n\nimport \"@openzeppelin/contracts/security/ReentrancyGuard.sol\";\nimport \"@openzeppelin/contracts/access/Ownable.sol\";\nimport \"@openzeppelin/contracts/utils/math/SafeMath.sol\";\nimport \"@openzeppelin/contracts/token/ERC721/IERC721.sol\";\nimport \"./access/Mintable.sol\";\nimport \"./interfaces/ILandNFT.sol\";\nimport \"./interfaces/ICowNFT.sol\";\nimport \"./interfaces/IBullNFT.sol\";\nimport \"./interfaces/INftMinter.sol\";\n\ncontract NftMinter is INftMinter, ReentrancyGuard, Ownable, Mintable {\n\n  address private landNftCollAddr; // Land NFT Collection address\n  address private cowNftCollAddr; // Cow NFT Collection address\n  address private bullNftCollAddr; // Bull NFT Collection address\n\n  // Initialize contract. This is for Proxy functionality.\n  function initialize(address _landCollAddr, address _cowCollAddr, address _bullCollAddr) public onlyOwner {\n    require(_cowCollAddr != address(0), \"Cow collection must be non-zero address\");\n    require(_bullCollAddr != address(0), \"Bull collection must be non-zero address\");\n    require(_landCollAddr != address(0), \"Land collection must be non-zero address\");\n\n    cowNftCollAddr = _cowCollAddr;\n    bullNftCollAddr = _bullCollAddr;\n    landNftCollAddr = _landCollAddr;\n  }\n  \n  // Mint a Land NFT with rarity and type to.\n  function mintLand(address _owner, uint8 _rarity, uint8 _type) external onlyMintable {\n    require(_owner != address(0), \"Owner must be non-zero address\");\n    ILandNFT landContract = ILandNFT(address(landNftCollAddr));\n    landContract.mint(_rarity, _type, _owner);\n  }\n\n  // Mint a Cow NFT with rarity and breed to.\n  function mintCow(address _owner, uint8 _rarity, uint8 _breed) external onlyMintable {\n    require(_owner != address(0), \"Owner must be non-zero address\");\n    ICowNFT cowContract = ICowNFT(address(cowNftCollAddr));\n    cowContract.mint(_rarity, _breed, _owner);\n  }\n\n  // Mint a Bull NFT with rarity and breed to.\n  function mintBull(address _owner, uint8 _rarity, uint8 _breed) external onlyMintable {\n    require(_owner != address(0), \"Owner must be non-zero address\");\n    IBullNFT bullContract = IBullNFT(address(bullNftCollAddr));\n    bullContract.mint(_rarity, _breed, _owner);\n  }\n\n  // Get Land NFT Collection address.\n  function landNftColl() public view returns (address) {\n    return landNftCollAddr;\n  }\n\n  // Set Land NFT Collection address.\n  function setLandNftColl(address _addr) public onlyOwner {\n    require(_addr != address(0), \"landNftCollAddr must be non-zero address\");\n    landNftCollAddr = _addr;\n  }\n\n  // Get Cow NFT Collection address.\n  function cowNftColl() public view returns (address) {\n    return cowNftCollAddr;\n  }\n\n  // Set Cow NFT Collection address.\n  function setCowNftColl(address _addr) public onlyOwner {\n    require(_addr != address(0), \"cowNftCollAddr must be non-zero address\");\n    cowNftCollAddr = _addr;\n  }\n\n  // Get Bull NFT Collection address.\n  function bullNftColl() public view returns (address) {\n    return bullNftCollAddr;\n  }\n\n  // Set Bull NFT Collection address.\n  function setBullNftColl(address _addr) public onlyOwner {\n    require(_addr != address(0), \"bullNftCollAddr must be non-zero address\");\n    bullNftCollAddr = _addr;\n  }\n\n  function setMintable(address _addr) public override onlyOwner {\n    require(_addr != address(0), \"Mintable must be non-zero address\");\n    mintable[_addr] = true;\n  }\n  function burnBull(uint256 _tokenId) external {\n    IBullNFT bullContract = IBullNFT(address(bullNftCollAddr));\n    bullContract.burn(_tokenId);\n  }\n\n\n  function burnCow(uint256 _tokenId) external {\n    ICowNFT cowContract = ICowNFT(address(cowNftCollAddr));\n    cowContract.burn(_tokenId);\n  }\n}\n",
  "sourcePath": "C:\\Users\\Administrator\\Documents\\Adam\\game-contracts\\contracts\\NftMinter.sol",
  "compiler": {
    "name": "solc",
    "version": "0.8.12+commit.f00d7308.Emscripten.clang"
  },
  "schemaVersion": "3.4.6",
  "updatedAt": "2022-05-12T17:39:23.871Z",
  "networkType": "ethereum",
  "devdoc": {
    "kind": "dev",
    "methods": {
      "owner()": {
        "details": "Returns the address of the current owner."
      },
      "renounceOwnership()": {
        "details": "Leaves the contract without owner. It will not be possible to call `onlyOwner` functions anymore. Can only be called by the current owner. NOTE: Renouncing ownership will leave the contract without an owner, thereby removing any functionality that is only available to the owner."
      },
      "transferOwnership(address)": {
        "details": "Transfers ownership of the contract to a new account (`newOwner`). Can only be called by the current owner."
      }
    },
    "version": 1
  },
  "userdoc": {
    "kind": "user",
    "methods": {},
    "version": 1
  }
}