{
  "contractName": "NftMinter",
  "abi": [
    {
      "anonymous": false,
      "inputs": [
        {
          "indexed": true,
          "internalType": "address",
          "name": "newMintable",
          "type": "address"
        }
      ],
      "name": "MintableSet",
      "type": "event"
    },
    {
      "anonymous": false,
      "inputs": [
        {
          "indexed": true,
          "internalType": "address",
          "name": "previousOwner",
          "type": "address"
        },
        {
          "indexed": true,
          "internalType": "address",
          "name": "newOwner",
          "type": "address"
        }
      ],
      "name": "OwnershipTransferred",
      "type": "event"
    },
    {
      "inputs": [
        {
          "internalType": "address",
          "name": "addr",
          "type": "address"
        }
      ],
      "name": "isMintable",
      "outputs": [
        {
          "internalType": "bool",
          "name": "",
          "type": "bool"
        }
      ],
      "stateMutability": "view",
      "type": "function"
    },
    {
      "inputs": [
        {
          "internalType": "address",
          "name": "",
          "type": "address"
        }
      ],
      "name": "mintable",
      "outputs": [
        {
          "internalType": "bool",
          "name": "",
          "type": "bool"
        }
      ],
      "stateMutability": "view",
      "type": "function"
    },
    {
      "inputs": [],
      "name": "owner",
      "outputs": [
        {
          "internalType": "address",
          "name": "",
          "type": "address"
        }
      ],
      "stateMutability": "view",
      "type": "function"
    },
    {
      "inputs": [],
      "name": "renounceOwnership",
      "outputs": [],
      "stateMutability": "nonpayable",
      "type": "function"
    },
    {
      "inputs": [
        {
          "internalType": "address",
          "name": "newOwner",
          "type": "address"
        }
      ],
      "name": "transferOwnership",
      "outputs": [],
      "stateMutability": "nonpayable",
      "type": "function"
    },
    {
      "inputs": [
        {
          "internalType": "address",
          "name": "_landCollAddr",
          "type": "address"
        },
        {
          "internalType": "address",
          "name": "_cowCollAddr",
          "type": "address"
        },
        {
          "internalType": "address",
          "name": "_bullCollAddr",
          "type": "address"
        }
      ],
      "name": "initialize",
      "outputs": [],
      "stateMutability": "nonpayable",
      "type": "function"
    },
    {
      "inputs": [
        {
          "internalType": "address",
          "name": "_owner",
          "type": "address"
        },
        {
          "internalType": "uint8",
          "name": "_rarity",
          "type": "uint8"
        },
        {
          "internalType": "uint8",
          "name": "_type",
          "type": "uint8"
        }
      ],
      "name": "mintLand",
      "outputs": [],
      "stateMutability": "nonpayable",
      "type": "function"
    },
    {
      "inputs": [
        {
          "internalType": "address",
          "name": "_owner",
          "type": "address"
        },
        {
          "internalType": "uint8",
          "name": "_rarity",
          "type": "uint8"
        },
        {
          "internalType": "uint8",
          "name": "_breed",
          "type": "uint8"
        }
      ],
      "name": "mintCow",
      "outputs": [],
      "stateMutability": "nonpayable",
      "type": "function"
    },
    {
      "inputs": [
        {
          "internalType": "address",
          "name": "_owner",
          "type": "address"
        },
        {
          "internalType": "uint8",
          "name": "_rarity",
          "type": "uint8"
        },
        {
          "internalType": "uint8",
          "name": "_breed",
          "type": "uint8"
        }
      ],
      "name": "mintBull",
      "outputs": [],
      "stateMutability": "nonpayable",
      "type": "function"
    },
    {
      "inputs": [],
      "name": "landNftColl",
      "outputs": [
        {
          "internalType": "address",
          "name": "",
          "type": "address"
        }
      ],
      "stateMutability": "view",
      "type": "function"
    },
    {
      "inputs": [
        {
          "internalType": "address",
          "name": "_addr",
          "type": "address"
        }
      ],
      "name": "setLandNftColl",
      "outputs": [],
      "stateMutability": "nonpayable",
      "type": "function"
    },
    {
      "inputs": [],
      "name": "cowNftColl",
      "outputs": [
        {
          "internalType": "address",
          "name": "",
          "type": "address"
        }
      ],
      "stateMutability": "view",
      "type": "function"
    },
    {
      "inputs": [
        {
          "internalType": "address",
          "name": "_addr",
          "type": "address"
        }
      ],
      "name": "setCowNftColl",
      "outputs": [],
      "stateMutability": "nonpayable",
      "type": "function"
    },
    {
      "inputs": [],
      "name": "bullNftColl",
      "outputs": [
        {
          "internalType": "address",
          "name": "",
          "type": "address"
        }
      ],
      "stateMutability": "view",
      "type": "function"
    },
    {
      "inputs": [
        {
          "internalType": "address",
          "name": "_addr",
          "type": "address"
        }
      ],
      "name": "setBullNftColl",
      "outputs": [],
      "stateMutability": "nonpayable",
      "type": "function"
    },
    {
      "inputs": [
        {
          "internalType": "address",
          "name": "_addr",
          "type": "address"
        }
      ],
      "name": "setMintable",
      "outputs": [],
      "stateMutability": "nonpayable",
      "type": "function"
    }
  ],
  "bytecode": "0x608060405234801561001057600080fd5b50600160008190555061003561002a61003a60201b60201c565b61004260201b60201c565b610108565b600033905090565b6000600160009054906101000a900473ffffffffffffffffffffffffffffffffffffffff16905081600160006101000a81548173ffffffffffffffffffffffffffffffffffffffff021916908373ffffffffffffffffffffffffffffffffffffffff1602179055508173ffffffffffffffffffffffffffffffffffffffff168173ffffffffffffffffffffffffffffffffffffffff167f8be0079c531659141344cd1fd0a4f28419497f9722a3daafe3b4186f6b6457e060405160405180910390a35050565b611ac7806101176000396000f3fe608060405234801561001057600080fd5b50600436106101005760003560e01c8063715018a6116100975780639e168667116100665780639e16866714610273578063c0c53b8b1461028f578063e150fd50146102ab578063f2fde38b146102c757610100565b8063715018a6146102115780638da5cb5b1461021b5780638ea8597914610239578063970844451461025557610100565b8063452cbe7e116100d3578063452cbe7e1461018b578063549a1ab2146101a7578063571dc7b8146101c557806359441eae146101e157610100565b8063222b15fb146101055780632c0417da146101355780632e87f9c81461015157806341fd43f91461016f575b600080fd5b61011f600480360381019061011a91906112fa565b6102e3565b60405161012c9190611342565b60405180910390f35b61014f600480360381019061014a91906112fa565b610339565b005b610159610469565b604051610166919061136c565b60405180910390f35b610189600480360381019061018491906112fa565b610493565b005b6101a560048036038101906101a091906112fa565b6105c3565b005b6101af6106f3565b6040516101bc919061136c565b60405180910390f35b6101df60048036038101906101da91906113c0565b61071d565b005b6101fb60048036038101906101f691906112fa565b6108bc565b6040516102089190611342565b60405180910390f35b6102196108dc565b005b610223610964565b604051610230919061136c565b60405180910390f35b610253600480360381019061024e91906112fa565b61098e565b005b61025d610ad5565b60405161026a919061136c565b60405180910390f35b61028d600480360381019061028891906113c0565b610aff565b005b6102a960048036038101906102a49190611413565b610c9e565b005b6102c560048036038101906102c091906113c0565b610f32565b005b6102e160048036038101906102dc91906112fa565b6110d1565b005b6000600260008373ffffffffffffffffffffffffffffffffffffffff1673ffffffffffffffffffffffffffffffffffffffff16815260200190815260200160002060009054906101000a900460ff169050919050565b6103416111c9565b73ffffffffffffffffffffffffffffffffffffffff1661035f610964565b73ffffffffffffffffffffffffffffffffffffffff16146103b5576040517f08c379a00000000000000000000000000000000000000000000000000000000081526004016103ac906114c3565b60405180910390fd5b600073ffffffffffffffffffffffffffffffffffffffff168173ffffffffffffffffffffffffffffffffffffffff161415610425576040517f08c379a000000000000000000000000000000000000000000000000000000000815260040161041c90611555565b60405180910390fd5b80600560006101000a81548173ffffffffffffffffffffffffffffffffffffffff021916908373ffffffffffffffffffffffffffffffffffffffff16021790555050565b6000600360009054906101000a900473ffffffffffffffffffffffffffffffffffffffff16905090565b61049b6111c9565b73ffffffffffffffffffffffffffffffffffffffff166104b9610964565b73ffffffffffffffffffffffffffffffffffffffff161461050f576040517f08c379a0000000000000000000000000000000000000000000000000000000008152600401610506906114c3565b60405180910390fd5b600073ffffffffffffffffffffffffffffffffffffffff168173ffffffffffffffffffffffffffffffffffffffff16141561057f576040517f08c379a0000000000000000000000000000000000000000000000000000000008152600401610576906115e7565b60405180910390fd5b80600460006101000a81548173ffffffffffffffffffffffffffffffffffffffff021916908373ffffffffffffffffffffffffffffffffffffffff16021790555050565b6105cb6111c9565b73ffffffffffffffffffffffffffffffffffffffff166105e9610964565b73ffffffffffffffffffffffffffffffffffffffff161461063f576040517f08c379a0000000000000000000000000000000000000000000000000000000008152600401610636906114c3565b60405180910390fd5b600073ffffffffffffffffffffffffffffffffffffffff168173ffffffffffffffffffffffffffffffffffffffff1614156106af576040517f08c379a00000000000000000000000000000000000000000000000000000000081526004016106a690611679565b60405180910390fd5b80600360006101000a81548173ffffffffffffffffffffffffffffffffffffffff021916908373ffffffffffffffffffffffffffffffffffffffff16021790555050565b6000600560009054906101000a900473ffffffffffffffffffffffffffffffffffffffff16905090565b60011515600260003373ffffffffffffffffffffffffffffffffffffffff1673ffffffffffffffffffffffffffffffffffffffff16815260200190815260200160002060009054906101000a900460ff161515146107b0576040517f08c379a00000000000000000000000000000000000000000000000000000000081526004016107a7906116e5565b60405180910390fd5b600073ffffffffffffffffffffffffffffffffffffffff168373ffffffffffffffffffffffffffffffffffffffff161415610820576040517f08c379a000000000000000000000000000000000000000000000000000000000815260040161081790611751565b60405180910390fd5b6000600460009054906101000a900473ffffffffffffffffffffffffffffffffffffffff1690508073ffffffffffffffffffffffffffffffffffffffff1663d20e48748484876040518463ffffffff1660e01b815260040161088493929190611780565b600060405180830381600087803b15801561089e57600080fd5b505af11580156108b2573d6000803e3d6000fd5b5050505050505050565b60026020528060005260406000206000915054906101000a900460ff1681565b6108e46111c9565b73ffffffffffffffffffffffffffffffffffffffff16610902610964565b73ffffffffffffffffffffffffffffffffffffffff1614610958576040517f08c379a000000000000000000000000000000000000000000000000000000000815260040161094f906114c3565b60405180910390fd5b61096260006111d1565b565b6000600160009054906101000a900473ffffffffffffffffffffffffffffffffffffffff16905090565b6109966111c9565b73ffffffffffffffffffffffffffffffffffffffff166109b4610964565b73ffffffffffffffffffffffffffffffffffffffff1614610a0a576040517f08c379a0000000000000000000000000000000000000000000000000000000008152600401610a01906114c3565b60405180910390fd5b600073ffffffffffffffffffffffffffffffffffffffff168173ffffffffffffffffffffffffffffffffffffffff161415610a7a576040517f08c379a0000000000000000000000000000000000000000000000000000000008152600401610a7190611829565b60405180910390fd5b6001600260008373ffffffffffffffffffffffffffffffffffffffff1673ffffffffffffffffffffffffffffffffffffffff16815260200190815260200160002060006101000a81548160ff02191690831515021790555050565b6000600460009054906101000a900473ffffffffffffffffffffffffffffffffffffffff16905090565b60011515600260003373ffffffffffffffffffffffffffffffffffffffff1673ffffffffffffffffffffffffffffffffffffffff16815260200190815260200160002060009054906101000a900460ff16151514610b92576040517f08c379a0000000000000000000000000000000000000000000000000000000008152600401610b89906116e5565b60405180910390fd5b600073ffffffffffffffffffffffffffffffffffffffff168373ffffffffffffffffffffffffffffffffffffffff161415610c02576040517f08c379a0000000000000000000000000000000000000000000000000000000008152600401610bf990611751565b60405180910390fd5b6000600560009054906101000a900473ffffffffffffffffffffffffffffffffffffffff1690508073ffffffffffffffffffffffffffffffffffffffff1663d20e48748484876040518463ffffffff1660e01b8152600401610c6693929190611780565b600060405180830381600087803b158015610c8057600080fd5b505af1158015610c94573d6000803e3d6000fd5b5050505050505050565b610ca66111c9565b73ffffffffffffffffffffffffffffffffffffffff16610cc4610964565b73ffffffffffffffffffffffffffffffffffffffff1614610d1a576040517f08c379a0000000000000000000000000000000000000000000000000000000008152600401610d11906114c3565b60405180910390fd5b600073ffffffffffffffffffffffffffffffffffffffff168273ffffffffffffffffffffffffffffffffffffffff161415610d8a576040517f08c379a0000000000000000000000000000000000000000000000000000000008152600401610d81906118bb565b60405180910390fd5b600073ffffffffffffffffffffffffffffffffffffffff168173ffffffffffffffffffffffffffffffffffffffff161415610dfa576040517f08c379a0000000000000000000000000000000000000000000000000000000008152600401610df19061194d565b60405180910390fd5b600073ffffffffffffffffffffffffffffffffffffffff168373ffffffffffffffffffffffffffffffffffffffff161415610e6a576040517f08c379a0000000000000000000000000000000000000000000000000000000008152600401610e61906119df565b60405180910390fd5b81600460006101000a81548173ffffffffffffffffffffffffffffffffffffffff021916908373ffffffffffffffffffffffffffffffffffffffff16021790555080600560006101000a81548173ffffffffffffffffffffffffffffffffffffffff021916908373ffffffffffffffffffffffffffffffffffffffff16021790555082600360006101000a81548173ffffffffffffffffffffffffffffffffffffffff021916908373ffffffffffffffffffffffffffffffffffffffff160217905550505050565b60011515600260003373ffffffffffffffffffffffffffffffffffffffff1673ffffffffffffffffffffffffffffffffffffffff16815260200190815260200160002060009054906101000a900460ff16151514610fc5576040517f08c379a0000000000000000000000000000000000000000000000000000000008152600401610fbc906116e5565b60405180910390fd5b600073ffffffffffffffffffffffffffffffffffffffff168373ffffffffffffffffffffffffffffffffffffffff161415611035576040517f08c379a000000000000000000000000000000000000000000000000000000000815260040161102c90611751565b60405180910390fd5b6000600360009054906101000a900473ffffffffffffffffffffffffffffffffffffffff1690508073ffffffffffffffffffffffffffffffffffffffff1663d20e48748484876040518463ffffffff1660e01b815260040161109993929190611780565b600060405180830381600087803b1580156110b357600080fd5b505af11580156110c7573d6000803e3d6000fd5b5050505050505050565b6110d96111c9565b73ffffffffffffffffffffffffffffffffffffffff166110f7610964565b73ffffffffffffffffffffffffffffffffffffffff161461114d576040517f08c379a0000000000000000000000000000000000000000000000000000000008152600401611144906114c3565b60405180910390fd5b600073ffffffffffffffffffffffffffffffffffffffff168173ffffffffffffffffffffffffffffffffffffffff1614156111bd576040517f08c379a00000000000000000000000000000000000000000000000000000000081526004016111b490611a71565b60405180910390fd5b6111c6816111d1565b50565b600033905090565b6000600160009054906101000a900473ffffffffffffffffffffffffffffffffffffffff16905081600160006101000a81548173ffffffffffffffffffffffffffffffffffffffff021916908373ffffffffffffffffffffffffffffffffffffffff1602179055508173ffffffffffffffffffffffffffffffffffffffff168173ffffffffffffffffffffffffffffffffffffffff167f8be0079c531659141344cd1fd0a4f28419497f9722a3daafe3b4186f6b6457e060405160405180910390a35050565b600080fd5b600073ffffffffffffffffffffffffffffffffffffffff82169050919050565b60006112c78261129c565b9050919050565b6112d7816112bc565b81146112e257600080fd5b50565b6000813590506112f4816112ce565b92915050565b6000602082840312156113105761130f611297565b5b600061131e848285016112e5565b91505092915050565b60008115159050919050565b61133c81611327565b82525050565b60006020820190506113576000830184611333565b92915050565b611366816112bc565b82525050565b6000602082019050611381600083018461135d565b92915050565b600060ff82169050919050565b61139d81611387565b81146113a857600080fd5b50565b6000813590506113ba81611394565b92915050565b6000806000606084860312156113d9576113d8611297565b5b60006113e7868287016112e5565b93505060206113f8868287016113ab565b9250506040611409868287016113ab565b9150509250925092565b60008060006060848603121561142c5761142b611297565b5b600061143a868287016112e5565b935050602061144b868287016112e5565b925050604061145c868287016112e5565b9150509250925092565b600082825260208201905092915050565b7f4f776e61626c653a2063616c6c6572206973206e6f7420746865206f776e6572600082015250565b60006114ad602083611466565b91506114b882611477565b602082019050919050565b600060208201905081810360008301526114dc816114a0565b9050919050565b7f62756c6c4e6674436f6c6c41646472206d757374206265206e6f6e2d7a65726f60008201527f2061646472657373000000000000000000000000000000000000000000000000602082015250565b600061153f602883611466565b915061154a826114e3565b604082019050919050565b6000602082019050818103600083015261156e81611532565b9050919050565b7f636f774e6674436f6c6c41646472206d757374206265206e6f6e2d7a65726f2060008201527f6164647265737300000000000000000000000000000000000000000000000000602082015250565b60006115d1602783611466565b91506115dc82611575565b604082019050919050565b60006020820190508181036000830152611600816115c4565b9050919050565b7f6c616e644e6674436f6c6c41646472206d757374206265206e6f6e2d7a65726f60008201527f2061646472657373000000000000000000000000000000000000000000000000602082015250565b6000611663602883611466565b915061166e82611607565b604082019050919050565b6000602082019050818103600083015261169281611656565b9050919050565b7f4e6f74206d696e7461626c650000000000000000000000000000000000000000600082015250565b60006116cf600c83611466565b91506116da82611699565b602082019050919050565b600060208201905081810360008301526116fe816116c2565b9050919050565b7f4f776e6572206d757374206265206e6f6e2d7a65726f20616464726573730000600082015250565b600061173b601e83611466565b915061174682611705565b602082019050919050565b6000602082019050818103600083015261176a8161172e565b9050919050565b61177a81611387565b82525050565b60006060820190506117956000830186611771565b6117a26020830185611771565b6117af604083018461135d565b949350505050565b7f4d696e7461626c65206d757374206265206e6f6e2d7a65726f2061646472657360008201527f7300000000000000000000000000000000000000000000000000000000000000602082015250565b6000611813602183611466565b915061181e826117b7565b604082019050919050565b6000602082019050818103600083015261184281611806565b9050919050565b7f436f7720636f6c6c656374696f6e206d757374206265206e6f6e2d7a65726f2060008201527f6164647265737300000000000000000000000000000000000000000000000000602082015250565b60006118a5602783611466565b91506118b082611849565b604082019050919050565b600060208201905081810360008301526118d481611898565b9050919050565b7f42756c6c20636f6c6c656374696f6e206d757374206265206e6f6e2d7a65726f60008201527f2061646472657373000000000000000000000000000000000000000000000000602082015250565b6000611937602883611466565b9150611942826118db565b604082019050919050565b600060208201905081810360008301526119668161192a565b9050919050565b7f4c616e6420636f6c6c656374696f6e206d757374206265206e6f6e2d7a65726f60008201527f2061646472657373000000000000000000000000000000000000000000000000602082015250565b60006119c9602883611466565b91506119d48261196d565b604082019050919050565b600060208201905081810360008301526119f8816119bc565b9050919050565b7f4f776e61626c653a206e6577206f776e657220697320746865207a65726f206160008201527f6464726573730000000000000000000000000000000000000000000000000000602082015250565b6000611a5b602683611466565b9150611a66826119ff565b604082019050919050565b60006020820190508181036000830152611a8a81611a4e565b905091905056fea2646970667358221220b34b30a8ca42291a9fcc89fd5710b1da7d60abd875c99bcf3414dffe81b1871c64736f6c634300080c0033",
  "immutableReferences": {},
  "source": "// SPDX-License-Identifier: MIT\npragma solidity >=0.4.22 <0.9.0;\n\nimport \"@openzeppelin/contracts/security/ReentrancyGuard.sol\";\nimport \"@openzeppelin/contracts/access/Ownable.sol\";\nimport \"@openzeppelin/contracts/utils/math/SafeMath.sol\";\nimport \"@openzeppelin/contracts/token/ERC721/IERC721.sol\";\nimport \"./access/Mintable.sol\";\nimport \"./interfaces/ILandNFT.sol\";\nimport \"./interfaces/ICowNFT.sol\";\nimport \"./interfaces/IBullNFT.sol\";\nimport \"./interfaces/INftMinter.sol\";\n\ncontract NftMinter is INftMinter, ReentrancyGuard, Ownable, Mintable {\n\n  address private landNftCollAddr; // Land NFT Collection address\n  address private cowNftCollAddr; // Cow NFT Collection address\n  address private bullNftCollAddr; // Bull NFT Collection address\n\n  // Initialize contract. This is for Proxy functionality.\n  function initialize(address _landCollAddr, address _cowCollAddr, address _bullCollAddr) public onlyOwner {\n    require(_cowCollAddr != address(0), \"Cow collection must be non-zero address\");\n    require(_bullCollAddr != address(0), \"Bull collection must be non-zero address\");\n    require(_landCollAddr != address(0), \"Land collection must be non-zero address\");\n\n    cowNftCollAddr = _cowCollAddr;\n    bullNftCollAddr = _bullCollAddr;\n    landNftCollAddr = _landCollAddr;\n  }\n  \n  // Mint a Land NFT with rarity and type to.\n  function mintLand(address _owner, uint8 _rarity, uint8 _type) external onlyMintable {\n    require(_owner != address(0), \"Owner must be non-zero address\");\n    ILandNFT landContract = ILandNFT(address(landNftCollAddr));\n    landContract.mint(_rarity, _type, _owner);\n  }\n\n  // Mint a Cow NFT with rarity and breed to.\n  function mintCow(address _owner, uint8 _rarity, uint8 _breed) external onlyMintable {\n    require(_owner != address(0), \"Owner must be non-zero address\");\n    ICowNFT cowContract = ICowNFT(address(cowNftCollAddr));\n    cowContract.mint(_rarity, _breed, _owner);\n  }\n\n  // Mint a Bull NFT with rarity and breed to.\n  function mintBull(address _owner, uint8 _rarity, uint8 _breed) external onlyMintable {\n    require(_owner != address(0), \"Owner must be non-zero address\");\n    IBullNFT bullContract = IBullNFT(address(bullNftCollAddr));\n    bullContract.mint(_rarity, _breed, _owner);\n  }\n\n  // Get Land NFT Collection address.\n  function landNftColl() public view returns (address) {\n    return landNftCollAddr;\n  }\n\n  // Set Land NFT Collection address.\n  function setLandNftColl(address _addr) public onlyOwner {\n    require(_addr != address(0), \"landNftCollAddr must be non-zero address\");\n    landNftCollAddr = _addr;\n  }\n\n  // Get Cow NFT Collection address.\n  function cowNftColl() public view returns (address) {\n    return cowNftCollAddr;\n  }\n\n  // Set Cow NFT Collection address.\n  function setCowNftColl(address _addr) public onlyOwner {\n    require(_addr != address(0), \"cowNftCollAddr must be non-zero address\");\n    cowNftCollAddr = _addr;\n  }\n\n  // Get Bull NFT Collection address.\n  function bullNftColl() public view returns (address) {\n    return bullNftCollAddr;\n  }\n\n  // Set Bull NFT Collection address.\n  function setBullNftColl(address _addr) public onlyOwner {\n    require(_addr != address(0), \"bullNftCollAddr must be non-zero address\");\n    bullNftCollAddr = _addr;\n  }\n\n  function setMintable(address _addr) public override onlyOwner {\n    require(_addr != address(0), \"Mintable must be non-zero address\");\n    mintable[_addr] = true;\n  }\n}\n",
  "sourcePath": "D:\\Workspace\\Projects\\CashCow\\game-contracts\\contracts\\NftMinter.sol",
  "compiler": {
    "name": "solc",
    "version": "0.8.12+commit.f00d7308.Emscripten.clang"
  },
  "schemaVersion": "3.4.6",
  "updatedAt": "2022-04-10T19:25:52.225Z",
  "devdoc": {
    "kind": "dev",
    "methods": {
      "owner()": {
        "details": "Returns the address of the current owner."
      },
      "renounceOwnership()": {
        "details": "Leaves the contract without owner. It will not be possible to call `onlyOwner` functions anymore. Can only be called by the current owner. NOTE: Renouncing ownership will leave the contract without an owner, thereby removing any functionality that is only available to the owner."
      },
      "transferOwnership(address)": {
        "details": "Transfers ownership of the contract to a new account (`newOwner`). Can only be called by the current owner."
      }
    },
    "version": 1
  },
  "userdoc": {
    "kind": "user",
    "methods": {},
    "version": 1
  }
}