{
  "contractName": "Sale",
  "abi": [
    {
      "anonymous": false,
      "inputs": [
        {
          "indexed": false,
          "internalType": "address",
          "name": "owner",
          "type": "address"
        }
      ],
      "name": "BullBought",
      "type": "event"
    },
    {
      "anonymous": false,
      "inputs": [
        {
          "indexed": false,
          "internalType": "address",
          "name": "owner",
          "type": "address"
        }
      ],
      "name": "CommonPackBought",
      "type": "event"
    },
    {
      "anonymous": false,
      "inputs": [
        {
          "indexed": false,
          "internalType": "address",
          "name": "owner",
          "type": "address"
        }
      ],
      "name": "CowBought",
      "type": "event"
    },
    {
      "anonymous": false,
      "inputs": [
        {
          "indexed": false,
          "internalType": "address",
          "name": "owner",
          "type": "address"
        }
      ],
      "name": "FreeCommonPackClaimed",
      "type": "event"
    },
    {
      "anonymous": false,
      "inputs": [
        {
          "indexed": false,
          "internalType": "address",
          "name": "owner",
          "type": "address"
        }
      ],
      "name": "FreeUncommonPackClaimed",
      "type": "event"
    },
    {
      "anonymous": false,
      "inputs": [
        {
          "indexed": false,
          "internalType": "address",
          "name": "owner",
          "type": "address"
        }
      ],
      "name": "LandBought",
      "type": "event"
    },
    {
      "anonymous": false,
      "inputs": [
        {
          "indexed": true,
          "internalType": "address",
          "name": "previousOwner",
          "type": "address"
        },
        {
          "indexed": true,
          "internalType": "address",
          "name": "newOwner",
          "type": "address"
        }
      ],
      "name": "OwnershipTransferred",
      "type": "event"
    },
    {
      "anonymous": false,
      "inputs": [
        {
          "indexed": false,
          "internalType": "address",
          "name": "owner",
          "type": "address"
        }
      ],
      "name": "RarePackBought",
      "type": "event"
    },
    {
      "anonymous": false,
      "inputs": [
        {
          "indexed": false,
          "internalType": "address",
          "name": "owner",
          "type": "address"
        }
      ],
      "name": "UncommonPackBought",
      "type": "event"
    },
    {
      "inputs": [],
      "name": "bullPrice",
      "outputs": [
        {
          "internalType": "uint256",
          "name": "",
          "type": "uint256"
        }
      ],
      "stateMutability": "view",
      "type": "function"
    },
    {
      "inputs": [],
      "name": "cowPrice",
      "outputs": [
        {
          "internalType": "uint256",
          "name": "",
          "type": "uint256"
        }
      ],
      "stateMutability": "view",
      "type": "function"
    },
    {
      "inputs": [],
      "name": "landPrice",
      "outputs": [
        {
          "internalType": "uint256",
          "name": "",
          "type": "uint256"
        }
      ],
      "stateMutability": "view",
      "type": "function"
    },
    {
      "inputs": [
        {
          "internalType": "uint8",
          "name": "",
          "type": "uint8"
        },
        {
          "internalType": "uint8",
          "name": "",
          "type": "uint8"
        }
      ],
      "name": "landSupply",
      "outputs": [
        {
          "internalType": "uint256",
          "name": "",
          "type": "uint256"
        }
      ],
      "stateMutability": "view",
      "type": "function"
    },
    {
      "inputs": [],
      "name": "minter",
      "outputs": [
        {
          "internalType": "address",
          "name": "",
          "type": "address"
        }
      ],
      "stateMutability": "view",
      "type": "function"
    },
    {
      "inputs": [],
      "name": "owner",
      "outputs": [
        {
          "internalType": "address",
          "name": "",
          "type": "address"
        }
      ],
      "stateMutability": "view",
      "type": "function"
    },
    {
      "inputs": [
        {
          "internalType": "enum Constants.Rarity",
          "name": "",
          "type": "uint8"
        }
      ],
      "name": "packPrices",
      "outputs": [
        {
          "internalType": "uint256",
          "name": "",
          "type": "uint256"
        }
      ],
      "stateMutability": "view",
      "type": "function"
    },
    {
      "inputs": [],
      "name": "packSaleEnd",
      "outputs": [
        {
          "internalType": "uint256",
          "name": "",
          "type": "uint256"
        }
      ],
      "stateMutability": "view",
      "type": "function"
    },
    {
      "inputs": [],
      "name": "packSaleStart",
      "outputs": [
        {
          "internalType": "uint256",
          "name": "",
          "type": "uint256"
        }
      ],
      "stateMutability": "view",
      "type": "function"
    },
    {
      "inputs": [],
      "name": "renounceOwnership",
      "outputs": [],
      "stateMutability": "nonpayable",
      "type": "function"
    },
    {
      "inputs": [
        {
          "internalType": "address",
          "name": "newOwner",
          "type": "address"
        }
      ],
      "name": "transferOwnership",
      "outputs": [],
      "stateMutability": "nonpayable",
      "type": "function"
    },
    {
      "inputs": [
        {
          "internalType": "address",
          "name": "",
          "type": "address"
        },
        {
          "internalType": "uint8",
          "name": "",
          "type": "uint8"
        }
      ],
      "name": "whitelisted",
      "outputs": [
        {
          "internalType": "uint256",
          "name": "",
          "type": "uint256"
        }
      ],
      "stateMutability": "view",
      "type": "function"
    },
    {
      "inputs": [
        {
          "internalType": "address",
          "name": "_minter",
          "type": "address"
        }
      ],
      "name": "initialize",
      "outputs": [],
      "stateMutability": "nonpayable",
      "type": "function"
    },
    {
      "inputs": [],
      "name": "buyLand",
      "outputs": [],
      "stateMutability": "nonpayable",
      "type": "function"
    },
    {
      "inputs": [],
      "name": "buyCommonCow",
      "outputs": [],
      "stateMutability": "nonpayable",
      "type": "function"
    },
    {
      "inputs": [],
      "name": "buyCommonBull",
      "outputs": [],
      "stateMutability": "nonpayable",
      "type": "function"
    },
    {
      "inputs": [],
      "name": "buyCommonPack",
      "outputs": [],
      "stateMutability": "nonpayable",
      "type": "function"
    },
    {
      "inputs": [],
      "name": "buyUncommonPack",
      "outputs": [],
      "stateMutability": "nonpayable",
      "type": "function"
    },
    {
      "inputs": [],
      "name": "buyRarePack",
      "outputs": [],
      "stateMutability": "nonpayable",
      "type": "function"
    },
    {
      "inputs": [],
      "name": "getFreeCommonPack",
      "outputs": [],
      "stateMutability": "nonpayable",
      "type": "function"
    },
    {
      "inputs": [],
      "name": "getFreeUncommonPack",
      "outputs": [],
      "stateMutability": "nonpayable",
      "type": "function"
    },
    {
      "inputs": [
        {
          "internalType": "uint8",
          "name": "_community",
          "type": "uint8"
        },
        {
          "internalType": "address[]",
          "name": "_farmers",
          "type": "address[]"
        }
      ],
      "name": "whitelist",
      "outputs": [],
      "stateMutability": "nonpayable",
      "type": "function"
    },
    {
      "inputs": [
        {
          "internalType": "uint256",
          "name": "_price",
          "type": "uint256"
        }
      ],
      "name": "setLandPrice",
      "outputs": [],
      "stateMutability": "nonpayable",
      "type": "function"
    },
    {
      "inputs": [
        {
          "internalType": "uint256",
          "name": "_price",
          "type": "uint256"
        }
      ],
      "name": "setCowPrice",
      "outputs": [],
      "stateMutability": "nonpayable",
      "type": "function"
    },
    {
      "inputs": [
        {
          "internalType": "uint256",
          "name": "_price",
          "type": "uint256"
        }
      ],
      "name": "setBullPrice",
      "outputs": [],
      "stateMutability": "nonpayable",
      "type": "function"
    },
    {
      "inputs": [
        {
          "internalType": "uint256",
          "name": "_start",
          "type": "uint256"
        },
        {
          "internalType": "uint256",
          "name": "_end",
          "type": "uint256"
        }
      ],
      "name": "setPackSalePeriod",
      "outputs": [],
      "stateMutability": "nonpayable",
      "type": "function"
    },
    {
      "inputs": [
        {
          "internalType": "address",
          "name": "_newMinter",
          "type": "address"
        }
      ],
      "name": "setMinterContract",
      "outputs": [],
      "stateMutability": "nonpayable",
      "type": "function"
    },
    {
      "inputs": [],
      "name": "withdrawBusd",
      "outputs": [],
      "stateMutability": "nonpayable",
      "type": "function"
    }
  ],
  "bytecode": "0x60806040523480156200001157600080fd5b5062000032620000266200003f60201b60201c565b6200004760201b60201c565b600180819055506200010b565b600033905090565b60008060009054906101000a900473ffffffffffffffffffffffffffffffffffffffff169050816000806101000a81548173ffffffffffffffffffffffffffffffffffffffff021916908373ffffffffffffffffffffffffffffffffffffffff1602179055508173ffffffffffffffffffffffffffffffffffffffff168173ffffffffffffffffffffffffffffffffffffffff167f8be0079c531659141344cd1fd0a4f28419497f9722a3daafe3b4186f6b6457e060405160405180910390a35050565b614a18806200011b6000396000f3fe608060405234801561001057600080fd5b50600436106101c45760003560e01c80638da5cb5b116100f9578063d854670e11610097578063f2fde38b11610071578063f2fde38b1461040f578063f9857d8d1461042b578063fbaef3f614610447578063fc22c15c14610451576101c4565b8063d854670e146103cb578063e0d9e452146103d5578063e9407a82146103df576101c4565b8063c4d66de8116100d3578063c4d66de814610359578063caf3b0cc14610375578063d413a08a14610391578063d7543f741461039b576101c4565b80638da5cb5b146102ed578063b0e0d1d41461030b578063c1a17d2914610329576101c4565b8063469327dd1161016657806372edf0631161014057806372edf063146102b35780637401bb04146102bd5780637846392c146102c75780637e826813146102e3576101c4565b8063469327dd146102815780636e38f46c1461028b578063715018a6146102a9576101c4565b806322589b25116101a257806322589b251461022157806324e7a8771461022b5780632b7629a91461024957806338478ae714610265576101c4565b8063022565f1146101c957806307546172146101e55780631b006f1014610203575b600080fd5b6101e360048036038101906101de9190613cac565b61046f565b005b6101ed6104f5565b6040516101fa9190613d1a565b60405180910390f35b61020b61051b565b6040516102189190613d44565b60405180910390f35b610229610521565b005b61023361062c565b6040516102409190613d44565b60405180910390f35b610263600480360381019061025e9190613cac565b610632565b005b61027f600480360381019061027a9190613d8b565b6106b8565b005b6102896107e8565b005b610293610934565b6040516102a09190613d44565b60405180910390f35b6102b161093a565b005b6102bb6109c2565b005b6102c5610b58565b005b6102e160048036038101906102dc9190613db8565b610c63565b005b6102eb610d33565b005b6102f5610f5a565b6040516103029190613d1a565b60405180910390f35b610313610f83565b6040516103209190613d44565b60405180910390f35b610343600480360381019061033e9190613e31565b610f89565b6040516103509190613d44565b60405180910390f35b610373600480360381019061036e9190613d8b565b610fae565b005b61038f600480360381019061038a9190613cac565b6116ae565b005b610399611734565b005b6103b560048036038101906103b09190613e71565b61195b565b6040516103c29190613d44565b60405180910390f35b6103d3611980565b005b6103dd611ba4565b005b6103f960048036038101906103f49190613ed6565b611d89565b6040516104069190613d44565b60405180910390f35b61042960048036038101906104249190613d8b565b611da1565b005b6104456004803603810190610440919061405c565b611e99565b005b61044f612b7c565b005b610459612d61565b6040516104669190613d44565b60405180910390f35b610477612d67565b73ffffffffffffffffffffffffffffffffffffffff16610495610f5a565b73ffffffffffffffffffffffffffffffffffffffff16146104eb576040517f08c379a00000000000000000000000000000000000000000000000000000000081526004016104e290614115565b60405180910390fd5b8060068190555050565b600460009054906101000a900473ffffffffffffffffffffffffffffffffffffffff1681565b60085481565b6003544211610565576040517f08c379a000000000000000000000000000000000000000000000000000000000815260040161055c90614181565b60405180910390fd5b60006105716005612d6f565b905061057f33600854612daf565b6000600460009054906101000a900473ffffffffffffffffffffffffffffffffffffffff1690508073ffffffffffffffffffffffffffffffffffffffff16639e16866733600060048111156105d7576105d66141a1565b5b856040518463ffffffff1660e01b81526004016105f6939291906141df565b600060405180830381600087803b15801561061057600080fd5b505af1158015610624573d6000803e3d6000fd5b505050505050565b60075481565b61063a612d67565b73ffffffffffffffffffffffffffffffffffffffff16610658610f5a565b73ffffffffffffffffffffffffffffffffffffffff16146106ae576040517f08c379a00000000000000000000000000000000000000000000000000000000081526004016106a590614115565b60405180910390fd5b8060088190555050565b6106c0612d67565b73ffffffffffffffffffffffffffffffffffffffff166106de610f5a565b73ffffffffffffffffffffffffffffffffffffffff1614610734576040517f08c379a000000000000000000000000000000000000000000000000000000000815260040161072b90614115565b60405180910390fd5b600073ffffffffffffffffffffffffffffffffffffffff168173ffffffffffffffffffffffffffffffffffffffff1614156107a4576040517f08c379a000000000000000000000000000000000000000000000000000000000815260040161079b90614288565b60405180910390fd5b80600460006101000a81548173ffffffffffffffffffffffffffffffffffffffff021916908373ffffffffffffffffffffffffffffffffffffffff16021790555050565b600354421161082c576040517f08c379a000000000000000000000000000000000000000000000000000000000815260040161082390614181565b60405180910390fd5b6000610836612e48565b905060006108438261307b565b905061085133600654612daf565b6000600460009054906101000a900473ffffffffffffffffffffffffffffffffffffffff1690506001600a60008560ff1660ff16815260200190815260200160002060008460ff1660ff16815260200190815260200160002060008282546108b991906142d7565b925050819055508073ffffffffffffffffffffffffffffffffffffffff1663e150fd503385856040518463ffffffff1660e01b81526004016108fd939291906141df565b600060405180830381600087803b15801561091757600080fd5b505af115801561092b573d6000803e3d6000fd5b50505050505050565b60025481565b610942612d67565b73ffffffffffffffffffffffffffffffffffffffff16610960610f5a565b73ffffffffffffffffffffffffffffffffffffffff16146109b6576040517f08c379a00000000000000000000000000000000000000000000000000000000081526004016109ad90614115565b60405180910390fd5b6109c060006132b2565b565b6109ca612d67565b73ffffffffffffffffffffffffffffffffffffffff166109e8610f5a565b73ffffffffffffffffffffffffffffffffffffffff1614610a3e576040517f08c379a0000000000000000000000000000000000000000000000000000000008152600401610a3590614115565b60405180910390fd5b600073e509aa50277106f3b22782818f0468f62ed801ed905060008173ffffffffffffffffffffffffffffffffffffffff166370a08231306040518263ffffffff1660e01b8152600401610a929190613d1a565b602060405180830381865afa158015610aaf573d6000803e3d6000fd5b505050506040513d601f19601f82011682018060405250810190610ad39190614320565b90508173ffffffffffffffffffffffffffffffffffffffff1663a9059cbb33836040518363ffffffff1660e01b8152600401610b1092919061434d565b6020604051808303816000875af1158015610b2f573d6000803e3d6000fd5b505050506040513d601f19601f82011682018060405250810190610b5391906143ae565b505050565b6003544211610b9c576040517f08c379a0000000000000000000000000000000000000000000000000000000008152600401610b9390614181565b60405180910390fd5b6000610ba86005612d6f565b9050610bb633600754612daf565b6000600460009054906101000a900473ffffffffffffffffffffffffffffffffffffffff1690508073ffffffffffffffffffffffffffffffffffffffff1663571dc7b83360006004811115610c0e57610c0d6141a1565b5b856040518463ffffffff1660e01b8152600401610c2d939291906141df565b600060405180830381600087803b158015610c4757600080fd5b505af1158015610c5b573d6000803e3d6000fd5b505050505050565b610c6b612d67565b73ffffffffffffffffffffffffffffffffffffffff16610c89610f5a565b73ffffffffffffffffffffffffffffffffffffffff1614610cdf576040517f08c379a0000000000000000000000000000000000000000000000000000000008152600401610cd690614115565b60405180910390fd5b818111610d21576040517f08c379a0000000000000000000000000000000000000000000000000000000008152600401610d189061444d565b60405180910390fd5b81600281905550806003819055505050565b60016000600960003373ffffffffffffffffffffffffffffffffffffffff1673ffffffffffffffffffffffffffffffffffffffff16815260200190815260200160002060008360ff1660ff1681526020019081526020016000205411610dce576040517f08c379a0000000000000000000000000000000000000000000000000000000008152600401610dc5906144b9565b60405180910390fd5b6002544211610e12576040517f08c379a0000000000000000000000000000000000000000000000000000000008152600401610e0990614525565b60405180910390fd5b6003544210610e56576040517f08c379a0000000000000000000000000000000000000000000000000000000008152600401610e4d90614591565b60405180910390fd5b610e98336005600060016004811115610e7257610e716141a1565b5b6004811115610e8457610e836141a1565b5b815260200190815260200160002054612daf565b6001600960003373ffffffffffffffffffffffffffffffffffffffff1673ffffffffffffffffffffffffffffffffffffffff1681526020019081526020016000206000600160ff1681526020019081526020016000206000828254610efd91906142d7565b92505081905550610f2060016004811115610f1b57610f1a6141a1565b5b613376565b7f20a31eefa19dbcda4cc4667daa0fbb3ba684b02e73fb1587e0b4a99ba9375a2933604051610f4f9190613d1a565b60405180910390a150565b60008060009054906101000a900473ffffffffffffffffffffffffffffffffffffffff16905090565b60035481565b600a602052816000526040600020602052806000526040600020600091509150505481565b610fb6612d67565b73ffffffffffffffffffffffffffffffffffffffff16610fd4610f5a565b73ffffffffffffffffffffffffffffffffffffffff161461102a576040517f08c379a000000000000000000000000000000000000000000000000000000000815260040161102190614115565b60405180910390fd5b600073ffffffffffffffffffffffffffffffffffffffff168173ffffffffffffffffffffffffffffffffffffffff16141561109a576040517f08c379a000000000000000000000000000000000000000000000000000000000815260040161109190614288565b60405180910390fd5b678ac7230489e80000600560008060048111156110ba576110b96141a1565b5b60048111156110cc576110cb6141a1565b5b81526020019081526020016000208190555067d02ab486cedc000060056000600160048111156110ff576110fe6141a1565b5b6004811115611111576111106141a1565b5b8152602001908152602001600020819055506801a055690d9db800006005600060026004811115611145576111446141a1565b5b6004811115611157576111566141a1565b5b8152602001908152602001600020819055506802b5e3af16b1880000600681905550614268600a60008060ff16815260200190815260200160002060008060ff16815260200190815260200160002081905550614268600a60008060ff1681526020019081526020016000206000600160ff16815260200190815260200160002081905550614268600a60008060ff1681526020019081526020016000206000600260ff16815260200190815260200160002081905550614268600a60008060ff1681526020019081526020016000206000600360ff16815260200190815260200160002081905550614268600a60008060ff1681526020019081526020016000206000600460ff16815260200190815260200160002081905550611f40600a6000600160ff16815260200190815260200160002060008060ff16815260200190815260200160002081905550611f40600a6000600160ff1681526020019081526020016000206000600160ff16815260200190815260200160002081905550611f40600a6000600160ff1681526020019081526020016000206000600260ff16815260200190815260200160002081905550611f40600a6000600160ff1681526020019081526020016000206000600360ff16815260200190815260200160002081905550611f40600a6000600160ff1681526020019081526020016000206000600460ff16815260200190815260200160002081905550610fa0600a6000600260ff16815260200190815260200160002060008060ff16815260200190815260200160002081905550610fa0600a6000600260ff1681526020019081526020016000206000600160ff16815260200190815260200160002081905550610fa0600a6000600260ff1681526020019081526020016000206000600260ff16815260200190815260200160002081905550610fa0600a6000600260ff1681526020019081526020016000206000600360ff16815260200190815260200160002081905550610fa0600a6000600260ff1681526020019081526020016000206000600460ff168152602001908152602001600020819055506107d0600a6000600360ff16815260200190815260200160002060008060ff168152602001908152602001600020819055506107d0600a6000600360ff1681526020019081526020016000206000600160ff168152602001908152602001600020819055506107d0600a6000600360ff1681526020019081526020016000206000600260ff168152602001908152602001600020819055506107d0600a6000600360ff1681526020019081526020016000206000600360ff168152602001908152602001600020819055506107d0600a6000600360ff1681526020019081526020016000206000600460ff168152602001908152602001600020819055506103e8600a6000600460ff16815260200190815260200160002060008060ff168152602001908152602001600020819055506103e8600a6000600460ff1681526020019081526020016000206000600160ff168152602001908152602001600020819055506103e8600a6000600460ff1681526020019081526020016000206000600260ff168152602001908152602001600020819055506103e8600a6000600460ff1681526020019081526020016000206000600360ff168152602001908152602001600020819055506103e8600a6000600460ff1681526020019081526020016000206000600460ff1681526020019081526020016000208190555080600460006101000a81548173ffffffffffffffffffffffffffffffffffffffff021916908373ffffffffffffffffffffffffffffffffffffffff16021790555050565b6116b6612d67565b73ffffffffffffffffffffffffffffffffffffffff166116d4610f5a565b73ffffffffffffffffffffffffffffffffffffffff161461172a576040517f08c379a000000000000000000000000000000000000000000000000000000000815260040161172190614115565b60405180910390fd5b8060078190555050565b60026000600960003373ffffffffffffffffffffffffffffffffffffffff1673ffffffffffffffffffffffffffffffffffffffff16815260200190815260200160002060008360ff1660ff16815260200190815260200160002054116117cf576040517f08c379a00000000000000000000000000000000000000000000000000000000081526004016117c6906144b9565b60405180910390fd5b6002544211611813576040517f08c379a000000000000000000000000000000000000000000000000000000000815260040161180a90614525565b60405180910390fd5b6003544210611857576040517f08c379a000000000000000000000000000000000000000000000000000000000815260040161184e90614591565b60405180910390fd5b611899336005600060026004811115611873576118726141a1565b5b6004811115611885576118846141a1565b5b815260200190815260200160002054612daf565b6001600960003373ffffffffffffffffffffffffffffffffffffffff1673ffffffffffffffffffffffffffffffffffffffff1681526020019081526020016000206000600260ff16815260200190815260200160002060008282546118fe91906142d7565b925050819055506119216002600481111561191c5761191b6141a1565b5b613376565b7fb9dd5ab7d293c412f857c5953c0160a89273208eab7d258d0a86e43612e7b624336040516119509190613d1a565b60405180910390a150565b6009602052816000526040600020602052806000526040600020600091509150505481565b600080600960003373ffffffffffffffffffffffffffffffffffffffff1673ffffffffffffffffffffffffffffffffffffffff16815260200190815260200160002060008360ff1660ff1681526020019081526020016000205411611a1a576040517f08c379a0000000000000000000000000000000000000000000000000000000008152600401611a11906144b9565b60405180910390fd5b6002544211611a5e576040517f08c379a0000000000000000000000000000000000000000000000000000000008152600401611a5590614525565b60405180910390fd5b6003544210611aa2576040517f08c379a0000000000000000000000000000000000000000000000000000000008152600401611a9990614591565b60405180910390fd5b611ae33360056000806004811115611abd57611abc6141a1565b5b6004811115611acf57611ace6141a1565b5b815260200190815260200160002054612daf565b6001600960003373ffffffffffffffffffffffffffffffffffffffff1673ffffffffffffffffffffffffffffffffffffffff16815260200190815260200160002060008060ff1681526020019081526020016000206000828254611b4791906142d7565b92505081905550611b6a60006004811115611b6557611b646141a1565b5b613376565b7fae38dd7deb32e6919fe17a3f03e646682b5beb21742bb8510bf9f92c69800f2a33604051611b999190613d1a565b60405180910390a150565b60046000600960003373ffffffffffffffffffffffffffffffffffffffff1673ffffffffffffffffffffffffffffffffffffffff16815260200190815260200160002060008360ff1660ff1681526020019081526020016000205411611c3f576040517f08c379a0000000000000000000000000000000000000000000000000000000008152600401611c36906144b9565b60405180910390fd5b6002544211611c83576040517f08c379a0000000000000000000000000000000000000000000000000000000008152600401611c7a90614525565b60405180910390fd5b6003544210611cc7576040517f08c379a0000000000000000000000000000000000000000000000000000000008152600401611cbe90614591565b60405180910390fd5b6001600960003373ffffffffffffffffffffffffffffffffffffffff1673ffffffffffffffffffffffffffffffffffffffff1681526020019081526020016000206000600460ff1681526020019081526020016000206000828254611d2c91906142d7565b92505081905550611d4f60016004811115611d4a57611d496141a1565b5b613376565b7fb5ca8b4a097db351372b2b32d7852591943317ccebbbf7aa7aa9960645a0c20733604051611d7e9190613d1a565b60405180910390a150565b60056020528060005260406000206000915090505481565b611da9612d67565b73ffffffffffffffffffffffffffffffffffffffff16611dc7610f5a565b73ffffffffffffffffffffffffffffffffffffffff1614611e1d576040517f08c379a0000000000000000000000000000000000000000000000000000000008152600401611e1490614115565b60405180910390fd5b600073ffffffffffffffffffffffffffffffffffffffff168173ffffffffffffffffffffffffffffffffffffffff161415611e8d576040517f08c379a0000000000000000000000000000000000000000000000000000000008152600401611e8490614623565b60405180910390fd5b611e96816132b2565b50565b611ea1612d67565b73ffffffffffffffffffffffffffffffffffffffff16611ebf610f5a565b73ffffffffffffffffffffffffffffffffffffffff1614611f15576040517f08c379a0000000000000000000000000000000000000000000000000000000008152600401611f0c90614115565b60405180910390fd5b60068260ff1610611f5b576040517f08c379a0000000000000000000000000000000000000000000000000000000008152600401611f529061468f565b60405180910390fd5b60008260ff1614156120135760005b81518160ff16101561201157600160096000848460ff1681518110611f9257611f916146af565b5b602002602001015173ffffffffffffffffffffffffffffffffffffffff1673ffffffffffffffffffffffffffffffffffffffff16815260200190815260200160002060008060ff1681526020019081526020016000206000828254611ff791906146de565b92505081905550808061200990614734565b915050611f6a565b505b60018260ff1614156121545760005b81518160ff16101561215257600160096000848460ff168151811061204a576120496146af565b5b602002602001015173ffffffffffffffffffffffffffffffffffffffff1673ffffffffffffffffffffffffffffffffffffffff16815260200190815260200160002060008060ff16815260200190815260200160002060008282546120af91906146de565b92505081905550600160096000848460ff16815181106120d2576120d16146af565b5b602002602001015173ffffffffffffffffffffffffffffffffffffffff1673ffffffffffffffffffffffffffffffffffffffff1681526020019081526020016000206000600160ff168152602001908152602001600020600082825461213891906146de565b92505081905550808061214a90614734565b915050612022565b505b60028260ff16141561231e5760005b81518160ff16101561231c57600160096000848460ff168151811061218b5761218a6146af565b5b602002602001015173ffffffffffffffffffffffffffffffffffffffff1673ffffffffffffffffffffffffffffffffffffffff16815260200190815260200160002060008060ff16815260200190815260200160002060008282546121f091906146de565b92505081905550600160096000848460ff1681518110612213576122126146af565b5b602002602001015173ffffffffffffffffffffffffffffffffffffffff1673ffffffffffffffffffffffffffffffffffffffff1681526020019081526020016000206000600160ff168152602001908152602001600020600082825461227991906146de565b92505081905550600160096000848460ff168151811061229c5761229b6146af565b5b602002602001015173ffffffffffffffffffffffffffffffffffffffff1673ffffffffffffffffffffffffffffffffffffffff1681526020019081526020016000206000600260ff168152602001908152602001600020600082825461230291906146de565b92505081905550808061231490614734565b915050612163565b505b60038260ff1614156125715760005b81518160ff16101561256f57600160096000848460ff1681518110612355576123546146af565b5b602002602001015173ffffffffffffffffffffffffffffffffffffffff1673ffffffffffffffffffffffffffffffffffffffff16815260200190815260200160002060008060ff16815260200190815260200160002060008282546123ba91906146de565b92505081905550600160096000848460ff16815181106123dd576123dc6146af565b5b602002602001015173ffffffffffffffffffffffffffffffffffffffff1673ffffffffffffffffffffffffffffffffffffffff1681526020019081526020016000206000600160ff168152602001908152602001600020600082825461244391906146de565b92505081905550600160096000848460ff1681518110612466576124656146af565b5b602002602001015173ffffffffffffffffffffffffffffffffffffffff1673ffffffffffffffffffffffffffffffffffffffff1681526020019081526020016000206000600260ff16815260200190815260200160002060008282546124cc91906146de565b92505081905550600160096000848460ff16815181106124ef576124ee6146af565b5b602002602001015173ffffffffffffffffffffffffffffffffffffffff1673ffffffffffffffffffffffffffffffffffffffff1681526020019081526020016000206000600460ff168152602001908152602001600020600082825461255591906146de565b92505081905550808061256790614734565b91505061232d565b505b60048260ff1614156128765760005b81518160ff16101561287457600073091551a095f19133e3482ac91c4a5db438e94b79905060008173ffffffffffffffffffffffffffffffffffffffff166370a08231858560ff16815181106125d9576125d86146af565b5b60200260200101516040518263ffffffff1660e01b81526004016125fd9190613d1a565b602060405180830381865afa15801561261a573d6000803e3d6000fd5b505050506040513d601f19601f8201168201806040525081019061263e9190614320565b90508060096000868660ff168151811061265b5761265a6146af565b5b602002602001015173ffffffffffffffffffffffffffffffffffffffff1673ffffffffffffffffffffffffffffffffffffffff16815260200190815260200160002060008060ff16815260200190815260200160002060008282546126c091906146de565b925050819055508060096000868660ff16815181106126e2576126e16146af565b5b602002602001015173ffffffffffffffffffffffffffffffffffffffff1673ffffffffffffffffffffffffffffffffffffffff1681526020019081526020016000206000600160ff168152602001908152602001600020600082825461274891906146de565b925050819055508060096000868660ff168151811061276a576127696146af565b5b602002602001015173ffffffffffffffffffffffffffffffffffffffff1673ffffffffffffffffffffffffffffffffffffffff1681526020019081526020016000206000600260ff16815260200190815260200160002060008282546127d091906146de565b925050819055508060096000868660ff16815181106127f2576127f16146af565b5b602002602001015173ffffffffffffffffffffffffffffffffffffffff1673ffffffffffffffffffffffffffffffffffffffff1681526020019081526020016000206000600360ff168152602001908152602001600020600082825461285891906146de565b925050819055505050808061286c90614734565b915050612580565b505b60058260ff161415612b785760005b81518160ff161015612b765760006128b9838360ff16815181106128ac576128ab6146af565b5b602002602001015161359b565b90508060096000858560ff16815181106128d6576128d56146af565b5b602002602001015173ffffffffffffffffffffffffffffffffffffffff1673ffffffffffffffffffffffffffffffffffffffff16815260200190815260200160002060008060ff168152602001908152602001600020600082825461293b91906146de565b925050819055508060096000858560ff168151811061295d5761295c6146af565b5b602002602001015173ffffffffffffffffffffffffffffffffffffffff1673ffffffffffffffffffffffffffffffffffffffff1681526020019081526020016000206000600160ff16815260200190815260200160002060008282546129c391906146de565b925050819055508060096000858560ff16815181106129e5576129e46146af565b5b602002602001015173ffffffffffffffffffffffffffffffffffffffff1673ffffffffffffffffffffffffffffffffffffffff1681526020019081526020016000206000600260ff1681526020019081526020016000206000828254612a4b91906146de565b925050819055508060096000858560ff1681518110612a6d57612a6c6146af565b5b602002602001015173ffffffffffffffffffffffffffffffffffffffff1673ffffffffffffffffffffffffffffffffffffffff1681526020019081526020016000206000600360ff1681526020019081526020016000206000828254612ad391906146de565b925050819055508060096000858560ff1681518110612af557612af46146af565b5b602002602001015173ffffffffffffffffffffffffffffffffffffffff1673ffffffffffffffffffffffffffffffffffffffff1681526020019081526020016000206000600460ff1681526020019081526020016000206000828254612b5b91906146de565b92505081905550508080612b6e90614734565b915050612885565b505b5050565b60036000600960003373ffffffffffffffffffffffffffffffffffffffff1673ffffffffffffffffffffffffffffffffffffffff16815260200190815260200160002060008360ff1660ff1681526020019081526020016000205411612c17576040517f08c379a0000000000000000000000000000000000000000000000000000000008152600401612c0e906144b9565b60405180910390fd5b6002544211612c5b576040517f08c379a0000000000000000000000000000000000000000000000000000000008152600401612c5290614525565b60405180910390fd5b6003544210612c9f576040517f08c379a0000000000000000000000000000000000000000000000000000000008152600401612c9690614591565b60405180910390fd5b6001600960003373ffffffffffffffffffffffffffffffffffffffff1673ffffffffffffffffffffffffffffffffffffffff1681526020019081526020016000206000600360ff1681526020019081526020016000206000828254612d0491906142d7565b92505081905550612d2760006004811115612d2257612d216141a1565b5b613376565b7fba42ea16e972f44e97fcc90fcd46d87ebd004d4d690f1db02b2d0687f993e0e733604051612d569190613d1a565b60405180910390a150565b60065481565b600033905090565b6000814233604051602001612d859291906147c7565b6040516020818303038152906040528051906020012060001c612da89190614822565b9050919050565b73e509aa50277106f3b22782818f0468f62ed801ed73ffffffffffffffffffffffffffffffffffffffff166323b872dd8330846040518463ffffffff1660e01b8152600401612e0093929190614853565b6020604051808303816000875af1158015612e1f573d6000803e3d6000fd5b505050506040513d601f19601f82011682018060405250810190612e4391906143ae565b505050565b6000612e52613c40565b6000805b60058160ff161015612f40576000838260ff1660058110612e7a57612e796146af565b5b60200201818152505060005b60058160ff161015612f0457600a60008360ff1660ff16815260200190815260200160002060008260ff1660ff16815260200190815260200160002054848360ff1660058110612ed957612ed86146af565b5b60200201818151612eea91906146de565b915081815250508080612efc90614734565b915050612e86565b50828160ff1660058110612f1b57612f1a6146af565b5b602002015182612f2b91906146de565b91508080612f3890614734565b915050612e56565b506000612f4c82612d6f565b905082600060058110612f6257612f616146af565b5b6020020151811015612f7a5760009350505050613078565b82600060058110612f8e57612f8d6146af565b5b602002015181612f9e91906142d7565b905082600160058110612fb457612fb36146af565b5b6020020151811015612fcc5760019350505050613078565b82600160058110612fe057612fdf6146af565b5b602002015181612ff091906142d7565b905082600260058110613006576130056146af565b5b602002015181101561301e5760029350505050613078565b82600260058110613032576130316146af565b5b60200201518161304291906142d7565b905082600360058110613058576130576146af565b5b60200201518110156130705760039350505050613078565b600493505050505b90565b6000806000905060005b60058160ff1610156130e257600a60008560ff1660ff16815260200190815260200160002060008260ff1660ff16815260200190815260200160002054826130cd91906146de565b915080806130da90614734565b915050613085565b5060006130ee82612d6f565b9050600a60008560ff1660ff16815260200190815260200160002060008060ff16815260200190815260200160002054811015613130576000925050506132ad565b600a60008560ff1660ff16815260200190815260200160002060008060ff168152602001908152602001600020548161316991906142d7565b9050600a60008560ff1660ff1681526020019081526020016000206000600160ff168152602001908152602001600020548110156131ac576001925050506132ad565b600a60008560ff1660ff1681526020019081526020016000206000600160ff16815260200190815260200160002054816131e691906142d7565b9050600a60008560ff1660ff1681526020019081526020016000206000600260ff16815260200190815260200160002054811015613229576002925050506132ad565b600a60008560ff1660ff1681526020019081526020016000206000600260ff168152602001908152602001600020548161326391906142d7565b9050600a60008560ff1660ff1681526020019081526020016000206000600360ff168152602001908152602001600020548110156132a6576003925050506132ad565b6004925050505b919050565b60008060009054906101000a900473ffffffffffffffffffffffffffffffffffffffff169050816000806101000a81548173ffffffffffffffffffffffffffffffffffffffff021916908373ffffffffffffffffffffffffffffffffffffffff1602179055508173ffffffffffffffffffffffffffffffffffffffff168173ffffffffffffffffffffffffffffffffffffffff167f8be0079c531659141344cd1fd0a4f28419497f9722a3daafe3b4186f6b6457e060405160405180910390a35050565b6000600460009054906101000a900473ffffffffffffffffffffffffffffffffffffffff16905060006133a96005612d6f565b90506001600a60008560ff1660ff16815260200190815260200160002060008360ff1660ff16815260200190815260200160002060008282546133ec91906142d7565b925050819055508173ffffffffffffffffffffffffffffffffffffffff1663e150fd503385846040518463ffffffff1660e01b8152600401613430939291906141df565b600060405180830381600087803b15801561344a57600080fd5b505af115801561345e573d6000803e3d6000fd5b5050505060005b601481101561350b57600560038361347d919061488a565b61348791906148c1565b91508273ffffffffffffffffffffffffffffffffffffffff1663571dc7b83386856040518463ffffffff1660e01b81526004016134c6939291906141df565b600060405180830381600087803b1580156134e057600080fd5b505af11580156134f4573d6000803e3d6000fd5b505050508080613503906148f2565b915050613465565b50600560038261351b919061488a565b61352591906148c1565b90508173ffffffffffffffffffffffffffffffffffffffff16639e1686673385846040518463ffffffff1660e01b8152600401613564939291906141df565b600060405180830381600087803b15801561357e57600080fd5b505af1158015613592573d6000803e3d6000fd5b50505050505050565b60008060405180610c8001604052806201868062ffffff16815260200162027d0b62ffffff16815260200162027d0c62ffffff16815260200162027d0d62ffffff1681526020016202c54e62ffffff1681526020016202c54f62ffffff1681526020016202c55362ffffff1681526020016202c55562ffffff1681526020016202c55762ffffff1681526020016202c55962ffffff168152602001620318d362ffffff168152602001620318e462ffffff168152602001620318ec62ffffff168152602001620318ed62ffffff168152602001620318f362ffffff168152602001620318f962ffffff168152602001620318ff62ffffff1681526020016203190262ffffff1681526020016203190762ffffff1681526020016203190b62ffffff1681526020016203191062ffffff1681526020016203191262ffffff1681526020016203191662ffffff1681526020016203191862ffffff1681526020016203191b62ffffff1681526020016203192062ffffff1681526020016203192462ffffff1681526020016203192662ffffff1681526020016203192962ffffff1681526020016203192d62ffffff1681526020016203192f62ffffff1681526020016203193262ffffff1681526020016203193362ffffff1681526020016203193662ffffff1681526020016203193a62ffffff1681526020016203193e62ffffff1681526020016203194062ffffff1681526020016203194162ffffff1681526020016203194362ffffff1681526020016203194a62ffffff1681526020016203194c62ffffff1681526020016203195162ffffff1681526020016203195362ffffff1681526020016203195462ffffff1681526020016203195662ffffff1681526020016203195a62ffffff1681526020016203195d62ffffff1681526020016203196062ffffff1681526020016203196362ffffff1681526020016203196462ffffff1681526020016203196662ffffff1681526020016203196962ffffff1681526020016203196b62ffffff1681526020016203196e62ffffff1681526020016203197062ffffff1681526020016203197162ffffff1681526020016203197662ffffff1681526020016203197962ffffff1681526020016203197d62ffffff1681526020016203198062ffffff1681526020016203198262ffffff1681526020016203198462ffffff1681526020016203198862ffffff1681526020016203198a62ffffff1681526020016203198f62ffffff1681526020016203199062ffffff1681526020016203199362ffffff1681526020016203199462ffffff1681526020016203199662ffffff1681526020016203199862ffffff1681526020016203199b62ffffff1681526020016203199d62ffffff168152602001620319a062ffffff168152602001620319a462ffffff168152602001620319a662ffffff168152602001620319a962ffffff168152602001620319ab62ffffff168152602001620319ae62ffffff168152602001620319b162ffffff168152602001620319b262ffffff168152602001620319b462ffffff168152602001620319b562ffffff168152602001620319b962ffffff168152602001620319ba62ffffff168152602001620319bd62ffffff168152602001620319bf62ffffff168152602001620319c162ffffff168152602001620319c362ffffff168152602001620319c662ffffff168152602001620319c862ffffff168152602001620319c962ffffff168152602001620319cb62ffffff168152602001620319cd62ffffff168152602001620319d062ffffff168152602001620319d162ffffff168152602001620319d662ffffff168152602001620319d962ffffff168152602001620319dd62ffffff168152602001620319df62ffffff168152602001620319e362ffffff1681525090506000805b60648160ff161015613c355760007346d8a7a26336e43953b91e5fb198b15df8d0d9db90508573ffffffffffffffffffffffffffffffffffffffff168173ffffffffffffffffffffffffffffffffffffffff16636352211e868560ff1660648110613b9457613b936146af565b5b60200201516040518263ffffffff1660e01b8152600401613bb59190614985565b602060405180830381865afa158015613bd2573d6000803e3d6000fd5b505050506040513d601f19601f82011682018060405250810190613bf691906149b5565b73ffffffffffffffffffffffffffffffffffffffff161415613c21578280613c1d906148f2565b9350505b508080613c2d90614734565b915050613b26565b508092505050919050565b6040518060a00160405280600590602082028036833780820191505090505090565b6000604051905090565b600080fd5b600080fd5b6000819050919050565b613c8981613c76565b8114613c9457600080fd5b50565b600081359050613ca681613c80565b92915050565b600060208284031215613cc257613cc1613c6c565b5b6000613cd084828501613c97565b91505092915050565b600073ffffffffffffffffffffffffffffffffffffffff82169050919050565b6000613d0482613cd9565b9050919050565b613d1481613cf9565b82525050565b6000602082019050613d2f6000830184613d0b565b92915050565b613d3e81613c76565b82525050565b6000602082019050613d596000830184613d35565b92915050565b613d6881613cf9565b8114613d7357600080fd5b50565b600081359050613d8581613d5f565b92915050565b600060208284031215613da157613da0613c6c565b5b6000613daf84828501613d76565b91505092915050565b60008060408385031215613dcf57613dce613c6c565b5b6000613ddd85828601613c97565b9250506020613dee85828601613c97565b9150509250929050565b600060ff82169050919050565b613e0e81613df8565b8114613e1957600080fd5b50565b600081359050613e2b81613e05565b92915050565b60008060408385031215613e4857613e47613c6c565b5b6000613e5685828601613e1c565b9250506020613e6785828601613e1c565b9150509250929050565b60008060408385031215613e8857613e87613c6c565b5b6000613e9685828601613d76565b9250506020613ea785828601613e1c565b9150509250929050565b60058110613ebe57600080fd5b50565b600081359050613ed081613eb1565b92915050565b600060208284031215613eec57613eeb613c6c565b5b6000613efa84828501613ec1565b91505092915050565b600080fd5b6000601f19601f8301169050919050565b7f4e487b7100000000000000000000000000000000000000000000000000000000600052604160045260246000fd5b613f5182613f08565b810181811067ffffffffffffffff82111715613f7057613f6f613f19565b5b80604052505050565b6000613f83613c62565b9050613f8f8282613f48565b919050565b600067ffffffffffffffff821115613faf57613fae613f19565b5b602082029050602081019050919050565b600080fd5b6000613fd8613fd384613f94565b613f79565b90508083825260208201905060208402830185811115613ffb57613ffa613fc0565b5b835b8181101561402457806140108882613d76565b845260208401935050602081019050613ffd565b5050509392505050565b600082601f83011261404357614042613f03565b5b8135614053848260208601613fc5565b91505092915050565b6000806040838503121561407357614072613c6c565b5b600061408185828601613e1c565b925050602083013567ffffffffffffffff8111156140a2576140a1613c71565b5b6140ae8582860161402e565b9150509250929050565b600082825260208201905092915050565b7f4f776e61626c653a2063616c6c6572206973206e6f7420746865206f776e6572600082015250565b60006140ff6020836140b8565b915061410a826140c9565b602082019050919050565b6000602082019050818103600083015261412e816140f2565b9050919050565b7f5061636b2053616c65206973206e6f7420656e64656400000000000000000000600082015250565b600061416b6016836140b8565b915061417682614135565b602082019050919050565b6000602082019050818103600083015261419a8161415e565b9050919050565b7f4e487b7100000000000000000000000000000000000000000000000000000000600052602160045260246000fd5b6141d981613df8565b82525050565b60006060820190506141f46000830186613d0b565b61420160208301856141d0565b61420e60408301846141d0565b949350505050565b7f4d696e74657220636f6e7472616374206d757374206265206e6f6e2d7a65726f60008201527f2061646472657373000000000000000000000000000000000000000000000000602082015250565b60006142726028836140b8565b915061427d82614216565b604082019050919050565b600060208201905081810360008301526142a181614265565b9050919050565b7f4e487b7100000000000000000000000000000000000000000000000000000000600052601160045260246000fd5b60006142e282613c76565b91506142ed83613c76565b925082821015614300576142ff6142a8565b5b828203905092915050565b60008151905061431a81613c80565b92915050565b60006020828403121561433657614335613c6c565b5b60006143448482850161430b565b91505092915050565b60006040820190506143626000830185613d0b565b61436f6020830184613d35565b9392505050565b60008115159050919050565b61438b81614376565b811461439657600080fd5b50565b6000815190506143a881614382565b92915050565b6000602082840312156143c4576143c3613c6c565b5b60006143d284828501614399565b91505092915050565b7f53746172742074696d65206973206c6f776572207468616e20656e642074696d60008201527f6500000000000000000000000000000000000000000000000000000000000000602082015250565b60006144376021836140b8565b9150614442826143db565b604082019050919050565b600060208201905081810360008301526144668161442a565b9050919050565b7f4e6f742077686974656c697374656420666f72204e4654205061636b00000000600082015250565b60006144a3601c836140b8565b91506144ae8261446d565b602082019050919050565b600060208201905081810360008301526144d281614496565b9050919050565b7f5061636b2053616c65206973206e6f7420737461727465640000000000000000600082015250565b600061450f6018836140b8565b915061451a826144d9565b602082019050919050565b6000602082019050818103600083015261453e81614502565b9050919050565b7f5061636b2053616c6520656e6465640000000000000000000000000000000000600082015250565b600061457b600f836140b8565b915061458682614545565b602082019050919050565b600060208201905081810360008301526145aa8161456e565b9050919050565b7f4f776e61626c653a206e6577206f776e657220697320746865207a65726f206160008201527f6464726573730000000000000000000000000000000000000000000000000000602082015250565b600061460d6026836140b8565b9150614618826145b1565b604082019050919050565b6000602082019050818103600083015261463c81614600565b9050919050565b7f436f6d6d756e697479206964656e746966696572206d75737420626520307e35600082015250565b60006146796020836140b8565b915061468482614643565b602082019050919050565b600060208201905081810360008301526146a88161466c565b9050919050565b7f4e487b7100000000000000000000000000000000000000000000000000000000600052603260045260246000fd5b60006146e982613c76565b91506146f483613c76565b9250827fffffffffffffffffffffffffffffffffffffffffffffffffffffffffffffffff03821115614729576147286142a8565b5b828201905092915050565b600061473f82613df8565b915060ff821415614753576147526142a8565b5b600182019050919050565b6000819050919050565b61477961477482613c76565b61475e565b82525050565b60008160601b9050919050565b60006147978261477f565b9050919050565b60006147a98261478c565b9050919050565b6147c16147bc82613cf9565b61479e565b82525050565b60006147d38285614768565b6020820191506147e382846147b0565b6014820191508190509392505050565b7f4e487b7100000000000000000000000000000000000000000000000000000000600052601260045260246000fd5b600061482d82613c76565b915061483883613c76565b925082614848576148476147f3565b5b828206905092915050565b60006060820190506148686000830186613d0b565b6148756020830185613d0b565b6148826040830184613d35565b949350505050565b600061489582613df8565b91506148a083613df8565b92508260ff038211156148b6576148b56142a8565b5b828201905092915050565b60006148cc82613df8565b91506148d783613df8565b9250826148e7576148e66147f3565b5b828206905092915050565b60006148fd82613c76565b91507fffffffffffffffffffffffffffffffffffffffffffffffffffffffffffffffff8214156149305761492f6142a8565b5b600182019050919050565b600062ffffff82169050919050565b6000819050919050565b600061496f61496a6149658461493b565b61494a565b613c76565b9050919050565b61497f81614954565b82525050565b600060208201905061499a6000830184614976565b92915050565b6000815190506149af81613d5f565b92915050565b6000602082840312156149cb576149ca613c6c565b5b60006149d9848285016149a0565b9150509291505056fea26469706673582212209ebaf14485ea90b84876de7ba83f0ca2bb77505f6dcdcea60abe3976b65927ee64736f6c634300080c0033",
  "immutableReferences": {},
  "source": "// SPDX-License-Identifier: MIT\npragma solidity >=0.4.22 <0.9.0;\n\nimport \"@openzeppelin/contracts/token/ERC20/utils/SafeERC20.sol\";\nimport \"@openzeppelin/contracts/security/ReentrancyGuard.sol\";\nimport \"@openzeppelin/contracts/access/Ownable.sol\";\nimport \"@openzeppelin/contracts/utils/math/SafeMath.sol\";\nimport \"@openzeppelin/contracts/token/ERC721/IERC721.sol\";\nimport \"./Constants.sol\";\nimport \"./interfaces/INftMinter.sol\";\n\ncontract Sale is Ownable, ReentrancyGuard{\n  using SafeERC20 for IERC20;\n  using SafeMath for uint256;\n  \n  //address constant private BUSD_CONTRACT_ADDRESS = 0xe9e7CEA3DedcA5984780Bafc599bD69ADd087D56; // BUSD on mainnet\n  //address constant AIR_NFT_ADDRESS = 0xF5db804101d8600c26598A1Ba465166c33CdAA4b; // AirNfts on mainnet\n  //address constant HAPPY_COW_ADDRESS = 0xf470C4B8564B1069E34Eaf00B26e6892A5391d80; // HappyCow NFTs on mainnet\n\n  address constant BUSD_CONTRACT_ADDRESS = 0xe509AA50277106F3B22782818f0468F62ed801ed; // Fake BUSD on testnet, For TEST\n  address constant AIR_NFT_ADDRESS = 0x46D8A7a26336e43953B91e5fb198B15DF8D0d9Db; // Fake AirNfts on testnet, For TEST\n  address constant HAPPY_COW_ADDRESS = 0x091551a095f19133e3482Ac91c4A5dB438e94b79; // Fake HappyCow NFTs on testnet, For TEST\n  \n  \n\n  // Timestamp to start NFT Pack Sale\n  uint public packSaleStart;\n  // Timestamp to finish NFT Pack Sale\n  uint public packSaleEnd;\n\n  // NftMinter contract address\n  address public minter;\n\n  // Prices of NFT Packs by rarity\n  mapping(Constants.Rarity => uint) public packPrices;\n\n  // Price of Individual Land NFT (random rarity)\n  uint public landPrice;\n  // Price of Individual Cow NFT (Common rarity)\n  uint public cowPrice;\n  // Price of Individual Bull NFT (Common rarity)\n  uint public bullPrice;\n\n  //mapping(address => uint8) public whitelisted;\n  mapping(address => mapping(uint8 => uint)) public whitelisted;\n\n  // Supply of Land NFTs by rarity and type\n  // Total supply of Land NFTs is 160, 000\n  mapping(uint8 => mapping(uint8 => uint)) public landSupply;\n\n  event LandBought(address owner);\n  event CowBought(address owner);\n  event BullBought(address owner);\n  event CommonPackBought(address owner);\n  event UncommonPackBought(address owner);\n  event RarePackBought(address owner);\n  event FreeCommonPackClaimed(address owner);\n  event FreeUncommonPackClaimed(address owner);\n\n  modifier onlyWhitelisted(uint8 _option) {\n    require(whitelisted[msg.sender][_option] > 0, \"Not whitelisted for NFT Pack\");\n    _;\n  }\n\n  function initialize(address _minter) public onlyOwner {\n    require(_minter != address(0), \"Minter contract must be non-zero address\");\n\n    // Set NFT Pack prices to 10, 15, 30 BUSD.\n    packPrices[Constants.Rarity.COMMON] = 10*10**18;\n    packPrices[Constants.Rarity.UNCOMMON] = 15*10**18;\n    packPrices[Constants.Rarity.RARE] = 30*10**18;\n\n    landPrice = 50*10**18;\n\n    // Set total supply of Land by rarity and type\n    landSupply[0][0] = 17000;\n    landSupply[0][1] = 17000;\n    landSupply[0][2] = 17000;\n    landSupply[0][3] = 17000;\n    landSupply[0][4] = 17000;\n\n    landSupply[1][0] = 8000;\n    landSupply[1][1] = 8000;\n    landSupply[1][2] = 8000;\n    landSupply[1][3] = 8000;\n    landSupply[1][4] = 8000;\n\n    landSupply[2][0] = 4000;\n    landSupply[2][1] = 4000;\n    landSupply[2][2] = 4000;\n    landSupply[2][3] = 4000;\n    landSupply[2][4] = 4000;\n\n    landSupply[3][0] = 2000;\n    landSupply[3][1] = 2000;\n    landSupply[3][2] = 2000;\n    landSupply[3][3] = 2000;\n    landSupply[3][4] = 2000;\n\n    landSupply[4][0] = 1000;\n    landSupply[4][1] = 1000;\n    landSupply[4][2] = 1000;\n    landSupply[4][3] = 1000;\n    landSupply[4][4] = 1000;\n\n    minter = _minter;\n  }\n\n  function buyLand() public {\n    require(block.timestamp > packSaleEnd, \"Pack Sale is not ended\");\n\n    uint8 rarity = _rarityOfLandBySupply();\n    uint8 landType = _typeOfLandBySupply(rarity);\n\n    _pay(msg.sender, landPrice);\n    INftMinter minterContract = INftMinter(address(minter));\n    landSupply[rarity][landType] -= 1;\n    minterContract.mintLand(msg.sender, (uint8)(rarity), landType);\n  }\n\n  function buyCommonCow() public {\n    require(block.timestamp > packSaleEnd, \"Pack Sale is not ended\");\n\n    uint8 breed = (uint8)(_rand(5));\n    _pay(msg.sender, cowPrice);\n    INftMinter minterContract = INftMinter(address(minter));\n    minterContract.mintCow(msg.sender, (uint8)(Constants.Rarity.COMMON), breed);\n  }\n\n  function buyCommonBull() public {\n    require(block.timestamp > packSaleEnd, \"Pack Sale is not ended\");\n\n    uint8 breed = (uint8)(_rand(5));\n    _pay(msg.sender, bullPrice);\n    INftMinter minterContract = INftMinter(address(minter));\n    minterContract.mintBull(msg.sender, (uint8)(Constants.Rarity.COMMON), breed);\n  }\n\n  function buyCommonPack() public onlyWhitelisted(0) {\n    require(block.timestamp > packSaleStart, \"Pack Sale is not started\");\n    require(block.timestamp < packSaleEnd, \"Pack Sale ended\");\n\n    _pay(msg.sender, (packPrices[Constants.Rarity.COMMON]));\n    whitelisted[msg.sender][0] -= 1;\n    _mintNftPack((uint8)(Constants.Rarity.COMMON));\n\n    emit CommonPackBought(msg.sender);\n  }\n\n  function buyUncommonPack() public onlyWhitelisted(1) {\n    require(block.timestamp > packSaleStart, \"Pack Sale is not started\");\n    require(block.timestamp < packSaleEnd, \"Pack Sale ended\");\n\n    _pay(msg.sender, (packPrices[Constants.Rarity.UNCOMMON]));\n    whitelisted[msg.sender][1] -= 1;\n    _mintNftPack((uint8)(Constants.Rarity.UNCOMMON));\n\n    emit UncommonPackBought(msg.sender);\n  }\n\n  function buyRarePack() public onlyWhitelisted(2) {\n    require(block.timestamp > packSaleStart, \"Pack Sale is not started\");\n    require(block.timestamp < packSaleEnd, \"Pack Sale ended\");\n\n    _pay(msg.sender, (packPrices[Constants.Rarity.RARE]));\n    whitelisted[msg.sender][2] -= 1;\n    _mintNftPack((uint8)(Constants.Rarity.RARE));\n\n    emit RarePackBought(msg.sender);\n  }\n\n  function getFreeCommonPack() public onlyWhitelisted(3) {\n    require(block.timestamp > packSaleStart, \"Pack Sale is not started\");\n    require(block.timestamp < packSaleEnd, \"Pack Sale ended\");\n    whitelisted[msg.sender][3] -= 1;\n    _mintNftPack((uint8)(Constants.Rarity.COMMON));\n\n    emit FreeCommonPackClaimed(msg.sender);\n  }\n\n  function getFreeUncommonPack() public onlyWhitelisted(4) {\n    require(block.timestamp > packSaleStart, \"Pack Sale is not started\");\n    require(block.timestamp < packSaleEnd, \"Pack Sale ended\");\n    whitelisted[msg.sender][4] -= 1;\n    _mintNftPack((uint8)(Constants.Rarity.UNCOMMON));\n\n    emit FreeUncommonPackClaimed(msg.sender);\n  }\n\n  /*\n    _community values\n    0: Common members. Farmers hold 1 $COW or more\n    1: Uncommon members. Top 10k holders\n    2: Rare members. Top 1k holders\n    3: Legendary members. Top 100 holders.\n    4: HappyCow NFT holders.\n    5: Genesis NFT holders.\n  */\n\n  function whitelist(uint8 _community, address[] memory _farmers) public onlyOwner {\n    require(_community < 6, \"Community identifier must be 0~5\");\n\n    // Common members\n    if(_community == 0) {\n      for(uint8 idx = 0;idx < _farmers.length;idx ++) {\n        whitelisted[_farmers[idx]][0] += 1;\n      }\n    }\n\n    // Uncommon members\n    if(_community == 1) {\n      for(uint8 idx = 0;idx < _farmers.length;idx ++) {\n        whitelisted[_farmers[idx]][0] += 1;\n        whitelisted[_farmers[idx]][1] += 1;\n      }\n    }\n\n    // Rare members\n    if(_community == 2) {\n      for(uint8 idx = 0;idx < _farmers.length;idx ++) {\n        whitelisted[_farmers[idx]][0] += 1;\n        whitelisted[_farmers[idx]][1] += 1;\n        whitelisted[_farmers[idx]][2] += 1;\n      }\n    }\n\n    // Legendary members\n    if(_community == 3) {\n      for(uint8 idx = 0;idx < _farmers.length;idx ++) {\n        whitelisted[_farmers[idx]][0] += 1;\n        whitelisted[_farmers[idx]][1] += 1;\n        whitelisted[_farmers[idx]][2] += 1;\n        whitelisted[_farmers[idx]][4] += 1;\n      }\n    }\n\n    // HappyCow NFT holders\n    if(_community == 4) {\n      for(uint8 idx = 0;idx < _farmers.length;idx ++) {\n\n        IERC721 happyCowNft = IERC721(address(HAPPY_COW_ADDRESS));\n        uint nftAmount = happyCowNft.balanceOf(_farmers[idx]);\n        whitelisted[_farmers[idx]][0] += nftAmount;\n        whitelisted[_farmers[idx]][1] += nftAmount;\n        whitelisted[_farmers[idx]][2] += nftAmount;\n        whitelisted[_farmers[idx]][3] += nftAmount;\n      }\n    }\n\n    // Genesis NFT holders\n    if(_community == 5) {\n      for(uint8 idx = 0;idx < _farmers.length;idx ++) {\n        uint genesisAmount = _genesisAmountOf(_farmers[idx]);\n        whitelisted[_farmers[idx]][0] += genesisAmount;\n        whitelisted[_farmers[idx]][1] += genesisAmount;\n        whitelisted[_farmers[idx]][2] += genesisAmount;\n        whitelisted[_farmers[idx]][3] += genesisAmount;\n        whitelisted[_farmers[idx]][4] += genesisAmount;\n      }\n    }\n  }\n\n  function setLandPrice(uint _price) public onlyOwner {\n    landPrice = _price;\n  }\n\n  function setCowPrice(uint _price) public onlyOwner {\n    cowPrice = _price;\n  }\n\n  function setBullPrice(uint _price) public onlyOwner {\n    bullPrice = _price;\n  }\n\n  function setPackSalePeriod(uint _start, uint _end) public onlyOwner {\n    require(_end > _start, \"Start time is lower than end time\");\n    packSaleStart = _start;\n    packSaleEnd = _end;\n  }\n\n  function setMinterContract(address _newMinter) public onlyOwner{\n    require(_newMinter != address(0), \"Minter contract must be non-zero address\");\n    minter = _newMinter;\n  }\n\n  function withdrawBusd() public onlyOwner {\n    IERC20 payContract = IERC20(address(BUSD_CONTRACT_ADDRESS));\n    uint amountOf = payContract.balanceOf(address(this));\n    payContract.transfer(msg.sender, amountOf);\n  }\n\n  function _pay(address _farmer, uint _amount) private {\n    IERC20(address(BUSD_CONTRACT_ADDRESS)).transferFrom(_farmer, address(this), _amount);\n  }\n\n  function _mintNftPack(uint8 _rarity) private {\n    INftMinter minterContract = INftMinter(address(minter));\n    uint8 rand = (uint8)(_rand(5));\n    landSupply[_rarity][rand] -= 1;\n    minterContract.mintLand(msg.sender, _rarity, rand);\n    for(uint _idx = 0;_idx < 20;_idx ++){\n      rand = (rand + 3) % 5;\n      minterContract.mintCow(msg.sender, _rarity, rand);\n    }\n    rand = (rand + 3) % 5;\n    minterContract.mintBull(msg.sender, _rarity, rand);\n  }\n\n  /*\n    rand: Generate simplest random number by keccak, block.timestamp, msg.sender. Use your own risk.\n  */\n  function _rand(uint _modulus) internal view returns (uint) {\n    // randNonce ++; \n    // return uint(keccak256(abi.encodePacked(block.timestamp, msg.sender, randNonce))) % _modulus;\n\n    return uint(keccak256(abi.encodePacked(block.timestamp, msg.sender))) % _modulus;\n  }\n\n  function _rarityOfLandBySupply() internal view returns (uint8) {\n    uint[5] memory landSupplyByRarity;\n    uint totalLandSupply = 0;\n    for(uint8 idxOfRarity = 0; idxOfRarity < 5;idxOfRarity ++) {\n      landSupplyByRarity[idxOfRarity] = 0;\n      for(uint8 idxOfType = 0; idxOfType < 5; idxOfType ++) {\n        landSupplyByRarity[idxOfRarity] += landSupply[idxOfRarity][idxOfType];\n      }\n      totalLandSupply += landSupplyByRarity[idxOfRarity];\n    }\n\n    uint rand = _rand(totalLandSupply);\n    if(rand < landSupplyByRarity[0]) {\n      return 0;\n    }\n    rand -= landSupplyByRarity[0];\n    if(rand < landSupplyByRarity[1]) {\n      return 1;\n    }\n    rand -= landSupplyByRarity[1];\n    if(rand < landSupplyByRarity[2]) {\n      return 2;\n    }\n    rand -= landSupplyByRarity[2];\n    if(rand < landSupplyByRarity[3]) {\n      return 3;\n    }\n    return 4;\n  }\n\n  function _typeOfLandBySupply(uint8 _rarity) internal view returns (uint8) {\n    uint landSupplyByRarity = 0;\n    for(uint8 idxOfType = 0; idxOfType < 5; idxOfType ++) {\n      landSupplyByRarity += landSupply[_rarity][idxOfType];\n    }\n\n    uint rand = _rand(landSupplyByRarity);\n    if(rand < landSupply[_rarity][0]) {\n      return 0;\n    }\n    rand -= landSupply[_rarity][0];\n    if(rand < landSupply[_rarity][1]) {\n      return 1;\n    }\n    rand -= landSupply[_rarity][1];\n    if(rand < landSupply[_rarity][2]) {\n      return 2;\n    }\n    rand -= landSupply[_rarity][2];\n    if(rand < landSupply[_rarity][3]) {\n      return 3;\n    }\n    return 4;\n  }\n\n  // Get amount of Genesis NFTs of a farmer.\n  function _genesisAmountOf(address _farmer) private view returns(uint) {\n    uint24[100] memory genesisTokenIds = [\n      99968,163083,163084,163085,181582,181583,181587,181589,181591,181593,\n      202963,202980,202988,202989,202995,203001,203007,203010,203015,203019,\n      203024,203026,203030,203032,203035,203040,203044,203046,203049,203053,\n      203055,203058,203059,203062,203066,203070,203072,203073,203075,203082,\n      203084,203089,203091,203092,203094,203098,203101,203104,203107,203108,\n      203110,203113,203115,203118,203120,203121,203126,203129,203133,203136,\n      203138,203140,203144,203146,203151,203152,203155,203156,203158,203160,\n      203163,203165,203168,203172,203174,203177,203179,203182,203185,203186,\n      203188,203189,203193,203194,203197,203199,203201,203203,203206,203208,\n      203209,203211,203213,203216,203217,203222,203225,203229,203231,203235\n      ];\n    uint genesisAmount = 0;\n    for(uint8 idx = 0;idx < 100;idx ++) {\n      IERC721 genesisNfts = IERC721(address(AIR_NFT_ADDRESS));\n      if(genesisNfts.ownerOf(genesisTokenIds[idx]) == _farmer) {\n        genesisAmount ++;\n      }\n    }\n    return genesisAmount;\n  }\n}\n",
  "sourcePath": "D:\\Workspace\\Projects\\CashCow\\game-contracts\\contracts\\Sale.sol",
  "compiler": {
    "name": "solc",
    "version": "0.8.12+commit.f00d7308.Emscripten.clang"
  },
  "schemaVersion": "3.4.6",
  "updatedAt": "2022-04-10T19:25:52.248Z",
  "devdoc": {
    "kind": "dev",
    "methods": {
      "owner()": {
        "details": "Returns the address of the current owner."
      },
      "renounceOwnership()": {
        "details": "Leaves the contract without owner. It will not be possible to call `onlyOwner` functions anymore. Can only be called by the current owner. NOTE: Renouncing ownership will leave the contract without an owner, thereby removing any functionality that is only available to the owner."
      },
      "transferOwnership(address)": {
        "details": "Transfers ownership of the contract to a new account (`newOwner`). Can only be called by the current owner."
      }
    },
    "version": 1
  },
  "userdoc": {
    "kind": "user",
    "methods": {},
    "version": 1
  }
}