{
  "contractName": "Sale",
  "abi": [
    {
      "anonymous": false,
      "inputs": [
        {
          "indexed": false,
          "internalType": "address",
          "name": "owner",
          "type": "address"
        }
      ],
      "name": "BullBought",
      "type": "event"
    },
    {
      "anonymous": false,
      "inputs": [
        {
          "indexed": false,
          "internalType": "address",
          "name": "owner",
          "type": "address"
        }
      ],
      "name": "CommonPackBought",
      "type": "event"
    },
    {
      "anonymous": false,
      "inputs": [
        {
          "indexed": false,
          "internalType": "address",
          "name": "owner",
          "type": "address"
        }
      ],
      "name": "CowBought",
      "type": "event"
    },
    {
      "anonymous": false,
      "inputs": [
        {
          "indexed": false,
          "internalType": "address",
          "name": "owner",
          "type": "address"
        }
      ],
      "name": "FreeCommonPackClaimed",
      "type": "event"
    },
    {
      "anonymous": false,
      "inputs": [
        {
          "indexed": false,
          "internalType": "address",
          "name": "owner",
          "type": "address"
        }
      ],
      "name": "FreeUncommonPackClaimed",
      "type": "event"
    },
    {
      "anonymous": false,
      "inputs": [
        {
          "indexed": false,
          "internalType": "address",
          "name": "owner",
          "type": "address"
        }
      ],
      "name": "LandBought",
      "type": "event"
    },
    {
      "anonymous": false,
      "inputs": [
        {
          "indexed": true,
          "internalType": "address",
          "name": "previousOwner",
          "type": "address"
        },
        {
          "indexed": true,
          "internalType": "address",
          "name": "newOwner",
          "type": "address"
        }
      ],
      "name": "OwnershipTransferred",
      "type": "event"
    },
    {
      "anonymous": false,
      "inputs": [
        {
          "indexed": false,
          "internalType": "address",
          "name": "owner",
          "type": "address"
        }
      ],
      "name": "RarePackBought",
      "type": "event"
    },
    {
      "anonymous": false,
      "inputs": [
        {
          "indexed": false,
          "internalType": "address",
          "name": "owner",
          "type": "address"
        }
      ],
      "name": "UncommonPackBought",
      "type": "event"
    },
    {
      "inputs": [],
      "name": "bullPrice",
      "outputs": [
        {
          "internalType": "uint256",
          "name": "",
          "type": "uint256"
        }
      ],
      "stateMutability": "view",
      "type": "function"
    },
    {
      "inputs": [],
      "name": "cowPrice",
      "outputs": [
        {
          "internalType": "uint256",
          "name": "",
          "type": "uint256"
        }
      ],
      "stateMutability": "view",
      "type": "function"
    },
    {
      "inputs": [],
      "name": "landPrice",
      "outputs": [
        {
          "internalType": "uint256",
          "name": "",
          "type": "uint256"
        }
      ],
      "stateMutability": "view",
      "type": "function"
    },
    {
      "inputs": [
        {
          "internalType": "uint8",
          "name": "",
          "type": "uint8"
        },
        {
          "internalType": "uint8",
          "name": "",
          "type": "uint8"
        }
      ],
      "name": "landSupply",
      "outputs": [
        {
          "internalType": "uint256",
          "name": "",
          "type": "uint256"
        }
      ],
      "stateMutability": "view",
      "type": "function"
    },
    {
      "inputs": [],
      "name": "minter",
      "outputs": [
        {
          "internalType": "address",
          "name": "",
          "type": "address"
        }
      ],
      "stateMutability": "view",
      "type": "function"
    },
    {
      "inputs": [],
      "name": "owner",
      "outputs": [
        {
          "internalType": "address",
          "name": "",
          "type": "address"
        }
      ],
      "stateMutability": "view",
      "type": "function"
    },
    {
      "inputs": [
        {
          "internalType": "enum Constants.Rarity",
          "name": "",
          "type": "uint8"
        }
      ],
      "name": "packPrices",
      "outputs": [
        {
          "internalType": "uint256",
          "name": "",
          "type": "uint256"
        }
      ],
      "stateMutability": "view",
      "type": "function"
    },
    {
      "inputs": [],
      "name": "packSaleEnd",
      "outputs": [
        {
          "internalType": "uint256",
          "name": "",
          "type": "uint256"
        }
      ],
      "stateMutability": "view",
      "type": "function"
    },
    {
      "inputs": [],
      "name": "packSaleStart",
      "outputs": [
        {
          "internalType": "uint256",
          "name": "",
          "type": "uint256"
        }
      ],
      "stateMutability": "view",
      "type": "function"
    },
    {
      "inputs": [],
      "name": "renounceOwnership",
      "outputs": [],
      "stateMutability": "nonpayable",
      "type": "function"
    },
    {
      "inputs": [
        {
          "internalType": "address",
          "name": "newOwner",
          "type": "address"
        }
      ],
      "name": "transferOwnership",
      "outputs": [],
      "stateMutability": "nonpayable",
      "type": "function"
    },
    {
      "inputs": [
        {
          "internalType": "address",
          "name": "",
          "type": "address"
        },
        {
          "internalType": "uint8",
          "name": "",
          "type": "uint8"
        }
      ],
      "name": "whitelisted",
      "outputs": [
        {
          "internalType": "uint256",
          "name": "",
          "type": "uint256"
        }
      ],
      "stateMutability": "view",
      "type": "function"
    },
    {
      "inputs": [
        {
          "internalType": "address",
          "name": "_minter",
          "type": "address"
        }
      ],
      "name": "initialize",
      "outputs": [],
      "stateMutability": "nonpayable",
      "type": "function"
    },
    {
      "inputs": [
        {
          "internalType": "uint256",
          "name": "_amount",
          "type": "uint256"
        },
        {
          "internalType": "uint256[]",
          "name": "_seed",
          "type": "uint256[]"
        }
      ],
      "name": "buyLand",
      "outputs": [],
      "stateMutability": "nonpayable",
      "type": "function"
    },
    {
      "inputs": [
        {
          "internalType": "uint256",
          "name": "_amount",
          "type": "uint256"
        },
        {
          "internalType": "uint256[]",
          "name": "_seed",
          "type": "uint256[]"
        }
      ],
      "name": "buyCommonCow",
      "outputs": [],
      "stateMutability": "nonpayable",
      "type": "function"
    },
    {
      "inputs": [
        {
          "internalType": "uint256",
          "name": "_amount",
          "type": "uint256"
        },
        {
          "internalType": "uint256[]",
          "name": "_seed",
          "type": "uint256[]"
        }
      ],
      "name": "buyCommonBull",
      "outputs": [],
      "stateMutability": "nonpayable",
      "type": "function"
    },
    {
      "inputs": [
        {
          "internalType": "uint256",
          "name": "_seed",
          "type": "uint256"
        }
      ],
      "name": "buyCommonPack",
      "outputs": [],
      "stateMutability": "nonpayable",
      "type": "function"
    },
    {
      "inputs": [
        {
          "internalType": "uint256",
          "name": "_seed",
          "type": "uint256"
        }
      ],
      "name": "buyUncommonPack",
      "outputs": [],
      "stateMutability": "nonpayable",
      "type": "function"
    },
    {
      "inputs": [
        {
          "internalType": "uint256",
          "name": "_seed",
          "type": "uint256"
        }
      ],
      "name": "buyRarePack",
      "outputs": [],
      "stateMutability": "nonpayable",
      "type": "function"
    },
    {
      "inputs": [
        {
          "internalType": "uint256",
          "name": "_seed",
          "type": "uint256"
        }
      ],
      "name": "getFreeCommonPack",
      "outputs": [],
      "stateMutability": "nonpayable",
      "type": "function"
    },
    {
      "inputs": [
        {
          "internalType": "uint256",
          "name": "_seed",
          "type": "uint256"
        }
      ],
      "name": "getFreeUncommonPack",
      "outputs": [],
      "stateMutability": "nonpayable",
      "type": "function"
    },
    {
      "inputs": [
        {
          "internalType": "uint8",
          "name": "_community",
          "type": "uint8"
        },
        {
          "internalType": "address[]",
          "name": "_farmers",
          "type": "address[]"
        }
      ],
      "name": "whitelist",
      "outputs": [],
      "stateMutability": "nonpayable",
      "type": "function"
    },
    {
      "inputs": [
        {
          "internalType": "uint256",
          "name": "_price",
          "type": "uint256"
        }
      ],
      "name": "setLandPrice",
      "outputs": [],
      "stateMutability": "nonpayable",
      "type": "function"
    },
    {
      "inputs": [
        {
          "internalType": "uint256",
          "name": "_price",
          "type": "uint256"
        }
      ],
      "name": "setCowPrice",
      "outputs": [],
      "stateMutability": "nonpayable",
      "type": "function"
    },
    {
      "inputs": [
        {
          "internalType": "uint256",
          "name": "_price",
          "type": "uint256"
        }
      ],
      "name": "setBullPrice",
      "outputs": [],
      "stateMutability": "nonpayable",
      "type": "function"
    },
    {
      "inputs": [
        {
          "internalType": "uint256",
          "name": "_start",
          "type": "uint256"
        },
        {
          "internalType": "uint256",
          "name": "_end",
          "type": "uint256"
        }
      ],
      "name": "setPackSalePeriod",
      "outputs": [],
      "stateMutability": "nonpayable",
      "type": "function"
    },
    {
      "inputs": [
        {
          "internalType": "address",
          "name": "_newMinter",
          "type": "address"
        }
      ],
      "name": "setMinterContract",
      "outputs": [],
      "stateMutability": "nonpayable",
      "type": "function"
    },
    {
      "inputs": [],
      "name": "withdrawBusd",
      "outputs": [],
      "stateMutability": "nonpayable",
      "type": "function"
    }
  ],
  "bytecode": "0x60806040523480156200001157600080fd5b5062000032620000266200003f60201b60201c565b6200004760201b60201c565b600180819055506200010b565b600033905090565b60008060009054906101000a900473ffffffffffffffffffffffffffffffffffffffff169050816000806101000a81548173ffffffffffffffffffffffffffffffffffffffff021916908373ffffffffffffffffffffffffffffffffffffffff1602179055508173ffffffffffffffffffffffffffffffffffffffff168173ffffffffffffffffffffffffffffffffffffffff167f8be0079c531659141344cd1fd0a4f28419497f9722a3daafe3b4186f6b6457e060405160405180910390a35050565b614dd8806200011b6000396000f3fe608060405234801561001057600080fd5b50600436106101c45760003560e01c806397fa09ea116100f9578063caf3b0cc11610097578063e9407a8211610071578063e9407a8214610479578063f2fde38b146104a9578063f9857d8d146104c5578063fc22c15c146104e1576101c4565b8063caf3b0cc14610411578063d7543f741461042d578063e14508681461045d576101c4565b8063bfb14a46116100d3578063bfb14a461461038d578063c1a17d29146103a9578063c4d66de8146103d9578063c9c97660146103f5576101c4565b806397fa09ea14610337578063ac41281014610353578063b0e0d1d41461036f576101c4565b806338478ae711610166578063715018a611610140578063715018a6146102e957806372edf063146102f35780637846392c146102fd5780638da5cb5b14610319576101c4565b806338478ae7146102935780635a526b9f146102af5780636e38f46c146102cb576101c4565b80631dbcf306116101a25780631dbcf306146102215780631ef0c59e1461023d57806324e7a877146102595780632b7629a914610277576101c4565b8063022565f1146101c957806307546172146101e55780631b006f1014610203575b600080fd5b6101e360048036038101906101de9190613e76565b6104ff565b005b6101ed610585565b6040516101fa9190613ee4565b60405180910390f35b61020b6105ab565b6040516102189190613f0e565b60405180910390f35b61023b60048036038101906102369190613e76565b6105b1565b005b61025760048036038101906102529190614082565b6107da565b005b610261610988565b60405161026e9190613f0e565b60405180910390f35b610291600480360381019061028c9190613e76565b61098e565b005b6102ad60048036038101906102a8919061410a565b610a14565b005b6102c960048036038101906102c49190613e76565b610b44565b005b6102d3610d2b565b6040516102e09190613f0e565b60405180910390f35b6102f1610d31565b005b6102fb610db9565b005b61031760048036038101906103129190614137565b610f4f565b005b61032161101f565b60405161032e9190613ee4565b60405180910390f35b610351600480360381019061034c9190614082565b611048565b005b61036d60048036038101906103689190614082565b61118e565b005b6103776112df565b6040516103849190613f0e565b60405180910390f35b6103a760048036038101906103a29190613e76565b6112e5565b005b6103c360048036038101906103be91906141b0565b61150e565b6040516103d09190613f0e565b60405180910390f35b6103f360048036038101906103ee919061410a565b611533565b005b61040f600480360381019061040a9190613e76565b611c33565b005b61042b60048036038101906104269190613e76565b611e59565b005b610447600480360381019061044291906141f0565b611edf565b6040516104549190613f0e565b60405180910390f35b61047760048036038101906104729190613e76565b611f04565b005b610493600480360381019061048e9190614255565b6120eb565b6040516104a09190613f0e565b60405180910390f35b6104c360048036038101906104be919061410a565b612103565b005b6104df60048036038101906104da9190614345565b6121fb565b005b6104e9612ede565b6040516104f69190613f0e565b60405180910390f35b610507612ee4565b73ffffffffffffffffffffffffffffffffffffffff1661052561101f565b73ffffffffffffffffffffffffffffffffffffffff161461057b576040517f08c379a0000000000000000000000000000000000000000000000000000000008152600401610572906143fe565b60405180910390fd5b8060068190555050565b600460009054906101000a900473ffffffffffffffffffffffffffffffffffffffff1681565b60085481565b60016000600960003373ffffffffffffffffffffffffffffffffffffffff1673ffffffffffffffffffffffffffffffffffffffff16815260200190815260200160002060008360ff1660ff168152602001908152602001600020541161064c576040517f08c379a00000000000000000000000000000000000000000000000000000000081526004016106439061446a565b60405180910390fd5b6002544211610690576040517f08c379a0000000000000000000000000000000000000000000000000000000008152600401610687906144d6565b60405180910390fd5b60035442106106d4576040517f08c379a00000000000000000000000000000000000000000000000000000000081526004016106cb90614542565b60405180910390fd5b6107163360056000600160048111156106f0576106ef614562565b5b600481111561070257610701614562565b5b815260200190815260200160002054612eec565b6001600960003373ffffffffffffffffffffffffffffffffffffffff1673ffffffffffffffffffffffffffffffffffffffff1681526020019081526020016000206000600160ff168152602001908152602001600020600082825461077b91906145c0565b9250508190555061079f6001600481111561079957610798614562565b5b83612f85565b7f20a31eefa19dbcda4cc4667daa0fbb3ba684b02e73fb1587e0b4a99ba9375a29336040516107ce9190613ee4565b60405180910390a15050565b600354421161081e576040517f08c379a000000000000000000000000000000000000000000000000000000000815260040161081590614640565b60405180910390fd5b61083533836006546108309190614660565b612eec565b6000600460009054906101000a900473ffffffffffffffffffffffffffffffffffffffff16905060005b8381101561098257600061088c84838151811061087f5761087e6146ba565b5b60200260200101516131ac565b905060006108b4828685815181106108a7576108a66146ba565b5b6020026020010151613425565b90506001600a60008460ff1660ff16815260200190815260200160002060008360ff1660ff16815260200190815260200160002060008282546108f791906145c0565b925050819055508373ffffffffffffffffffffffffffffffffffffffff1663e150fd503384846040518463ffffffff1660e01b815260040161093b939291906146f8565b600060405180830381600087803b15801561095557600080fd5b505af1158015610969573d6000803e3d6000fd5b505050505050808061097a9061472f565b91505061085f565b50505050565b60075481565b610996612ee4565b73ffffffffffffffffffffffffffffffffffffffff166109b461101f565b73ffffffffffffffffffffffffffffffffffffffff1614610a0a576040517f08c379a0000000000000000000000000000000000000000000000000000000008152600401610a01906143fe565b60405180910390fd5b8060088190555050565b610a1c612ee4565b73ffffffffffffffffffffffffffffffffffffffff16610a3a61101f565b73ffffffffffffffffffffffffffffffffffffffff1614610a90576040517f08c379a0000000000000000000000000000000000000000000000000000000008152600401610a87906143fe565b60405180910390fd5b600073ffffffffffffffffffffffffffffffffffffffff168173ffffffffffffffffffffffffffffffffffffffff161415610b00576040517f08c379a0000000000000000000000000000000000000000000000000000000008152600401610af7906147ea565b60405180910390fd5b80600460006101000a81548173ffffffffffffffffffffffffffffffffffffffff021916908373ffffffffffffffffffffffffffffffffffffffff16021790555050565b60046000600960003373ffffffffffffffffffffffffffffffffffffffff1673ffffffffffffffffffffffffffffffffffffffff16815260200190815260200160002060008360ff1660ff1681526020019081526020016000205411610bdf576040517f08c379a0000000000000000000000000000000000000000000000000000000008152600401610bd69061446a565b60405180910390fd5b6002544211610c23576040517f08c379a0000000000000000000000000000000000000000000000000000000008152600401610c1a906144d6565b60405180910390fd5b6003544210610c67576040517f08c379a0000000000000000000000000000000000000000000000000000000008152600401610c5e90614542565b60405180910390fd5b6001600960003373ffffffffffffffffffffffffffffffffffffffff1673ffffffffffffffffffffffffffffffffffffffff1681526020019081526020016000206000600460ff1681526020019081526020016000206000828254610ccc91906145c0565b92505081905550610cf060016004811115610cea57610ce9614562565b5b83612f85565b7fb5ca8b4a097db351372b2b32d7852591943317ccebbbf7aa7aa9960645a0c20733604051610d1f9190613ee4565b60405180910390a15050565b60025481565b610d39612ee4565b73ffffffffffffffffffffffffffffffffffffffff16610d5761101f565b73ffffffffffffffffffffffffffffffffffffffff1614610dad576040517f08c379a0000000000000000000000000000000000000000000000000000000008152600401610da4906143fe565b60405180910390fd5b610db7600061365e565b565b610dc1612ee4565b73ffffffffffffffffffffffffffffffffffffffff16610ddf61101f565b73ffffffffffffffffffffffffffffffffffffffff1614610e35576040517f08c379a0000000000000000000000000000000000000000000000000000000008152600401610e2c906143fe565b60405180910390fd5b60007378867bbeef44f2326bf8ddd1941a4439382ef2a7905060008173ffffffffffffffffffffffffffffffffffffffff166370a08231306040518263ffffffff1660e01b8152600401610e899190613ee4565b602060405180830381865afa158015610ea6573d6000803e3d6000fd5b505050506040513d601f19601f82011682018060405250810190610eca919061481f565b90508173ffffffffffffffffffffffffffffffffffffffff1663a9059cbb33836040518363ffffffff1660e01b8152600401610f0792919061484c565b6020604051808303816000875af1158015610f26573d6000803e3d6000fd5b505050506040513d601f19601f82011682018060405250810190610f4a91906148ad565b505050565b610f57612ee4565b73ffffffffffffffffffffffffffffffffffffffff16610f7561101f565b73ffffffffffffffffffffffffffffffffffffffff1614610fcb576040517f08c379a0000000000000000000000000000000000000000000000000000000008152600401610fc2906143fe565b60405180910390fd5b81811161100d576040517f08c379a00000000000000000000000000000000000000000000000000000000081526004016110049061494c565b60405180910390fd5b81600281905550806003819055505050565b60008060009054906101000a900473ffffffffffffffffffffffffffffffffffffffff16905090565b600354421161108c576040517f08c379a000000000000000000000000000000000000000000000000000000000815260040161108390614640565b60405180910390fd5b61109833600854612eec565b6000600460009054906101000a900473ffffffffffffffffffffffffffffffffffffffff1690506000805b84811015611187576110f060058583815181106110e3576110e26146ba565b5b6020026020010151613722565b91508273ffffffffffffffffffffffffffffffffffffffff16639e168667336000600481111561112357611122614562565b5b856040518463ffffffff1660e01b8152600401611142939291906146f8565b600060405180830381600087803b15801561115c57600080fd5b505af1158015611170573d6000803e3d6000fd5b50505050808061117f9061472f565b9150506110c3565b5050505050565b60035442116111d2576040517f08c379a00000000000000000000000000000000000000000000000000000000081526004016111c990614640565b60405180910390fd5b6111e933836007546111e49190614660565b612eec565b6000600460009054906101000a900473ffffffffffffffffffffffffffffffffffffffff1690506000805b848110156112d8576112416005858381518110611234576112336146ba565b5b6020026020010151613722565b91508273ffffffffffffffffffffffffffffffffffffffff1663571dc7b8336000600481111561127457611273614562565b5b856040518463ffffffff1660e01b8152600401611293939291906146f8565b600060405180830381600087803b1580156112ad57600080fd5b505af11580156112c1573d6000803e3d6000fd5b5050505080806112d09061472f565b915050611214565b5050505050565b60035481565b60026000600960003373ffffffffffffffffffffffffffffffffffffffff1673ffffffffffffffffffffffffffffffffffffffff16815260200190815260200160002060008360ff1660ff1681526020019081526020016000205411611380576040517f08c379a00000000000000000000000000000000000000000000000000000000081526004016113779061446a565b60405180910390fd5b60025442116113c4576040517f08c379a00000000000000000000000000000000000000000000000000000000081526004016113bb906144d6565b60405180910390fd5b6003544210611408576040517f08c379a00000000000000000000000000000000000000000000000000000000081526004016113ff90614542565b60405180910390fd5b61144a33600560006002600481111561142457611423614562565b5b600481111561143657611435614562565b5b815260200190815260200160002054612eec565b6001600960003373ffffffffffffffffffffffffffffffffffffffff1673ffffffffffffffffffffffffffffffffffffffff1681526020019081526020016000206000600260ff16815260200190815260200160002060008282546114af91906145c0565b925050819055506114d3600260048111156114cd576114cc614562565b5b83612f85565b7fb9dd5ab7d293c412f857c5953c0160a89273208eab7d258d0a86e43612e7b624336040516115029190613ee4565b60405180910390a15050565b600a602052816000526040600020602052806000526040600020600091509150505481565b61153b612ee4565b73ffffffffffffffffffffffffffffffffffffffff1661155961101f565b73ffffffffffffffffffffffffffffffffffffffff16146115af576040517f08c379a00000000000000000000000000000000000000000000000000000000081526004016115a6906143fe565b60405180910390fd5b600073ffffffffffffffffffffffffffffffffffffffff168173ffffffffffffffffffffffffffffffffffffffff16141561161f576040517f08c379a0000000000000000000000000000000000000000000000000000000008152600401611616906147ea565b60405180910390fd5b678ac7230489e800006005600080600481111561163f5761163e614562565b5b600481111561165157611650614562565b5b81526020019081526020016000208190555067d02ab486cedc0000600560006001600481111561168457611683614562565b5b600481111561169657611695614562565b5b8152602001908152602001600020819055506801a055690d9db8000060056000600260048111156116ca576116c9614562565b5b60048111156116dc576116db614562565b5b8152602001908152602001600020819055506802b5e3af16b1880000600681905550614268600a60008060ff16815260200190815260200160002060008060ff16815260200190815260200160002081905550614268600a60008060ff1681526020019081526020016000206000600160ff16815260200190815260200160002081905550614268600a60008060ff1681526020019081526020016000206000600260ff16815260200190815260200160002081905550614268600a60008060ff1681526020019081526020016000206000600360ff16815260200190815260200160002081905550614268600a60008060ff1681526020019081526020016000206000600460ff16815260200190815260200160002081905550611f40600a6000600160ff16815260200190815260200160002060008060ff16815260200190815260200160002081905550611f40600a6000600160ff1681526020019081526020016000206000600160ff16815260200190815260200160002081905550611f40600a6000600160ff1681526020019081526020016000206000600260ff16815260200190815260200160002081905550611f40600a6000600160ff1681526020019081526020016000206000600360ff16815260200190815260200160002081905550611f40600a6000600160ff1681526020019081526020016000206000600460ff16815260200190815260200160002081905550610fa0600a6000600260ff16815260200190815260200160002060008060ff16815260200190815260200160002081905550610fa0600a6000600260ff1681526020019081526020016000206000600160ff16815260200190815260200160002081905550610fa0600a6000600260ff1681526020019081526020016000206000600260ff16815260200190815260200160002081905550610fa0600a6000600260ff1681526020019081526020016000206000600360ff16815260200190815260200160002081905550610fa0600a6000600260ff1681526020019081526020016000206000600460ff168152602001908152602001600020819055506107d0600a6000600360ff16815260200190815260200160002060008060ff168152602001908152602001600020819055506107d0600a6000600360ff1681526020019081526020016000206000600160ff168152602001908152602001600020819055506107d0600a6000600360ff1681526020019081526020016000206000600260ff168152602001908152602001600020819055506107d0600a6000600360ff1681526020019081526020016000206000600360ff168152602001908152602001600020819055506107d0600a6000600360ff1681526020019081526020016000206000600460ff168152602001908152602001600020819055506103e8600a6000600460ff16815260200190815260200160002060008060ff168152602001908152602001600020819055506103e8600a6000600460ff1681526020019081526020016000206000600160ff168152602001908152602001600020819055506103e8600a6000600460ff1681526020019081526020016000206000600260ff168152602001908152602001600020819055506103e8600a6000600460ff1681526020019081526020016000206000600360ff168152602001908152602001600020819055506103e8600a6000600460ff1681526020019081526020016000206000600460ff1681526020019081526020016000208190555080600460006101000a81548173ffffffffffffffffffffffffffffffffffffffff021916908373ffffffffffffffffffffffffffffffffffffffff16021790555050565b600080600960003373ffffffffffffffffffffffffffffffffffffffff1673ffffffffffffffffffffffffffffffffffffffff16815260200190815260200160002060008360ff1660ff1681526020019081526020016000205411611ccd576040517f08c379a0000000000000000000000000000000000000000000000000000000008152600401611cc49061446a565b60405180910390fd5b6002544211611d11576040517f08c379a0000000000000000000000000000000000000000000000000000000008152600401611d08906144d6565b60405180910390fd5b6003544210611d55576040517f08c379a0000000000000000000000000000000000000000000000000000000008152600401611d4c90614542565b60405180910390fd5b611d963360056000806004811115611d7057611d6f614562565b5b6004811115611d8257611d81614562565b5b815260200190815260200160002054612eec565b6001600960003373ffffffffffffffffffffffffffffffffffffffff1673ffffffffffffffffffffffffffffffffffffffff16815260200190815260200160002060008060ff1681526020019081526020016000206000828254611dfa91906145c0565b92505081905550611e1e60006004811115611e1857611e17614562565b5b83612f85565b7fae38dd7deb32e6919fe17a3f03e646682b5beb21742bb8510bf9f92c69800f2a33604051611e4d9190613ee4565b60405180910390a15050565b611e61612ee4565b73ffffffffffffffffffffffffffffffffffffffff16611e7f61101f565b73ffffffffffffffffffffffffffffffffffffffff1614611ed5576040517f08c379a0000000000000000000000000000000000000000000000000000000008152600401611ecc906143fe565b60405180910390fd5b8060078190555050565b6009602052816000526040600020602052806000526040600020600091509150505481565b60036000600960003373ffffffffffffffffffffffffffffffffffffffff1673ffffffffffffffffffffffffffffffffffffffff16815260200190815260200160002060008360ff1660ff1681526020019081526020016000205411611f9f576040517f08c379a0000000000000000000000000000000000000000000000000000000008152600401611f969061446a565b60405180910390fd5b6002544211611fe3576040517f08c379a0000000000000000000000000000000000000000000000000000000008152600401611fda906144d6565b60405180910390fd5b6003544210612027576040517f08c379a000000000000000000000000000000000000000000000000000000000815260040161201e90614542565b60405180910390fd5b6001600960003373ffffffffffffffffffffffffffffffffffffffff1673ffffffffffffffffffffffffffffffffffffffff1681526020019081526020016000206000600360ff168152602001908152602001600020600082825461208c91906145c0565b925050819055506120b0600060048111156120aa576120a9614562565b5b83612f85565b7fba42ea16e972f44e97fcc90fcd46d87ebd004d4d690f1db02b2d0687f993e0e7336040516120df9190613ee4565b60405180910390a15050565b60056020528060005260406000206000915090505481565b61210b612ee4565b73ffffffffffffffffffffffffffffffffffffffff1661212961101f565b73ffffffffffffffffffffffffffffffffffffffff161461217f576040517f08c379a0000000000000000000000000000000000000000000000000000000008152600401612176906143fe565b60405180910390fd5b600073ffffffffffffffffffffffffffffffffffffffff168173ffffffffffffffffffffffffffffffffffffffff1614156121ef576040517f08c379a00000000000000000000000000000000000000000000000000000000081526004016121e6906149de565b60405180910390fd5b6121f88161365e565b50565b612203612ee4565b73ffffffffffffffffffffffffffffffffffffffff1661222161101f565b73ffffffffffffffffffffffffffffffffffffffff1614612277576040517f08c379a000000000000000000000000000000000000000000000000000000000815260040161226e906143fe565b60405180910390fd5b60068260ff16106122bd576040517f08c379a00000000000000000000000000000000000000000000000000000000081526004016122b490614a4a565b60405180910390fd5b60008260ff1614156123755760005b81518160ff16101561237357600160096000848460ff16815181106122f4576122f36146ba565b5b602002602001015173ffffffffffffffffffffffffffffffffffffffff1673ffffffffffffffffffffffffffffffffffffffff16815260200190815260200160002060008060ff16815260200190815260200160002060008282546123599190614a6a565b92505081905550808061236b90614ac0565b9150506122cc565b505b60018260ff1614156124b65760005b81518160ff1610156124b457600160096000848460ff16815181106123ac576123ab6146ba565b5b602002602001015173ffffffffffffffffffffffffffffffffffffffff1673ffffffffffffffffffffffffffffffffffffffff16815260200190815260200160002060008060ff16815260200190815260200160002060008282546124119190614a6a565b92505081905550600160096000848460ff1681518110612434576124336146ba565b5b602002602001015173ffffffffffffffffffffffffffffffffffffffff1673ffffffffffffffffffffffffffffffffffffffff1681526020019081526020016000206000600160ff168152602001908152602001600020600082825461249a9190614a6a565b9250508190555080806124ac90614ac0565b915050612384565b505b60028260ff1614156126805760005b81518160ff16101561267e57600160096000848460ff16815181106124ed576124ec6146ba565b5b602002602001015173ffffffffffffffffffffffffffffffffffffffff1673ffffffffffffffffffffffffffffffffffffffff16815260200190815260200160002060008060ff16815260200190815260200160002060008282546125529190614a6a565b92505081905550600160096000848460ff1681518110612575576125746146ba565b5b602002602001015173ffffffffffffffffffffffffffffffffffffffff1673ffffffffffffffffffffffffffffffffffffffff1681526020019081526020016000206000600160ff16815260200190815260200160002060008282546125db9190614a6a565b92505081905550600160096000848460ff16815181106125fe576125fd6146ba565b5b602002602001015173ffffffffffffffffffffffffffffffffffffffff1673ffffffffffffffffffffffffffffffffffffffff1681526020019081526020016000206000600260ff16815260200190815260200160002060008282546126649190614a6a565b92505081905550808061267690614ac0565b9150506124c5565b505b60038260ff1614156128d35760005b81518160ff1610156128d157600160096000848460ff16815181106126b7576126b66146ba565b5b602002602001015173ffffffffffffffffffffffffffffffffffffffff1673ffffffffffffffffffffffffffffffffffffffff16815260200190815260200160002060008060ff168152602001908152602001600020600082825461271c9190614a6a565b92505081905550600160096000848460ff168151811061273f5761273e6146ba565b5b602002602001015173ffffffffffffffffffffffffffffffffffffffff1673ffffffffffffffffffffffffffffffffffffffff1681526020019081526020016000206000600160ff16815260200190815260200160002060008282546127a59190614a6a565b92505081905550600160096000848460ff16815181106127c8576127c76146ba565b5b602002602001015173ffffffffffffffffffffffffffffffffffffffff1673ffffffffffffffffffffffffffffffffffffffff1681526020019081526020016000206000600260ff168152602001908152602001600020600082825461282e9190614a6a565b92505081905550600160096000848460ff1681518110612851576128506146ba565b5b602002602001015173ffffffffffffffffffffffffffffffffffffffff1673ffffffffffffffffffffffffffffffffffffffff1681526020019081526020016000206000600460ff16815260200190815260200160002060008282546128b79190614a6a565b9250508190555080806128c990614ac0565b91505061268f565b505b60048260ff161415612bd85760005b81518160ff161015612bd657600073d220d3e1bab3a30f170e81b3587fa382bb4a6263905060008173ffffffffffffffffffffffffffffffffffffffff166370a08231858560ff168151811061293b5761293a6146ba565b5b60200260200101516040518263ffffffff1660e01b815260040161295f9190613ee4565b602060405180830381865afa15801561297c573d6000803e3d6000fd5b505050506040513d601f19601f820116820180604052508101906129a0919061481f565b90508060096000868660ff16815181106129bd576129bc6146ba565b5b602002602001015173ffffffffffffffffffffffffffffffffffffffff1673ffffffffffffffffffffffffffffffffffffffff16815260200190815260200160002060008060ff1681526020019081526020016000206000828254612a229190614a6a565b925050819055508060096000868660ff1681518110612a4457612a436146ba565b5b602002602001015173ffffffffffffffffffffffffffffffffffffffff1673ffffffffffffffffffffffffffffffffffffffff1681526020019081526020016000206000600160ff1681526020019081526020016000206000828254612aaa9190614a6a565b925050819055508060096000868660ff1681518110612acc57612acb6146ba565b5b602002602001015173ffffffffffffffffffffffffffffffffffffffff1673ffffffffffffffffffffffffffffffffffffffff1681526020019081526020016000206000600260ff1681526020019081526020016000206000828254612b329190614a6a565b925050819055508060096000868660ff1681518110612b5457612b536146ba565b5b602002602001015173ffffffffffffffffffffffffffffffffffffffff1673ffffffffffffffffffffffffffffffffffffffff1681526020019081526020016000206000600360ff1681526020019081526020016000206000828254612bba9190614a6a565b9250508190555050508080612bce90614ac0565b9150506128e2565b505b60058260ff161415612eda5760005b81518160ff161015612ed8576000612c1b838360ff1681518110612c0e57612c0d6146ba565b5b6020026020010151613765565b90508060096000858560ff1681518110612c3857612c376146ba565b5b602002602001015173ffffffffffffffffffffffffffffffffffffffff1673ffffffffffffffffffffffffffffffffffffffff16815260200190815260200160002060008060ff1681526020019081526020016000206000828254612c9d9190614a6a565b925050819055508060096000858560ff1681518110612cbf57612cbe6146ba565b5b602002602001015173ffffffffffffffffffffffffffffffffffffffff1673ffffffffffffffffffffffffffffffffffffffff1681526020019081526020016000206000600160ff1681526020019081526020016000206000828254612d259190614a6a565b925050819055508060096000858560ff1681518110612d4757612d466146ba565b5b602002602001015173ffffffffffffffffffffffffffffffffffffffff1673ffffffffffffffffffffffffffffffffffffffff1681526020019081526020016000206000600260ff1681526020019081526020016000206000828254612dad9190614a6a565b925050819055508060096000858560ff1681518110612dcf57612dce6146ba565b5b602002602001015173ffffffffffffffffffffffffffffffffffffffff1673ffffffffffffffffffffffffffffffffffffffff1681526020019081526020016000206000600360ff1681526020019081526020016000206000828254612e359190614a6a565b925050819055508060096000858560ff1681518110612e5757612e566146ba565b5b602002602001015173ffffffffffffffffffffffffffffffffffffffff1673ffffffffffffffffffffffffffffffffffffffff1681526020019081526020016000206000600460ff1681526020019081526020016000206000828254612ebd9190614a6a565b92505081905550508080612ed090614ac0565b915050612be7565b505b5050565b60065481565b600033905090565b7378867bbeef44f2326bf8ddd1941a4439382ef2a773ffffffffffffffffffffffffffffffffffffffff166323b872dd8330846040518463ffffffff1660e01b8152600401612f3d93929190614aea565b6020604051808303816000875af1158015612f5c573d6000803e3d6000fd5b505050506040513d601f19601f82011682018060405250810190612f8091906148ad565b505050565b6000600460009054906101000a900473ffffffffffffffffffffffffffffffffffffffff1690506000612fb9600584613722565b90506001600a60008660ff1660ff16815260200190815260200160002060008360ff1660ff1681526020019081526020016000206000828254612ffc91906145c0565b925050819055508173ffffffffffffffffffffffffffffffffffffffff1663e150fd503386846040518463ffffffff1660e01b8152600401613040939291906146f8565b600060405180830381600087803b15801561305a57600080fd5b505af115801561306e573d6000803e3d6000fd5b5050505060005b601481101561311b57600560038361308d9190614b21565b6130979190614b87565b91508273ffffffffffffffffffffffffffffffffffffffff1663571dc7b83387856040518463ffffffff1660e01b81526004016130d6939291906146f8565b600060405180830381600087803b1580156130f057600080fd5b505af1158015613104573d6000803e3d6000fd5b5050505080806131139061472f565b915050613075565b50600560038261312b9190614b21565b6131359190614b87565b90508173ffffffffffffffffffffffffffffffffffffffff16639e1686673386846040518463ffffffff1660e01b8152600401613174939291906146f8565b600060405180830381600087803b15801561318e57600080fd5b505af11580156131a2573d6000803e3d6000fd5b5050505050505050565b60006131b6613e0a565b6000805b60058160ff1610156132a4576000838260ff16600581106131de576131dd6146ba565b5b60200201818152505060005b60058160ff16101561326857600a60008360ff1660ff16815260200190815260200160002060008260ff1660ff16815260200190815260200160002054848360ff166005811061323d5761323c6146ba565b5b6020020181815161324e9190614a6a565b91508181525050808061326090614ac0565b9150506131ea565b50828160ff166005811061327f5761327e6146ba565b5b60200201518261328f9190614a6a565b9150808061329c90614ac0565b9150506131ba565b50600081116132e8576040517f08c379a00000000000000000000000000000000000000000000000000000000081526004016132df90614c04565b60405180910390fd5b60006132f48286613722565b90508260006005811061330a576133096146ba565b5b60200201518110156133225760009350505050613420565b82600060058110613336576133356146ba565b5b60200201518161334691906145c0565b90508260016005811061335c5761335b6146ba565b5b60200201518110156133745760019350505050613420565b82600160058110613388576133876146ba565b5b60200201518161339891906145c0565b9050826002600581106133ae576133ad6146ba565b5b60200201518110156133c65760029350505050613420565b826002600581106133da576133d96146ba565b5b6020020151816133ea91906145c0565b905082600360058110613400576133ff6146ba565b5b60200201518110156134185760039350505050613420565b600493505050505b919050565b6000806000905060005b60058160ff16101561348c57600a60008660ff1660ff16815260200190815260200160002060008260ff1660ff16815260200190815260200160002054826134779190614a6a565b9150808061348490614ac0565b91505061342f565b5060006134998285613722565b9050600a60008660ff1660ff16815260200190815260200160002060008060ff168152602001908152602001600020548110156134db57600092505050613658565b600a60008660ff1660ff16815260200190815260200160002060008060ff168152602001908152602001600020548161351491906145c0565b9050600a60008660ff1660ff1681526020019081526020016000206000600160ff1681526020019081526020016000205481101561355757600192505050613658565b600a60008660ff1660ff1681526020019081526020016000206000600160ff168152602001908152602001600020548161359191906145c0565b9050600a60008660ff1660ff1681526020019081526020016000206000600260ff168152602001908152602001600020548110156135d457600292505050613658565b600a60008660ff1660ff1681526020019081526020016000206000600260ff168152602001908152602001600020548161360e91906145c0565b9050600a60008660ff1660ff1681526020019081526020016000206000600360ff1681526020019081526020016000205481101561365157600392505050613658565b6004925050505b92915050565b60008060009054906101000a900473ffffffffffffffffffffffffffffffffffffffff169050816000806101000a81548173ffffffffffffffffffffffffffffffffffffffff021916908373ffffffffffffffffffffffffffffffffffffffff1602179055508173ffffffffffffffffffffffffffffffffffffffff168173ffffffffffffffffffffffffffffffffffffffff167f8be0079c531659141344cd1fd0a4f28419497f9722a3daafe3b4186f6b6457e060405160405180910390a35050565b60008242338460405160200161373a93929190614c8d565b6040516020818303038152906040528051906020012060001c61375d9190614cca565b905092915050565b60008060405180610c8001604052806201868062ffffff16815260200162027d0b62ffffff16815260200162027d0c62ffffff16815260200162027d0d62ffffff1681526020016202c54e62ffffff1681526020016202c54f62ffffff1681526020016202c55362ffffff1681526020016202c55562ffffff1681526020016202c55762ffffff1681526020016202c55962ffffff168152602001620318d362ffffff168152602001620318e462ffffff168152602001620318ec62ffffff168152602001620318ed62ffffff168152602001620318f362ffffff168152602001620318f962ffffff168152602001620318ff62ffffff1681526020016203190262ffffff1681526020016203190762ffffff1681526020016203190b62ffffff1681526020016203191062ffffff1681526020016203191262ffffff1681526020016203191662ffffff1681526020016203191862ffffff1681526020016203191b62ffffff1681526020016203192062ffffff1681526020016203192462ffffff1681526020016203192662ffffff1681526020016203192962ffffff1681526020016203192d62ffffff1681526020016203192f62ffffff1681526020016203193262ffffff1681526020016203193362ffffff1681526020016203193662ffffff1681526020016203193a62ffffff1681526020016203193e62ffffff1681526020016203194062ffffff1681526020016203194162ffffff1681526020016203194362ffffff1681526020016203194a62ffffff1681526020016203194c62ffffff1681526020016203195162ffffff1681526020016203195362ffffff1681526020016203195462ffffff1681526020016203195662ffffff1681526020016203195a62ffffff1681526020016203195d62ffffff1681526020016203196062ffffff1681526020016203196362ffffff1681526020016203196462ffffff1681526020016203196662ffffff1681526020016203196962ffffff1681526020016203196b62ffffff1681526020016203196e62ffffff1681526020016203197062ffffff1681526020016203197162ffffff1681526020016203197662ffffff1681526020016203197962ffffff1681526020016203197d62ffffff1681526020016203198062ffffff1681526020016203198262ffffff1681526020016203198462ffffff1681526020016203198862ffffff1681526020016203198a62ffffff1681526020016203198f62ffffff1681526020016203199062ffffff1681526020016203199362ffffff1681526020016203199462ffffff1681526020016203199662ffffff1681526020016203199862ffffff1681526020016203199b62ffffff1681526020016203199d62ffffff168152602001620319a062ffffff168152602001620319a462ffffff168152602001620319a662ffffff168152602001620319a962ffffff168152602001620319ab62ffffff168152602001620319ae62ffffff168152602001620319b162ffffff168152602001620319b262ffffff168152602001620319b462ffffff168152602001620319b562ffffff168152602001620319b962ffffff168152602001620319ba62ffffff168152602001620319bd62ffffff168152602001620319bf62ffffff168152602001620319c162ffffff168152602001620319c362ffffff168152602001620319c662ffffff168152602001620319c862ffffff168152602001620319c962ffffff168152602001620319cb62ffffff168152602001620319cd62ffffff168152602001620319d062ffffff168152602001620319d162ffffff168152602001620319d662ffffff168152602001620319d962ffffff168152602001620319dd62ffffff168152602001620319df62ffffff168152602001620319e362ffffff1681525090506000805b60648160ff161015613dff5760007374a9bb4f6b05236507614ca70d32f6543606478690508573ffffffffffffffffffffffffffffffffffffffff168173ffffffffffffffffffffffffffffffffffffffff16636352211e868560ff1660648110613d5e57613d5d6146ba565b5b60200201516040518263ffffffff1660e01b8152600401613d7f9190614d45565b602060405180830381865afa158015613d9c573d6000803e3d6000fd5b505050506040513d601f19601f82011682018060405250810190613dc09190614d75565b73ffffffffffffffffffffffffffffffffffffffff161415613deb578280613de79061472f565b9350505b508080613df790614ac0565b915050613cf0565b508092505050919050565b6040518060a00160405280600590602082028036833780820191505090505090565b6000604051905090565b600080fd5b600080fd5b6000819050919050565b613e5381613e40565b8114613e5e57600080fd5b50565b600081359050613e7081613e4a565b92915050565b600060208284031215613e8c57613e8b613e36565b5b6000613e9a84828501613e61565b91505092915050565b600073ffffffffffffffffffffffffffffffffffffffff82169050919050565b6000613ece82613ea3565b9050919050565b613ede81613ec3565b82525050565b6000602082019050613ef96000830184613ed5565b92915050565b613f0881613e40565b82525050565b6000602082019050613f236000830184613eff565b92915050565b600080fd5b6000601f19601f8301169050919050565b7f4e487b7100000000000000000000000000000000000000000000000000000000600052604160045260246000fd5b613f7782613f2e565b810181811067ffffffffffffffff82111715613f9657613f95613f3f565b5b80604052505050565b6000613fa9613e2c565b9050613fb58282613f6e565b919050565b600067ffffffffffffffff821115613fd557613fd4613f3f565b5b602082029050602081019050919050565b600080fd5b6000613ffe613ff984613fba565b613f9f565b9050808382526020820190506020840283018581111561402157614020613fe6565b5b835b8181101561404a57806140368882613e61565b845260208401935050602081019050614023565b5050509392505050565b600082601f83011261406957614068613f29565b5b8135614079848260208601613feb565b91505092915050565b6000806040838503121561409957614098613e36565b5b60006140a785828601613e61565b925050602083013567ffffffffffffffff8111156140c8576140c7613e3b565b5b6140d485828601614054565b9150509250929050565b6140e781613ec3565b81146140f257600080fd5b50565b600081359050614104816140de565b92915050565b6000602082840312156141205761411f613e36565b5b600061412e848285016140f5565b91505092915050565b6000806040838503121561414e5761414d613e36565b5b600061415c85828601613e61565b925050602061416d85828601613e61565b9150509250929050565b600060ff82169050919050565b61418d81614177565b811461419857600080fd5b50565b6000813590506141aa81614184565b92915050565b600080604083850312156141c7576141c6613e36565b5b60006141d58582860161419b565b92505060206141e68582860161419b565b9150509250929050565b6000806040838503121561420757614206613e36565b5b6000614215858286016140f5565b92505060206142268582860161419b565b9150509250929050565b6005811061423d57600080fd5b50565b60008135905061424f81614230565b92915050565b60006020828403121561426b5761426a613e36565b5b600061427984828501614240565b91505092915050565b600067ffffffffffffffff82111561429d5761429c613f3f565b5b602082029050602081019050919050565b60006142c16142bc84614282565b613f9f565b905080838252602082019050602084028301858111156142e4576142e3613fe6565b5b835b8181101561430d57806142f988826140f5565b8452602084019350506020810190506142e6565b5050509392505050565b600082601f83011261432c5761432b613f29565b5b813561433c8482602086016142ae565b91505092915050565b6000806040838503121561435c5761435b613e36565b5b600061436a8582860161419b565b925050602083013567ffffffffffffffff81111561438b5761438a613e3b565b5b61439785828601614317565b9150509250929050565b600082825260208201905092915050565b7f4f776e61626c653a2063616c6c6572206973206e6f7420746865206f776e6572600082015250565b60006143e86020836143a1565b91506143f3826143b2565b602082019050919050565b60006020820190508181036000830152614417816143db565b9050919050565b7f4e6f742077686974656c697374656420666f72204e4654205061636b00000000600082015250565b6000614454601c836143a1565b915061445f8261441e565b602082019050919050565b6000602082019050818103600083015261448381614447565b9050919050565b7f5061636b2053616c65206973206e6f7420737461727465640000000000000000600082015250565b60006144c06018836143a1565b91506144cb8261448a565b602082019050919050565b600060208201905081810360008301526144ef816144b3565b9050919050565b7f5061636b2053616c6520656e6465640000000000000000000000000000000000600082015250565b600061452c600f836143a1565b9150614537826144f6565b602082019050919050565b6000602082019050818103600083015261455b8161451f565b9050919050565b7f4e487b7100000000000000000000000000000000000000000000000000000000600052602160045260246000fd5b7f4e487b7100000000000000000000000000000000000000000000000000000000600052601160045260246000fd5b60006145cb82613e40565b91506145d683613e40565b9250828210156145e9576145e8614591565b5b828203905092915050565b7f5061636b2053616c65206973206e6f7420656e64656400000000000000000000600082015250565b600061462a6016836143a1565b9150614635826145f4565b602082019050919050565b600060208201905081810360008301526146598161461d565b9050919050565b600061466b82613e40565b915061467683613e40565b9250817fffffffffffffffffffffffffffffffffffffffffffffffffffffffffffffffff04831182151516156146af576146ae614591565b5b828202905092915050565b7f4e487b7100000000000000000000000000000000000000000000000000000000600052603260045260246000fd5b6146f281614177565b82525050565b600060608201905061470d6000830186613ed5565b61471a60208301856146e9565b61472760408301846146e9565b949350505050565b600061473a82613e40565b91507fffffffffffffffffffffffffffffffffffffffffffffffffffffffffffffffff82141561476d5761476c614591565b5b600182019050919050565b7f4d696e74657220636f6e7472616374206d757374206265206e6f6e2d7a65726f60008201527f2061646472657373000000000000000000000000000000000000000000000000602082015250565b60006147d46028836143a1565b91506147df82614778565b604082019050919050565b60006020820190508181036000830152614803816147c7565b9050919050565b60008151905061481981613e4a565b92915050565b60006020828403121561483557614834613e36565b5b60006148438482850161480a565b91505092915050565b60006040820190506148616000830185613ed5565b61486e6020830184613eff565b9392505050565b60008115159050919050565b61488a81614875565b811461489557600080fd5b50565b6000815190506148a781614881565b92915050565b6000602082840312156148c3576148c2613e36565b5b60006148d184828501614898565b91505092915050565b7f53746172742074696d65206973206c6f776572207468616e20656e642074696d60008201527f6500000000000000000000000000000000000000000000000000000000000000602082015250565b60006149366021836143a1565b9150614941826148da565b604082019050919050565b6000602082019050818103600083015261496581614929565b9050919050565b7f4f776e61626c653a206e6577206f776e657220697320746865207a65726f206160008201527f6464726573730000000000000000000000000000000000000000000000000000602082015250565b60006149c86026836143a1565b91506149d38261496c565b604082019050919050565b600060208201905081810360008301526149f7816149bb565b9050919050565b7f436f6d6d756e697479206964656e746966696572206d75737420626520307e35600082015250565b6000614a346020836143a1565b9150614a3f826149fe565b602082019050919050565b60006020820190508181036000830152614a6381614a27565b9050919050565b6000614a7582613e40565b9150614a8083613e40565b9250827fffffffffffffffffffffffffffffffffffffffffffffffffffffffffffffffff03821115614ab557614ab4614591565b5b828201905092915050565b6000614acb82614177565b915060ff821415614adf57614ade614591565b5b600182019050919050565b6000606082019050614aff6000830186613ed5565b614b0c6020830185613ed5565b614b196040830184613eff565b949350505050565b6000614b2c82614177565b9150614b3783614177565b92508260ff03821115614b4d57614b4c614591565b5b828201905092915050565b7f4e487b7100000000000000000000000000000000000000000000000000000000600052601260045260246000fd5b6000614b9282614177565b9150614b9d83614177565b925082614bad57614bac614b58565b5b828206905092915050565b7f6d696e74616c626520616d6f756e742069732030000000000000000000000000600082015250565b6000614bee6014836143a1565b9150614bf982614bb8565b602082019050919050565b60006020820190508181036000830152614c1d81614be1565b9050919050565b6000819050919050565b614c3f614c3a82613e40565b614c24565b82525050565b60008160601b9050919050565b6000614c5d82614c45565b9050919050565b6000614c6f82614c52565b9050919050565b614c87614c8282613ec3565b614c64565b82525050565b6000614c998286614c2e565b602082019150614ca98285614c76565b601482019150614cb98284614c2e565b602082019150819050949350505050565b6000614cd582613e40565b9150614ce083613e40565b925082614cf057614cef614b58565b5b828206905092915050565b600062ffffff82169050919050565b6000819050919050565b6000614d2f614d2a614d2584614cfb565b614d0a565b613e40565b9050919050565b614d3f81614d14565b82525050565b6000602082019050614d5a6000830184614d36565b92915050565b600081519050614d6f816140de565b92915050565b600060208284031215614d8b57614d8a613e36565b5b6000614d9984828501614d60565b9150509291505056fea2646970667358221220266a1c2fc30b22e62e710e990d3dc5ed42b37be18dea8138c92da35b1f1ba69f64736f6c634300080c0033",
  "immutableReferences": {},
  "source": "// SPDX-License-Identifier: MIT\npragma solidity >=0.4.22 <0.9.0;\n\nimport \"@openzeppelin/contracts/token/ERC20/utils/SafeERC20.sol\";\nimport \"@openzeppelin/contracts/security/ReentrancyGuard.sol\";\nimport \"@openzeppelin/contracts/access/Ownable.sol\";\nimport \"@openzeppelin/contracts/utils/math/SafeMath.sol\";\nimport \"@openzeppelin/contracts/token/ERC721/IERC721.sol\";\nimport \"./Constants.sol\";\nimport \"./interfaces/INftMinter.sol\";\n\ncontract Sale is Ownable, ReentrancyGuard{\n  using SafeERC20 for IERC20;\n  using SafeMath for uint256;\n  \n  //address constant private BUSD_CONTRACT_ADDRESS = 0xe9e7CEA3DedcA5984780Bafc599bD69ADd087D56; // BUSD on mainnet\n  //address constant AIR_NFT_ADDRESS = 0xF5db804101d8600c26598A1Ba465166c33CdAA4b; // AirNfts on mainnet\n  //address constant HAPPY_COW_ADDRESS = 0xf470C4B8564B1069E34Eaf00B26e6892A5391d80; // HappyCow NFTs on mainnet\n\n  address constant BUSD_CONTRACT_ADDRESS = 0x78867BbEeF44f2326bF8DDd1941a4439382EF2A7; // Fake BUSD on testnet, For TEST\n  address constant AIR_NFT_ADDRESS = 0x74A9Bb4F6b05236507614cA70d32f65436064786; // Fake AirNfts on testnet, For TEST\n  address constant HAPPY_COW_ADDRESS = 0xD220d3E1bab3A30f170E81b3587fa382BB4A6263; // Fake HappyCow NFTs on testnet, For TEST\n  \n  \n\n  // Timestamp to start NFT Pack Sale\n  uint public packSaleStart;\n  // Timestamp to finish NFT Pack Sale\n  uint public packSaleEnd;\n\n  // NftMinter contract address\n  address public minter;\n\n  // Prices of NFT Packs by rarity\n  mapping(Constants.Rarity => uint) public packPrices;\n\n  // Price of Individual Land NFT (random rarity)\n  uint public landPrice;\n  // Price of Individual Cow NFT (Common rarity)\n  uint public cowPrice;\n  // Price of Individual Bull NFT (Common rarity)\n  uint public bullPrice;\n\n  //mapping(address => uint8) public whitelisted;\n  mapping(address => mapping(uint8 => uint)) public whitelisted;\n\n  // Supply of Land NFTs by rarity and type\n  // Total supply of Land NFTs is 160, 000\n  mapping(uint8 => mapping(uint8 => uint)) public landSupply;\n\n  event LandBought(address owner);\n  event CowBought(address owner);\n  event BullBought(address owner);\n  event CommonPackBought(address owner);\n  event UncommonPackBought(address owner);\n  event RarePackBought(address owner);\n  event FreeCommonPackClaimed(address owner);\n  event FreeUncommonPackClaimed(address owner);\n\n  modifier onlyWhitelisted(uint8 _option) {\n    require(whitelisted[msg.sender][_option] > 0, \"Not whitelisted for NFT Pack\");\n    _;\n  }\n\n  function initialize(address _minter) public onlyOwner {\n    require(_minter != address(0), \"Minter contract must be non-zero address\");\n\n    // Set NFT Pack prices to 10, 15, 30 BUSD.\n    packPrices[Constants.Rarity.COMMON] = 10*10**18;\n    packPrices[Constants.Rarity.UNCOMMON] = 15*10**18;\n    packPrices[Constants.Rarity.RARE] = 30*10**18;\n\n    landPrice = 50*10**18;\n\n    // Set total supply of Land by rarity and type\n    landSupply[0][0] = 17000;\n    landSupply[0][1] = 17000;\n    landSupply[0][2] = 17000;\n    landSupply[0][3] = 17000;\n    landSupply[0][4] = 17000;\n\n    landSupply[1][0] = 8000;\n    landSupply[1][1] = 8000;\n    landSupply[1][2] = 8000;\n    landSupply[1][3] = 8000;\n    landSupply[1][4] = 8000;\n\n    landSupply[2][0] = 4000;\n    landSupply[2][1] = 4000;\n    landSupply[2][2] = 4000;\n    landSupply[2][3] = 4000;\n    landSupply[2][4] = 4000;\n\n    landSupply[3][0] = 2000;\n    landSupply[3][1] = 2000;\n    landSupply[3][2] = 2000;\n    landSupply[3][3] = 2000;\n    landSupply[3][4] = 2000;\n\n    landSupply[4][0] = 1000;\n    landSupply[4][1] = 1000;\n    landSupply[4][2] = 1000;\n    landSupply[4][3] = 1000;\n    landSupply[4][4] = 1000;\n\n    minter = _minter;\n  }\n\n  function buyLand(uint256 _amount, uint256[] memory _seed) external {\n    require(block.timestamp > packSaleEnd, \"Pack Sale is not ended\");\n    _pay(msg.sender, landPrice * _amount);\n    INftMinter minterContract = INftMinter(address(minter));\n    for (uint256 i = 0 ; i< _amount; i++) {\n      uint8 rarity = _rarityOfLandBySupply(_seed[i]);\n      uint8 landType = _typeOfLandBySupply(rarity, _seed[i]);\n      landSupply[rarity][landType] -= 1;\n      minterContract.mintLand(msg.sender, (uint8)(rarity), landType);\n    }\n  }\n\n  function buyCommonCow(uint256 _amount, uint256[] memory _seed) external {\n    require(block.timestamp > packSaleEnd, \"Pack Sale is not ended\");\n\n    _pay(msg.sender, cowPrice* _amount);\n    INftMinter minterContract = INftMinter(address(minter));\n    uint8 breed = 0;\n    for(uint i = 0 ; i < _amount ; i ++) {\n      breed = (uint8)(_rand(5, _seed[i]));\n      minterContract.mintCow(msg.sender, (uint8)(Constants.Rarity.COMMON), breed);\n    }\n  }\n\n  function buyCommonBull(uint256 _amount, uint256[] memory _seed) external {\n    require(block.timestamp > packSaleEnd, \"Pack Sale is not ended\");\n\n    _pay(msg.sender, bullPrice);\n    INftMinter minterContract = INftMinter(address(minter));\n    uint8 breed = 0;\n    for(uint i = 0 ; i < _amount; i++) {\n      breed = (uint8)(_rand(5,_seed[i]));\n      minterContract.mintBull(msg.sender, (uint8)(Constants.Rarity.COMMON), breed);\n    }\n  }\n\n  function buyCommonPack(uint256 _seed) external onlyWhitelisted(0) {\n    require(block.timestamp > packSaleStart, \"Pack Sale is not started\");\n    require(block.timestamp < packSaleEnd, \"Pack Sale ended\");\n\n    _pay(msg.sender, (packPrices[Constants.Rarity.COMMON]));\n    whitelisted[msg.sender][0] -= 1;\n    _mintNftPack((uint8)(Constants.Rarity.COMMON), _seed);\n\n    emit CommonPackBought(msg.sender);\n  }\n\n  function buyUncommonPack(uint256 _seed) external onlyWhitelisted(1) {\n    require(block.timestamp > packSaleStart, \"Pack Sale is not started\");\n    require(block.timestamp < packSaleEnd, \"Pack Sale ended\");\n\n    _pay(msg.sender, (packPrices[Constants.Rarity.UNCOMMON]));\n    whitelisted[msg.sender][1] -= 1;\n    _mintNftPack((uint8)(Constants.Rarity.UNCOMMON), _seed);\n\n    emit UncommonPackBought(msg.sender);\n  }\n\n  function buyRarePack(uint256 _seed) external onlyWhitelisted(2) {\n    require(block.timestamp > packSaleStart, \"Pack Sale is not started\");\n    require(block.timestamp < packSaleEnd, \"Pack Sale ended\");\n\n    _pay(msg.sender, (packPrices[Constants.Rarity.RARE]));\n    whitelisted[msg.sender][2] -= 1;\n    _mintNftPack((uint8)(Constants.Rarity.RARE), _seed);\n\n    emit RarePackBought(msg.sender);\n  }\n\n  function getFreeCommonPack(uint256 _seed) external onlyWhitelisted(3) {\n    require(block.timestamp > packSaleStart, \"Pack Sale is not started\");\n    require(block.timestamp < packSaleEnd, \"Pack Sale ended\");\n    whitelisted[msg.sender][3] -= 1;\n    _mintNftPack((uint8)(Constants.Rarity.COMMON), _seed);\n\n    emit FreeCommonPackClaimed(msg.sender);\n  }\n\n  function getFreeUncommonPack(uint256 _seed) external onlyWhitelisted(4) {\n    require(block.timestamp > packSaleStart, \"Pack Sale is not started\");\n    require(block.timestamp < packSaleEnd, \"Pack Sale ended\");\n    whitelisted[msg.sender][4] -= 1;\n    _mintNftPack((uint8)(Constants.Rarity.UNCOMMON), _seed);\n\n    emit FreeUncommonPackClaimed(msg.sender);\n  }\n\n  /*\n    _community values\n    0: Common members. Farmers hold 1 $COW or more\n    1: Uncommon members. Top 10k holders\n    2: Rare members. Top 1k holders\n    3: Legendary members. Top 100 holders.\n    4: HappyCow NFT holders.\n    5: Genesis NFT holders.\n  */\n\n  function whitelist(uint8 _community, address[] memory _farmers) public onlyOwner {\n    require(_community < 6, \"Community identifier must be 0~5\");\n\n    // Common members\n    if(_community == 0) {\n      for(uint8 idx = 0;idx < _farmers.length;idx ++) {\n        whitelisted[_farmers[idx]][0] += 1;\n      }\n    }\n\n    // Uncommon members\n    if(_community == 1) {\n      for(uint8 idx = 0;idx < _farmers.length;idx ++) {\n        whitelisted[_farmers[idx]][0] += 1;\n        whitelisted[_farmers[idx]][1] += 1;\n      }\n    }\n\n    // Rare members\n    if(_community == 2) {\n      for(uint8 idx = 0;idx < _farmers.length;idx ++) {\n        whitelisted[_farmers[idx]][0] += 1;\n        whitelisted[_farmers[idx]][1] += 1;\n        whitelisted[_farmers[idx]][2] += 1;\n      }\n    }\n\n    // Legendary members\n    if(_community == 3) {\n      for(uint8 idx = 0;idx < _farmers.length;idx ++) {\n        whitelisted[_farmers[idx]][0] += 1;\n        whitelisted[_farmers[idx]][1] += 1;\n        whitelisted[_farmers[idx]][2] += 1;\n        whitelisted[_farmers[idx]][4] += 1;\n      }\n    }\n\n    // HappyCow NFT holders\n    if(_community == 4) {\n      for(uint8 idx = 0;idx < _farmers.length;idx ++) {\n\n        IERC721 happyCowNft = IERC721(address(HAPPY_COW_ADDRESS));\n        uint nftAmount = happyCowNft.balanceOf(_farmers[idx]);\n        whitelisted[_farmers[idx]][0] += nftAmount;\n        whitelisted[_farmers[idx]][1] += nftAmount;\n        whitelisted[_farmers[idx]][2] += nftAmount;\n        whitelisted[_farmers[idx]][3] += nftAmount;\n      }\n    }\n\n    // Genesis NFT holders\n    if(_community == 5) {\n      for(uint8 idx = 0;idx < _farmers.length;idx ++) {\n        uint genesisAmount = _genesisAmountOf(_farmers[idx]);\n        whitelisted[_farmers[idx]][0] += genesisAmount;\n        whitelisted[_farmers[idx]][1] += genesisAmount;\n        whitelisted[_farmers[idx]][2] += genesisAmount;\n        whitelisted[_farmers[idx]][3] += genesisAmount;\n        whitelisted[_farmers[idx]][4] += genesisAmount;\n      }\n    }\n  }\n\n  function setLandPrice(uint _price) external onlyOwner {\n    landPrice = _price;\n  }\n\n  function setCowPrice(uint _price) external onlyOwner {\n    cowPrice = _price;\n  }\n\n  function setBullPrice(uint _price) external onlyOwner {\n    bullPrice = _price;\n  }\n\n  function setPackSalePeriod(uint _start, uint _end) external onlyOwner {\n    require(_end > _start, \"Start time is lower than end time\");\n    packSaleStart = _start;\n    packSaleEnd = _end;\n  }\n\n  function setMinterContract(address _newMinter) external onlyOwner{\n    require(_newMinter != address(0), \"Minter contract must be non-zero address\");\n    minter = _newMinter;\n  }\n\n  function withdrawBusd() external onlyOwner {\n    IERC20 payContract = IERC20(address(BUSD_CONTRACT_ADDRESS));\n    uint amountOf = payContract.balanceOf(address(this));\n    payContract.transfer(msg.sender, amountOf);\n  }\n\n  function _pay(address _farmer, uint _amount) private {\n    IERC20(address(BUSD_CONTRACT_ADDRESS)).transferFrom(_farmer, address(this), _amount);\n  }\n\n  function _mintNftPack(uint8 _rarity, uint256 _seed) private {\n    INftMinter minterContract = INftMinter(address(minter));\n    uint8 rand = (uint8)(_rand(5, _seed));\n    landSupply[_rarity][rand] -= 1;\n    minterContract.mintLand(msg.sender, _rarity, rand);\n    for(uint _idx = 0;_idx < 20;_idx ++){\n      rand = (rand + 3) % 5;\n      minterContract.mintCow(msg.sender, _rarity, rand);\n    }\n    rand = (rand + 3) % 5;\n    minterContract.mintBull(msg.sender, _rarity, rand);\n  }\n\n  /*\n    rand: Generate simplest random number by keccak, block.timestamp, msg.sender. Use your own risk.\n  */\n  function _rand(uint _modulus, uint256 _seed) internal view returns (uint) {\n    // randNonce ++; \n    // return uint(keccak256(abi.encodePacked(block.timestamp, msg.sender, randNonce))) % _modulus;\n\n    return uint(keccak256(abi.encodePacked(block.timestamp, msg.sender, _seed))) % _modulus;\n  }\n\n  function _rarityOfLandBySupply(uint256 _seed) internal view returns (uint8) {\n    uint[5] memory landSupplyByRarity;\n    uint totalLandSupply = 0;\n    for(uint8 idxOfRarity = 0; idxOfRarity < 5;idxOfRarity ++) {\n      landSupplyByRarity[idxOfRarity] = 0;\n      for(uint8 idxOfType = 0; idxOfType < 5; idxOfType ++) {\n        landSupplyByRarity[idxOfRarity] += landSupply[idxOfRarity][idxOfType];\n      }\n      totalLandSupply += landSupplyByRarity[idxOfRarity];\n    }\n    require(totalLandSupply >0, \"mintalbe amount is 0\");\n    uint rand = _rand(totalLandSupply, _seed);\n    if(rand < landSupplyByRarity[0]) {\n      return 0;\n    }\n    rand -= landSupplyByRarity[0];\n    if(rand < landSupplyByRarity[1]) {\n      return 1;\n    }\n    rand -= landSupplyByRarity[1];\n    if(rand < landSupplyByRarity[2]) {\n      return 2;\n    }\n    rand -= landSupplyByRarity[2];\n    if(rand < landSupplyByRarity[3]) {\n      return 3;\n    }\n    return 4;\n  }\n\n  function _typeOfLandBySupply(uint8 _rarity, uint256 _seed) internal view returns (uint8) {\n    uint landSupplyByRarity = 0;\n    for(uint8 idxOfType = 0; idxOfType < 5; idxOfType ++) {\n      landSupplyByRarity += landSupply[_rarity][idxOfType];\n    }\n\n    uint rand = _rand(landSupplyByRarity, _seed);\n    if(rand < landSupply[_rarity][0]) {\n      return 0;\n    }\n    rand -= landSupply[_rarity][0];\n    if(rand < landSupply[_rarity][1]) {\n      return 1;\n    }\n    rand -= landSupply[_rarity][1];\n    if(rand < landSupply[_rarity][2]) {\n      return 2;\n    }\n    rand -= landSupply[_rarity][2];\n    if(rand < landSupply[_rarity][3]) {\n      return 3;\n    }\n    return 4;\n  }\n\n  // Get amount of Genesis NFTs of a farmer.\n  function _genesisAmountOf(address _farmer) private view returns(uint) {\n    uint24[100] memory genesisTokenIds = [\n      99968,163083,163084,163085,181582,181583,181587,181589,181591,181593,\n      202963,202980,202988,202989,202995,203001,203007,203010,203015,203019,\n      203024,203026,203030,203032,203035,203040,203044,203046,203049,203053,\n      203055,203058,203059,203062,203066,203070,203072,203073,203075,203082,\n      203084,203089,203091,203092,203094,203098,203101,203104,203107,203108,\n      203110,203113,203115,203118,203120,203121,203126,203129,203133,203136,\n      203138,203140,203144,203146,203151,203152,203155,203156,203158,203160,\n      203163,203165,203168,203172,203174,203177,203179,203182,203185,203186,\n      203188,203189,203193,203194,203197,203199,203201,203203,203206,203208,\n      203209,203211,203213,203216,203217,203222,203225,203229,203231,203235\n      ];\n    uint genesisAmount = 0;\n    for(uint8 idx = 0;idx < 100;idx ++) {\n      IERC721 genesisNfts = IERC721(address(AIR_NFT_ADDRESS));\n      if(genesisNfts.ownerOf(genesisTokenIds[idx]) == _farmer) {\n        genesisAmount ++;\n      }\n    }\n    return genesisAmount;\n  }\n}\n",
  "sourcePath": "C:\\Users\\Administrator\\Documents\\Adam\\game-contracts\\contracts\\Sale.sol",
  "compiler": {
    "name": "solc",
    "version": "0.8.12+commit.f00d7308.Emscripten.clang"
  },
  "schemaVersion": "3.4.6",
  "updatedAt": "2022-06-08T00:10:54.622Z",
  "devdoc": {
    "kind": "dev",
    "methods": {
      "owner()": {
        "details": "Returns the address of the current owner."
      },
      "renounceOwnership()": {
        "details": "Leaves the contract without owner. It will not be possible to call `onlyOwner` functions anymore. Can only be called by the current owner. NOTE: Renouncing ownership will leave the contract without an owner, thereby removing any functionality that is only available to the owner."
      },
      "transferOwnership(address)": {
        "details": "Transfers ownership of the contract to a new account (`newOwner`). Can only be called by the current owner."
      }
    },
    "version": 1
  },
  "userdoc": {
    "kind": "user",
    "methods": {},
    "version": 1
  }
}