{
  "contractName": "Staking",
  "abi": [
    {
      "inputs": [
        {
          "internalType": "contract IMilkToken",
          "name": "_tokenMilk",
          "type": "address"
        },
        {
          "internalType": "bool",
          "name": "_isAvailableAllocation",
          "type": "bool"
        }
      ],
      "stateMutability": "nonpayable",
      "type": "constructor"
    },
    {
      "anonymous": false,
      "inputs": [
        {
          "indexed": false,
          "internalType": "uint256",
          "name": "itemId",
          "type": "uint256"
        },
        {
          "indexed": true,
          "internalType": "address",
          "name": "owner",
          "type": "address"
        },
        {
          "indexed": false,
          "internalType": "uint256",
          "name": "amount",
          "type": "uint256"
        }
      ],
      "name": "Harvest",
      "type": "event"
    },
    {
      "anonymous": false,
      "inputs": [
        {
          "indexed": true,
          "internalType": "address",
          "name": "previousOwner",
          "type": "address"
        },
        {
          "indexed": true,
          "internalType": "address",
          "name": "newOwner",
          "type": "address"
        }
      ],
      "name": "OwnershipTransferred",
      "type": "event"
    },
    {
      "anonymous": false,
      "inputs": [
        {
          "indexed": false,
          "internalType": "uint256",
          "name": "itemId",
          "type": "uint256"
        },
        {
          "indexed": true,
          "internalType": "address",
          "name": "nftContract",
          "type": "address"
        },
        {
          "indexed": true,
          "internalType": "address",
          "name": "owner",
          "type": "address"
        },
        {
          "indexed": false,
          "internalType": "uint256",
          "name": "tokenId",
          "type": "uint256"
        }
      ],
      "name": "StakingItemCreated",
      "type": "event"
    },
    {
      "inputs": [
        {
          "internalType": "address",
          "name": "",
          "type": "address"
        }
      ],
      "name": "collectiblesOfUser",
      "outputs": [
        {
          "internalType": "uint256",
          "name": "",
          "type": "uint256"
        }
      ],
      "stateMutability": "view",
      "type": "function",
      "constant": true
    },
    {
      "inputs": [],
      "name": "endBlock",
      "outputs": [
        {
          "internalType": "uint256",
          "name": "",
          "type": "uint256"
        }
      ],
      "stateMutability": "view",
      "type": "function",
      "constant": true
    },
    {
      "inputs": [
        {
          "internalType": "address",
          "name": "",
          "type": "address"
        }
      ],
      "name": "genesisOfUser",
      "outputs": [
        {
          "internalType": "uint256",
          "name": "",
          "type": "uint256"
        }
      ],
      "stateMutability": "view",
      "type": "function",
      "constant": true
    },
    {
      "inputs": [],
      "name": "isAvailableAllocation",
      "outputs": [
        {
          "internalType": "bool",
          "name": "",
          "type": "bool"
        }
      ],
      "stateMutability": "view",
      "type": "function",
      "constant": true
    },
    {
      "inputs": [],
      "name": "isStakingAvailable",
      "outputs": [
        {
          "internalType": "bool",
          "name": "",
          "type": "bool"
        }
      ],
      "stateMutability": "view",
      "type": "function",
      "constant": true
    },
    {
      "inputs": [
        {
          "internalType": "uint256",
          "name": "",
          "type": "uint256"
        }
      ],
      "name": "items",
      "outputs": [
        {
          "internalType": "uint256",
          "name": "itemId",
          "type": "uint256"
        },
        {
          "internalType": "address",
          "name": "contractAddress",
          "type": "address"
        },
        {
          "internalType": "address",
          "name": "owner",
          "type": "address"
        },
        {
          "internalType": "uint256",
          "name": "tokenId",
          "type": "uint256"
        },
        {
          "internalType": "uint256",
          "name": "lastHarvestBlock",
          "type": "uint256"
        },
        {
          "internalType": "bool",
          "name": "isEnded",
          "type": "bool"
        }
      ],
      "stateMutability": "view",
      "type": "function",
      "constant": true
    },
    {
      "inputs": [],
      "name": "maxCollectiblesPerWallet",
      "outputs": [
        {
          "internalType": "uint256",
          "name": "",
          "type": "uint256"
        }
      ],
      "stateMutability": "view",
      "type": "function",
      "constant": true
    },
    {
      "inputs": [],
      "name": "maxGenesisPerWallet",
      "outputs": [
        {
          "internalType": "uint256",
          "name": "",
          "type": "uint256"
        }
      ],
      "stateMutability": "view",
      "type": "function",
      "constant": true
    },
    {
      "inputs": [],
      "name": "milkPerBlock",
      "outputs": [
        {
          "internalType": "uint256",
          "name": "",
          "type": "uint256"
        }
      ],
      "stateMutability": "view",
      "type": "function",
      "constant": true
    },
    {
      "inputs": [],
      "name": "owner",
      "outputs": [
        {
          "internalType": "address",
          "name": "",
          "type": "address"
        }
      ],
      "stateMutability": "view",
      "type": "function",
      "constant": true
    },
    {
      "inputs": [
        {
          "internalType": "uint256",
          "name": "",
          "type": "uint256"
        }
      ],
      "name": "pools",
      "outputs": [
        {
          "internalType": "address",
          "name": "contractAddress",
          "type": "address"
        },
        {
          "internalType": "uint256",
          "name": "allocPoint",
          "type": "uint256"
        },
        {
          "internalType": "uint256",
          "name": "milkPower",
          "type": "uint256"
        },
        {
          "internalType": "string",
          "name": "poolName",
          "type": "string"
        }
      ],
      "stateMutability": "view",
      "type": "function",
      "constant": true
    },
    {
      "inputs": [],
      "name": "renounceOwnership",
      "outputs": [],
      "stateMutability": "nonpayable",
      "type": "function"
    },
    {
      "inputs": [],
      "name": "stakingItemCount",
      "outputs": [
        {
          "internalType": "uint256",
          "name": "_value",
          "type": "uint256"
        }
      ],
      "stateMutability": "view",
      "type": "function",
      "constant": true
    },
    {
      "inputs": [],
      "name": "stakingPoolCount",
      "outputs": [
        {
          "internalType": "uint256",
          "name": "_value",
          "type": "uint256"
        }
      ],
      "stateMutability": "view",
      "type": "function",
      "constant": true
    },
    {
      "inputs": [],
      "name": "startBlock",
      "outputs": [
        {
          "internalType": "uint256",
          "name": "",
          "type": "uint256"
        }
      ],
      "stateMutability": "view",
      "type": "function",
      "constant": true
    },
    {
      "inputs": [],
      "name": "totalAllocPoint",
      "outputs": [
        {
          "internalType": "uint256",
          "name": "",
          "type": "uint256"
        }
      ],
      "stateMutability": "view",
      "type": "function",
      "constant": true
    },
    {
      "inputs": [],
      "name": "totalAmountDepositedPool",
      "outputs": [
        {
          "internalType": "uint256",
          "name": "",
          "type": "uint256"
        }
      ],
      "stateMutability": "view",
      "type": "function",
      "constant": true
    },
    {
      "inputs": [
        {
          "internalType": "address",
          "name": "newOwner",
          "type": "address"
        }
      ],
      "name": "transferOwnership",
      "outputs": [],
      "stateMutability": "nonpayable",
      "type": "function"
    },
    {
      "inputs": [
        {
          "internalType": "bool",
          "name": "_isAvailableAllocation",
          "type": "bool"
        }
      ],
      "name": "setIsAvailableAllocation",
      "outputs": [],
      "stateMutability": "nonpayable",
      "type": "function"
    },
    {
      "inputs": [
        {
          "internalType": "uint256",
          "name": "_totalAmountDepositedPool",
          "type": "uint256"
        },
        {
          "internalType": "uint256",
          "name": "_startBlock",
          "type": "uint256"
        },
        {
          "internalType": "uint256",
          "name": "_endBlock",
          "type": "uint256"
        }
      ],
      "name": "depositMilkToPool",
      "outputs": [],
      "stateMutability": "nonpayable",
      "type": "function"
    },
    {
      "inputs": [
        {
          "internalType": "uint256",
          "name": "_startBlock",
          "type": "uint256"
        },
        {
          "internalType": "uint256",
          "name": "_endBlock",
          "type": "uint256"
        }
      ],
      "name": "setPeriod",
      "outputs": [],
      "stateMutability": "nonpayable",
      "type": "function"
    },
    {
      "inputs": [
        {
          "internalType": "bool",
          "name": "_isStakingAvailable",
          "type": "bool"
        }
      ],
      "name": "setIsStakingAvailable",
      "outputs": [],
      "stateMutability": "nonpayable",
      "type": "function"
    },
    {
      "inputs": [
        {
          "internalType": "uint256",
          "name": "_value",
          "type": "uint256"
        }
      ],
      "name": "setMaxGenesisPerWallet",
      "outputs": [],
      "stateMutability": "nonpayable",
      "type": "function"
    },
    {
      "inputs": [
        {
          "internalType": "uint256",
          "name": "_value",
          "type": "uint256"
        }
      ],
      "name": "setMaxCollectiblesPerWallet",
      "outputs": [],
      "stateMutability": "nonpayable",
      "type": "function"
    },
    {
      "inputs": [
        {
          "internalType": "address",
          "name": "_contractAddress",
          "type": "address"
        },
        {
          "internalType": "uint256",
          "name": "_allocPoint",
          "type": "uint256"
        },
        {
          "internalType": "uint256[]",
          "name": "_tokenIds",
          "type": "uint256[]"
        },
        {
          "internalType": "uint256",
          "name": "_milkPower",
          "type": "uint256"
        },
        {
          "internalType": "string",
          "name": "_poolName",
          "type": "string"
        }
      ],
      "name": "addPool",
      "outputs": [],
      "stateMutability": "nonpayable",
      "type": "function"
    },
    {
      "inputs": [
        {
          "internalType": "uint256",
          "name": "_poolId",
          "type": "uint256"
        },
        {
          "internalType": "address",
          "name": "_contractAddress",
          "type": "address"
        },
        {
          "internalType": "uint256",
          "name": "_allocPoint",
          "type": "uint256"
        },
        {
          "internalType": "uint256[]",
          "name": "_tokenIds",
          "type": "uint256[]"
        },
        {
          "internalType": "uint256",
          "name": "_milkPower",
          "type": "uint256"
        },
        {
          "internalType": "string",
          "name": "_poolName",
          "type": "string"
        }
      ],
      "name": "updatePool",
      "outputs": [],
      "stateMutability": "nonpayable",
      "type": "function"
    },
    {
      "inputs": [
        {
          "internalType": "address",
          "name": "_nftContract",
          "type": "address"
        },
        {
          "internalType": "uint256",
          "name": "_tokenId",
          "type": "uint256"
        }
      ],
      "name": "stake",
      "outputs": [],
      "stateMutability": "nonpayable",
      "type": "function"
    },
    {
      "inputs": [
        {
          "internalType": "uint256",
          "name": "_poolId",
          "type": "uint256"
        }
      ],
      "name": "harvest",
      "outputs": [],
      "stateMutability": "nonpayable",
      "type": "function"
    },
    {
      "inputs": [
        {
          "internalType": "address",
          "name": "_owner",
          "type": "address"
        }
      ],
      "name": "getStakedItems",
      "outputs": [
        {
          "components": [
            {
              "internalType": "uint256",
              "name": "itemId",
              "type": "uint256"
            },
            {
              "internalType": "address",
              "name": "contractAddress",
              "type": "address"
            },
            {
              "internalType": "address",
              "name": "owner",
              "type": "address"
            },
            {
              "internalType": "uint256",
              "name": "tokenId",
              "type": "uint256"
            },
            {
              "internalType": "uint256",
              "name": "lastHarvestBlock",
              "type": "uint256"
            },
            {
              "internalType": "bool",
              "name": "isEnded",
              "type": "bool"
            }
          ],
          "internalType": "struct Staking.StakingItem[]",
          "name": "",
          "type": "tuple[]"
        }
      ],
      "stateMutability": "view",
      "type": "function",
      "constant": true
    },
    {
      "inputs": [
        {
          "internalType": "uint256",
          "name": "_itemId",
          "type": "uint256"
        }
      ],
      "name": "getPendingMilk",
      "outputs": [
        {
          "internalType": "uint256",
          "name": "",
          "type": "uint256"
        }
      ],
      "stateMutability": "view",
      "type": "function",
      "constant": true
    },
    {
      "inputs": [
        {
          "internalType": "address",
          "name": "_owner",
          "type": "address"
        },
        {
          "internalType": "uint256",
          "name": "_poolId",
          "type": "uint256"
        }
      ],
      "name": "getPendingMilkForAll",
      "outputs": [
        {
          "internalType": "uint256",
          "name": "",
          "type": "uint256"
        }
      ],
      "stateMutability": "view",
      "type": "function",
      "constant": true
    },
    {
      "inputs": [],
      "name": "getBlockNumber",
      "outputs": [
        {
          "internalType": "uint256",
          "name": "",
          "type": "uint256"
        }
      ],
      "stateMutability": "view",
      "type": "function",
      "constant": true
    },
    {
      "inputs": [
        {
          "internalType": "uint256",
          "name": "_itemId",
          "type": "uint256"
        }
      ],
      "name": "getPoolId",
      "outputs": [
        {
          "internalType": "uint256",
          "name": "",
          "type": "uint256"
        }
      ],
      "stateMutability": "view",
      "type": "function",
      "constant": true
    },
    {
      "inputs": [
        {
          "internalType": "uint256",
          "name": "_poolId",
          "type": "uint256"
        }
      ],
      "name": "getTotalStakedCount",
      "outputs": [
        {
          "internalType": "uint256",
          "name": "",
          "type": "uint256"
        }
      ],
      "stateMutability": "view",
      "type": "function",
      "constant": true
    },
    {
      "inputs": [
        {
          "internalType": "uint256",
          "name": "_poolId",
          "type": "uint256"
        }
      ],
      "name": "getTotalMilkPower",
      "outputs": [
        {
          "internalType": "uint256",
          "name": "",
          "type": "uint256"
        }
      ],
      "stateMutability": "view",
      "type": "function",
      "constant": true
    },
    {
      "inputs": [
        {
          "internalType": "uint256",
          "name": "_poolId",
          "type": "uint256"
        },
        {
          "internalType": "address",
          "name": "_owner",
          "type": "address"
        }
      ],
      "name": "getMyMilkPower",
      "outputs": [
        {
          "internalType": "uint256",
          "name": "",
          "type": "uint256"
        }
      ],
      "stateMutability": "view",
      "type": "function",
      "constant": true
    },
    {
      "inputs": [
        {
          "internalType": "uint256",
          "name": "_poolId",
          "type": "uint256"
        }
      ],
      "name": "getDailyMilkRate",
      "outputs": [
        {
          "internalType": "uint256",
          "name": "",
          "type": "uint256"
        }
      ],
      "stateMutability": "view",
      "type": "function",
      "constant": true
    },
    {
      "inputs": [
        {
          "internalType": "uint256",
          "name": "_itemId",
          "type": "uint256"
        }
      ],
      "name": "getLastHarvestBlock",
      "outputs": [
        {
          "internalType": "uint256",
          "name": "",
          "type": "uint256"
        }
      ],
      "stateMutability": "view",
      "type": "function",
      "constant": true
    },
    {
      "inputs": [
        {
          "internalType": "uint256",
          "name": "_itemId",
          "type": "uint256"
        },
        {
          "internalType": "uint256",
          "name": "_poolId",
          "type": "uint256"
        }
      ],
      "name": "unstake",
      "outputs": [],
      "stateMutability": "nonpayable",
      "type": "function"
    },
    {
      "inputs": [],
      "name": "withDraw",
      "outputs": [],
      "stateMutability": "nonpayable",
      "type": "function"
    }
  ],
  "bytecode": "0x60806040523480156200001157600080fd5b5060405162004f9738038062004f97833981810160405281019062000037919062000213565b6001600081905550620000716200005c62000117640100000000026401000000009004565b6200011f640100000000026401000000009004565b81600460006101000a81548173ffffffffffffffffffffffffffffffffffffffff021916908373ffffffffffffffffffffffffffffffffffffffff160217905550600060068190555060006005819055506005600781905550600a600881905550600060098190555080600c60016101000a81548160ff0219169083151502179055506000600c60006101000a81548160ff0219169083151502179055505050620002dc565b600033905090565b6000600160009054906101000a900473ffffffffffffffffffffffffffffffffffffffff16905081600160006101000a81548173ffffffffffffffffffffffffffffffffffffffff021916908373ffffffffffffffffffffffffffffffffffffffff1602179055508173ffffffffffffffffffffffffffffffffffffffff168173ffffffffffffffffffffffffffffffffffffffff167f8be0079c531659141344cd1fd0a4f28419497f9722a3daafe3b4186f6b6457e060405160405180910390a35050565b600081519050620001f681620002a8565b92915050565b6000815190506200020d81620002c2565b92915050565b600080604083850312156200022757600080fd5b60006200023785828601620001fc565b92505060206200024a85828601620001e5565b9150509250929050565b6000620002618262000288565b9050919050565b60008115159050919050565b6000620002818262000254565b9050919050565b600073ffffffffffffffffffffffffffffffffffffffff82169050919050565b620002b38162000268565b8114620002bf57600080fd5b50565b620002cd8162000274565b8114620002d957600080fd5b50565b614cab80620002ec6000396000f3fe608060405234801561001057600080fd5b5060043610610265576000357c010000000000000000000000000000000000000000000000000000000090048063811e1cf911610158578063adc9772e116100d5578063d7cc7e9511610099578063d7cc7e9514610716578063dc696d2b14610734578063ddc6326214610764578063e7ef0fdc14610780578063f2fde38b146107b057610265565b8063adc9772e14610659578063bb7a805414610675578063bfb231d214610693578063c0ea87bd146106c8578063d5dfc265146106e657610265565b80638da5cb5b1161011c5780638da5cb5b146105a05780639c5a8540146105be5780639e2c8a5b146105ee578063ac4afa381461060a578063adc661a71461063d57610265565b8063811e1cf9146104d45780638197f205146104f2578063872c7a50146105105780638830c406146105405780638a51401f1461057057610265565b80633b80c3e1116101e6578063558a8622116101aa578063558a8622146104445780635c4943fe146104605780636f6d474114610490578063715018a6146104ac5780637506f534146104b657610265565b80633b80c3e1146103a057806342cbb15c146103bc57806348cd4cb1146103da5780634b8e4ace146103f85780635119913c1461041457610265565b806315a731971161022d57806315a73197146102e857806315e9afea1461030457806317caf6f11461033457806323171529146103525780632dd96be91461038257610265565b806303c5b1dc1461026a578063083c6323146102865780630dea2d5c146102a45780630fdb1c10146102c2578063112835cf146102cc575b600080fd5b610284600480360381019061027f9190613b7d565b6107cc565b005b61028e61090b565b60405161029b9190614389565b60405180910390f35b6102ac610911565b6040516102b9919061410e565b60405180910390f35b6102ca610924565b005b6102e660048036038101906102e191906139de565b610ba0565b005b61030260048036038101906102fd91906139de565b610c39565b005b61031e600480360381019061031991906138a6565b610cd2565b60405161032b9190614389565b60405180910390f35b61033c610cea565b6040516103499190614389565b60405180910390f35b61036c60048036038101906103679190613a30565b610cf0565b6040516103799190614389565b60405180910390f35b61038a610e0d565b6040516103979190614389565b60405180910390f35b6103ba60048036038101906103b59190613a30565b610e19565b005b6103c4610ee2565b6040516103d19190614389565b60405180910390f35b6103e2610eea565b6040516103ef9190614389565b60405180910390f35b610412600480360381019061040d9190613bb9565b610ef0565b005b61042e60048036038101906104299190613a82565b611235565b60405161043b9190614389565b60405180910390f35b61045e60048036038101906104599190613a30565b6113e7565b005b61047a60048036038101906104759190613a30565b6114b0565b6040516104879190614389565b60405180910390f35b6104aa60048036038101906104a59190613934565b611632565b005b6104b461180c565b005b6104be611894565b6040516104cb9190614389565b60405180910390f35b6104dc61189a565b6040516104e99190614389565b60405180910390f35b6104fa6118a6565b6040516105079190614389565b60405180910390f35b61052a60048036038101906105259190613a30565b6118ac565b6040516105379190614389565b60405180910390f35b61055a600480360381019061055591906138f8565b6118ea565b6040516105679190614389565b60405180910390f35b61058a600480360381019061058591906138a6565b611a7d565b6040516105979190614389565b60405180910390f35b6105a8611a95565b6040516105b59190614025565b60405180910390f35b6105d860048036038101906105d39190613a30565b611abf565b6040516105e59190614389565b60405180910390f35b61060860048036038101906106039190613b7d565b611b21565b005b610624600480360381019061061f9190613a30565b611d4a565b60405161063494939291906140a0565b60405180910390f35b61065760048036038101906106529190613abe565b611e22565b005b610673600480360381019061066e91906138f8565b61205a565b005b61067d61264d565b60405161068a9190614389565b60405180910390f35b6106ad60048036038101906106a89190613a30565b612653565b6040516106bf969594939291906143a4565b60405180910390f35b6106d06126dc565b6040516106dd9190614389565b60405180910390f35b61070060048036038101906106fb91906138a6565b6126e2565b60405161070d91906140ec565b60405180910390f35b61071e612a6a565b60405161072b919061410e565b60405180910390f35b61074e60048036038101906107499190613a30565b612a7d565b60405161075b9190614389565b60405180910390f35b61077e60048036038101906107799190613a30565b612aa2565b005b61079a60048036038101906107959190613a30565b612c1b565b6040516107a79190614389565b60405180910390f35b6107ca60048036038101906107c591906138a6565b612cfe565b005b6107d4612df6565b73ffffffffffffffffffffffffffffffffffffffff166107f2611a95565b73ffffffffffffffffffffffffffffffffffffffff1614610848576040517f08c379a000000000000000000000000000000000000000000000000000000000815260040161083f90614269565b60405180910390fd5b43811161088a576040517f08c379a000000000000000000000000000000000000000000000000000000000815260040161088190614349565b60405180910390fd5b8181116108cc576040517f08c379a00000000000000000000000000000000000000000000000000000000081526004016108c390614149565b60405180910390fd5b81816108d891906145ba565b600954620f42406108e99190614560565b6108f3919061452f565b60058190555081600a8190555080600b819055505050565b600b5481565b600c60009054906101000a900460ff1681565b61092c612df6565b73ffffffffffffffffffffffffffffffffffffffff1661094a611a95565b73ffffffffffffffffffffffffffffffffffffffff16146109a0576040517f08c379a000000000000000000000000000000000000000000000000000000000815260040161099790614269565b60405180910390fd5b600b5443116109e4576040517f08c379a00000000000000000000000000000000000000000000000000000000081526004016109db90614249565b60405180910390fd5b6000600460009054906101000a900473ffffffffffffffffffffffffffffffffffffffff1673ffffffffffffffffffffffffffffffffffffffff166370a08231306040518263ffffffff167c0100000000000000000000000000000000000000000000000000000000028152600401610a5d9190614025565b60206040518083038186803b158015610a7557600080fd5b505afa158015610a89573d6000803e3d6000fd5b505050506040513d601f19601f82011682018060405250810190610aad9190613a59565b9050600460009054906101000a900473ffffffffffffffffffffffffffffffffffffffff1673ffffffffffffffffffffffffffffffffffffffff1663a9059cbb610af5611a95565b836040518363ffffffff167c0100000000000000000000000000000000000000000000000000000000028152600401610b2f929190614077565b602060405180830381600087803b158015610b4957600080fd5b505af1158015610b5d573d6000803e3d6000fd5b505050506040513d601f19601f82011682018060405250810190610b819190613a07565b506000600c60006101000a81548160ff02191690831515021790555050565b610ba8612df6565b73ffffffffffffffffffffffffffffffffffffffff16610bc6611a95565b73ffffffffffffffffffffffffffffffffffffffff1614610c1c576040517f08c379a0000000000000000000000000000000000000000000000000000000008152600401610c1390614269565b60405180910390fd5b80600c60016101000a81548160ff02191690831515021790555050565b610c41612df6565b73ffffffffffffffffffffffffffffffffffffffff16610c5f611a95565b73ffffffffffffffffffffffffffffffffffffffff1614610cb5576040517f08c379a0000000000000000000000000000000000000000000000000000000008152600401610cac90614269565b60405180910390fd5b80600c60006101000a81548160ff02191690831515021790555050565b600f6020528060005260406000206000915090505481565b60065481565b600080600090506000600190505b610d086003612dfe565b8111610e035760001515600e600083815260200190815260200160002060050160009054906101000a900460ff161515148015610ddc5750600d600085815260200190815260200160002060000160009054906101000a900473ffffffffffffffffffffffffffffffffffffffff1673ffffffffffffffffffffffffffffffffffffffff16600e600083815260200190815260200160002060010160009054906101000a900473ffffffffffffffffffffffffffffffffffffffff1673ffffffffffffffffffffffffffffffffffffffff16145b15610df0578180610dec90614705565b9250505b8080610dfb90614705565b915050610cfe565b5080915050919050565b60028060000154905081565b610e21612df6565b73ffffffffffffffffffffffffffffffffffffffff16610e3f611a95565b73ffffffffffffffffffffffffffffffffffffffff1614610e95576040517f08c379a0000000000000000000000000000000000000000000000000000000008152600401610e8c90614269565b60405180910390fd5b60008111610ed8576040517f08c379a0000000000000000000000000000000000000000000000000000000008152600401610ecf90614309565b60405180910390fd5b8060088190555050565b600043905090565b600a5481565b610ef8612df6565b73ffffffffffffffffffffffffffffffffffffffff16610f16611a95565b73ffffffffffffffffffffffffffffffffffffffff1614610f6c576040517f08c379a0000000000000000000000000000000000000000000000000000000008152600401610f6390614269565b60405180910390fd5b82600460009054906101000a900473ffffffffffffffffffffffffffffffffffffffff1673ffffffffffffffffffffffffffffffffffffffff166370a08231610fb3611a95565b6040518263ffffffff167c0100000000000000000000000000000000000000000000000000000000028152600401610feb9190614025565b60206040518083038186803b15801561100357600080fd5b505afa158015611017573d6000803e3d6000fd5b505050506040513d601f19601f8201168201806040525081019061103b9190613a59565b101561107c576040517f08c379a000000000000000000000000000000000000000000000000000000000815260040161107390614209565b60405180910390fd5b4381116110be576040517f08c379a00000000000000000000000000000000000000000000000000000000081526004016110b590614349565b60405180910390fd5b818111611100576040517f08c379a00000000000000000000000000000000000000000000000000000000081526004016110f790614149565b60405180910390fd5b600460009054906101000a900473ffffffffffffffffffffffffffffffffffffffff1673ffffffffffffffffffffffffffffffffffffffff166323b872dd611146611a95565b30866040518463ffffffff167c010000000000000000000000000000000000000000000000000000000002815260040161118293929190614040565b602060405180830381600087803b15801561119c57600080fd5b505af11580156111b0573d6000803e3d6000fd5b505050506040513d601f19601f820116820180604052508101906111d49190613a07565b508260098190555081600a8190555080600b8190555081816111f691906145ba565b83620f42406112059190614560565b61120f919061452f565b6005819055506001600c60006101000a81548160ff021916908315150217905550505050565b600080600090506000600190505b61124d6003612dfe565b81116113b55760001515600e600083815260200190815260200160002060050160009054906101000a900460ff1615151480156113215750600d600086815260200190815260200160002060000160009054906101000a900473ffffffffffffffffffffffffffffffffffffffff1673ffffffffffffffffffffffffffffffffffffffff16600e600083815260200190815260200160002060010160009054906101000a900473ffffffffffffffffffffffffffffffffffffffff1673ffffffffffffffffffffffffffffffffffffffff16145b801561138e57508373ffffffffffffffffffffffffffffffffffffffff16600e600083815260200190815260200160002060020160009054906101000a900473ffffffffffffffffffffffffffffffffffffffff1673ffffffffffffffffffffffffffffffffffffffff16145b156113a257818061139e90614705565b9250505b80806113ad90614705565b915050611243565b506000600d600086815260200190815260200160002060030154826113da9190614560565b9050809250505092915050565b6113ef612df6565b73ffffffffffffffffffffffffffffffffffffffff1661140d611a95565b73ffffffffffffffffffffffffffffffffffffffff1614611463576040517f08c379a000000000000000000000000000000000000000000000000000000000815260040161145a90614269565b60405180910390fd5b600081116114a6576040517f08c379a000000000000000000000000000000000000000000000000000000000815260040161149d90614309565b60405180910390fd5b8060078190555050565b600080600e60008481526020019081526020016000209050600080600b544311156114df57600b5490506114e3565b4390505b600c60019054906101000a900460ff161561156357600061150386612c1b565b9050600061151082610cf0565b90508060065461151f89612e0c565b87600401548661152f91906145ba565b60055461153c9190614560565b6115469190614560565b611550919061452f565b61155a919061452f565b93505050611627565b600061156e86612c1b565b9050600080600190505b6115826002612dfe565b81116115d857600061159382610cf0565b9050600d600083815260200190815260200160002060030154816115b79190614560565b836115c291906144d9565b92505080806115d090614705565b915050611578565b5080600d60008481526020019081526020016000206003015486600401548561160191906145ba565b60055461160e9190614560565b6116189190614560565b611622919061452f565b935050505b819350505050919050565b61163a612df6565b73ffffffffffffffffffffffffffffffffffffffff16611658611a95565b73ffffffffffffffffffffffffffffffffffffffff16146116ae576040517f08c379a00000000000000000000000000000000000000000000000000000000081526004016116a590614269565b60405180910390fd5b6116b86002612f01565b60006116c46002612dfe565b90506040518060a001604052808873ffffffffffffffffffffffffffffffffffffffff168152602001878152602001868680806020026020016040519081016040528093929190818152602001838360200280828437600081840152601f19601f82011690508083019250505050505050815260200184815260200183815250600d600083815260200190815260200160002060008201518160000160006101000a81548173ffffffffffffffffffffffffffffffffffffffff021916908373ffffffffffffffffffffffffffffffffffffffff1602179055506020820151816001015560408201518160020190805190602001906117c4929190613622565b506060820151816003015560808201518160040190805190602001906117eb92919061366f565b50905050856006546117fd91906144d9565b60068190555050505050505050565b611814612df6565b73ffffffffffffffffffffffffffffffffffffffff16611832611a95565b73ffffffffffffffffffffffffffffffffffffffff1614611888576040517f08c379a000000000000000000000000000000000000000000000000000000000815260040161187f90614269565b60405180910390fd5b6118926000612f17565b565b60055481565b60038060000154905081565b60085481565b6000806118b883610cf0565b90506000600d600085815260200190815260200160002060030154826118de9190614560565b90508092505050919050565b600080600090506000600190505b6119026003612dfe565b8111611a72578473ffffffffffffffffffffffffffffffffffffffff16600e600083815260200190815260200160002060020160009054906101000a900473ffffffffffffffffffffffffffffffffffffffff1673ffffffffffffffffffffffffffffffffffffffff161480156119a0575060001515600e600083815260200190815260200160002060050160009054906101000a900460ff161515145b8015611a435750600e600082815260200190815260200160002060010160009054906101000a900473ffffffffffffffffffffffffffffffffffffffff1673ffffffffffffffffffffffffffffffffffffffff16600d600086815260200190815260200160002060000160009054906101000a900473ffffffffffffffffffffffffffffffffffffffff1673ffffffffffffffffffffffffffffffffffffffff16145b15611a5f57611a51816114b0565b82611a5c91906144d9565b91505b8080611a6a90614705565b9150506118f8565b508091505092915050565b60106020528060005260406000206000915090505481565b6000600160009054906101000a900473ffffffffffffffffffffffffffffffffffffffff16905090565b600080611acb836118ac565b90506000808214611b17578160646018603c6014600554611aec9190614560565b611af69190614560565b611b009190614560565b611b0a9190614560565b611b14919061452f565b90505b8092505050919050565b6000600e600084815260200190815260200160002090503373ffffffffffffffffffffffffffffffffffffffff168160020160009054906101000a900473ffffffffffffffffffffffffffffffffffffffff1673ffffffffffffffffffffffffffffffffffffffff1614611bca576040517f08c379a0000000000000000000000000000000000000000000000000000000008152600401611bc190614229565b60405180910390fd5b600015158160050160009054906101000a900460ff16151514611c22576040517f08c379a0000000000000000000000000000000000000000000000000000000008152600401611c19906142a9565b60405180910390fd5b611c2c8333612fdd565b8060010160009054906101000a900473ffffffffffffffffffffffffffffffffffffffff1673ffffffffffffffffffffffffffffffffffffffff166323b872dd303384600301546040518463ffffffff167c0100000000000000000000000000000000000000000000000000000000028152600401611cad93929190614040565b600060405180830381600087803b158015611cc757600080fd5b505af1158015611cdb573d6000803e3d6000fd5b5050505060018160050160006101000a81548160ff0219169083151502179055506001821415611d225760086000815480929190611d1890614678565b9190505550611d45565b6002821415611d445760076000815480929190611d3e90614678565b91905055505b5b505050565b600d6020528060005260406000206000915090508060000160009054906101000a900473ffffffffffffffffffffffffffffffffffffffff1690806001015490806003015490806004018054611d9f906146a2565b80601f0160208091040260200160405190810160405280929190818152602001828054611dcb906146a2565b8015611e185780601f10611ded57610100808354040283529160200191611e18565b820191906000526020600020905b815481529060010190602001808311611dfb57829003601f168201915b5050505050905084565b611e2a612df6565b73ffffffffffffffffffffffffffffffffffffffff16611e48611a95565b73ffffffffffffffffffffffffffffffffffffffff1614611e9e576040517f08c379a0000000000000000000000000000000000000000000000000000000008152600401611e9590614269565b60405180910390fd5b611ea86002612dfe565b871115611eea576040517f08c379a0000000000000000000000000000000000000000000000000000000008152600401611ee1906142c9565b60405180910390fd5b600d600088815260200190815260200160002060010154600654611f0e91906145ba565b6006819055506040518060a001604052808773ffffffffffffffffffffffffffffffffffffffff168152602001868152602001858580806020026020016040519081016040528093929190818152602001838360200280828437600081840152601f19601f82011690508083019250505050505050815260200183815260200182815250600d600089815260200190815260200160002060008201518160000160006101000a81548173ffffffffffffffffffffffffffffffffffffffff021916908373ffffffffffffffffffffffffffffffffffffffff160217905550602082015181600101556040820151816002019080519060200190612012929190613622565b5060608201518160030155608082015181600401908051906020019061203992919061366f565b509050508460065461204b91906144d9565b60068190555050505050505050565b600260005414156120a0576040517f08c379a000000000000000000000000000000000000000000000000000000000815260040161209790614329565b60405180910390fd5b60026000819055503382828273ffffffffffffffffffffffffffffffffffffffff168273ffffffffffffffffffffffffffffffffffffffff16636352211e836040518263ffffffff167c01000000000000000000000000000000000000000000000000000000000281526004016121179190614389565b60206040518083038186803b15801561212f57600080fd5b505afa158015612143573d6000803e3d6000fd5b505050506040513d601f19601f8201168201806040525081019061216791906138cf565b73ffffffffffffffffffffffffffffffffffffffff16146121bd576040517f08c379a00000000000000000000000000000000000000000000000000000000081526004016121b490614369565b60405180910390fd5b600754600f60008573ffffffffffffffffffffffffffffffffffffffff1673ffffffffffffffffffffffffffffffffffffffff168152602001908152602001600020541115612241576040517f08c379a000000000000000000000000000000000000000000000000000000000815260040161223890614289565b60405180910390fd5b600854601060008573ffffffffffffffffffffffffffffffffffffffff1673ffffffffffffffffffffffffffffffffffffffff1681526020019081526020016000205411156122c5576040517f08c379a00000000000000000000000000000000000000000000000000000000081526004016122bc906141c9565b60405180910390fd5b600a5443101580156122d95750600b544311155b80156122f8575060011515600c60009054906101000a900460ff161515145b612337576040517f08c379a000000000000000000000000000000000000000000000000000000000815260040161232e906141e9565b60405180910390fd5b6123416003612f01565b600061234d6003612dfe565b90506040518060c001604052808281526020018773ffffffffffffffffffffffffffffffffffffffff1681526020013373ffffffffffffffffffffffffffffffffffffffff16815260200186815260200143815260200160001515815250600e60008381526020019081526020016000206000820151816000015560208201518160010160006101000a81548173ffffffffffffffffffffffffffffffffffffffff021916908373ffffffffffffffffffffffffffffffffffffffff16021790555060408201518160020160006101000a81548173ffffffffffffffffffffffffffffffffffffffff021916908373ffffffffffffffffffffffffffffffffffffffff160217905550606082015181600301556080820151816004015560a08201518160050160006101000a81548160ff0219169083151502179055509050508573ffffffffffffffffffffffffffffffffffffffff166323b872dd3330886040518463ffffffff167c01000000000000000000000000000000000000000000000000000000000281526004016124e693929190614040565b600060405180830381600087803b15801561250057600080fd5b505af1158015612514573d6000803e3d6000fd5b5050505061252181613517565b1561258057600f60003373ffffffffffffffffffffffffffffffffffffffff1673ffffffffffffffffffffffffffffffffffffffff168152602001908152602001600020600081548092919061257690614705565b91905055506125d6565b601060003373ffffffffffffffffffffffffffffffffffffffff1673ffffffffffffffffffffffffffffffffffffffff16815260200190815260200160002060008154809291906125d090614705565b91905055505b3373ffffffffffffffffffffffffffffffffffffffff168673ffffffffffffffffffffffffffffffffffffffff167f4249649a2f5c977056f4db60e40a673eabf996b3ec3dc5b5b5713971888e60208388604051612635929190614405565b60405180910390a35050505060016000819055505050565b60095481565b600e6020528060005260406000206000915090508060000154908060010160009054906101000a900473ffffffffffffffffffffffffffffffffffffffff16908060020160009054906101000a900473ffffffffffffffffffffffffffffffffffffffff16908060030154908060040154908060050160009054906101000a900460ff16905086565b60075481565b606060006126f06003612dfe565b90506000806000600190505b8381116127c357600e600082815260200190815260200160002060020160009054906101000a900473ffffffffffffffffffffffffffffffffffffffff1673ffffffffffffffffffffffffffffffffffffffff168673ffffffffffffffffffffffffffffffffffffffff1614801561279b575060001515600e600083815260200190815260200160002060050160009054906101000a900460ff161515145b156127b0576001836127ad91906144d9565b92505b80806127bb90614705565b9150506126fc565b5060008267ffffffffffffffff811115612806577f4e487b7100000000000000000000000000000000000000000000000000000000600052604160045260246000fd5b60405190808252806020026020018201604052801561283f57816020015b61282c6136f5565b8152602001906001900390816128245790505b5090506000600190505b848111612a5d57600e600082815260200190815260200160002060020160009054906101000a900473ffffffffffffffffffffffffffffffffffffffff1673ffffffffffffffffffffffffffffffffffffffff168773ffffffffffffffffffffffffffffffffffffffff161480156128e8575060001515600e600083815260200190815260200160002060050160009054906101000a900460ff161515145b15612a4a576000600e60008381526020019081526020016000209050806040518060c0016040529081600082015481526020016001820160009054906101000a900473ffffffffffffffffffffffffffffffffffffffff1673ffffffffffffffffffffffffffffffffffffffff1673ffffffffffffffffffffffffffffffffffffffff1681526020016002820160009054906101000a900473ffffffffffffffffffffffffffffffffffffffff1673ffffffffffffffffffffffffffffffffffffffff1673ffffffffffffffffffffffffffffffffffffffff16815260200160038201548152602001600482015481526020016005820160009054906101000a900460ff161515151581525050838581518110612a2e577f4e487b7100000000000000000000000000000000000000000000000000000000600052603260045260246000fd5b6020026020010181905250600184612a4691906144d9565b9350505b8080612a5590614705565b915050612849565b5080945050505050919050565b600c60019054906101000a900460ff1681565b600080600e600084815260200190815260200160002090508060040154915050919050565b6000600190505b612ab36003612dfe565b8111612c17573373ffffffffffffffffffffffffffffffffffffffff16600e600083815260200190815260200160002060020160009054906101000a900473ffffffffffffffffffffffffffffffffffffffff1673ffffffffffffffffffffffffffffffffffffffff16148015612b51575060001515600e600083815260200190815260200160002060050160009054906101000a900460ff161515145b8015612bf45750600e600082815260200190815260200160002060010160009054906101000a900473ffffffffffffffffffffffffffffffffffffffff1673ffffffffffffffffffffffffffffffffffffffff16600d600084815260200190815260200160002060000160009054906101000a900473ffffffffffffffffffffffffffffffffffffffff1673ffffffffffffffffffffffffffffffffffffffff16145b15612c0457612c038133612fdd565b5b8080612c0f90614705565b915050612aa9565b5050565b600080600090506000600190505b612c336002612dfe565b8111612cf457600e600085815260200190815260200160002060010160009054906101000a900473ffffffffffffffffffffffffffffffffffffffff1673ffffffffffffffffffffffffffffffffffffffff16600d600083815260200190815260200160002060000160009054906101000a900473ffffffffffffffffffffffffffffffffffffffff1673ffffffffffffffffffffffffffffffffffffffff161415612ce157809150612cf4565b8080612cec90614705565b915050612c29565b5080915050919050565b612d06612df6565b73ffffffffffffffffffffffffffffffffffffffff16612d24611a95565b73ffffffffffffffffffffffffffffffffffffffff1614612d7a576040517f08c379a0000000000000000000000000000000000000000000000000000000008152600401612d7190614269565b60405180910390fd5b600073ffffffffffffffffffffffffffffffffffffffff168173ffffffffffffffffffffffffffffffffffffffff161415612dea576040517f08c379a0000000000000000000000000000000000000000000000000000000008152600401612de190614169565b60405180910390fd5b612df381612f17565b50565b600033905090565b600081600001549050919050565b600080600190505b612e1e6002612dfe565b8111612ef657600e600084815260200190815260200160002060010160009054906101000a900473ffffffffffffffffffffffffffffffffffffffff1673ffffffffffffffffffffffffffffffffffffffff16600d600083815260200190815260200160002060000160009054906101000a900473ffffffffffffffffffffffffffffffffffffffff1673ffffffffffffffffffffffffffffffffffffffff161415612ee357600d600082815260200190815260200160002060010154915050612efc565b8080612eee90614705565b915050612e14565b50600090505b919050565b6001816000016000828254019250508190555050565b6000600160009054906101000a900473ffffffffffffffffffffffffffffffffffffffff16905081600160006101000a81548173ffffffffffffffffffffffffffffffffffffffff021916908373ffffffffffffffffffffffffffffffffffffffff1602179055508173ffffffffffffffffffffffffffffffffffffffff168173ffffffffffffffffffffffffffffffffffffffff167f8be0079c531659141344cd1fd0a4f28419497f9722a3daafe3b4186f6b6457e060405160405180910390a35050565b6000600e60008481526020019081526020016000209050612ffe6003612dfe565b831115613040576040517f08c379a0000000000000000000000000000000000000000000000000000000008152600401613037906141a9565b60405180910390fd5b600e600084815260200190815260200160002060020160009054906101000a900473ffffffffffffffffffffffffffffffffffffffff1673ffffffffffffffffffffffffffffffffffffffff168273ffffffffffffffffffffffffffffffffffffffff16146130e4576040517f08c379a00000000000000000000000000000000000000000000000000000000081526004016130db90614189565b60405180910390fd5b4381600401541061312a576040517f08c379a0000000000000000000000000000000000000000000000000000000008152600401613121906142e9565b60405180910390fd5b6000600b5443111561314057600b549050613144565b4390505b6000600c60019054906101000a900460ff16156131c657600061316686612c1b565b9050600061317382610cf0565b90508060065461318289612e0c565b87600401548761319291906145ba565b60055461319f9190614560565b6131a99190614560565b6131b3919061452f565b6131bd919061452f565b9250505061328a565b60006131d186612c1b565b9050600080600190505b6131e56002612dfe565b811161323b5760006131f682610cf0565b9050600d6000838152602001908152602001600020600301548161321a9190614560565b8361322591906144d9565b925050808061323390614705565b9150506131db565b5080600d60008481526020019081526020016000206003015486600401548661326491906145ba565b6005546132719190614560565b61327b9190614560565b613285919061452f565b925050505b80600460009054906101000a900473ffffffffffffffffffffffffffffffffffffffff1673ffffffffffffffffffffffffffffffffffffffff166370a08231306040518263ffffffff167c01000000000000000000000000000000000000000000000000000000000281526004016133029190614025565b60206040518083038186803b15801561331a57600080fd5b505afa15801561332e573d6000803e3d6000fd5b505050506040513d601f19601f820116820180604052508101906133529190613a59565b1015613393576040517f08c379a000000000000000000000000000000000000000000000000000000000815260040161338a90614129565b60405180910390fd5b600460009054906101000a900473ffffffffffffffffffffffffffffffffffffffff1673ffffffffffffffffffffffffffffffffffffffff1663a9059cbb8460020160009054906101000a900473ffffffffffffffffffffffffffffffffffffffff1664e8d4a51000846134079190614560565b6040518363ffffffff167c0100000000000000000000000000000000000000000000000000000000028152600401613440929190614077565b602060405180830381600087803b15801561345a57600080fd5b505af115801561346e573d6000803e3d6000fd5b505050506040513d601f19601f820116820180604052508101906134929190613a07565b508183600401819055508260020160009054906101000a900473ffffffffffffffffffffffffffffffffffffffff1673ffffffffffffffffffffffffffffffffffffffff167f393ccd03ff98115189a2796d79ffa176e434468dbeea90a87972324be8c507188683604051613508929190614405565b60405180910390a25050505050565b600080600190505b6135296002612dfe565b811161361757600e600084815260200190815260200160002060010160009054906101000a900473ffffffffffffffffffffffffffffffffffffffff1673ffffffffffffffffffffffffffffffffffffffff16600d600083815260200190815260200160002060000160009054906101000a900473ffffffffffffffffffffffffffffffffffffffff1673ffffffffffffffffffffffffffffffffffffffff161415613604576000600d600083815260200190815260200160002060020180549050146135fa57600191505061361d565b600091505061361d565b808061360f90614705565b91505061351f565b50600090505b919050565b82805482825590600052602060002090810192821561365e579160200282015b8281111561365d578251825591602001919060010190613642565b5b50905061366b9190613759565b5090565b82805461367b906146a2565b90600052602060002090601f01602090048101928261369d57600085556136e4565b82601f106136b657805160ff19168380011785556136e4565b828001600101855582156136e4579182015b828111156136e35782518255916020019190600101906136c8565b5b5090506136f19190613759565b5090565b6040518060c0016040528060008152602001600073ffffffffffffffffffffffffffffffffffffffff168152602001600073ffffffffffffffffffffffffffffffffffffffff16815260200160008152602001600081526020016000151581525090565b5b8082111561377257600081600090555060010161375a565b5090565b600061378961378484614453565b61442e565b9050828152602081018484840111156137a157600080fd5b6137ac848285614636565b509392505050565b6000813590506137c381614c30565b92915050565b6000815190506137d881614c30565b92915050565b60008083601f8401126137f057600080fd5b8235905067ffffffffffffffff81111561380957600080fd5b60208301915083602082028301111561382157600080fd5b9250929050565b60008135905061383781614c47565b92915050565b60008151905061384c81614c47565b92915050565b600082601f83011261386357600080fd5b8135613873848260208601613776565b91505092915050565b60008135905061388b81614c5e565b92915050565b6000815190506138a081614c5e565b92915050565b6000602082840312156138b857600080fd5b60006138c6848285016137b4565b91505092915050565b6000602082840312156138e157600080fd5b60006138ef848285016137c9565b91505092915050565b6000806040838503121561390b57600080fd5b6000613919858286016137b4565b925050602061392a8582860161387c565b9150509250929050565b60008060008060008060a0878903121561394d57600080fd5b600061395b89828a016137b4565b965050602061396c89828a0161387c565b955050604087013567ffffffffffffffff81111561398957600080fd5b61399589828a016137de565b945094505060606139a889828a0161387c565b925050608087013567ffffffffffffffff8111156139c557600080fd5b6139d189828a01613852565b9150509295509295509295565b6000602082840312156139f057600080fd5b60006139fe84828501613828565b91505092915050565b600060208284031215613a1957600080fd5b6000613a278482850161383d565b91505092915050565b600060208284031215613a4257600080fd5b6000613a508482850161387c565b91505092915050565b600060208284031215613a6b57600080fd5b6000613a7984828501613891565b91505092915050565b60008060408385031215613a9557600080fd5b6000613aa38582860161387c565b9250506020613ab4858286016137b4565b9150509250929050565b600080600080600080600060c0888a031215613ad957600080fd5b6000613ae78a828b0161387c565b9750506020613af88a828b016137b4565b9650506040613b098a828b0161387c565b955050606088013567ffffffffffffffff811115613b2657600080fd5b613b328a828b016137de565b94509450506080613b458a828b0161387c565b92505060a088013567ffffffffffffffff811115613b6257600080fd5b613b6e8a828b01613852565b91505092959891949750929550565b60008060408385031215613b9057600080fd5b6000613b9e8582860161387c565b9250506020613baf8582860161387c565b9150509250929050565b600080600060608486031215613bce57600080fd5b6000613bdc8682870161387c565b9350506020613bed8682870161387c565b9250506040613bfe8682870161387c565b9150509250925092565b6000613c148383613f8c565b60c08301905092915050565b613c29816145ee565b82525050565b613c38816145ee565b82525050565b6000613c4982614494565b613c5381856144b7565b9350613c5e83614484565b8060005b83811015613c8f578151613c768882613c08565b9750613c81836144aa565b925050600181019050613c62565b5085935050505092915050565b613ca581614600565b82525050565b613cb481614600565b82525050565b6000613cc58261449f565b613ccf81856144c8565b9350613cdf818560208601614645565b613ce88161480a565b840191505092915050565b6000613d006023836144c8565b9150613d0b8261481b565b604082019050919050565b6000613d236034836144c8565b9150613d2e8261486a565b604082019050919050565b6000613d466026836144c8565b9150613d51826148b9565b604082019050919050565b6000613d696016836144c8565b9150613d7482614908565b602082019050919050565b6000613d8c600f836144c8565b9150613d9782614931565b602082019050919050565b6000613daf602d836144c8565b9150613dba8261495a565b604082019050919050565b6000613dd26017836144c8565b9150613ddd826149a9565b602082019050919050565b6000613df56023836144c8565b9150613e00826149d2565b604082019050919050565b6000613e186011836144c8565b9150613e2382614a21565b602082019050919050565b6000613e3b6017836144c8565b9150613e4682614a4a565b602082019050919050565b6000613e5e6020836144c8565b9150613e6982614a73565b602082019050919050565b6000613e816028836144c8565b9150613e8c82614a9c565b604082019050919050565b6000613ea46027836144c8565b9150613eaf82614aeb565b604082019050919050565b6000613ec7600e836144c8565b9150613ed282614b3a565b602082019050919050565b6000613eea6014836144c8565b9150613ef582614b63565b602082019050919050565b6000613f0d601f836144c8565b9150613f1882614b8c565b602082019050919050565b6000613f30601f836144c8565b9150613f3b82614bb5565b602082019050919050565b6000613f53601e836144c8565b9150613f5e82614bde565b602082019050919050565b6000613f766009836144c8565b9150613f8182614c07565b602082019050919050565b60c082016000820151613fa26000850182614007565b506020820151613fb56020850182613c20565b506040820151613fc86040850182613c20565b506060820151613fdb6060850182614007565b506080820151613fee6080850182614007565b5060a082015161400160a0850182613c9c565b50505050565b6140108161462c565b82525050565b61401f8161462c565b82525050565b600060208201905061403a6000830184613c2f565b92915050565b60006060820190506140556000830186613c2f565b6140626020830185613c2f565b61406f6040830184614016565b949350505050565b600060408201905061408c6000830185613c2f565b6140996020830184614016565b9392505050565b60006080820190506140b56000830187613c2f565b6140c26020830186614016565b6140cf6040830185614016565b81810360608301526140e18184613cba565b905095945050505050565b600060208201905081810360008301526141068184613c3e565b905092915050565b60006020820190506141236000830184613cab565b92915050565b6000602082019050818103600083015261414281613cf3565b9050919050565b6000602082019050818103600083015261416281613d16565b9050919050565b6000602082019050818103600083015261418281613d39565b9050919050565b600060208201905081810360008301526141a281613d5c565b9050919050565b600060208201905081810360008301526141c281613d7f565b9050919050565b600060208201905081810360008301526141e281613da2565b9050919050565b6000602082019050818103600083015261420281613dc5565b9050919050565b6000602082019050818103600083015261422281613de8565b9050919050565b6000602082019050818103600083015261424281613e0b565b9050919050565b6000602082019050818103600083015261426281613e2e565b9050919050565b6000602082019050818103600083015261428281613e51565b9050919050565b600060208201905081810360008301526142a281613e74565b9050919050565b600060208201905081810360008301526142c281613e97565b9050919050565b600060208201905081810360008301526142e281613eba565b9050919050565b6000602082019050818103600083015261430281613edd565b9050919050565b6000602082019050818103600083015261432281613f00565b9050919050565b6000602082019050818103600083015261434281613f23565b9050919050565b6000602082019050818103600083015261436281613f46565b9050919050565b6000602082019050818103600083015261438281613f69565b9050919050565b600060208201905061439e6000830184614016565b92915050565b600060c0820190506143b96000830189614016565b6143c66020830188613c2f565b6143d36040830187613c2f565b6143e06060830186614016565b6143ed6080830185614016565b6143fa60a0830184613cab565b979650505050505050565b600060408201905061441a6000830185614016565b6144276020830184614016565b9392505050565b6000614438614449565b905061444482826146d4565b919050565b6000604051905090565b600067ffffffffffffffff82111561446e5761446d6147db565b5b6144778261480a565b9050602081019050919050565b6000819050602082019050919050565b600081519050919050565b600081519050919050565b6000602082019050919050565b600082825260208201905092915050565b600082825260208201905092915050565b60006144e48261462c565b91506144ef8361462c565b9250827fffffffffffffffffffffffffffffffffffffffffffffffffffffffffffffffff038211156145245761452361474e565b5b828201905092915050565b600061453a8261462c565b91506145458361462c565b9250826145555761455461477d565b5b828204905092915050565b600061456b8261462c565b91506145768361462c565b9250817fffffffffffffffffffffffffffffffffffffffffffffffffffffffffffffffff04831182151516156145af576145ae61474e565b5b828202905092915050565b60006145c58261462c565b91506145d08361462c565b9250828210156145e3576145e261474e565b5b828203905092915050565b60006145f98261460c565b9050919050565b60008115159050919050565b600073ffffffffffffffffffffffffffffffffffffffff82169050919050565b6000819050919050565b82818337600083830152505050565b60005b83811015614663578082015181840152602081019050614648565b83811115614672576000848401525b50505050565b60006146838261462c565b915060008214156146975761469661474e565b5b600182039050919050565b600060028204905060018216806146ba57607f821691505b602082108114156146ce576146cd6147ac565b5b50919050565b6146dd8261480a565b810181811067ffffffffffffffff821117156146fc576146fb6147db565b5b80604052505050565b60006147108261462c565b91507fffffffffffffffffffffffffffffffffffffffffffffffffffffffffffffffff8214156147435761474261474e565b5b600182019050919050565b7f4e487b7100000000000000000000000000000000000000000000000000000000600052601160045260246000fd5b7f4e487b7100000000000000000000000000000000000000000000000000000000600052601260045260246000fd5b7f4e487b7100000000000000000000000000000000000000000000000000000000600052602260045260246000fd5b7f4e487b7100000000000000000000000000000000000000000000000000000000600052604160045260246000fd5b6000601f19601f8301169050919050565b7f696e73756666696369656e74204d696c6b20616d6f756e7420746f206861727660008201527f6573740000000000000000000000000000000000000000000000000000000000602082015250565b7f456e6420426c6f636b204e756d626572206d757374206269676765722074686160008201527f6e20537461727420426c6f636b204e756d626572000000000000000000000000602082015250565b7f4f776e61626c653a206e6577206f776e657220697320746865207a65726f206160008201527f6464726573730000000000000000000000000000000000000000000000000000602082015250565b7f4e6f74206f776e6572206f662074686973204974656d00000000000000000000600082015250565b7f696e76616c6964204974656d2049640000000000000000000000000000000000600082015250565b7f616c7265616479207374616b6564206d6178696d756d206e756d626572206f6660008201527f20636f6c6c65637469626c657300000000000000000000000000000000000000602082015250565b7f5374616b696e67206973206e6f74207374617274656421000000000000000000600082015250565b7f696e73756666696369656e74204d696c6b20616d6f756e7420746f204465706f60008201527f7369740000000000000000000000000000000000000000000000000000000000602082015250565b7f796f7520617265206e6f74206f776e6572000000000000000000000000000000600082015250565b7f5374616b696e67206973206e6f742066696e6973686564000000000000000000600082015250565b7f4f776e61626c653a2063616c6c6572206973206e6f7420746865206f776e6572600082015250565b7f616c7265616479207374616b6564206d6178696d756d206e756d626572206f6660008201527f2067656e65736973000000000000000000000000000000000000000000000000602082015250565b7f54686973205374616b696e67204974656d2077617320756e7374616b6564206160008201527f6c72656164792100000000000000000000000000000000000000000000000000602082015250565b7f696e76616c696420706f6f6c4964000000000000000000000000000000000000600082015250565b7f6e6f7420726561647920746f2068617276657374000000000000000000000000600082015250565b7f76616c7565206d7573742062652067726561746572207468616e207a65726f00600082015250565b7f5265656e7472616e637947756172643a207265656e7472616e742063616c6c00600082015250565b7f456e6420426c6f636b206d75737420626967676572207468616e206e6f770000600082015250565b7f6e6f74206f776e65720000000000000000000000000000000000000000000000600082015250565b614c39816145ee565b8114614c4457600080fd5b50565b614c5081614600565b8114614c5b57600080fd5b50565b614c678161462c565b8114614c7257600080fd5b5056fea2646970667358221220f77265360f0db14694df696aec3efe71dcd317e97877158ce30fca5b0cd3565564736f6c63430008040033",
  "immutableReferences": {},
  "source": "// SPDX-License-Identifier: MIT\r\npragma solidity ^0.8.4;\r\nimport \"@openzeppelin/contracts/utils/Counters.sol\";\r\nimport \"@openzeppelin/contracts/token/ERC721/ERC721.sol\";\r\nimport \"@openzeppelin/contracts/security/ReentrancyGuard.sol\";\r\nimport \"@openzeppelin/contracts/access/Ownable.sol\";\r\nimport \"./interfaces/IMilkToken.sol\";\r\n\r\ncontract Staking is ReentrancyGuard, Ownable {\r\n    using Counters for Counters.Counter;\r\n    \r\n    struct StakingItem {\r\n        uint256 itemId;\r\n        address contractAddress;\r\n        address owner;\r\n        uint256 tokenId;\r\n        uint256 lastHarvestBlock;\r\n        bool isEnded;\r\n    }\r\n\r\n    struct PoolInfo {\r\n        address contractAddress;\r\n        uint256 allocPoint;\r\n        uint256[] tokenIds;\r\n        uint256 milkPower;\r\n        string poolName;\r\n    }\r\n\r\n    Counters.Counter public stakingPoolCount;\r\n    Counters.Counter public stakingItemCount;\r\n    IMilkToken tokenMilk;\r\n    \r\n    uint256 public milkPerBlock;\r\n    uint256 public totalAllocPoint;\r\n    uint256 public maxGenesisPerWallet;\r\n    uint256 public maxCollectiblesPerWallet;\r\n    uint256 public totalAmountDepositedPool;\r\n    uint256 public startBlock;\r\n    uint256 public endBlock;\r\n    bool public isStakingAvailable;\r\n    bool public isAvailableAllocation;\r\n    mapping(uint256 => PoolInfo) public pools;\r\n    mapping(uint256 => StakingItem) public items;\r\n    mapping(address => uint256) public genesisOfUser;\r\n    mapping(address => uint256) public collectiblesOfUser;\r\n\r\n    event StakingItemCreated(\r\n        uint256 itemId,\r\n        address indexed nftContract,\r\n        address indexed owner,\r\n        uint256 tokenId\r\n    );\r\n\r\n    event Harvest(\r\n        uint256 itemId,\r\n        address indexed owner,\r\n        uint256 amount\r\n    );\r\n\r\n    constructor(IMilkToken _tokenMilk, bool _isAvailableAllocation) {\r\n        tokenMilk = _tokenMilk;\r\n        totalAllocPoint = 0;\r\n        milkPerBlock = 0;\r\n        maxGenesisPerWallet = 5;\r\n        maxCollectiblesPerWallet = 10;\r\n        totalAmountDepositedPool = 0;\r\n        isAvailableAllocation = _isAvailableAllocation;\r\n        isStakingAvailable = false;\r\n    }\r\n\r\n    function setIsAvailableAllocation(bool _isAvailableAllocation) public onlyOwner\r\n    {\r\n        isAvailableAllocation = _isAvailableAllocation;\r\n    }\r\n\r\n    function depositMilkToPool(uint256 _totalAmountDepositedPool, uint256 _startBlock, uint256 _endBlock) public onlyOwner {\r\n        require(tokenMilk.balanceOf(owner()) >= _totalAmountDepositedPool, \"insufficient Milk amount to Deposit\");\r\n        require(_endBlock > block.number, \"End Block must bigger than now\");\r\n        require(_endBlock > _startBlock, \"End Block Number must bigger than Start Block Number\");\r\n        tokenMilk.transferFrom(owner(), address(this), _totalAmountDepositedPool);\r\n        totalAmountDepositedPool = _totalAmountDepositedPool;\r\n        startBlock = _startBlock;\r\n        endBlock = _endBlock;\r\n        milkPerBlock = 10 ** 6 * _totalAmountDepositedPool / (_endBlock - _startBlock);\r\n        isStakingAvailable = true;\r\n    }\r\n\r\n    function setPeriod(uint256 _startBlock, uint256 _endBlock) public onlyOwner {\r\n        require(_endBlock > block.number, \"End Block must bigger than now\");\r\n        require(_endBlock > _startBlock, \"End Block Number must bigger than Start Block Number\");\r\n        milkPerBlock = 10 ** 6 * totalAmountDepositedPool / (_endBlock - _startBlock);\r\n        startBlock = _startBlock;\r\n        endBlock = _endBlock;\r\n    }    \r\n\r\n    function setIsStakingAvailable(bool _isStakingAvailable) public onlyOwner{\r\n        isStakingAvailable = _isStakingAvailable;\r\n    }\r\n\r\n    function setMaxGenesisPerWallet(uint256 _value) public onlyOwner {\r\n        require(\r\n            _value > 0,\r\n            \"value must be greater than zero\"\r\n        );\r\n        maxGenesisPerWallet = _value;\r\n    }\r\n\r\n    function setMaxCollectiblesPerWallet(uint256 _value) public onlyOwner {\r\n        require(\r\n            _value > 0,\r\n            \"value must be greater than zero\"\r\n        );\r\n        maxCollectiblesPerWallet = _value;\r\n    }\r\n\r\n    function addPool(address _contractAddress, uint256 _allocPoint, uint256[] calldata _tokenIds, uint256 _milkPower, string memory _poolName) public onlyOwner {\r\n        stakingPoolCount.increment();\r\n        uint256 poolId = stakingPoolCount.current();\r\n\r\n        pools[poolId] = PoolInfo(\r\n            _contractAddress,\r\n            _allocPoint,\r\n            _tokenIds,\r\n            _milkPower,\r\n            _poolName\r\n        );\r\n\r\n        totalAllocPoint = totalAllocPoint + _allocPoint;\r\n    }\r\n\r\n    function updatePool(\r\n        uint256 _poolId, \r\n        address _contractAddress, \r\n        uint256 _allocPoint, \r\n        uint256[] calldata _tokenIds,\r\n        uint256 _milkPower, \r\n        string memory _poolName\r\n    ) public onlyOwner {\r\n        require(_poolId <= stakingPoolCount.current(), \"invalid poolId\");\r\n\r\n        totalAllocPoint = totalAllocPoint - pools[_poolId].allocPoint;\r\n\r\n        pools[_poolId] = PoolInfo(\r\n            _contractAddress,\r\n            _allocPoint,\r\n            _tokenIds,\r\n            _milkPower,\r\n            _poolName\r\n        );\r\n\r\n        totalAllocPoint = totalAllocPoint + _allocPoint;\r\n    }\r\n\r\n    modifier isValid(address _msgSender, address _contractAddress, uint256 _tokenId) {\r\n        require(IERC721(_contractAddress).ownerOf(_tokenId) == _msgSender, \"not owner\");\r\n        require(genesisOfUser[_msgSender] <= maxGenesisPerWallet, \"already staked maximum number of genesis\");\r\n        require(collectiblesOfUser[_msgSender] <= maxCollectiblesPerWallet, \"already staked maximum number of collectibles\");\r\n\r\n        _;\r\n    }\r\n\r\n    function stake(\r\n        address _nftContract,\r\n        uint256 _tokenId\r\n    ) public nonReentrant isValid(msg.sender, _nftContract, _tokenId) {\r\n\r\n        require(block.number >= startBlock && block.number <= endBlock && isStakingAvailable == true, \"Staking is not started!\");\r\n\r\n        stakingItemCount.increment();\r\n        uint256 itemId = stakingItemCount.current();\r\n\r\n        items[itemId] = StakingItem(\r\n            itemId,\r\n            _nftContract,\r\n            msg.sender,\r\n            _tokenId,\r\n            block.number,\r\n            false\r\n        );\r\n\r\n        IERC721(_nftContract).transferFrom(msg.sender, address(this), _tokenId);\r\n        \r\n        if(isGenesisNFT(itemId)) genesisOfUser[msg.sender] ++;\r\n\r\n        else collectiblesOfUser[msg.sender] ++;\r\n\r\n        emit StakingItemCreated(\r\n            itemId,\r\n            _nftContract,\r\n            msg.sender,\r\n            _tokenId\r\n        );\r\n    }\r\n\r\n    function getAllocPoint(uint256 _itemId) internal view returns(uint256) {\r\n        for(uint256 i = 1; i <= stakingPoolCount.current(); i++) {\r\n            if (pools[i].contractAddress == items[_itemId].contractAddress) {\r\n                return pools[i].allocPoint;\r\n            }\r\n        }\r\n        return 0;\r\n    }\r\n\r\n    function isGenesisNFT(uint256 _itemId) internal view returns(bool) {\r\n        for(uint256 i = 1; i <= stakingPoolCount.current(); i++) {\r\n            if (pools[i].contractAddress == items[_itemId].contractAddress) {\r\n                if(pools[i].tokenIds.length != 0)\r\n                    return true;\r\n                else\r\n                    return false;\r\n            }\r\n        }\r\n        return false;\r\n    }\r\n\r\n    function _harvest(\r\n        uint256 _itemId,\r\n        address _owner\r\n    ) internal {\r\n        StakingItem storage item = items[_itemId];\r\n        require(_itemId <= stakingItemCount.current(), \"invalid Item Id\");\r\n        require(_owner == items[_itemId].owner, \"Not owner of this Item\" );\r\n        require(item.lastHarvestBlock < block.number, \"not ready to harvest\");\r\n\r\n        uint256 tmpEndBlock = 0;\r\n        if(block.number > endBlock)\r\n            tmpEndBlock = endBlock;\r\n        else\r\n            tmpEndBlock = block.number;\r\n        \r\n        uint256 amount = 0;\r\n\r\n        if(isAvailableAllocation) {\r\n            uint256 poolId = getPoolId(_itemId);\r\n            uint256 stakedCount = getTotalStakedCount(poolId);\r\n            amount = milkPerBlock * (tmpEndBlock - item.lastHarvestBlock) * getAllocPoint(_itemId) / totalAllocPoint / stakedCount;\r\n        }\r\n        else {\r\n            uint256 poolId = getPoolId(_itemId);\r\n            uint256 totalMilkPower = 0;\r\n            for(uint256 i = 1; i <= stakingPoolCount.current(); i ++) {\r\n                uint256 stakedCount = getTotalStakedCount(i);\r\n                totalMilkPower += stakedCount * pools[i].milkPower;\r\n            }\r\n            amount = milkPerBlock * (tmpEndBlock - item.lastHarvestBlock) * pools[poolId].milkPower / totalMilkPower;\r\n        }\r\n\r\n        require(tokenMilk.balanceOf(address(this)) >= amount, \"insufficient Milk amount to harvest\");\r\n\r\n        tokenMilk.transfer(item.owner, amount * 10 ** 12);\r\n\r\n        item.lastHarvestBlock = tmpEndBlock;\r\n\r\n        emit Harvest(_itemId, item.owner, amount);\r\n    }\r\n\r\n    function harvest(uint256 _poolId) public {\r\n        for(uint256 i = 1; i <= stakingItemCount.current(); i ++) {\r\n            if(items[i].owner == msg.sender && items[i].isEnded == false && pools[_poolId].contractAddress == items[i].contractAddress) {\r\n                _harvest(i, msg.sender);\r\n            }\r\n        }\r\n    }\r\n\r\n    function getStakedItems(address _owner) public view returns(StakingItem[] memory){\r\n        uint256 totalItemCount = stakingItemCount.current();\r\n        uint256 itemCount = 0;\r\n        uint256 currentIndex = 0;\r\n\r\n        for(uint256 i = 1; i <= totalItemCount; i ++) {\r\n            if(_owner == items[i].owner && items[i].isEnded == false) {\r\n                itemCount += 1;\r\n            }\r\n        }\r\n\r\n        StakingItem[] memory stakedItems = new StakingItem[](itemCount);\r\n    \r\n        for (uint256 i = 1; i <= totalItemCount; i ++) {\r\n            if(_owner == items[i].owner && items[i].isEnded == false) {\r\n                StakingItem storage currentItem = items[i];\r\n                stakedItems[currentIndex] = currentItem;\r\n                currentIndex += 1;\r\n            }\r\n        }\r\n\r\n        return stakedItems;\r\n\r\n    }\r\n\r\n    function getPendingMilk(uint256 _itemId) public view returns(uint256){\r\n        StakingItem storage item = items[_itemId];\r\n\r\n        uint256 amount = 0;\r\n\r\n        uint256 tmpEndBlock = 0;\r\n        if(block.number > endBlock)\r\n            tmpEndBlock = endBlock;\r\n        else\r\n            tmpEndBlock = block.number;\r\n\r\n        if(isAvailableAllocation) {\r\n            uint256 poolId = getPoolId(_itemId);\r\n            uint256 stakedCount = getTotalStakedCount(poolId);\r\n            amount = milkPerBlock * (tmpEndBlock - item.lastHarvestBlock) * getAllocPoint(_itemId) / totalAllocPoint / stakedCount;\r\n        }\r\n        else {\r\n            uint256 poolId = getPoolId(_itemId);\r\n            uint256 totalMilkPower = 0;\r\n            for(uint256 i = 1; i <= stakingPoolCount.current(); i ++) {\r\n                uint256 stakedCount = getTotalStakedCount(i);\r\n                totalMilkPower += stakedCount * pools[i].milkPower;\r\n            }\r\n            amount = milkPerBlock * (tmpEndBlock - item.lastHarvestBlock) * pools[poolId].milkPower / totalMilkPower;\r\n        }\r\n\r\n        return amount;\r\n    }\r\n\r\n    function getPendingMilkForAll(address _owner, uint256 _poolId) public view returns(uint256) {\r\n        uint256 totalMilkReward = 0;\r\n        for(uint256 i = 1; i <= stakingItemCount.current(); i ++) {\r\n            if(items[i].owner == _owner && items[i].isEnded == false && pools[_poolId].contractAddress == items[i].contractAddress) {\r\n                totalMilkReward += getPendingMilk(i);\r\n            }\r\n        }\r\n        return totalMilkReward;\r\n    }\r\n    \r\n    function getBlockNumber() public view returns(uint256) {\r\n        return block.number;\r\n    }\r\n\r\n    function getPoolId(uint256 _itemId) public view returns(uint256) {\r\n\r\n        uint256 poolId = 0;\r\n        for(uint256 i = 1; i <= stakingPoolCount.current(); i ++) {\r\n            if(pools[i].contractAddress == items[_itemId].contractAddress)\r\n            {\r\n                poolId = i;\r\n                break;\r\n            }\r\n        }\r\n        return poolId;\r\n\r\n    }\r\n    function getTotalStakedCount(uint256 _poolId) public view returns(uint256) {\r\n        uint256 count = 0;\r\n        for(uint256 i = 1; i <= stakingItemCount.current(); i ++)\r\n        {\r\n            if(items[i].isEnded == false && items[i].contractAddress == pools[_poolId].contractAddress) {\r\n                count ++;\r\n            }\r\n        }\r\n        return count;\r\n    }\r\n\r\n    function getTotalMilkPower(uint256 _poolId) public view returns(uint256) {\r\n        uint256 count = getTotalStakedCount(_poolId);\r\n        uint256 totalMilkPower =  count * pools[_poolId].milkPower;\r\n        return totalMilkPower;\r\n    }\r\n\r\n    function getMyMilkPower(uint256 _poolId, address _owner) public view returns(uint256) {\r\n        uint256 count = 0;\r\n        for(uint256 i = 1; i <= stakingItemCount.current(); i ++)\r\n        {\r\n            if(items[i].isEnded == false && items[i].contractAddress == pools[_poolId].contractAddress && items[i].owner == _owner) {\r\n                count ++;\r\n            }\r\n        }\r\n        uint256 myMilkPower =  count * pools[_poolId].milkPower;\r\n        return myMilkPower;\r\n    }\r\n\r\n    function getDailyMilkRate(uint256 _poolId) public view returns(uint256) {\r\n        uint256 totalMilkPower = getTotalMilkPower(_poolId);\r\n        uint256 dailyRate = 0;\r\n        if(totalMilkPower != 0)\r\n            dailyRate = milkPerBlock * 20 * 60 * 24 * 100 / totalMilkPower;\r\n        return dailyRate;\r\n    }\r\n\r\n    function getLastHarvestBlock(uint256 _itemId) public view returns(uint256) {\r\n        StakingItem storage item = items[_itemId];\r\n        return item.lastHarvestBlock;\r\n    }\r\n\r\n    function unstake(\r\n        uint256 _itemId,\r\n        uint256 _poolId\r\n    ) public {\r\n        StakingItem storage item = items[_itemId];\r\n\r\n        require(item.owner == msg.sender, \"you are not owner\");\r\n        require(item.isEnded == false, \"This Staking Item was unstaked already!\");\r\n        _harvest(_itemId, msg.sender);\r\n        IERC721(item.contractAddress).transferFrom(address(this), msg.sender, item.tokenId);\r\n        item.isEnded = true;\r\n        if(_poolId == 1) maxCollectiblesPerWallet --;\r\n        else if(_poolId == 2) maxGenesisPerWallet --;\r\n    }\r\n\r\n    function withDraw() public onlyOwner {\r\n        require(block.number > endBlock, \"Staking is not finished\");\r\n        uint256 remainBalance = tokenMilk.balanceOf(address(this));\r\n        tokenMilk.transfer(owner(), remainBalance);\r\n        isStakingAvailable = false;\r\n    }\r\n}\r\n",
  "sourcePath": "E:\\Git for Project\\Ethereum\\NFT\\CashCow\\nft-contracts\\contracts\\Staking.sol",
  "compiler": {
    "name": "solc",
    "version": "0.8.4+commit.c7e474f2.Emscripten.clang"
  },
  "schemaVersion": "3.4.2",
  "updatedAt": "2022-02-07T15:13:36.351Z",
  "networkType": "ethereum",
  "devdoc": {
    "kind": "dev",
    "methods": {
      "owner()": {
        "details": "Returns the address of the current owner."
      },
      "renounceOwnership()": {
        "details": "Leaves the contract without owner. It will not be possible to call `onlyOwner` functions anymore. Can only be called by the current owner. NOTE: Renouncing ownership will leave the contract without an owner, thereby removing any functionality that is only available to the owner."
      },
      "transferOwnership(address)": {
        "details": "Transfers ownership of the contract to a new account (`newOwner`). Can only be called by the current owner."
      }
    },
    "version": 1
  },
  "userdoc": {
    "kind": "user",
    "methods": {},
    "version": 1
  }
}