{
  "contractName": "Staking",
  "abi": [
    {
      "inputs": [
        {
          "internalType": "contract IMilkToken",
          "name": "_tokenMilk",
          "type": "address"
        },
        {
          "internalType": "uint256",
          "name": "_milkPerBlock",
          "type": "uint256"
        }
      ],
      "stateMutability": "nonpayable",
      "type": "constructor"
    },
    {
      "anonymous": false,
      "inputs": [
        {
          "indexed": false,
          "internalType": "uint256",
          "name": "itemId",
          "type": "uint256"
        },
        {
          "indexed": true,
          "internalType": "address",
          "name": "owner",
          "type": "address"
        },
        {
          "indexed": false,
          "internalType": "uint256",
          "name": "amount",
          "type": "uint256"
        }
      ],
      "name": "Harvest",
      "type": "event"
    },
    {
      "anonymous": false,
      "inputs": [
        {
          "indexed": true,
          "internalType": "address",
          "name": "previousOwner",
          "type": "address"
        },
        {
          "indexed": true,
          "internalType": "address",
          "name": "newOwner",
          "type": "address"
        }
      ],
      "name": "OwnershipTransferred",
      "type": "event"
    },
    {
      "anonymous": false,
      "inputs": [
        {
          "indexed": false,
          "internalType": "uint256",
          "name": "itemId",
          "type": "uint256"
        },
        {
          "indexed": true,
          "internalType": "address",
          "name": "nftContract",
          "type": "address"
        },
        {
          "indexed": true,
          "internalType": "address",
          "name": "owner",
          "type": "address"
        },
        {
          "indexed": false,
          "internalType": "uint256",
          "name": "tokenId",
          "type": "uint256"
        }
      ],
      "name": "StakingItemCreated",
      "type": "event"
    },
    {
      "inputs": [
        {
          "internalType": "address",
          "name": "",
          "type": "address"
        }
      ],
      "name": "collectiblesOfUser",
      "outputs": [
        {
          "internalType": "uint256",
          "name": "",
          "type": "uint256"
        }
      ],
      "stateMutability": "view",
      "type": "function",
      "constant": true
    },
    {
      "inputs": [
        {
          "internalType": "address",
          "name": "",
          "type": "address"
        }
      ],
      "name": "genesisOfUser",
      "outputs": [
        {
          "internalType": "uint256",
          "name": "",
          "type": "uint256"
        }
      ],
      "stateMutability": "view",
      "type": "function",
      "constant": true
    },
    {
      "inputs": [
        {
          "internalType": "uint256",
          "name": "",
          "type": "uint256"
        }
      ],
      "name": "items",
      "outputs": [
        {
          "internalType": "uint256",
          "name": "itemId",
          "type": "uint256"
        },
        {
          "internalType": "address",
          "name": "contractAddress",
          "type": "address"
        },
        {
          "internalType": "address",
          "name": "owner",
          "type": "address"
        },
        {
          "internalType": "uint256",
          "name": "tokenId",
          "type": "uint256"
        },
        {
          "internalType": "uint256",
          "name": "lastHarvestBlock",
          "type": "uint256"
        },
        {
          "internalType": "uint256",
          "name": "totalHarvestMilk",
          "type": "uint256"
        },
        {
          "internalType": "bool",
          "name": "isEnded",
          "type": "bool"
        }
      ],
      "stateMutability": "view",
      "type": "function",
      "constant": true
    },
    {
      "inputs": [],
      "name": "maxCollectiblesPerWallet",
      "outputs": [
        {
          "internalType": "uint256",
          "name": "",
          "type": "uint256"
        }
      ],
      "stateMutability": "view",
      "type": "function",
      "constant": true
    },
    {
      "inputs": [],
      "name": "maxGenesisPerWallet",
      "outputs": [
        {
          "internalType": "uint256",
          "name": "",
          "type": "uint256"
        }
      ],
      "stateMutability": "view",
      "type": "function",
      "constant": true
    },
    {
      "inputs": [],
      "name": "milkPerBlock",
      "outputs": [
        {
          "internalType": "uint256",
          "name": "",
          "type": "uint256"
        }
      ],
      "stateMutability": "view",
      "type": "function",
      "constant": true
    },
    {
      "inputs": [],
      "name": "owner",
      "outputs": [
        {
          "internalType": "address",
          "name": "",
          "type": "address"
        }
      ],
      "stateMutability": "view",
      "type": "function",
      "constant": true
    },
    {
      "inputs": [
        {
          "internalType": "uint256",
          "name": "",
          "type": "uint256"
        }
      ],
      "name": "pools",
      "outputs": [
        {
          "internalType": "address",
          "name": "contractAddress",
          "type": "address"
        },
        {
          "internalType": "uint256",
          "name": "allocPoint",
          "type": "uint256"
        },
        {
          "internalType": "string",
          "name": "poolName",
          "type": "string"
        }
      ],
      "stateMutability": "view",
      "type": "function",
      "constant": true
    },
    {
      "inputs": [],
      "name": "renounceOwnership",
      "outputs": [],
      "stateMutability": "nonpayable",
      "type": "function"
    },
    {
      "inputs": [],
      "name": "stakingItemCount",
      "outputs": [
        {
          "internalType": "uint256",
          "name": "_value",
          "type": "uint256"
        }
      ],
      "stateMutability": "view",
      "type": "function",
      "constant": true
    },
    {
      "inputs": [],
      "name": "stakingPoolCount",
      "outputs": [
        {
          "internalType": "uint256",
          "name": "_value",
          "type": "uint256"
        }
      ],
      "stateMutability": "view",
      "type": "function",
      "constant": true
    },
    {
      "inputs": [],
      "name": "totalAllocPoint",
      "outputs": [
        {
          "internalType": "uint256",
          "name": "",
          "type": "uint256"
        }
      ],
      "stateMutability": "view",
      "type": "function",
      "constant": true
    },
    {
      "inputs": [
        {
          "internalType": "address",
          "name": "newOwner",
          "type": "address"
        }
      ],
      "name": "transferOwnership",
      "outputs": [],
      "stateMutability": "nonpayable",
      "type": "function"
    },
    {
      "inputs": [
        {
          "internalType": "uint256",
          "name": "_milkPerBlock",
          "type": "uint256"
        }
      ],
      "name": "setMilkPerBlock",
      "outputs": [],
      "stateMutability": "nonpayable",
      "type": "function"
    },
    {
      "inputs": [
        {
          "internalType": "uint256",
          "name": "_value",
          "type": "uint256"
        }
      ],
      "name": "setMaxGenesisPerWallet",
      "outputs": [],
      "stateMutability": "nonpayable",
      "type": "function"
    },
    {
      "inputs": [
        {
          "internalType": "uint256",
          "name": "_value",
          "type": "uint256"
        }
      ],
      "name": "setMaxCollectiblesPerWallet",
      "outputs": [],
      "stateMutability": "nonpayable",
      "type": "function"
    },
    {
      "inputs": [
        {
          "internalType": "address",
          "name": "_contractAddress",
          "type": "address"
        },
        {
          "internalType": "uint256",
          "name": "_allocPoint",
          "type": "uint256"
        },
        {
          "internalType": "uint256[]",
          "name": "_tokenIds",
          "type": "uint256[]"
        },
        {
          "internalType": "string",
          "name": "_poolName",
          "type": "string"
        }
      ],
      "name": "addPool",
      "outputs": [],
      "stateMutability": "nonpayable",
      "type": "function"
    },
    {
      "inputs": [
        {
          "internalType": "uint256",
          "name": "_poolId",
          "type": "uint256"
        },
        {
          "internalType": "address",
          "name": "_contractAddress",
          "type": "address"
        },
        {
          "internalType": "uint256",
          "name": "_allocPoint",
          "type": "uint256"
        },
        {
          "internalType": "uint256[]",
          "name": "_tokenIds",
          "type": "uint256[]"
        },
        {
          "internalType": "string",
          "name": "_poolName",
          "type": "string"
        }
      ],
      "name": "updatePool",
      "outputs": [],
      "stateMutability": "nonpayable",
      "type": "function"
    },
    {
      "inputs": [
        {
          "internalType": "address",
          "name": "_nftContract",
          "type": "address"
        },
        {
          "internalType": "uint256",
          "name": "_tokenId",
          "type": "uint256"
        }
      ],
      "name": "stake",
      "outputs": [],
      "stateMutability": "nonpayable",
      "type": "function"
    },
    {
      "inputs": [
        {
          "internalType": "uint256",
          "name": "_poolId",
          "type": "uint256"
        }
      ],
      "name": "harvest",
      "outputs": [],
      "stateMutability": "nonpayable",
      "type": "function"
    },
    {
      "inputs": [
        {
          "internalType": "address",
          "name": "_owner",
          "type": "address"
        }
      ],
      "name": "getStakedItems",
      "outputs": [
        {
          "components": [
            {
              "internalType": "uint256",
              "name": "itemId",
              "type": "uint256"
            },
            {
              "internalType": "address",
              "name": "contractAddress",
              "type": "address"
            },
            {
              "internalType": "address",
              "name": "owner",
              "type": "address"
            },
            {
              "internalType": "uint256",
              "name": "tokenId",
              "type": "uint256"
            },
            {
              "internalType": "uint256",
              "name": "lastHarvestBlock",
              "type": "uint256"
            },
            {
              "internalType": "uint256",
              "name": "totalHarvestMilk",
              "type": "uint256"
            },
            {
              "internalType": "bool",
              "name": "isEnded",
              "type": "bool"
            }
          ],
          "internalType": "struct Staking.StakingItem[]",
          "name": "",
          "type": "tuple[]"
        }
      ],
      "stateMutability": "view",
      "type": "function",
      "constant": true
    },
    {
      "inputs": [
        {
          "internalType": "uint256",
          "name": "_itemId",
          "type": "uint256"
        }
      ],
      "name": "getPendingMilk",
      "outputs": [
        {
          "internalType": "uint256",
          "name": "",
          "type": "uint256"
        }
      ],
      "stateMutability": "view",
      "type": "function",
      "constant": true
    },
    {
      "inputs": [
        {
          "internalType": "address",
          "name": "_owner",
          "type": "address"
        },
        {
          "internalType": "uint256",
          "name": "_poolId",
          "type": "uint256"
        }
      ],
      "name": "getPendingMilkForAll",
      "outputs": [
        {
          "internalType": "uint256",
          "name": "",
          "type": "uint256"
        }
      ],
      "stateMutability": "view",
      "type": "function",
      "constant": true
    },
    {
      "inputs": [],
      "name": "getBlockNumber",
      "outputs": [
        {
          "internalType": "uint256",
          "name": "",
          "type": "uint256"
        }
      ],
      "stateMutability": "view",
      "type": "function",
      "constant": true
    },
    {
      "inputs": [
        {
          "internalType": "uint256",
          "name": "_poolId",
          "type": "uint256"
        }
      ],
      "name": "getTotalStakedCount",
      "outputs": [
        {
          "internalType": "uint256",
          "name": "",
          "type": "uint256"
        }
      ],
      "stateMutability": "view",
      "type": "function",
      "constant": true
    },
    {
      "inputs": [
        {
          "internalType": "uint256",
          "name": "_poolId",
          "type": "uint256"
        }
      ],
      "name": "getTotalMilkPower",
      "outputs": [
        {
          "internalType": "uint256",
          "name": "",
          "type": "uint256"
        }
      ],
      "stateMutability": "view",
      "type": "function",
      "constant": true
    },
    {
      "inputs": [
        {
          "internalType": "uint256",
          "name": "_poolId",
          "type": "uint256"
        },
        {
          "internalType": "address",
          "name": "_owner",
          "type": "address"
        }
      ],
      "name": "getMyMilkPower",
      "outputs": [
        {
          "internalType": "uint256",
          "name": "",
          "type": "uint256"
        }
      ],
      "stateMutability": "view",
      "type": "function",
      "constant": true
    },
    {
      "inputs": [
        {
          "internalType": "uint256",
          "name": "_poolId",
          "type": "uint256"
        }
      ],
      "name": "getDailyMilkRate",
      "outputs": [
        {
          "internalType": "uint256",
          "name": "",
          "type": "uint256"
        }
      ],
      "stateMutability": "view",
      "type": "function",
      "constant": true
    },
    {
      "inputs": [
        {
          "internalType": "uint256",
          "name": "_itemId",
          "type": "uint256"
        }
      ],
      "name": "getLastHarvestBlock",
      "outputs": [
        {
          "internalType": "uint256",
          "name": "",
          "type": "uint256"
        }
      ],
      "stateMutability": "view",
      "type": "function",
      "constant": true
    },
    {
      "inputs": [
        {
          "internalType": "uint256",
          "name": "_itemId",
          "type": "uint256"
        },
        {
          "internalType": "uint256",
          "name": "_poolId",
          "type": "uint256"
        }
      ],
      "name": "unstake",
      "outputs": [],
      "stateMutability": "nonpayable",
      "type": "function"
    }
  ],
  "bytecode": "0x60806040523480156200001157600080fd5b5060405162004126380380620041268339818101604052810190620000379190620001e5565b6001600081905550620000716200005c620000e9640100000000026401000000009004565b620000f1640100000000026401000000009004565b81600460006101000a81548173ffffffffffffffffffffffffffffffffffffffff021916908373ffffffffffffffffffffffffffffffffffffffff160217905550620f424081620000c3919062000226565b60058190555060006006819055506005600781905550600a60088190555050506200033c565b600033905090565b6000600160009054906101000a900473ffffffffffffffffffffffffffffffffffffffff16905081600160006101000a81548173ffffffffffffffffffffffffffffffffffffffff021916908373ffffffffffffffffffffffffffffffffffffffff1602179055508173ffffffffffffffffffffffffffffffffffffffff168173ffffffffffffffffffffffffffffffffffffffff167f8be0079c531659141344cd1fd0a4f28419497f9722a3daafe3b4186f6b6457e060405160405180910390a35050565b600081519050620001c88162000308565b92915050565b600081519050620001df8162000322565b92915050565b60008060408385031215620001f957600080fd5b60006200020985828601620001b7565b92505060206200021c85828601620001ce565b9150509250929050565b60006200023382620002cf565b91506200024083620002cf565b9250817fffffffffffffffffffffffffffffffffffffffffffffffffffffffffffffffff04831182151516156200027c576200027b620002d9565b5b828202905092915050565b60006200029482620002af565b9050919050565b6000620002a88262000287565b9050919050565b600073ffffffffffffffffffffffffffffffffffffffff82169050919050565b6000819050919050565b7f4e487b7100000000000000000000000000000000000000000000000000000000600052601160045260246000fd5b62000313816200029b565b81146200031f57600080fd5b50565b6200032d81620002cf565b81146200033957600080fd5b50565b613dda806200034c6000396000f3fe608060405234801561001057600080fd5b50600436106101f7576000357c010000000000000000000000000000000000000000000000000000000090048063872c7a5011610121578063ac4afa38116100bf578063d5dfc2651161008e578063d5dfc265146105a2578063dc696d2b146105d2578063ddc6326214610602578063f2fde38b1461061e576101f7565b8063ac4afa3814610500578063adc9772e14610532578063bfb231d21461054e578063c0ea87bd14610584576101f7565b80638da5cb5b116100fb5780638da5cb5b1461047a5780639c5a8540146104985780639e2c8a5b146104c8578063a0b15203146104e4576101f7565b8063872c7a50146103ea5780638830c4061461041a5780638a51401f1461044a576101f7565b806342cbb15c11610199578063715018a611610168578063715018a6146103865780637506f53414610390578063811e1cf9146103ae5780638197f205146103cc576101f7565b806342cbb15c146102ec5780635119913c1461030a578063558a86221461033a5780635c4943fe14610356576101f7565b806323171529116101d557806323171529146102665780632b50bc64146102965780632dd96be9146102b25780633b80c3e1146102d0576101f7565b806315e9afea146101fc57806317caf6f11461022c5780631e8f743a1461024a575b600080fd5b61021660048036038101906102119190612c52565b61063a565b6040516102239190613574565b60405180910390f35b610234610652565b6040516102419190613574565b60405180910390f35b610264600480360381019061025f9190612da1565b610658565b005b610280600480360381019061027b9190612da1565b61072f565b60405161028d9190613574565b60405180910390f35b6102b060048036038101906102ab9190612e2f565b61084c565b005b6102ba610a73565b6040516102c79190613574565b60405180910390f35b6102ea60048036038101906102e59190612da1565b610a7f565b005b6102f4610b48565b6040516103019190613574565b60405180910390f35b610324600480360381019061031f9190612df3565b610b50565b6040516103319190613574565b60405180910390f35b610354600480360381019061034f9190612da1565b610d1c565b005b610370600480360381019061036b9190612da1565b610de5565b60405161037d9190613574565b60405180910390f35b61038e610e48565b005b610398610ed0565b6040516103a59190613574565b60405180910390f35b6103b6610ed6565b6040516103c39190613574565b60405180910390f35b6103d4610ee2565b6040516103e19190613574565b60405180910390f35b61040460048036038101906103ff9190612da1565b610ee8565b6040516104119190613574565b60405180910390f35b610434600480360381019061042f9190612ca4565b610f40565b6040516104419190613574565b60405180910390f35b610464600480360381019061045f9190612c52565b611119565b6040516104719190613574565b60405180910390f35b610482611131565b60405161048f91906132b9565b60405180910390f35b6104b260048036038101906104ad9190612da1565b61115b565b6040516104bf9190613574565b60405180910390f35b6104e260048036038101906104dd9190612ed9565b6111bd565b005b6104fe60048036038101906104f99190612ce0565b6113e6565b005b61051a60048036038101906105159190612da1565b6115af565b60405161052993929190613334565b60405180910390f35b61054c60048036038101906105479190612ca4565b611681565b005b61056860048036038101906105639190612da1565b611c13565b60405161057b979695949392919061358f565b60405180910390f35b61058c611ca2565b6040516105999190613574565b60405180910390f35b6105bc60048036038101906105b79190612c52565b611ca8565b6040516105c99190613372565b60405180910390f35b6105ec60048036038101906105e79190612da1565b61203a565b6040516105f99190613574565b60405180910390f35b61061c60048036038101906106179190612da1565b61205f565b005b61063860048036038101906106339190612c52565b6121d8565b005b600b6020528060005260406000206000915090505481565b60065481565b6106606122d0565b73ffffffffffffffffffffffffffffffffffffffff1661067e611131565b73ffffffffffffffffffffffffffffffffffffffff16146106d4576040517f08c379a00000000000000000000000000000000000000000000000000000000081526004016106cb90613474565b60405180910390fd5b60008111610717576040517f08c379a000000000000000000000000000000000000000000000000000000000815260040161070e906133f4565b60405180910390fd5b620f4240816107269190613759565b60058190555050565b600080600090506000600190505b61074760036122d8565b81116108425760001515600a600083815260200190815260200160002060060160009054906101000a900460ff16151514801561081b57506009600085815260200190815260200160002060000160009054906101000a900473ffffffffffffffffffffffffffffffffffffffff1673ffffffffffffffffffffffffffffffffffffffff16600a600083815260200190815260200160002060010160009054906101000a900473ffffffffffffffffffffffffffffffffffffffff1673ffffffffffffffffffffffffffffffffffffffff16145b1561082f57818061082b906138fe565b9250505b808061083a906138fe565b91505061073d565b5080915050919050565b6108546122d0565b73ffffffffffffffffffffffffffffffffffffffff16610872611131565b73ffffffffffffffffffffffffffffffffffffffff16146108c8576040517f08c379a00000000000000000000000000000000000000000000000000000000081526004016108bf90613474565b60405180910390fd5b6108d260026122d8565b861115610914576040517f08c379a000000000000000000000000000000000000000000000000000000000815260040161090b906134d4565b60405180910390fd5b600960008781526020019081526020016000206001015460065461093891906137b3565b60068190555060405180608001604052808673ffffffffffffffffffffffffffffffffffffffff168152602001858152602001848480806020026020016040519081016040528093929190818152602001838360200280828437600081840152601f19601f820116905080830192505050505050508152602001828152506009600088815260200190815260200160002060008201518160000160006101000a81548173ffffffffffffffffffffffffffffffffffffffff021916908373ffffffffffffffffffffffffffffffffffffffff160217905550602082015181600101556040820151816002019080519060200190610a369291906129dc565b506060820151816003019080519060200190610a53929190612a29565b5090505083600654610a6591906136d2565b600681905550505050505050565b60028060000154905081565b610a876122d0565b73ffffffffffffffffffffffffffffffffffffffff16610aa5611131565b73ffffffffffffffffffffffffffffffffffffffff1614610afb576040517f08c379a0000000000000000000000000000000000000000000000000000000008152600401610af290613474565b60405180910390fd5b60008111610b3e576040517f08c379a0000000000000000000000000000000000000000000000000000000008152600401610b3590613514565b60405180910390fd5b8060088190555050565b600043905090565b600080600090506000600190505b610b6860036122d8565b8111610cd05760001515600a600083815260200190815260200160002060060160009054906101000a900460ff161515148015610c3c57506009600086815260200190815260200160002060000160009054906101000a900473ffffffffffffffffffffffffffffffffffffffff1673ffffffffffffffffffffffffffffffffffffffff16600a600083815260200190815260200160002060010160009054906101000a900473ffffffffffffffffffffffffffffffffffffffff1673ffffffffffffffffffffffffffffffffffffffff16145b8015610ca957508373ffffffffffffffffffffffffffffffffffffffff16600a600083815260200190815260200160002060020160009054906101000a900473ffffffffffffffffffffffffffffffffffffffff1673ffffffffffffffffffffffffffffffffffffffff16145b15610cbd578180610cb9906138fe565b9250505b8080610cc8906138fe565b915050610b5e565b506000600654600554600960008881526020019081526020016000206001015484610cfb9190613759565b610d059190613759565b610d0f9190613728565b9050809250505092915050565b610d246122d0565b73ffffffffffffffffffffffffffffffffffffffff16610d42611131565b73ffffffffffffffffffffffffffffffffffffffff1614610d98576040517f08c379a0000000000000000000000000000000000000000000000000000000008152600401610d8f90613474565b60405180910390fd5b60008111610ddb576040517f08c379a0000000000000000000000000000000000000000000000000000000008152600401610dd290613514565b60405180910390fd5b8060078190555050565b600080600a600084815260200190815260200160002090506000816004015443610e0f91906137b3565b600654610e1b866122e6565b600554610e289190613759565b610e329190613728565b610e3c9190613759565b90508092505050919050565b610e506122d0565b73ffffffffffffffffffffffffffffffffffffffff16610e6e611131565b73ffffffffffffffffffffffffffffffffffffffff1614610ec4576040517f08c379a0000000000000000000000000000000000000000000000000000000008152600401610ebb90613474565b60405180910390fd5b610ece60006123db565b565b60055481565b60038060000154905081565b60085481565b600080610ef48361072f565b90506000600654600554600960008781526020019081526020016000206001015484610f209190613759565b610f2a9190613759565b610f349190613728565b90508092505050919050565b600080600090506000600190505b610f5860036122d8565b811161110e578473ffffffffffffffffffffffffffffffffffffffff16600a600083815260200190815260200160002060020160009054906101000a900473ffffffffffffffffffffffffffffffffffffffff1673ffffffffffffffffffffffffffffffffffffffff16148015610ff6575060001515600a600083815260200190815260200160002060060160009054906101000a900460ff161515145b80156110995750600a600082815260200190815260200160002060010160009054906101000a900473ffffffffffffffffffffffffffffffffffffffff1673ffffffffffffffffffffffffffffffffffffffff166009600086815260200190815260200160002060000160009054906101000a900473ffffffffffffffffffffffffffffffffffffffff1673ffffffffffffffffffffffffffffffffffffffff16145b156110fb57600a600082815260200190815260200160002060040154436110c091906137b3565b6006546110cc836122e6565b6005546110d99190613759565b6110e39190613728565b6110ed9190613759565b826110f891906136d2565b91505b8080611106906138fe565b915050610f4e565b508091505092915050565b600c6020528060005260406000206000915090505481565b6000600160009054906101000a900473ffffffffffffffffffffffffffffffffffffffff16905090565b60008061116783610ee8565b905060008082146111b3578160646018603c60146005546111889190613759565b6111929190613759565b61119c9190613759565b6111a69190613759565b6111b09190613728565b90505b8092505050919050565b6000600a600084815260200190815260200160002090503373ffffffffffffffffffffffffffffffffffffffff168160020160009054906101000a900473ffffffffffffffffffffffffffffffffffffffff1673ffffffffffffffffffffffffffffffffffffffff1614611266576040517f08c379a000000000000000000000000000000000000000000000000000000000815260040161125d90613454565b60405180910390fd5b600015158160060160009054906101000a900460ff161515146112be576040517f08c379a00000000000000000000000000000000000000000000000000000000081526004016112b5906134b4565b60405180910390fd5b6112c883336124a1565b8060010160009054906101000a900473ffffffffffffffffffffffffffffffffffffffff1673ffffffffffffffffffffffffffffffffffffffff166323b872dd303384600301546040518463ffffffff167c0100000000000000000000000000000000000000000000000000000000028152600401611349939291906132d4565b600060405180830381600087803b15801561136357600080fd5b505af1158015611377573d6000803e3d6000fd5b5050505060018160060160006101000a81548160ff02191690831515021790555060018214156113be57600860008154809291906113b490613871565b91905055506113e1565b60028214156113e057600760008154809291906113da90613871565b91905055505b5b505050565b6113ee6122d0565b73ffffffffffffffffffffffffffffffffffffffff1661140c611131565b73ffffffffffffffffffffffffffffffffffffffff1614611462576040517f08c379a000000000000000000000000000000000000000000000000000000000815260040161145990613474565b60405180910390fd5b61146c60026128bb565b600061147860026122d8565b905060405180608001604052808773ffffffffffffffffffffffffffffffffffffffff168152602001868152602001858580806020026020016040519081016040528093929190818152602001838360200280828437600081840152601f19601f820116905080830192505050505050508152602001838152506009600083815260200190815260200160002060008201518160000160006101000a81548173ffffffffffffffffffffffffffffffffffffffff021916908373ffffffffffffffffffffffffffffffffffffffff1602179055506020820151816001015560408201518160020190805190602001906115729291906129dc565b50606082015181600301908051906020019061158f929190612a29565b50905050846006546115a191906136d2565b600681905550505050505050565b60096020528060005260406000206000915090508060000160009054906101000a900473ffffffffffffffffffffffffffffffffffffffff16908060010154908060030180546115fe9061389b565b80601f016020809104026020016040519081016040528092919081815260200182805461162a9061389b565b80156116775780601f1061164c57610100808354040283529160200191611677565b820191906000526020600020905b81548152906001019060200180831161165a57829003601f168201915b5050505050905083565b600260005414156116c7576040517f08c379a00000000000000000000000000000000000000000000000000000000081526004016116be90613534565b60405180910390fd5b60026000819055503382828273ffffffffffffffffffffffffffffffffffffffff168273ffffffffffffffffffffffffffffffffffffffff16636352211e836040518263ffffffff167c010000000000000000000000000000000000000000000000000000000002815260040161173e9190613574565b60206040518083038186803b15801561175657600080fd5b505afa15801561176a573d6000803e3d6000fd5b505050506040513d601f19601f8201168201806040525081019061178e9190612c7b565b73ffffffffffffffffffffffffffffffffffffffff16146117e4576040517f08c379a00000000000000000000000000000000000000000000000000000000081526004016117db90613554565b60405180910390fd5b600754600b60008573ffffffffffffffffffffffffffffffffffffffff1673ffffffffffffffffffffffffffffffffffffffff168152602001908152602001600020541115611868576040517f08c379a000000000000000000000000000000000000000000000000000000000815260040161185f90613494565b60405180910390fd5b600854600c60008573ffffffffffffffffffffffffffffffffffffffff1673ffffffffffffffffffffffffffffffffffffffff1681526020019081526020016000205411156118ec576040517f08c379a00000000000000000000000000000000000000000000000000000000081526004016118e390613434565b60405180910390fd5b6118f660036128bb565b600061190260036122d8565b90506040518060e001604052808281526020018773ffffffffffffffffffffffffffffffffffffffff1681526020013373ffffffffffffffffffffffffffffffffffffffff1681526020018681526020014381526020016000815260200160001515815250600a60008381526020019081526020016000206000820151816000015560208201518160010160006101000a81548173ffffffffffffffffffffffffffffffffffffffff021916908373ffffffffffffffffffffffffffffffffffffffff16021790555060408201518160020160006101000a81548173ffffffffffffffffffffffffffffffffffffffff021916908373ffffffffffffffffffffffffffffffffffffffff160217905550606082015181600301556080820151816004015560a0820151816005015560c08201518160060160006101000a81548160ff0219169083151502179055509050508573ffffffffffffffffffffffffffffffffffffffff166323b872dd3330886040518463ffffffff167c0100000000000000000000000000000000000000000000000000000000028152600401611aac939291906132d4565b600060405180830381600087803b158015611ac657600080fd5b505af1158015611ada573d6000803e3d6000fd5b50505050611ae7816128d1565b15611b4657600b60003373ffffffffffffffffffffffffffffffffffffffff1673ffffffffffffffffffffffffffffffffffffffff1681526020019081526020016000206000815480929190611b3c906138fe565b9190505550611b9c565b600c60003373ffffffffffffffffffffffffffffffffffffffff1673ffffffffffffffffffffffffffffffffffffffff1681526020019081526020016000206000815480929190611b96906138fe565b91905055505b3373ffffffffffffffffffffffffffffffffffffffff168673ffffffffffffffffffffffffffffffffffffffff167f4249649a2f5c977056f4db60e40a673eabf996b3ec3dc5b5b5713971888e60208388604051611bfb9291906135fe565b60405180910390a35050505060016000819055505050565b600a6020528060005260406000206000915090508060000154908060010160009054906101000a900473ffffffffffffffffffffffffffffffffffffffff16908060020160009054906101000a900473ffffffffffffffffffffffffffffffffffffffff16908060030154908060040154908060050154908060060160009054906101000a900460ff16905087565b60075481565b60606000611cb660036122d8565b90506000806000600190505b838111611d8957600a600082815260200190815260200160002060020160009054906101000a900473ffffffffffffffffffffffffffffffffffffffff1673ffffffffffffffffffffffffffffffffffffffff168673ffffffffffffffffffffffffffffffffffffffff16148015611d61575060001515600a600083815260200190815260200160002060060160009054906101000a900460ff161515145b15611d7657600183611d7391906136d2565b92505b8080611d81906138fe565b915050611cc2565b5060008267ffffffffffffffff811115611dcc577f4e487b7100000000000000000000000000000000000000000000000000000000600052604160045260246000fd5b604051908082528060200260200182016040528015611e0557816020015b611df2612aaf565b815260200190600190039081611dea5790505b5090506000600190505b84811161202d57600a600082815260200190815260200160002060020160009054906101000a900473ffffffffffffffffffffffffffffffffffffffff1673ffffffffffffffffffffffffffffffffffffffff168773ffffffffffffffffffffffffffffffffffffffff16148015611eae575060001515600a600083815260200190815260200160002060060160009054906101000a900460ff161515145b1561201a576000600a60008381526020019081526020016000209050806040518060e0016040529081600082015481526020016001820160009054906101000a900473ffffffffffffffffffffffffffffffffffffffff1673ffffffffffffffffffffffffffffffffffffffff1673ffffffffffffffffffffffffffffffffffffffff1681526020016002820160009054906101000a900473ffffffffffffffffffffffffffffffffffffffff1673ffffffffffffffffffffffffffffffffffffffff1673ffffffffffffffffffffffffffffffffffffffff1681526020016003820154815260200160048201548152602001600582015481526020016006820160009054906101000a900460ff161515151581525050838581518110611ffe577f4e487b7100000000000000000000000000000000000000000000000000000000600052603260045260246000fd5b602002602001018190525060018461201691906136d2565b9350505b8080612025906138fe565b915050611e0f565b5080945050505050919050565b600080600a600084815260200190815260200160002090508060040154915050919050565b6000600190505b61207060036122d8565b81116121d4573373ffffffffffffffffffffffffffffffffffffffff16600a600083815260200190815260200160002060020160009054906101000a900473ffffffffffffffffffffffffffffffffffffffff1673ffffffffffffffffffffffffffffffffffffffff1614801561210e575060001515600a600083815260200190815260200160002060060160009054906101000a900460ff161515145b80156121b15750600a600082815260200190815260200160002060010160009054906101000a900473ffffffffffffffffffffffffffffffffffffffff1673ffffffffffffffffffffffffffffffffffffffff166009600084815260200190815260200160002060000160009054906101000a900473ffffffffffffffffffffffffffffffffffffffff1673ffffffffffffffffffffffffffffffffffffffff16145b156121c1576121c081336124a1565b5b80806121cc906138fe565b915050612066565b5050565b6121e06122d0565b73ffffffffffffffffffffffffffffffffffffffff166121fe611131565b73ffffffffffffffffffffffffffffffffffffffff1614612254576040517f08c379a000000000000000000000000000000000000000000000000000000000815260040161224b90613474565b60405180910390fd5b600073ffffffffffffffffffffffffffffffffffffffff168173ffffffffffffffffffffffffffffffffffffffff1614156122c4576040517f08c379a00000000000000000000000000000000000000000000000000000000081526004016122bb906133b4565b60405180910390fd5b6122cd816123db565b50565b600033905090565b600081600001549050919050565b600080600190505b6122f860026122d8565b81116123d057600a600084815260200190815260200160002060010160009054906101000a900473ffffffffffffffffffffffffffffffffffffffff1673ffffffffffffffffffffffffffffffffffffffff166009600083815260200190815260200160002060000160009054906101000a900473ffffffffffffffffffffffffffffffffffffffff1673ffffffffffffffffffffffffffffffffffffffff1614156123bd5760096000828152602001908152602001600020600101549150506123d6565b80806123c8906138fe565b9150506122ee565b50600090505b919050565b6000600160009054906101000a900473ffffffffffffffffffffffffffffffffffffffff16905081600160006101000a81548173ffffffffffffffffffffffffffffffffffffffff021916908373ffffffffffffffffffffffffffffffffffffffff1602179055508173ffffffffffffffffffffffffffffffffffffffff168173ffffffffffffffffffffffffffffffffffffffff167f8be0079c531659141344cd1fd0a4f28419497f9722a3daafe3b4186f6b6457e060405160405180910390a35050565b6000600a600084815260200190815260200160002090506124c260036122d8565b831115612504576040517f08c379a00000000000000000000000000000000000000000000000000000000081526004016124fb90613414565b60405180910390fd5b600a600084815260200190815260200160002060020160009054906101000a900473ffffffffffffffffffffffffffffffffffffffff1673ffffffffffffffffffffffffffffffffffffffff168273ffffffffffffffffffffffffffffffffffffffff16146125a8576040517f08c379a000000000000000000000000000000000000000000000000000000000815260040161259f906133d4565b60405180910390fd5b438160040154106125ee576040517f08c379a00000000000000000000000000000000000000000000000000000000081526004016125e5906134f4565b60405180910390fd5b600081600401544361260091906137b3565b60065461260c866122e6565b6005546126199190613759565b6126239190613728565b61262d9190613759565b905080600460009054906101000a900473ffffffffffffffffffffffffffffffffffffffff1673ffffffffffffffffffffffffffffffffffffffff166370a08231306040518263ffffffff167c01000000000000000000000000000000000000000000000000000000000281526004016126a791906132b9565b60206040518083038186803b1580156126bf57600080fd5b505afa1580156126d3573d6000803e3d6000fd5b505050506040513d601f19601f820116820180604052508101906126f79190612dca565b1015612738576040517f08c379a000000000000000000000000000000000000000000000000000000000815260040161272f90613394565b60405180910390fd5b600460009054906101000a900473ffffffffffffffffffffffffffffffffffffffff1673ffffffffffffffffffffffffffffffffffffffff1663a9059cbb8360020160009054906101000a900473ffffffffffffffffffffffffffffffffffffffff1664e8d4a51000846127ac9190613759565b6040518363ffffffff167c01000000000000000000000000000000000000000000000000000000000281526004016127e592919061330b565b602060405180830381600087803b1580156127ff57600080fd5b505af1158015612813573d6000803e3d6000fd5b505050506040513d601f19601f820116820180604052508101906128379190612d78565b504382600401819055508160020160009054906101000a900473ffffffffffffffffffffffffffffffffffffffff1673ffffffffffffffffffffffffffffffffffffffff167f393ccd03ff98115189a2796d79ffa176e434468dbeea90a87972324be8c5071885836040516128ad9291906135fe565b60405180910390a250505050565b6001816000016000828254019250508190555050565b600080600190505b6128e360026122d8565b81116129d157600a600084815260200190815260200160002060010160009054906101000a900473ffffffffffffffffffffffffffffffffffffffff1673ffffffffffffffffffffffffffffffffffffffff166009600083815260200190815260200160002060000160009054906101000a900473ffffffffffffffffffffffffffffffffffffffff1673ffffffffffffffffffffffffffffffffffffffff1614156129be5760006009600083815260200190815260200160002060020180549050146129b45760019150506129d7565b60009150506129d7565b80806129c9906138fe565b9150506128d9565b50600090505b919050565b828054828255906000526020600020908101928215612a18579160200282015b82811115612a175782518255916020019190600101906129fc565b5b509050612a259190612b1a565b5090565b828054612a359061389b565b90600052602060002090601f016020900481019282612a575760008555612a9e565b82601f10612a7057805160ff1916838001178555612a9e565b82800160010185558215612a9e579182015b82811115612a9d578251825591602001919060010190612a82565b5b509050612aab9190612b1a565b5090565b6040518060e0016040528060008152602001600073ffffffffffffffffffffffffffffffffffffffff168152602001600073ffffffffffffffffffffffffffffffffffffffff1681526020016000815260200160008152602001600081526020016000151581525090565b5b80821115612b33576000816000905550600101612b1b565b5090565b6000612b4a612b458461364c565b613627565b905082815260208101848484011115612b6257600080fd5b612b6d84828561382f565b509392505050565b600081359050612b8481613d5f565b92915050565b600081519050612b9981613d5f565b92915050565b60008083601f840112612bb157600080fd5b8235905067ffffffffffffffff811115612bca57600080fd5b602083019150836020820283011115612be257600080fd5b9250929050565b600081519050612bf881613d76565b92915050565b600082601f830112612c0f57600080fd5b8135612c1f848260208601612b37565b91505092915050565b600081359050612c3781613d8d565b92915050565b600081519050612c4c81613d8d565b92915050565b600060208284031215612c6457600080fd5b6000612c7284828501612b75565b91505092915050565b600060208284031215612c8d57600080fd5b6000612c9b84828501612b8a565b91505092915050565b60008060408385031215612cb757600080fd5b6000612cc585828601612b75565b9250506020612cd685828601612c28565b9150509250929050565b600080600080600060808688031215612cf857600080fd5b6000612d0688828901612b75565b9550506020612d1788828901612c28565b945050604086013567ffffffffffffffff811115612d3457600080fd5b612d4088828901612b9f565b9350935050606086013567ffffffffffffffff811115612d5f57600080fd5b612d6b88828901612bfe565b9150509295509295909350565b600060208284031215612d8a57600080fd5b6000612d9884828501612be9565b91505092915050565b600060208284031215612db357600080fd5b6000612dc184828501612c28565b91505092915050565b600060208284031215612ddc57600080fd5b6000612dea84828501612c3d565b91505092915050565b60008060408385031215612e0657600080fd5b6000612e1485828601612c28565b9250506020612e2585828601612b75565b9150509250929050565b60008060008060008060a08789031215612e4857600080fd5b6000612e5689828a01612c28565b9650506020612e6789828a01612b75565b9550506040612e7889828a01612c28565b945050606087013567ffffffffffffffff811115612e9557600080fd5b612ea189828a01612b9f565b9350935050608087013567ffffffffffffffff811115612ec057600080fd5b612ecc89828a01612bfe565b9150509295509295509295565b60008060408385031215612eec57600080fd5b6000612efa85828601612c28565b9250506020612f0b85828601612c28565b9150509250929050565b6000612f21838361320d565b60e08301905092915050565b612f36816137e7565b82525050565b612f45816137e7565b82525050565b6000612f568261368d565b612f6081856136b0565b9350612f6b8361367d565b8060005b83811015612f9c578151612f838882612f15565b9750612f8e836136a3565b925050600181019050612f6f565b5085935050505092915050565b612fb2816137f9565b82525050565b612fc1816137f9565b82525050565b6000612fd282613698565b612fdc81856136c1565b9350612fec81856020860161383e565b612ff581613a03565b840191505092915050565b600061300d6023836136c1565b915061301882613a14565b604082019050919050565b60006130306026836136c1565b915061303b82613a63565b604082019050919050565b60006130536016836136c1565b915061305e82613ab2565b602082019050919050565b60006130766026836136c1565b915061308182613adb565b604082019050919050565b6000613099600f836136c1565b91506130a482613b2a565b602082019050919050565b60006130bc602d836136c1565b91506130c782613b53565b604082019050919050565b60006130df6011836136c1565b91506130ea82613ba2565b602082019050919050565b60006131026020836136c1565b915061310d82613bcb565b602082019050919050565b60006131256028836136c1565b915061313082613bf4565b604082019050919050565b60006131486027836136c1565b915061315382613c43565b604082019050919050565b600061316b600e836136c1565b915061317682613c92565b602082019050919050565b600061318e6014836136c1565b915061319982613cbb565b602082019050919050565b60006131b1601f836136c1565b91506131bc82613ce4565b602082019050919050565b60006131d4601f836136c1565b91506131df82613d0d565b602082019050919050565b60006131f76009836136c1565b915061320282613d36565b602082019050919050565b60e082016000820151613223600085018261329b565b5060208201516132366020850182612f2d565b5060408201516132496040850182612f2d565b50606082015161325c606085018261329b565b50608082015161326f608085018261329b565b5060a082015161328260a085018261329b565b5060c082015161329560c0850182612fa9565b50505050565b6132a481613825565b82525050565b6132b381613825565b82525050565b60006020820190506132ce6000830184612f3c565b92915050565b60006060820190506132e96000830186612f3c565b6132f66020830185612f3c565b61330360408301846132aa565b949350505050565b60006040820190506133206000830185612f3c565b61332d60208301846132aa565b9392505050565b60006060820190506133496000830186612f3c565b61335660208301856132aa565b81810360408301526133688184612fc7565b9050949350505050565b6000602082019050818103600083015261338c8184612f4b565b905092915050565b600060208201905081810360008301526133ad81613000565b9050919050565b600060208201905081810360008301526133cd81613023565b9050919050565b600060208201905081810360008301526133ed81613046565b9050919050565b6000602082019050818103600083015261340d81613069565b9050919050565b6000602082019050818103600083015261342d8161308c565b9050919050565b6000602082019050818103600083015261344d816130af565b9050919050565b6000602082019050818103600083015261346d816130d2565b9050919050565b6000602082019050818103600083015261348d816130f5565b9050919050565b600060208201905081810360008301526134ad81613118565b9050919050565b600060208201905081810360008301526134cd8161313b565b9050919050565b600060208201905081810360008301526134ed8161315e565b9050919050565b6000602082019050818103600083015261350d81613181565b9050919050565b6000602082019050818103600083015261352d816131a4565b9050919050565b6000602082019050818103600083015261354d816131c7565b9050919050565b6000602082019050818103600083015261356d816131ea565b9050919050565b600060208201905061358960008301846132aa565b92915050565b600060e0820190506135a4600083018a6132aa565b6135b16020830189612f3c565b6135be6040830188612f3c565b6135cb60608301876132aa565b6135d860808301866132aa565b6135e560a08301856132aa565b6135f260c0830184612fb8565b98975050505050505050565b600060408201905061361360008301856132aa565b61362060208301846132aa565b9392505050565b6000613631613642565b905061363d82826138cd565b919050565b6000604051905090565b600067ffffffffffffffff821115613667576136666139d4565b5b61367082613a03565b9050602081019050919050565b6000819050602082019050919050565b600081519050919050565b600081519050919050565b6000602082019050919050565b600082825260208201905092915050565b600082825260208201905092915050565b60006136dd82613825565b91506136e883613825565b9250827fffffffffffffffffffffffffffffffffffffffffffffffffffffffffffffffff0382111561371d5761371c613947565b5b828201905092915050565b600061373382613825565b915061373e83613825565b92508261374e5761374d613976565b5b828204905092915050565b600061376482613825565b915061376f83613825565b9250817fffffffffffffffffffffffffffffffffffffffffffffffffffffffffffffffff04831182151516156137a8576137a7613947565b5b828202905092915050565b60006137be82613825565b91506137c983613825565b9250828210156137dc576137db613947565b5b828203905092915050565b60006137f282613805565b9050919050565b60008115159050919050565b600073ffffffffffffffffffffffffffffffffffffffff82169050919050565b6000819050919050565b82818337600083830152505050565b60005b8381101561385c578082015181840152602081019050613841565b8381111561386b576000848401525b50505050565b600061387c82613825565b915060008214156138905761388f613947565b5b600182039050919050565b600060028204905060018216806138b357607f821691505b602082108114156138c7576138c66139a5565b5b50919050565b6138d682613a03565b810181811067ffffffffffffffff821117156138f5576138f46139d4565b5b80604052505050565b600061390982613825565b91507fffffffffffffffffffffffffffffffffffffffffffffffffffffffffffffffff82141561393c5761393b613947565b5b600182019050919050565b7f4e487b7100000000000000000000000000000000000000000000000000000000600052601160045260246000fd5b7f4e487b7100000000000000000000000000000000000000000000000000000000600052601260045260246000fd5b7f4e487b7100000000000000000000000000000000000000000000000000000000600052602260045260246000fd5b7f4e487b7100000000000000000000000000000000000000000000000000000000600052604160045260246000fd5b6000601f19601f8301169050919050565b7f696e73756666696369656e74204d696c6b20616d6f756e7420746f206861727660008201527f6573740000000000000000000000000000000000000000000000000000000000602082015250565b7f4f776e61626c653a206e6577206f776e657220697320746865207a65726f206160008201527f6464726573730000000000000000000000000000000000000000000000000000602082015250565b7f4e6f74206f776e6572206f662074686973204974656d00000000000000000000600082015250565b7f6d696c6b506572426c6f636b206d75737420626520677265617465722074686160008201527f6e207a65726f0000000000000000000000000000000000000000000000000000602082015250565b7f696e76616c6964204974656d2049640000000000000000000000000000000000600082015250565b7f616c7265616479207374616b6564206d6178696d756d206e756d626572206f6660008201527f20636f6c6c65637469626c657300000000000000000000000000000000000000602082015250565b7f796f7520617265206e6f74206f776e6572000000000000000000000000000000600082015250565b7f4f776e61626c653a2063616c6c6572206973206e6f7420746865206f776e6572600082015250565b7f616c7265616479207374616b6564206d6178696d756d206e756d626572206f6660008201527f2067656e65736973000000000000000000000000000000000000000000000000602082015250565b7f54686973205374616b696e67204974656d2077617320756e7374616b6564206160008201527f6c72656164792100000000000000000000000000000000000000000000000000602082015250565b7f696e76616c696420706f6f6c4964000000000000000000000000000000000000600082015250565b7f6e6f7420726561647920746f2068617276657374000000000000000000000000600082015250565b7f76616c7565206d7573742062652067726561746572207468616e207a65726f00600082015250565b7f5265656e7472616e637947756172643a207265656e7472616e742063616c6c00600082015250565b7f6e6f74206f776e65720000000000000000000000000000000000000000000000600082015250565b613d68816137e7565b8114613d7357600080fd5b50565b613d7f816137f9565b8114613d8a57600080fd5b50565b613d9681613825565b8114613da157600080fd5b5056fea264697066735822122046fd12d3db79c358e1cb55a9609e9b01da7f17a94a082632b42acc7d5527d8e664736f6c63430008040033",
  "immutableReferences": {},
  "source": "// SPDX-License-Identifier: MIT\r\npragma solidity ^0.8.4;\r\nimport \"@openzeppelin/contracts/utils/Counters.sol\";\r\nimport \"@openzeppelin/contracts/token/ERC721/ERC721.sol\";\r\nimport \"@openzeppelin/contracts/security/ReentrancyGuard.sol\";\r\nimport \"@openzeppelin/contracts/access/Ownable.sol\";\r\nimport \"./interfaces/IMilkToken.sol\";\r\n\r\ncontract Staking is ReentrancyGuard, Ownable {\r\n    using Counters for Counters.Counter;\r\n    \r\n    struct StakingItem {\r\n        uint256 itemId;\r\n        address contractAddress;\r\n        address owner;\r\n        uint256 tokenId;\r\n        uint256 lastHarvestBlock;\r\n        uint256 totalHarvestMilk;\r\n        bool isEnded;\r\n    }\r\n\r\n    struct PoolInfo {\r\n        address contractAddress;\r\n        uint256 allocPoint;\r\n        uint256[] tokenIds;\r\n        string poolName;\r\n    }\r\n\r\n    Counters.Counter public stakingPoolCount;\r\n    Counters.Counter public stakingItemCount;\r\n    IMilkToken tokenMilk;\r\n    uint256 public milkPerBlock;\r\n    uint256 public totalAllocPoint;\r\n    uint256 public maxGenesisPerWallet;\r\n    uint256 public maxCollectiblesPerWallet;\r\n    mapping(uint256 => PoolInfo) public pools;\r\n    mapping(uint256 => StakingItem) public items;\r\n    mapping(address => uint256) public genesisOfUser;\r\n    mapping(address => uint256) public collectiblesOfUser;\r\n\r\n    event StakingItemCreated(\r\n        uint256 itemId,\r\n        address indexed nftContract,\r\n        address indexed owner,\r\n        uint256 tokenId\r\n    );\r\n\r\n    event Harvest(\r\n        uint256 itemId,\r\n        address indexed owner,\r\n        uint256 amount\r\n    );\r\n\r\n    constructor(IMilkToken _tokenMilk, uint256 _milkPerBlock) {\r\n        tokenMilk = _tokenMilk;\r\n        milkPerBlock = _milkPerBlock * 10 ** 6;\r\n        totalAllocPoint = 0;\r\n        maxGenesisPerWallet = 5;\r\n        maxCollectiblesPerWallet = 10;\r\n    }\r\n\r\n    function setMilkPerBlock(uint256 _milkPerBlock) public onlyOwner {\r\n        require(\r\n            _milkPerBlock > 0,\r\n            \"milkPerBlock must be greater than zero\"\r\n        );\r\n        milkPerBlock = _milkPerBlock * 10 ** 6;\r\n    }\r\n\r\n    function setMaxGenesisPerWallet(uint256 _value) public onlyOwner {\r\n        require(\r\n            _value > 0,\r\n            \"value must be greater than zero\"\r\n        );\r\n        maxGenesisPerWallet = _value;\r\n    }\r\n\r\n    function setMaxCollectiblesPerWallet(uint256 _value) public onlyOwner {\r\n        require(\r\n            _value > 0,\r\n            \"value must be greater than zero\"\r\n        );\r\n        maxCollectiblesPerWallet = _value;\r\n    }\r\n\r\n    function addPool(address _contractAddress, uint256 _allocPoint, uint256[] calldata _tokenIds, string memory _poolName) public onlyOwner {\r\n        stakingPoolCount.increment();\r\n        uint256 poolId = stakingPoolCount.current();\r\n\r\n        pools[poolId] = PoolInfo(\r\n            _contractAddress,\r\n            _allocPoint,\r\n            _tokenIds,\r\n            _poolName\r\n        );\r\n\r\n        totalAllocPoint = totalAllocPoint + _allocPoint;\r\n    }\r\n\r\n    function updatePool(\r\n        uint256 _poolId, \r\n        address _contractAddress, \r\n        uint256 _allocPoint, \r\n        uint256[] calldata _tokenIds, \r\n        string memory _poolName\r\n    ) public onlyOwner {\r\n        require(_poolId <= stakingPoolCount.current(), \"invalid poolId\");\r\n\r\n        totalAllocPoint = totalAllocPoint - pools[_poolId].allocPoint;\r\n\r\n        pools[_poolId] = PoolInfo(\r\n            _contractAddress,\r\n            _allocPoint,\r\n            _tokenIds,\r\n            _poolName\r\n        );\r\n\r\n        totalAllocPoint = totalAllocPoint + _allocPoint;\r\n    }\r\n\r\n    modifier isValid(address _msgSender, address _contractAddress, uint256 _tokenId) {\r\n        require(IERC721(_contractAddress).ownerOf(_tokenId) == _msgSender, \"not owner\");\r\n        require(genesisOfUser[_msgSender] <= maxGenesisPerWallet, \"already staked maximum number of genesis\");\r\n        require(collectiblesOfUser[_msgSender] <= maxCollectiblesPerWallet, \"already staked maximum number of collectibles\");\r\n\r\n        _;\r\n    }\r\n\r\n    function stake(\r\n        address _nftContract,\r\n        uint256 _tokenId\r\n    ) public nonReentrant isValid(msg.sender, _nftContract, _tokenId) {\r\n        stakingItemCount.increment();\r\n        uint256 itemId = stakingItemCount.current();\r\n\r\n        items[itemId] = StakingItem(\r\n            itemId,\r\n            _nftContract,\r\n            msg.sender,\r\n            _tokenId,\r\n            block.number,\r\n            0,\r\n            false\r\n        );\r\n\r\n        IERC721(_nftContract).transferFrom(msg.sender, address(this), _tokenId);\r\n        \r\n        if(isGenesisNFT(itemId)) genesisOfUser[msg.sender] ++;\r\n\r\n        else collectiblesOfUser[msg.sender] ++;\r\n\r\n        emit StakingItemCreated(\r\n            itemId,\r\n            _nftContract,\r\n            msg.sender,\r\n            _tokenId\r\n        );\r\n    }\r\n\r\n    function getAllocPoint(uint256 _itemId) internal view returns(uint256) {\r\n        for(uint256 i = 1; i <= stakingPoolCount.current(); i++) {\r\n            if (pools[i].contractAddress == items[_itemId].contractAddress) {\r\n                return pools[i].allocPoint;\r\n            }\r\n        }\r\n        return 0;\r\n    }\r\n\r\n    function isGenesisNFT(uint256 _itemId) internal view returns(bool) {\r\n        for(uint256 i = 1; i <= stakingPoolCount.current(); i++) {\r\n            if (pools[i].contractAddress == items[_itemId].contractAddress) {\r\n                if(pools[i].tokenIds.length != 0)\r\n                    return true;\r\n                else\r\n                    return false;\r\n            }\r\n        }\r\n        return false;\r\n    }\r\n\r\n    function _harvest(\r\n        uint256 _itemId,\r\n        address _owner\r\n    ) internal {\r\n        StakingItem storage item = items[_itemId];\r\n        require(_itemId <= stakingItemCount.current(), \"invalid Item Id\");\r\n        require(_owner == items[_itemId].owner, \"Not owner of this Item\" );\r\n        require(item.lastHarvestBlock < block.number, \"not ready to harvest\");\r\n\r\n        uint256 amount = milkPerBlock * getAllocPoint(_itemId) / totalAllocPoint * (block.number - item.lastHarvestBlock);\r\n\r\n        require(tokenMilk.balanceOf(address(this)) >= amount, \"insufficient Milk amount to harvest\");\r\n\r\n        tokenMilk.transfer(item.owner, amount * 10 ** 12);\r\n\r\n        item.lastHarvestBlock = block.number;\r\n\r\n        emit Harvest(_itemId, item.owner, amount);\r\n    }\r\n\r\n    function harvest(uint256 _poolId) public {\r\n        for(uint256 i = 1; i <= stakingItemCount.current(); i ++) {\r\n            if(items[i].owner == msg.sender && items[i].isEnded == false && pools[_poolId].contractAddress == items[i].contractAddress) {\r\n                _harvest(i, msg.sender);\r\n            }\r\n        }\r\n    }\r\n\r\n    function getStakedItems(address _owner) public view returns(StakingItem[] memory){\r\n        uint256 totalItemCount = stakingItemCount.current();\r\n        uint256 itemCount = 0;\r\n        uint256 currentIndex = 0;\r\n\r\n        for(uint256 i = 1; i <= totalItemCount; i ++) {\r\n            if(_owner == items[i].owner && items[i].isEnded == false) {\r\n                itemCount += 1;\r\n            }\r\n        }\r\n\r\n        StakingItem[] memory stakedItems = new StakingItem[](itemCount);\r\n    \r\n        for (uint256 i = 1; i <= totalItemCount; i ++) {\r\n            if(_owner == items[i].owner && items[i].isEnded == false) {\r\n                StakingItem storage currentItem = items[i];\r\n                stakedItems[currentIndex] = currentItem;\r\n                currentIndex += 1;\r\n            }\r\n        }\r\n\r\n        return stakedItems;\r\n\r\n    }\r\n\r\n    function getPendingMilk(uint256 _itemId) public view returns(uint256){\r\n        StakingItem storage item = items[_itemId];\r\n        uint256 amount = milkPerBlock * getAllocPoint(_itemId) / totalAllocPoint * (block.number - item.lastHarvestBlock);\r\n        return amount;\r\n    }\r\n\r\n    function getPendingMilkForAll(address _owner, uint256 _poolId) public view returns(uint256) {\r\n        uint256 totalMilkReward = 0;\r\n        for(uint256 i = 1; i <= stakingItemCount.current(); i ++) {\r\n            if(items[i].owner == _owner && items[i].isEnded == false && pools[_poolId].contractAddress == items[i].contractAddress) {\r\n                totalMilkReward += milkPerBlock * getAllocPoint(i) / totalAllocPoint * (block.number - items[i].lastHarvestBlock);\r\n            }\r\n        }\r\n        return totalMilkReward;\r\n    }\r\n    \r\n    function getBlockNumber() public view returns(uint256) {\r\n        return block.number;\r\n    }\r\n\r\n    function getTotalStakedCount(uint256 _poolId) public view returns(uint256) {\r\n        uint256 count = 0;\r\n        for(uint256 i = 1; i <= stakingItemCount.current(); i ++)\r\n        {\r\n            if(items[i].isEnded == false && items[i].contractAddress == pools[_poolId].contractAddress) {\r\n                count ++;\r\n            }\r\n        }\r\n        return count;\r\n    }\r\n\r\n    function getTotalMilkPower(uint256 _poolId) public view returns(uint256) {\r\n        uint256 count = getTotalStakedCount(_poolId);\r\n        uint256 totalMilkPower =  count * pools[_poolId].allocPoint * milkPerBlock / totalAllocPoint;\r\n        return totalMilkPower;\r\n    }\r\n\r\n    function getMyMilkPower(uint256 _poolId, address _owner) public view returns(uint256) {\r\n        uint256 count = 0;\r\n        for(uint256 i = 1; i <= stakingItemCount.current(); i ++)\r\n        {\r\n            if(items[i].isEnded == false && items[i].contractAddress == pools[_poolId].contractAddress && items[i].owner == _owner) {\r\n                count ++;\r\n            }\r\n        }\r\n        uint256 myMilkPower =  count * pools[_poolId].allocPoint * milkPerBlock / totalAllocPoint;\r\n        return myMilkPower;\r\n    }\r\n\r\n    function getDailyMilkRate(uint256 _poolId) public view returns(uint256) {\r\n        uint256 totalMilkPower = getTotalMilkPower(_poolId);\r\n        uint256 dailyRate = 0;\r\n        if(totalMilkPower != 0)\r\n            dailyRate = milkPerBlock * 20 * 60 * 24 * 100 / totalMilkPower;\r\n        return dailyRate;\r\n    }\r\n\r\n    function getLastHarvestBlock(uint256 _itemId) public view returns(uint256) {\r\n        StakingItem storage item = items[_itemId];\r\n        return item.lastHarvestBlock;\r\n    }\r\n\r\n    function unstake(\r\n        uint256 _itemId,\r\n        uint256 _poolId\r\n    ) public {\r\n        StakingItem storage item = items[_itemId];\r\n\r\n        require(item.owner == msg.sender, \"you are not owner\");\r\n        require(item.isEnded == false, \"This Staking Item was unstaked already!\");\r\n        _harvest(_itemId, msg.sender);\r\n        IERC721(item.contractAddress).transferFrom(address(this), msg.sender, item.tokenId);\r\n        item.isEnded = true;\r\n        if(_poolId == 1) maxCollectiblesPerWallet --;\r\n        else if(_poolId == 2) maxGenesisPerWallet --;\r\n    }\r\n}\r\n",
  "sourcePath": "E:\\Git for Project\\Ethereum\\NFT\\CashCow\\nft-contracts\\contracts\\Staking.sol",
  "compiler": {
    "name": "solc",
    "version": "0.8.4+commit.c7e474f2.Emscripten.clang"
  },
  "schemaVersion": "3.4.2",
  "updatedAt": "2022-02-04T17:51:12.580Z",
  "networkType": "ethereum",
  "devdoc": {
    "kind": "dev",
    "methods": {
      "owner()": {
        "details": "Returns the address of the current owner."
      },
      "renounceOwnership()": {
        "details": "Leaves the contract without owner. It will not be possible to call `onlyOwner` functions anymore. Can only be called by the current owner. NOTE: Renouncing ownership will leave the contract without an owner, thereby removing any functionality that is only available to the owner."
      },
      "transferOwnership(address)": {
        "details": "Transfers ownership of the contract to a new account (`newOwner`). Can only be called by the current owner."
      }
    },
    "version": 1
  },
  "userdoc": {
    "kind": "user",
    "methods": {},
    "version": 1
  }
}