{
  "contractName": "Staking",
  "abi": [
    {
      "inputs": [
        {
          "internalType": "contract IMilkToken",
          "name": "_tokenMilk",
          "type": "address"
        }
      ],
      "stateMutability": "nonpayable",
      "type": "constructor"
    },
    {
      "anonymous": false,
      "inputs": [
        {
          "indexed": false,
          "internalType": "uint256",
          "name": "itemId",
          "type": "uint256"
        },
        {
          "indexed": true,
          "internalType": "address",
          "name": "owner",
          "type": "address"
        },
        {
          "indexed": false,
          "internalType": "uint256",
          "name": "amount",
          "type": "uint256"
        }
      ],
      "name": "Harvest",
      "type": "event"
    },
    {
      "anonymous": false,
      "inputs": [
        {
          "indexed": true,
          "internalType": "address",
          "name": "previousOwner",
          "type": "address"
        },
        {
          "indexed": true,
          "internalType": "address",
          "name": "newOwner",
          "type": "address"
        }
      ],
      "name": "OwnershipTransferred",
      "type": "event"
    },
    {
      "anonymous": false,
      "inputs": [
        {
          "indexed": false,
          "internalType": "uint256",
          "name": "itemId",
          "type": "uint256"
        },
        {
          "indexed": true,
          "internalType": "address",
          "name": "nftContract",
          "type": "address"
        },
        {
          "indexed": true,
          "internalType": "address",
          "name": "owner",
          "type": "address"
        },
        {
          "indexed": false,
          "internalType": "uint256",
          "name": "tokenId",
          "type": "uint256"
        }
      ],
      "name": "StakingItemCreated",
      "type": "event"
    },
    {
      "inputs": [],
      "name": "endBlock",
      "outputs": [
        {
          "internalType": "uint256",
          "name": "",
          "type": "uint256"
        }
      ],
      "stateMutability": "view",
      "type": "function",
      "constant": true
    },
    {
      "inputs": [],
      "name": "isStakingAvailable",
      "outputs": [
        {
          "internalType": "bool",
          "name": "",
          "type": "bool"
        }
      ],
      "stateMutability": "view",
      "type": "function",
      "constant": true
    },
    {
      "inputs": [
        {
          "internalType": "uint256",
          "name": "",
          "type": "uint256"
        }
      ],
      "name": "items",
      "outputs": [
        {
          "internalType": "uint256",
          "name": "itemId",
          "type": "uint256"
        },
        {
          "internalType": "address",
          "name": "contractAddress",
          "type": "address"
        },
        {
          "internalType": "address",
          "name": "owner",
          "type": "address"
        },
        {
          "internalType": "uint256",
          "name": "tokenId",
          "type": "uint256"
        },
        {
          "internalType": "uint256",
          "name": "poolId",
          "type": "uint256"
        },
        {
          "internalType": "bool",
          "name": "isEnded",
          "type": "bool"
        }
      ],
      "stateMutability": "view",
      "type": "function",
      "constant": true
    },
    {
      "inputs": [],
      "name": "milkPerBlock",
      "outputs": [
        {
          "internalType": "uint256",
          "name": "",
          "type": "uint256"
        }
      ],
      "stateMutability": "view",
      "type": "function",
      "constant": true
    },
    {
      "inputs": [],
      "name": "owner",
      "outputs": [
        {
          "internalType": "address",
          "name": "",
          "type": "address"
        }
      ],
      "stateMutability": "view",
      "type": "function",
      "constant": true
    },
    {
      "inputs": [
        {
          "internalType": "address",
          "name": "",
          "type": "address"
        }
      ],
      "name": "poolIdOfContract",
      "outputs": [
        {
          "internalType": "uint256",
          "name": "",
          "type": "uint256"
        }
      ],
      "stateMutability": "view",
      "type": "function",
      "constant": true
    },
    {
      "inputs": [
        {
          "internalType": "uint256",
          "name": "",
          "type": "uint256"
        }
      ],
      "name": "pools",
      "outputs": [
        {
          "internalType": "address",
          "name": "contractAddress",
          "type": "address"
        },
        {
          "internalType": "uint256",
          "name": "allocPoint",
          "type": "uint256"
        },
        {
          "internalType": "uint256",
          "name": "milkPower",
          "type": "uint256"
        },
        {
          "internalType": "uint256",
          "name": "maxStakeCount",
          "type": "uint256"
        },
        {
          "internalType": "uint256",
          "name": "lastUpdatedBlock",
          "type": "uint256"
        },
        {
          "internalType": "uint256",
          "name": "stakedCount",
          "type": "uint256"
        }
      ],
      "stateMutability": "view",
      "type": "function",
      "constant": true
    },
    {
      "inputs": [],
      "name": "renounceOwnership",
      "outputs": [],
      "stateMutability": "nonpayable",
      "type": "function"
    },
    {
      "inputs": [],
      "name": "stakingItemCount",
      "outputs": [
        {
          "internalType": "uint256",
          "name": "_value",
          "type": "uint256"
        }
      ],
      "stateMutability": "view",
      "type": "function",
      "constant": true
    },
    {
      "inputs": [],
      "name": "stakingPoolCount",
      "outputs": [
        {
          "internalType": "uint256",
          "name": "_value",
          "type": "uint256"
        }
      ],
      "stateMutability": "view",
      "type": "function",
      "constant": true
    },
    {
      "inputs": [],
      "name": "startBlock",
      "outputs": [
        {
          "internalType": "uint256",
          "name": "",
          "type": "uint256"
        }
      ],
      "stateMutability": "view",
      "type": "function",
      "constant": true
    },
    {
      "inputs": [],
      "name": "totalAllocPoint",
      "outputs": [
        {
          "internalType": "uint256",
          "name": "",
          "type": "uint256"
        }
      ],
      "stateMutability": "view",
      "type": "function",
      "constant": true
    },
    {
      "inputs": [],
      "name": "totalAmountDepositedPool",
      "outputs": [
        {
          "internalType": "uint256",
          "name": "",
          "type": "uint256"
        }
      ],
      "stateMutability": "view",
      "type": "function",
      "constant": true
    },
    {
      "inputs": [
        {
          "internalType": "address",
          "name": "newOwner",
          "type": "address"
        }
      ],
      "name": "transferOwnership",
      "outputs": [],
      "stateMutability": "nonpayable",
      "type": "function"
    },
    {
      "inputs": [
        {
          "internalType": "address",
          "name": "",
          "type": "address"
        },
        {
          "internalType": "uint256",
          "name": "",
          "type": "uint256"
        }
      ],
      "name": "userInfo",
      "outputs": [
        {
          "internalType": "uint256",
          "name": "pendingMilk",
          "type": "uint256"
        },
        {
          "internalType": "uint256",
          "name": "userMilkPower",
          "type": "uint256"
        },
        {
          "internalType": "uint256",
          "name": "stakedCount",
          "type": "uint256"
        },
        {
          "internalType": "uint256",
          "name": "lastHarvestBlock",
          "type": "uint256"
        }
      ],
      "stateMutability": "view",
      "type": "function",
      "constant": true
    },
    {
      "inputs": [
        {
          "internalType": "uint256",
          "name": "_totalAmountDepositedPool",
          "type": "uint256"
        },
        {
          "internalType": "uint256",
          "name": "_startBlock",
          "type": "uint256"
        },
        {
          "internalType": "uint256",
          "name": "_endBlock",
          "type": "uint256"
        }
      ],
      "name": "depositMilkToPool",
      "outputs": [],
      "stateMutability": "nonpayable",
      "type": "function"
    },
    {
      "inputs": [
        {
          "internalType": "uint256",
          "name": "_startBlock",
          "type": "uint256"
        },
        {
          "internalType": "uint256",
          "name": "_endBlock",
          "type": "uint256"
        }
      ],
      "name": "setPeriod",
      "outputs": [],
      "stateMutability": "nonpayable",
      "type": "function"
    },
    {
      "inputs": [
        {
          "internalType": "bool",
          "name": "_isStakingAvailable",
          "type": "bool"
        }
      ],
      "name": "setIsStakingAvailable",
      "outputs": [],
      "stateMutability": "nonpayable",
      "type": "function"
    },
    {
      "inputs": [
        {
          "internalType": "address",
          "name": "_contractAddress",
          "type": "address"
        },
        {
          "internalType": "uint256",
          "name": "_allocPoint",
          "type": "uint256"
        },
        {
          "internalType": "uint256[]",
          "name": "_tokenIds",
          "type": "uint256[]"
        },
        {
          "internalType": "uint256",
          "name": "_milkPower",
          "type": "uint256"
        },
        {
          "internalType": "uint256",
          "name": "_maxStakeCount",
          "type": "uint256"
        }
      ],
      "name": "addPool",
      "outputs": [],
      "stateMutability": "nonpayable",
      "type": "function"
    },
    {
      "inputs": [
        {
          "internalType": "address",
          "name": "_contractAddress",
          "type": "address"
        },
        {
          "internalType": "uint256",
          "name": "_poolId",
          "type": "uint256"
        }
      ],
      "name": "setPoolIdOfContract",
      "outputs": [],
      "stateMutability": "nonpayable",
      "type": "function"
    },
    {
      "inputs": [
        {
          "internalType": "uint256",
          "name": "_poolId",
          "type": "uint256"
        },
        {
          "internalType": "uint256",
          "name": "_stakedCount",
          "type": "uint256"
        }
      ],
      "name": "setStakedCount",
      "outputs": [],
      "stateMutability": "nonpayable",
      "type": "function"
    },
    {
      "inputs": [
        {
          "internalType": "uint256",
          "name": "_poolId",
          "type": "uint256"
        },
        {
          "internalType": "address",
          "name": "_contractAddress",
          "type": "address"
        },
        {
          "internalType": "uint256",
          "name": "_allocPoint",
          "type": "uint256"
        },
        {
          "internalType": "uint256[]",
          "name": "_tokenIds",
          "type": "uint256[]"
        },
        {
          "internalType": "uint256",
          "name": "_milkPower",
          "type": "uint256"
        },
        {
          "internalType": "uint256",
          "name": "_maxStakeCount",
          "type": "uint256"
        }
      ],
      "name": "updatePool",
      "outputs": [],
      "stateMutability": "nonpayable",
      "type": "function"
    },
    {
      "inputs": [
        {
          "internalType": "address",
          "name": "_nftContract",
          "type": "address"
        },
        {
          "internalType": "uint256",
          "name": "_tokenId",
          "type": "uint256"
        }
      ],
      "name": "stake",
      "outputs": [],
      "stateMutability": "nonpayable",
      "type": "function"
    },
    {
      "inputs": [
        {
          "internalType": "uint256",
          "name": "_poolId",
          "type": "uint256"
        }
      ],
      "name": "harvest",
      "outputs": [],
      "stateMutability": "nonpayable",
      "type": "function"
    },
    {
      "inputs": [
        {
          "internalType": "uint256",
          "name": "_poolId",
          "type": "uint256"
        },
        {
          "internalType": "address",
          "name": "_owner",
          "type": "address"
        }
      ],
      "name": "getPendingMilk",
      "outputs": [
        {
          "internalType": "uint256",
          "name": "",
          "type": "uint256"
        }
      ],
      "stateMutability": "view",
      "type": "function",
      "constant": true
    },
    {
      "inputs": [
        {
          "internalType": "address",
          "name": "_owner",
          "type": "address"
        }
      ],
      "name": "getStakedItems",
      "outputs": [
        {
          "components": [
            {
              "internalType": "uint256",
              "name": "itemId",
              "type": "uint256"
            },
            {
              "internalType": "address",
              "name": "contractAddress",
              "type": "address"
            },
            {
              "internalType": "address",
              "name": "owner",
              "type": "address"
            },
            {
              "internalType": "uint256",
              "name": "tokenId",
              "type": "uint256"
            },
            {
              "internalType": "uint256",
              "name": "poolId",
              "type": "uint256"
            },
            {
              "internalType": "bool",
              "name": "isEnded",
              "type": "bool"
            }
          ],
          "internalType": "struct Staking.StakingItem[]",
          "name": "",
          "type": "tuple[]"
        }
      ],
      "stateMutability": "view",
      "type": "function",
      "constant": true
    },
    {
      "inputs": [],
      "name": "getBlockNumber",
      "outputs": [
        {
          "internalType": "uint256",
          "name": "",
          "type": "uint256"
        }
      ],
      "stateMutability": "view",
      "type": "function",
      "constant": true
    },
    {
      "inputs": [
        {
          "internalType": "uint256",
          "name": "_poolId",
          "type": "uint256"
        }
      ],
      "name": "getTotalMilkPower",
      "outputs": [
        {
          "internalType": "uint256",
          "name": "",
          "type": "uint256"
        }
      ],
      "stateMutability": "view",
      "type": "function",
      "constant": true
    },
    {
      "inputs": [
        {
          "internalType": "uint256",
          "name": "_poolId",
          "type": "uint256"
        },
        {
          "internalType": "address",
          "name": "_owner",
          "type": "address"
        }
      ],
      "name": "getMyMilkPower",
      "outputs": [
        {
          "internalType": "uint256",
          "name": "",
          "type": "uint256"
        }
      ],
      "stateMutability": "view",
      "type": "function",
      "constant": true
    },
    {
      "inputs": [
        {
          "internalType": "uint256",
          "name": "_poolId",
          "type": "uint256"
        }
      ],
      "name": "getDailyMilkRate",
      "outputs": [
        {
          "internalType": "uint256",
          "name": "",
          "type": "uint256"
        }
      ],
      "stateMutability": "view",
      "type": "function",
      "constant": true
    },
    {
      "inputs": [
        {
          "internalType": "uint256",
          "name": "_itemId",
          "type": "uint256"
        }
      ],
      "name": "unstake",
      "outputs": [],
      "stateMutability": "nonpayable",
      "type": "function"
    },
    {
      "inputs": [],
      "name": "withDraw",
      "outputs": [],
      "stateMutability": "nonpayable",
      "type": "function"
    }
  ],
  "bytecode": "0x60806040523480156200001157600080fd5b5060405162002561380380620025618339810160408190526200003491620000fa565b60016000556200005f62000050640100000000620000a4810204565b640100000000620000a8810204565b600d8054600160a060020a031916600160a060020a03929092169190911790556000600381905560028190556004556001805460a060020a60ff02191690556200012a565b3390565b60018054600160a060020a03838116600160a060020a0319831681179093556040519116919082907f8be0079c531659141344cd1fd0a4f28419497f9722a3daafe3b4186f6b6457e090600090a35050565b6000602082840312156200010c578081fd5b8151600160a060020a038116811462000123578182fd5b9392505050565b612427806200013a6000396000f3fe608060405234801561001057600080fd5b50600436106101f45760003560e060020a900480637506f53411610113578063bb7a8054116100a6578063d5dfc26511610075578063d5dfc2651461054e578063ddc632621461056e578063f2fde38b14610581578063fcd0ca1f1461059457600080fd5b8063bb7a805414610484578063bfb231d21461048d578063c84bbd6a1461051b578063d06cd5181461052e57600080fd5b80639c5a8540116100e25780639c5a8540146103c7578063ac4afa38146103da578063adc9772e1461045e578063b3eaa74b1461047157600080fd5b80637506f53414610386578063811e1cf91461038f578063872c7a50146103995780638da5cb5b146103ac57600080fd5b80632e17de781161018b5780635119913c1161015a5780635119913c1461032257806353dc4ae1146103585780636b16b1be1461036b578063715018a61461037e57600080fd5b80632e17de78146102ed57806342cbb15c1461030057806348cd4cb1146103065780634b8e4ace1461030f57600080fd5b806315a73197116101c757806315a731971461026757806317caf6f11461027a57806321ce919d146102835780632dd96be9146102e357600080fd5b806303c5b1dc146101f9578063083c63231461020e5780630dea2d5c1461022a5780630fdb1c101461025f575b600080fd5b61020c6102073660046121ae565b6105a7565b005b61021760065481565b6040519081526020015b60405180910390f35b60015461024f9074010000000000000000000000000000000000000000900460ff1681565b6040519015158152602001610221565b61020c610683565b61020c6102753660046120a0565b61085f565b61021760035481565b6102c3610291366004612009565b600a60209081526000928352604080842090915290825290208054600182015460028301546003909301549192909184565b604080519485526020850193909352918301526060820152608001610221565b600b546102179081565b61020c6102fb3660046120d8565b6108cc565b43610217565b61021760055481565b61020c61031d3660046121cf565b610b10565b610217610330366004612108565b600160a060020a03166000908152600a60209081526040808320938352929052206001015490565b61020c610366366004612009565b610deb565b61020c6103793660046121ae565b610e34565b61020c610e76565b61021760025481565b600c546102179081565b6102176103a73660046120d8565b610eaf565b600154604051600160a060020a039091168152602001610221565b6102176103d53660046120d8565b610eda565b6104276103e83660046120d8565b600760205260009081526040902080546001820154600283015460038401546004850154600590950154600160a060020a039094169492939192909186565b60408051600160a060020a0390971687526020870195909552938501929092526060840152608083015260a082015260c001610221565b61020c61046c366004612009565b610f5c565b61020c61047f366004612137565b61146f565b61021760045481565b6104e061049b3660046120d8565b6008602052600090815260409020805460018201546002830154600384015460048501546005909501549394600160a060020a03938416949290931692909160ff1686565b60408051968752600160a060020a039586166020880152939094169285019290925260608401526080830152151560a082015260c001610221565b610217610529366004612108565b611658565b61021761053c366004611fd1565b60096020526000908152604090205481565b61056161055c366004611fd1565b611745565b60405161022191906121fa565b61020c61057c3660046120d8565b611963565b61020c61058f366004611fd1565b611b55565b61020c6105a2366004612034565b611c0d565b600154600160a060020a031633146105dd5760405160e560020a62461bcd0281526004016105d4906122dd565b60405180910390fd5b43811161062f5760405160e560020a62461bcd02815260206004820152601e60248201527f456e6420426c6f636b206d75737420626967676572207468616e206e6f77000060448201526064016105d4565b8181116106515760405160e560020a62461bcd0281526004016105d490612280565b61065b828261236c565b60045461066b90620f424061234d565b610675919061232a565b600255600591909155600655565b600154600160a060020a031633146106b05760405160e560020a62461bcd0281526004016105d4906122dd565b60065443116107045760405160e560020a62461bcd02815260206004820152601760248201527f5374616b696e67206973206e6f742066696e697368656400000000000000000060448201526064016105d4565b600d546040517f70a08231000000000000000000000000000000000000000000000000000000008152306004820152600091600160a060020a0316906370a082319060240160206040518083038186803b15801561076157600080fd5b505afa158015610775573d6000803e3d6000fd5b505050506040513d601f19601f8201168201806040525081019061079991906120f0565b600d54909150600160a060020a031663a9059cbb6107bf600154600160a060020a031690565b60405160e060020a63ffffffff8416028152600160a060020a03909116600482015260248101849052604401602060405180830381600087803b15801561080557600080fd5b505af1158015610819573d6000803e3d6000fd5b505050506040513d601f19601f8201168201806040525081019061083d91906120bc565b50506001805474ff000000000000000000000000000000000000000019169055565b600154600160a060020a0316331461088c5760405160e560020a62461bcd0281526004016105d4906122dd565b60018054911515740100000000000000000000000000000000000000000274ff000000000000000000000000000000000000000019909216919091179055565b60008181526008602052604090206002810154600160a060020a031633146109395760405160e560020a62461bcd02815260206004820152601160248201527f796f7520617265206e6f74206f776e657200000000000000000000000000000060448201526064016105d4565b600581015460ff16156109b75760405160e560020a62461bcd02815260206004820152602760248201527f54686973205374616b696e67204974656d2077617320756e7374616b6564206160448201527f6c7265616479210000000000000000000000000000000000000000000000000060648201526084016105d4565b6109c5816004015433611dd8565b6109d28160040154611963565b600181015460038201546040517f23b872dd0000000000000000000000000000000000000000000000000000000081523060048201523360248201526044810191909152600160a060020a03909116906323b872dd90606401600060405180830381600087803b158015610a4557600080fd5b505af1158015610a59573d6000803e3d6000fd5b5050506005808301805460ff19166001179055600483015460009081526007602052604081209091018054925090610a9083612383565b90915550506004810154600081815260076020908152604080832060020154338452600a83528184209484529390915281206001018054909190610ad590849061236c565b9091555050336000908152600a60209081526040808320600485015484529091528120600201805491610b0783612383565b91905055505050565b600154600160a060020a03163314610b3d5760405160e560020a62461bcd0281526004016105d4906122dd565b600d548390600160a060020a03166370a08231610b62600154600160a060020a031690565b60405160e060020a63ffffffff8416028152600160a060020a03909116600482015260240160206040518083038186803b158015610b9f57600080fd5b505afa158015610bb3573d6000803e3d6000fd5b505050506040513d601f19601f82011682018060405250810190610bd791906120f0565b1015610c4e5760405160e560020a62461bcd02815260206004820152602360248201527f696e73756666696369656e74204d696c6b20616d6f756e7420746f204465706f60448201527f736974000000000000000000000000000000000000000000000000000000000060648201526084016105d4565b438111610ca05760405160e560020a62461bcd02815260206004820152601e60248201527f456e6420426c6f636b206d75737420626967676572207468616e206e6f77000060448201526064016105d4565b818111610cc25760405160e560020a62461bcd0281526004016105d490612280565b600d54600160a060020a03166323b872dd610ce5600154600160a060020a031690565b30610cf887670de0b6b3a764000061234d565b60405160e060020a63ffffffff8616028152600160a060020a0393841660048201529290911660248301526044820152606401602060405180830381600087803b158015610d4557600080fd5b505af1158015610d59573d6000803e3d6000fd5b505050506040513d601f19601f82011682018060405250810190610d7d91906120bc565b50600483905560058290556006819055610d97828261236c565b610da484620f424061234d565b610dae919061232a565b60025550506001805474ff000000000000000000000000000000000000000019167401000000000000000000000000000000000000000017905550565b600154600160a060020a03163314610e185760405160e560020a62461bcd0281526004016105d4906122dd565b600160a060020a03909116600090815260096020526040902055565b600154600160a060020a03163314610e615760405160e560020a62461bcd0281526004016105d4906122dd565b60009182526007602052604090912060050155565b600154600160a060020a03163314610ea35760405160e560020a62461bcd0281526004016105d4906122dd565b610ead6000611ec9565b565b600081815260076020526040812060028101546005909101548291610ed39161234d565b9392505050565b600080610ee683610eaf565b905060008115610ed3576003546000858152600760205260409020600101546002548490610f1590601461234d565b610f2090603c61234d565b610f2b90601861234d565b610f3690606461234d565b610f40919061232a565b610f4a919061234d565b610f54919061232a565b949350505050565b60026000541415610fb25760405160e560020a62461bcd02815260206004820152601f60248201527f5265656e7472616e637947756172643a207265656e7472616e742063616c6c0060448201526064016105d4565b60026000556040517f6352211e000000000000000000000000000000000000000000000000000000008152600481018290523390839083908390600160a060020a03841690636352211e9060240160206040518083038186803b15801561101857600080fd5b505afa15801561102c573d6000803e3d6000fd5b505050506040513d601f19601f820116820180604052508101906110509190611fed565b600160a060020a0316146110a95760405160e560020a62461bcd02815260206004820152600960248201527f6e6f74206f776e6572000000000000000000000000000000000000000000000060448201526064016105d4565b600160a060020a03851660009081526009602052604090205460055443108015906110d657506006544311155b801561110057506001805474010000000000000000000000000000000000000000900460ff161515145b61114f5760405160e560020a62461bcd02815260206004820152601760248201527f5374616b696e67206973206e6f7420737461727465642100000000000000000060448201526064016105d4565b806111c45760405160e560020a62461bcd028152602060048201526024808201527f5468657265206973206e6f20436f6e7472616374204164647265737320696e2060448201527f506f6f6c0000000000000000000000000000000000000000000000000000000060648201526084016105d4565b600081815260076020908152604080832060030154338452600a835281842085855290925290912060020154106112405760405160e560020a62461bcd02815260206004820152601d60248201527f4f766572666c6f77206f66204d6178205374616b696e6720436f756e7400000060448201526064016105d4565b61124a8133611dd8565b611258600c80546001019055565b6000611263600c5490565b6040805160c081018252828152600160a060020a038a8116602080840182815233858701818152606087018f8152608088018c8152600060a08a018181528c825260089097528a902098518955935160018901805473ffffffffffffffffffffffffffffffffffffffff19908116928a1692909217905591516002890180549093169716969096179055935160038601555160048086019190915590516005909401805460ff19169415159490941790935592517f23b872dd0000000000000000000000000000000000000000000000000000000081529182015230602482015260448101899052919250906323b872dd90606401600060405180830381600087803b15801561137257600080fd5b505af1158015611386573d6000803e3d6000fd5b505050600083815260076020526040812060050180549250906113a88361239a565b9091555050336000908152600a6020908152604080832085845290915281206002018054916113d68361239a565b9091555050600082815260076020908152604080832060020154338452600a83528184208685529092528220600101805491929091611416908490612312565b909155505060408051828152602081018890523391600160a060020a038a16917f4249649a2f5c977056f4db60e40a673eabf996b3ec3dc5b5b5713971888e6020910160405180910390a3505060016000555050505050565b600154600160a060020a0316331461149c5760405160e560020a62461bcd0281526004016105d4906122dd565b600b548711156114f15760405160e560020a62461bcd02815260206004820152600e60248201527f696e76616c696420706f6f6c496400000000000000000000000000000000000060448201526064016105d4565b600087815260076020526040902060010154600354611510919061236c565b6003556040805160e081018252600160a060020a038816815260208082018890528183018590526060820184905260008a8152600780835284822060058101546080860152918c905282526004015460a083015282518682028181018301909452868152919260c084019291889188918291908501908490808284376000920182905250939094525050898152600760209081526040918290208451815473ffffffffffffffffffffffffffffffffffffffff1916600160a060020a03909116178155848201516001820155918401516002830155606084015160038301556080840151600483015560a0840151600583015560c084015180519293506116209260068501929190910190611f28565b505050600160a060020a038616600090815260096020526040902087905560035461164c908690612312565b60035550505050505050565b600082815260076020526040812060028101546005909101548291829161167f919061234d565b600160a060020a0385166000908152600a602090815260408083208984529091529020600654919250904311156116ba5760065492506116be565b4392505b6000821561172e57828260010154600354600760008b8152602001908152602001600020600101548560030154886116f6919061236c565b600254611703919061234d565b61170d919061234d565b611717919061232a565b611721919061234d565b61172b919061232a565b90505b815461173a9082612312565b979650505050505050565b60606000611752600c5490565b905060008060015b8381116117c457600081815260086020526040902060020154600160a060020a03878116911614801561179f575060008181526008602052604090206005015460ff16155b156117b2576117af600184612312565b92505b806117bc8161239a565b91505061175a565b5060008267ffffffffffffffff8111156117f15760e060020a634e487b7102600052604160045260246000fd5b60405190808252806020026020018201604052801561185157816020015b6040805160c08101825260008082526020808301829052928201819052606082018190526080820181905260a0820152825260001990920191018161180f5790505b50905060015b84811161195957600081815260086020526040902060020154600160a060020a03888116911614801561189c575060008181526008602052604090206005015460ff16155b1561194757600081815260086020908152604091829020825160c081018452815481526001820154600160a060020a03908116938201939093526002820154909216928201929092526003820154606082015260048201546080820152600582015460ff16151560a0820152835184908690811061192d5760e060020a634e487b7102600052603260045260246000fd5b6020908102919091010152611943600185612312565b9350505b806119518161239a565b915050611857565b5095945050505050565b61196d8133611dd8565b336000908152600a602090815260408083208484529091529081902054600d5491517f70a0823100000000000000000000000000000000000000000000000000000000815230600482015290918291600160a060020a03909116906370a082319060240160206040518083038186803b1580156119e957600080fd5b505afa1580156119fd573d6000803e3d6000fd5b505050506040513d601f19601f82011682018060405250810190611a2191906120f0565b1015611a985760405160e560020a62461bcd02815260206004820152602360248201527f696e73756666696369656e74204d696c6b20616d6f756e7420746f204861727660448201527f657374000000000000000000000000000000000000000000000000000000000060648201526084016105d4565b600d546040517fa9059cbb00000000000000000000000000000000000000000000000000000000815233600482015260248101839052600160a060020a039091169063a9059cbb90604401602060405180830381600087803b158015611afd57600080fd5b505af1158015611b11573d6000803e3d6000fd5b505050506040513d601f19601f82011682018060405250810190611b3591906120bc565b5050336000908152600a6020908152604080832093835292905290812055565b600154600160a060020a03163314611b825760405160e560020a62461bcd0281526004016105d4906122dd565b600160a060020a038116611c015760405160e560020a62461bcd02815260206004820152602660248201527f4f776e61626c653a206e6577206f776e657220697320746865207a65726f206160448201527f646472657373000000000000000000000000000000000000000000000000000060648201526084016105d4565b611c0a81611ec9565b50565b600154600160a060020a03163314611c3a5760405160e560020a62461bcd0281526004016105d4906122dd565b60055415801590611c4c575060065415155b611c9b5760405160e560020a62461bcd02815260206004820152601f60248201527f52657761726420546f6b656e206e6f74206465706f736974656420796574210060448201526064016105d4565b611ca9600b80546001019055565b6000611cb4600b5490565b90506040518060e0016040528088600160a060020a031681526020018781526020018481526020018381526020016005548152602001600081526020018686808060200260200160405190810160405280939291908181526020018383602002808284376000920182905250939094525050838152600760209081526040918290208451815473ffffffffffffffffffffffffffffffffffffffff1916600160a060020a03909116178155848201516001820155918401516002830155606084015160038301556080840151600483015560a0840151600583015560c08401518051929350611dac9260068501929190910190611f28565b505050600160a060020a038716600090815260096020526040902081905560035461164c908790612312565b6000600654431115611ded5750600654611df0565b50435b60008381526007602052604081206002810154600590910154611e13919061234d565b600160a060020a0384166000908152600a6020908152604080832088845290915290209091508115611ebd578181600101546003546007600089815260200190815260200160002060010154846003015487611e6f919061236c565b600254611e7c919061234d565b611e86919061234d565b611e90919061232a565b611e9a919061234d565b611ea4919061232a565b816000016000828254611eb79190612312565b90915550505b60030191909155505050565b60018054600160a060020a0383811673ffffffffffffffffffffffffffffffffffffffff19831681179093556040519116919082907f8be0079c531659141344cd1fd0a4f28419497f9722a3daafe3b4186f6b6457e090600090a35050565b828054828255906000526020600020908101928215611f63579160200282015b82811115611f63578251825591602001919060010190611f48565b50611f6f929150611f73565b5090565b5b80821115611f6f5760008155600101611f74565b60008083601f840112611f99578182fd5b50813567ffffffffffffffff811115611fb0578182fd5b6020830191508360208083028501011115611fca57600080fd5b9250929050565b600060208284031215611fe2578081fd5b8135610ed3816123ce565b600060208284031215611ffe578081fd5b8151610ed3816123ce565b6000806040838503121561201b578081fd5b8235612026816123ce565b946020939093013593505050565b60008060008060008060a0878903121561204c578182fd5b8635612057816123ce565b955060208701359450604087013567ffffffffffffffff811115612079578283fd5b61208589828a01611f88565b979a9699509760608101359660809091013595509350505050565b6000602082840312156120b1578081fd5b8135610ed3816123e3565b6000602082840312156120cd578081fd5b8151610ed3816123e3565b6000602082840312156120e9578081fd5b5035919050565b600060208284031215612101578081fd5b5051919050565b6000806040838503121561211a578182fd5b82359150602083013561212c816123ce565b809150509250929050565b600080600080600080600060c0888a031215612151578081fd5b873596506020880135612163816123ce565b955060408801359450606088013567ffffffffffffffff811115612185578182fd5b6121918a828b01611f88565b989b979a50959895979660808701359660a0013595509350505050565b600080604083850312156121c0578182fd5b50508035926020909101359150565b6000806000606084860312156121e3578283fd5b505081359360208301359350604090920135919050565b602080825282518282018190526000919060409081850190868401855b828110156122735781518051855286810151600160a060020a0390811688870152868201511686860152606080820151908601526080808201519086015260a09081015115159085015260c09093019290850190600101612217565b5091979650505050505050565b60208082526034908201527f456e6420426c6f636b204e756d626572206d757374206269676765722074686160408201527f6e20537461727420426c6f636b204e756d626572000000000000000000000000606082015260800190565b6020808252818101527f4f776e61626c653a2063616c6c6572206973206e6f7420746865206f776e6572604082015260600190565b60008219821115612325576123256123b5565b500190565b6000826123485760e060020a634e487b710281526012600452602481fd5b500490565b6000816000190483118215151615612367576123676123b5565b500290565b60008282101561237e5761237e6123b5565b500390565b600081612392576123926123b5565b506000190190565b60006000198214156123ae576123ae6123b5565b5060010190565b60e060020a634e487b7102600052601160045260246000fd5b600160a060020a0381168114611c0a57600080fd5b8015158114611c0a57600080fdfea2646970667358221220d5e3384be3dcd2772b6ad15594eeeecc64a3dbb1bb1d611f3406815ebf1f92fc64736f6c63430008040033",
  "immutableReferences": {},
  "source": "// SPDX-License-Identifier: MIT\r\npragma solidity ^0.8.4;\r\nimport \"@openzeppelin/contracts/utils/Counters.sol\";\r\nimport \"@openzeppelin/contracts/token/ERC721/ERC721.sol\";\r\nimport \"@openzeppelin/contracts/security/ReentrancyGuard.sol\";\r\nimport \"@openzeppelin/contracts/access/Ownable.sol\";\r\nimport \"./interfaces/IMilkToken.sol\";\r\n\r\ncontract Staking is ReentrancyGuard, Ownable {\r\n    using Counters for Counters.Counter;\r\n\r\n    bool public isStakingAvailable;\r\n    uint256 public milkPerBlock;\r\n    uint256 public totalAllocPoint;\r\n    uint256 public totalAmountDepositedPool;\r\n    uint256 public startBlock;\r\n    uint256 public endBlock;\r\n    \r\n    struct StakingItem {\r\n        uint256 itemId;\r\n        address contractAddress;\r\n        address owner;\r\n        uint256 tokenId;\r\n        uint256 poolId;\r\n        bool isEnded;\r\n    }\r\n\r\n    struct PoolInfo {\r\n        address contractAddress;\r\n        uint256 allocPoint;\r\n        uint256 milkPower;\r\n        uint256 maxStakeCount;\r\n        uint256 lastUpdatedBlock;\r\n        uint256 stakedCount;\r\n        uint256[] tokenIds;\r\n    }\r\n\r\n    struct UserInfo {\r\n        uint256 pendingMilk;\r\n        uint256 userMilkPower;\r\n        uint256 stakedCount;\r\n        uint256 lastHarvestBlock;\r\n    }\r\n\r\n    mapping(uint256 => PoolInfo) public pools;\r\n    mapping(uint256 => StakingItem) public items;\r\n    mapping(address => uint256) public poolIdOfContract;\r\n    mapping(address => mapping(uint256 => UserInfo)) public userInfo;\r\n\r\n    Counters.Counter public stakingPoolCount;\r\n    Counters.Counter public stakingItemCount;\r\n    \r\n    IMilkToken tokenMilk;\r\n\r\n    event StakingItemCreated(\r\n        uint256 itemId,\r\n        address indexed nftContract,\r\n        address indexed owner,\r\n        uint256 tokenId\r\n    );\r\n\r\n    event Harvest(\r\n        uint256 itemId,\r\n        address indexed owner,\r\n        uint256 amount\r\n    );\r\n\r\n    constructor(IMilkToken _tokenMilk) {\r\n        tokenMilk = _tokenMilk;\r\n        totalAllocPoint = 0;\r\n        milkPerBlock = 0;\r\n        totalAmountDepositedPool = 0;\r\n        isStakingAvailable = false;\r\n    }\r\n\r\n    function depositMilkToPool(uint256 _totalAmountDepositedPool, uint256 _startBlock, uint256 _endBlock) public onlyOwner {\r\n        require(tokenMilk.balanceOf(owner()) >= _totalAmountDepositedPool, \"insufficient Milk amount to Deposit\");\r\n        require(_endBlock > block.number, \"End Block must bigger than now\");\r\n        require(_endBlock > _startBlock, \"End Block Number must bigger than Start Block Number\");\r\n        tokenMilk.transferFrom(owner(), address(this), _totalAmountDepositedPool * 10 ** 18);\r\n        \r\n        totalAmountDepositedPool = _totalAmountDepositedPool;\r\n        startBlock = _startBlock;\r\n        endBlock = _endBlock;\r\n        milkPerBlock = 10 ** 6 * _totalAmountDepositedPool / (_endBlock - _startBlock);\r\n        isStakingAvailable = true;\r\n    }\r\n\r\n    function setPeriod(uint256 _startBlock, uint256 _endBlock) public onlyOwner {\r\n        require(_endBlock > block.number, \"End Block must bigger than now\");\r\n        require(_endBlock > _startBlock, \"End Block Number must bigger than Start Block Number\");\r\n        milkPerBlock = 10 ** 6 * totalAmountDepositedPool / (_endBlock - _startBlock);\r\n        startBlock = _startBlock;\r\n        endBlock = _endBlock;\r\n    }    \r\n\r\n    function setIsStakingAvailable(bool _isStakingAvailable) public onlyOwner{\r\n        isStakingAvailable = _isStakingAvailable;\r\n    }\r\n\r\n    function addPool(address _contractAddress, uint256 _allocPoint, uint256[] calldata _tokenIds, uint256 _milkPower, uint256 _maxStakeCount) public onlyOwner {\r\n        require(startBlock != 0 && endBlock != 0, \"Reward Token not deposited yet!\");\r\n        stakingPoolCount.increment();\r\n        uint256 poolId = stakingPoolCount.current();\r\n\r\n        pools[poolId] = PoolInfo(\r\n            _contractAddress,\r\n            _allocPoint,\r\n            _milkPower,\r\n            _maxStakeCount,\r\n            startBlock,\r\n            0,\r\n            _tokenIds\r\n        );\r\n\r\n        poolIdOfContract[_contractAddress] = poolId;\r\n\r\n        totalAllocPoint = totalAllocPoint + _allocPoint;\r\n    }\r\n\r\n    function setPoolIdOfContract(address _contractAddress, uint256 _poolId) public onlyOwner {\r\n        poolIdOfContract[_contractAddress] = _poolId;\r\n    }\r\n\r\n    function setStakedCount(uint256 _poolId, uint256 _stakedCount) public onlyOwner {\r\n        pools[_poolId].stakedCount = _stakedCount;\r\n    }\r\n\r\n    function updatePool(\r\n        uint256 _poolId, \r\n        address _contractAddress, \r\n        uint256 _allocPoint, \r\n        uint256[] calldata _tokenIds,\r\n        uint256 _milkPower, \r\n        uint256 _maxStakeCount\r\n    ) public onlyOwner {\r\n        require(_poolId <= stakingPoolCount.current(), \"invalid poolId\");\r\n\r\n        totalAllocPoint = totalAllocPoint - pools[_poolId].allocPoint;\r\n\r\n        pools[_poolId] = PoolInfo(\r\n            _contractAddress,\r\n            _allocPoint,\r\n            _milkPower,\r\n            _maxStakeCount,\r\n            pools[_poolId].stakedCount,\r\n            pools[_poolId].lastUpdatedBlock,\r\n            _tokenIds\r\n        );\r\n\r\n        poolIdOfContract[_contractAddress] = _poolId;\r\n\r\n        totalAllocPoint = totalAllocPoint + _allocPoint;\r\n    }\r\n\r\n    modifier isValid(address _msgSender, address _contractAddress, uint256 _tokenId) {\r\n        require(IERC721(_contractAddress).ownerOf(_tokenId) == _msgSender, \"not owner\");\r\n        _;\r\n    }\r\n\r\n    function _updateUserInfo(uint256 _poolId, address _owner) internal {\r\n\r\n        /**Update the Pending Milk for All Items */\r\n        uint256 tmpEndBlock = 0;\r\n        if(block.number > endBlock)\r\n            tmpEndBlock = endBlock;\r\n        else \r\n            tmpEndBlock = block.number;\r\n        uint256 totalMilkPower =  pools[_poolId].stakedCount * pools[_poolId].milkPower;\r\n\r\n        UserInfo storage _userInfo = userInfo[_owner][_poolId];\r\n        if(totalMilkPower != 0)\r\n            _userInfo.pendingMilk += milkPerBlock * (tmpEndBlock - _userInfo.lastHarvestBlock) * pools[_poolId].allocPoint / totalAllocPoint * _userInfo.userMilkPower / totalMilkPower;\r\n        _userInfo.lastHarvestBlock = tmpEndBlock;\r\n        /**End Update */\r\n    }\r\n\r\n    function stake(\r\n        address _nftContract,\r\n        uint256 _tokenId\r\n    ) public nonReentrant isValid(msg.sender, _nftContract, _tokenId) {\r\n\r\n        uint256 poolId = poolIdOfContract[_nftContract];\r\n\r\n        require(block.number >= startBlock && block.number <= endBlock && isStakingAvailable == true, \"Staking is not started!\");\r\n        require(poolId != 0, \"There is no Contract Address in Pool\");\r\n        require(userInfo[msg.sender][poolId].stakedCount < pools[poolId].maxStakeCount, \"Overflow of Max Staking Count\");\r\n\r\n        _updateUserInfo(poolId, msg.sender);\r\n\r\n        stakingItemCount.increment();\r\n        uint256 itemId = stakingItemCount.current();\r\n\r\n        items[itemId] = StakingItem(\r\n            itemId,\r\n            _nftContract,\r\n            msg.sender,\r\n            _tokenId,\r\n            poolId,\r\n            false\r\n        );\r\n\r\n        IERC721(_nftContract).transferFrom(msg.sender, address(this), _tokenId);\r\n\r\n        pools[poolId].stakedCount ++;\r\n        userInfo[msg.sender][poolId].stakedCount ++;\r\n        userInfo[msg.sender][poolId].userMilkPower += pools[poolId].milkPower;\r\n\r\n        emit StakingItemCreated(\r\n            itemId,\r\n            _nftContract,\r\n            msg.sender,\r\n            _tokenId\r\n        );\r\n    }\r\n\r\n    function harvest(uint256 _poolId) public {\r\n\r\n        _updateUserInfo(_poolId, msg.sender);\r\n        uint256 userPendingMilk = userInfo[msg.sender][_poolId].pendingMilk;\r\n\r\n        require(tokenMilk.balanceOf(address(this)) >= userPendingMilk, \"insufficient Milk amount to Harvest\");\r\n        \r\n        tokenMilk.transfer(msg.sender, userPendingMilk);\r\n\r\n        userInfo[msg.sender][_poolId].pendingMilk = 0;\r\n    }\r\n\r\n    function getPendingMilk(uint256 _poolId, address _owner) public view returns(uint256){\r\n        uint256 tmpEndBlock = 0;\r\n        uint256 totalMilkPower =  pools[_poolId].stakedCount * pools[_poolId].milkPower;\r\n        UserInfo storage _userInfo = userInfo[_owner][_poolId];\r\n\r\n        if(block.number > endBlock)\r\n            tmpEndBlock = endBlock;\r\n        else \r\n            tmpEndBlock = block.number;\r\n        \r\n        uint256 amount = 0;\r\n        if(totalMilkPower != 0)\r\n            amount = milkPerBlock * (tmpEndBlock - _userInfo.lastHarvestBlock) * pools[_poolId].allocPoint / totalAllocPoint * _userInfo.userMilkPower / totalMilkPower;\r\n        amount += _userInfo.pendingMilk;\r\n        return amount;\r\n    }\r\n\r\n    function getStakedItems(address _owner) public view returns(StakingItem[] memory){\r\n        uint256 totalItemCount = stakingItemCount.current();\r\n        uint256 itemCount = 0;\r\n        uint256 currentIndex = 0;\r\n\r\n        for(uint256 i = 1; i <= totalItemCount; i ++) {\r\n            if(_owner == items[i].owner && items[i].isEnded == false) {\r\n                itemCount += 1;\r\n            }\r\n        }\r\n\r\n        StakingItem[] memory stakedItems = new StakingItem[](itemCount);\r\n    \r\n        for (uint256 i = 1; i <= totalItemCount; i ++) {\r\n            if(_owner == items[i].owner && items[i].isEnded == false) {\r\n                StakingItem storage currentItem = items[i];\r\n                stakedItems[currentIndex] = currentItem;\r\n                currentIndex += 1;\r\n            }\r\n        }\r\n\r\n        return stakedItems;\r\n\r\n    }\r\n   \r\n    function getBlockNumber() public view returns(uint256) {\r\n        return block.number;\r\n    }\r\n\r\n    function getTotalMilkPower(uint256 _poolId) public view returns(uint256) {\r\n        uint256 totalMilkPower =  pools[_poolId].stakedCount * pools[_poolId].milkPower;\r\n        return totalMilkPower;\r\n    }\r\n\r\n    function getMyMilkPower(uint256 _poolId, address _owner) public view returns(uint256) {\r\n        return userInfo[_owner][_poolId].userMilkPower;\r\n    }\r\n\r\n    function getDailyMilkRate(uint256 _poolId) public view returns(uint256) {\r\n        uint256 totalMilkPower = getTotalMilkPower(_poolId);\r\n        uint256 dailyRate = 0;\r\n        if(totalMilkPower != 0)\r\n            dailyRate = milkPerBlock * 20 * 60 * 24 * 100 / totalMilkPower * pools[_poolId].allocPoint / totalAllocPoint;\r\n        return dailyRate;\r\n    }\r\n\r\n    function unstake(\r\n        uint256 _itemId\r\n    ) public {\r\n        StakingItem storage item = items[_itemId];\r\n\r\n        require(item.owner == msg.sender, \"you are not owner\");\r\n        require(item.isEnded == false, \"This Staking Item was unstaked already!\");\r\n\r\n        _updateUserInfo(item.poolId, msg.sender);\r\n        harvest(item.poolId);\r\n\r\n        IERC721(item.contractAddress).transferFrom(address(this), msg.sender, item.tokenId);\r\n        item.isEnded = true;\r\n        pools[item.poolId].stakedCount --;\r\n        userInfo[msg.sender][item.poolId].userMilkPower -= pools[item.poolId].milkPower;\r\n        userInfo[msg.sender][item.poolId].stakedCount --;\r\n    }\r\n\r\n    function withDraw() public onlyOwner {\r\n        require(block.number > endBlock, \"Staking is not finished\");\r\n        uint256 remainBalance = tokenMilk.balanceOf(address(this));\r\n        tokenMilk.transfer(owner(), remainBalance);\r\n        isStakingAvailable = false;\r\n    }\r\n}\r\n",
  "sourcePath": "E:\\Git for Project\\Ethereum\\NFT\\CashCow\\nft-contracts\\contracts\\Staking.sol",
  "compiler": {
    "name": "solc",
    "version": "0.8.4+commit.c7e474f2.Emscripten.clang"
  },
  "schemaVersion": "3.4.2",
  "updatedAt": "2022-02-17T18:19:09.819Z",
  "networkType": "ethereum",
  "devdoc": {
    "kind": "dev",
    "methods": {
      "owner()": {
        "details": "Returns the address of the current owner."
      },
      "renounceOwnership()": {
        "details": "Leaves the contract without owner. It will not be possible to call `onlyOwner` functions anymore. Can only be called by the current owner. NOTE: Renouncing ownership will leave the contract without an owner, thereby removing any functionality that is only available to the owner."
      },
      "transferOwnership(address)": {
        "details": "Transfers ownership of the contract to a new account (`newOwner`). Can only be called by the current owner."
      }
    },
    "version": 1
  },
  "userdoc": {
    "kind": "user",
    "methods": {},
    "version": 1
  }
}