{
  "contractName": "Staking",
  "abi": [
    {
      "inputs": [
        {
          "internalType": "contract IMilkToken",
          "name": "_tokenMilk",
          "type": "address"
        },
        {
          "internalType": "bool",
          "name": "_isAvailableAllocation",
          "type": "bool"
        }
      ],
      "stateMutability": "nonpayable",
      "type": "constructor"
    },
    {
      "anonymous": false,
      "inputs": [
        {
          "indexed": false,
          "internalType": "uint256",
          "name": "itemId",
          "type": "uint256"
        },
        {
          "indexed": true,
          "internalType": "address",
          "name": "owner",
          "type": "address"
        },
        {
          "indexed": false,
          "internalType": "uint256",
          "name": "amount",
          "type": "uint256"
        }
      ],
      "name": "Harvest",
      "type": "event"
    },
    {
      "anonymous": false,
      "inputs": [
        {
          "indexed": true,
          "internalType": "address",
          "name": "previousOwner",
          "type": "address"
        },
        {
          "indexed": true,
          "internalType": "address",
          "name": "newOwner",
          "type": "address"
        }
      ],
      "name": "OwnershipTransferred",
      "type": "event"
    },
    {
      "anonymous": false,
      "inputs": [
        {
          "indexed": false,
          "internalType": "uint256",
          "name": "itemId",
          "type": "uint256"
        },
        {
          "indexed": true,
          "internalType": "address",
          "name": "nftContract",
          "type": "address"
        },
        {
          "indexed": true,
          "internalType": "address",
          "name": "owner",
          "type": "address"
        },
        {
          "indexed": false,
          "internalType": "uint256",
          "name": "tokenId",
          "type": "uint256"
        }
      ],
      "name": "StakingItemCreated",
      "type": "event"
    },
    {
      "inputs": [
        {
          "internalType": "address",
          "name": "",
          "type": "address"
        }
      ],
      "name": "collectiblesOfUser",
      "outputs": [
        {
          "internalType": "uint256",
          "name": "",
          "type": "uint256"
        }
      ],
      "stateMutability": "view",
      "type": "function",
      "constant": true
    },
    {
      "inputs": [],
      "name": "endBlock",
      "outputs": [
        {
          "internalType": "uint256",
          "name": "",
          "type": "uint256"
        }
      ],
      "stateMutability": "view",
      "type": "function",
      "constant": true
    },
    {
      "inputs": [
        {
          "internalType": "address",
          "name": "",
          "type": "address"
        }
      ],
      "name": "genesisOfUser",
      "outputs": [
        {
          "internalType": "uint256",
          "name": "",
          "type": "uint256"
        }
      ],
      "stateMutability": "view",
      "type": "function",
      "constant": true
    },
    {
      "inputs": [],
      "name": "isAvailableAllocation",
      "outputs": [
        {
          "internalType": "bool",
          "name": "",
          "type": "bool"
        }
      ],
      "stateMutability": "view",
      "type": "function",
      "constant": true
    },
    {
      "inputs": [],
      "name": "isStakingAvailable",
      "outputs": [
        {
          "internalType": "bool",
          "name": "",
          "type": "bool"
        }
      ],
      "stateMutability": "view",
      "type": "function",
      "constant": true
    },
    {
      "inputs": [
        {
          "internalType": "uint256",
          "name": "",
          "type": "uint256"
        }
      ],
      "name": "items",
      "outputs": [
        {
          "internalType": "uint256",
          "name": "itemId",
          "type": "uint256"
        },
        {
          "internalType": "address",
          "name": "contractAddress",
          "type": "address"
        },
        {
          "internalType": "address",
          "name": "owner",
          "type": "address"
        },
        {
          "internalType": "uint256",
          "name": "tokenId",
          "type": "uint256"
        },
        {
          "internalType": "uint256",
          "name": "lastHarvestBlock",
          "type": "uint256"
        },
        {
          "internalType": "bool",
          "name": "isEnded",
          "type": "bool"
        }
      ],
      "stateMutability": "view",
      "type": "function",
      "constant": true
    },
    {
      "inputs": [],
      "name": "maxCollectiblesPerWallet",
      "outputs": [
        {
          "internalType": "uint256",
          "name": "",
          "type": "uint256"
        }
      ],
      "stateMutability": "view",
      "type": "function",
      "constant": true
    },
    {
      "inputs": [],
      "name": "maxGenesisPerWallet",
      "outputs": [
        {
          "internalType": "uint256",
          "name": "",
          "type": "uint256"
        }
      ],
      "stateMutability": "view",
      "type": "function",
      "constant": true
    },
    {
      "inputs": [],
      "name": "milkPerBlock",
      "outputs": [
        {
          "internalType": "uint256",
          "name": "",
          "type": "uint256"
        }
      ],
      "stateMutability": "view",
      "type": "function",
      "constant": true
    },
    {
      "inputs": [],
      "name": "owner",
      "outputs": [
        {
          "internalType": "address",
          "name": "",
          "type": "address"
        }
      ],
      "stateMutability": "view",
      "type": "function",
      "constant": true
    },
    {
      "inputs": [
        {
          "internalType": "uint256",
          "name": "",
          "type": "uint256"
        }
      ],
      "name": "pools",
      "outputs": [
        {
          "internalType": "address",
          "name": "contractAddress",
          "type": "address"
        },
        {
          "internalType": "uint256",
          "name": "allocPoint",
          "type": "uint256"
        },
        {
          "internalType": "uint256",
          "name": "milkPower",
          "type": "uint256"
        },
        {
          "internalType": "string",
          "name": "poolName",
          "type": "string"
        }
      ],
      "stateMutability": "view",
      "type": "function",
      "constant": true
    },
    {
      "inputs": [],
      "name": "renounceOwnership",
      "outputs": [],
      "stateMutability": "nonpayable",
      "type": "function"
    },
    {
      "inputs": [],
      "name": "stakingItemCount",
      "outputs": [
        {
          "internalType": "uint256",
          "name": "_value",
          "type": "uint256"
        }
      ],
      "stateMutability": "view",
      "type": "function",
      "constant": true
    },
    {
      "inputs": [],
      "name": "stakingPoolCount",
      "outputs": [
        {
          "internalType": "uint256",
          "name": "_value",
          "type": "uint256"
        }
      ],
      "stateMutability": "view",
      "type": "function",
      "constant": true
    },
    {
      "inputs": [],
      "name": "startBlock",
      "outputs": [
        {
          "internalType": "uint256",
          "name": "",
          "type": "uint256"
        }
      ],
      "stateMutability": "view",
      "type": "function",
      "constant": true
    },
    {
      "inputs": [],
      "name": "totalAllocPoint",
      "outputs": [
        {
          "internalType": "uint256",
          "name": "",
          "type": "uint256"
        }
      ],
      "stateMutability": "view",
      "type": "function",
      "constant": true
    },
    {
      "inputs": [],
      "name": "totalAmountDepositedPool",
      "outputs": [
        {
          "internalType": "uint256",
          "name": "",
          "type": "uint256"
        }
      ],
      "stateMutability": "view",
      "type": "function",
      "constant": true
    },
    {
      "inputs": [
        {
          "internalType": "address",
          "name": "newOwner",
          "type": "address"
        }
      ],
      "name": "transferOwnership",
      "outputs": [],
      "stateMutability": "nonpayable",
      "type": "function"
    },
    {
      "inputs": [
        {
          "internalType": "bool",
          "name": "_isAvailableAllocation",
          "type": "bool"
        }
      ],
      "name": "setIsAvailableAllocation",
      "outputs": [],
      "stateMutability": "nonpayable",
      "type": "function"
    },
    {
      "inputs": [
        {
          "internalType": "uint256",
          "name": "_totalAmountDepositedPool",
          "type": "uint256"
        },
        {
          "internalType": "uint256",
          "name": "_startBlock",
          "type": "uint256"
        },
        {
          "internalType": "uint256",
          "name": "_endBlock",
          "type": "uint256"
        }
      ],
      "name": "depositMilkToPool",
      "outputs": [],
      "stateMutability": "nonpayable",
      "type": "function"
    },
    {
      "inputs": [
        {
          "internalType": "uint256",
          "name": "_startBlock",
          "type": "uint256"
        },
        {
          "internalType": "uint256",
          "name": "_endBlock",
          "type": "uint256"
        }
      ],
      "name": "setPeriod",
      "outputs": [],
      "stateMutability": "nonpayable",
      "type": "function"
    },
    {
      "inputs": [
        {
          "internalType": "bool",
          "name": "_isStakingAvailable",
          "type": "bool"
        }
      ],
      "name": "setIsStakingAvailable",
      "outputs": [],
      "stateMutability": "nonpayable",
      "type": "function"
    },
    {
      "inputs": [
        {
          "internalType": "uint256",
          "name": "_value",
          "type": "uint256"
        }
      ],
      "name": "setMaxGenesisPerWallet",
      "outputs": [],
      "stateMutability": "nonpayable",
      "type": "function"
    },
    {
      "inputs": [
        {
          "internalType": "uint256",
          "name": "_value",
          "type": "uint256"
        }
      ],
      "name": "setMaxCollectiblesPerWallet",
      "outputs": [],
      "stateMutability": "nonpayable",
      "type": "function"
    },
    {
      "inputs": [
        {
          "internalType": "address",
          "name": "_contractAddress",
          "type": "address"
        },
        {
          "internalType": "uint256",
          "name": "_allocPoint",
          "type": "uint256"
        },
        {
          "internalType": "uint256[]",
          "name": "_tokenIds",
          "type": "uint256[]"
        },
        {
          "internalType": "uint256",
          "name": "_milkPower",
          "type": "uint256"
        },
        {
          "internalType": "string",
          "name": "_poolName",
          "type": "string"
        }
      ],
      "name": "addPool",
      "outputs": [],
      "stateMutability": "nonpayable",
      "type": "function"
    },
    {
      "inputs": [
        {
          "internalType": "uint256",
          "name": "_poolId",
          "type": "uint256"
        },
        {
          "internalType": "address",
          "name": "_contractAddress",
          "type": "address"
        },
        {
          "internalType": "uint256",
          "name": "_allocPoint",
          "type": "uint256"
        },
        {
          "internalType": "uint256[]",
          "name": "_tokenIds",
          "type": "uint256[]"
        },
        {
          "internalType": "uint256",
          "name": "_milkPower",
          "type": "uint256"
        },
        {
          "internalType": "string",
          "name": "_poolName",
          "type": "string"
        }
      ],
      "name": "updatePool",
      "outputs": [],
      "stateMutability": "nonpayable",
      "type": "function"
    },
    {
      "inputs": [
        {
          "internalType": "address",
          "name": "_nftContract",
          "type": "address"
        },
        {
          "internalType": "uint256",
          "name": "_tokenId",
          "type": "uint256"
        }
      ],
      "name": "stake",
      "outputs": [],
      "stateMutability": "nonpayable",
      "type": "function"
    },
    {
      "inputs": [
        {
          "internalType": "uint256",
          "name": "_poolId",
          "type": "uint256"
        }
      ],
      "name": "harvest",
      "outputs": [],
      "stateMutability": "nonpayable",
      "type": "function"
    },
    {
      "inputs": [
        {
          "internalType": "address",
          "name": "_owner",
          "type": "address"
        }
      ],
      "name": "getStakedItems",
      "outputs": [
        {
          "components": [
            {
              "internalType": "uint256",
              "name": "itemId",
              "type": "uint256"
            },
            {
              "internalType": "address",
              "name": "contractAddress",
              "type": "address"
            },
            {
              "internalType": "address",
              "name": "owner",
              "type": "address"
            },
            {
              "internalType": "uint256",
              "name": "tokenId",
              "type": "uint256"
            },
            {
              "internalType": "uint256",
              "name": "lastHarvestBlock",
              "type": "uint256"
            },
            {
              "internalType": "bool",
              "name": "isEnded",
              "type": "bool"
            }
          ],
          "internalType": "struct Staking.StakingItem[]",
          "name": "",
          "type": "tuple[]"
        }
      ],
      "stateMutability": "view",
      "type": "function",
      "constant": true
    },
    {
      "inputs": [
        {
          "internalType": "uint256",
          "name": "_itemId",
          "type": "uint256"
        }
      ],
      "name": "getPendingMilk",
      "outputs": [
        {
          "internalType": "uint256",
          "name": "",
          "type": "uint256"
        }
      ],
      "stateMutability": "view",
      "type": "function",
      "constant": true
    },
    {
      "inputs": [
        {
          "internalType": "address",
          "name": "_owner",
          "type": "address"
        },
        {
          "internalType": "uint256",
          "name": "_poolId",
          "type": "uint256"
        }
      ],
      "name": "getPendingMilkForAll",
      "outputs": [
        {
          "internalType": "uint256",
          "name": "",
          "type": "uint256"
        }
      ],
      "stateMutability": "view",
      "type": "function",
      "constant": true
    },
    {
      "inputs": [],
      "name": "getBlockNumber",
      "outputs": [
        {
          "internalType": "uint256",
          "name": "",
          "type": "uint256"
        }
      ],
      "stateMutability": "view",
      "type": "function",
      "constant": true
    },
    {
      "inputs": [
        {
          "internalType": "uint256",
          "name": "_itemId",
          "type": "uint256"
        }
      ],
      "name": "getPoolId",
      "outputs": [
        {
          "internalType": "uint256",
          "name": "",
          "type": "uint256"
        }
      ],
      "stateMutability": "view",
      "type": "function",
      "constant": true
    },
    {
      "inputs": [
        {
          "internalType": "uint256",
          "name": "_poolId",
          "type": "uint256"
        }
      ],
      "name": "getTotalStakedCount",
      "outputs": [
        {
          "internalType": "uint256",
          "name": "",
          "type": "uint256"
        }
      ],
      "stateMutability": "view",
      "type": "function",
      "constant": true
    },
    {
      "inputs": [
        {
          "internalType": "uint256",
          "name": "_poolId",
          "type": "uint256"
        }
      ],
      "name": "getTotalMilkPower",
      "outputs": [
        {
          "internalType": "uint256",
          "name": "",
          "type": "uint256"
        }
      ],
      "stateMutability": "view",
      "type": "function",
      "constant": true
    },
    {
      "inputs": [
        {
          "internalType": "uint256",
          "name": "_poolId",
          "type": "uint256"
        },
        {
          "internalType": "address",
          "name": "_owner",
          "type": "address"
        }
      ],
      "name": "getMyMilkPower",
      "outputs": [
        {
          "internalType": "uint256",
          "name": "",
          "type": "uint256"
        }
      ],
      "stateMutability": "view",
      "type": "function",
      "constant": true
    },
    {
      "inputs": [
        {
          "internalType": "uint256",
          "name": "_poolId",
          "type": "uint256"
        }
      ],
      "name": "getDailyMilkRate",
      "outputs": [
        {
          "internalType": "uint256",
          "name": "",
          "type": "uint256"
        }
      ],
      "stateMutability": "view",
      "type": "function",
      "constant": true
    },
    {
      "inputs": [
        {
          "internalType": "uint256",
          "name": "_itemId",
          "type": "uint256"
        }
      ],
      "name": "getLastHarvestBlock",
      "outputs": [
        {
          "internalType": "uint256",
          "name": "",
          "type": "uint256"
        }
      ],
      "stateMutability": "view",
      "type": "function",
      "constant": true
    },
    {
      "inputs": [
        {
          "internalType": "uint256",
          "name": "_itemId",
          "type": "uint256"
        },
        {
          "internalType": "uint256",
          "name": "_poolId",
          "type": "uint256"
        }
      ],
      "name": "unstake",
      "outputs": [],
      "stateMutability": "nonpayable",
      "type": "function"
    },
    {
      "inputs": [],
      "name": "withDraw",
      "outputs": [],
      "stateMutability": "nonpayable",
      "type": "function"
    }
  ],
  "bytecode": "0x60806040523480156200001157600080fd5b5060405162004f6238038062004f62833981810160405281019062000037919062000213565b6001600081905550620000716200005c62000117640100000000026401000000009004565b6200011f640100000000026401000000009004565b81600460006101000a81548173ffffffffffffffffffffffffffffffffffffffff021916908373ffffffffffffffffffffffffffffffffffffffff160217905550600060068190555060006005819055506005600781905550600a600881905550600060098190555080600c60016101000a81548160ff0219169083151502179055506000600c60006101000a81548160ff0219169083151502179055505050620002dc565b600033905090565b6000600160009054906101000a900473ffffffffffffffffffffffffffffffffffffffff16905081600160006101000a81548173ffffffffffffffffffffffffffffffffffffffff021916908373ffffffffffffffffffffffffffffffffffffffff1602179055508173ffffffffffffffffffffffffffffffffffffffff168173ffffffffffffffffffffffffffffffffffffffff167f8be0079c531659141344cd1fd0a4f28419497f9722a3daafe3b4186f6b6457e060405160405180910390a35050565b600081519050620001f681620002a8565b92915050565b6000815190506200020d81620002c2565b92915050565b600080604083850312156200022757600080fd5b60006200023785828601620001fc565b92505060206200024a85828601620001e5565b9150509250929050565b6000620002618262000288565b9050919050565b60008115159050919050565b6000620002818262000254565b9050919050565b600073ffffffffffffffffffffffffffffffffffffffff82169050919050565b620002b38162000268565b8114620002bf57600080fd5b50565b620002cd8162000274565b8114620002d957600080fd5b50565b614c7680620002ec6000396000f3fe608060405234801561001057600080fd5b5060043610610265576000357c010000000000000000000000000000000000000000000000000000000090048063811e1cf911610158578063adc9772e116100d5578063d7cc7e9511610099578063d7cc7e9514610716578063dc696d2b14610734578063ddc6326214610764578063e7ef0fdc14610780578063f2fde38b146107b057610265565b8063adc9772e14610659578063bb7a805414610675578063bfb231d214610693578063c0ea87bd146106c8578063d5dfc265146106e657610265565b80638da5cb5b1161011c5780638da5cb5b146105a05780639c5a8540146105be5780639e2c8a5b146105ee578063ac4afa381461060a578063adc661a71461063d57610265565b8063811e1cf9146104d45780638197f205146104f2578063872c7a50146105105780638830c406146105405780638a51401f1461057057610265565b80633b80c3e1116101e6578063558a8622116101aa578063558a8622146104445780635c4943fe146104605780636f6d474114610490578063715018a6146104ac5780637506f534146104b657610265565b80633b80c3e1146103a057806342cbb15c146103bc57806348cd4cb1146103da5780634b8e4ace146103f85780635119913c1461041457610265565b806315a731971161022d57806315a73197146102e857806315e9afea1461030457806317caf6f11461033457806323171529146103525780632dd96be91461038257610265565b806303c5b1dc1461026a578063083c6323146102865780630dea2d5c146102a45780630fdb1c10146102c2578063112835cf146102cc575b600080fd5b610284600480360381019061027f9190613b48565b6107cc565b005b61028e61090b565b60405161029b9190614354565b60405180910390f35b6102ac610911565b6040516102b991906140d9565b60405180910390f35b6102ca610924565b005b6102e660048036038101906102e191906139a9565b610ba0565b005b61030260048036038101906102fd91906139a9565b610c39565b005b61031e60048036038101906103199190613871565b610cd2565b60405161032b9190614354565b60405180910390f35b61033c610cea565b6040516103499190614354565b60405180910390f35b61036c600480360381019061036791906139fb565b610cf0565b6040516103799190614354565b60405180910390f35b61038a610e0d565b6040516103979190614354565b60405180910390f35b6103ba60048036038101906103b591906139fb565b610e19565b005b6103c4610ee2565b6040516103d19190614354565b60405180910390f35b6103e2610eea565b6040516103ef9190614354565b60405180910390f35b610412600480360381019061040d9190613b84565b610ef0565b005b61042e60048036038101906104299190613a4d565b611235565b60405161043b9190614354565b60405180910390f35b61045e600480360381019061045991906139fb565b6113e7565b005b61047a600480360381019061047591906139fb565b6114b0565b6040516104879190614354565b60405180910390f35b6104aa60048036038101906104a591906138ff565b611618565b005b6104b46117f2565b005b6104be61187a565b6040516104cb9190614354565b60405180910390f35b6104dc611880565b6040516104e99190614354565b60405180910390f35b6104fa61188c565b6040516105079190614354565b60405180910390f35b61052a600480360381019061052591906139fb565b611892565b6040516105379190614354565b60405180910390f35b61055a600480360381019061055591906138c3565b6118d0565b6040516105679190614354565b60405180910390f35b61058a60048036038101906105859190613871565b611a63565b6040516105979190614354565b60405180910390f35b6105a8611a7b565b6040516105b59190613ff0565b60405180910390f35b6105d860048036038101906105d391906139fb565b611aa5565b6040516105e59190614354565b60405180910390f35b61060860048036038101906106039190613b48565b611b07565b005b610624600480360381019061061f91906139fb565b611d30565b604051610634949392919061406b565b60405180910390f35b61065760048036038101906106529190613a89565b611e08565b005b610673600480360381019061066e91906138c3565b612040565b005b61067d612633565b60405161068a9190614354565b60405180910390f35b6106ad60048036038101906106a891906139fb565b612639565b6040516106bf9695949392919061436f565b60405180910390f35b6106d06126c2565b6040516106dd9190614354565b60405180910390f35b61070060048036038101906106fb9190613871565b6126c8565b60405161070d91906140b7565b60405180910390f35b61071e612a50565b60405161072b91906140d9565b60405180910390f35b61074e600480360381019061074991906139fb565b612a63565b60405161075b9190614354565b60405180910390f35b61077e600480360381019061077991906139fb565b612a88565b005b61079a600480360381019061079591906139fb565b612c01565b6040516107a79190614354565b60405180910390f35b6107ca60048036038101906107c59190613871565b612ce4565b005b6107d4612ddc565b73ffffffffffffffffffffffffffffffffffffffff166107f2611a7b565b73ffffffffffffffffffffffffffffffffffffffff1614610848576040517f08c379a000000000000000000000000000000000000000000000000000000000815260040161083f90614234565b60405180910390fd5b43811161088a576040517f08c379a000000000000000000000000000000000000000000000000000000000815260040161088190614314565b60405180910390fd5b8181116108cc576040517f08c379a00000000000000000000000000000000000000000000000000000000081526004016108c390614114565b60405180910390fd5b81816108d89190614585565b600954620f42406108e9919061452b565b6108f391906144fa565b60058190555081600a8190555080600b819055505050565b600b5481565b600c60009054906101000a900460ff1681565b61092c612ddc565b73ffffffffffffffffffffffffffffffffffffffff1661094a611a7b565b73ffffffffffffffffffffffffffffffffffffffff16146109a0576040517f08c379a000000000000000000000000000000000000000000000000000000000815260040161099790614234565b60405180910390fd5b600b5443116109e4576040517f08c379a00000000000000000000000000000000000000000000000000000000081526004016109db90614214565b60405180910390fd5b6000600460009054906101000a900473ffffffffffffffffffffffffffffffffffffffff1673ffffffffffffffffffffffffffffffffffffffff166370a08231306040518263ffffffff167c0100000000000000000000000000000000000000000000000000000000028152600401610a5d9190613ff0565b60206040518083038186803b158015610a7557600080fd5b505afa158015610a89573d6000803e3d6000fd5b505050506040513d601f19601f82011682018060405250810190610aad9190613a24565b9050600460009054906101000a900473ffffffffffffffffffffffffffffffffffffffff1673ffffffffffffffffffffffffffffffffffffffff1663a9059cbb610af5611a7b565b836040518363ffffffff167c0100000000000000000000000000000000000000000000000000000000028152600401610b2f929190614042565b602060405180830381600087803b158015610b4957600080fd5b505af1158015610b5d573d6000803e3d6000fd5b505050506040513d601f19601f82011682018060405250810190610b8191906139d2565b506000600c60006101000a81548160ff02191690831515021790555050565b610ba8612ddc565b73ffffffffffffffffffffffffffffffffffffffff16610bc6611a7b565b73ffffffffffffffffffffffffffffffffffffffff1614610c1c576040517f08c379a0000000000000000000000000000000000000000000000000000000008152600401610c1390614234565b60405180910390fd5b80600c60016101000a81548160ff02191690831515021790555050565b610c41612ddc565b73ffffffffffffffffffffffffffffffffffffffff16610c5f611a7b565b73ffffffffffffffffffffffffffffffffffffffff1614610cb5576040517f08c379a0000000000000000000000000000000000000000000000000000000008152600401610cac90614234565b60405180910390fd5b80600c60006101000a81548160ff02191690831515021790555050565b600f6020528060005260406000206000915090505481565b60065481565b600080600090506000600190505b610d086003612de4565b8111610e035760001515600e600083815260200190815260200160002060050160009054906101000a900460ff161515148015610ddc5750600d600085815260200190815260200160002060000160009054906101000a900473ffffffffffffffffffffffffffffffffffffffff1673ffffffffffffffffffffffffffffffffffffffff16600e600083815260200190815260200160002060010160009054906101000a900473ffffffffffffffffffffffffffffffffffffffff1673ffffffffffffffffffffffffffffffffffffffff16145b15610df0578180610dec906146d0565b9250505b8080610dfb906146d0565b915050610cfe565b5080915050919050565b60028060000154905081565b610e21612ddc565b73ffffffffffffffffffffffffffffffffffffffff16610e3f611a7b565b73ffffffffffffffffffffffffffffffffffffffff1614610e95576040517f08c379a0000000000000000000000000000000000000000000000000000000008152600401610e8c90614234565b60405180910390fd5b60008111610ed8576040517f08c379a0000000000000000000000000000000000000000000000000000000008152600401610ecf906142d4565b60405180910390fd5b8060088190555050565b600043905090565b600a5481565b610ef8612ddc565b73ffffffffffffffffffffffffffffffffffffffff16610f16611a7b565b73ffffffffffffffffffffffffffffffffffffffff1614610f6c576040517f08c379a0000000000000000000000000000000000000000000000000000000008152600401610f6390614234565b60405180910390fd5b82600460009054906101000a900473ffffffffffffffffffffffffffffffffffffffff1673ffffffffffffffffffffffffffffffffffffffff166370a08231610fb3611a7b565b6040518263ffffffff167c0100000000000000000000000000000000000000000000000000000000028152600401610feb9190613ff0565b60206040518083038186803b15801561100357600080fd5b505afa158015611017573d6000803e3d6000fd5b505050506040513d601f19601f8201168201806040525081019061103b9190613a24565b101561107c576040517f08c379a0000000000000000000000000000000000000000000000000000000008152600401611073906141d4565b60405180910390fd5b4381116110be576040517f08c379a00000000000000000000000000000000000000000000000000000000081526004016110b590614314565b60405180910390fd5b818111611100576040517f08c379a00000000000000000000000000000000000000000000000000000000081526004016110f790614114565b60405180910390fd5b600460009054906101000a900473ffffffffffffffffffffffffffffffffffffffff1673ffffffffffffffffffffffffffffffffffffffff166323b872dd611146611a7b565b30866040518463ffffffff167c01000000000000000000000000000000000000000000000000000000000281526004016111829392919061400b565b602060405180830381600087803b15801561119c57600080fd5b505af11580156111b0573d6000803e3d6000fd5b505050506040513d601f19601f820116820180604052508101906111d491906139d2565b508260098190555081600a8190555080600b8190555081816111f69190614585565b83620f4240611205919061452b565b61120f91906144fa565b6005819055506001600c60006101000a81548160ff021916908315150217905550505050565b600080600090506000600190505b61124d6003612de4565b81116113b55760001515600e600083815260200190815260200160002060050160009054906101000a900460ff1615151480156113215750600d600086815260200190815260200160002060000160009054906101000a900473ffffffffffffffffffffffffffffffffffffffff1673ffffffffffffffffffffffffffffffffffffffff16600e600083815260200190815260200160002060010160009054906101000a900473ffffffffffffffffffffffffffffffffffffffff1673ffffffffffffffffffffffffffffffffffffffff16145b801561138e57508373ffffffffffffffffffffffffffffffffffffffff16600e600083815260200190815260200160002060020160009054906101000a900473ffffffffffffffffffffffffffffffffffffffff1673ffffffffffffffffffffffffffffffffffffffff16145b156113a257818061139e906146d0565b9250505b80806113ad906146d0565b915050611243565b506000600d600086815260200190815260200160002060030154826113da919061452b565b9050809250505092915050565b6113ef612ddc565b73ffffffffffffffffffffffffffffffffffffffff1661140d611a7b565b73ffffffffffffffffffffffffffffffffffffffff1614611463576040517f08c379a000000000000000000000000000000000000000000000000000000000815260040161145a90614234565b60405180910390fd5b600081116114a6576040517f08c379a000000000000000000000000000000000000000000000000000000000815260040161149d906142d4565b60405180910390fd5b8060078190555050565b600080600e600084815260200190815260200160002090506000600c60019054906101000a900460ff161561154a5760006114ea85612c01565b905060006114f782610cf0565b90508060065461150688612df2565b8660040154436115169190614585565b600554611523919061452b565b61152d919061452b565b61153791906144fa565b61154191906144fa565b9250505061160e565b600061155585612c01565b9050600080600190505b6115696002612de4565b81116115bf57600061157a82610cf0565b9050600d6000838152602001908152602001600020600301548161159e919061452b565b836115a991906144a4565b92505080806115b7906146d0565b91505061155f565b5080600d6000848152602001908152602001600020600301548560040154436115e89190614585565b6005546115f5919061452b565b6115ff919061452b565b61160991906144fa565b925050505b8092505050919050565b611620612ddc565b73ffffffffffffffffffffffffffffffffffffffff1661163e611a7b565b73ffffffffffffffffffffffffffffffffffffffff1614611694576040517f08c379a000000000000000000000000000000000000000000000000000000000815260040161168b90614234565b60405180910390fd5b61169e6002612ee7565b60006116aa6002612de4565b90506040518060a001604052808873ffffffffffffffffffffffffffffffffffffffff168152602001878152602001868680806020026020016040519081016040528093929190818152602001838360200280828437600081840152601f19601f82011690508083019250505050505050815260200184815260200183815250600d600083815260200190815260200160002060008201518160000160006101000a81548173ffffffffffffffffffffffffffffffffffffffff021916908373ffffffffffffffffffffffffffffffffffffffff1602179055506020820151816001015560408201518160020190805190602001906117aa9291906135ed565b506060820151816003015560808201518160040190805190602001906117d192919061363a565b50905050856006546117e391906144a4565b60068190555050505050505050565b6117fa612ddc565b73ffffffffffffffffffffffffffffffffffffffff16611818611a7b565b73ffffffffffffffffffffffffffffffffffffffff161461186e576040517f08c379a000000000000000000000000000000000000000000000000000000000815260040161186590614234565b60405180910390fd5b6118786000612efd565b565b60055481565b60038060000154905081565b60085481565b60008061189e83610cf0565b90506000600d600085815260200190815260200160002060030154826118c4919061452b565b90508092505050919050565b600080600090506000600190505b6118e86003612de4565b8111611a58578473ffffffffffffffffffffffffffffffffffffffff16600e600083815260200190815260200160002060020160009054906101000a900473ffffffffffffffffffffffffffffffffffffffff1673ffffffffffffffffffffffffffffffffffffffff16148015611986575060001515600e600083815260200190815260200160002060050160009054906101000a900460ff161515145b8015611a295750600e600082815260200190815260200160002060010160009054906101000a900473ffffffffffffffffffffffffffffffffffffffff1673ffffffffffffffffffffffffffffffffffffffff16600d600086815260200190815260200160002060000160009054906101000a900473ffffffffffffffffffffffffffffffffffffffff1673ffffffffffffffffffffffffffffffffffffffff16145b15611a4557611a37816114b0565b82611a4291906144a4565b91505b8080611a50906146d0565b9150506118de565b508091505092915050565b60106020528060005260406000206000915090505481565b6000600160009054906101000a900473ffffffffffffffffffffffffffffffffffffffff16905090565b600080611ab183611892565b90506000808214611afd578160646018603c6014600554611ad2919061452b565b611adc919061452b565b611ae6919061452b565b611af0919061452b565b611afa91906144fa565b90505b8092505050919050565b6000600e600084815260200190815260200160002090503373ffffffffffffffffffffffffffffffffffffffff168160020160009054906101000a900473ffffffffffffffffffffffffffffffffffffffff1673ffffffffffffffffffffffffffffffffffffffff1614611bb0576040517f08c379a0000000000000000000000000000000000000000000000000000000008152600401611ba7906141f4565b60405180910390fd5b600015158160050160009054906101000a900460ff16151514611c08576040517f08c379a0000000000000000000000000000000000000000000000000000000008152600401611bff90614274565b60405180910390fd5b611c128333612fc3565b8060010160009054906101000a900473ffffffffffffffffffffffffffffffffffffffff1673ffffffffffffffffffffffffffffffffffffffff166323b872dd303384600301546040518463ffffffff167c0100000000000000000000000000000000000000000000000000000000028152600401611c939392919061400b565b600060405180830381600087803b158015611cad57600080fd5b505af1158015611cc1573d6000803e3d6000fd5b5050505060018160050160006101000a81548160ff0219169083151502179055506001821415611d085760086000815480929190611cfe90614643565b9190505550611d2b565b6002821415611d2a5760076000815480929190611d2490614643565b91905055505b5b505050565b600d6020528060005260406000206000915090508060000160009054906101000a900473ffffffffffffffffffffffffffffffffffffffff1690806001015490806003015490806004018054611d859061466d565b80601f0160208091040260200160405190810160405280929190818152602001828054611db19061466d565b8015611dfe5780601f10611dd357610100808354040283529160200191611dfe565b820191906000526020600020905b815481529060010190602001808311611de157829003601f168201915b5050505050905084565b611e10612ddc565b73ffffffffffffffffffffffffffffffffffffffff16611e2e611a7b565b73ffffffffffffffffffffffffffffffffffffffff1614611e84576040517f08c379a0000000000000000000000000000000000000000000000000000000008152600401611e7b90614234565b60405180910390fd5b611e8e6002612de4565b871115611ed0576040517f08c379a0000000000000000000000000000000000000000000000000000000008152600401611ec790614294565b60405180910390fd5b600d600088815260200190815260200160002060010154600654611ef49190614585565b6006819055506040518060a001604052808773ffffffffffffffffffffffffffffffffffffffff168152602001868152602001858580806020026020016040519081016040528093929190818152602001838360200280828437600081840152601f19601f82011690508083019250505050505050815260200183815260200182815250600d600089815260200190815260200160002060008201518160000160006101000a81548173ffffffffffffffffffffffffffffffffffffffff021916908373ffffffffffffffffffffffffffffffffffffffff160217905550602082015181600101556040820151816002019080519060200190611ff89291906135ed565b5060608201518160030155608082015181600401908051906020019061201f92919061363a565b509050508460065461203191906144a4565b60068190555050505050505050565b60026000541415612086576040517f08c379a000000000000000000000000000000000000000000000000000000000815260040161207d906142f4565b60405180910390fd5b60026000819055503382828273ffffffffffffffffffffffffffffffffffffffff168273ffffffffffffffffffffffffffffffffffffffff16636352211e836040518263ffffffff167c01000000000000000000000000000000000000000000000000000000000281526004016120fd9190614354565b60206040518083038186803b15801561211557600080fd5b505afa158015612129573d6000803e3d6000fd5b505050506040513d601f19601f8201168201806040525081019061214d919061389a565b73ffffffffffffffffffffffffffffffffffffffff16146121a3576040517f08c379a000000000000000000000000000000000000000000000000000000000815260040161219a90614334565b60405180910390fd5b600754600f60008573ffffffffffffffffffffffffffffffffffffffff1673ffffffffffffffffffffffffffffffffffffffff168152602001908152602001600020541115612227576040517f08c379a000000000000000000000000000000000000000000000000000000000815260040161221e90614254565b60405180910390fd5b600854601060008573ffffffffffffffffffffffffffffffffffffffff1673ffffffffffffffffffffffffffffffffffffffff1681526020019081526020016000205411156122ab576040517f08c379a00000000000000000000000000000000000000000000000000000000081526004016122a290614194565b60405180910390fd5b600a5443101580156122bf5750600b544311155b80156122de575060011515600c60009054906101000a900460ff161515145b61231d576040517f08c379a0000000000000000000000000000000000000000000000000000000008152600401612314906141b4565b60405180910390fd5b6123276003612ee7565b60006123336003612de4565b90506040518060c001604052808281526020018773ffffffffffffffffffffffffffffffffffffffff1681526020013373ffffffffffffffffffffffffffffffffffffffff16815260200186815260200143815260200160001515815250600e60008381526020019081526020016000206000820151816000015560208201518160010160006101000a81548173ffffffffffffffffffffffffffffffffffffffff021916908373ffffffffffffffffffffffffffffffffffffffff16021790555060408201518160020160006101000a81548173ffffffffffffffffffffffffffffffffffffffff021916908373ffffffffffffffffffffffffffffffffffffffff160217905550606082015181600301556080820151816004015560a08201518160050160006101000a81548160ff0219169083151502179055509050508573ffffffffffffffffffffffffffffffffffffffff166323b872dd3330886040518463ffffffff167c01000000000000000000000000000000000000000000000000000000000281526004016124cc9392919061400b565b600060405180830381600087803b1580156124e657600080fd5b505af11580156124fa573d6000803e3d6000fd5b50505050612507816134e2565b1561256657600f60003373ffffffffffffffffffffffffffffffffffffffff1673ffffffffffffffffffffffffffffffffffffffff168152602001908152602001600020600081548092919061255c906146d0565b91905055506125bc565b601060003373ffffffffffffffffffffffffffffffffffffffff1673ffffffffffffffffffffffffffffffffffffffff16815260200190815260200160002060008154809291906125b6906146d0565b91905055505b3373ffffffffffffffffffffffffffffffffffffffff168673ffffffffffffffffffffffffffffffffffffffff167f4249649a2f5c977056f4db60e40a673eabf996b3ec3dc5b5b5713971888e6020838860405161261b9291906143d0565b60405180910390a35050505060016000819055505050565b60095481565b600e6020528060005260406000206000915090508060000154908060010160009054906101000a900473ffffffffffffffffffffffffffffffffffffffff16908060020160009054906101000a900473ffffffffffffffffffffffffffffffffffffffff16908060030154908060040154908060050160009054906101000a900460ff16905086565b60075481565b606060006126d66003612de4565b90506000806000600190505b8381116127a957600e600082815260200190815260200160002060020160009054906101000a900473ffffffffffffffffffffffffffffffffffffffff1673ffffffffffffffffffffffffffffffffffffffff168673ffffffffffffffffffffffffffffffffffffffff16148015612781575060001515600e600083815260200190815260200160002060050160009054906101000a900460ff161515145b156127965760018361279391906144a4565b92505b80806127a1906146d0565b9150506126e2565b5060008267ffffffffffffffff8111156127ec577f4e487b7100000000000000000000000000000000000000000000000000000000600052604160045260246000fd5b60405190808252806020026020018201604052801561282557816020015b6128126136c0565b81526020019060019003908161280a5790505b5090506000600190505b848111612a4357600e600082815260200190815260200160002060020160009054906101000a900473ffffffffffffffffffffffffffffffffffffffff1673ffffffffffffffffffffffffffffffffffffffff168773ffffffffffffffffffffffffffffffffffffffff161480156128ce575060001515600e600083815260200190815260200160002060050160009054906101000a900460ff161515145b15612a30576000600e60008381526020019081526020016000209050806040518060c0016040529081600082015481526020016001820160009054906101000a900473ffffffffffffffffffffffffffffffffffffffff1673ffffffffffffffffffffffffffffffffffffffff1673ffffffffffffffffffffffffffffffffffffffff1681526020016002820160009054906101000a900473ffffffffffffffffffffffffffffffffffffffff1673ffffffffffffffffffffffffffffffffffffffff1673ffffffffffffffffffffffffffffffffffffffff16815260200160038201548152602001600482015481526020016005820160009054906101000a900460ff161515151581525050838581518110612a14577f4e487b7100000000000000000000000000000000000000000000000000000000600052603260045260246000fd5b6020026020010181905250600184612a2c91906144a4565b9350505b8080612a3b906146d0565b91505061282f565b5080945050505050919050565b600c60019054906101000a900460ff1681565b600080600e600084815260200190815260200160002090508060040154915050919050565b6000600190505b612a996003612de4565b8111612bfd573373ffffffffffffffffffffffffffffffffffffffff16600e600083815260200190815260200160002060020160009054906101000a900473ffffffffffffffffffffffffffffffffffffffff1673ffffffffffffffffffffffffffffffffffffffff16148015612b37575060001515600e600083815260200190815260200160002060050160009054906101000a900460ff161515145b8015612bda5750600e600082815260200190815260200160002060010160009054906101000a900473ffffffffffffffffffffffffffffffffffffffff1673ffffffffffffffffffffffffffffffffffffffff16600d600084815260200190815260200160002060000160009054906101000a900473ffffffffffffffffffffffffffffffffffffffff1673ffffffffffffffffffffffffffffffffffffffff16145b15612bea57612be98133612fc3565b5b8080612bf5906146d0565b915050612a8f565b5050565b600080600090506000600190505b612c196002612de4565b8111612cda57600e600085815260200190815260200160002060010160009054906101000a900473ffffffffffffffffffffffffffffffffffffffff1673ffffffffffffffffffffffffffffffffffffffff16600d600083815260200190815260200160002060000160009054906101000a900473ffffffffffffffffffffffffffffffffffffffff1673ffffffffffffffffffffffffffffffffffffffff161415612cc757809150612cda565b8080612cd2906146d0565b915050612c0f565b5080915050919050565b612cec612ddc565b73ffffffffffffffffffffffffffffffffffffffff16612d0a611a7b565b73ffffffffffffffffffffffffffffffffffffffff1614612d60576040517f08c379a0000000000000000000000000000000000000000000000000000000008152600401612d5790614234565b60405180910390fd5b600073ffffffffffffffffffffffffffffffffffffffff168173ffffffffffffffffffffffffffffffffffffffff161415612dd0576040517f08c379a0000000000000000000000000000000000000000000000000000000008152600401612dc790614134565b60405180910390fd5b612dd981612efd565b50565b600033905090565b600081600001549050919050565b600080600190505b612e046002612de4565b8111612edc57600e600084815260200190815260200160002060010160009054906101000a900473ffffffffffffffffffffffffffffffffffffffff1673ffffffffffffffffffffffffffffffffffffffff16600d600083815260200190815260200160002060000160009054906101000a900473ffffffffffffffffffffffffffffffffffffffff1673ffffffffffffffffffffffffffffffffffffffff161415612ec957600d600082815260200190815260200160002060010154915050612ee2565b8080612ed4906146d0565b915050612dfa565b50600090505b919050565b6001816000016000828254019250508190555050565b6000600160009054906101000a900473ffffffffffffffffffffffffffffffffffffffff16905081600160006101000a81548173ffffffffffffffffffffffffffffffffffffffff021916908373ffffffffffffffffffffffffffffffffffffffff1602179055508173ffffffffffffffffffffffffffffffffffffffff168173ffffffffffffffffffffffffffffffffffffffff167f8be0079c531659141344cd1fd0a4f28419497f9722a3daafe3b4186f6b6457e060405160405180910390a35050565b6000600e60008481526020019081526020016000209050612fe46003612de4565b831115613026576040517f08c379a000000000000000000000000000000000000000000000000000000000815260040161301d90614174565b60405180910390fd5b600e600084815260200190815260200160002060020160009054906101000a900473ffffffffffffffffffffffffffffffffffffffff1673ffffffffffffffffffffffffffffffffffffffff168273ffffffffffffffffffffffffffffffffffffffff16146130ca576040517f08c379a00000000000000000000000000000000000000000000000000000000081526004016130c190614154565b60405180910390fd5b43816004015410613110576040517f08c379a0000000000000000000000000000000000000000000000000000000008152600401613107906142b4565b60405180910390fd5b6000600c60019054906101000a900460ff161561319257600061313285612c01565b9050600061313f82610cf0565b90508060065461314e88612df2565b86600401544361315e9190614585565b60055461316b919061452b565b613175919061452b565b61317f91906144fa565b61318991906144fa565b92505050613256565b600061319d85612c01565b9050600080600190505b6131b16002612de4565b81116132075760006131c282610cf0565b9050600d600083815260200190815260200160002060030154816131e6919061452b565b836131f191906144a4565b92505080806131ff906146d0565b9150506131a7565b5080600d6000848152602001908152602001600020600301548560040154436132309190614585565b60055461323d919061452b565b613247919061452b565b61325191906144fa565b925050505b80600460009054906101000a900473ffffffffffffffffffffffffffffffffffffffff1673ffffffffffffffffffffffffffffffffffffffff166370a08231306040518263ffffffff167c01000000000000000000000000000000000000000000000000000000000281526004016132ce9190613ff0565b60206040518083038186803b1580156132e657600080fd5b505afa1580156132fa573d6000803e3d6000fd5b505050506040513d601f19601f8201168201806040525081019061331e9190613a24565b101561335f576040517f08c379a0000000000000000000000000000000000000000000000000000000008152600401613356906140f4565b60405180910390fd5b600460009054906101000a900473ffffffffffffffffffffffffffffffffffffffff1673ffffffffffffffffffffffffffffffffffffffff1663a9059cbb8360020160009054906101000a900473ffffffffffffffffffffffffffffffffffffffff1664e8d4a51000846133d3919061452b565b6040518363ffffffff167c010000000000000000000000000000000000000000000000000000000002815260040161340c929190614042565b602060405180830381600087803b15801561342657600080fd5b505af115801561343a573d6000803e3d6000fd5b505050506040513d601f19601f8201168201806040525081019061345e91906139d2565b504382600401819055508160020160009054906101000a900473ffffffffffffffffffffffffffffffffffffffff1673ffffffffffffffffffffffffffffffffffffffff167f393ccd03ff98115189a2796d79ffa176e434468dbeea90a87972324be8c5071885836040516134d49291906143d0565b60405180910390a250505050565b600080600190505b6134f46002612de4565b81116135e257600e600084815260200190815260200160002060010160009054906101000a900473ffffffffffffffffffffffffffffffffffffffff1673ffffffffffffffffffffffffffffffffffffffff16600d600083815260200190815260200160002060000160009054906101000a900473ffffffffffffffffffffffffffffffffffffffff1673ffffffffffffffffffffffffffffffffffffffff1614156135cf576000600d600083815260200190815260200160002060020180549050146135c55760019150506135e8565b60009150506135e8565b80806135da906146d0565b9150506134ea565b50600090505b919050565b828054828255906000526020600020908101928215613629579160200282015b8281111561362857825182559160200191906001019061360d565b5b5090506136369190613724565b5090565b8280546136469061466d565b90600052602060002090601f01602090048101928261366857600085556136af565b82601f1061368157805160ff19168380011785556136af565b828001600101855582156136af579182015b828111156136ae578251825591602001919060010190613693565b5b5090506136bc9190613724565b5090565b6040518060c0016040528060008152602001600073ffffffffffffffffffffffffffffffffffffffff168152602001600073ffffffffffffffffffffffffffffffffffffffff16815260200160008152602001600081526020016000151581525090565b5b8082111561373d576000816000905550600101613725565b5090565b600061375461374f8461441e565b6143f9565b90508281526020810184848401111561376c57600080fd5b613777848285614601565b509392505050565b60008135905061378e81614bfb565b92915050565b6000815190506137a381614bfb565b92915050565b60008083601f8401126137bb57600080fd5b8235905067ffffffffffffffff8111156137d457600080fd5b6020830191508360208202830111156137ec57600080fd5b9250929050565b60008135905061380281614c12565b92915050565b60008151905061381781614c12565b92915050565b600082601f83011261382e57600080fd5b813561383e848260208601613741565b91505092915050565b60008135905061385681614c29565b92915050565b60008151905061386b81614c29565b92915050565b60006020828403121561388357600080fd5b60006138918482850161377f565b91505092915050565b6000602082840312156138ac57600080fd5b60006138ba84828501613794565b91505092915050565b600080604083850312156138d657600080fd5b60006138e48582860161377f565b92505060206138f585828601613847565b9150509250929050565b60008060008060008060a0878903121561391857600080fd5b600061392689828a0161377f565b965050602061393789828a01613847565b955050604087013567ffffffffffffffff81111561395457600080fd5b61396089828a016137a9565b9450945050606061397389828a01613847565b925050608087013567ffffffffffffffff81111561399057600080fd5b61399c89828a0161381d565b9150509295509295509295565b6000602082840312156139bb57600080fd5b60006139c9848285016137f3565b91505092915050565b6000602082840312156139e457600080fd5b60006139f284828501613808565b91505092915050565b600060208284031215613a0d57600080fd5b6000613a1b84828501613847565b91505092915050565b600060208284031215613a3657600080fd5b6000613a448482850161385c565b91505092915050565b60008060408385031215613a6057600080fd5b6000613a6e85828601613847565b9250506020613a7f8582860161377f565b9150509250929050565b600080600080600080600060c0888a031215613aa457600080fd5b6000613ab28a828b01613847565b9750506020613ac38a828b0161377f565b9650506040613ad48a828b01613847565b955050606088013567ffffffffffffffff811115613af157600080fd5b613afd8a828b016137a9565b94509450506080613b108a828b01613847565b92505060a088013567ffffffffffffffff811115613b2d57600080fd5b613b398a828b0161381d565b91505092959891949750929550565b60008060408385031215613b5b57600080fd5b6000613b6985828601613847565b9250506020613b7a85828601613847565b9150509250929050565b600080600060608486031215613b9957600080fd5b6000613ba786828701613847565b9350506020613bb886828701613847565b9250506040613bc986828701613847565b9150509250925092565b6000613bdf8383613f57565b60c08301905092915050565b613bf4816145b9565b82525050565b613c03816145b9565b82525050565b6000613c148261445f565b613c1e8185614482565b9350613c298361444f565b8060005b83811015613c5a578151613c418882613bd3565b9750613c4c83614475565b925050600181019050613c2d565b5085935050505092915050565b613c70816145cb565b82525050565b613c7f816145cb565b82525050565b6000613c908261446a565b613c9a8185614493565b9350613caa818560208601614610565b613cb3816147d5565b840191505092915050565b6000613ccb602383614493565b9150613cd6826147e6565b604082019050919050565b6000613cee603483614493565b9150613cf982614835565b604082019050919050565b6000613d11602683614493565b9150613d1c82614884565b604082019050919050565b6000613d34601683614493565b9150613d3f826148d3565b602082019050919050565b6000613d57600f83614493565b9150613d62826148fc565b602082019050919050565b6000613d7a602d83614493565b9150613d8582614925565b604082019050919050565b6000613d9d601783614493565b9150613da882614974565b602082019050919050565b6000613dc0602383614493565b9150613dcb8261499d565b604082019050919050565b6000613de3601183614493565b9150613dee826149ec565b602082019050919050565b6000613e06601783614493565b9150613e1182614a15565b602082019050919050565b6000613e29602083614493565b9150613e3482614a3e565b602082019050919050565b6000613e4c602883614493565b9150613e5782614a67565b604082019050919050565b6000613e6f602783614493565b9150613e7a82614ab6565b604082019050919050565b6000613e92600e83614493565b9150613e9d82614b05565b602082019050919050565b6000613eb5601483614493565b9150613ec082614b2e565b602082019050919050565b6000613ed8601f83614493565b9150613ee382614b57565b602082019050919050565b6000613efb601f83614493565b9150613f0682614b80565b602082019050919050565b6000613f1e601e83614493565b9150613f2982614ba9565b602082019050919050565b6000613f41600983614493565b9150613f4c82614bd2565b602082019050919050565b60c082016000820151613f6d6000850182613fd2565b506020820151613f806020850182613beb565b506040820151613f936040850182613beb565b506060820151613fa66060850182613fd2565b506080820151613fb96080850182613fd2565b5060a0820151613fcc60a0850182613c67565b50505050565b613fdb816145f7565b82525050565b613fea816145f7565b82525050565b60006020820190506140056000830184613bfa565b92915050565b60006060820190506140206000830186613bfa565b61402d6020830185613bfa565b61403a6040830184613fe1565b949350505050565b60006040820190506140576000830185613bfa565b6140646020830184613fe1565b9392505050565b60006080820190506140806000830187613bfa565b61408d6020830186613fe1565b61409a6040830185613fe1565b81810360608301526140ac8184613c85565b905095945050505050565b600060208201905081810360008301526140d18184613c09565b905092915050565b60006020820190506140ee6000830184613c76565b92915050565b6000602082019050818103600083015261410d81613cbe565b9050919050565b6000602082019050818103600083015261412d81613ce1565b9050919050565b6000602082019050818103600083015261414d81613d04565b9050919050565b6000602082019050818103600083015261416d81613d27565b9050919050565b6000602082019050818103600083015261418d81613d4a565b9050919050565b600060208201905081810360008301526141ad81613d6d565b9050919050565b600060208201905081810360008301526141cd81613d90565b9050919050565b600060208201905081810360008301526141ed81613db3565b9050919050565b6000602082019050818103600083015261420d81613dd6565b9050919050565b6000602082019050818103600083015261422d81613df9565b9050919050565b6000602082019050818103600083015261424d81613e1c565b9050919050565b6000602082019050818103600083015261426d81613e3f565b9050919050565b6000602082019050818103600083015261428d81613e62565b9050919050565b600060208201905081810360008301526142ad81613e85565b9050919050565b600060208201905081810360008301526142cd81613ea8565b9050919050565b600060208201905081810360008301526142ed81613ecb565b9050919050565b6000602082019050818103600083015261430d81613eee565b9050919050565b6000602082019050818103600083015261432d81613f11565b9050919050565b6000602082019050818103600083015261434d81613f34565b9050919050565b60006020820190506143696000830184613fe1565b92915050565b600060c0820190506143846000830189613fe1565b6143916020830188613bfa565b61439e6040830187613bfa565b6143ab6060830186613fe1565b6143b86080830185613fe1565b6143c560a0830184613c76565b979650505050505050565b60006040820190506143e56000830185613fe1565b6143f26020830184613fe1565b9392505050565b6000614403614414565b905061440f828261469f565b919050565b6000604051905090565b600067ffffffffffffffff821115614439576144386147a6565b5b614442826147d5565b9050602081019050919050565b6000819050602082019050919050565b600081519050919050565b600081519050919050565b6000602082019050919050565b600082825260208201905092915050565b600082825260208201905092915050565b60006144af826145f7565b91506144ba836145f7565b9250827fffffffffffffffffffffffffffffffffffffffffffffffffffffffffffffffff038211156144ef576144ee614719565b5b828201905092915050565b6000614505826145f7565b9150614510836145f7565b9250826145205761451f614748565b5b828204905092915050565b6000614536826145f7565b9150614541836145f7565b9250817fffffffffffffffffffffffffffffffffffffffffffffffffffffffffffffffff048311821515161561457a57614579614719565b5b828202905092915050565b6000614590826145f7565b915061459b836145f7565b9250828210156145ae576145ad614719565b5b828203905092915050565b60006145c4826145d7565b9050919050565b60008115159050919050565b600073ffffffffffffffffffffffffffffffffffffffff82169050919050565b6000819050919050565b82818337600083830152505050565b60005b8381101561462e578082015181840152602081019050614613565b8381111561463d576000848401525b50505050565b600061464e826145f7565b9150600082141561466257614661614719565b5b600182039050919050565b6000600282049050600182168061468557607f821691505b6020821081141561469957614698614777565b5b50919050565b6146a8826147d5565b810181811067ffffffffffffffff821117156146c7576146c66147a6565b5b80604052505050565b60006146db826145f7565b91507fffffffffffffffffffffffffffffffffffffffffffffffffffffffffffffffff82141561470e5761470d614719565b5b600182019050919050565b7f4e487b7100000000000000000000000000000000000000000000000000000000600052601160045260246000fd5b7f4e487b7100000000000000000000000000000000000000000000000000000000600052601260045260246000fd5b7f4e487b7100000000000000000000000000000000000000000000000000000000600052602260045260246000fd5b7f4e487b7100000000000000000000000000000000000000000000000000000000600052604160045260246000fd5b6000601f19601f8301169050919050565b7f696e73756666696369656e74204d696c6b20616d6f756e7420746f206861727660008201527f6573740000000000000000000000000000000000000000000000000000000000602082015250565b7f456e6420426c6f636b204e756d626572206d757374206269676765722074686160008201527f6e20537461727420426c6f636b204e756d626572000000000000000000000000602082015250565b7f4f776e61626c653a206e6577206f776e657220697320746865207a65726f206160008201527f6464726573730000000000000000000000000000000000000000000000000000602082015250565b7f4e6f74206f776e6572206f662074686973204974656d00000000000000000000600082015250565b7f696e76616c6964204974656d2049640000000000000000000000000000000000600082015250565b7f616c7265616479207374616b6564206d6178696d756d206e756d626572206f6660008201527f20636f6c6c65637469626c657300000000000000000000000000000000000000602082015250565b7f5374616b696e67206973206e6f74207374617274656421000000000000000000600082015250565b7f696e73756666696369656e74204d696c6b20616d6f756e7420746f204465706f60008201527f7369740000000000000000000000000000000000000000000000000000000000602082015250565b7f796f7520617265206e6f74206f776e6572000000000000000000000000000000600082015250565b7f5374616b696e67206973206e6f742066696e6973686564000000000000000000600082015250565b7f4f776e61626c653a2063616c6c6572206973206e6f7420746865206f776e6572600082015250565b7f616c7265616479207374616b6564206d6178696d756d206e756d626572206f6660008201527f2067656e65736973000000000000000000000000000000000000000000000000602082015250565b7f54686973205374616b696e67204974656d2077617320756e7374616b6564206160008201527f6c72656164792100000000000000000000000000000000000000000000000000602082015250565b7f696e76616c696420706f6f6c4964000000000000000000000000000000000000600082015250565b7f6e6f7420726561647920746f2068617276657374000000000000000000000000600082015250565b7f76616c7565206d7573742062652067726561746572207468616e207a65726f00600082015250565b7f5265656e7472616e637947756172643a207265656e7472616e742063616c6c00600082015250565b7f456e6420426c6f636b206d75737420626967676572207468616e206e6f770000600082015250565b7f6e6f74206f776e65720000000000000000000000000000000000000000000000600082015250565b614c04816145b9565b8114614c0f57600080fd5b50565b614c1b816145cb565b8114614c2657600080fd5b50565b614c32816145f7565b8114614c3d57600080fd5b5056fea264697066735822122021286cdd5d2963476aa6704d9cfa69596e7751f385da092f500dd913034c537c64736f6c63430008040033",
  "immutableReferences": {},
  "source": "// SPDX-License-Identifier: MIT\r\npragma solidity ^0.8.4;\r\nimport \"@openzeppelin/contracts/utils/Counters.sol\";\r\nimport \"@openzeppelin/contracts/token/ERC721/ERC721.sol\";\r\nimport \"@openzeppelin/contracts/security/ReentrancyGuard.sol\";\r\nimport \"@openzeppelin/contracts/access/Ownable.sol\";\r\nimport \"./interfaces/IMilkToken.sol\";\r\n\r\ncontract Staking is ReentrancyGuard, Ownable {\r\n    using Counters for Counters.Counter;\r\n    \r\n    struct StakingItem {\r\n        uint256 itemId;\r\n        address contractAddress;\r\n        address owner;\r\n        uint256 tokenId;\r\n        uint256 lastHarvestBlock;\r\n        bool isEnded;\r\n    }\r\n\r\n    struct PoolInfo {\r\n        address contractAddress;\r\n        uint256 allocPoint;\r\n        uint256[] tokenIds;\r\n        uint256 milkPower;\r\n        string poolName;\r\n    }\r\n\r\n    Counters.Counter public stakingPoolCount;\r\n    Counters.Counter public stakingItemCount;\r\n    IMilkToken tokenMilk;\r\n    \r\n    uint256 public milkPerBlock;\r\n    uint256 public totalAllocPoint;\r\n    uint256 public maxGenesisPerWallet;\r\n    uint256 public maxCollectiblesPerWallet;\r\n    uint256 public totalAmountDepositedPool;\r\n    uint256 public startBlock;\r\n    uint256 public endBlock;\r\n    bool public isStakingAvailable;\r\n    bool public isAvailableAllocation;\r\n    mapping(uint256 => PoolInfo) public pools;\r\n    mapping(uint256 => StakingItem) public items;\r\n    mapping(address => uint256) public genesisOfUser;\r\n    mapping(address => uint256) public collectiblesOfUser;\r\n\r\n    event StakingItemCreated(\r\n        uint256 itemId,\r\n        address indexed nftContract,\r\n        address indexed owner,\r\n        uint256 tokenId\r\n    );\r\n\r\n    event Harvest(\r\n        uint256 itemId,\r\n        address indexed owner,\r\n        uint256 amount\r\n    );\r\n\r\n    constructor(IMilkToken _tokenMilk, bool _isAvailableAllocation) {\r\n        tokenMilk = _tokenMilk;\r\n        totalAllocPoint = 0;\r\n        milkPerBlock = 0;\r\n        maxGenesisPerWallet = 5;\r\n        maxCollectiblesPerWallet = 10;\r\n        totalAmountDepositedPool = 0;\r\n        isAvailableAllocation = _isAvailableAllocation;\r\n        isStakingAvailable = false;\r\n    }\r\n\r\n    function setIsAvailableAllocation(bool _isAvailableAllocation) public onlyOwner\r\n    {\r\n        isAvailableAllocation = _isAvailableAllocation;\r\n    }\r\n\r\n    function depositMilkToPool(uint256 _totalAmountDepositedPool, uint256 _startBlock, uint256 _endBlock) public onlyOwner {\r\n        require(tokenMilk.balanceOf(owner()) >= _totalAmountDepositedPool, \"insufficient Milk amount to Deposit\");\r\n        require(_endBlock > block.number, \"End Block must bigger than now\");\r\n        require(_endBlock > _startBlock, \"End Block Number must bigger than Start Block Number\");\r\n        tokenMilk.transferFrom(owner(), address(this), _totalAmountDepositedPool);\r\n        totalAmountDepositedPool = _totalAmountDepositedPool;\r\n        startBlock = _startBlock;\r\n        endBlock = _endBlock;\r\n        milkPerBlock = 10 ** 6 * _totalAmountDepositedPool / (_endBlock - _startBlock);\r\n        isStakingAvailable = true;\r\n    }\r\n\r\n    function setPeriod(uint256 _startBlock, uint256 _endBlock) public onlyOwner {\r\n        require(_endBlock > block.number, \"End Block must bigger than now\");\r\n        require(_endBlock > _startBlock, \"End Block Number must bigger than Start Block Number\");\r\n        milkPerBlock = 10 ** 6 * totalAmountDepositedPool / (_endBlock - _startBlock);\r\n        startBlock = _startBlock;\r\n        endBlock = _endBlock;\r\n    }    \r\n\r\n    function setIsStakingAvailable(bool _isStakingAvailable) public onlyOwner{\r\n        isStakingAvailable = _isStakingAvailable;\r\n    }\r\n\r\n    function setMaxGenesisPerWallet(uint256 _value) public onlyOwner {\r\n        require(\r\n            _value > 0,\r\n            \"value must be greater than zero\"\r\n        );\r\n        maxGenesisPerWallet = _value;\r\n    }\r\n\r\n    function setMaxCollectiblesPerWallet(uint256 _value) public onlyOwner {\r\n        require(\r\n            _value > 0,\r\n            \"value must be greater than zero\"\r\n        );\r\n        maxCollectiblesPerWallet = _value;\r\n    }\r\n\r\n    function addPool(address _contractAddress, uint256 _allocPoint, uint256[] calldata _tokenIds, uint256 _milkPower, string memory _poolName) public onlyOwner {\r\n        stakingPoolCount.increment();\r\n        uint256 poolId = stakingPoolCount.current();\r\n\r\n        pools[poolId] = PoolInfo(\r\n            _contractAddress,\r\n            _allocPoint,\r\n            _tokenIds,\r\n            _milkPower,\r\n            _poolName\r\n        );\r\n\r\n        totalAllocPoint = totalAllocPoint + _allocPoint;\r\n    }\r\n\r\n    function updatePool(\r\n        uint256 _poolId, \r\n        address _contractAddress, \r\n        uint256 _allocPoint, \r\n        uint256[] calldata _tokenIds,\r\n        uint256 _milkPower, \r\n        string memory _poolName\r\n    ) public onlyOwner {\r\n        require(_poolId <= stakingPoolCount.current(), \"invalid poolId\");\r\n\r\n        totalAllocPoint = totalAllocPoint - pools[_poolId].allocPoint;\r\n\r\n        pools[_poolId] = PoolInfo(\r\n            _contractAddress,\r\n            _allocPoint,\r\n            _tokenIds,\r\n            _milkPower,\r\n            _poolName\r\n        );\r\n\r\n        totalAllocPoint = totalAllocPoint + _allocPoint;\r\n    }\r\n\r\n    modifier isValid(address _msgSender, address _contractAddress, uint256 _tokenId) {\r\n        require(IERC721(_contractAddress).ownerOf(_tokenId) == _msgSender, \"not owner\");\r\n        require(genesisOfUser[_msgSender] <= maxGenesisPerWallet, \"already staked maximum number of genesis\");\r\n        require(collectiblesOfUser[_msgSender] <= maxCollectiblesPerWallet, \"already staked maximum number of collectibles\");\r\n\r\n        _;\r\n    }\r\n\r\n    function stake(\r\n        address _nftContract,\r\n        uint256 _tokenId\r\n    ) public nonReentrant isValid(msg.sender, _nftContract, _tokenId) {\r\n\r\n        require(block.number >= startBlock && block.number <= endBlock && isStakingAvailable == true, \"Staking is not started!\");\r\n\r\n        stakingItemCount.increment();\r\n        uint256 itemId = stakingItemCount.current();\r\n\r\n        items[itemId] = StakingItem(\r\n            itemId,\r\n            _nftContract,\r\n            msg.sender,\r\n            _tokenId,\r\n            block.number,\r\n            false\r\n        );\r\n\r\n        IERC721(_nftContract).transferFrom(msg.sender, address(this), _tokenId);\r\n        \r\n        if(isGenesisNFT(itemId)) genesisOfUser[msg.sender] ++;\r\n\r\n        else collectiblesOfUser[msg.sender] ++;\r\n\r\n        emit StakingItemCreated(\r\n            itemId,\r\n            _nftContract,\r\n            msg.sender,\r\n            _tokenId\r\n        );\r\n    }\r\n\r\n    function getAllocPoint(uint256 _itemId) internal view returns(uint256) {\r\n        for(uint256 i = 1; i <= stakingPoolCount.current(); i++) {\r\n            if (pools[i].contractAddress == items[_itemId].contractAddress) {\r\n                return pools[i].allocPoint;\r\n            }\r\n        }\r\n        return 0;\r\n    }\r\n\r\n    function isGenesisNFT(uint256 _itemId) internal view returns(bool) {\r\n        for(uint256 i = 1; i <= stakingPoolCount.current(); i++) {\r\n            if (pools[i].contractAddress == items[_itemId].contractAddress) {\r\n                if(pools[i].tokenIds.length != 0)\r\n                    return true;\r\n                else\r\n                    return false;\r\n            }\r\n        }\r\n        return false;\r\n    }\r\n\r\n    function _harvest(\r\n        uint256 _itemId,\r\n        address _owner\r\n    ) internal {\r\n        StakingItem storage item = items[_itemId];\r\n        require(_itemId <= stakingItemCount.current(), \"invalid Item Id\");\r\n        require(_owner == items[_itemId].owner, \"Not owner of this Item\" );\r\n        require(item.lastHarvestBlock < block.number, \"not ready to harvest\");\r\n\r\n        uint256 amount = 0;\r\n\r\n        if(isAvailableAllocation) {\r\n            uint256 poolId = getPoolId(_itemId);\r\n            uint256 stakedCount = getTotalStakedCount(poolId);\r\n            amount = milkPerBlock * (block.number - item.lastHarvestBlock) * getAllocPoint(_itemId) / totalAllocPoint / stakedCount;\r\n        }\r\n        else {\r\n            uint256 poolId = getPoolId(_itemId);\r\n            uint256 totalMilkPower = 0;\r\n            for(uint256 i = 1; i <= stakingPoolCount.current(); i ++) {\r\n                uint256 stakedCount = getTotalStakedCount(i);\r\n                totalMilkPower += stakedCount * pools[i].milkPower;\r\n            }\r\n            amount = milkPerBlock * (block.number - item.lastHarvestBlock) * pools[poolId].milkPower / totalMilkPower;\r\n        }\r\n\r\n        require(tokenMilk.balanceOf(address(this)) >= amount, \"insufficient Milk amount to harvest\");\r\n\r\n        tokenMilk.transfer(item.owner, amount * 10 ** 12);\r\n\r\n        item.lastHarvestBlock = block.number;\r\n\r\n        emit Harvest(_itemId, item.owner, amount);\r\n    }\r\n\r\n    function harvest(uint256 _poolId) public {\r\n        for(uint256 i = 1; i <= stakingItemCount.current(); i ++) {\r\n            if(items[i].owner == msg.sender && items[i].isEnded == false && pools[_poolId].contractAddress == items[i].contractAddress) {\r\n                _harvest(i, msg.sender);\r\n            }\r\n        }\r\n    }\r\n\r\n    function getStakedItems(address _owner) public view returns(StakingItem[] memory){\r\n        uint256 totalItemCount = stakingItemCount.current();\r\n        uint256 itemCount = 0;\r\n        uint256 currentIndex = 0;\r\n\r\n        for(uint256 i = 1; i <= totalItemCount; i ++) {\r\n            if(_owner == items[i].owner && items[i].isEnded == false) {\r\n                itemCount += 1;\r\n            }\r\n        }\r\n\r\n        StakingItem[] memory stakedItems = new StakingItem[](itemCount);\r\n    \r\n        for (uint256 i = 1; i <= totalItemCount; i ++) {\r\n            if(_owner == items[i].owner && items[i].isEnded == false) {\r\n                StakingItem storage currentItem = items[i];\r\n                stakedItems[currentIndex] = currentItem;\r\n                currentIndex += 1;\r\n            }\r\n        }\r\n\r\n        return stakedItems;\r\n\r\n    }\r\n\r\n    function getPendingMilk(uint256 _itemId) public view returns(uint256){\r\n        StakingItem storage item = items[_itemId];\r\n\r\n        uint256 amount = 0;\r\n\r\n        if(isAvailableAllocation) {\r\n            uint256 poolId = getPoolId(_itemId);\r\n            uint256 stakedCount = getTotalStakedCount(poolId);\r\n            amount = milkPerBlock * (block.number - item.lastHarvestBlock) * getAllocPoint(_itemId) / totalAllocPoint / stakedCount;\r\n        }\r\n        else {\r\n            uint256 poolId = getPoolId(_itemId);\r\n            uint256 totalMilkPower = 0;\r\n            for(uint256 i = 1; i <= stakingPoolCount.current(); i ++) {\r\n                uint256 stakedCount = getTotalStakedCount(i);\r\n                totalMilkPower += stakedCount * pools[i].milkPower;\r\n            }\r\n            amount = milkPerBlock * (block.number - item.lastHarvestBlock) * pools[poolId].milkPower / totalMilkPower;\r\n        }\r\n\r\n        return amount;\r\n    }\r\n\r\n    function getPendingMilkForAll(address _owner, uint256 _poolId) public view returns(uint256) {\r\n        uint256 totalMilkReward = 0;\r\n        for(uint256 i = 1; i <= stakingItemCount.current(); i ++) {\r\n            if(items[i].owner == _owner && items[i].isEnded == false && pools[_poolId].contractAddress == items[i].contractAddress) {\r\n                totalMilkReward += getPendingMilk(i);\r\n            }\r\n        }\r\n        return totalMilkReward;\r\n    }\r\n    \r\n    function getBlockNumber() public view returns(uint256) {\r\n        return block.number;\r\n    }\r\n\r\n    function getPoolId(uint256 _itemId) public view returns(uint256) {\r\n\r\n        uint256 poolId = 0;\r\n        for(uint256 i = 1; i <= stakingPoolCount.current(); i ++) {\r\n            if(pools[i].contractAddress == items[_itemId].contractAddress)\r\n            {\r\n                poolId = i;\r\n                break;\r\n            }\r\n        }\r\n        return poolId;\r\n\r\n    }\r\n    function getTotalStakedCount(uint256 _poolId) public view returns(uint256) {\r\n        uint256 count = 0;\r\n        for(uint256 i = 1; i <= stakingItemCount.current(); i ++)\r\n        {\r\n            if(items[i].isEnded == false && items[i].contractAddress == pools[_poolId].contractAddress) {\r\n                count ++;\r\n            }\r\n        }\r\n        return count;\r\n    }\r\n\r\n    function getTotalMilkPower(uint256 _poolId) public view returns(uint256) {\r\n        uint256 count = getTotalStakedCount(_poolId);\r\n        uint256 totalMilkPower =  count * pools[_poolId].milkPower;\r\n        return totalMilkPower;\r\n    }\r\n\r\n    function getMyMilkPower(uint256 _poolId, address _owner) public view returns(uint256) {\r\n        uint256 count = 0;\r\n        for(uint256 i = 1; i <= stakingItemCount.current(); i ++)\r\n        {\r\n            if(items[i].isEnded == false && items[i].contractAddress == pools[_poolId].contractAddress && items[i].owner == _owner) {\r\n                count ++;\r\n            }\r\n        }\r\n        uint256 myMilkPower =  count * pools[_poolId].milkPower;\r\n        return myMilkPower;\r\n    }\r\n\r\n    function getDailyMilkRate(uint256 _poolId) public view returns(uint256) {\r\n        uint256 totalMilkPower = getTotalMilkPower(_poolId);\r\n        uint256 dailyRate = 0;\r\n        if(totalMilkPower != 0)\r\n            dailyRate = milkPerBlock * 20 * 60 * 24 * 100 / totalMilkPower;\r\n        return dailyRate;\r\n    }\r\n\r\n    function getLastHarvestBlock(uint256 _itemId) public view returns(uint256) {\r\n        StakingItem storage item = items[_itemId];\r\n        return item.lastHarvestBlock;\r\n    }\r\n\r\n    function unstake(\r\n        uint256 _itemId,\r\n        uint256 _poolId\r\n    ) public {\r\n        StakingItem storage item = items[_itemId];\r\n\r\n        require(item.owner == msg.sender, \"you are not owner\");\r\n        require(item.isEnded == false, \"This Staking Item was unstaked already!\");\r\n        _harvest(_itemId, msg.sender);\r\n        IERC721(item.contractAddress).transferFrom(address(this), msg.sender, item.tokenId);\r\n        item.isEnded = true;\r\n        if(_poolId == 1) maxCollectiblesPerWallet --;\r\n        else if(_poolId == 2) maxGenesisPerWallet --;\r\n    }\r\n\r\n    function withDraw() public onlyOwner {\r\n        require(block.number > endBlock, \"Staking is not finished\");\r\n        uint256 remainBalance = tokenMilk.balanceOf(address(this));\r\n        tokenMilk.transfer(owner(), remainBalance);\r\n        isStakingAvailable = false;\r\n    }\r\n}\r\n",
  "sourcePath": "E:\\Git for Project\\Ethereum\\NFT\\CashCow\\nft-contracts\\contracts\\Staking.sol",
  "compiler": {
    "name": "solc",
    "version": "0.8.4+commit.c7e474f2.Emscripten.clang"
  },
  "schemaVersion": "3.4.2",
  "updatedAt": "2022-02-07T14:30:35.604Z",
  "networkType": "ethereum",
  "devdoc": {
    "kind": "dev",
    "methods": {
      "owner()": {
        "details": "Returns the address of the current owner."
      },
      "renounceOwnership()": {
        "details": "Leaves the contract without owner. It will not be possible to call `onlyOwner` functions anymore. Can only be called by the current owner. NOTE: Renouncing ownership will leave the contract without an owner, thereby removing any functionality that is only available to the owner."
      },
      "transferOwnership(address)": {
        "details": "Transfers ownership of the contract to a new account (`newOwner`). Can only be called by the current owner."
      }
    },
    "version": 1
  },
  "userdoc": {
    "kind": "user",
    "methods": {},
    "version": 1
  }
}