{
  "contractName": "Staking",
  "abi": [
    {
      "inputs": [
        {
          "internalType": "contract IMilkToken",
          "name": "_tokenMilk",
          "type": "address"
        }
      ],
      "stateMutability": "nonpayable",
      "type": "constructor"
    },
    {
      "anonymous": false,
      "inputs": [
        {
          "indexed": false,
          "internalType": "uint256",
          "name": "itemId",
          "type": "uint256"
        },
        {
          "indexed": true,
          "internalType": "address",
          "name": "owner",
          "type": "address"
        },
        {
          "indexed": false,
          "internalType": "uint256",
          "name": "amount",
          "type": "uint256"
        }
      ],
      "name": "Harvest",
      "type": "event"
    },
    {
      "anonymous": false,
      "inputs": [
        {
          "indexed": true,
          "internalType": "address",
          "name": "previousOwner",
          "type": "address"
        },
        {
          "indexed": true,
          "internalType": "address",
          "name": "newOwner",
          "type": "address"
        }
      ],
      "name": "OwnershipTransferred",
      "type": "event"
    },
    {
      "anonymous": false,
      "inputs": [
        {
          "indexed": false,
          "internalType": "uint256",
          "name": "itemId",
          "type": "uint256"
        },
        {
          "indexed": true,
          "internalType": "address",
          "name": "nftContract",
          "type": "address"
        },
        {
          "indexed": true,
          "internalType": "address",
          "name": "owner",
          "type": "address"
        },
        {
          "indexed": false,
          "internalType": "uint256",
          "name": "tokenId",
          "type": "uint256"
        }
      ],
      "name": "StakingItemCreated",
      "type": "event"
    },
    {
      "inputs": [],
      "name": "endBlock",
      "outputs": [
        {
          "internalType": "uint256",
          "name": "",
          "type": "uint256"
        }
      ],
      "stateMutability": "view",
      "type": "function",
      "constant": true
    },
    {
      "inputs": [],
      "name": "isStakingAvailable",
      "outputs": [
        {
          "internalType": "bool",
          "name": "",
          "type": "bool"
        }
      ],
      "stateMutability": "view",
      "type": "function",
      "constant": true
    },
    {
      "inputs": [
        {
          "internalType": "uint256",
          "name": "",
          "type": "uint256"
        }
      ],
      "name": "items",
      "outputs": [
        {
          "internalType": "uint256",
          "name": "itemId",
          "type": "uint256"
        },
        {
          "internalType": "address",
          "name": "contractAddress",
          "type": "address"
        },
        {
          "internalType": "address",
          "name": "owner",
          "type": "address"
        },
        {
          "internalType": "uint256",
          "name": "tokenId",
          "type": "uint256"
        },
        {
          "internalType": "uint256",
          "name": "poolId",
          "type": "uint256"
        },
        {
          "internalType": "bool",
          "name": "isEnded",
          "type": "bool"
        }
      ],
      "stateMutability": "view",
      "type": "function",
      "constant": true
    },
    {
      "inputs": [],
      "name": "milkPerBlock",
      "outputs": [
        {
          "internalType": "uint256",
          "name": "",
          "type": "uint256"
        }
      ],
      "stateMutability": "view",
      "type": "function",
      "constant": true
    },
    {
      "inputs": [],
      "name": "owner",
      "outputs": [
        {
          "internalType": "address",
          "name": "",
          "type": "address"
        }
      ],
      "stateMutability": "view",
      "type": "function",
      "constant": true
    },
    {
      "inputs": [
        {
          "internalType": "address",
          "name": "",
          "type": "address"
        }
      ],
      "name": "poolIdOfContract",
      "outputs": [
        {
          "internalType": "uint256",
          "name": "",
          "type": "uint256"
        }
      ],
      "stateMutability": "view",
      "type": "function",
      "constant": true
    },
    {
      "inputs": [
        {
          "internalType": "uint256",
          "name": "",
          "type": "uint256"
        }
      ],
      "name": "pools",
      "outputs": [
        {
          "internalType": "address",
          "name": "contractAddress",
          "type": "address"
        },
        {
          "internalType": "uint256",
          "name": "allocPoint",
          "type": "uint256"
        },
        {
          "internalType": "uint256",
          "name": "milkPower",
          "type": "uint256"
        },
        {
          "internalType": "uint256",
          "name": "maxStakeCount",
          "type": "uint256"
        },
        {
          "internalType": "uint256",
          "name": "stakedCount",
          "type": "uint256"
        }
      ],
      "stateMutability": "view",
      "type": "function",
      "constant": true
    },
    {
      "inputs": [],
      "name": "renounceOwnership",
      "outputs": [],
      "stateMutability": "nonpayable",
      "type": "function"
    },
    {
      "inputs": [
        {
          "internalType": "uint256",
          "name": "",
          "type": "uint256"
        },
        {
          "internalType": "uint256",
          "name": "",
          "type": "uint256"
        }
      ],
      "name": "stakedUsers",
      "outputs": [
        {
          "internalType": "address",
          "name": "",
          "type": "address"
        }
      ],
      "stateMutability": "view",
      "type": "function",
      "constant": true
    },
    {
      "inputs": [],
      "name": "stakingItemCount",
      "outputs": [
        {
          "internalType": "uint256",
          "name": "_value",
          "type": "uint256"
        }
      ],
      "stateMutability": "view",
      "type": "function",
      "constant": true
    },
    {
      "inputs": [],
      "name": "stakingPoolCount",
      "outputs": [
        {
          "internalType": "uint256",
          "name": "_value",
          "type": "uint256"
        }
      ],
      "stateMutability": "view",
      "type": "function",
      "constant": true
    },
    {
      "inputs": [],
      "name": "startBlock",
      "outputs": [
        {
          "internalType": "uint256",
          "name": "",
          "type": "uint256"
        }
      ],
      "stateMutability": "view",
      "type": "function",
      "constant": true
    },
    {
      "inputs": [],
      "name": "totalAllocPoint",
      "outputs": [
        {
          "internalType": "uint256",
          "name": "",
          "type": "uint256"
        }
      ],
      "stateMutability": "view",
      "type": "function",
      "constant": true
    },
    {
      "inputs": [],
      "name": "totalAmountDepositedPool",
      "outputs": [
        {
          "internalType": "uint256",
          "name": "",
          "type": "uint256"
        }
      ],
      "stateMutability": "view",
      "type": "function",
      "constant": true
    },
    {
      "inputs": [
        {
          "internalType": "address",
          "name": "newOwner",
          "type": "address"
        }
      ],
      "name": "transferOwnership",
      "outputs": [],
      "stateMutability": "nonpayable",
      "type": "function"
    },
    {
      "inputs": [
        {
          "internalType": "address",
          "name": "",
          "type": "address"
        },
        {
          "internalType": "uint256",
          "name": "",
          "type": "uint256"
        }
      ],
      "name": "userInfo",
      "outputs": [
        {
          "internalType": "bool",
          "name": "isStaked",
          "type": "bool"
        },
        {
          "internalType": "uint256",
          "name": "pendingMilk",
          "type": "uint256"
        },
        {
          "internalType": "uint256",
          "name": "userMilkPower",
          "type": "uint256"
        },
        {
          "internalType": "uint256",
          "name": "stakedCount",
          "type": "uint256"
        },
        {
          "internalType": "uint256",
          "name": "lastHarvestBlock",
          "type": "uint256"
        }
      ],
      "stateMutability": "view",
      "type": "function",
      "constant": true
    },
    {
      "inputs": [
        {
          "internalType": "uint256",
          "name": "",
          "type": "uint256"
        },
        {
          "internalType": "uint256",
          "name": "",
          "type": "uint256"
        }
      ],
      "name": "whitelistedTokenIds",
      "outputs": [
        {
          "internalType": "bool",
          "name": "",
          "type": "bool"
        }
      ],
      "stateMutability": "view",
      "type": "function",
      "constant": true
    },
    {
      "inputs": [
        {
          "internalType": "uint256",
          "name": "_totalAmountDepositedPool",
          "type": "uint256"
        },
        {
          "internalType": "uint256",
          "name": "_startBlock",
          "type": "uint256"
        },
        {
          "internalType": "uint256",
          "name": "_endBlock",
          "type": "uint256"
        }
      ],
      "name": "depositMilkToPool",
      "outputs": [],
      "stateMutability": "nonpayable",
      "type": "function"
    },
    {
      "inputs": [
        {
          "internalType": "uint256",
          "name": "_amountReward",
          "type": "uint256"
        }
      ],
      "name": "addMilkReward",
      "outputs": [],
      "stateMutability": "nonpayable",
      "type": "function"
    },
    {
      "inputs": [
        {
          "internalType": "uint256",
          "name": "_startBlock",
          "type": "uint256"
        },
        {
          "internalType": "uint256",
          "name": "_endBlock",
          "type": "uint256"
        }
      ],
      "name": "setPeriod",
      "outputs": [],
      "stateMutability": "nonpayable",
      "type": "function"
    },
    {
      "inputs": [
        {
          "internalType": "bool",
          "name": "_isStakingAvailable",
          "type": "bool"
        }
      ],
      "name": "setIsStakingAvailable",
      "outputs": [],
      "stateMutability": "nonpayable",
      "type": "function"
    },
    {
      "inputs": [
        {
          "internalType": "address",
          "name": "_contractAddress",
          "type": "address"
        },
        {
          "internalType": "uint256",
          "name": "_allocPoint",
          "type": "uint256"
        },
        {
          "internalType": "uint256",
          "name": "_milkPower",
          "type": "uint256"
        },
        {
          "internalType": "uint256",
          "name": "_maxStakeCount",
          "type": "uint256"
        }
      ],
      "name": "addPool",
      "outputs": [],
      "stateMutability": "nonpayable",
      "type": "function"
    },
    {
      "inputs": [
        {
          "internalType": "address",
          "name": "_contractAddress",
          "type": "address"
        },
        {
          "internalType": "uint256",
          "name": "_poolId",
          "type": "uint256"
        }
      ],
      "name": "setPoolIdOfContract",
      "outputs": [],
      "stateMutability": "nonpayable",
      "type": "function"
    },
    {
      "inputs": [
        {
          "internalType": "uint256",
          "name": "_poolId",
          "type": "uint256"
        },
        {
          "internalType": "uint256",
          "name": "_stakedCount",
          "type": "uint256"
        }
      ],
      "name": "setStakedCount",
      "outputs": [],
      "stateMutability": "nonpayable",
      "type": "function"
    },
    {
      "inputs": [
        {
          "internalType": "uint256",
          "name": "_poolId",
          "type": "uint256"
        },
        {
          "internalType": "address",
          "name": "_contractAddress",
          "type": "address"
        },
        {
          "internalType": "uint256",
          "name": "_allocPoint",
          "type": "uint256"
        },
        {
          "internalType": "uint256",
          "name": "_milkPower",
          "type": "uint256"
        },
        {
          "internalType": "uint256",
          "name": "_maxStakeCount",
          "type": "uint256"
        }
      ],
      "name": "updatePool",
      "outputs": [],
      "stateMutability": "nonpayable",
      "type": "function"
    },
    {
      "inputs": [
        {
          "internalType": "uint256",
          "name": "_poolId",
          "type": "uint256"
        },
        {
          "internalType": "uint256[]",
          "name": "_tokenIds",
          "type": "uint256[]"
        }
      ],
      "name": "setTokenIds",
      "outputs": [],
      "stateMutability": "nonpayable",
      "type": "function"
    },
    {
      "inputs": [
        {
          "internalType": "address",
          "name": "_nftContract",
          "type": "address"
        },
        {
          "internalType": "uint256",
          "name": "_tokenId",
          "type": "uint256"
        }
      ],
      "name": "stake",
      "outputs": [],
      "stateMutability": "nonpayable",
      "type": "function"
    },
    {
      "inputs": [
        {
          "internalType": "uint256",
          "name": "_poolId",
          "type": "uint256"
        }
      ],
      "name": "harvest",
      "outputs": [],
      "stateMutability": "nonpayable",
      "type": "function"
    },
    {
      "inputs": [
        {
          "internalType": "uint256",
          "name": "_poolId",
          "type": "uint256"
        },
        {
          "internalType": "address",
          "name": "_owner",
          "type": "address"
        }
      ],
      "name": "getPendingMilk",
      "outputs": [
        {
          "internalType": "uint256",
          "name": "",
          "type": "uint256"
        }
      ],
      "stateMutability": "view",
      "type": "function",
      "constant": true
    },
    {
      "inputs": [
        {
          "internalType": "address",
          "name": "_owner",
          "type": "address"
        }
      ],
      "name": "getStakedItems",
      "outputs": [
        {
          "components": [
            {
              "internalType": "uint256",
              "name": "itemId",
              "type": "uint256"
            },
            {
              "internalType": "address",
              "name": "contractAddress",
              "type": "address"
            },
            {
              "internalType": "address",
              "name": "owner",
              "type": "address"
            },
            {
              "internalType": "uint256",
              "name": "tokenId",
              "type": "uint256"
            },
            {
              "internalType": "uint256",
              "name": "poolId",
              "type": "uint256"
            },
            {
              "internalType": "bool",
              "name": "isEnded",
              "type": "bool"
            }
          ],
          "internalType": "struct Staking.StakingItem[]",
          "name": "",
          "type": "tuple[]"
        }
      ],
      "stateMutability": "view",
      "type": "function",
      "constant": true
    },
    {
      "inputs": [],
      "name": "getBlockNumber",
      "outputs": [
        {
          "internalType": "uint256",
          "name": "",
          "type": "uint256"
        }
      ],
      "stateMutability": "view",
      "type": "function",
      "constant": true
    },
    {
      "inputs": [
        {
          "internalType": "uint256",
          "name": "_poolId",
          "type": "uint256"
        }
      ],
      "name": "getTotalMilkPower",
      "outputs": [
        {
          "internalType": "uint256",
          "name": "",
          "type": "uint256"
        }
      ],
      "stateMutability": "view",
      "type": "function",
      "constant": true
    },
    {
      "inputs": [
        {
          "internalType": "uint256",
          "name": "_poolId",
          "type": "uint256"
        },
        {
          "internalType": "address",
          "name": "_owner",
          "type": "address"
        }
      ],
      "name": "getMyMilkPower",
      "outputs": [
        {
          "internalType": "uint256",
          "name": "",
          "type": "uint256"
        }
      ],
      "stateMutability": "view",
      "type": "function",
      "constant": true
    },
    {
      "inputs": [
        {
          "internalType": "uint256",
          "name": "_poolId",
          "type": "uint256"
        }
      ],
      "name": "getDailyMilkRate",
      "outputs": [
        {
          "internalType": "uint256",
          "name": "",
          "type": "uint256"
        }
      ],
      "stateMutability": "view",
      "type": "function",
      "constant": true
    },
    {
      "inputs": [
        {
          "internalType": "uint256",
          "name": "_itemId",
          "type": "uint256"
        }
      ],
      "name": "unstake",
      "outputs": [],
      "stateMutability": "nonpayable",
      "type": "function"
    },
    {
      "inputs": [],
      "name": "withdraw",
      "outputs": [],
      "stateMutability": "nonpayable",
      "type": "function"
    }
  ],
  "bytecode": "0x60806040523480156200001157600080fd5b5060405162002d8038038062002d808339810160408190526200003491620000fa565b60016000556200005f62000050640100000000620000a4810204565b640100000000620000a8810204565b600f8054600160a060020a031916600160a060020a03929092169190911790556000600381905560028190556004556001805460a060020a60ff02191690556200012a565b3390565b60018054600160a060020a03838116600160a060020a0319831681179093556040519116919082907f8be0079c531659141344cd1fd0a4f28419497f9722a3daafe3b4186f6b6457e090600090a35050565b6000602082840312156200010c578081fd5b8151600160a060020a038116811462000123578182fd5b9392505050565b612c46806200013a6000396000f3fe608060405234801561001057600080fd5b50600436106102205760003560e060020a9004806371a80ed611610129578063ac4afa38116100b1578063c84bbd6a11610080578063c84bbd6a146105d6578063d06cd518146105e9578063d5dfc26514610609578063ddc6326214610629578063f2fde38b1461063c57600080fd5b8063ac4afa38146104b3578063adc9772e1461052c578063bb7a80541461053f578063bfb231d21461054857600080fd5b8063872c7a50116100f8578063872c7a50146104425780638da5cb5b146104555780639c5a85401461047a578063a3757b191461048d578063abe02271146104a057600080fd5b806371a80ed6146104095780637506f5341461041c5780637e52a67414610425578063811e1cf91461043857600080fd5b80633ccfd60b116101ac5780635119913c1161017b5780635119913c1461039257806353dc4ae1146103c85780635a4ec0ca146103db5780636b16b1be146103ee578063715018a61461040157600080fd5b80633ccfd60b1461036857806342cbb15c1461037057806348cd4cb1146103765780634b8e4ace1461037f57600080fd5b806317caf6f1116101f357806317caf6f11461029e57806321ce919d146102a7578063241f25701461031d5780632dd96be91461034b5780632e17de781461035557600080fd5b806303c5b1dc14610225578063083c63231461023a5780630dea2d5c1461025657806315a731971461028b575b600080fd5b61023861023336600461294c565b61064f565b005b61024360065481565b6040519081526020015b60405180910390f35b60015461027b9074010000000000000000000000000000000000000000900460ff1681565b604051901515815260200161024d565b6102386102993660046127f5565b610894565b61024360035481565b6102f36102b5366004612790565b600a6020908152600092835260408084209091529082529020805460018201546002830154600384015460049094015460ff90931693919290919085565b6040805195151586526020860194909452928401919091526060830152608082015260a00161024d565b61027b61032b36600461294c565b600b60209081526000928352604080842090915290825290205460ff1681565b600d546102439081565b61023861036336600461282d565b610901565b610238610b3d565b43610243565b61024360055481565b61023861038d36600461296d565b610d19565b6102436103a036600461285d565b600160a060020a03166000908152600a60209081526040808320938352929052206002015490565b6102386103d6366004612790565b610f9d565b6102386103e93660046127bb565b610fe6565b6102386103fc36600461294c565b611168565b6102386111aa565b61023861041736600461282d565b6111e3565b61024360025481565b61023861043336600461288c565b61154f565b600e546102439081565b61024361045036600461282d565b61173e565b600154600160a060020a03165b604051600160a060020a03909116815260200161024d565b61024361048836600461282d565b611769565b61023861049b3660046128d3565b6117eb565b6104626104ae36600461294c565b611944565b6104fa6104c136600461282d565b60076020526000908152604090208054600182015460028301546003840154600490940154600160a060020a0390931693919290919085565b60408051600160a060020a0390961686526020860194909452928401919091526060830152608082015260a00161024d565b61023861053a366004612790565b61197c565b61024360045481565b61059b61055636600461282d565b6008602052600090815260409020805460018201546002830154600384015460048501546005909501549394600160a060020a03938416949290931692909160ff1686565b60408051968752600160a060020a039586166020880152939094169285019290925260608401526080830152151560a082015260c00161024d565b6102436105e436600461285d565b611f98565b6102436105f7366004612758565b60096020526000908152604090205481565b61061c610617366004612758565b612086565b60405161024d91906129bc565b61023861063736600461282d565b6122a4565b61023861064a366004612758565b6124a6565b600154600160a060020a031633146106855760405160e560020a62461bcd02815260040161067c90612afc565b60405180910390fd5b4381116106d75760405160e560020a62461bcd02815260206004820152601e60248201527f456e6420426c6f636b206d75737420626967676572207468616e206e6f770000604482015260640161067c565b8181116106f95760405160e560020a62461bcd02815260040161067c90612a42565b43821061074b5760405160e560020a62461bcd02815260206004820152601d60248201527f537461727420426c6f636b206973206e6f74206176616c6961626c6521000000604482015260640161067c565b600060015b600d54811161085d5760005b6000828152600c602052604090205481101561084a576000828152600c6020526040902080546107c3918491849081106107a95760e060020a634e487b7102600052603260045260246000fd5b600091825260209091200154600160a060020a031661255e565b6000828152600c602052604081208054600a929190849081106107f95760e060020a634e487b7102600052603260045260246000fd5b6000918252602080832090910154600160a060020a0316835282810193909352604091820181208582529092529020600101546108369084612b31565b92508061084281612bb9565b91505061075c565b508061085581612bb9565b915050610750565b5060008160045461086e9190612b8b565b905061087a4384612b8b565b6108849082612b49565b6002555050600591909155600655565b600154600160a060020a031633146108c15760405160e560020a62461bcd02815260040161067c90612afc565b60018054911515740100000000000000000000000000000000000000000274ff000000000000000000000000000000000000000019909216919091179055565b60008181526008602052604090206002810154600160a060020a0316331461096e5760405160e560020a62461bcd02815260206004820152601160248201527f796f7520617265206e6f74206f776e6572000000000000000000000000000000604482015260640161067c565b600581015460ff16156109ec5760405160e560020a62461bcd02815260206004820152602760248201527f54686973205374616b696e67204974656d2077617320756e7374616b6564206160448201527f6c72656164792100000000000000000000000000000000000000000000000000606482015260840161067c565b6109fa81600401543361255e565b610a0781600401546122a4565b600181015460038201546040517f23b872dd000000000000000000000000000000000000000000000000000000008152600160a060020a03909216916323b872dd91610a599130913391600401612998565b600060405180830381600087803b158015610a7357600080fd5b505af1158015610a87573d6000803e3d6000fd5b50505060058201805460ff19166001179055506004808201546000908152600760205260408120909101805491610abd83612ba2565b909155505060048101546000818152600760209081526040808320600290810154338552600a8452828520958552949092528220018054909190610b02908490612b8b565b9091555050336000908152600a60209081526040808320600485015484529091528120600301805491610b3483612ba2565b91905055505050565b600154600160a060020a03163314610b6a5760405160e560020a62461bcd02815260040161067c90612afc565b6006544311610bbe5760405160e560020a62461bcd02815260206004820152601760248201527f5374616b696e67206973206e6f742066696e6973686564000000000000000000604482015260640161067c565b600f546040517f70a08231000000000000000000000000000000000000000000000000000000008152306004820152600091600160a060020a0316906370a082319060240160206040518083038186803b158015610c1b57600080fd5b505afa158015610c2f573d6000803e3d6000fd5b505050506040513d601f19601f82011682018060405250810190610c539190612845565b600f54909150600160a060020a031663a9059cbb610c79600154600160a060020a031690565b60405160e060020a63ffffffff8416028152600160a060020a03909116600482015260248101849052604401602060405180830381600087803b158015610cbf57600080fd5b505af1158015610cd3573d6000803e3d6000fd5b505050506040513d601f19601f82011682018060405250810190610cf79190612811565b50506001805474ff000000000000000000000000000000000000000019169055565b600154600160a060020a03163314610d465760405160e560020a62461bcd02815260040161067c90612afc565b610d5883670de0b6b3a7640000612b6c565b600f54600160a060020a03166370a08231610d7b600154600160a060020a031690565b60405160e060020a63ffffffff8416028152600160a060020a03909116600482015260240160206040518083038186803b158015610db857600080fd5b505afa158015610dcc573d6000803e3d6000fd5b505050506040513d601f19601f82011682018060405250810190610df09190612845565b1015610e115760405160e560020a62461bcd02815260040161067c90612a9f565b438111610e635760405160e560020a62461bcd02815260206004820152601e60248201527f456e6420426c6f636b206d75737420626967676572207468616e206e6f770000604482015260640161067c565b818111610e855760405160e560020a62461bcd02815260040161067c90612a42565b600f54600160a060020a03166323b872dd610ea8600154600160a060020a031690565b30610ebb87670de0b6b3a7640000612b6c565b6040518463ffffffff1660e060020a028152600401610edc93929190612998565b602060405180830381600087803b158015610ef657600080fd5b505af1158015610f0a573d6000803e3d6000fd5b505050506040513d601f19601f82011682018060405250810190610f2e9190612811565b50610f3c83620f4240612b6c565b60045560058290556006819055610f538282612b8b565b600454610f609190612b49565b60025550506001805474ff000000000000000000000000000000000000000019167401000000000000000000000000000000000000000017905550565b600154600160a060020a03163314610fca5760405160e560020a62461bcd02815260040161067c90612afc565b600160a060020a03909116600090815260096020526040902055565b600154600160a060020a031633146110135760405160e560020a62461bcd02815260040161067c90612afc565b60055415801590611025575060065415155b6110745760405160e560020a62461bcd02815260206004820152601f60248201527f52657761726420546f6b656e206e6f74206465706f7369746564207965742100604482015260640161067c565b611082600d80546001019055565b600061108d600d5490565b6040805160c081018252600160a060020a038881168252602080830189815283850189815260608086018a815260006080880181815260a089018481528b835260078852999091208851815473ffffffffffffffffffffffffffffffffffffffff19169816979097178755935160018701559151600286015590516003850155905160048401559351805195965093949293919261113192600585019201906126bd565b505050600160a060020a038616600090815260096020526040902082905560035461115d908690612b31565b600355505050505050565b600154600160a060020a031633146111955760405160e560020a62461bcd02815260040161067c90612afc565b60009182526007602052604090912060040155565b600154600160a060020a031633146111d75760405160e560020a62461bcd02815260040161067c90612afc565b6111e1600061265e565b565b600154600160a060020a031633146112105760405160e560020a62461bcd02815260040161067c90612afc565b61122281670de0b6b3a7640000612b6c565b600f54600160a060020a03166370a08231611245600154600160a060020a031690565b60405160e060020a63ffffffff8416028152600160a060020a03909116600482015260240160206040518083038186803b15801561128257600080fd5b505afa158015611296573d6000803e3d6000fd5b505050506040513d601f19601f820116820180604052508101906112ba9190612845565b10156112db5760405160e560020a62461bcd02815260040161067c90612a9f565b60055443101580156112ef57506006544311155b61133e5760405160e560020a62461bcd02815260206004820152601960248201527f4e6f77206973206e6f74205374616b696e6720506572696f6400000000000000604482015260640161067c565b600060015b600d5481116114365760005b6000828152600c6020526040902054811015611423576000828152600c60205260409020805461139c918491849081106107a95760e060020a634e487b7102600052603260045260246000fd5b6000828152600c602052604081208054600a929190849081106113d25760e060020a634e487b7102600052603260045260246000fd5b6000918252602080832090910154600160a060020a03168352828101939093526040918201812085825290925290206001015461140f9084612b31565b92508061141b81612bb9565b91505061134f565b508061142e81612bb9565b915050611343565b50600f54600160a060020a03166323b872dd61145a600154600160a060020a031690565b3061146d86670de0b6b3a7640000612b6c565b6040518463ffffffff1660e060020a02815260040161148e93929190612998565b602060405180830381600087803b1580156114a857600080fd5b505af11580156114bc573d6000803e3d6000fd5b505050506040513d601f19601f820116820180604052508101906114e09190612811565b506000816004546114f19190612b8b565b905061150083620f4240612b6c565b61150a9082612b31565b90504360065461151a9190612b8b565b6115249082612b49565b60025561153483620f4240612b6c565b600460008282546115459190612b31565b9091555050505050565b600154600160a060020a0316331461157c5760405160e560020a62461bcd02815260040161067c90612afc565b600d548511156115d15760405160e560020a62461bcd02815260206004820152600e60248201527f696e76616c696420706f6f6c4964000000000000000000000000000000000000604482015260640161067c565b6000858152600760205260409020600101546003546115f09190612b8b565b6003556040805160c081018252600160a060020a03861681526020808201869052818301859052606082018490526000888152600780835284822060048101546080860152918a905282526005018054845181840281018401909552808552929360a0850193909283018282801561168757602002820191906000526020600020905b815481526020019060010190808311611673575b5050509190925250506000868152600760209081526040918290208351815473ffffffffffffffffffffffffffffffffffffffff1916600160a060020a03909116178155838201516001820155918301516002830155606083015160038301556080830151600483015560a0830151805161170892600585019201906126bd565b505050600160a060020a0384166000908152600960205260409020859055600354611734908490612b31565b6003555050505050565b60008181526007602052604081206002810154600490910154829161176291612b6c565b9392505050565b6000806117758361173e565b9050600081156117625760035460008581526007602052604090206001015460025484906117a4906014612b6c565b6117af90603c612b6c565b6117ba906018612b6c565b6117c5906064612b6c565b6117cf9190612b49565b6117d99190612b6c565b6117e39190612b49565b949350505050565b600154600160a060020a031633146118185760405160e560020a62461bcd02815260040161067c90612afc565b6000838152600760205260408120905b60058201548110156118af576000858152600b602052604081206005840180548391908590811061186c5760e060020a634e487b7102600052603260045260246000fd5b9060005260206000200154815260200190815260200160002060006101000a81548160ff02191690831515021790555080806118a790612bb9565b915050611828565b5060005b8281101561192e576000858152600b602052604081206001918686858181106118ef5760e060020a634e487b7102600052603260045260246000fd5b90506020020135815260200190815260200160002060006101000a81548160ff021916908315150217905550808061192690612bb9565b9150506118b3565b5061193d600582018484612708565b5050505050565b600c602052816000526040600020818154811061196057600080fd5b600091825260209091200154600160a060020a03169150829050565b600260005414156119d25760405160e560020a62461bcd02815260206004820152601f60248201527f5265656e7472616e637947756172643a207265656e7472616e742063616c6c00604482015260640161067c565b60026000556040517f6352211e000000000000000000000000000000000000000000000000000000008152600481018290523390839083908390600160a060020a03841690636352211e9060240160206040518083038186803b158015611a3857600080fd5b505afa158015611a4c573d6000803e3d6000fd5b505050506040513d601f19601f82011682018060405250810190611a709190612774565b600160a060020a031614611ac95760405160e560020a62461bcd02815260206004820152600960248201527f6e6f74206f776e65720000000000000000000000000000000000000000000000604482015260640161067c565b600160a060020a0385166000908152600960205260409020546005544310801590611af657506006544311155b8015611b2057506001805474010000000000000000000000000000000000000000900460ff161515145b611b6f5760405160e560020a62461bcd02815260206004820152601760248201527f5374616b696e67206973206e6f74207374617274656421000000000000000000604482015260640161067c565b80611be45760405160e560020a62461bcd028152602060048201526024808201527f5468657265206973206e6f20436f6e7472616374204164647265737320696e2060448201527f506f6f6c00000000000000000000000000000000000000000000000000000000606482015260840161067c565b6000818152600760209081526040808320600390810154338552600a845282852086865290935292209091015410611c615760405160e560020a62461bcd02815260206004820152601d60248201527f4f766572666c6f77206f66204d6178205374616b696e6720436f756e74000000604482015260640161067c565b6000818152600760205260409020600501541580611c9d57506000818152600b6020908152604080832088845290915290205460ff1615156001145b611cec5760405160e560020a62461bcd02815260206004820152601e60248201527f5468697320746f6b656e206973206e6f742077686974656c6973746564210000604482015260640161067c565b336000908152600a6020908152604080832084845290915290205460ff16611d4a576000818152600c6020908152604082208054600181018255908352912001805473ffffffffffffffffffffffffffffffffffffffff1916331790555b611d54813361255e565b611d62600e80546001019055565b6000611d6d600e5490565b6040805160c081018252828152600160a060020a038a8116602080840182815233858701818152606087018f8152608088018c8152600060a08a018181528c825260089097528a902098518955935160018901805473ffffffffffffffffffffffffffffffffffffffff19908116928a1692909217905591516002890180549093169716969096179055935160038601555160048086019190915590516005909401805460ff19169415159490941790935592517f23b872dd00000000000000000000000000000000000000000000000000000000815293945091926323b872dd92611e5f92909130918c9101612998565b600060405180830381600087803b158015611e7957600080fd5b505af1158015611e8d573d6000803e3d6000fd5b50505060008381526007602052604081206004018054925090611eaf83612bb9565b9091555050336000908152600a602090815260408083208584529091528120600301805491611edd83612bb9565b90915550506000828152600760209081526040808320600290810154338552600a845282852087865290935290832001805491929091611f1e908490612b31565b9091555050336000818152600a60209081526040808320868452825291829020805460ff191660011790558151848152908101899052600160a060020a038a16917f4249649a2f5c977056f4db60e40a673eabf996b3ec3dc5b5b5713971888e6020910160405180910390a3505060016000555050505050565b6000828152600760205260408120600281015460049091015482918291611fbf9190612b6c565b600160a060020a0385166000908152600a60209081526040808320898452909152902060065491925090431115611ffa576006549250611ffe565b4392505b6000821561206c576002820154600354600089815260076020526040902060010154600485015486939291906120349089612b8b565b6002546120419190612b6c565b61204b9190612b6c565b6120559190612b49565b61205f9190612b6c565b6120699190612b49565b90505b600182015461207b9082612b31565b979650505050505050565b60606000612093600e5490565b905060008060015b83811161210557600081815260086020526040902060020154600160a060020a0387811691161480156120e0575060008181526008602052604090206005015460ff16155b156120f3576120f0600184612b31565b92505b806120fd81612bb9565b91505061209b565b5060008267ffffffffffffffff8111156121325760e060020a634e487b7102600052604160045260246000fd5b60405190808252806020026020018201604052801561219257816020015b6040805160c08101825260008082526020808301829052928201819052606082018190526080820181905260a082015282526000199092019101816121505790505b50905060015b84811161229a57600081815260086020526040902060020154600160a060020a0388811691161480156121dd575060008181526008602052604090206005015460ff16155b1561228857600081815260086020908152604091829020825160c081018452815481526001820154600160a060020a03908116938201939093526002820154909216928201929092526003820154606082015260048201546080820152600582015460ff16151560a0820152835184908690811061226e5760e060020a634e487b7102600052603260045260246000fd5b6020908102919091010152612284600185612b31565b9350505b8061229281612bb9565b915050612198565b5095945050505050565b6122ae813361255e565b336000908152600a602090815260408083208484529091529020600101546122db8164e8d4a51000612b6c565b600f546040517f70a08231000000000000000000000000000000000000000000000000000000008152306004820152600160a060020a03909116906370a082319060240160206040518083038186803b15801561233757600080fd5b505afa15801561234b573d6000803e3d6000fd5b505050506040513d601f19601f8201168201806040525081019061236f9190612845565b10156123e65760405160e560020a62461bcd02815260206004820152602360248201527f696e73756666696369656e74204d696c6b20616d6f756e7420746f204861727660448201527f6573740000000000000000000000000000000000000000000000000000000000606482015260840161067c565b600f54600160a060020a031663a9059cbb336124078464e8d4a51000612b6c565b60405160e060020a63ffffffff8516028152600160a060020a0390921660048301526024820152604401602060405180830381600087803b15801561244b57600080fd5b505af115801561245f573d6000803e3d6000fd5b505050506040513d601f19601f820116820180604052508101906124839190612811565b5050336000908152600a6020908152604080832093835292905290812060010155565b600154600160a060020a031633146124d35760405160e560020a62461bcd02815260040161067c90612afc565b600160a060020a0381166125525760405160e560020a62461bcd02815260206004820152602660248201527f4f776e61626c653a206e6577206f776e657220697320746865207a65726f206160448201527f6464726573730000000000000000000000000000000000000000000000000000606482015260840161067c565b61255b8161265e565b50565b60006006544311156125735750600654612576565b50435b600083815260076020526040812060028101546004909101546125999190612b6c565b600160a060020a0384166000908152600a60209081526040808320888452909152902090915081158015906125d15750600481015415155b15612652576002810154600354600087815260076020526040902060010154600484015485939291906126049088612b8b565b6002546126119190612b6c565b61261b9190612b6c565b6126259190612b49565b61262f9190612b6c565b6126399190612b49565b81600101600082825461264c9190612b31565b90915550505b60040191909155505050565b60018054600160a060020a0383811673ffffffffffffffffffffffffffffffffffffffff19831681179093556040519116919082907f8be0079c531659141344cd1fd0a4f28419497f9722a3daafe3b4186f6b6457e090600090a35050565b8280548282559060005260206000209081019282156126f8579160200282015b828111156126f85782518255916020019190600101906126dd565b50612704929150612743565b5090565b8280548282559060005260206000209081019282156126f8579160200282015b828111156126f8578235825591602001919060010190612728565b5b808211156127045760008155600101612744565b600060208284031215612769578081fd5b813561176281612bed565b600060208284031215612785578081fd5b815161176281612bed565b600080604083850312156127a2578081fd5b82356127ad81612bed565b946020939093013593505050565b600080600080608085870312156127d0578182fd5b84356127db81612bed565b966020860135965060408601359560600135945092505050565b600060208284031215612806578081fd5b813561176281612c02565b600060208284031215612822578081fd5b815161176281612c02565b60006020828403121561283e578081fd5b5035919050565b600060208284031215612856578081fd5b5051919050565b6000806040838503121561286f578182fd5b82359150602083013561288181612bed565b809150509250929050565b600080600080600060a086880312156128a3578081fd5b8535945060208601356128b581612bed565b94979496505050506040830135926060810135926080909101359150565b6000806000604084860312156128e7578283fd5b83359250602084013567ffffffffffffffff80821115612905578384fd5b818601915086601f830112612918578384fd5b813581811115612926578485fd5b8760208083028501011115612939578485fd5b6020830194508093505050509250925092565b6000806040838503121561295e578182fd5b50508035926020909101359150565b600080600060608486031215612981578283fd5b505081359360208301359350604090920135919050565b600160a060020a039384168152919092166020820152604081019190915260600190565b602080825282518282018190526000919060409081850190868401855b82811015612a355781518051855286810151600160a060020a0390811688870152868201511686860152606080820151908601526080808201519086015260a09081015115159085015260c090930192908501906001016129d9565b5091979650505050505050565b60208082526034908201527f456e6420426c6f636b204e756d626572206d757374206269676765722074686160408201527f6e20537461727420426c6f636b204e756d626572000000000000000000000000606082015260800190565b60208082526023908201527f696e73756666696369656e74204d696c6b20616d6f756e7420746f204465706f60408201527f7369740000000000000000000000000000000000000000000000000000000000606082015260800190565b6020808252818101527f4f776e61626c653a2063616c6c6572206973206e6f7420746865206f776e6572604082015260600190565b60008219821115612b4457612b44612bd4565b500190565b600082612b675760e060020a634e487b710281526012600452602481fd5b500490565b6000816000190483118215151615612b8657612b86612bd4565b500290565b600082821015612b9d57612b9d612bd4565b500390565b600081612bb157612bb1612bd4565b506000190190565b6000600019821415612bcd57612bcd612bd4565b5060010190565b60e060020a634e487b7102600052601160045260246000fd5b600160a060020a038116811461255b57600080fd5b801515811461255b57600080fdfea26469706673582212205e914725841b024a50ef234157dc5ad4a6c146748c43d402ed7a28cb3b5dc7ca64736f6c63430008040033",
  "immutableReferences": {},
  "source": "// SPDX-License-Identifier: MIT\r\npragma solidity ^0.8.4;\r\nimport \"@openzeppelin/contracts/utils/Counters.sol\";\r\nimport \"@openzeppelin/contracts/token/ERC721/ERC721.sol\";\r\nimport \"@openzeppelin/contracts/security/ReentrancyGuard.sol\";\r\nimport \"@openzeppelin/contracts/access/Ownable.sol\";\r\nimport \"./interfaces/IMilkToken.sol\";\r\n\r\ncontract Staking is ReentrancyGuard, Ownable {\r\n    using Counters for Counters.Counter;\r\n\r\n    bool public isStakingAvailable;\r\n    uint256 public milkPerBlock;\r\n    uint256 public totalAllocPoint;\r\n    uint256 public totalAmountDepositedPool;\r\n    uint256 public startBlock;\r\n    uint256 public endBlock;\r\n    \r\n    struct StakingItem {\r\n        uint256 itemId;\r\n        address contractAddress;\r\n        address owner;\r\n        uint256 tokenId;\r\n        uint256 poolId;\r\n        bool isEnded;\r\n    }\r\n\r\n    struct PoolInfo {\r\n        address contractAddress;\r\n        uint256 allocPoint;\r\n        uint256 milkPower;\r\n        uint256 maxStakeCount;\r\n        uint256 stakedCount;\r\n        uint256[] tokenIds;\r\n    }\r\n\r\n    struct UserInfo {\r\n        bool isStaked;\r\n        uint256 pendingMilk;\r\n        uint256 userMilkPower;\r\n        uint256 stakedCount;\r\n        uint256 lastHarvestBlock;\r\n    }\r\n\r\n    mapping(uint256 => PoolInfo) public pools;\r\n    mapping(uint256 => StakingItem) public items;\r\n    mapping(address => uint256) public poolIdOfContract;\r\n    mapping(address => mapping(uint256 => UserInfo)) public userInfo;\r\n    mapping(uint256 => mapping(uint256 => bool)) public whitelistedTokenIds;\r\n    mapping(uint256 => address[]) public stakedUsers;\r\n\r\n    Counters.Counter public stakingPoolCount;\r\n    Counters.Counter public stakingItemCount;\r\n    \r\n    IMilkToken tokenMilk;\r\n\r\n    event StakingItemCreated(\r\n        uint256 itemId,\r\n        address indexed nftContract,\r\n        address indexed owner,\r\n        uint256 tokenId\r\n    );\r\n\r\n    event Harvest(\r\n        uint256 itemId,\r\n        address indexed owner,\r\n        uint256 amount\r\n    );\r\n\r\n    constructor(IMilkToken _tokenMilk) {\r\n        tokenMilk = _tokenMilk;\r\n        totalAllocPoint = 0;\r\n        milkPerBlock = 0;\r\n        totalAmountDepositedPool = 0;\r\n        isStakingAvailable = false;\r\n    }\r\n\r\n    function depositMilkToPool(uint256 _totalAmountDepositedPool, uint256 _startBlock, uint256 _endBlock) public onlyOwner {\r\n        require(tokenMilk.balanceOf(owner()) >= _totalAmountDepositedPool * 10 ** 18, \"insufficient Milk amount to Deposit\");\r\n        require(_endBlock > block.number, \"End Block must bigger than now\");\r\n        require(_endBlock > _startBlock, \"End Block Number must bigger than Start Block Number\");\r\n        tokenMilk.transferFrom(owner(), address(this), _totalAmountDepositedPool * 10 ** 18);\r\n        \r\n        totalAmountDepositedPool = _totalAmountDepositedPool * 10 ** 6;\r\n        startBlock = _startBlock;\r\n        endBlock = _endBlock;\r\n        milkPerBlock = totalAmountDepositedPool / (_endBlock - _startBlock);\r\n        isStakingAvailable = true;\r\n    }\r\n\r\n    function addMilkReward(uint256 _amountReward) public onlyOwner {\r\n        require(tokenMilk.balanceOf(owner()) >=  _amountReward * 10 ** 18, \"insufficient Milk amount to Deposit\");\r\n        require(block.number >= startBlock && block.number <= endBlock, \"Now is not Staking Period\");\r\n\r\n        uint256 paidReward = 0;\r\n        for(uint256 i = 1; i <= stakingPoolCount.current(); i ++) {\r\n            for(uint256 j = 0; j < stakedUsers[i].length; j ++) {\r\n                _updateUserInfo(i, stakedUsers[i][j]);\r\n                paidReward += userInfo[stakedUsers[i][j]][i].pendingMilk;\r\n            }\r\n        }\r\n\r\n        tokenMilk.transferFrom(owner(), address(this), _amountReward * 10 ** 18);\r\n\r\n        uint256 remainReward = totalAmountDepositedPool - paidReward;\r\n        remainReward += _amountReward * 10 ** 6;\r\n        milkPerBlock = remainReward / (endBlock - block.number);\r\n        totalAmountDepositedPool += _amountReward * 10 ** 6;\r\n    }\r\n\r\n    function setPeriod(uint256 _startBlock, uint256 _endBlock) public onlyOwner {\r\n        require(_endBlock > block.number, \"End Block must bigger than now\");\r\n        require(_endBlock > _startBlock, \"End Block Number must bigger than Start Block Number\");\r\n        require(_startBlock < block.number, \"Start Block is not avaliable!\");\r\n        \r\n        uint256 paidReward = 0;\r\n        for(uint256 i = 1; i <= stakingPoolCount.current(); i ++) {\r\n            for(uint256 j = 0; j < stakedUsers[i].length; j ++) {\r\n                _updateUserInfo(i, stakedUsers[i][j]);\r\n                paidReward += userInfo[stakedUsers[i][j]][i].pendingMilk;\r\n            }\r\n        }\r\n\r\n        uint256 remainReward = totalAmountDepositedPool - paidReward;\r\n        \r\n        milkPerBlock = remainReward / (_endBlock - block.number);\r\n\r\n        startBlock = _startBlock;\r\n        endBlock = _endBlock;\r\n    }    \r\n\r\n    function setIsStakingAvailable(bool _isStakingAvailable) public onlyOwner{\r\n        isStakingAvailable = _isStakingAvailable;\r\n    }\r\n\r\n    function addPool(address _contractAddress, uint256 _allocPoint, uint256 _milkPower, uint256 _maxStakeCount) public onlyOwner {\r\n        require(startBlock != 0 && endBlock != 0, \"Reward Token not deposited yet!\");\r\n        stakingPoolCount.increment();\r\n        uint256 poolId = stakingPoolCount.current();\r\n        uint256[] memory tokenIds;\r\n        pools[poolId] = PoolInfo(\r\n            _contractAddress,\r\n            _allocPoint,\r\n            _milkPower,\r\n            _maxStakeCount,\r\n            0,\r\n            tokenIds\r\n        );\r\n\r\n        poolIdOfContract[_contractAddress] = poolId;\r\n\r\n        totalAllocPoint = totalAllocPoint + _allocPoint;\r\n    }\r\n\r\n    function setPoolIdOfContract(address _contractAddress, uint256 _poolId) public onlyOwner {\r\n        poolIdOfContract[_contractAddress] = _poolId;\r\n    }\r\n\r\n    function setStakedCount(uint256 _poolId, uint256 _stakedCount) public onlyOwner {\r\n        pools[_poolId].stakedCount = _stakedCount;\r\n    }\r\n\r\n    function updatePool(\r\n        uint256 _poolId, \r\n        address _contractAddress, \r\n        uint256 _allocPoint, \r\n        uint256 _milkPower, \r\n        uint256 _maxStakeCount\r\n    ) public onlyOwner {\r\n        require(_poolId <= stakingPoolCount.current(), \"invalid poolId\");\r\n\r\n        totalAllocPoint = totalAllocPoint - pools[_poolId].allocPoint;\r\n\r\n        pools[_poolId] = PoolInfo(\r\n            _contractAddress,\r\n            _allocPoint,\r\n            _milkPower,\r\n            _maxStakeCount,\r\n            pools[_poolId].stakedCount,\r\n            pools[_poolId].tokenIds\r\n        );\r\n\r\n        poolIdOfContract[_contractAddress] = _poolId;\r\n\r\n        totalAllocPoint = totalAllocPoint + _allocPoint;\r\n    }\r\n\r\n    function setTokenIds(uint256 _poolId, uint256[] calldata _tokenIds) public onlyOwner {\r\n        PoolInfo storage _pool = pools[_poolId];\r\n\r\n        for(uint256 i = 0; i < _pool.tokenIds.length; i ++) {\r\n            whitelistedTokenIds[_poolId][_pool.tokenIds[i]] = false;\r\n        }\r\n\r\n        for(uint256 i = 0; i < _tokenIds.length; i ++) {\r\n            whitelistedTokenIds[_poolId][_tokenIds[i]] = true;\r\n        }\r\n\r\n        _pool.tokenIds = _tokenIds;\r\n    }\r\n\r\n    modifier isValid(address _msgSender, address _contractAddress, uint256 _tokenId) {\r\n        require(IERC721(_contractAddress).ownerOf(_tokenId) == _msgSender, \"not owner\");\r\n        _;\r\n    }\r\n\r\n    function _updateUserInfo(uint256 _poolId, address _owner) internal {\r\n\r\n        /**Update the Pending Milk for All Items */\r\n        uint256 tmpEndBlock = 0;\r\n        if(block.number > endBlock)\r\n            tmpEndBlock = endBlock;\r\n        else \r\n            tmpEndBlock = block.number;\r\n        uint256 totalMilkPower =  pools[_poolId].stakedCount * pools[_poolId].milkPower;\r\n\r\n        UserInfo storage _userInfo = userInfo[_owner][_poolId];\r\n        if(totalMilkPower != 0 && _userInfo.lastHarvestBlock != 0)\r\n            _userInfo.pendingMilk += milkPerBlock * (tmpEndBlock - _userInfo.lastHarvestBlock) * pools[_poolId].allocPoint / totalAllocPoint * _userInfo.userMilkPower / totalMilkPower;\r\n        _userInfo.lastHarvestBlock = tmpEndBlock;\r\n        /**End Update */\r\n    }\r\n\r\n    function stake(\r\n        address _nftContract,\r\n        uint256 _tokenId\r\n    ) public nonReentrant isValid(msg.sender, _nftContract, _tokenId) {\r\n\r\n        uint256 poolId = poolIdOfContract[_nftContract];\r\n\r\n        require(block.number >= startBlock && block.number <= endBlock && isStakingAvailable == true, \"Staking is not started!\");\r\n        require(poolId != 0, \"There is no Contract Address in Pool\");\r\n        require(userInfo[msg.sender][poolId].stakedCount < pools[poolId].maxStakeCount, \"Overflow of Max Staking Count\");\r\n        require(pools[poolId].tokenIds.length == 0 || whitelistedTokenIds[poolId][_tokenId] == true, \"This token is not whitelisted!\");\r\n\r\n        if(userInfo[msg.sender][poolId].isStaked == false) {\r\n            stakedUsers[poolId].push(msg.sender);\r\n        }\r\n        \r\n        _updateUserInfo(poolId, msg.sender);\r\n\r\n        stakingItemCount.increment();\r\n        uint256 itemId = stakingItemCount.current();\r\n\r\n        items[itemId] = StakingItem(\r\n            itemId,\r\n            _nftContract,\r\n            msg.sender,\r\n            _tokenId,\r\n            poolId,\r\n            false\r\n        );\r\n\r\n        IERC721(_nftContract).transferFrom(msg.sender, address(this), _tokenId);\r\n\r\n        pools[poolId].stakedCount ++;\r\n        userInfo[msg.sender][poolId].stakedCount ++;\r\n        userInfo[msg.sender][poolId].userMilkPower += pools[poolId].milkPower;\r\n        userInfo[msg.sender][poolId].isStaked = true;\r\n        emit StakingItemCreated(\r\n            itemId,\r\n            _nftContract,\r\n            msg.sender,\r\n            _tokenId\r\n        );\r\n    }\r\n\r\n    function harvest(uint256 _poolId) public {\r\n\r\n        _updateUserInfo(_poolId, msg.sender);\r\n        uint256 userPendingMilk = userInfo[msg.sender][_poolId].pendingMilk;\r\n\r\n        require(tokenMilk.balanceOf(address(this)) >= userPendingMilk * 10 ** 12, \"insufficient Milk amount to Harvest\");\r\n        \r\n        tokenMilk.transfer(msg.sender, userPendingMilk * 10 ** 12);\r\n\r\n        userInfo[msg.sender][_poolId].pendingMilk = 0;\r\n    }\r\n\r\n    function getPendingMilk(uint256 _poolId, address _owner) public view returns(uint256){\r\n        uint256 tmpEndBlock = 0;\r\n        uint256 totalMilkPower =  pools[_poolId].stakedCount * pools[_poolId].milkPower;\r\n        UserInfo storage _userInfo = userInfo[_owner][_poolId];\r\n\r\n        if(block.number > endBlock)\r\n            tmpEndBlock = endBlock;\r\n        else \r\n            tmpEndBlock = block.number;\r\n        \r\n        uint256 amount = 0;\r\n        if(totalMilkPower != 0)\r\n            amount = milkPerBlock * (tmpEndBlock - _userInfo.lastHarvestBlock) * pools[_poolId].allocPoint / totalAllocPoint * _userInfo.userMilkPower / totalMilkPower;\r\n        amount += _userInfo.pendingMilk;\r\n        return amount;\r\n    }\r\n\r\n    function getStakedItems(address _owner) public view returns(StakingItem[] memory){\r\n        uint256 totalItemCount = stakingItemCount.current();\r\n        uint256 itemCount = 0;\r\n        uint256 currentIndex = 0;\r\n\r\n        for(uint256 i = 1; i <= totalItemCount; i ++) {\r\n            if(_owner == items[i].owner && items[i].isEnded == false) {\r\n                itemCount += 1;\r\n            }\r\n        }\r\n\r\n        StakingItem[] memory stakedItems = new StakingItem[](itemCount);\r\n    \r\n        for (uint256 i = 1; i <= totalItemCount; i ++) {\r\n            if(_owner == items[i].owner && items[i].isEnded == false) {\r\n                StakingItem storage currentItem = items[i];\r\n                stakedItems[currentIndex] = currentItem;\r\n                currentIndex += 1;\r\n            }\r\n        }\r\n\r\n        return stakedItems;\r\n\r\n    }\r\n   \r\n    function getBlockNumber() public view returns(uint256) {\r\n        return block.number;\r\n    }\r\n\r\n    function getTotalMilkPower(uint256 _poolId) public view returns(uint256) {\r\n        uint256 totalMilkPower =  pools[_poolId].stakedCount * pools[_poolId].milkPower;\r\n        return totalMilkPower;\r\n    }\r\n\r\n    function getMyMilkPower(uint256 _poolId, address _owner) public view returns(uint256) {\r\n        return userInfo[_owner][_poolId].userMilkPower;\r\n    }\r\n\r\n    function getDailyMilkRate(uint256 _poolId) public view returns(uint256) {\r\n        uint256 totalMilkPower = getTotalMilkPower(_poolId);\r\n        uint256 dailyRate = 0;\r\n        if(totalMilkPower != 0)\r\n            dailyRate = milkPerBlock * 20 * 60 * 24 * 100 / totalMilkPower * pools[_poolId].allocPoint / totalAllocPoint;\r\n        return dailyRate;\r\n    }\r\n\r\n    function unstake(\r\n        uint256 _itemId\r\n    ) public {\r\n        StakingItem storage item = items[_itemId];\r\n\r\n        require(item.owner == msg.sender, \"you are not owner\");\r\n        require(item.isEnded == false, \"This Staking Item was unstaked already!\");\r\n\r\n        _updateUserInfo(item.poolId, msg.sender);\r\n        harvest(item.poolId);\r\n\r\n        IERC721(item.contractAddress).transferFrom(address(this), msg.sender, item.tokenId);\r\n        item.isEnded = true;\r\n        pools[item.poolId].stakedCount --;\r\n        userInfo[msg.sender][item.poolId].userMilkPower -= pools[item.poolId].milkPower;\r\n        userInfo[msg.sender][item.poolId].stakedCount --;\r\n    }\r\n\r\n    function withdraw() public onlyOwner {\r\n        require(block.number > endBlock, \"Staking is not finished\");\r\n        uint256 remainBalance = tokenMilk.balanceOf(address(this));\r\n        tokenMilk.transfer(owner(), remainBalance);\r\n        isStakingAvailable = false;\r\n    }\r\n}\r\n",
  "sourcePath": "E:\\Git for Project\\Ethereum\\NFT\\CashCow\\nft-contracts\\contracts\\Staking.sol",
  "compiler": {
    "name": "solc",
    "version": "0.8.4+commit.c7e474f2.Emscripten.clang"
  },
  "schemaVersion": "3.4.2",
  "updatedAt": "2022-02-18T21:47:16.830Z",
  "networkType": "ethereum",
  "devdoc": {
    "kind": "dev",
    "methods": {
      "owner()": {
        "details": "Returns the address of the current owner."
      },
      "renounceOwnership()": {
        "details": "Leaves the contract without owner. It will not be possible to call `onlyOwner` functions anymore. Can only be called by the current owner. NOTE: Renouncing ownership will leave the contract without an owner, thereby removing any functionality that is only available to the owner."
      },
      "transferOwnership(address)": {
        "details": "Transfers ownership of the contract to a new account (`newOwner`). Can only be called by the current owner."
      }
    },
    "version": 1
  },
  "userdoc": {
    "kind": "user",
    "methods": {},
    "version": 1
  }
}