{
  "contractName": "Staking",
  "abi": [
    {
      "inputs": [
        {
          "internalType": "contract IMilkToken",
          "name": "_tokenMilk",
          "type": "address"
        }
      ],
      "stateMutability": "nonpayable",
      "type": "constructor"
    },
    {
      "anonymous": false,
      "inputs": [
        {
          "indexed": false,
          "internalType": "uint256",
          "name": "itemId",
          "type": "uint256"
        },
        {
          "indexed": true,
          "internalType": "address",
          "name": "owner",
          "type": "address"
        },
        {
          "indexed": false,
          "internalType": "uint256",
          "name": "amount",
          "type": "uint256"
        }
      ],
      "name": "Harvest",
      "type": "event"
    },
    {
      "anonymous": false,
      "inputs": [
        {
          "indexed": true,
          "internalType": "address",
          "name": "previousOwner",
          "type": "address"
        },
        {
          "indexed": true,
          "internalType": "address",
          "name": "newOwner",
          "type": "address"
        }
      ],
      "name": "OwnershipTransferred",
      "type": "event"
    },
    {
      "anonymous": false,
      "inputs": [
        {
          "indexed": false,
          "internalType": "uint256",
          "name": "itemId",
          "type": "uint256"
        },
        {
          "indexed": true,
          "internalType": "address",
          "name": "nftContract",
          "type": "address"
        },
        {
          "indexed": true,
          "internalType": "address",
          "name": "owner",
          "type": "address"
        },
        {
          "indexed": false,
          "internalType": "uint256",
          "name": "tokenId",
          "type": "uint256"
        }
      ],
      "name": "StakingItemCreated",
      "type": "event"
    },
    {
      "inputs": [],
      "name": "endBlock",
      "outputs": [
        {
          "internalType": "uint256",
          "name": "",
          "type": "uint256"
        }
      ],
      "stateMutability": "view",
      "type": "function",
      "constant": true
    },
    {
      "inputs": [],
      "name": "isStakingAvailable",
      "outputs": [
        {
          "internalType": "bool",
          "name": "",
          "type": "bool"
        }
      ],
      "stateMutability": "view",
      "type": "function",
      "constant": true
    },
    {
      "inputs": [
        {
          "internalType": "uint256",
          "name": "",
          "type": "uint256"
        }
      ],
      "name": "items",
      "outputs": [
        {
          "internalType": "uint256",
          "name": "itemId",
          "type": "uint256"
        },
        {
          "internalType": "address",
          "name": "contractAddress",
          "type": "address"
        },
        {
          "internalType": "address",
          "name": "owner",
          "type": "address"
        },
        {
          "internalType": "uint256",
          "name": "tokenId",
          "type": "uint256"
        },
        {
          "internalType": "uint256",
          "name": "lastHarvestBlock",
          "type": "uint256"
        },
        {
          "internalType": "bool",
          "name": "isEnded",
          "type": "bool"
        }
      ],
      "stateMutability": "view",
      "type": "function",
      "constant": true
    },
    {
      "inputs": [],
      "name": "milkPerBlock",
      "outputs": [
        {
          "internalType": "uint256",
          "name": "",
          "type": "uint256"
        }
      ],
      "stateMutability": "view",
      "type": "function",
      "constant": true
    },
    {
      "inputs": [],
      "name": "owner",
      "outputs": [
        {
          "internalType": "address",
          "name": "",
          "type": "address"
        }
      ],
      "stateMutability": "view",
      "type": "function",
      "constant": true
    },
    {
      "inputs": [
        {
          "internalType": "uint256",
          "name": "",
          "type": "uint256"
        }
      ],
      "name": "pools",
      "outputs": [
        {
          "internalType": "address",
          "name": "contractAddress",
          "type": "address"
        },
        {
          "internalType": "uint256",
          "name": "allocPoint",
          "type": "uint256"
        },
        {
          "internalType": "uint256",
          "name": "milkPower",
          "type": "uint256"
        },
        {
          "internalType": "uint256",
          "name": "maxStakedCount",
          "type": "uint256"
        }
      ],
      "stateMutability": "view",
      "type": "function",
      "constant": true
    },
    {
      "inputs": [],
      "name": "renounceOwnership",
      "outputs": [],
      "stateMutability": "nonpayable",
      "type": "function"
    },
    {
      "inputs": [],
      "name": "stakingItemCount",
      "outputs": [
        {
          "internalType": "uint256",
          "name": "_value",
          "type": "uint256"
        }
      ],
      "stateMutability": "view",
      "type": "function",
      "constant": true
    },
    {
      "inputs": [],
      "name": "stakingPoolCount",
      "outputs": [
        {
          "internalType": "uint256",
          "name": "_value",
          "type": "uint256"
        }
      ],
      "stateMutability": "view",
      "type": "function",
      "constant": true
    },
    {
      "inputs": [],
      "name": "startBlock",
      "outputs": [
        {
          "internalType": "uint256",
          "name": "",
          "type": "uint256"
        }
      ],
      "stateMutability": "view",
      "type": "function",
      "constant": true
    },
    {
      "inputs": [],
      "name": "totalAllocPoint",
      "outputs": [
        {
          "internalType": "uint256",
          "name": "",
          "type": "uint256"
        }
      ],
      "stateMutability": "view",
      "type": "function",
      "constant": true
    },
    {
      "inputs": [],
      "name": "totalAmountDepositedPool",
      "outputs": [
        {
          "internalType": "uint256",
          "name": "",
          "type": "uint256"
        }
      ],
      "stateMutability": "view",
      "type": "function",
      "constant": true
    },
    {
      "inputs": [
        {
          "internalType": "address",
          "name": "newOwner",
          "type": "address"
        }
      ],
      "name": "transferOwnership",
      "outputs": [],
      "stateMutability": "nonpayable",
      "type": "function"
    },
    {
      "inputs": [
        {
          "internalType": "uint256",
          "name": "_totalAmountDepositedPool",
          "type": "uint256"
        },
        {
          "internalType": "uint256",
          "name": "_startBlock",
          "type": "uint256"
        },
        {
          "internalType": "uint256",
          "name": "_endBlock",
          "type": "uint256"
        }
      ],
      "name": "depositMilkToPool",
      "outputs": [],
      "stateMutability": "nonpayable",
      "type": "function"
    },
    {
      "inputs": [
        {
          "internalType": "uint256",
          "name": "_startBlock",
          "type": "uint256"
        },
        {
          "internalType": "uint256",
          "name": "_endBlock",
          "type": "uint256"
        }
      ],
      "name": "setPeriod",
      "outputs": [],
      "stateMutability": "nonpayable",
      "type": "function"
    },
    {
      "inputs": [
        {
          "internalType": "bool",
          "name": "_isStakingAvailable",
          "type": "bool"
        }
      ],
      "name": "setIsStakingAvailable",
      "outputs": [],
      "stateMutability": "nonpayable",
      "type": "function"
    },
    {
      "inputs": [
        {
          "internalType": "address",
          "name": "_contractAddress",
          "type": "address"
        },
        {
          "internalType": "uint256",
          "name": "_allocPoint",
          "type": "uint256"
        },
        {
          "internalType": "uint256[]",
          "name": "_tokenIds",
          "type": "uint256[]"
        },
        {
          "internalType": "uint256",
          "name": "_milkPower",
          "type": "uint256"
        },
        {
          "internalType": "uint256",
          "name": "_maxStakedCount",
          "type": "uint256"
        }
      ],
      "name": "addPool",
      "outputs": [],
      "stateMutability": "nonpayable",
      "type": "function"
    },
    {
      "inputs": [
        {
          "internalType": "uint256",
          "name": "_poolId",
          "type": "uint256"
        },
        {
          "internalType": "address",
          "name": "_contractAddress",
          "type": "address"
        },
        {
          "internalType": "uint256",
          "name": "_allocPoint",
          "type": "uint256"
        },
        {
          "internalType": "uint256[]",
          "name": "_tokenIds",
          "type": "uint256[]"
        },
        {
          "internalType": "uint256",
          "name": "_milkPower",
          "type": "uint256"
        },
        {
          "internalType": "uint256",
          "name": "_maxStakedCount",
          "type": "uint256"
        }
      ],
      "name": "updatePool",
      "outputs": [],
      "stateMutability": "nonpayable",
      "type": "function"
    },
    {
      "inputs": [
        {
          "internalType": "address",
          "name": "_nftContract",
          "type": "address"
        },
        {
          "internalType": "uint256",
          "name": "_tokenId",
          "type": "uint256"
        }
      ],
      "name": "stake",
      "outputs": [],
      "stateMutability": "nonpayable",
      "type": "function"
    },
    {
      "inputs": [
        {
          "internalType": "uint256",
          "name": "_poolId",
          "type": "uint256"
        }
      ],
      "name": "harvest",
      "outputs": [],
      "stateMutability": "nonpayable",
      "type": "function"
    },
    {
      "inputs": [
        {
          "internalType": "address",
          "name": "_owner",
          "type": "address"
        }
      ],
      "name": "getStakedItems",
      "outputs": [
        {
          "components": [
            {
              "internalType": "uint256",
              "name": "itemId",
              "type": "uint256"
            },
            {
              "internalType": "address",
              "name": "contractAddress",
              "type": "address"
            },
            {
              "internalType": "address",
              "name": "owner",
              "type": "address"
            },
            {
              "internalType": "uint256",
              "name": "tokenId",
              "type": "uint256"
            },
            {
              "internalType": "uint256",
              "name": "lastHarvestBlock",
              "type": "uint256"
            },
            {
              "internalType": "bool",
              "name": "isEnded",
              "type": "bool"
            }
          ],
          "internalType": "struct Staking.StakingItem[]",
          "name": "",
          "type": "tuple[]"
        }
      ],
      "stateMutability": "view",
      "type": "function",
      "constant": true
    },
    {
      "inputs": [
        {
          "internalType": "address",
          "name": "_owner",
          "type": "address"
        },
        {
          "internalType": "uint256",
          "name": "_itemId",
          "type": "uint256"
        }
      ],
      "name": "getPendingMilk",
      "outputs": [
        {
          "internalType": "uint256",
          "name": "",
          "type": "uint256"
        }
      ],
      "stateMutability": "view",
      "type": "function",
      "constant": true
    },
    {
      "inputs": [
        {
          "internalType": "address",
          "name": "_owner",
          "type": "address"
        },
        {
          "internalType": "uint256",
          "name": "_poolId",
          "type": "uint256"
        }
      ],
      "name": "getPendingMilkForAll",
      "outputs": [
        {
          "internalType": "uint256",
          "name": "",
          "type": "uint256"
        }
      ],
      "stateMutability": "view",
      "type": "function",
      "constant": true
    },
    {
      "inputs": [],
      "name": "getBlockNumber",
      "outputs": [
        {
          "internalType": "uint256",
          "name": "",
          "type": "uint256"
        }
      ],
      "stateMutability": "view",
      "type": "function",
      "constant": true
    },
    {
      "inputs": [
        {
          "internalType": "uint256",
          "name": "_itemId",
          "type": "uint256"
        }
      ],
      "name": "getPoolId",
      "outputs": [
        {
          "internalType": "uint256",
          "name": "",
          "type": "uint256"
        }
      ],
      "stateMutability": "view",
      "type": "function",
      "constant": true
    },
    {
      "inputs": [
        {
          "internalType": "uint256",
          "name": "_poolId",
          "type": "uint256"
        }
      ],
      "name": "getTotalStakedCount",
      "outputs": [
        {
          "internalType": "uint256",
          "name": "",
          "type": "uint256"
        }
      ],
      "stateMutability": "view",
      "type": "function",
      "constant": true
    },
    {
      "inputs": [
        {
          "internalType": "uint256",
          "name": "_poolId",
          "type": "uint256"
        }
      ],
      "name": "getTotalMilkPower",
      "outputs": [
        {
          "internalType": "uint256",
          "name": "",
          "type": "uint256"
        }
      ],
      "stateMutability": "view",
      "type": "function",
      "constant": true
    },
    {
      "inputs": [
        {
          "internalType": "uint256",
          "name": "_poolId",
          "type": "uint256"
        },
        {
          "internalType": "address",
          "name": "_owner",
          "type": "address"
        }
      ],
      "name": "getMyMilkPower",
      "outputs": [
        {
          "internalType": "uint256",
          "name": "",
          "type": "uint256"
        }
      ],
      "stateMutability": "view",
      "type": "function",
      "constant": true
    },
    {
      "inputs": [
        {
          "internalType": "uint256",
          "name": "_poolId",
          "type": "uint256"
        },
        {
          "internalType": "address",
          "name": "_owner",
          "type": "address"
        }
      ],
      "name": "getMyStakedCount",
      "outputs": [
        {
          "internalType": "uint256",
          "name": "",
          "type": "uint256"
        }
      ],
      "stateMutability": "view",
      "type": "function",
      "constant": true
    },
    {
      "inputs": [
        {
          "internalType": "uint256",
          "name": "_poolId",
          "type": "uint256"
        }
      ],
      "name": "getDailyMilkRate",
      "outputs": [
        {
          "internalType": "uint256",
          "name": "",
          "type": "uint256"
        }
      ],
      "stateMutability": "view",
      "type": "function",
      "constant": true
    },
    {
      "inputs": [
        {
          "internalType": "uint256",
          "name": "_itemId",
          "type": "uint256"
        }
      ],
      "name": "getLastHarvestBlock",
      "outputs": [
        {
          "internalType": "uint256",
          "name": "",
          "type": "uint256"
        }
      ],
      "stateMutability": "view",
      "type": "function",
      "constant": true
    },
    {
      "inputs": [
        {
          "internalType": "uint256",
          "name": "_itemId",
          "type": "uint256"
        }
      ],
      "name": "unstake",
      "outputs": [],
      "stateMutability": "nonpayable",
      "type": "function"
    },
    {
      "inputs": [],
      "name": "withDraw",
      "outputs": [],
      "stateMutability": "nonpayable",
      "type": "function"
    }
  ],
  "bytecode": "0x60806040523480156200001157600080fd5b50604051620045cb380380620045cb8339818101604052810190620000379190620001d1565b6001600081905550620000716200005c620000ec640100000000026401000000009004565b620000f4640100000000026401000000009004565b80600460006101000a81548173ffffffffffffffffffffffffffffffffffffffff021916908373ffffffffffffffffffffffffffffffffffffffff1602179055506000600681905550600060058190555060006007819055506000600a60006101000a81548160ff021916908315150217905550506200025f565b600033905090565b6000600160009054906101000a900473ffffffffffffffffffffffffffffffffffffffff16905081600160006101000a81548173ffffffffffffffffffffffffffffffffffffffff021916908373ffffffffffffffffffffffffffffffffffffffff1602179055508173ffffffffffffffffffffffffffffffffffffffff168173ffffffffffffffffffffffffffffffffffffffff167f8be0079c531659141344cd1fd0a4f28419497f9722a3daafe3b4186f6b6457e060405160405180910390a35050565b600081519050620001cb8162000245565b92915050565b600060208284031215620001e457600080fd5b6000620001f484828501620001ba565b91505092915050565b60006200020a8262000225565b9050919050565b60006200021e82620001fd565b9050919050565b600073ffffffffffffffffffffffffffffffffffffffff82169050919050565b620002508162000211565b81146200025c57600080fd5b50565b61435c806200026f6000396000f3fe608060405234801561001057600080fd5b5060043610610218576000357c0100000000000000000000000000000000000000000000000000000000900480637506f53411610137578063b3eaa74b116100ca578063dc696d2b11610099578063dc696d2b146105ed578063ddc632621461061d578063e7ef0fdc14610639578063f2fde38b14610669578063fcd0ca1f1461068557610218565b8063b3eaa74b1461054e578063bb7a80541461056a578063bfb231d214610588578063d5dfc265146105bd57610218565b80638da5cb5b116101065780638da5cb5b146104b15780639c5a8540146104cf578063ac4afa38146104ff578063adc9772e1461053257610218565b80637506f53414610415578063811e1cf914610433578063872c7a50146104515780638830c4061461048157610218565b80632dd96be9116101af5780634b8e4ace1161017e5780634b8e4ace1461038f5780635119913c146103ab5780635187aef3146103db578063715018a61461040b57610218565b80632dd96be9146103195780632e17de781461033757806342cbb15c1461035357806348cd4cb11461037157610218565b806315a73197116101eb57806315a731971461027f57806317caf6f11461029b5780631f9a3c37146102b957806323171529146102e957610218565b806303c5b1dc1461021d578063083c6323146102395780630dea2d5c146102575780630fdb1c1014610275575b600080fd5b6102376004803603810190610232919061349f565b6106a1565b005b6102416107e0565b60405161024e9190613c28565b60405180910390f35b61025f6107e6565b60405161026c91906139cd565b60405180910390f35b61027d6107f9565b005b61029960048036038101906102949190613318565b610a75565b005b6102a3610b0e565b6040516102b09190613c28565b60405180910390f35b6102d360048036038101906102ce91906133bc565b610b14565b6040516102e09190613c28565b60405180910390f35b61030360048036038101906102fe919061336a565b610cbc565b6040516103109190613c28565b60405180910390f35b610321610dd9565b60405161032e9190613c28565b60405180910390f35b610351600480360381019061034c919061336a565b610de5565b005b61035b610fc4565b6040516103689190613c28565b60405180910390f35b610379610fcc565b6040516103869190613c28565b60405180910390f35b6103a960048036038101906103a491906134db565b610fd2565b005b6103c560048036038101906103c091906133bc565b61132a565b6040516103d29190613c28565b60405180910390f35b6103f560048036038101906103f0919061324a565b6114dc565b6040516104029190613c28565b60405180910390f35b61041361159c565b005b61041d611624565b60405161042a9190613c28565b60405180910390f35b61043b61162a565b6040516104489190613c28565b60405180910390f35b61046b6004803603810190610466919061336a565b611636565b6040516104789190613c28565b60405180910390f35b61049b6004803603810190610496919061324a565b611674565b6040516104a89190613c28565b60405180910390f35b6104b9611808565b6040516104c691906138eb565b60405180910390f35b6104e960048036038101906104e4919061336a565b611832565b6040516104f69190613c28565b60405180910390f35b6105196004803603810190610514919061336a565b6118c2565b6040516105299493929190613966565b60405180910390f35b61054c6004803603810190610547919061324a565b611912565b005b610568600480360381019061056391906133f8565b611e89565b005b6105726120ae565b60405161057f9190613c28565b60405180910390f35b6105a2600480360381019061059d919061336a565b6120b4565b6040516105b496959493929190613c43565b60405180910390f35b6105d760048036038101906105d291906131f8565b61213d565b6040516105e491906139ab565b60405180910390f35b6106076004803603810190610602919061336a565b6124c5565b6040516106149190613c28565b60405180910390f35b6106376004803603810190610632919061336a565b6124ea565b005b610653600480360381019061064e919061336a565b612663565b6040516106609190613c28565b60405180910390f35b610683600480360381019061067e91906131f8565b612746565b005b61069f600480360381019061069a9190613286565b61283e565b005b6106a9612a05565b73ffffffffffffffffffffffffffffffffffffffff166106c7611808565b73ffffffffffffffffffffffffffffffffffffffff161461071d576040517f08c379a000000000000000000000000000000000000000000000000000000000815260040161071490613b48565b60405180910390fd5b43811161075f576040517f08c379a000000000000000000000000000000000000000000000000000000000815260040161075690613be8565b60405180910390fd5b8181116107a1576040517f08c379a000000000000000000000000000000000000000000000000000000000815260040161079890613a08565b60405180910390fd5b81816107ad9190613df8565b600754620f42406107be9190613d9e565b6107c89190613d6d565b60058190555081600881905550806009819055505050565b60095481565b600a60009054906101000a900460ff1681565b610801612a05565b73ffffffffffffffffffffffffffffffffffffffff1661081f611808565b73ffffffffffffffffffffffffffffffffffffffff1614610875576040517f08c379a000000000000000000000000000000000000000000000000000000000815260040161086c90613b48565b60405180910390fd5b60095443116108b9576040517f08c379a00000000000000000000000000000000000000000000000000000000081526004016108b090613b28565b60405180910390fd5b6000600460009054906101000a900473ffffffffffffffffffffffffffffffffffffffff1673ffffffffffffffffffffffffffffffffffffffff166370a08231306040518263ffffffff167c010000000000000000000000000000000000000000000000000000000002815260040161093291906138eb565b60206040518083038186803b15801561094a57600080fd5b505afa15801561095e573d6000803e3d6000fd5b505050506040513d601f19601f820116820180604052508101906109829190613393565b9050600460009054906101000a900473ffffffffffffffffffffffffffffffffffffffff1673ffffffffffffffffffffffffffffffffffffffff1663a9059cbb6109ca611808565b836040518363ffffffff167c0100000000000000000000000000000000000000000000000000000000028152600401610a0492919061393d565b602060405180830381600087803b158015610a1e57600080fd5b505af1158015610a32573d6000803e3d6000fd5b505050506040513d601f19601f82011682018060405250810190610a569190613341565b506000600a60006101000a81548160ff02191690831515021790555050565b610a7d612a05565b73ffffffffffffffffffffffffffffffffffffffff16610a9b611808565b73ffffffffffffffffffffffffffffffffffffffff1614610af1576040517f08c379a0000000000000000000000000000000000000000000000000000000008152600401610ae890613b48565b60405180910390fd5b80600a60006101000a81548160ff02191690831515021790555050565b60065481565b600080600090506001610b276003612a0d565b1015610b37576000915050610cb6565b6000600190505b610b486003612a0d565b8111610cb05760001515600c600083815260200190815260200160002060050160009054906101000a900460ff161515148015610c1c5750600b600086815260200190815260200160002060000160009054906101000a900473ffffffffffffffffffffffffffffffffffffffff1673ffffffffffffffffffffffffffffffffffffffff16600c600083815260200190815260200160002060010160009054906101000a900473ffffffffffffffffffffffffffffffffffffffff1673ffffffffffffffffffffffffffffffffffffffff16145b8015610c8957508373ffffffffffffffffffffffffffffffffffffffff16600c600083815260200190815260200160002060020160009054906101000a900473ffffffffffffffffffffffffffffffffffffffff1673ffffffffffffffffffffffffffffffffffffffff16145b15610c9d578180610c9990613e74565b9250505b8080610ca890613e74565b915050610b3e565b50809150505b92915050565b600080600090506000600190505b610cd46003612a0d565b8111610dcf5760001515600c600083815260200190815260200160002060050160009054906101000a900460ff161515148015610da85750600b600085815260200190815260200160002060000160009054906101000a900473ffffffffffffffffffffffffffffffffffffffff1673ffffffffffffffffffffffffffffffffffffffff16600c600083815260200190815260200160002060010160009054906101000a900473ffffffffffffffffffffffffffffffffffffffff1673ffffffffffffffffffffffffffffffffffffffff16145b15610dbc578180610db890613e74565b9250505b8080610dc790613e74565b915050610cca565b5080915050919050565b60028060000154905081565b6000600c600083815260200190815260200160002090503373ffffffffffffffffffffffffffffffffffffffff168160020160009054906101000a900473ffffffffffffffffffffffffffffffffffffffff1673ffffffffffffffffffffffffffffffffffffffff1614610e8e576040517f08c379a0000000000000000000000000000000000000000000000000000000008152600401610e8590613b08565b60405180910390fd5b600015158160050160009054906101000a900460ff16151514610ee6576040517f08c379a0000000000000000000000000000000000000000000000000000000008152600401610edd90613b68565b60405180910390fd5b610ef08233612a1b565b8060010160009054906101000a900473ffffffffffffffffffffffffffffffffffffffff1673ffffffffffffffffffffffffffffffffffffffff166323b872dd303384600301546040518463ffffffff167c0100000000000000000000000000000000000000000000000000000000028152600401610f7193929190613906565b600060405180830381600087803b158015610f8b57600080fd5b505af1158015610f9f573d6000803e3d6000fd5b5050505060018160050160006101000a81548160ff0219169083151502179055505050565b600043905090565b60085481565b610fda612a05565b73ffffffffffffffffffffffffffffffffffffffff16610ff8611808565b73ffffffffffffffffffffffffffffffffffffffff161461104e576040517f08c379a000000000000000000000000000000000000000000000000000000000815260040161104590613b48565b60405180910390fd5b82600460009054906101000a900473ffffffffffffffffffffffffffffffffffffffff1673ffffffffffffffffffffffffffffffffffffffff166370a08231611095611808565b6040518263ffffffff167c01000000000000000000000000000000000000000000000000000000000281526004016110cd91906138eb565b60206040518083038186803b1580156110e557600080fd5b505afa1580156110f9573d6000803e3d6000fd5b505050506040513d601f19601f8201168201806040525081019061111d9190613393565b101561115e576040517f08c379a000000000000000000000000000000000000000000000000000000000815260040161115590613ae8565b60405180910390fd5b4381116111a0576040517f08c379a000000000000000000000000000000000000000000000000000000000815260040161119790613be8565b60405180910390fd5b8181116111e2576040517f08c379a00000000000000000000000000000000000000000000000000000000081526004016111d990613a08565b60405180910390fd5b600460009054906101000a900473ffffffffffffffffffffffffffffffffffffffff1673ffffffffffffffffffffffffffffffffffffffff166323b872dd611228611808565b30670de0b6b3a76400008761123d9190613d9e565b6040518463ffffffff167c010000000000000000000000000000000000000000000000000000000002815260040161127793929190613906565b602060405180830381600087803b15801561129157600080fd5b505af11580156112a5573d6000803e3d6000fd5b505050506040513d601f19601f820116820180604052508101906112c99190613341565b5082600781905550816008819055508060098190555081816112eb9190613df8565b83620f42406112fa9190613d9e565b6113049190613d6d565b6005819055506001600a60006101000a81548160ff021916908315150217905550505050565b600080600090506000600190505b6113426003612a0d565b81116114aa5760001515600c600083815260200190815260200160002060050160009054906101000a900460ff1615151480156114165750600b600086815260200190815260200160002060000160009054906101000a900473ffffffffffffffffffffffffffffffffffffffff1673ffffffffffffffffffffffffffffffffffffffff16600c600083815260200190815260200160002060010160009054906101000a900473ffffffffffffffffffffffffffffffffffffffff1673ffffffffffffffffffffffffffffffffffffffff16145b801561148357508373ffffffffffffffffffffffffffffffffffffffff16600c600083815260200190815260200160002060020160009054906101000a900473ffffffffffffffffffffffffffffffffffffffff1673ffffffffffffffffffffffffffffffffffffffff16145b1561149757818061149390613e74565b9250505b80806114a290613e74565b915050611338565b506000600b600086815260200190815260200160002060030154826114cf9190613d9e565b9050809250505092915050565b600080600c60008481526020019081526020016000209050600060095443111561150a57600954905061150e565b4390505b600061151985612663565b9050600061152682611636565b90506000611534838961132a565b9050600082826006546115468b612e91565b8960040154896115569190613df8565b6005546115639190613d9e565b61156d9190613d9e565b6115779190613d6d565b6115819190613d9e565b61158b9190613d6d565b905080965050505050505092915050565b6115a4612a05565b73ffffffffffffffffffffffffffffffffffffffff166115c2611808565b73ffffffffffffffffffffffffffffffffffffffff1614611618576040517f08c379a000000000000000000000000000000000000000000000000000000000815260040161160f90613b48565b60405180910390fd5b6116226000612f86565b565b60055481565b60038060000154905081565b60008061164283610cbc565b90506000600b600085815260200190815260200160002060030154826116689190613d9e565b90508092505050919050565b600080600090506000600190505b61168c6003612a0d565b81116117fd578473ffffffffffffffffffffffffffffffffffffffff16600c600083815260200190815260200160002060020160009054906101000a900473ffffffffffffffffffffffffffffffffffffffff1673ffffffffffffffffffffffffffffffffffffffff1614801561172a575060001515600c600083815260200190815260200160002060050160009054906101000a900460ff161515145b80156117cd5750600c600082815260200190815260200160002060010160009054906101000a900473ffffffffffffffffffffffffffffffffffffffff1673ffffffffffffffffffffffffffffffffffffffff16600b600086815260200190815260200160002060000160009054906101000a900473ffffffffffffffffffffffffffffffffffffffff1673ffffffffffffffffffffffffffffffffffffffff16145b156117ea576117dc85826114dc565b826117e79190613d17565b91505b80806117f590613e74565b915050611682565b508091505092915050565b6000600160009054906101000a900473ffffffffffffffffffffffffffffffffffffffff16905090565b60008061183e83611636565b905060008082146118b857600654600b6000868152602001908152602001600020600101548360646018603c60146005546118799190613d9e565b6118839190613d9e565b61188d9190613d9e565b6118979190613d9e565b6118a19190613d6d565b6118ab9190613d9e565b6118b59190613d6d565b90505b8092505050919050565b600b6020528060005260406000206000915090508060000160009054906101000a900473ffffffffffffffffffffffffffffffffffffffff16908060010154908060030154908060040154905084565b60026000541415611958576040517f08c379a000000000000000000000000000000000000000000000000000000000815260040161194f90613bc8565b60405180910390fd5b60026000819055503382828273ffffffffffffffffffffffffffffffffffffffff168273ffffffffffffffffffffffffffffffffffffffff16636352211e836040518263ffffffff167c01000000000000000000000000000000000000000000000000000000000281526004016119cf9190613c28565b60206040518083038186803b1580156119e757600080fd5b505afa1580156119fb573d6000803e3d6000fd5b505050506040513d601f19601f82011682018060405250810190611a1f9190613221565b73ffffffffffffffffffffffffffffffffffffffff1614611a75576040517f08c379a0000000000000000000000000000000000000000000000000000000008152600401611a6c90613c08565b60405180910390fd5b6008544310158015611a8957506009544311155b8015611aa8575060011515600a60009054906101000a900460ff161515145b611ae7576040517f08c379a0000000000000000000000000000000000000000000000000000000008152600401611ade90613ac8565b60405180910390fd5b600080600190505b611af96002612a0d565b8111611b8457600b600082815260200190815260200160002060000160009054906101000a900473ffffffffffffffffffffffffffffffffffffffff1673ffffffffffffffffffffffffffffffffffffffff168773ffffffffffffffffffffffffffffffffffffffff161415611b7157809150611b84565b8080611b7c90613e74565b915050611aef565b506000811415611bc9576040517f08c379a0000000000000000000000000000000000000000000000000000000008152600401611bc090613aa8565b60405180910390fd5b6000611bd58233610b14565b9050600b6000838152602001908152602001600020600401548110611c2f576040517f08c379a0000000000000000000000000000000000000000000000000000000008152600401611c2690613a28565b60405180910390fd5b611c39600361304c565b6000611c456003612a0d565b90506040518060c001604052808281526020018973ffffffffffffffffffffffffffffffffffffffff1681526020013373ffffffffffffffffffffffffffffffffffffffff16815260200188815260200143815260200160001515815250600c60008381526020019081526020016000206000820151816000015560208201518160010160006101000a81548173ffffffffffffffffffffffffffffffffffffffff021916908373ffffffffffffffffffffffffffffffffffffffff16021790555060408201518160020160006101000a81548173ffffffffffffffffffffffffffffffffffffffff021916908373ffffffffffffffffffffffffffffffffffffffff160217905550606082015181600301556080820151816004015560a08201518160050160006101000a81548160ff0219169083151502179055509050508773ffffffffffffffffffffffffffffffffffffffff166323b872dd33308a6040518463ffffffff167c0100000000000000000000000000000000000000000000000000000000028152600401611dde93929190613906565b600060405180830381600087803b158015611df857600080fd5b505af1158015611e0c573d6000803e3d6000fd5b505050503373ffffffffffffffffffffffffffffffffffffffff168873ffffffffffffffffffffffffffffffffffffffff167f4249649a2f5c977056f4db60e40a673eabf996b3ec3dc5b5b5713971888e6020838a604051611e6f929190613ca4565b60405180910390a350505050505060016000819055505050565b611e91612a05565b73ffffffffffffffffffffffffffffffffffffffff16611eaf611808565b73ffffffffffffffffffffffffffffffffffffffff1614611f05576040517f08c379a0000000000000000000000000000000000000000000000000000000008152600401611efc90613b48565b60405180910390fd5b611f0f6002612a0d565b871115611f51576040517f08c379a0000000000000000000000000000000000000000000000000000000008152600401611f4890613b88565b60405180910390fd5b600b600088815260200190815260200160002060010154600654611f759190613df8565b6006819055506040518060a001604052808773ffffffffffffffffffffffffffffffffffffffff168152602001868152602001858580806020026020016040519081016040528093929190818152602001838360200280828437600081840152601f19601f82011690508083019250505050505050815260200183815260200182815250600b600089815260200190815260200160002060008201518160000160006101000a81548173ffffffffffffffffffffffffffffffffffffffff021916908373ffffffffffffffffffffffffffffffffffffffff160217905550602082015181600101556040820151816002019080519060200190612079929190613062565b5060608201518160030155608082015181600401559050508460065461209f9190613d17565b60068190555050505050505050565b60075481565b600c6020528060005260406000206000915090508060000154908060010160009054906101000a900473ffffffffffffffffffffffffffffffffffffffff16908060020160009054906101000a900473ffffffffffffffffffffffffffffffffffffffff16908060030154908060040154908060050160009054906101000a900460ff16905086565b6060600061214b6003612a0d565b90506000806000600190505b83811161221e57600c600082815260200190815260200160002060020160009054906101000a900473ffffffffffffffffffffffffffffffffffffffff1673ffffffffffffffffffffffffffffffffffffffff168673ffffffffffffffffffffffffffffffffffffffff161480156121f6575060001515600c600083815260200190815260200160002060050160009054906101000a900460ff161515145b1561220b576001836122089190613d17565b92505b808061221690613e74565b915050612157565b5060008267ffffffffffffffff811115612261577f4e487b7100000000000000000000000000000000000000000000000000000000600052604160045260246000fd5b60405190808252806020026020018201604052801561229a57816020015b6122876130af565b81526020019060019003908161227f5790505b5090506000600190505b8481116124b857600c600082815260200190815260200160002060020160009054906101000a900473ffffffffffffffffffffffffffffffffffffffff1673ffffffffffffffffffffffffffffffffffffffff168773ffffffffffffffffffffffffffffffffffffffff16148015612343575060001515600c600083815260200190815260200160002060050160009054906101000a900460ff161515145b156124a5576000600c60008381526020019081526020016000209050806040518060c0016040529081600082015481526020016001820160009054906101000a900473ffffffffffffffffffffffffffffffffffffffff1673ffffffffffffffffffffffffffffffffffffffff1673ffffffffffffffffffffffffffffffffffffffff1681526020016002820160009054906101000a900473ffffffffffffffffffffffffffffffffffffffff1673ffffffffffffffffffffffffffffffffffffffff1673ffffffffffffffffffffffffffffffffffffffff16815260200160038201548152602001600482015481526020016005820160009054906101000a900460ff161515151581525050838581518110612489577f4e487b7100000000000000000000000000000000000000000000000000000000600052603260045260246000fd5b60200260200101819052506001846124a19190613d17565b9350505b80806124b090613e74565b9150506122a4565b5080945050505050919050565b600080600c600084815260200190815260200160002090508060040154915050919050565b6000600190505b6124fb6003612a0d565b811161265f573373ffffffffffffffffffffffffffffffffffffffff16600c600083815260200190815260200160002060020160009054906101000a900473ffffffffffffffffffffffffffffffffffffffff1673ffffffffffffffffffffffffffffffffffffffff16148015612599575060001515600c600083815260200190815260200160002060050160009054906101000a900460ff161515145b801561263c5750600c600082815260200190815260200160002060010160009054906101000a900473ffffffffffffffffffffffffffffffffffffffff1673ffffffffffffffffffffffffffffffffffffffff16600b600084815260200190815260200160002060000160009054906101000a900473ffffffffffffffffffffffffffffffffffffffff1673ffffffffffffffffffffffffffffffffffffffff16145b1561264c5761264b8133612a1b565b5b808061265790613e74565b9150506124f1565b5050565b600080600090506000600190505b61267b6002612a0d565b811161273c57600c600085815260200190815260200160002060010160009054906101000a900473ffffffffffffffffffffffffffffffffffffffff1673ffffffffffffffffffffffffffffffffffffffff16600b600083815260200190815260200160002060000160009054906101000a900473ffffffffffffffffffffffffffffffffffffffff1673ffffffffffffffffffffffffffffffffffffffff1614156127295780915061273c565b808061273490613e74565b915050612671565b5080915050919050565b61274e612a05565b73ffffffffffffffffffffffffffffffffffffffff1661276c611808565b73ffffffffffffffffffffffffffffffffffffffff16146127c2576040517f08c379a00000000000000000000000000000000000000000000000000000000081526004016127b990613b48565b60405180910390fd5b600073ffffffffffffffffffffffffffffffffffffffff168173ffffffffffffffffffffffffffffffffffffffff161415612832576040517f08c379a000000000000000000000000000000000000000000000000000000000815260040161282990613a48565b60405180910390fd5b61283b81612f86565b50565b612846612a05565b73ffffffffffffffffffffffffffffffffffffffff16612864611808565b73ffffffffffffffffffffffffffffffffffffffff16146128ba576040517f08c379a00000000000000000000000000000000000000000000000000000000081526004016128b190613b48565b60405180910390fd5b6128c4600261304c565b60006128d06002612a0d565b90506040518060a001604052808873ffffffffffffffffffffffffffffffffffffffff168152602001878152602001868680806020026020016040519081016040528093929190818152602001838360200280828437600081840152601f19601f82011690508083019250505050505050815260200184815260200183815250600b600083815260200190815260200160002060008201518160000160006101000a81548173ffffffffffffffffffffffffffffffffffffffff021916908373ffffffffffffffffffffffffffffffffffffffff1602179055506020820151816001015560408201518160020190805190602001906129d0929190613062565b506060820151816003015560808201518160040155905050856006546129f69190613d17565b60068190555050505050505050565b600033905090565b600081600001549050919050565b6000600c60008481526020019081526020016000209050612a3c6003612a0d565b831115612a7e576040517f08c379a0000000000000000000000000000000000000000000000000000000008152600401612a7590613a88565b60405180910390fd5b600c600084815260200190815260200160002060020160009054906101000a900473ffffffffffffffffffffffffffffffffffffffff1673ffffffffffffffffffffffffffffffffffffffff168273ffffffffffffffffffffffffffffffffffffffff1614612b22576040517f08c379a0000000000000000000000000000000000000000000000000000000008152600401612b1990613a68565b60405180910390fd5b43816004015410612b68576040517f08c379a0000000000000000000000000000000000000000000000000000000008152600401612b5f90613ba8565b60405180910390fd5b6000600954431115612b7e576009549050612b82565b4390505b6000612b8d85612663565b90506000612b9a82611636565b90506000612ba8838761132a565b905060008282600654612bba8b612e91565b896004015489612bca9190613df8565b600554612bd79190613d9e565b612be19190613d9e565b612beb9190613d6d565b612bf59190613d9e565b612bff9190613d6d565b905080600460009054906101000a900473ffffffffffffffffffffffffffffffffffffffff1673ffffffffffffffffffffffffffffffffffffffff166370a08231306040518263ffffffff167c0100000000000000000000000000000000000000000000000000000000028152600401612c7991906138eb565b60206040518083038186803b158015612c9157600080fd5b505afa158015612ca5573d6000803e3d6000fd5b505050506040513d601f19601f82011682018060405250810190612cc99190613393565b1015612d0a576040517f08c379a0000000000000000000000000000000000000000000000000000000008152600401612d01906139e8565b60405180910390fd5b600460009054906101000a900473ffffffffffffffffffffffffffffffffffffffff1673ffffffffffffffffffffffffffffffffffffffff1663a9059cbb8760020160009054906101000a900473ffffffffffffffffffffffffffffffffffffffff1664e8d4a5100084612d7e9190613d9e565b6040518363ffffffff167c0100000000000000000000000000000000000000000000000000000000028152600401612db792919061393d565b602060405180830381600087803b158015612dd157600080fd5b505af1158015612de5573d6000803e3d6000fd5b505050506040513d601f19601f82011682018060405250810190612e099190613341565b508486600401819055508560020160009054906101000a900473ffffffffffffffffffffffffffffffffffffffff1673ffffffffffffffffffffffffffffffffffffffff167f393ccd03ff98115189a2796d79ffa176e434468dbeea90a87972324be8c507188983604051612e7f929190613ca4565b60405180910390a25050505050505050565b600080600190505b612ea36002612a0d565b8111612f7b57600c600084815260200190815260200160002060010160009054906101000a900473ffffffffffffffffffffffffffffffffffffffff1673ffffffffffffffffffffffffffffffffffffffff16600b600083815260200190815260200160002060000160009054906101000a900473ffffffffffffffffffffffffffffffffffffffff1673ffffffffffffffffffffffffffffffffffffffff161415612f6857600b600082815260200190815260200160002060010154915050612f81565b8080612f7390613e74565b915050612e99565b50600090505b919050565b6000600160009054906101000a900473ffffffffffffffffffffffffffffffffffffffff16905081600160006101000a81548173ffffffffffffffffffffffffffffffffffffffff021916908373ffffffffffffffffffffffffffffffffffffffff1602179055508173ffffffffffffffffffffffffffffffffffffffff168173ffffffffffffffffffffffffffffffffffffffff167f8be0079c531659141344cd1fd0a4f28419497f9722a3daafe3b4186f6b6457e060405160405180910390a35050565b6001816000016000828254019250508190555050565b82805482825590600052602060002090810192821561309e579160200282015b8281111561309d578251825591602001919060010190613082565b5b5090506130ab9190613113565b5090565b6040518060c0016040528060008152602001600073ffffffffffffffffffffffffffffffffffffffff168152602001600073ffffffffffffffffffffffffffffffffffffffff16815260200160008152602001600081526020016000151581525090565b5b8082111561312c576000816000905550600101613114565b5090565b60008135905061313f816142e1565b92915050565b600081519050613154816142e1565b92915050565b60008083601f84011261316c57600080fd5b8235905067ffffffffffffffff81111561318557600080fd5b60208301915083602082028301111561319d57600080fd5b9250929050565b6000813590506131b3816142f8565b92915050565b6000815190506131c8816142f8565b92915050565b6000813590506131dd8161430f565b92915050565b6000815190506131f28161430f565b92915050565b60006020828403121561320a57600080fd5b600061321884828501613130565b91505092915050565b60006020828403121561323357600080fd5b600061324184828501613145565b91505092915050565b6000806040838503121561325d57600080fd5b600061326b85828601613130565b925050602061327c858286016131ce565b9150509250929050565b60008060008060008060a0878903121561329f57600080fd5b60006132ad89828a01613130565b96505060206132be89828a016131ce565b955050604087013567ffffffffffffffff8111156132db57600080fd5b6132e789828a0161315a565b945094505060606132fa89828a016131ce565b925050608061330b89828a016131ce565b9150509295509295509295565b60006020828403121561332a57600080fd5b6000613338848285016131a4565b91505092915050565b60006020828403121561335357600080fd5b6000613361848285016131b9565b91505092915050565b60006020828403121561337c57600080fd5b600061338a848285016131ce565b91505092915050565b6000602082840312156133a557600080fd5b60006133b3848285016131e3565b91505092915050565b600080604083850312156133cf57600080fd5b60006133dd858286016131ce565b92505060206133ee85828601613130565b9150509250929050565b600080600080600080600060c0888a03121561341357600080fd5b60006134218a828b016131ce565b97505060206134328a828b01613130565b96505060406134438a828b016131ce565b955050606088013567ffffffffffffffff81111561346057600080fd5b61346c8a828b0161315a565b9450945050608061347f8a828b016131ce565b92505060a06134908a828b016131ce565b91505092959891949750929550565b600080604083850312156134b257600080fd5b60006134c0858286016131ce565b92505060206134d1858286016131ce565b9150509250929050565b6000806000606084860312156134f057600080fd5b60006134fe868287016131ce565b935050602061350f868287016131ce565b9250506040613520868287016131ce565b9150509250925092565b60006135368383613852565b60c08301905092915050565b61354b81613e2c565b82525050565b61355a81613e2c565b82525050565b600061356b82613cdd565b6135758185613cf5565b935061358083613ccd565b8060005b838110156135b1578151613598888261352a565b97506135a383613ce8565b925050600181019050613584565b5085935050505092915050565b6135c781613e3e565b82525050565b6135d681613e3e565b82525050565b60006135e9602383613d06565b91506135f482613f1b565b604082019050919050565b600061360c603483613d06565b915061361782613f6a565b604082019050919050565b600061362f601d83613d06565b915061363a82613fb9565b602082019050919050565b6000613652602683613d06565b915061365d82613fe2565b604082019050919050565b6000613675601683613d06565b915061368082614031565b602082019050919050565b6000613698600f83613d06565b91506136a38261405a565b602082019050919050565b60006136bb602483613d06565b91506136c682614083565b604082019050919050565b60006136de601783613d06565b91506136e9826140d2565b602082019050919050565b6000613701602383613d06565b915061370c826140fb565b604082019050919050565b6000613724601183613d06565b915061372f8261414a565b602082019050919050565b6000613747601783613d06565b915061375282614173565b602082019050919050565b600061376a602083613d06565b91506137758261419c565b602082019050919050565b600061378d602783613d06565b9150613798826141c5565b604082019050919050565b60006137b0600e83613d06565b91506137bb82614214565b602082019050919050565b60006137d3601483613d06565b91506137de8261423d565b602082019050919050565b60006137f6601f83613d06565b915061380182614266565b602082019050919050565b6000613819601e83613d06565b91506138248261428f565b602082019050919050565b600061383c600983613d06565b9150613847826142b8565b602082019050919050565b60c08201600082015161386860008501826138cd565b50602082015161387b6020850182613542565b50604082015161388e6040850182613542565b5060608201516138a160608501826138cd565b5060808201516138b460808501826138cd565b5060a08201516138c760a08501826135be565b50505050565b6138d681613e6a565b82525050565b6138e581613e6a565b82525050565b60006020820190506139006000830184613551565b92915050565b600060608201905061391b6000830186613551565b6139286020830185613551565b61393560408301846138dc565b949350505050565b60006040820190506139526000830185613551565b61395f60208301846138dc565b9392505050565b600060808201905061397b6000830187613551565b61398860208301866138dc565b61399560408301856138dc565b6139a260608301846138dc565b95945050505050565b600060208201905081810360008301526139c58184613560565b905092915050565b60006020820190506139e260008301846135cd565b92915050565b60006020820190508181036000830152613a01816135dc565b9050919050565b60006020820190508181036000830152613a21816135ff565b9050919050565b60006020820190508181036000830152613a4181613622565b9050919050565b60006020820190508181036000830152613a6181613645565b9050919050565b60006020820190508181036000830152613a8181613668565b9050919050565b60006020820190508181036000830152613aa18161368b565b9050919050565b60006020820190508181036000830152613ac1816136ae565b9050919050565b60006020820190508181036000830152613ae1816136d1565b9050919050565b60006020820190508181036000830152613b01816136f4565b9050919050565b60006020820190508181036000830152613b2181613717565b9050919050565b60006020820190508181036000830152613b418161373a565b9050919050565b60006020820190508181036000830152613b618161375d565b9050919050565b60006020820190508181036000830152613b8181613780565b9050919050565b60006020820190508181036000830152613ba1816137a3565b9050919050565b60006020820190508181036000830152613bc1816137c6565b9050919050565b60006020820190508181036000830152613be1816137e9565b9050919050565b60006020820190508181036000830152613c018161380c565b9050919050565b60006020820190508181036000830152613c218161382f565b9050919050565b6000602082019050613c3d60008301846138dc565b92915050565b600060c082019050613c5860008301896138dc565b613c656020830188613551565b613c726040830187613551565b613c7f60608301866138dc565b613c8c60808301856138dc565b613c9960a08301846135cd565b979650505050505050565b6000604082019050613cb960008301856138dc565b613cc660208301846138dc565b9392505050565b6000819050602082019050919050565b600081519050919050565b6000602082019050919050565b600082825260208201905092915050565b600082825260208201905092915050565b6000613d2282613e6a565b9150613d2d83613e6a565b9250827fffffffffffffffffffffffffffffffffffffffffffffffffffffffffffffffff03821115613d6257613d61613ebd565b5b828201905092915050565b6000613d7882613e6a565b9150613d8383613e6a565b925082613d9357613d92613eec565b5b828204905092915050565b6000613da982613e6a565b9150613db483613e6a565b9250817fffffffffffffffffffffffffffffffffffffffffffffffffffffffffffffffff0483118215151615613ded57613dec613ebd565b5b828202905092915050565b6000613e0382613e6a565b9150613e0e83613e6a565b925082821015613e2157613e20613ebd565b5b828203905092915050565b6000613e3782613e4a565b9050919050565b60008115159050919050565b600073ffffffffffffffffffffffffffffffffffffffff82169050919050565b6000819050919050565b6000613e7f82613e6a565b91507fffffffffffffffffffffffffffffffffffffffffffffffffffffffffffffffff821415613eb257613eb1613ebd565b5b600182019050919050565b7f4e487b7100000000000000000000000000000000000000000000000000000000600052601160045260246000fd5b7f4e487b7100000000000000000000000000000000000000000000000000000000600052601260045260246000fd5b7f696e73756666696369656e74204d696c6b20616d6f756e7420746f206861727660008201527f6573740000000000000000000000000000000000000000000000000000000000602082015250565b7f456e6420426c6f636b204e756d626572206d757374206269676765722074686160008201527f6e20537461727420426c6f636b204e756d626572000000000000000000000000602082015250565b7f4f766572666c6f77206f66204d6178205374616b696e6720436f756e74000000600082015250565b7f4f776e61626c653a206e6577206f776e657220697320746865207a65726f206160008201527f6464726573730000000000000000000000000000000000000000000000000000602082015250565b7f4e6f74206f776e6572206f662074686973204974656d00000000000000000000600082015250565b7f696e76616c6964204974656d2049640000000000000000000000000000000000600082015250565b7f5468657265206973206e6f20436f6e7472616374204164647265737320696e2060008201527f506f6f6c00000000000000000000000000000000000000000000000000000000602082015250565b7f5374616b696e67206973206e6f74207374617274656421000000000000000000600082015250565b7f696e73756666696369656e74204d696c6b20616d6f756e7420746f204465706f60008201527f7369740000000000000000000000000000000000000000000000000000000000602082015250565b7f796f7520617265206e6f74206f776e6572000000000000000000000000000000600082015250565b7f5374616b696e67206973206e6f742066696e6973686564000000000000000000600082015250565b7f4f776e61626c653a2063616c6c6572206973206e6f7420746865206f776e6572600082015250565b7f54686973205374616b696e67204974656d2077617320756e7374616b6564206160008201527f6c72656164792100000000000000000000000000000000000000000000000000602082015250565b7f696e76616c696420706f6f6c4964000000000000000000000000000000000000600082015250565b7f6e6f7420726561647920746f2068617276657374000000000000000000000000600082015250565b7f5265656e7472616e637947756172643a207265656e7472616e742063616c6c00600082015250565b7f456e6420426c6f636b206d75737420626967676572207468616e206e6f770000600082015250565b7f6e6f74206f776e65720000000000000000000000000000000000000000000000600082015250565b6142ea81613e2c565b81146142f557600080fd5b50565b61430181613e3e565b811461430c57600080fd5b50565b61431881613e6a565b811461432357600080fd5b5056fea2646970667358221220e7129152affb2a91bd5951174b5f99857298e115a6937b1b2e18433882f6bbaf64736f6c63430008040033",
  "immutableReferences": {},
  "source": "// SPDX-License-Identifier: MIT\r\npragma solidity ^0.8.4;\r\nimport \"@openzeppelin/contracts/utils/Counters.sol\";\r\nimport \"@openzeppelin/contracts/token/ERC721/ERC721.sol\";\r\nimport \"@openzeppelin/contracts/security/ReentrancyGuard.sol\";\r\nimport \"@openzeppelin/contracts/access/Ownable.sol\";\r\nimport \"./interfaces/IMilkToken.sol\";\r\n\r\ncontract Staking is ReentrancyGuard, Ownable {\r\n    using Counters for Counters.Counter;\r\n    \r\n    struct StakingItem {\r\n        uint256 itemId;\r\n        address contractAddress;\r\n        address owner;\r\n        uint256 tokenId;\r\n        uint256 lastHarvestBlock;\r\n        bool isEnded;\r\n    }\r\n\r\n    struct PoolInfo {\r\n        address contractAddress;\r\n        uint256 allocPoint;\r\n        uint256[] tokenIds;\r\n        uint256 milkPower;\r\n        uint256 maxStakedCount;\r\n    }\r\n\r\n    Counters.Counter public stakingPoolCount;\r\n    Counters.Counter public stakingItemCount;\r\n    IMilkToken tokenMilk;\r\n    \r\n    uint256 public milkPerBlock;\r\n    uint256 public totalAllocPoint;\r\n    uint256 public totalAmountDepositedPool;\r\n    uint256 public startBlock;\r\n    uint256 public endBlock;\r\n    bool public isStakingAvailable;\r\n    mapping(uint256 => PoolInfo) public pools;\r\n    mapping(uint256 => StakingItem) public items;\r\n\r\n    event StakingItemCreated(\r\n        uint256 itemId,\r\n        address indexed nftContract,\r\n        address indexed owner,\r\n        uint256 tokenId\r\n    );\r\n\r\n    event Harvest(\r\n        uint256 itemId,\r\n        address indexed owner,\r\n        uint256 amount\r\n    );\r\n\r\n    constructor(IMilkToken _tokenMilk) {\r\n        tokenMilk = _tokenMilk;\r\n        totalAllocPoint = 0;\r\n        milkPerBlock = 0;\r\n        totalAmountDepositedPool = 0;\r\n        isStakingAvailable = false;\r\n    }\r\n\r\n    function depositMilkToPool(uint256 _totalAmountDepositedPool, uint256 _startBlock, uint256 _endBlock) public onlyOwner {\r\n        require(tokenMilk.balanceOf(owner()) >= _totalAmountDepositedPool, \"insufficient Milk amount to Deposit\");\r\n        require(_endBlock > block.number, \"End Block must bigger than now\");\r\n        require(_endBlock > _startBlock, \"End Block Number must bigger than Start Block Number\");\r\n        tokenMilk.transferFrom(owner(), address(this), _totalAmountDepositedPool * 10 ** 18);\r\n        totalAmountDepositedPool = _totalAmountDepositedPool;\r\n        startBlock = _startBlock;\r\n        endBlock = _endBlock;\r\n        milkPerBlock = 10 ** 6 * _totalAmountDepositedPool / (_endBlock - _startBlock);\r\n        isStakingAvailable = true;\r\n    }\r\n\r\n    function setPeriod(uint256 _startBlock, uint256 _endBlock) public onlyOwner {\r\n        require(_endBlock > block.number, \"End Block must bigger than now\");\r\n        require(_endBlock > _startBlock, \"End Block Number must bigger than Start Block Number\");\r\n        milkPerBlock = 10 ** 6 * totalAmountDepositedPool / (_endBlock - _startBlock);\r\n        startBlock = _startBlock;\r\n        endBlock = _endBlock;\r\n    }    \r\n\r\n    function setIsStakingAvailable(bool _isStakingAvailable) public onlyOwner{\r\n        isStakingAvailable = _isStakingAvailable;\r\n    }\r\n\r\n    function addPool(address _contractAddress, uint256 _allocPoint, uint256[] calldata _tokenIds, uint256 _milkPower, uint256 _maxStakedCount) public onlyOwner {\r\n        stakingPoolCount.increment();\r\n        uint256 poolId = stakingPoolCount.current();\r\n\r\n        pools[poolId] = PoolInfo(\r\n            _contractAddress,\r\n            _allocPoint,\r\n            _tokenIds,\r\n            _milkPower,\r\n            _maxStakedCount\r\n        );\r\n\r\n        totalAllocPoint = totalAllocPoint + _allocPoint;\r\n    }\r\n\r\n    function updatePool(\r\n        uint256 _poolId, \r\n        address _contractAddress, \r\n        uint256 _allocPoint, \r\n        uint256[] calldata _tokenIds,\r\n        uint256 _milkPower, \r\n        uint256 _maxStakedCount\r\n    ) public onlyOwner {\r\n        require(_poolId <= stakingPoolCount.current(), \"invalid poolId\");\r\n\r\n        totalAllocPoint = totalAllocPoint - pools[_poolId].allocPoint;\r\n\r\n        pools[_poolId] = PoolInfo(\r\n            _contractAddress,\r\n            _allocPoint,\r\n            _tokenIds,\r\n            _milkPower,\r\n            _maxStakedCount\r\n        );\r\n\r\n        totalAllocPoint = totalAllocPoint + _allocPoint;\r\n    }\r\n\r\n    modifier isValid(address _msgSender, address _contractAddress, uint256 _tokenId) {\r\n        require(IERC721(_contractAddress).ownerOf(_tokenId) == _msgSender, \"not owner\");\r\n        _;\r\n    }\r\n\r\n    function stake(\r\n        address _nftContract,\r\n        uint256 _tokenId\r\n    ) public nonReentrant isValid(msg.sender, _nftContract, _tokenId) {\r\n\r\n        require(block.number >= startBlock && block.number <= endBlock && isStakingAvailable == true, \"Staking is not started!\");\r\n\r\n        uint256 tmpPoolId = 0;\r\n        for(uint256 i = 1; i <= stakingPoolCount.current(); i ++) {\r\n            if(_nftContract == pools[i].contractAddress) {\r\n                tmpPoolId = i;\r\n                break;\r\n            }\r\n        }\r\n\r\n        require(tmpPoolId != 0, \"There is no Contract Address in Pool\");\r\n        \r\n        uint256 stakedCount = getMyStakedCount(tmpPoolId, msg.sender);\r\n        require(stakedCount < pools[tmpPoolId].maxStakedCount, \"Overflow of Max Staking Count\");\r\n\r\n        stakingItemCount.increment();\r\n        uint256 itemId = stakingItemCount.current();\r\n\r\n        items[itemId] = StakingItem(\r\n            itemId,\r\n            _nftContract,\r\n            msg.sender,\r\n            _tokenId,\r\n            block.number,\r\n            false\r\n        );\r\n\r\n        IERC721(_nftContract).transferFrom(msg.sender, address(this), _tokenId);\r\n        \r\n        emit StakingItemCreated(\r\n            itemId,\r\n            _nftContract,\r\n            msg.sender,\r\n            _tokenId\r\n        );\r\n    }\r\n\r\n    function getAllocPoint(uint256 _itemId) internal view returns(uint256) {\r\n        for(uint256 i = 1; i <= stakingPoolCount.current(); i++) {\r\n            if (pools[i].contractAddress == items[_itemId].contractAddress) {\r\n                return pools[i].allocPoint;\r\n            }\r\n        }\r\n        return 0;\r\n    }\r\n\r\n    function isGenesisNFT(uint256 _itemId) internal view returns(bool) {\r\n        for(uint256 i = 1; i <= stakingPoolCount.current(); i++) {\r\n            if (pools[i].contractAddress == items[_itemId].contractAddress) {\r\n                if(pools[i].tokenIds.length != 0)\r\n                    return true;\r\n                else\r\n                    return false;\r\n            }\r\n        }\r\n        return false;\r\n    }\r\n\r\n    function _harvest(\r\n        uint256 _itemId,\r\n        address _owner\r\n    ) internal {\r\n        StakingItem storage item = items[_itemId];\r\n        require(_itemId <= stakingItemCount.current(), \"invalid Item Id\");\r\n        require(_owner == items[_itemId].owner, \"Not owner of this Item\" );\r\n        require(item.lastHarvestBlock < block.number, \"not ready to harvest\");\r\n\r\n\r\n        uint256 tmpEndBlock = 0;\r\n        if(block.number > endBlock)\r\n            tmpEndBlock = endBlock;\r\n        else\r\n            tmpEndBlock = block.number;\r\n\r\n        uint256 poolId = getPoolId(_itemId);\r\n        uint256 totalMilkPower = getTotalMilkPower(poolId);\r\n        uint256 userMilkPower = getMyMilkPower(poolId, _owner);\r\n\r\n        uint256 amount = milkPerBlock * (tmpEndBlock - item.lastHarvestBlock) * getAllocPoint(_itemId) / totalAllocPoint * userMilkPower / totalMilkPower;\r\n        \r\n        require(tokenMilk.balanceOf(address(this)) >= amount, \"insufficient Milk amount to harvest\");\r\n\r\n        tokenMilk.transfer(item.owner, amount * 10 ** 12);\r\n\r\n        item.lastHarvestBlock = tmpEndBlock;\r\n\r\n        emit Harvest(_itemId, item.owner, amount);\r\n    }\r\n\r\n    function harvest(uint256 _poolId) public {\r\n        for(uint256 i = 1; i <= stakingItemCount.current(); i ++) {\r\n            if(items[i].owner == msg.sender && items[i].isEnded == false && pools[_poolId].contractAddress == items[i].contractAddress) {\r\n                _harvest(i, msg.sender);\r\n            }\r\n        }\r\n    }\r\n\r\n    function getStakedItems(address _owner) public view returns(StakingItem[] memory){\r\n        uint256 totalItemCount = stakingItemCount.current();\r\n        uint256 itemCount = 0;\r\n        uint256 currentIndex = 0;\r\n\r\n        for(uint256 i = 1; i <= totalItemCount; i ++) {\r\n            if(_owner == items[i].owner && items[i].isEnded == false) {\r\n                itemCount += 1;\r\n            }\r\n        }\r\n\r\n        StakingItem[] memory stakedItems = new StakingItem[](itemCount);\r\n    \r\n        for (uint256 i = 1; i <= totalItemCount; i ++) {\r\n            if(_owner == items[i].owner && items[i].isEnded == false) {\r\n                StakingItem storage currentItem = items[i];\r\n                stakedItems[currentIndex] = currentItem;\r\n                currentIndex += 1;\r\n            }\r\n        }\r\n\r\n        return stakedItems;\r\n\r\n    }\r\n\r\n    function getPendingMilk(address _owner, uint256 _itemId) public view returns(uint256){\r\n        StakingItem storage item = items[_itemId];\r\n\r\n        uint256 tmpEndBlock = 0;\r\n        if(block.number > endBlock)\r\n            tmpEndBlock = endBlock;\r\n        else\r\n            tmpEndBlock = block.number;\r\n\r\n        uint256 poolId = getPoolId(_itemId);\r\n        uint256 totalMilkPower = getTotalMilkPower(poolId);\r\n        uint256 userMilkPower = getMyMilkPower(poolId, _owner);\r\n\r\n        uint256 amount = milkPerBlock * (tmpEndBlock - item.lastHarvestBlock) * getAllocPoint(_itemId) / totalAllocPoint * userMilkPower / totalMilkPower;\r\n\r\n        return amount;\r\n    }\r\n\r\n    function getPendingMilkForAll(address _owner, uint256 _poolId) public view returns(uint256) {\r\n        uint256 totalMilkReward = 0;\r\n        for(uint256 i = 1; i <= stakingItemCount.current(); i ++) {\r\n            if(items[i].owner == _owner && items[i].isEnded == false && pools[_poolId].contractAddress == items[i].contractAddress) {\r\n                totalMilkReward += getPendingMilk(_owner, i);\r\n            }\r\n        }\r\n        return totalMilkReward;\r\n    }\r\n    \r\n    function getBlockNumber() public view returns(uint256) {\r\n        return block.number;\r\n    }\r\n\r\n    function getPoolId(uint256 _itemId) public view returns(uint256) {\r\n\r\n        uint256 poolId = 0;\r\n        for(uint256 i = 1; i <= stakingPoolCount.current(); i ++) {\r\n            if(pools[i].contractAddress == items[_itemId].contractAddress)\r\n            {\r\n                poolId = i;\r\n                break;\r\n            }\r\n        }\r\n        return poolId;\r\n\r\n    }\r\n    function getTotalStakedCount(uint256 _poolId) public view returns(uint256) {\r\n        uint256 count = 0;\r\n        for(uint256 i = 1; i <= stakingItemCount.current(); i ++)\r\n        {\r\n            if(items[i].isEnded == false && items[i].contractAddress == pools[_poolId].contractAddress) {\r\n                count ++;\r\n            }\r\n        }\r\n        return count;\r\n    }\r\n\r\n    function getTotalMilkPower(uint256 _poolId) public view returns(uint256) {\r\n        uint256 count = getTotalStakedCount(_poolId);\r\n        uint256 totalMilkPower =  count * pools[_poolId].milkPower;\r\n        return totalMilkPower;\r\n    }\r\n\r\n    function getMyMilkPower(uint256 _poolId, address _owner) public view returns(uint256) {\r\n        uint256 count = 0;\r\n        for(uint256 i = 1; i <= stakingItemCount.current(); i ++)\r\n        {\r\n            if(items[i].isEnded == false && items[i].contractAddress == pools[_poolId].contractAddress && items[i].owner == _owner) {\r\n                count ++;\r\n            }\r\n        }\r\n        uint256 myMilkPower =  count * pools[_poolId].milkPower;\r\n        return myMilkPower;\r\n    }\r\n\r\n    function getMyStakedCount(uint256 _poolId, address _owner) public view returns(uint256) {\r\n        uint256 count = 0;\r\n        if(stakingItemCount.current() < 1)\r\n            return 0;\r\n        for(uint256 i = 1; i <= stakingItemCount.current(); i ++)\r\n        {\r\n            if(items[i].isEnded == false && items[i].contractAddress == pools[_poolId].contractAddress && items[i].owner == _owner) {\r\n                count ++;\r\n            }\r\n        }\r\n        return count;\r\n    }\r\n\r\n    function getDailyMilkRate(uint256 _poolId) public view returns(uint256) {\r\n        uint256 totalMilkPower = getTotalMilkPower(_poolId);\r\n        uint256 dailyRate = 0;\r\n        if(totalMilkPower != 0)\r\n            dailyRate = milkPerBlock * 20 * 60 * 24 * 100 / totalMilkPower * pools[_poolId].allocPoint / totalAllocPoint;\r\n        return dailyRate;\r\n    }\r\n\r\n    function getLastHarvestBlock(uint256 _itemId) public view returns(uint256) {\r\n        StakingItem storage item = items[_itemId];\r\n        return item.lastHarvestBlock;\r\n    }\r\n\r\n    function unstake(\r\n        uint256 _itemId\r\n    ) public {\r\n        StakingItem storage item = items[_itemId];\r\n\r\n        require(item.owner == msg.sender, \"you are not owner\");\r\n        require(item.isEnded == false, \"This Staking Item was unstaked already!\");\r\n        _harvest(_itemId, msg.sender);\r\n        IERC721(item.contractAddress).transferFrom(address(this), msg.sender, item.tokenId);\r\n        item.isEnded = true;\r\n    }\r\n\r\n    function withDraw() public onlyOwner {\r\n        require(block.number > endBlock, \"Staking is not finished\");\r\n        uint256 remainBalance = tokenMilk.balanceOf(address(this));\r\n        tokenMilk.transfer(owner(), remainBalance);\r\n        isStakingAvailable = false;\r\n    }\r\n}\r\n",
  "sourcePath": "E:\\Git for Project\\Ethereum\\NFT\\CashCow\\nft-contracts\\contracts\\Staking.sol",
  "compiler": {
    "name": "solc",
    "version": "0.8.4+commit.c7e474f2.Emscripten.clang"
  },
  "schemaVersion": "3.4.2",
  "updatedAt": "2022-02-11T17:59:34.710Z",
  "networkType": "ethereum",
  "devdoc": {
    "kind": "dev",
    "methods": {
      "owner()": {
        "details": "Returns the address of the current owner."
      },
      "renounceOwnership()": {
        "details": "Leaves the contract without owner. It will not be possible to call `onlyOwner` functions anymore. Can only be called by the current owner. NOTE: Renouncing ownership will leave the contract without an owner, thereby removing any functionality that is only available to the owner."
      },
      "transferOwnership(address)": {
        "details": "Transfers ownership of the contract to a new account (`newOwner`). Can only be called by the current owner."
      }
    },
    "version": 1
  },
  "userdoc": {
    "kind": "user",
    "methods": {},
    "version": 1
  }
}