{
  "contractName": "Staking",
  "abi": [
    {
      "inputs": [
        {
          "internalType": "contract IMilkToken",
          "name": "_tokenMilk",
          "type": "address"
        }
      ],
      "stateMutability": "nonpayable",
      "type": "constructor"
    },
    {
      "anonymous": false,
      "inputs": [
        {
          "indexed": false,
          "internalType": "uint256",
          "name": "itemId",
          "type": "uint256"
        },
        {
          "indexed": true,
          "internalType": "address",
          "name": "owner",
          "type": "address"
        },
        {
          "indexed": false,
          "internalType": "uint256",
          "name": "amount",
          "type": "uint256"
        }
      ],
      "name": "Harvest",
      "type": "event"
    },
    {
      "anonymous": false,
      "inputs": [
        {
          "indexed": true,
          "internalType": "address",
          "name": "previousOwner",
          "type": "address"
        },
        {
          "indexed": true,
          "internalType": "address",
          "name": "newOwner",
          "type": "address"
        }
      ],
      "name": "OwnershipTransferred",
      "type": "event"
    },
    {
      "anonymous": false,
      "inputs": [
        {
          "indexed": false,
          "internalType": "uint256",
          "name": "itemId",
          "type": "uint256"
        },
        {
          "indexed": true,
          "internalType": "address",
          "name": "nftContract",
          "type": "address"
        },
        {
          "indexed": true,
          "internalType": "address",
          "name": "owner",
          "type": "address"
        },
        {
          "indexed": false,
          "internalType": "uint256",
          "name": "tokenId",
          "type": "uint256"
        }
      ],
      "name": "StakingItemCreated",
      "type": "event"
    },
    {
      "inputs": [],
      "name": "endBlock",
      "outputs": [
        {
          "internalType": "uint256",
          "name": "",
          "type": "uint256"
        }
      ],
      "stateMutability": "view",
      "type": "function",
      "constant": true
    },
    {
      "inputs": [],
      "name": "isStakingAvailable",
      "outputs": [
        {
          "internalType": "bool",
          "name": "",
          "type": "bool"
        }
      ],
      "stateMutability": "view",
      "type": "function",
      "constant": true
    },
    {
      "inputs": [
        {
          "internalType": "uint256",
          "name": "",
          "type": "uint256"
        }
      ],
      "name": "items",
      "outputs": [
        {
          "internalType": "uint256",
          "name": "itemId",
          "type": "uint256"
        },
        {
          "internalType": "address",
          "name": "contractAddress",
          "type": "address"
        },
        {
          "internalType": "address",
          "name": "owner",
          "type": "address"
        },
        {
          "internalType": "uint256",
          "name": "tokenId",
          "type": "uint256"
        },
        {
          "internalType": "uint256",
          "name": "pendingMilk",
          "type": "uint256"
        },
        {
          "internalType": "uint256",
          "name": "poolId",
          "type": "uint256"
        },
        {
          "internalType": "bool",
          "name": "isEnded",
          "type": "bool"
        }
      ],
      "stateMutability": "view",
      "type": "function",
      "constant": true
    },
    {
      "inputs": [],
      "name": "milkPerBlock",
      "outputs": [
        {
          "internalType": "uint256",
          "name": "",
          "type": "uint256"
        }
      ],
      "stateMutability": "view",
      "type": "function",
      "constant": true
    },
    {
      "inputs": [],
      "name": "owner",
      "outputs": [
        {
          "internalType": "address",
          "name": "",
          "type": "address"
        }
      ],
      "stateMutability": "view",
      "type": "function",
      "constant": true
    },
    {
      "inputs": [
        {
          "internalType": "address",
          "name": "",
          "type": "address"
        }
      ],
      "name": "poolIdOfContract",
      "outputs": [
        {
          "internalType": "uint256",
          "name": "",
          "type": "uint256"
        }
      ],
      "stateMutability": "view",
      "type": "function",
      "constant": true
    },
    {
      "inputs": [
        {
          "internalType": "uint256",
          "name": "",
          "type": "uint256"
        }
      ],
      "name": "pools",
      "outputs": [
        {
          "internalType": "address",
          "name": "contractAddress",
          "type": "address"
        },
        {
          "internalType": "uint256",
          "name": "allocPoint",
          "type": "uint256"
        },
        {
          "internalType": "uint256",
          "name": "milkPower",
          "type": "uint256"
        },
        {
          "internalType": "uint256",
          "name": "maxStakeCount",
          "type": "uint256"
        },
        {
          "internalType": "uint256",
          "name": "lastUpdatedBlock",
          "type": "uint256"
        },
        {
          "internalType": "uint256",
          "name": "stakedCount",
          "type": "uint256"
        }
      ],
      "stateMutability": "view",
      "type": "function",
      "constant": true
    },
    {
      "inputs": [],
      "name": "renounceOwnership",
      "outputs": [],
      "stateMutability": "nonpayable",
      "type": "function"
    },
    {
      "inputs": [
        {
          "internalType": "address",
          "name": "",
          "type": "address"
        },
        {
          "internalType": "uint256",
          "name": "",
          "type": "uint256"
        }
      ],
      "name": "stakedCountOfOwner",
      "outputs": [
        {
          "internalType": "uint256",
          "name": "",
          "type": "uint256"
        }
      ],
      "stateMutability": "view",
      "type": "function",
      "constant": true
    },
    {
      "inputs": [],
      "name": "stakingItemCount",
      "outputs": [
        {
          "internalType": "uint256",
          "name": "_value",
          "type": "uint256"
        }
      ],
      "stateMutability": "view",
      "type": "function",
      "constant": true
    },
    {
      "inputs": [],
      "name": "stakingPoolCount",
      "outputs": [
        {
          "internalType": "uint256",
          "name": "_value",
          "type": "uint256"
        }
      ],
      "stateMutability": "view",
      "type": "function",
      "constant": true
    },
    {
      "inputs": [],
      "name": "startBlock",
      "outputs": [
        {
          "internalType": "uint256",
          "name": "",
          "type": "uint256"
        }
      ],
      "stateMutability": "view",
      "type": "function",
      "constant": true
    },
    {
      "inputs": [],
      "name": "totalAllocPoint",
      "outputs": [
        {
          "internalType": "uint256",
          "name": "",
          "type": "uint256"
        }
      ],
      "stateMutability": "view",
      "type": "function",
      "constant": true
    },
    {
      "inputs": [],
      "name": "totalAmountDepositedPool",
      "outputs": [
        {
          "internalType": "uint256",
          "name": "",
          "type": "uint256"
        }
      ],
      "stateMutability": "view",
      "type": "function",
      "constant": true
    },
    {
      "inputs": [
        {
          "internalType": "address",
          "name": "newOwner",
          "type": "address"
        }
      ],
      "name": "transferOwnership",
      "outputs": [],
      "stateMutability": "nonpayable",
      "type": "function"
    },
    {
      "inputs": [
        {
          "internalType": "uint256",
          "name": "_totalAmountDepositedPool",
          "type": "uint256"
        },
        {
          "internalType": "uint256",
          "name": "_startBlock",
          "type": "uint256"
        },
        {
          "internalType": "uint256",
          "name": "_endBlock",
          "type": "uint256"
        }
      ],
      "name": "depositMilkToPool",
      "outputs": [],
      "stateMutability": "nonpayable",
      "type": "function"
    },
    {
      "inputs": [
        {
          "internalType": "uint256",
          "name": "_startBlock",
          "type": "uint256"
        },
        {
          "internalType": "uint256",
          "name": "_endBlock",
          "type": "uint256"
        }
      ],
      "name": "setPeriod",
      "outputs": [],
      "stateMutability": "nonpayable",
      "type": "function"
    },
    {
      "inputs": [
        {
          "internalType": "bool",
          "name": "_isStakingAvailable",
          "type": "bool"
        }
      ],
      "name": "setIsStakingAvailable",
      "outputs": [],
      "stateMutability": "nonpayable",
      "type": "function"
    },
    {
      "inputs": [
        {
          "internalType": "address",
          "name": "_contractAddress",
          "type": "address"
        },
        {
          "internalType": "uint256",
          "name": "_allocPoint",
          "type": "uint256"
        },
        {
          "internalType": "uint256[]",
          "name": "_tokenIds",
          "type": "uint256[]"
        },
        {
          "internalType": "uint256",
          "name": "_milkPower",
          "type": "uint256"
        },
        {
          "internalType": "uint256",
          "name": "_maxStakeCount",
          "type": "uint256"
        }
      ],
      "name": "addPool",
      "outputs": [],
      "stateMutability": "nonpayable",
      "type": "function"
    },
    {
      "inputs": [
        {
          "internalType": "address",
          "name": "_contractAddress",
          "type": "address"
        },
        {
          "internalType": "uint256",
          "name": "_poolId",
          "type": "uint256"
        }
      ],
      "name": "setPoolIdOfContract",
      "outputs": [],
      "stateMutability": "nonpayable",
      "type": "function"
    },
    {
      "inputs": [
        {
          "internalType": "uint256",
          "name": "_poolId",
          "type": "uint256"
        },
        {
          "internalType": "uint256",
          "name": "_stakedCount",
          "type": "uint256"
        }
      ],
      "name": "setStakedCount",
      "outputs": [],
      "stateMutability": "nonpayable",
      "type": "function"
    },
    {
      "inputs": [
        {
          "internalType": "uint256",
          "name": "_poolId",
          "type": "uint256"
        },
        {
          "internalType": "address",
          "name": "_contractAddress",
          "type": "address"
        },
        {
          "internalType": "uint256",
          "name": "_allocPoint",
          "type": "uint256"
        },
        {
          "internalType": "uint256[]",
          "name": "_tokenIds",
          "type": "uint256[]"
        },
        {
          "internalType": "uint256",
          "name": "_milkPower",
          "type": "uint256"
        },
        {
          "internalType": "uint256",
          "name": "_maxStakeCount",
          "type": "uint256"
        }
      ],
      "name": "updatePool",
      "outputs": [],
      "stateMutability": "nonpayable",
      "type": "function"
    },
    {
      "inputs": [
        {
          "internalType": "address",
          "name": "_nftContract",
          "type": "address"
        },
        {
          "internalType": "uint256",
          "name": "_tokenId",
          "type": "uint256"
        }
      ],
      "name": "stake",
      "outputs": [],
      "stateMutability": "nonpayable",
      "type": "function"
    },
    {
      "inputs": [
        {
          "internalType": "uint256",
          "name": "_poolId",
          "type": "uint256"
        }
      ],
      "name": "harvest",
      "outputs": [],
      "stateMutability": "nonpayable",
      "type": "function"
    },
    {
      "inputs": [
        {
          "internalType": "uint256",
          "name": "_itemId",
          "type": "uint256"
        }
      ],
      "name": "getPendingMilk",
      "outputs": [
        {
          "internalType": "uint256",
          "name": "",
          "type": "uint256"
        }
      ],
      "stateMutability": "view",
      "type": "function",
      "constant": true
    },
    {
      "inputs": [
        {
          "internalType": "uint256",
          "name": "_poolId",
          "type": "uint256"
        },
        {
          "internalType": "address",
          "name": "_owner",
          "type": "address"
        }
      ],
      "name": "getPendingMilkForAll",
      "outputs": [
        {
          "internalType": "uint256",
          "name": "",
          "type": "uint256"
        }
      ],
      "stateMutability": "view",
      "type": "function",
      "constant": true
    },
    {
      "inputs": [
        {
          "internalType": "address",
          "name": "_owner",
          "type": "address"
        }
      ],
      "name": "getStakedItems",
      "outputs": [
        {
          "components": [
            {
              "internalType": "uint256",
              "name": "itemId",
              "type": "uint256"
            },
            {
              "internalType": "address",
              "name": "contractAddress",
              "type": "address"
            },
            {
              "internalType": "address",
              "name": "owner",
              "type": "address"
            },
            {
              "internalType": "uint256",
              "name": "tokenId",
              "type": "uint256"
            },
            {
              "internalType": "uint256",
              "name": "pendingMilk",
              "type": "uint256"
            },
            {
              "internalType": "uint256",
              "name": "poolId",
              "type": "uint256"
            },
            {
              "internalType": "bool",
              "name": "isEnded",
              "type": "bool"
            }
          ],
          "internalType": "struct Staking.StakingItem[]",
          "name": "",
          "type": "tuple[]"
        }
      ],
      "stateMutability": "view",
      "type": "function",
      "constant": true
    },
    {
      "inputs": [],
      "name": "getBlockNumber",
      "outputs": [
        {
          "internalType": "uint256",
          "name": "",
          "type": "uint256"
        }
      ],
      "stateMutability": "view",
      "type": "function",
      "constant": true
    },
    {
      "inputs": [
        {
          "internalType": "uint256",
          "name": "_poolId",
          "type": "uint256"
        }
      ],
      "name": "getTotalMilkPower",
      "outputs": [
        {
          "internalType": "uint256",
          "name": "",
          "type": "uint256"
        }
      ],
      "stateMutability": "view",
      "type": "function",
      "constant": true
    },
    {
      "inputs": [
        {
          "internalType": "uint256",
          "name": "_poolId",
          "type": "uint256"
        },
        {
          "internalType": "address",
          "name": "_owner",
          "type": "address"
        }
      ],
      "name": "getMyMilkPower",
      "outputs": [
        {
          "internalType": "uint256",
          "name": "",
          "type": "uint256"
        }
      ],
      "stateMutability": "view",
      "type": "function",
      "constant": true
    },
    {
      "inputs": [
        {
          "internalType": "uint256",
          "name": "_poolId",
          "type": "uint256"
        }
      ],
      "name": "getDailyMilkRate",
      "outputs": [
        {
          "internalType": "uint256",
          "name": "",
          "type": "uint256"
        }
      ],
      "stateMutability": "view",
      "type": "function",
      "constant": true
    },
    {
      "inputs": [
        {
          "internalType": "uint256",
          "name": "_itemId",
          "type": "uint256"
        }
      ],
      "name": "unstake",
      "outputs": [],
      "stateMutability": "nonpayable",
      "type": "function"
    },
    {
      "inputs": [],
      "name": "withDraw",
      "outputs": [],
      "stateMutability": "nonpayable",
      "type": "function"
    }
  ],
  "bytecode": "0x60806040523480156200001157600080fd5b5060405162002829380380620028298339810160408190526200003491620000fa565b60016000556200005f62000050640100000000620000a4810204565b640100000000620000a8810204565b600d8054600160a060020a031916600160a060020a03929092169190911790556000600381905560028190556004556001805460a060020a60ff02191690556200012a565b3390565b60018054600160a060020a03838116600160a060020a0319831681179093556040519116919082907f8be0079c531659141344cd1fd0a4f28419497f9722a3daafe3b4186f6b6457e090600090a35050565b6000602082840312156200010c578081fd5b8151600160a060020a038116811462000123578182fd5b9392505050565b6126ef806200013a6000396000f3fe608060405234801561001057600080fd5b50600436106101ff5760003560e060020a900480637506f5341161011e578063b3eaa74b116100b1578063d5dfc26511610080578063d5dfc26514610510578063ddc6326214610530578063ec6749bc14610543578063f2fde38b14610556578063fcd0ca1f1461056957600080fd5b8063b3eaa74b14610437578063bb7a80541461044a578063bfb231d214610453578063d06cd518146104f057600080fd5b80638da5cb5b116100ed5780638da5cb5b146103725780639c5a85401461038d578063ac4afa38146103a0578063adc9772e1461042457600080fd5b80637506f53414610321578063811e1cf91461032a57806381f1635714610334578063872c7a501461035f57600080fd5b806342cbb15c1161019657806353dc4ae11161016557806353dc4ae1146102e05780635c4943fe146102f35780636b16b1be14610306578063715018a61461031957600080fd5b806342cbb15c146102ab57806348cd4cb1146102b15780634b8e4ace146102ba5780635119913c146102cd57600080fd5b806315a73197116101d257806315a731971461027257806317caf6f1146102855780632dd96be91461028e5780632e17de781461029857600080fd5b806303c5b1dc14610204578063083c6323146102195780630dea2d5c146102355780630fdb1c101461026a575b600080fd5b61021761021236600461246c565b61057c565b005b61022260065481565b6040519081526020015b60405180910390f35b60015461025a9074010000000000000000000000000000000000000000900460ff1681565b604051901515815260200161022c565b610217610658565b61021761028036600461235e565b610834565b61022260035481565b600b546102229081565b6102176102a6366004612396565b6108a1565b43610222565b61022260055481565b6102176102c836600461248d565b610a98565b6102226102db3660046123c6565b610d73565b6102176102ee3660046122c7565b610e42565b610222610301366004612396565b610e8b565b61021761031436600461246c565b610f41565b610217610f83565b61022260025481565b600c546102229081565b6102226103423660046122c7565b600a60209081526000928352604080842090915290825290205481565b61022261036d366004612396565b610fbc565b600154604051600160a060020a03909116815260200161022c565b61022261039b366004612396565b610fe7565b6103ed6103ae366004612396565b600760205260009081526040902080546001820154600283015460038401546004850154600590950154600160a060020a039094169492939192909186565b60408051600160a060020a0390971687526020870195909552938501929092526060840152608083015260a082015260c00161022c565b6102176104323660046122c7565b611069565b6102176104453660046123f5565b611548565b61022260045481565b6104ad610461366004612396565b60086020526000908152604090208054600182015460028301546003840154600485015460058601546006909601549495600160a060020a039485169594909316939192909160ff1687565b60408051978852600160a060020a03968716602089015294909516938601939093526060850191909152608084015260a0830152151560c082015260e00161022c565b6102226104fe36600461228f565b60096020526000908152604090205481565b61052361051e36600461228f565b611731565b60405161022c91906124b8565b61021761053e366004612396565b61197e565b6102226105513660046123c6565b611a2a565b61021761056436600461228f565b611ac8565b6102176105773660046122f2565b611b80565b600154600160a060020a031633146105b25760405160e560020a62461bcd0281526004016105a9906125a5565b60405180910390fd5b4381116106045760405160e560020a62461bcd02815260206004820152601e60248201527f456e6420426c6f636b206d75737420626967676572207468616e206e6f77000060448201526064016105a9565b8181116106265760405160e560020a62461bcd0281526004016105a990612548565b6106308282612634565b60045461064090620f4240612615565b61064a91906125f2565b600255600591909155600655565b600154600160a060020a031633146106855760405160e560020a62461bcd0281526004016105a9906125a5565b60065443116106d95760405160e560020a62461bcd02815260206004820152601760248201527f5374616b696e67206973206e6f742066696e697368656400000000000000000060448201526064016105a9565b600d546040517f70a08231000000000000000000000000000000000000000000000000000000008152306004820152600091600160a060020a0316906370a082319060240160206040518083038186803b15801561073657600080fd5b505afa15801561074a573d6000803e3d6000fd5b505050506040513d601f19601f8201168201806040525081019061076e91906123ae565b600d54909150600160a060020a031663a9059cbb610794600154600160a060020a031690565b60405160e060020a63ffffffff8416028152600160a060020a03909116600482015260248101849052604401602060405180830381600087803b1580156107da57600080fd5b505af11580156107ee573d6000803e3d6000fd5b505050506040513d601f19601f82011682018060405250810190610812919061237a565b50506001805474ff000000000000000000000000000000000000000019169055565b600154600160a060020a031633146108615760405160e560020a62461bcd0281526004016105a9906125a5565b60018054911515740100000000000000000000000000000000000000000274ff000000000000000000000000000000000000000019909216919091179055565b60008181526008602052604090206002810154600160a060020a0316331461090e5760405160e560020a62461bcd02815260206004820152601160248201527f796f7520617265206e6f74206f776e657200000000000000000000000000000060448201526064016105a9565b600681015460ff161561098c5760405160e560020a62461bcd02815260206004820152602760248201527f54686973205374616b696e67204974656d2077617320756e7374616b6564206160448201527f6c7265616479210000000000000000000000000000000000000000000000000060648201526084016105a9565b6109998160050154611d4b565b6109a38233611e86565b600181015460038201546040517f23b872dd0000000000000000000000000000000000000000000000000000000081523060048201523360248201526044810191909152600160a060020a03909116906323b872dd90606401600060405180830381600087803b158015610a1657600080fd5b505af1158015610a2a573d6000803e3d6000fd5b50505060068201805460ff19166001179055506005808201546000908152600760205260408120909101805491610a608361264b565b9091555050336000908152600a60209081526040808320600585015484529091528120805491610a8f8361264b565b91905055505050565b600154600160a060020a03163314610ac55760405160e560020a62461bcd0281526004016105a9906125a5565b600d548390600160a060020a03166370a08231610aea600154600160a060020a031690565b60405160e060020a63ffffffff8416028152600160a060020a03909116600482015260240160206040518083038186803b158015610b2757600080fd5b505afa158015610b3b573d6000803e3d6000fd5b505050506040513d601f19601f82011682018060405250810190610b5f91906123ae565b1015610bd65760405160e560020a62461bcd02815260206004820152602360248201527f696e73756666696369656e74204d696c6b20616d6f756e7420746f204465706f60448201527f736974000000000000000000000000000000000000000000000000000000000060648201526084016105a9565b438111610c285760405160e560020a62461bcd02815260206004820152601e60248201527f456e6420426c6f636b206d75737420626967676572207468616e206e6f77000060448201526064016105a9565b818111610c4a5760405160e560020a62461bcd0281526004016105a990612548565b600d54600160a060020a03166323b872dd610c6d600154600160a060020a031690565b30610c8087670de0b6b3a7640000612615565b60405160e060020a63ffffffff8616028152600160a060020a0393841660048201529290911660248301526044820152606401602060405180830381600087803b158015610ccd57600080fd5b505af1158015610ce1573d6000803e3d6000fd5b505050506040513d601f19601f82011682018060405250810190610d05919061237a565b50600483905560058290556006819055610d1f8282612634565b610d2c84620f4240612615565b610d3691906125f2565b60025550506001805474ff000000000000000000000000000000000000000019167401000000000000000000000000000000000000000017905550565b60008060015b600c548111610e1c5760008181526008602052604090206006015460ff16158015610dcf5750600085815260076020908152604080832054848452600890925290912060010154600160a060020a039081169116145b8015610df75750600081815260086020526040902060020154600160a060020a038581169116145b15610e0a5781610e0681612662565b9250505b80610e1481612662565b915050610d79565b50600084815260076020526040812060020154610e399083612615565b95945050505050565b600154600160a060020a03163314610e6f5760405160e560020a62461bcd0281526004016105a9906125a5565b600160a060020a03909116600090815260096020526040902055565b60008181526008602052604081206004810154600590910154829081610eb082610fbc565b9050600654431115610ec6576006549250610eca565b4392505b600082815260076020526040902060028101546003546001830154600490930154849390610ef89088612634565b600254610f059190612615565b610f0f9190612615565b610f1991906125f2565b610f239190612615565b610f2d91906125f2565b610f3790856125da565b9695505050505050565b600154600160a060020a03163314610f6e5760405160e560020a62461bcd0281526004016105a9906125a5565b60009182526007602052604090912060050155565b600154600160a060020a03163314610fb05760405160e560020a62461bcd0281526004016105a9906125a5565b610fba6000612187565b565b600081815260076020526040812060028101546005909101548291610fe091612615565b9392505050565b600080610ff383610fbc565b905060008115610fe0576003546000858152600760205260409020600101546002548490611022906014612615565b61102d90603c612615565b611038906018612615565b611043906064612615565b61104d91906125f2565b6110579190612615565b61106191906125f2565b949350505050565b600260005414156110bf5760405160e560020a62461bcd02815260206004820152601f60248201527f5265656e7472616e637947756172643a207265656e7472616e742063616c6c0060448201526064016105a9565b60026000556040517f6352211e000000000000000000000000000000000000000000000000000000008152600481018290523390839083908390600160a060020a03841690636352211e9060240160206040518083038186803b15801561112557600080fd5b505afa158015611139573d6000803e3d6000fd5b505050506040513d601f19601f8201168201806040525081019061115d91906122ab565b600160a060020a0316146111b65760405160e560020a62461bcd02815260206004820152600960248201527f6e6f74206f776e6572000000000000000000000000000000000000000000000060448201526064016105a9565b600160a060020a03851660009081526009602052604090205460055443108015906111e357506006544311155b801561120d57506001805474010000000000000000000000000000000000000000900460ff161515145b61125c5760405160e560020a62461bcd02815260206004820152601760248201527f5374616b696e67206973206e6f7420737461727465642100000000000000000060448201526064016105a9565b806112d15760405160e560020a62461bcd028152602060048201526024808201527f5468657265206973206e6f20436f6e7472616374204164647265737320696e2060448201527f506f6f6c0000000000000000000000000000000000000000000000000000000060648201526084016105a9565b600081815260076020908152604080832060030154338452600a8352818420858552909252909120541061134a5760405160e560020a62461bcd02815260206004820152601d60248201527f4f766572666c6f77206f66204d6178205374616b696e6720436f756e7400000060448201526064016105a9565b61135381611d4b565b611361600c80546001019055565b600061136c600c5490565b6040805160e081018252828152600160a060020a038a8116602080840182815233858701818152606087018f815260006080890181815260a08a018e815260c08b018381528d84526008909852918b902099518a55945160018a01805473ffffffffffffffffffffffffffffffffffffffff19908116928b16929092179055925160028a01805490941698169790971790915551600387015590516004808701919091559351600586015590516006909401805460ff19169415159490941790935592517f23b872dd0000000000000000000000000000000000000000000000000000000081529081019190915230602482015260448101899052919250906323b872dd90606401600060405180830381600087803b15801561148e57600080fd5b505af11580156114a2573d6000803e3d6000fd5b505050600083815260076020526040812060050180549250906114c483612662565b9091555050336000908152600a6020908152604080832085845290915281208054916114ef83612662565b909155505060408051828152602081018890523391600160a060020a038a16917f4249649a2f5c977056f4db60e40a673eabf996b3ec3dc5b5b5713971888e6020910160405180910390a3505060016000555050505050565b600154600160a060020a031633146115755760405160e560020a62461bcd0281526004016105a9906125a5565b600b548711156115ca5760405160e560020a62461bcd02815260206004820152600e60248201527f696e76616c696420706f6f6c496400000000000000000000000000000000000060448201526064016105a9565b6000878152600760205260409020600101546003546115e99190612634565b6003556040805160e081018252600160a060020a038816815260208082018890528183018590526060820184905260008a8152600780835284822060058101546080860152918c905282526004015460a083015282518682028181018301909452868152919260c084019291889188918291908501908490808284376000920182905250939094525050898152600760209081526040918290208451815473ffffffffffffffffffffffffffffffffffffffff1916600160a060020a03909116178155848201516001820155918401516002830155606084015160038301556080840151600483015560a0840151600583015560c084015180519293506116f992600685019291909101906121e6565b505050600160a060020a03861660009081526009602052604090208790556003546117259086906125da565b60035550505050505050565b6060600061173e600c5490565b905060008060015b8381116117b057600081815260086020526040902060020154600160a060020a03878116911614801561178b575060008181526008602052604090206006015460ff16155b1561179e5761179b6001846125da565b92505b806117a881612662565b915050611746565b5060008267ffffffffffffffff8111156117dd5760e060020a634e487b7102600052604160045260246000fd5b60405190808252806020026020018201604052801561186257816020015b61184f6040518060e00160405280600081526020016000600160a060020a031681526020016000600160a060020a031681526020016000815260200160008152602001600081526020016000151581525090565b8152602001906001900390816117fb5790505b50905060015b84811161197457600081815260086020526040902060020154600160a060020a0388811691161480156118ad575060008181526008602052604090206006015460ff16155b1561196257600081815260086020908152604091829020825160e081018452815481526001820154600160a060020a03908116938201939093526002820154909216928201929092526003820154606082015260048201546080820152600582015460a0820152600682015460ff16151560c082015283518490869081106119485760e060020a634e487b7102600052603260045260246000fd5b602090810291909101015261195e6001856125da565b9350505b8061196c81612662565b915050611868565b5095945050505050565b61198781611d4b565b60015b600c548111611a2657600081815260086020526040902060020154600160a060020a0316331480156119ce575060008181526008602052604090206006015460ff16155b8015611a055750600081815260086020908152604080832060010154858452600790925290912054600160a060020a039081169116145b15611a1457611a148133611e86565b80611a1e81612662565b91505061198a565b5050565b60008060015b600c548111611ac05760008181526008602052604090206006015460ff16158015611a6b575060008181526008602052604090206005015485145b8015611a935750600081815260086020526040902060020154600160a060020a038581169116145b15611aae57611aa181610e8b565b611aab90836125da565b91505b80611ab881612662565b915050611a30565b509392505050565b600154600160a060020a03163314611af55760405160e560020a62461bcd0281526004016105a9906125a5565b600160a060020a038116611b745760405160e560020a62461bcd02815260206004820152602660248201527f4f776e61626c653a206e6577206f776e657220697320746865207a65726f206160448201527f646472657373000000000000000000000000000000000000000000000000000060648201526084016105a9565b611b7d81612187565b50565b600154600160a060020a03163314611bad5760405160e560020a62461bcd0281526004016105a9906125a5565b60055415801590611bbf575060065415155b611c0e5760405160e560020a62461bcd02815260206004820152601f60248201527f52657761726420546f6b656e206e6f74206465706f736974656420796574210060448201526064016105a9565b611c1c600b80546001019055565b6000611c27600b5490565b90506040518060e0016040528088600160a060020a031681526020018781526020018481526020018381526020016005548152602001600081526020018686808060200260200160405190810160405280939291908181526020018383602002808284376000920182905250939094525050838152600760209081526040918290208451815473ffffffffffffffffffffffffffffffffffffffff1916600160a060020a03909116178155848201516001820155918401516002830155606084015160038301556080840151600483015560a0840151600583015560c08401518051929350611d1f92600685019291909101906121e6565b505050600160a060020a03871660009081526009602052604090208190556003546117259087906125da565b6000600654431115611d605750600654611d63565b50435b60008281526007602052604081206002810154600590910154611d869190612615565b905060015b600c548111611e6f5760008181526008602052604090206006015460ff16158015611dc6575060008181526008602052604090206005015484145b15611e5d57600084815260076020526040812060028101546003546001830154600490930154869390611df99089612634565b600254611e069190612615565b611e109190612615565b611e1a91906125f2565b611e249190612615565b611e2e91906125f2565b905080600860008481526020019081526020016000206004016000828254611e5691906125da565b9091555050505b80611e6781612662565b915050611d8b565b505060009182526007602052604090912060040155565b6000828152600860205260409020600c54831115611ee95760405160e560020a62461bcd02815260206004820152600f60248201527f696e76616c6964204974656d204964000000000000000000000000000000000060448201526064016105a9565b600083815260086020526040902060020154600160a060020a03838116911614611f585760405160e560020a62461bcd02815260206004820152601660248201527f4e6f74206f776e6572206f662074686973204974656d0000000000000000000060448201526064016105a9565b60008381526008602052604090819020600490810154600d5492517f70a082310000000000000000000000000000000000000000000000000000000081523092810192909252918291600160a060020a03909116906370a082319060240160206040518083038186803b158015611fce57600080fd5b505afa158015611fe2573d6000803e3d6000fd5b505050506040513d601f19601f8201168201806040525081019061200691906123ae565b101561207d5760405160e560020a62461bcd02815260206004820152602360248201527f696e73756666696369656e74204d696c6b20616d6f756e7420746f206861727660448201527f657374000000000000000000000000000000000000000000000000000000000060648201526084016105a9565b600d546002830154600160a060020a039182169163a9059cbb91166120a78464e8d4a51000612615565b60405160e060020a63ffffffff8516028152600160a060020a0390921660048301526024820152604401602060405180830381600087803b1580156120eb57600080fd5b505af11580156120ff573d6000803e3d6000fd5b505050506040513d601f19601f82011682018060405250810190612123919061237a565b5060008481526008602090815260408083206004019290925560028401548251878152918201849052600160a060020a0316917f393ccd03ff98115189a2796d79ffa176e434468dbeea90a87972324be8c50718910160405180910390a250505050565b60018054600160a060020a0383811673ffffffffffffffffffffffffffffffffffffffff19831681179093556040519116919082907f8be0079c531659141344cd1fd0a4f28419497f9722a3daafe3b4186f6b6457e090600090a35050565b828054828255906000526020600020908101928215612221579160200282015b82811115612221578251825591602001919060010190612206565b5061222d929150612231565b5090565b5b8082111561222d5760008155600101612232565b60008083601f840112612257578182fd5b50813567ffffffffffffffff81111561226e578182fd5b602083019150836020808302850101111561228857600080fd5b9250929050565b6000602082840312156122a0578081fd5b8135610fe081612696565b6000602082840312156122bc578081fd5b8151610fe081612696565b600080604083850312156122d9578081fd5b82356122e481612696565b946020939093013593505050565b60008060008060008060a0878903121561230a578182fd5b863561231581612696565b955060208701359450604087013567ffffffffffffffff811115612337578283fd5b61234389828a01612246565b979a9699509760608101359660809091013595509350505050565b60006020828403121561236f578081fd5b8135610fe0816126ab565b60006020828403121561238b578081fd5b8151610fe0816126ab565b6000602082840312156123a7578081fd5b5035919050565b6000602082840312156123bf578081fd5b5051919050565b600080604083850312156123d8578182fd5b8235915060208301356123ea81612696565b809150509250929050565b600080600080600080600060c0888a03121561240f578081fd5b87359650602088013561242181612696565b955060408801359450606088013567ffffffffffffffff811115612443578182fd5b61244f8a828b01612246565b989b979a50959895979660808701359660a0013595509350505050565b6000806040838503121561247e578182fd5b50508035926020909101359150565b6000806000606084860312156124a1578283fd5b505081359360208301359350604090920135919050565b602080825282518282018190526000919060409081850190868401855b8281101561253b5781518051855286810151600160a060020a0390811688870152868201511686860152606080820151908601526080808201519086015260a0808201519086015260c09081015115159085015260e090930192908501906001016124d5565b5091979650505050505050565b60208082526034908201527f456e6420426c6f636b204e756d626572206d757374206269676765722074686160408201527f6e20537461727420426c6f636b204e756d626572000000000000000000000000606082015260800190565b6020808252818101527f4f776e61626c653a2063616c6c6572206973206e6f7420746865206f776e6572604082015260600190565b600082198211156125ed576125ed61267d565b500190565b6000826126105760e060020a634e487b710281526012600452602481fd5b500490565b600081600019048311821515161561262f5761262f61267d565b500290565b6000828210156126465761264661267d565b500390565b60008161265a5761265a61267d565b506000190190565b60006000198214156126765761267661267d565b5060010190565b60e060020a634e487b7102600052601160045260246000fd5b600160a060020a0381168114611b7d57600080fd5b8015158114611b7d57600080fdfea2646970667358221220bf815be378b1e5b6cb6bdabd523093f4f7f74a50eb3a550c812fb6ece119273064736f6c63430008040033",
  "immutableReferences": {},
  "source": "// SPDX-License-Identifier: MIT\r\npragma solidity ^0.8.4;\r\nimport \"@openzeppelin/contracts/utils/Counters.sol\";\r\nimport \"@openzeppelin/contracts/token/ERC721/ERC721.sol\";\r\nimport \"@openzeppelin/contracts/security/ReentrancyGuard.sol\";\r\nimport \"@openzeppelin/contracts/access/Ownable.sol\";\r\nimport \"./interfaces/IMilkToken.sol\";\r\n\r\ncontract Staking is ReentrancyGuard, Ownable {\r\n    using Counters for Counters.Counter;\r\n\r\n    bool public isStakingAvailable;\r\n    uint256 public milkPerBlock;\r\n    uint256 public totalAllocPoint;\r\n    uint256 public totalAmountDepositedPool;\r\n    uint256 public startBlock;\r\n    uint256 public endBlock;\r\n    \r\n    struct StakingItem {\r\n        uint256 itemId;\r\n        address contractAddress;\r\n        address owner;\r\n        uint256 tokenId;\r\n        uint256 pendingMilk;\r\n        uint256 poolId;\r\n        bool isEnded;\r\n    }\r\n\r\n    struct PoolInfo {\r\n        address contractAddress;\r\n        uint256 allocPoint;\r\n        uint256 milkPower;\r\n        uint256 maxStakeCount;\r\n        uint256 lastUpdatedBlock;\r\n        uint256 stakedCount;\r\n        uint256[] tokenIds;\r\n    }\r\n\r\n    mapping(uint256 => PoolInfo) public pools;\r\n    mapping(uint256 => StakingItem) public items;\r\n    mapping(address => uint256) public poolIdOfContract;\r\n    mapping(address => mapping(uint256 => uint256)) public stakedCountOfOwner;\r\n\r\n    Counters.Counter public stakingPoolCount;\r\n    Counters.Counter public stakingItemCount;\r\n    \r\n    IMilkToken tokenMilk;\r\n\r\n    event StakingItemCreated(\r\n        uint256 itemId,\r\n        address indexed nftContract,\r\n        address indexed owner,\r\n        uint256 tokenId\r\n    );\r\n\r\n    event Harvest(\r\n        uint256 itemId,\r\n        address indexed owner,\r\n        uint256 amount\r\n    );\r\n\r\n    constructor(IMilkToken _tokenMilk) {\r\n        tokenMilk = _tokenMilk;\r\n        totalAllocPoint = 0;\r\n        milkPerBlock = 0;\r\n        totalAmountDepositedPool = 0;\r\n        isStakingAvailable = false;\r\n    }\r\n\r\n    function depositMilkToPool(uint256 _totalAmountDepositedPool, uint256 _startBlock, uint256 _endBlock) public onlyOwner {\r\n        require(tokenMilk.balanceOf(owner()) >= _totalAmountDepositedPool, \"insufficient Milk amount to Deposit\");\r\n        require(_endBlock > block.number, \"End Block must bigger than now\");\r\n        require(_endBlock > _startBlock, \"End Block Number must bigger than Start Block Number\");\r\n        tokenMilk.transferFrom(owner(), address(this), _totalAmountDepositedPool * 10 ** 18);\r\n        \r\n        totalAmountDepositedPool = _totalAmountDepositedPool;\r\n        startBlock = _startBlock;\r\n        endBlock = _endBlock;\r\n        milkPerBlock = 10 ** 6 * _totalAmountDepositedPool / (_endBlock - _startBlock);\r\n        isStakingAvailable = true;\r\n    }\r\n\r\n    function setPeriod(uint256 _startBlock, uint256 _endBlock) public onlyOwner {\r\n        require(_endBlock > block.number, \"End Block must bigger than now\");\r\n        require(_endBlock > _startBlock, \"End Block Number must bigger than Start Block Number\");\r\n        milkPerBlock = 10 ** 6 * totalAmountDepositedPool / (_endBlock - _startBlock);\r\n        startBlock = _startBlock;\r\n        endBlock = _endBlock;\r\n    }    \r\n\r\n    function setIsStakingAvailable(bool _isStakingAvailable) public onlyOwner{\r\n        isStakingAvailable = _isStakingAvailable;\r\n    }\r\n\r\n    function addPool(address _contractAddress, uint256 _allocPoint, uint256[] calldata _tokenIds, uint256 _milkPower, uint256 _maxStakeCount) public onlyOwner {\r\n        require(startBlock != 0 && endBlock != 0, \"Reward Token not deposited yet!\");\r\n        stakingPoolCount.increment();\r\n        uint256 poolId = stakingPoolCount.current();\r\n\r\n        pools[poolId] = PoolInfo(\r\n            _contractAddress,\r\n            _allocPoint,\r\n            _milkPower,\r\n            _maxStakeCount,\r\n            startBlock,\r\n            0,\r\n            _tokenIds\r\n        );\r\n\r\n        poolIdOfContract[_contractAddress] = poolId;\r\n\r\n        totalAllocPoint = totalAllocPoint + _allocPoint;\r\n    }\r\n\r\n    function setPoolIdOfContract(address _contractAddress, uint256 _poolId) public onlyOwner {\r\n        poolIdOfContract[_contractAddress] = _poolId;\r\n    }\r\n\r\n    function setStakedCount(uint256 _poolId, uint256 _stakedCount) public onlyOwner {\r\n        pools[_poolId].stakedCount = _stakedCount;\r\n    }\r\n\r\n    function updatePool(\r\n        uint256 _poolId, \r\n        address _contractAddress, \r\n        uint256 _allocPoint, \r\n        uint256[] calldata _tokenIds,\r\n        uint256 _milkPower, \r\n        uint256 _maxStakeCount\r\n    ) public onlyOwner {\r\n        require(_poolId <= stakingPoolCount.current(), \"invalid poolId\");\r\n\r\n        totalAllocPoint = totalAllocPoint - pools[_poolId].allocPoint;\r\n\r\n        pools[_poolId] = PoolInfo(\r\n            _contractAddress,\r\n            _allocPoint,\r\n            _milkPower,\r\n            _maxStakeCount,\r\n            pools[_poolId].stakedCount,\r\n            pools[_poolId].lastUpdatedBlock,\r\n            _tokenIds\r\n        );\r\n\r\n        poolIdOfContract[_contractAddress] = _poolId;\r\n\r\n        totalAllocPoint = totalAllocPoint + _allocPoint;\r\n    }\r\n\r\n    modifier isValid(address _msgSender, address _contractAddress, uint256 _tokenId) {\r\n        require(IERC721(_contractAddress).ownerOf(_tokenId) == _msgSender, \"not owner\");\r\n        _;\r\n    }\r\n\r\n    function _updatePendingMilk(uint256 _poolId) internal {\r\n\r\n        /**Update the Pending Milk for All Items */\r\n        uint256 tmpEndBlock = 0;\r\n        if(block.number > endBlock)\r\n            tmpEndBlock = endBlock;\r\n        else \r\n            tmpEndBlock = block.number;\r\n        uint256 totalMilkPower =  pools[_poolId].stakedCount * pools[_poolId].milkPower;\r\n        for(uint256 i = 1; i <= stakingItemCount.current(); i ++) {\r\n            if(items[i].isEnded == false && items[i].poolId == _poolId) {\r\n                uint256 amount = milkPerBlock * (tmpEndBlock - pools[_poolId].lastUpdatedBlock) *  pools[_poolId].allocPoint / totalAllocPoint * pools[_poolId].milkPower / totalMilkPower;  \r\n                items[i].pendingMilk += amount;\r\n            }\r\n        }\r\n        pools[_poolId].lastUpdatedBlock = tmpEndBlock;\r\n        /**End Update */\r\n    }\r\n\r\n    function stake(\r\n        address _nftContract,\r\n        uint256 _tokenId\r\n    ) public nonReentrant isValid(msg.sender, _nftContract, _tokenId) {\r\n\r\n        uint256 poolId = poolIdOfContract[_nftContract];\r\n\r\n        require(block.number >= startBlock && block.number <= endBlock && isStakingAvailable == true, \"Staking is not started!\");\r\n        require(poolId != 0, \"There is no Contract Address in Pool\");\r\n        require(stakedCountOfOwner[msg.sender][poolId] < pools[poolId].maxStakeCount, \"Overflow of Max Staking Count\");\r\n\r\n        _updatePendingMilk(poolId);\r\n\r\n        stakingItemCount.increment();\r\n        uint256 itemId = stakingItemCount.current();\r\n\r\n        items[itemId] = StakingItem(\r\n            itemId,\r\n            _nftContract,\r\n            msg.sender,\r\n            _tokenId,\r\n            0,\r\n            poolId,\r\n            false\r\n        );\r\n\r\n        IERC721(_nftContract).transferFrom(msg.sender, address(this), _tokenId);\r\n\r\n        pools[poolId].stakedCount ++;\r\n        stakedCountOfOwner[msg.sender][poolId] ++;        \r\n\r\n        emit StakingItemCreated(\r\n            itemId,\r\n            _nftContract,\r\n            msg.sender,\r\n            _tokenId\r\n        );\r\n    }\r\n\r\n    function getAllocPoint(uint256 _itemId) internal view returns(uint256) {\r\n        for(uint256 i = 1; i <= stakingPoolCount.current(); i++) {\r\n            if (pools[i].contractAddress == items[_itemId].contractAddress) {\r\n                return pools[i].allocPoint;\r\n            }\r\n        }\r\n        return 0;\r\n    }\r\n    function _harvest(\r\n        uint256 _itemId,\r\n        address _owner\r\n    ) internal {\r\n        StakingItem storage item = items[_itemId];\r\n        require(_itemId <= stakingItemCount.current(), \"invalid Item Id\");\r\n        require(_owner == items[_itemId].owner, \"Not owner of this Item\" );\r\n\r\n        uint256 amount = items[_itemId].pendingMilk;\r\n        require(tokenMilk.balanceOf(address(this)) >= amount, \"insufficient Milk amount to harvest\");\r\n\r\n        tokenMilk.transfer(item.owner, amount * 10 ** 12);\r\n        items[_itemId].pendingMilk = 0;\r\n        emit Harvest(_itemId, item.owner, amount);\r\n    }\r\n\r\n    function harvest(uint256 _poolId) public {\r\n\r\n        _updatePendingMilk(_poolId);\r\n        for(uint256 i = 1; i <= stakingItemCount.current(); i ++) {\r\n            if(items[i].owner == msg.sender && items[i].isEnded == false && pools[_poolId].contractAddress == items[i].contractAddress) {\r\n                _harvest(i, msg.sender);\r\n            }\r\n        }\r\n    }\r\n\r\n    function getPendingMilk(uint256 _itemId) public view returns(uint256){\r\n        uint256 amount = items[_itemId].pendingMilk;\r\n        uint256 tmpEndBlock = 0;\r\n        uint256 poolId = items[_itemId].poolId;\r\n        uint256 totalMilkPower = getTotalMilkPower(poolId);\r\n        if(block.number > endBlock)\r\n            tmpEndBlock = endBlock;\r\n        else \r\n            tmpEndBlock = block.number;\r\n        amount += milkPerBlock * (tmpEndBlock - pools[poolId].lastUpdatedBlock) *  pools[poolId].allocPoint / totalAllocPoint * pools[poolId].milkPower / totalMilkPower;\r\n        return amount;\r\n    }\r\n\r\n    function getPendingMilkForAll(uint256 _poolId, address _owner) public view returns(uint256){\r\n        uint256 amount = 0;\r\n        for(uint256 i = 1; i <= stakingItemCount.current(); i ++) {\r\n            if(!items[i].isEnded && items[i].poolId == _poolId && items[i].owner == _owner)\r\n                amount += getPendingMilk(i);\r\n        }\r\n        \r\n        return amount;\r\n    }\r\n\r\n    function getStakedItems(address _owner) public view returns(StakingItem[] memory){\r\n        uint256 totalItemCount = stakingItemCount.current();\r\n        uint256 itemCount = 0;\r\n        uint256 currentIndex = 0;\r\n\r\n        for(uint256 i = 1; i <= totalItemCount; i ++) {\r\n            if(_owner == items[i].owner && items[i].isEnded == false) {\r\n                itemCount += 1;\r\n            }\r\n        }\r\n\r\n        StakingItem[] memory stakedItems = new StakingItem[](itemCount);\r\n    \r\n        for (uint256 i = 1; i <= totalItemCount; i ++) {\r\n            if(_owner == items[i].owner && items[i].isEnded == false) {\r\n                StakingItem storage currentItem = items[i];\r\n                stakedItems[currentIndex] = currentItem;\r\n                currentIndex += 1;\r\n            }\r\n        }\r\n\r\n        return stakedItems;\r\n\r\n    }\r\n   \r\n    function getBlockNumber() public view returns(uint256) {\r\n        return block.number;\r\n    }\r\n\r\n    function getTotalMilkPower(uint256 _poolId) public view returns(uint256) {\r\n        uint256 totalMilkPower =  pools[_poolId].stakedCount * pools[_poolId].milkPower;\r\n        return totalMilkPower;\r\n    }\r\n\r\n    function getMyMilkPower(uint256 _poolId, address _owner) public view returns(uint256) {\r\n        uint256 count = 0;\r\n        for(uint256 i = 1; i <= stakingItemCount.current(); i ++)\r\n        {\r\n            if(items[i].isEnded == false && items[i].contractAddress == pools[_poolId].contractAddress && items[i].owner == _owner) {\r\n                count ++;\r\n            }\r\n        }\r\n        uint256 myMilkPower =  count * pools[_poolId].milkPower;\r\n        return myMilkPower;\r\n    }\r\n\r\n    function getDailyMilkRate(uint256 _poolId) public view returns(uint256) {\r\n        uint256 totalMilkPower = getTotalMilkPower(_poolId);\r\n        uint256 dailyRate = 0;\r\n        if(totalMilkPower != 0)\r\n            dailyRate = milkPerBlock * 20 * 60 * 24 * 100 / totalMilkPower * pools[_poolId].allocPoint / totalAllocPoint;\r\n        return dailyRate;\r\n    }\r\n\r\n    function unstake(\r\n        uint256 _itemId\r\n    ) public {\r\n        StakingItem storage item = items[_itemId];\r\n\r\n        require(item.owner == msg.sender, \"you are not owner\");\r\n        require(item.isEnded == false, \"This Staking Item was unstaked already!\");\r\n\r\n        _updatePendingMilk(item.poolId);\r\n\r\n        _harvest(_itemId, msg.sender);\r\n        IERC721(item.contractAddress).transferFrom(address(this), msg.sender, item.tokenId);\r\n        item.isEnded = true;\r\n        pools[item.poolId].stakedCount --;\r\n        stakedCountOfOwner[msg.sender][item.poolId] --; \r\n    }\r\n\r\n    function withDraw() public onlyOwner {\r\n        require(block.number > endBlock, \"Staking is not finished\");\r\n        uint256 remainBalance = tokenMilk.balanceOf(address(this));\r\n        tokenMilk.transfer(owner(), remainBalance);\r\n        isStakingAvailable = false;\r\n    }\r\n}\r\n",
  "sourcePath": "E:\\Git for Project\\Ethereum\\NFT\\CashCow\\nft-contracts\\contracts\\Staking.sol",
  "compiler": {
    "name": "solc",
    "version": "0.8.4+commit.c7e474f2.Emscripten.clang"
  },
  "schemaVersion": "3.4.2",
  "updatedAt": "2022-02-16T15:54:56.631Z",
  "networkType": "ethereum",
  "devdoc": {
    "kind": "dev",
    "methods": {
      "owner()": {
        "details": "Returns the address of the current owner."
      },
      "renounceOwnership()": {
        "details": "Leaves the contract without owner. It will not be possible to call `onlyOwner` functions anymore. Can only be called by the current owner. NOTE: Renouncing ownership will leave the contract without an owner, thereby removing any functionality that is only available to the owner."
      },
      "transferOwnership(address)": {
        "details": "Transfers ownership of the contract to a new account (`newOwner`). Can only be called by the current owner."
      }
    },
    "version": 1
  },
  "userdoc": {
    "kind": "user",
    "methods": {},
    "version": 1
  }
}