{
  "contractName": "Staking",
  "abi": [
    {
      "inputs": [
        {
          "internalType": "contract IMilkToken",
          "name": "_tokenMilk",
          "type": "address"
        }
      ],
      "stateMutability": "nonpayable",
      "type": "constructor"
    },
    {
      "anonymous": false,
      "inputs": [
        {
          "indexed": false,
          "internalType": "uint256",
          "name": "itemId",
          "type": "uint256"
        },
        {
          "indexed": true,
          "internalType": "address",
          "name": "owner",
          "type": "address"
        },
        {
          "indexed": false,
          "internalType": "uint256",
          "name": "amount",
          "type": "uint256"
        }
      ],
      "name": "Harvest",
      "type": "event"
    },
    {
      "anonymous": false,
      "inputs": [
        {
          "indexed": true,
          "internalType": "address",
          "name": "previousOwner",
          "type": "address"
        },
        {
          "indexed": true,
          "internalType": "address",
          "name": "newOwner",
          "type": "address"
        }
      ],
      "name": "OwnershipTransferred",
      "type": "event"
    },
    {
      "anonymous": false,
      "inputs": [
        {
          "indexed": false,
          "internalType": "uint256",
          "name": "itemId",
          "type": "uint256"
        },
        {
          "indexed": true,
          "internalType": "address",
          "name": "nftContract",
          "type": "address"
        },
        {
          "indexed": true,
          "internalType": "address",
          "name": "owner",
          "type": "address"
        },
        {
          "indexed": false,
          "internalType": "uint256",
          "name": "tokenId",
          "type": "uint256"
        }
      ],
      "name": "StakingItemCreated",
      "type": "event"
    },
    {
      "inputs": [],
      "name": "endBlock",
      "outputs": [
        {
          "internalType": "uint256",
          "name": "",
          "type": "uint256"
        }
      ],
      "stateMutability": "view",
      "type": "function"
    },
    {
      "inputs": [],
      "name": "isStakingAvailable",
      "outputs": [
        {
          "internalType": "bool",
          "name": "",
          "type": "bool"
        }
      ],
      "stateMutability": "view",
      "type": "function"
    },
    {
      "inputs": [
        {
          "internalType": "uint256",
          "name": "",
          "type": "uint256"
        }
      ],
      "name": "items",
      "outputs": [
        {
          "internalType": "uint256",
          "name": "itemId",
          "type": "uint256"
        },
        {
          "internalType": "address",
          "name": "contractAddress",
          "type": "address"
        },
        {
          "internalType": "address",
          "name": "owner",
          "type": "address"
        },
        {
          "internalType": "uint256",
          "name": "tokenId",
          "type": "uint256"
        },
        {
          "internalType": "uint256",
          "name": "poolId",
          "type": "uint256"
        },
        {
          "internalType": "bool",
          "name": "isEnded",
          "type": "bool"
        }
      ],
      "stateMutability": "view",
      "type": "function"
    },
    {
      "inputs": [],
      "name": "milkPerBlock",
      "outputs": [
        {
          "internalType": "uint256",
          "name": "",
          "type": "uint256"
        }
      ],
      "stateMutability": "view",
      "type": "function"
    },
    {
      "inputs": [],
      "name": "owner",
      "outputs": [
        {
          "internalType": "address",
          "name": "",
          "type": "address"
        }
      ],
      "stateMutability": "view",
      "type": "function"
    },
    {
      "inputs": [
        {
          "internalType": "address",
          "name": "",
          "type": "address"
        }
      ],
      "name": "poolIdOfContract",
      "outputs": [
        {
          "internalType": "uint256",
          "name": "",
          "type": "uint256"
        }
      ],
      "stateMutability": "view",
      "type": "function"
    },
    {
      "inputs": [
        {
          "internalType": "uint256",
          "name": "",
          "type": "uint256"
        }
      ],
      "name": "pools",
      "outputs": [
        {
          "internalType": "address",
          "name": "contractAddress",
          "type": "address"
        },
        {
          "internalType": "uint256",
          "name": "allocPoint",
          "type": "uint256"
        },
        {
          "internalType": "uint256",
          "name": "milkPower",
          "type": "uint256"
        },
        {
          "internalType": "uint256",
          "name": "maxStakeCount",
          "type": "uint256"
        },
        {
          "internalType": "uint256",
          "name": "stakedCount",
          "type": "uint256"
        }
      ],
      "stateMutability": "view",
      "type": "function"
    },
    {
      "inputs": [],
      "name": "renounceOwnership",
      "outputs": [],
      "stateMutability": "nonpayable",
      "type": "function"
    },
    {
      "inputs": [
        {
          "internalType": "uint256",
          "name": "",
          "type": "uint256"
        },
        {
          "internalType": "uint256",
          "name": "",
          "type": "uint256"
        }
      ],
      "name": "stakedUsers",
      "outputs": [
        {
          "internalType": "address",
          "name": "",
          "type": "address"
        }
      ],
      "stateMutability": "view",
      "type": "function"
    },
    {
      "inputs": [],
      "name": "stakingItemCount",
      "outputs": [
        {
          "internalType": "uint256",
          "name": "_value",
          "type": "uint256"
        }
      ],
      "stateMutability": "view",
      "type": "function"
    },
    {
      "inputs": [],
      "name": "stakingPoolCount",
      "outputs": [
        {
          "internalType": "uint256",
          "name": "_value",
          "type": "uint256"
        }
      ],
      "stateMutability": "view",
      "type": "function"
    },
    {
      "inputs": [],
      "name": "startBlock",
      "outputs": [
        {
          "internalType": "uint256",
          "name": "",
          "type": "uint256"
        }
      ],
      "stateMutability": "view",
      "type": "function"
    },
    {
      "inputs": [],
      "name": "totalAllocPoint",
      "outputs": [
        {
          "internalType": "uint256",
          "name": "",
          "type": "uint256"
        }
      ],
      "stateMutability": "view",
      "type": "function"
    },
    {
      "inputs": [],
      "name": "totalAmountDepositedPool",
      "outputs": [
        {
          "internalType": "uint256",
          "name": "",
          "type": "uint256"
        }
      ],
      "stateMutability": "view",
      "type": "function"
    },
    {
      "inputs": [
        {
          "internalType": "address",
          "name": "newOwner",
          "type": "address"
        }
      ],
      "name": "transferOwnership",
      "outputs": [],
      "stateMutability": "nonpayable",
      "type": "function"
    },
    {
      "inputs": [
        {
          "internalType": "address",
          "name": "",
          "type": "address"
        },
        {
          "internalType": "uint256",
          "name": "",
          "type": "uint256"
        }
      ],
      "name": "userInfo",
      "outputs": [
        {
          "internalType": "bool",
          "name": "isStaked",
          "type": "bool"
        },
        {
          "internalType": "uint256",
          "name": "pendingMilk",
          "type": "uint256"
        },
        {
          "internalType": "uint256",
          "name": "userMilkPower",
          "type": "uint256"
        },
        {
          "internalType": "uint256",
          "name": "stakedCount",
          "type": "uint256"
        },
        {
          "internalType": "uint256",
          "name": "lastHarvestBlock",
          "type": "uint256"
        }
      ],
      "stateMutability": "view",
      "type": "function"
    },
    {
      "inputs": [
        {
          "internalType": "uint256",
          "name": "",
          "type": "uint256"
        },
        {
          "internalType": "uint256",
          "name": "",
          "type": "uint256"
        }
      ],
      "name": "whitelistedTokenIds",
      "outputs": [
        {
          "internalType": "bool",
          "name": "",
          "type": "bool"
        }
      ],
      "stateMutability": "view",
      "type": "function"
    },
    {
      "inputs": [
        {
          "internalType": "uint256",
          "name": "_totalAmountDepositedPool",
          "type": "uint256"
        },
        {
          "internalType": "uint256",
          "name": "_startBlock",
          "type": "uint256"
        },
        {
          "internalType": "uint256",
          "name": "_endBlock",
          "type": "uint256"
        }
      ],
      "name": "depositMilkToPool",
      "outputs": [],
      "stateMutability": "nonpayable",
      "type": "function"
    },
    {
      "inputs": [
        {
          "internalType": "uint256",
          "name": "_amountReward",
          "type": "uint256"
        }
      ],
      "name": "addMilkReward",
      "outputs": [],
      "stateMutability": "nonpayable",
      "type": "function"
    },
    {
      "inputs": [
        {
          "internalType": "uint256",
          "name": "_startBlock",
          "type": "uint256"
        },
        {
          "internalType": "uint256",
          "name": "_endBlock",
          "type": "uint256"
        }
      ],
      "name": "setPeriod",
      "outputs": [],
      "stateMutability": "nonpayable",
      "type": "function"
    },
    {
      "inputs": [
        {
          "internalType": "bool",
          "name": "_isStakingAvailable",
          "type": "bool"
        }
      ],
      "name": "setIsStakingAvailable",
      "outputs": [],
      "stateMutability": "nonpayable",
      "type": "function"
    },
    {
      "inputs": [
        {
          "internalType": "address",
          "name": "_contractAddress",
          "type": "address"
        },
        {
          "internalType": "uint256",
          "name": "_allocPoint",
          "type": "uint256"
        },
        {
          "internalType": "uint256",
          "name": "_milkPower",
          "type": "uint256"
        },
        {
          "internalType": "uint256",
          "name": "_maxStakeCount",
          "type": "uint256"
        }
      ],
      "name": "addPool",
      "outputs": [],
      "stateMutability": "nonpayable",
      "type": "function"
    },
    {
      "inputs": [
        {
          "internalType": "address",
          "name": "_contractAddress",
          "type": "address"
        },
        {
          "internalType": "uint256",
          "name": "_poolId",
          "type": "uint256"
        }
      ],
      "name": "setPoolIdOfContract",
      "outputs": [],
      "stateMutability": "nonpayable",
      "type": "function"
    },
    {
      "inputs": [
        {
          "internalType": "uint256",
          "name": "_poolId",
          "type": "uint256"
        },
        {
          "internalType": "uint256",
          "name": "_stakedCount",
          "type": "uint256"
        }
      ],
      "name": "setStakedCount",
      "outputs": [],
      "stateMutability": "nonpayable",
      "type": "function"
    },
    {
      "inputs": [
        {
          "internalType": "uint256",
          "name": "_poolId",
          "type": "uint256"
        },
        {
          "internalType": "address",
          "name": "_contractAddress",
          "type": "address"
        },
        {
          "internalType": "uint256",
          "name": "_allocPoint",
          "type": "uint256"
        },
        {
          "internalType": "uint256",
          "name": "_milkPower",
          "type": "uint256"
        },
        {
          "internalType": "uint256",
          "name": "_maxStakeCount",
          "type": "uint256"
        }
      ],
      "name": "updatePool",
      "outputs": [],
      "stateMutability": "nonpayable",
      "type": "function"
    },
    {
      "inputs": [
        {
          "internalType": "uint256",
          "name": "_poolId",
          "type": "uint256"
        },
        {
          "internalType": "uint256[]",
          "name": "_tokenIds",
          "type": "uint256[]"
        }
      ],
      "name": "setTokenIds",
      "outputs": [],
      "stateMutability": "nonpayable",
      "type": "function"
    },
    {
      "inputs": [
        {
          "internalType": "address",
          "name": "_nftContract",
          "type": "address"
        },
        {
          "internalType": "uint256",
          "name": "_tokenId",
          "type": "uint256"
        }
      ],
      "name": "stake",
      "outputs": [],
      "stateMutability": "nonpayable",
      "type": "function"
    },
    {
      "inputs": [
        {
          "internalType": "uint256",
          "name": "_poolId",
          "type": "uint256"
        }
      ],
      "name": "harvest",
      "outputs": [],
      "stateMutability": "nonpayable",
      "type": "function"
    },
    {
      "inputs": [
        {
          "internalType": "uint256",
          "name": "_poolId",
          "type": "uint256"
        },
        {
          "internalType": "address",
          "name": "_owner",
          "type": "address"
        }
      ],
      "name": "getPendingMilk",
      "outputs": [
        {
          "internalType": "uint256",
          "name": "",
          "type": "uint256"
        }
      ],
      "stateMutability": "view",
      "type": "function"
    },
    {
      "inputs": [
        {
          "internalType": "uint256",
          "name": "_poolId",
          "type": "uint256"
        }
      ],
      "name": "getWhitelistedTokenIds",
      "outputs": [
        {
          "internalType": "uint256[]",
          "name": "",
          "type": "uint256[]"
        }
      ],
      "stateMutability": "view",
      "type": "function"
    },
    {
      "inputs": [
        {
          "internalType": "address",
          "name": "_owner",
          "type": "address"
        }
      ],
      "name": "getStakedItems",
      "outputs": [
        {
          "components": [
            {
              "internalType": "uint256",
              "name": "itemId",
              "type": "uint256"
            },
            {
              "internalType": "address",
              "name": "contractAddress",
              "type": "address"
            },
            {
              "internalType": "address",
              "name": "owner",
              "type": "address"
            },
            {
              "internalType": "uint256",
              "name": "tokenId",
              "type": "uint256"
            },
            {
              "internalType": "uint256",
              "name": "poolId",
              "type": "uint256"
            },
            {
              "internalType": "bool",
              "name": "isEnded",
              "type": "bool"
            }
          ],
          "internalType": "struct Staking.StakingItem[]",
          "name": "",
          "type": "tuple[]"
        }
      ],
      "stateMutability": "view",
      "type": "function"
    },
    {
      "inputs": [],
      "name": "getBlockNumber",
      "outputs": [
        {
          "internalType": "uint256",
          "name": "",
          "type": "uint256"
        }
      ],
      "stateMutability": "view",
      "type": "function"
    },
    {
      "inputs": [
        {
          "internalType": "uint256",
          "name": "_poolId",
          "type": "uint256"
        }
      ],
      "name": "getTotalMilkPower",
      "outputs": [
        {
          "internalType": "uint256",
          "name": "",
          "type": "uint256"
        }
      ],
      "stateMutability": "view",
      "type": "function"
    },
    {
      "inputs": [
        {
          "internalType": "uint256",
          "name": "_poolId",
          "type": "uint256"
        },
        {
          "internalType": "address",
          "name": "_owner",
          "type": "address"
        }
      ],
      "name": "getMyMilkPower",
      "outputs": [
        {
          "internalType": "uint256",
          "name": "",
          "type": "uint256"
        }
      ],
      "stateMutability": "view",
      "type": "function"
    },
    {
      "inputs": [
        {
          "internalType": "uint256",
          "name": "_poolId",
          "type": "uint256"
        }
      ],
      "name": "getDailyMilkRate",
      "outputs": [
        {
          "internalType": "uint256",
          "name": "",
          "type": "uint256"
        }
      ],
      "stateMutability": "view",
      "type": "function"
    },
    {
      "inputs": [
        {
          "internalType": "uint256",
          "name": "_itemId",
          "type": "uint256"
        }
      ],
      "name": "unstake",
      "outputs": [],
      "stateMutability": "nonpayable",
      "type": "function"
    },
    {
      "inputs": [],
      "name": "withdraw",
      "outputs": [],
      "stateMutability": "nonpayable",
      "type": "function"
    }
  ],
  "bytecode": "0x60806040523480156200001157600080fd5b5060405162002e5438038062002e548339810160408190526200003491620000fa565b60016000556200005f62000050640100000000620000a4810204565b640100000000620000a8810204565b600f8054600160a060020a031916600160a060020a03929092169190911790556000600381905560028190556004556001805460a060020a60ff02191690556200012a565b3390565b60018054600160a060020a03838116600160a060020a0319831681179093556040519116919082907f8be0079c531659141344cd1fd0a4f28419497f9722a3daafe3b4186f6b6457e090600090a35050565b6000602082840312156200010c578081fd5b8151600160a060020a038116811462000123578182fd5b9392505050565b612d1a806200013a6000396000f3fe608060405234801561001057600080fd5b506004361061022b5760003560e060020a9004806371a80ed611610134578063ac4afa38116100bc578063d06cd51811610080578063d06cd518146105f4578063d5dfc26514610614578063ddc6326214610634578063ee15a32114610647578063f2fde38b1461066757600080fd5b8063ac4afa38146104be578063adc9772e14610537578063bb7a80541461054a578063bfb231d214610553578063c84bbd6a146105e157600080fd5b8063872c7a5011610103578063872c7a501461044d5780638da5cb5b146104605780639c5a854014610485578063a3757b1914610498578063abe02271146104ab57600080fd5b806371a80ed6146104145780637506f534146104275780637e52a67414610430578063811e1cf91461044357600080fd5b80633ccfd60b116101b75780635119913c116101865780635119913c1461039d57806353dc4ae1146103d35780635a4ec0ca146103e65780636b16b1be146103f9578063715018a61461040c57600080fd5b80633ccfd60b1461037357806342cbb15c1461037b57806348cd4cb1146103815780634b8e4ace1461038a57600080fd5b806317caf6f1116101fe57806317caf6f1146102a957806321ce919d146102b2578063241f2570146103285780632dd96be9146103565780632e17de781461036057600080fd5b806303c5b1dc14610230578063083c6323146102455780630dea2d5c1461026157806315a7319714610296575b600080fd5b61024361023e3660046129dc565b61067a565b005b61024e60065481565b6040519081526020015b60405180910390f35b6001546102869074010000000000000000000000000000000000000000900460ff1681565b6040519015158152602001610258565b6102436102a4366004612885565b6108bf565b61024e60035481565b6102fe6102c0366004612820565b600a6020908152600092835260408084209091529082529020805460018201546002830154600384015460049094015460ff90931693919290919085565b6040805195151586526020860194909452928401919091526060830152608082015260a001610258565b6102866103363660046129dc565b600b60209081526000928352604080842090915290825290205460ff1681565b600d5461024e9081565b61024361036e3660046128bd565b61092c565b610243610b68565b4361024e565b61024e60055481565b6102436103983660046129fd565b610d44565b61024e6103ab3660046128ed565b600160a060020a03166000908152600a60209081526040808320938352929052206002015490565b6102436103e1366004612820565b610fc8565b6102436103f436600461284b565b611011565b6102436104073660046129dc565b611193565b6102436111d5565b6102436104223660046128bd565b61120e565b61024e60025481565b61024361043e36600461291c565b61157a565b600e5461024e9081565b61024e61045b3660046128bd565b611769565b600154600160a060020a03165b604051600160a060020a039091168152602001610258565b61024e6104933660046128bd565b611794565b6102436104a6366004612963565b611816565b61046d6104b93660046129dc565b61196f565b6105056104cc3660046128bd565b60076020526000908152604090208054600182015460028301546003840154600490940154600160a060020a0390931693919290919085565b60408051600160a060020a0390961686526020860194909452928401919091526060830152608082015260a001610258565b610243610545366004612820565b6119a7565b61024e60045481565b6105a66105613660046128bd565b6008602052600090815260409020805460018201546002830154600384015460048501546005909501549394600160a060020a03938416949290931692909160ff1686565b60408051968752600160a060020a039586166020880152939094169285019290925260608401526080830152151560a082015260c001610258565b61024e6105ef3660046128ed565b611fc3565b61024e6106023660046127e8565b60096020526000908152604090205481565b6106276106223660046127e8565b6120b1565b6040516102589190612a4c565b6102436106423660046128bd565b6122cf565b61065a6106553660046128bd565b6124d1565b6040516102589190612ad2565b6102436106753660046127e8565b612536565b600154600160a060020a031633146106b05760405160e560020a62461bcd0281526004016106a790612bd0565b60405180910390fd5b4381116107025760405160e560020a62461bcd02815260206004820152601e60248201527f456e6420426c6f636b206d75737420626967676572207468616e206e6f77000060448201526064016106a7565b8181116107245760405160e560020a62461bcd0281526004016106a790612b16565b4382106107765760405160e560020a62461bcd02815260206004820152601d60248201527f537461727420426c6f636b206973206e6f74206176616c6961626c652100000060448201526064016106a7565b600060015b600d5481116108885760005b6000828152600c6020526040902054811015610875576000828152600c6020526040902080546107ee918491849081106107d45760e060020a634e487b7102600052603260045260246000fd5b600091825260209091200154600160a060020a03166125ee565b6000828152600c602052604081208054600a929190849081106108245760e060020a634e487b7102600052603260045260246000fd5b6000918252602080832090910154600160a060020a0316835282810193909352604091820181208582529092529020600101546108619084612c05565b92508061086d81612c8d565b915050610787565b508061088081612c8d565b91505061077b565b506000816004546108999190612c5f565b90506108a54384612c5f565b6108af9082612c1d565b6002555050600591909155600655565b600154600160a060020a031633146108ec5760405160e560020a62461bcd0281526004016106a790612bd0565b60018054911515740100000000000000000000000000000000000000000274ff000000000000000000000000000000000000000019909216919091179055565b60008181526008602052604090206002810154600160a060020a031633146109995760405160e560020a62461bcd02815260206004820152601160248201527f796f7520617265206e6f74206f776e657200000000000000000000000000000060448201526064016106a7565b600581015460ff1615610a175760405160e560020a62461bcd02815260206004820152602760248201527f54686973205374616b696e67204974656d2077617320756e7374616b6564206160448201527f6c7265616479210000000000000000000000000000000000000000000000000060648201526084016106a7565b610a258160040154336125ee565b610a3281600401546122cf565b600181015460038201546040517f23b872dd000000000000000000000000000000000000000000000000000000008152600160a060020a03909216916323b872dd91610a849130913391600401612a28565b600060405180830381600087803b158015610a9e57600080fd5b505af1158015610ab2573d6000803e3d6000fd5b50505060058201805460ff19166001179055506004808201546000908152600760205260408120909101805491610ae883612c76565b909155505060048101546000818152600760209081526040808320600290810154338552600a8452828520958552949092528220018054909190610b2d908490612c5f565b9091555050336000908152600a60209081526040808320600485015484529091528120600301805491610b5f83612c76565b91905055505050565b600154600160a060020a03163314610b955760405160e560020a62461bcd0281526004016106a790612bd0565b6006544311610be95760405160e560020a62461bcd02815260206004820152601760248201527f5374616b696e67206973206e6f742066696e697368656400000000000000000060448201526064016106a7565b600f546040517f70a08231000000000000000000000000000000000000000000000000000000008152306004820152600091600160a060020a0316906370a082319060240160206040518083038186803b158015610c4657600080fd5b505afa158015610c5a573d6000803e3d6000fd5b505050506040513d601f19601f82011682018060405250810190610c7e91906128d5565b600f54909150600160a060020a031663a9059cbb610ca4600154600160a060020a031690565b60405160e060020a63ffffffff8416028152600160a060020a03909116600482015260248101849052604401602060405180830381600087803b158015610cea57600080fd5b505af1158015610cfe573d6000803e3d6000fd5b505050506040513d601f19601f82011682018060405250810190610d2291906128a1565b50506001805474ff000000000000000000000000000000000000000019169055565b600154600160a060020a03163314610d715760405160e560020a62461bcd0281526004016106a790612bd0565b610d8383670de0b6b3a7640000612c40565b600f54600160a060020a03166370a08231610da6600154600160a060020a031690565b60405160e060020a63ffffffff8416028152600160a060020a03909116600482015260240160206040518083038186803b158015610de357600080fd5b505afa158015610df7573d6000803e3d6000fd5b505050506040513d601f19601f82011682018060405250810190610e1b91906128d5565b1015610e3c5760405160e560020a62461bcd0281526004016106a790612b73565b438111610e8e5760405160e560020a62461bcd02815260206004820152601e60248201527f456e6420426c6f636b206d75737420626967676572207468616e206e6f77000060448201526064016106a7565b818111610eb05760405160e560020a62461bcd0281526004016106a790612b16565b600f54600160a060020a03166323b872dd610ed3600154600160a060020a031690565b30610ee687670de0b6b3a7640000612c40565b6040518463ffffffff1660e060020a028152600401610f0793929190612a28565b602060405180830381600087803b158015610f2157600080fd5b505af1158015610f35573d6000803e3d6000fd5b505050506040513d601f19601f82011682018060405250810190610f5991906128a1565b50610f6783620f4240612c40565b60045560058290556006819055610f7e8282612c5f565b600454610f8b9190612c1d565b60025550506001805474ff000000000000000000000000000000000000000019167401000000000000000000000000000000000000000017905550565b600154600160a060020a03163314610ff55760405160e560020a62461bcd0281526004016106a790612bd0565b600160a060020a03909116600090815260096020526040902055565b600154600160a060020a0316331461103e5760405160e560020a62461bcd0281526004016106a790612bd0565b60055415801590611050575060065415155b61109f5760405160e560020a62461bcd02815260206004820152601f60248201527f52657761726420546f6b656e206e6f74206465706f736974656420796574210060448201526064016106a7565b6110ad600d80546001019055565b60006110b8600d5490565b6040805160c081018252600160a060020a038881168252602080830189815283850189815260608086018a815260006080880181815260a089018481528b835260078852999091208851815473ffffffffffffffffffffffffffffffffffffffff19169816979097178755935160018701559151600286015590516003850155905160048401559351805195965093949293919261115c926005850192019061274d565b505050600160a060020a0386166000908152600960205260409020829055600354611188908690612c05565b600355505050505050565b600154600160a060020a031633146111c05760405160e560020a62461bcd0281526004016106a790612bd0565b60009182526007602052604090912060040155565b600154600160a060020a031633146112025760405160e560020a62461bcd0281526004016106a790612bd0565b61120c60006126ee565b565b600154600160a060020a0316331461123b5760405160e560020a62461bcd0281526004016106a790612bd0565b61124d81670de0b6b3a7640000612c40565b600f54600160a060020a03166370a08231611270600154600160a060020a031690565b60405160e060020a63ffffffff8416028152600160a060020a03909116600482015260240160206040518083038186803b1580156112ad57600080fd5b505afa1580156112c1573d6000803e3d6000fd5b505050506040513d601f19601f820116820180604052508101906112e591906128d5565b10156113065760405160e560020a62461bcd0281526004016106a790612b73565b600554431015801561131a57506006544311155b6113695760405160e560020a62461bcd02815260206004820152601960248201527f4e6f77206973206e6f74205374616b696e6720506572696f640000000000000060448201526064016106a7565b600060015b600d5481116114615760005b6000828152600c602052604090205481101561144e576000828152600c6020526040902080546113c7918491849081106107d45760e060020a634e487b7102600052603260045260246000fd5b6000828152600c602052604081208054600a929190849081106113fd5760e060020a634e487b7102600052603260045260246000fd5b6000918252602080832090910154600160a060020a03168352828101939093526040918201812085825290925290206001015461143a9084612c05565b92508061144681612c8d565b91505061137a565b508061145981612c8d565b91505061136e565b50600f54600160a060020a03166323b872dd611485600154600160a060020a031690565b3061149886670de0b6b3a7640000612c40565b6040518463ffffffff1660e060020a0281526004016114b993929190612a28565b602060405180830381600087803b1580156114d357600080fd5b505af11580156114e7573d6000803e3d6000fd5b505050506040513d601f19601f8201168201806040525081019061150b91906128a1565b5060008160045461151c9190612c5f565b905061152b83620f4240612c40565b6115359082612c05565b9050436006546115459190612c5f565b61154f9082612c1d565b60025561155f83620f4240612c40565b600460008282546115709190612c05565b9091555050505050565b600154600160a060020a031633146115a75760405160e560020a62461bcd0281526004016106a790612bd0565b600d548511156115fc5760405160e560020a62461bcd02815260206004820152600e60248201527f696e76616c696420706f6f6c496400000000000000000000000000000000000060448201526064016106a7565b60008581526007602052604090206001015460035461161b9190612c5f565b6003556040805160c081018252600160a060020a03861681526020808201869052818301859052606082018490526000888152600780835284822060048101546080860152918a905282526005018054845181840281018401909552808552929360a085019390928301828280156116b257602002820191906000526020600020905b81548152602001906001019080831161169e575b5050509190925250506000868152600760209081526040918290208351815473ffffffffffffffffffffffffffffffffffffffff1916600160a060020a03909116178155838201516001820155918301516002830155606083015160038301556080830151600483015560a08301518051611733926005850192019061274d565b505050600160a060020a038416600090815260096020526040902085905560035461175f908490612c05565b6003555050505050565b60008181526007602052604081206002810154600490910154829161178d91612c40565b9392505050565b6000806117a083611769565b90506000811561178d5760035460008581526007602052604090206001015460025484906117cf906014612c40565b6117da90603c612c40565b6117e5906018612c40565b6117f0906064612c40565b6117fa9190612c1d565b6118049190612c40565b61180e9190612c1d565b949350505050565b600154600160a060020a031633146118435760405160e560020a62461bcd0281526004016106a790612bd0565b6000838152600760205260408120905b60058201548110156118da576000858152600b60205260408120600584018054839190859081106118975760e060020a634e487b7102600052603260045260246000fd5b9060005260206000200154815260200190815260200160002060006101000a81548160ff02191690831515021790555080806118d290612c8d565b915050611853565b5060005b82811015611959576000858152600b6020526040812060019186868581811061191a5760e060020a634e487b7102600052603260045260246000fd5b90506020020135815260200190815260200160002060006101000a81548160ff021916908315150217905550808061195190612c8d565b9150506118de565b50611968600582018484612798565b5050505050565b600c602052816000526040600020818154811061198b57600080fd5b600091825260209091200154600160a060020a03169150829050565b600260005414156119fd5760405160e560020a62461bcd02815260206004820152601f60248201527f5265656e7472616e637947756172643a207265656e7472616e742063616c6c0060448201526064016106a7565b60026000556040517f6352211e000000000000000000000000000000000000000000000000000000008152600481018290523390839083908390600160a060020a03841690636352211e9060240160206040518083038186803b158015611a6357600080fd5b505afa158015611a77573d6000803e3d6000fd5b505050506040513d601f19601f82011682018060405250810190611a9b9190612804565b600160a060020a031614611af45760405160e560020a62461bcd02815260206004820152600960248201527f6e6f74206f776e6572000000000000000000000000000000000000000000000060448201526064016106a7565b600160a060020a0385166000908152600960205260409020546005544310801590611b2157506006544311155b8015611b4b57506001805474010000000000000000000000000000000000000000900460ff161515145b611b9a5760405160e560020a62461bcd02815260206004820152601760248201527f5374616b696e67206973206e6f7420737461727465642100000000000000000060448201526064016106a7565b80611c0f5760405160e560020a62461bcd028152602060048201526024808201527f5468657265206973206e6f20436f6e7472616374204164647265737320696e2060448201527f506f6f6c0000000000000000000000000000000000000000000000000000000060648201526084016106a7565b6000818152600760209081526040808320600390810154338552600a845282852086865290935292209091015410611c8c5760405160e560020a62461bcd02815260206004820152601d60248201527f4f766572666c6f77206f66204d6178205374616b696e6720436f756e7400000060448201526064016106a7565b6000818152600760205260409020600501541580611cc857506000818152600b6020908152604080832088845290915290205460ff1615156001145b611d175760405160e560020a62461bcd02815260206004820152601e60248201527f5468697320746f6b656e206973206e6f742077686974656c697374656421000060448201526064016106a7565b336000908152600a6020908152604080832084845290915290205460ff16611d75576000818152600c6020908152604082208054600181018255908352912001805473ffffffffffffffffffffffffffffffffffffffff1916331790555b611d7f81336125ee565b611d8d600e80546001019055565b6000611d98600e5490565b6040805160c081018252828152600160a060020a038a8116602080840182815233858701818152606087018f8152608088018c8152600060a08a018181528c825260089097528a902098518955935160018901805473ffffffffffffffffffffffffffffffffffffffff19908116928a1692909217905591516002890180549093169716969096179055935160038601555160048086019190915590516005909401805460ff19169415159490941790935592517f23b872dd00000000000000000000000000000000000000000000000000000000815293945091926323b872dd92611e8a92909130918c9101612a28565b600060405180830381600087803b158015611ea457600080fd5b505af1158015611eb8573d6000803e3d6000fd5b50505060008381526007602052604081206004018054925090611eda83612c8d565b9091555050336000908152600a602090815260408083208584529091528120600301805491611f0883612c8d565b90915550506000828152600760209081526040808320600290810154338552600a845282852087865290935290832001805491929091611f49908490612c05565b9091555050336000818152600a60209081526040808320868452825291829020805460ff191660011790558151848152908101899052600160a060020a038a16917f4249649a2f5c977056f4db60e40a673eabf996b3ec3dc5b5b5713971888e6020910160405180910390a3505060016000555050505050565b6000828152600760205260408120600281015460049091015482918291611fea9190612c40565b600160a060020a0385166000908152600a60209081526040808320898452909152902060065491925090431115612025576006549250612029565b4392505b600082156120975760028201546003546000898152600760205260409020600101546004850154869392919061205f9089612c5f565b60025461206c9190612c40565b6120769190612c40565b6120809190612c1d565b61208a9190612c40565b6120949190612c1d565b90505b60018201546120a69082612c05565b979650505050505050565b606060006120be600e5490565b905060008060015b83811161213057600081815260086020526040902060020154600160a060020a03878116911614801561210b575060008181526008602052604090206005015460ff16155b1561211e5761211b600184612c05565b92505b8061212881612c8d565b9150506120c6565b5060008267ffffffffffffffff81111561215d5760e060020a634e487b7102600052604160045260246000fd5b6040519080825280602002602001820160405280156121bd57816020015b6040805160c08101825260008082526020808301829052928201819052606082018190526080820181905260a0820152825260001990920191018161217b5790505b50905060015b8481116122c557600081815260086020526040902060020154600160a060020a038881169116148015612208575060008181526008602052604090206005015460ff16155b156122b357600081815260086020908152604091829020825160c081018452815481526001820154600160a060020a03908116938201939093526002820154909216928201929092526003820154606082015260048201546080820152600582015460ff16151560a082015283518490869081106122995760e060020a634e487b7102600052603260045260246000fd5b60209081029190910101526122af600185612c05565b9350505b806122bd81612c8d565b9150506121c3565b5095945050505050565b6122d981336125ee565b336000908152600a602090815260408083208484529091529020600101546123068164e8d4a51000612c40565b600f546040517f70a08231000000000000000000000000000000000000000000000000000000008152306004820152600160a060020a03909116906370a082319060240160206040518083038186803b15801561236257600080fd5b505afa158015612376573d6000803e3d6000fd5b505050506040513d601f19601f8201168201806040525081019061239a91906128d5565b10156124115760405160e560020a62461bcd02815260206004820152602360248201527f696e73756666696369656e74204d696c6b20616d6f756e7420746f204861727660448201527f657374000000000000000000000000000000000000000000000000000000000060648201526084016106a7565b600f54600160a060020a031663a9059cbb336124328464e8d4a51000612c40565b60405160e060020a63ffffffff8516028152600160a060020a0390921660048301526024820152604401602060405180830381600087803b15801561247657600080fd5b505af115801561248a573d6000803e3d6000fd5b505050506040513d601f19601f820116820180604052508101906124ae91906128a1565b5050336000908152600a6020908152604080832093835292905290812060010155565b60008181526007602090815260409182902060050180548351818402810184019094528084526060939283018282801561252a57602002820191906000526020600020905b815481526020019060010190808311612516575b50505050509050919050565b600154600160a060020a031633146125635760405160e560020a62461bcd0281526004016106a790612bd0565b600160a060020a0381166125e25760405160e560020a62461bcd02815260206004820152602660248201527f4f776e61626c653a206e6577206f776e657220697320746865207a65726f206160448201527f646472657373000000000000000000000000000000000000000000000000000060648201526084016106a7565b6125eb816126ee565b50565b60006006544311156126035750600654612606565b50435b600083815260076020526040812060028101546004909101546126299190612c40565b600160a060020a0384166000908152600a60209081526040808320888452909152902090915081158015906126615750600481015415155b156126e2576002810154600354600087815260076020526040902060010154600484015485939291906126949088612c5f565b6002546126a19190612c40565b6126ab9190612c40565b6126b59190612c1d565b6126bf9190612c40565b6126c99190612c1d565b8160010160008282546126dc9190612c05565b90915550505b60040191909155505050565b60018054600160a060020a0383811673ffffffffffffffffffffffffffffffffffffffff19831681179093556040519116919082907f8be0079c531659141344cd1fd0a4f28419497f9722a3daafe3b4186f6b6457e090600090a35050565b828054828255906000526020600020908101928215612788579160200282015b8281111561278857825182559160200191906001019061276d565b506127949291506127d3565b5090565b828054828255906000526020600020908101928215612788579160200282015b828111156127885782358255916020019190600101906127b8565b5b8082111561279457600081556001016127d4565b6000602082840312156127f9578081fd5b813561178d81612cc1565b600060208284031215612815578081fd5b815161178d81612cc1565b60008060408385031215612832578081fd5b823561283d81612cc1565b946020939093013593505050565b60008060008060808587031215612860578182fd5b843561286b81612cc1565b966020860135965060408601359560600135945092505050565b600060208284031215612896578081fd5b813561178d81612cd6565b6000602082840312156128b2578081fd5b815161178d81612cd6565b6000602082840312156128ce578081fd5b5035919050565b6000602082840312156128e6578081fd5b5051919050565b600080604083850312156128ff578182fd5b82359150602083013561291181612cc1565b809150509250929050565b600080600080600060a08688031215612933578081fd5b85359450602086013561294581612cc1565b94979496505050506040830135926060810135926080909101359150565b600080600060408486031215612977578283fd5b83359250602084013567ffffffffffffffff80821115612995578384fd5b818601915086601f8301126129a8578384fd5b8135818111156129b6578485fd5b87602080830285010111156129c9578485fd5b6020830194508093505050509250925092565b600080604083850312156129ee578182fd5b50508035926020909101359150565b600080600060608486031215612a11578283fd5b505081359360208301359350604090920135919050565b600160a060020a039384168152919092166020820152604081019190915260600190565b602080825282518282018190526000919060409081850190868401855b82811015612ac55781518051855286810151600160a060020a0390811688870152868201511686860152606080820151908601526080808201519086015260a09081015115159085015260c09093019290850190600101612a69565b5091979650505050505050565b6020808252825182820181905260009190848201906040850190845b81811015612b0a57835183529284019291840191600101612aee565b50909695505050505050565b60208082526034908201527f456e6420426c6f636b204e756d626572206d757374206269676765722074686160408201527f6e20537461727420426c6f636b204e756d626572000000000000000000000000606082015260800190565b60208082526023908201527f696e73756666696369656e74204d696c6b20616d6f756e7420746f204465706f60408201527f7369740000000000000000000000000000000000000000000000000000000000606082015260800190565b6020808252818101527f4f776e61626c653a2063616c6c6572206973206e6f7420746865206f776e6572604082015260600190565b60008219821115612c1857612c18612ca8565b500190565b600082612c3b5760e060020a634e487b710281526012600452602481fd5b500490565b6000816000190483118215151615612c5a57612c5a612ca8565b500290565b600082821015612c7157612c71612ca8565b500390565b600081612c8557612c85612ca8565b506000190190565b6000600019821415612ca157612ca1612ca8565b5060010190565b60e060020a634e487b7102600052601160045260246000fd5b600160a060020a03811681146125eb57600080fd5b80151581146125eb57600080fdfea2646970667358221220c77c801af287f56e95a1ce77fbe07ff3c9a095408227ff3fef20902293aafaa264736f6c63430008040033",
  "immutableReferences": {},
  "source": "// SPDX-License-Identifier: MIT\npragma solidity ^0.8.4;\nimport \"@openzeppelin/contracts/utils/Counters.sol\";\nimport \"@openzeppelin/contracts/token/ERC721/ERC721.sol\";\nimport \"@openzeppelin/contracts/security/ReentrancyGuard.sol\";\nimport \"@openzeppelin/contracts/access/Ownable.sol\";\nimport \"./interfaces/IMilkToken.sol\";\n\ncontract Staking is ReentrancyGuard, Ownable {\n    using Counters for Counters.Counter;\n\n    bool public isStakingAvailable;\n    uint256 public milkPerBlock;\n    uint256 public totalAllocPoint;\n    uint256 public totalAmountDepositedPool;\n    uint256 public startBlock;\n    uint256 public endBlock;\n    \n    struct StakingItem {\n        uint256 itemId;\n        address contractAddress;\n        address owner;\n        uint256 tokenId;\n        uint256 poolId;\n        bool isEnded;\n    }\n\n    struct PoolInfo {\n        address contractAddress;\n        uint256 allocPoint;\n        uint256 milkPower;\n        uint256 maxStakeCount;\n        uint256 stakedCount;\n        uint256[] tokenIds;\n    }\n\n    struct UserInfo {\n        bool isStaked;\n        uint256 pendingMilk;\n        uint256 userMilkPower;\n        uint256 stakedCount;\n        uint256 lastHarvestBlock;\n    }\n\n    mapping(uint256 => PoolInfo) public pools;\n    mapping(uint256 => StakingItem) public items;\n    mapping(address => uint256) public poolIdOfContract;\n    mapping(address => mapping(uint256 => UserInfo)) public userInfo;\n    mapping(uint256 => mapping(uint256 => bool)) public whitelistedTokenIds;\n    mapping(uint256 => address[]) public stakedUsers;\n\n    Counters.Counter public stakingPoolCount;\n    Counters.Counter public stakingItemCount;\n    \n    IMilkToken tokenMilk;\n\n    event StakingItemCreated(\n        uint256 itemId,\n        address indexed nftContract,\n        address indexed owner,\n        uint256 tokenId\n    );\n\n    event Harvest(\n        uint256 itemId,\n        address indexed owner,\n        uint256 amount\n    );\n\n    constructor(IMilkToken _tokenMilk) {\n        tokenMilk = _tokenMilk;\n        totalAllocPoint = 0;\n        milkPerBlock = 0;\n        totalAmountDepositedPool = 0;\n        isStakingAvailable = false;\n    }\n\n    function depositMilkToPool(uint256 _totalAmountDepositedPool, uint256 _startBlock, uint256 _endBlock) public onlyOwner {\n        require(tokenMilk.balanceOf(owner()) >= _totalAmountDepositedPool * 10 ** 18, \"insufficient Milk amount to Deposit\");\n        require(_endBlock > block.number, \"End Block must bigger than now\");\n        require(_endBlock > _startBlock, \"End Block Number must bigger than Start Block Number\");\n        tokenMilk.transferFrom(owner(), address(this), _totalAmountDepositedPool * 10 ** 18);\n        \n        totalAmountDepositedPool = _totalAmountDepositedPool * 10 ** 6;\n        startBlock = _startBlock;\n        endBlock = _endBlock;\n        milkPerBlock = totalAmountDepositedPool / (_endBlock - _startBlock);\n        isStakingAvailable = true;\n    }\n\n    function addMilkReward(uint256 _amountReward) public onlyOwner {\n        require(tokenMilk.balanceOf(owner()) >=  _amountReward * 10 ** 18, \"insufficient Milk amount to Deposit\");\n        require(block.number >= startBlock && block.number <= endBlock, \"Now is not Staking Period\");\n\n        uint256 paidReward = 0;\n        for(uint256 i = 1; i <= stakingPoolCount.current(); i ++) {\n            for(uint256 j = 0; j < stakedUsers[i].length; j ++) {\n                _updateUserInfo(i, stakedUsers[i][j]);\n                paidReward += userInfo[stakedUsers[i][j]][i].pendingMilk;\n            }\n        }\n\n        tokenMilk.transferFrom(owner(), address(this), _amountReward * 10 ** 18);\n\n        uint256 remainReward = totalAmountDepositedPool - paidReward;\n        remainReward += _amountReward * 10 ** 6;\n        milkPerBlock = remainReward / (endBlock - block.number);\n        totalAmountDepositedPool += _amountReward * 10 ** 6;\n    }\n\n    function setPeriod(uint256 _startBlock, uint256 _endBlock) public onlyOwner {\n        require(_endBlock > block.number, \"End Block must bigger than now\");\n        require(_endBlock > _startBlock, \"End Block Number must bigger than Start Block Number\");\n        require(_startBlock < block.number, \"Start Block is not avaliable!\");\n        \n        uint256 paidReward = 0;\n        for(uint256 i = 1; i <= stakingPoolCount.current(); i ++) {\n            for(uint256 j = 0; j < stakedUsers[i].length; j ++) {\n                _updateUserInfo(i, stakedUsers[i][j]);\n                paidReward += userInfo[stakedUsers[i][j]][i].pendingMilk;\n            }\n        }\n\n        uint256 remainReward = totalAmountDepositedPool - paidReward;\n        \n        milkPerBlock = remainReward / (_endBlock - block.number);\n\n        startBlock = _startBlock;\n        endBlock = _endBlock;\n    }    \n\n    function setIsStakingAvailable(bool _isStakingAvailable) public onlyOwner{\n        isStakingAvailable = _isStakingAvailable;\n    }\n\n    function addPool(address _contractAddress, uint256 _allocPoint, uint256 _milkPower, uint256 _maxStakeCount) public onlyOwner {\n        require(startBlock != 0 && endBlock != 0, \"Reward Token not deposited yet!\");\n        stakingPoolCount.increment();\n        uint256 poolId = stakingPoolCount.current();\n        uint256[] memory tokenIds;\n        pools[poolId] = PoolInfo(\n            _contractAddress,\n            _allocPoint,\n            _milkPower,\n            _maxStakeCount,\n            0,\n            tokenIds\n        );\n\n        poolIdOfContract[_contractAddress] = poolId;\n\n        totalAllocPoint = totalAllocPoint + _allocPoint;\n    }\n\n    function setPoolIdOfContract(address _contractAddress, uint256 _poolId) public onlyOwner {\n        poolIdOfContract[_contractAddress] = _poolId;\n    }\n\n    function setStakedCount(uint256 _poolId, uint256 _stakedCount) public onlyOwner {\n        pools[_poolId].stakedCount = _stakedCount;\n    }\n\n    function updatePool(\n        uint256 _poolId, \n        address _contractAddress, \n        uint256 _allocPoint, \n        uint256 _milkPower, \n        uint256 _maxStakeCount\n    ) public onlyOwner {\n        require(_poolId <= stakingPoolCount.current(), \"invalid poolId\");\n\n        totalAllocPoint = totalAllocPoint - pools[_poolId].allocPoint;\n\n        pools[_poolId] = PoolInfo(\n            _contractAddress,\n            _allocPoint,\n            _milkPower,\n            _maxStakeCount,\n            pools[_poolId].stakedCount,\n            pools[_poolId].tokenIds\n        );\n\n        poolIdOfContract[_contractAddress] = _poolId;\n\n        totalAllocPoint = totalAllocPoint + _allocPoint;\n    }\n\n    function setTokenIds(uint256 _poolId, uint256[] calldata _tokenIds) public onlyOwner {\n        PoolInfo storage _pool = pools[_poolId];\n\n        for(uint256 i = 0; i < _pool.tokenIds.length; i ++) {\n            whitelistedTokenIds[_poolId][_pool.tokenIds[i]] = false;\n        }\n\n        for(uint256 i = 0; i < _tokenIds.length; i ++) {\n            whitelistedTokenIds[_poolId][_tokenIds[i]] = true;\n        }\n\n        _pool.tokenIds = _tokenIds;\n    }\n\n    modifier isValid(address _msgSender, address _contractAddress, uint256 _tokenId) {\n        require(IERC721(_contractAddress).ownerOf(_tokenId) == _msgSender, \"not owner\");\n        _;\n    }\n\n    function _updateUserInfo(uint256 _poolId, address _owner) internal {\n\n        /**Update the Pending Milk for All Items */\n        uint256 tmpEndBlock = 0;\n        if(block.number > endBlock)\n            tmpEndBlock = endBlock;\n        else \n            tmpEndBlock = block.number;\n        uint256 totalMilkPower =  pools[_poolId].stakedCount * pools[_poolId].milkPower;\n\n        UserInfo storage _userInfo = userInfo[_owner][_poolId];\n        if(totalMilkPower != 0 && _userInfo.lastHarvestBlock != 0)\n            _userInfo.pendingMilk += milkPerBlock * (tmpEndBlock - _userInfo.lastHarvestBlock) * pools[_poolId].allocPoint / totalAllocPoint * _userInfo.userMilkPower / totalMilkPower;\n        _userInfo.lastHarvestBlock = tmpEndBlock;\n        /**End Update */\n    }\n\n    function stake(\n        address _nftContract,\n        uint256 _tokenId\n    ) public nonReentrant isValid(msg.sender, _nftContract, _tokenId) {\n\n        uint256 poolId = poolIdOfContract[_nftContract];\n\n        require(block.number >= startBlock && block.number <= endBlock && isStakingAvailable == true, \"Staking is not started!\");\n        require(poolId != 0, \"There is no Contract Address in Pool\");\n        require(userInfo[msg.sender][poolId].stakedCount < pools[poolId].maxStakeCount, \"Overflow of Max Staking Count\");\n        require(pools[poolId].tokenIds.length == 0 || whitelistedTokenIds[poolId][_tokenId] == true, \"This token is not whitelisted!\");\n\n        if(userInfo[msg.sender][poolId].isStaked == false) {\n            stakedUsers[poolId].push(msg.sender);\n        }\n        \n        _updateUserInfo(poolId, msg.sender);\n\n        stakingItemCount.increment();\n        uint256 itemId = stakingItemCount.current();\n\n        items[itemId] = StakingItem(\n            itemId,\n            _nftContract,\n            msg.sender,\n            _tokenId,\n            poolId,\n            false\n        );\n\n        IERC721(_nftContract).transferFrom(msg.sender, address(this), _tokenId);\n\n        pools[poolId].stakedCount ++;\n        userInfo[msg.sender][poolId].stakedCount ++;\n        userInfo[msg.sender][poolId].userMilkPower += pools[poolId].milkPower;\n        userInfo[msg.sender][poolId].isStaked = true;\n        emit StakingItemCreated(\n            itemId,\n            _nftContract,\n            msg.sender,\n            _tokenId\n        );\n    }\n\n    function harvest(uint256 _poolId) public {\n\n        _updateUserInfo(_poolId, msg.sender);\n        uint256 userPendingMilk = userInfo[msg.sender][_poolId].pendingMilk;\n\n        require(tokenMilk.balanceOf(address(this)) >= userPendingMilk * 10 ** 12, \"insufficient Milk amount to Harvest\");\n        \n        tokenMilk.transfer(msg.sender, userPendingMilk * 10 ** 12);\n\n        userInfo[msg.sender][_poolId].pendingMilk = 0;\n    }\n\n    function getPendingMilk(uint256 _poolId, address _owner) public view returns(uint256){\n        uint256 tmpEndBlock = 0;\n        uint256 totalMilkPower =  pools[_poolId].stakedCount * pools[_poolId].milkPower;\n        UserInfo storage _userInfo = userInfo[_owner][_poolId];\n\n        if(block.number > endBlock)\n            tmpEndBlock = endBlock;\n        else \n            tmpEndBlock = block.number;\n        \n        uint256 amount = 0;\n        if(totalMilkPower != 0)\n            amount = milkPerBlock * (tmpEndBlock - _userInfo.lastHarvestBlock) * pools[_poolId].allocPoint / totalAllocPoint * _userInfo.userMilkPower / totalMilkPower;\n        amount += _userInfo.pendingMilk;\n        return amount;\n    }\n\n    function getWhitelistedTokenIds(uint256 _poolId) public view returns(uint256[] memory) {\n        return pools[_poolId].tokenIds;\n    }\n\n    function getStakedItems(address _owner) public view returns(StakingItem[] memory){\n        uint256 totalItemCount = stakingItemCount.current();\n        uint256 itemCount = 0;\n        uint256 currentIndex = 0;\n\n        for(uint256 i = 1; i <= totalItemCount; i ++) {\n            if(_owner == items[i].owner && items[i].isEnded == false) {\n                itemCount += 1;\n            }\n        }\n\n        StakingItem[] memory stakedItems = new StakingItem[](itemCount);\n    \n        for (uint256 i = 1; i <= totalItemCount; i ++) {\n            if(_owner == items[i].owner && items[i].isEnded == false) {\n                StakingItem storage currentItem = items[i];\n                stakedItems[currentIndex] = currentItem;\n                currentIndex += 1;\n            }\n        }\n\n        return stakedItems;\n\n    }\n   \n    function getBlockNumber() public view returns(uint256) {\n        return block.number;\n    }\n\n    function getTotalMilkPower(uint256 _poolId) public view returns(uint256) {\n        uint256 totalMilkPower =  pools[_poolId].stakedCount * pools[_poolId].milkPower;\n        return totalMilkPower;\n    }\n\n    function getMyMilkPower(uint256 _poolId, address _owner) public view returns(uint256) {\n        return userInfo[_owner][_poolId].userMilkPower;\n    }\n\n    function getDailyMilkRate(uint256 _poolId) public view returns(uint256) {\n        uint256 totalMilkPower = getTotalMilkPower(_poolId);\n        uint256 dailyRate = 0;\n        if(totalMilkPower != 0)\n            dailyRate = milkPerBlock * 20 * 60 * 24 * 100 / totalMilkPower * pools[_poolId].allocPoint / totalAllocPoint;\n        return dailyRate;\n    }\n\n    function unstake(\n        uint256 _itemId\n    ) public {\n        StakingItem storage item = items[_itemId];\n\n        require(item.owner == msg.sender, \"you are not owner\");\n        require(item.isEnded == false, \"This Staking Item was unstaked already!\");\n\n        _updateUserInfo(item.poolId, msg.sender);\n        harvest(item.poolId);\n\n        IERC721(item.contractAddress).transferFrom(address(this), msg.sender, item.tokenId);\n        item.isEnded = true;\n        pools[item.poolId].stakedCount --;\n        userInfo[msg.sender][item.poolId].userMilkPower -= pools[item.poolId].milkPower;\n        userInfo[msg.sender][item.poolId].stakedCount --;\n    }\n\n    function withdraw() public onlyOwner {\n        require(block.number > endBlock, \"Staking is not finished\");\n        uint256 remainBalance = tokenMilk.balanceOf(address(this));\n        tokenMilk.transfer(owner(), remainBalance);\n        isStakingAvailable = false;\n    }\n}\n",
  "sourcePath": "/Users/Wouter/webserver/nft-contracts/contracts/Staking.sol",
  "compiler": {
    "name": "solc",
    "version": "0.8.4+commit.c7e474f2.Emscripten.clang"
  },
  "schemaVersion": "3.3.2",
  "updatedAt": "2022-02-27T13:29:22.867Z",
  "devdoc": {
    "kind": "dev",
    "methods": {
      "owner()": {
        "details": "Returns the address of the current owner."
      },
      "renounceOwnership()": {
        "details": "Leaves the contract without owner. It will not be possible to call `onlyOwner` functions anymore. Can only be called by the current owner. NOTE: Renouncing ownership will leave the contract without an owner, thereby removing any functionality that is only available to the owner."
      },
      "transferOwnership(address)": {
        "details": "Transfers ownership of the contract to a new account (`newOwner`). Can only be called by the current owner."
      }
    },
    "version": 1
  },
  "userdoc": {
    "kind": "user",
    "methods": {},
    "version": 1
  }
}