{
  "contractName": "Staking",
  "abi": [
    {
      "inputs": [
        {
          "internalType": "contract IMilkToken",
          "name": "_tokenMilk",
          "type": "address"
        }
      ],
      "stateMutability": "nonpayable",
      "type": "constructor"
    },
    {
      "anonymous": false,
      "inputs": [
        {
          "indexed": false,
          "internalType": "uint256",
          "name": "itemId",
          "type": "uint256"
        },
        {
          "indexed": true,
          "internalType": "address",
          "name": "owner",
          "type": "address"
        },
        {
          "indexed": false,
          "internalType": "uint256",
          "name": "amount",
          "type": "uint256"
        }
      ],
      "name": "Harvest",
      "type": "event"
    },
    {
      "anonymous": false,
      "inputs": [
        {
          "indexed": true,
          "internalType": "address",
          "name": "previousOwner",
          "type": "address"
        },
        {
          "indexed": true,
          "internalType": "address",
          "name": "newOwner",
          "type": "address"
        }
      ],
      "name": "OwnershipTransferred",
      "type": "event"
    },
    {
      "anonymous": false,
      "inputs": [
        {
          "indexed": false,
          "internalType": "uint256",
          "name": "itemId",
          "type": "uint256"
        },
        {
          "indexed": true,
          "internalType": "address",
          "name": "nftContract",
          "type": "address"
        },
        {
          "indexed": true,
          "internalType": "address",
          "name": "owner",
          "type": "address"
        },
        {
          "indexed": false,
          "internalType": "uint256",
          "name": "tokenId",
          "type": "uint256"
        }
      ],
      "name": "StakingItemCreated",
      "type": "event"
    },
    {
      "inputs": [
        {
          "internalType": "address",
          "name": "",
          "type": "address"
        }
      ],
      "name": "collectiblesOfUser",
      "outputs": [
        {
          "internalType": "uint256",
          "name": "",
          "type": "uint256"
        }
      ],
      "stateMutability": "view",
      "type": "function",
      "constant": true
    },
    {
      "inputs": [],
      "name": "endBlock",
      "outputs": [
        {
          "internalType": "uint256",
          "name": "",
          "type": "uint256"
        }
      ],
      "stateMutability": "view",
      "type": "function",
      "constant": true
    },
    {
      "inputs": [
        {
          "internalType": "address",
          "name": "",
          "type": "address"
        }
      ],
      "name": "genesisOfUser",
      "outputs": [
        {
          "internalType": "uint256",
          "name": "",
          "type": "uint256"
        }
      ],
      "stateMutability": "view",
      "type": "function",
      "constant": true
    },
    {
      "inputs": [],
      "name": "isStakingAvailable",
      "outputs": [
        {
          "internalType": "bool",
          "name": "",
          "type": "bool"
        }
      ],
      "stateMutability": "view",
      "type": "function",
      "constant": true
    },
    {
      "inputs": [
        {
          "internalType": "uint256",
          "name": "",
          "type": "uint256"
        }
      ],
      "name": "items",
      "outputs": [
        {
          "internalType": "uint256",
          "name": "itemId",
          "type": "uint256"
        },
        {
          "internalType": "address",
          "name": "contractAddress",
          "type": "address"
        },
        {
          "internalType": "address",
          "name": "owner",
          "type": "address"
        },
        {
          "internalType": "uint256",
          "name": "tokenId",
          "type": "uint256"
        },
        {
          "internalType": "uint256",
          "name": "lastHarvestBlock",
          "type": "uint256"
        },
        {
          "internalType": "bool",
          "name": "isEnded",
          "type": "bool"
        }
      ],
      "stateMutability": "view",
      "type": "function",
      "constant": true
    },
    {
      "inputs": [],
      "name": "maxCollectiblesPerWallet",
      "outputs": [
        {
          "internalType": "uint256",
          "name": "",
          "type": "uint256"
        }
      ],
      "stateMutability": "view",
      "type": "function",
      "constant": true
    },
    {
      "inputs": [],
      "name": "maxGenesisPerWallet",
      "outputs": [
        {
          "internalType": "uint256",
          "name": "",
          "type": "uint256"
        }
      ],
      "stateMutability": "view",
      "type": "function",
      "constant": true
    },
    {
      "inputs": [],
      "name": "milkPerBlock",
      "outputs": [
        {
          "internalType": "uint256",
          "name": "",
          "type": "uint256"
        }
      ],
      "stateMutability": "view",
      "type": "function",
      "constant": true
    },
    {
      "inputs": [],
      "name": "owner",
      "outputs": [
        {
          "internalType": "address",
          "name": "",
          "type": "address"
        }
      ],
      "stateMutability": "view",
      "type": "function",
      "constant": true
    },
    {
      "inputs": [
        {
          "internalType": "uint256",
          "name": "",
          "type": "uint256"
        }
      ],
      "name": "pools",
      "outputs": [
        {
          "internalType": "address",
          "name": "contractAddress",
          "type": "address"
        },
        {
          "internalType": "uint256",
          "name": "allocPoint",
          "type": "uint256"
        },
        {
          "internalType": "uint256",
          "name": "milkPower",
          "type": "uint256"
        },
        {
          "internalType": "string",
          "name": "poolName",
          "type": "string"
        }
      ],
      "stateMutability": "view",
      "type": "function",
      "constant": true
    },
    {
      "inputs": [],
      "name": "renounceOwnership",
      "outputs": [],
      "stateMutability": "nonpayable",
      "type": "function"
    },
    {
      "inputs": [],
      "name": "stakingItemCount",
      "outputs": [
        {
          "internalType": "uint256",
          "name": "_value",
          "type": "uint256"
        }
      ],
      "stateMutability": "view",
      "type": "function",
      "constant": true
    },
    {
      "inputs": [],
      "name": "stakingPoolCount",
      "outputs": [
        {
          "internalType": "uint256",
          "name": "_value",
          "type": "uint256"
        }
      ],
      "stateMutability": "view",
      "type": "function",
      "constant": true
    },
    {
      "inputs": [],
      "name": "startBlock",
      "outputs": [
        {
          "internalType": "uint256",
          "name": "",
          "type": "uint256"
        }
      ],
      "stateMutability": "view",
      "type": "function",
      "constant": true
    },
    {
      "inputs": [],
      "name": "totalAllocPoint",
      "outputs": [
        {
          "internalType": "uint256",
          "name": "",
          "type": "uint256"
        }
      ],
      "stateMutability": "view",
      "type": "function",
      "constant": true
    },
    {
      "inputs": [],
      "name": "totalAmountDepositedPool",
      "outputs": [
        {
          "internalType": "uint256",
          "name": "",
          "type": "uint256"
        }
      ],
      "stateMutability": "view",
      "type": "function",
      "constant": true
    },
    {
      "inputs": [
        {
          "internalType": "address",
          "name": "newOwner",
          "type": "address"
        }
      ],
      "name": "transferOwnership",
      "outputs": [],
      "stateMutability": "nonpayable",
      "type": "function"
    },
    {
      "inputs": [
        {
          "internalType": "uint256",
          "name": "_totalAmountDepositedPool",
          "type": "uint256"
        },
        {
          "internalType": "uint256",
          "name": "_startBlock",
          "type": "uint256"
        },
        {
          "internalType": "uint256",
          "name": "_endBlock",
          "type": "uint256"
        }
      ],
      "name": "depositMilkToPool",
      "outputs": [],
      "stateMutability": "nonpayable",
      "type": "function"
    },
    {
      "inputs": [
        {
          "internalType": "uint256",
          "name": "_startBlock",
          "type": "uint256"
        },
        {
          "internalType": "uint256",
          "name": "_endBlock",
          "type": "uint256"
        }
      ],
      "name": "setPeriod",
      "outputs": [],
      "stateMutability": "nonpayable",
      "type": "function"
    },
    {
      "inputs": [
        {
          "internalType": "bool",
          "name": "_isStakingAvailable",
          "type": "bool"
        }
      ],
      "name": "setIsStakingAvailable",
      "outputs": [],
      "stateMutability": "nonpayable",
      "type": "function"
    },
    {
      "inputs": [
        {
          "internalType": "uint256",
          "name": "_value",
          "type": "uint256"
        }
      ],
      "name": "setMaxGenesisPerWallet",
      "outputs": [],
      "stateMutability": "nonpayable",
      "type": "function"
    },
    {
      "inputs": [
        {
          "internalType": "uint256",
          "name": "_value",
          "type": "uint256"
        }
      ],
      "name": "setMaxCollectiblesPerWallet",
      "outputs": [],
      "stateMutability": "nonpayable",
      "type": "function"
    },
    {
      "inputs": [
        {
          "internalType": "address",
          "name": "_contractAddress",
          "type": "address"
        },
        {
          "internalType": "uint256",
          "name": "_allocPoint",
          "type": "uint256"
        },
        {
          "internalType": "uint256[]",
          "name": "_tokenIds",
          "type": "uint256[]"
        },
        {
          "internalType": "uint256",
          "name": "_milkPower",
          "type": "uint256"
        },
        {
          "internalType": "string",
          "name": "_poolName",
          "type": "string"
        }
      ],
      "name": "addPool",
      "outputs": [],
      "stateMutability": "nonpayable",
      "type": "function"
    },
    {
      "inputs": [
        {
          "internalType": "uint256",
          "name": "_poolId",
          "type": "uint256"
        },
        {
          "internalType": "address",
          "name": "_contractAddress",
          "type": "address"
        },
        {
          "internalType": "uint256",
          "name": "_allocPoint",
          "type": "uint256"
        },
        {
          "internalType": "uint256[]",
          "name": "_tokenIds",
          "type": "uint256[]"
        },
        {
          "internalType": "uint256",
          "name": "_milkPower",
          "type": "uint256"
        },
        {
          "internalType": "string",
          "name": "_poolName",
          "type": "string"
        }
      ],
      "name": "updatePool",
      "outputs": [],
      "stateMutability": "nonpayable",
      "type": "function"
    },
    {
      "inputs": [
        {
          "internalType": "address",
          "name": "_nftContract",
          "type": "address"
        },
        {
          "internalType": "uint256",
          "name": "_tokenId",
          "type": "uint256"
        }
      ],
      "name": "stake",
      "outputs": [],
      "stateMutability": "nonpayable",
      "type": "function"
    },
    {
      "inputs": [
        {
          "internalType": "uint256",
          "name": "_poolId",
          "type": "uint256"
        }
      ],
      "name": "harvest",
      "outputs": [],
      "stateMutability": "nonpayable",
      "type": "function"
    },
    {
      "inputs": [
        {
          "internalType": "address",
          "name": "_owner",
          "type": "address"
        }
      ],
      "name": "getStakedItems",
      "outputs": [
        {
          "components": [
            {
              "internalType": "uint256",
              "name": "itemId",
              "type": "uint256"
            },
            {
              "internalType": "address",
              "name": "contractAddress",
              "type": "address"
            },
            {
              "internalType": "address",
              "name": "owner",
              "type": "address"
            },
            {
              "internalType": "uint256",
              "name": "tokenId",
              "type": "uint256"
            },
            {
              "internalType": "uint256",
              "name": "lastHarvestBlock",
              "type": "uint256"
            },
            {
              "internalType": "bool",
              "name": "isEnded",
              "type": "bool"
            }
          ],
          "internalType": "struct Staking.StakingItem[]",
          "name": "",
          "type": "tuple[]"
        }
      ],
      "stateMutability": "view",
      "type": "function",
      "constant": true
    },
    {
      "inputs": [
        {
          "internalType": "uint256",
          "name": "_itemId",
          "type": "uint256"
        }
      ],
      "name": "getPendingMilk",
      "outputs": [
        {
          "internalType": "uint256",
          "name": "",
          "type": "uint256"
        }
      ],
      "stateMutability": "view",
      "type": "function",
      "constant": true
    },
    {
      "inputs": [
        {
          "internalType": "address",
          "name": "_owner",
          "type": "address"
        },
        {
          "internalType": "uint256",
          "name": "_poolId",
          "type": "uint256"
        }
      ],
      "name": "getPendingMilkForAll",
      "outputs": [
        {
          "internalType": "uint256",
          "name": "",
          "type": "uint256"
        }
      ],
      "stateMutability": "view",
      "type": "function",
      "constant": true
    },
    {
      "inputs": [],
      "name": "getBlockNumber",
      "outputs": [
        {
          "internalType": "uint256",
          "name": "",
          "type": "uint256"
        }
      ],
      "stateMutability": "view",
      "type": "function",
      "constant": true
    },
    {
      "inputs": [
        {
          "internalType": "uint256",
          "name": "_itemId",
          "type": "uint256"
        }
      ],
      "name": "getPoolId",
      "outputs": [
        {
          "internalType": "uint256",
          "name": "",
          "type": "uint256"
        }
      ],
      "stateMutability": "view",
      "type": "function",
      "constant": true
    },
    {
      "inputs": [
        {
          "internalType": "uint256",
          "name": "_poolId",
          "type": "uint256"
        }
      ],
      "name": "getTotalStakedCount",
      "outputs": [
        {
          "internalType": "uint256",
          "name": "",
          "type": "uint256"
        }
      ],
      "stateMutability": "view",
      "type": "function",
      "constant": true
    },
    {
      "inputs": [
        {
          "internalType": "uint256",
          "name": "_poolId",
          "type": "uint256"
        }
      ],
      "name": "getTotalMilkPower",
      "outputs": [
        {
          "internalType": "uint256",
          "name": "",
          "type": "uint256"
        }
      ],
      "stateMutability": "view",
      "type": "function",
      "constant": true
    },
    {
      "inputs": [
        {
          "internalType": "uint256",
          "name": "_poolId",
          "type": "uint256"
        },
        {
          "internalType": "address",
          "name": "_owner",
          "type": "address"
        }
      ],
      "name": "getMyMilkPower",
      "outputs": [
        {
          "internalType": "uint256",
          "name": "",
          "type": "uint256"
        }
      ],
      "stateMutability": "view",
      "type": "function",
      "constant": true
    },
    {
      "inputs": [
        {
          "internalType": "uint256",
          "name": "_poolId",
          "type": "uint256"
        }
      ],
      "name": "getDailyMilkRate",
      "outputs": [
        {
          "internalType": "uint256",
          "name": "",
          "type": "uint256"
        }
      ],
      "stateMutability": "view",
      "type": "function",
      "constant": true
    },
    {
      "inputs": [
        {
          "internalType": "uint256",
          "name": "_itemId",
          "type": "uint256"
        }
      ],
      "name": "getLastHarvestBlock",
      "outputs": [
        {
          "internalType": "uint256",
          "name": "",
          "type": "uint256"
        }
      ],
      "stateMutability": "view",
      "type": "function",
      "constant": true
    },
    {
      "inputs": [
        {
          "internalType": "uint256",
          "name": "_itemId",
          "type": "uint256"
        },
        {
          "internalType": "uint256",
          "name": "_poolId",
          "type": "uint256"
        }
      ],
      "name": "unstake",
      "outputs": [],
      "stateMutability": "nonpayable",
      "type": "function"
    },
    {
      "inputs": [],
      "name": "withDraw",
      "outputs": [],
      "stateMutability": "nonpayable",
      "type": "function"
    }
  ],
  "bytecode": "0x60806040523480156200001157600080fd5b5060405162004c7138038062004c718339818101604052810190620000379190620001e1565b6001600081905550620000716200005c620000fc640100000000026401000000009004565b62000104640100000000026401000000009004565b80600460006101000a81548173ffffffffffffffffffffffffffffffffffffffff021916908373ffffffffffffffffffffffffffffffffffffffff160217905550600060068190555060006005819055506005600781905550600a60088190555060006009819055506000600c60006101000a81548160ff021916908315150217905550506200026f565b600033905090565b6000600160009054906101000a900473ffffffffffffffffffffffffffffffffffffffff16905081600160006101000a81548173ffffffffffffffffffffffffffffffffffffffff021916908373ffffffffffffffffffffffffffffffffffffffff1602179055508173ffffffffffffffffffffffffffffffffffffffff168173ffffffffffffffffffffffffffffffffffffffff167f8be0079c531659141344cd1fd0a4f28419497f9722a3daafe3b4186f6b6457e060405160405180910390a35050565b600081519050620001db8162000255565b92915050565b600060208284031215620001f457600080fd5b60006200020484828501620001ca565b91505092915050565b60006200021a8262000235565b9050919050565b60006200022e826200020d565b9050919050565b600073ffffffffffffffffffffffffffffffffffffffff82169050919050565b620002608162000221565b81146200026c57600080fd5b50565b6149f2806200027f6000396000f3fe608060405234801561001057600080fd5b506004361061024f576000357c010000000000000000000000000000000000000000000000000000000090048063811e1cf91161014d578063adc661a7116100d5578063d5dfc26511610099578063d5dfc265146106b4578063dc696d2b146106e4578063ddc6326214610714578063e7ef0fdc14610730578063f2fde38b146107605761024f565b8063adc661a71461060b578063adc9772e14610627578063bb7a805414610643578063bfb231d214610661578063c0ea87bd146106965761024f565b80638a51401f1161011c5780638a51401f1461053e5780638da5cb5b1461056e5780639c5a85401461058c5780639e2c8a5b146105bc578063ac4afa38146105d85761024f565b8063811e1cf9146104a25780638197f205146104c0578063872c7a50146104de5780638830c4061461050e5761024f565b80633b80c3e1116101db578063558a86221161019f578063558a8622146104125780635c4943fe1461042e5780636f6d47411461045e578063715018a61461047a5780637506f534146104845761024f565b80633b80c3e11461036e57806342cbb15c1461038a57806348cd4cb1146103a85780634b8e4ace146103c65780635119913c146103e25761024f565b806315a731971161022257806315a73197146102b657806315e9afea146102d257806317caf6f11461030257806323171529146103205780632dd96be9146103505761024f565b806303c5b1dc14610254578063083c6323146102705780630dea2d5c1461028e5780630fdb1c10146102ac575b600080fd5b61026e600480360381019061026991906138c4565b61077c565b005b6102786108bb565b60405161028591906140d0565b60405180910390f35b6102966108c1565b6040516102a39190613e55565b60405180910390f35b6102b46108d4565b005b6102d060048036038101906102cb9190613725565b610b50565b005b6102ec60048036038101906102e791906135ed565b610be9565b6040516102f991906140d0565b60405180910390f35b61030a610c01565b60405161031791906140d0565b60405180910390f35b61033a60048036038101906103359190613777565b610c07565b60405161034791906140d0565b60405180910390f35b610358610d24565b60405161036591906140d0565b60405180910390f35b61038860048036038101906103839190613777565b610d30565b005b610392610df9565b60405161039f91906140d0565b60405180910390f35b6103b0610e01565b6040516103bd91906140d0565b60405180910390f35b6103e060048036038101906103db9190613900565b610e07565b005b6103fc60048036038101906103f791906137c9565b61114c565b60405161040991906140d0565b60405180910390f35b61042c60048036038101906104279190613777565b6112fe565b005b61044860048036038101906104439190613777565b6113c7565b60405161045591906140d0565b60405180910390f35b6104786004803603810190610473919061367b565b61146b565b005b610482611645565b005b61048c6116cd565b60405161049991906140d0565b60405180910390f35b6104aa6116d3565b6040516104b791906140d0565b60405180910390f35b6104c86116df565b6040516104d591906140d0565b60405180910390f35b6104f860048036038101906104f39190613777565b6116e5565b60405161050591906140d0565b60405180910390f35b6105286004803603810190610523919061363f565b611723565b60405161053591906140d0565b60405180910390f35b610558600480360381019061055391906135ed565b6118b6565b60405161056591906140d0565b60405180910390f35b6105766118ce565b6040516105839190613d6c565b60405180910390f35b6105a660048036038101906105a19190613777565b6118f8565b6040516105b391906140d0565b60405180910390f35b6105d660048036038101906105d191906138c4565b61195a565b005b6105f260048036038101906105ed9190613777565b611b83565b6040516106029493929190613de7565b60405180910390f35b61062560048036038101906106209190613805565b611c5b565b005b610641600480360381019061063c919061363f565b611e93565b005b61064b612486565b60405161065891906140d0565b60405180910390f35b61067b60048036038101906106769190613777565b61248c565b60405161068d969594939291906140eb565b60405180910390f35b61069e612515565b6040516106ab91906140d0565b60405180910390f35b6106ce60048036038101906106c991906135ed565b61251b565b6040516106db9190613e33565b60405180910390f35b6106fe60048036038101906106f99190613777565b6128a3565b60405161070b91906140d0565b60405180910390f35b61072e60048036038101906107299190613777565b6128c8565b005b61074a60048036038101906107459190613777565b612a41565b60405161075791906140d0565b60405180910390f35b61077a600480360381019061077591906135ed565b612b24565b005b610784612c1c565b73ffffffffffffffffffffffffffffffffffffffff166107a26118ce565b73ffffffffffffffffffffffffffffffffffffffff16146107f8576040517f08c379a00000000000000000000000000000000000000000000000000000000081526004016107ef90613fb0565b60405180910390fd5b43811161083a576040517f08c379a000000000000000000000000000000000000000000000000000000000815260040161083190614090565b60405180910390fd5b81811161087c576040517f08c379a000000000000000000000000000000000000000000000000000000000815260040161087390613e90565b60405180910390fd5b81816108889190614301565b600954620f424061089991906142a7565b6108a39190614276565b60058190555081600a8190555080600b819055505050565b600b5481565b600c60009054906101000a900460ff1681565b6108dc612c1c565b73ffffffffffffffffffffffffffffffffffffffff166108fa6118ce565b73ffffffffffffffffffffffffffffffffffffffff1614610950576040517f08c379a000000000000000000000000000000000000000000000000000000000815260040161094790613fb0565b60405180910390fd5b600b544311610994576040517f08c379a000000000000000000000000000000000000000000000000000000000815260040161098b90613f90565b60405180910390fd5b6000600460009054906101000a900473ffffffffffffffffffffffffffffffffffffffff1673ffffffffffffffffffffffffffffffffffffffff166370a08231306040518263ffffffff167c0100000000000000000000000000000000000000000000000000000000028152600401610a0d9190613d6c565b60206040518083038186803b158015610a2557600080fd5b505afa158015610a39573d6000803e3d6000fd5b505050506040513d601f19601f82011682018060405250810190610a5d91906137a0565b9050600460009054906101000a900473ffffffffffffffffffffffffffffffffffffffff1673ffffffffffffffffffffffffffffffffffffffff1663a9059cbb610aa56118ce565b836040518363ffffffff167c0100000000000000000000000000000000000000000000000000000000028152600401610adf929190613dbe565b602060405180830381600087803b158015610af957600080fd5b505af1158015610b0d573d6000803e3d6000fd5b505050506040513d601f19601f82011682018060405250810190610b31919061374e565b506000600c60006101000a81548160ff02191690831515021790555050565b610b58612c1c565b73ffffffffffffffffffffffffffffffffffffffff16610b766118ce565b73ffffffffffffffffffffffffffffffffffffffff1614610bcc576040517f08c379a0000000000000000000000000000000000000000000000000000000008152600401610bc390613fb0565b60405180910390fd5b80600c60006101000a81548160ff02191690831515021790555050565b600f6020528060005260406000206000915090505481565b60065481565b600080600090506000600190505b610c1f6003612c24565b8111610d1a5760001515600e600083815260200190815260200160002060050160009054906101000a900460ff161515148015610cf35750600d600085815260200190815260200160002060000160009054906101000a900473ffffffffffffffffffffffffffffffffffffffff1673ffffffffffffffffffffffffffffffffffffffff16600e600083815260200190815260200160002060010160009054906101000a900473ffffffffffffffffffffffffffffffffffffffff1673ffffffffffffffffffffffffffffffffffffffff16145b15610d07578180610d039061444c565b9250505b8080610d129061444c565b915050610c15565b5080915050919050565b60028060000154905081565b610d38612c1c565b73ffffffffffffffffffffffffffffffffffffffff16610d566118ce565b73ffffffffffffffffffffffffffffffffffffffff1614610dac576040517f08c379a0000000000000000000000000000000000000000000000000000000008152600401610da390613fb0565b60405180910390fd5b60008111610def576040517f08c379a0000000000000000000000000000000000000000000000000000000008152600401610de690614050565b60405180910390fd5b8060088190555050565b600043905090565b600a5481565b610e0f612c1c565b73ffffffffffffffffffffffffffffffffffffffff16610e2d6118ce565b73ffffffffffffffffffffffffffffffffffffffff1614610e83576040517f08c379a0000000000000000000000000000000000000000000000000000000008152600401610e7a90613fb0565b60405180910390fd5b82600460009054906101000a900473ffffffffffffffffffffffffffffffffffffffff1673ffffffffffffffffffffffffffffffffffffffff166370a08231610eca6118ce565b6040518263ffffffff167c0100000000000000000000000000000000000000000000000000000000028152600401610f029190613d6c565b60206040518083038186803b158015610f1a57600080fd5b505afa158015610f2e573d6000803e3d6000fd5b505050506040513d601f19601f82011682018060405250810190610f5291906137a0565b1015610f93576040517f08c379a0000000000000000000000000000000000000000000000000000000008152600401610f8a90613f50565b60405180910390fd5b438111610fd5576040517f08c379a0000000000000000000000000000000000000000000000000000000008152600401610fcc90614090565b60405180910390fd5b818111611017576040517f08c379a000000000000000000000000000000000000000000000000000000000815260040161100e90613e90565b60405180910390fd5b600460009054906101000a900473ffffffffffffffffffffffffffffffffffffffff1673ffffffffffffffffffffffffffffffffffffffff166323b872dd61105d6118ce565b30866040518463ffffffff167c010000000000000000000000000000000000000000000000000000000002815260040161109993929190613d87565b602060405180830381600087803b1580156110b357600080fd5b505af11580156110c7573d6000803e3d6000fd5b505050506040513d601f19601f820116820180604052508101906110eb919061374e565b508260098190555081600a8190555080600b81905550818161110d9190614301565b83620f424061111c91906142a7565b6111269190614276565b6005819055506001600c60006101000a81548160ff021916908315150217905550505050565b600080600090506000600190505b6111646003612c24565b81116112cc5760001515600e600083815260200190815260200160002060050160009054906101000a900460ff1615151480156112385750600d600086815260200190815260200160002060000160009054906101000a900473ffffffffffffffffffffffffffffffffffffffff1673ffffffffffffffffffffffffffffffffffffffff16600e600083815260200190815260200160002060010160009054906101000a900473ffffffffffffffffffffffffffffffffffffffff1673ffffffffffffffffffffffffffffffffffffffff16145b80156112a557508373ffffffffffffffffffffffffffffffffffffffff16600e600083815260200190815260200160002060020160009054906101000a900473ffffffffffffffffffffffffffffffffffffffff1673ffffffffffffffffffffffffffffffffffffffff16145b156112b95781806112b59061444c565b9250505b80806112c49061444c565b91505061115a565b506000600d600086815260200190815260200160002060030154826112f191906142a7565b9050809250505092915050565b611306612c1c565b73ffffffffffffffffffffffffffffffffffffffff166113246118ce565b73ffffffffffffffffffffffffffffffffffffffff161461137a576040517f08c379a000000000000000000000000000000000000000000000000000000000815260040161137190613fb0565b60405180910390fd5b600081116113bd576040517f08c379a00000000000000000000000000000000000000000000000000000000081526004016113b490614050565b60405180910390fd5b8060078190555050565b600080600e60008481526020019081526020016000209050600080600b544311156113f657600b5490506113fa565b4390505b600061140586612a41565b9050600061141282610c07565b90508060065461142189612c32565b8760040154866114319190614301565b60055461143e91906142a7565b61144891906142a7565b6114529190614276565b61145c9190614276565b93508395505050505050919050565b611473612c1c565b73ffffffffffffffffffffffffffffffffffffffff166114916118ce565b73ffffffffffffffffffffffffffffffffffffffff16146114e7576040517f08c379a00000000000000000000000000000000000000000000000000000000081526004016114de90613fb0565b60405180910390fd5b6114f16002612d27565b60006114fd6002612c24565b90506040518060a001604052808873ffffffffffffffffffffffffffffffffffffffff168152602001878152602001868680806020026020016040519081016040528093929190818152602001838360200280828437600081840152601f19601f82011690508083019250505050505050815260200184815260200183815250600d600083815260200190815260200160002060008201518160000160006101000a81548173ffffffffffffffffffffffffffffffffffffffff021916908373ffffffffffffffffffffffffffffffffffffffff1602179055506020820151816001015560408201518160020190805190602001906115fd929190613369565b506060820151816003015560808201518160040190805190602001906116249291906133b6565b50905050856006546116369190614220565b60068190555050505050505050565b61164d612c1c565b73ffffffffffffffffffffffffffffffffffffffff1661166b6118ce565b73ffffffffffffffffffffffffffffffffffffffff16146116c1576040517f08c379a00000000000000000000000000000000000000000000000000000000081526004016116b890613fb0565b60405180910390fd5b6116cb6000612d3d565b565b60055481565b60038060000154905081565b60085481565b6000806116f183610c07565b90506000600d6000858152602001908152602001600020600301548261171791906142a7565b90508092505050919050565b600080600090506000600190505b61173b6003612c24565b81116118ab578473ffffffffffffffffffffffffffffffffffffffff16600e600083815260200190815260200160002060020160009054906101000a900473ffffffffffffffffffffffffffffffffffffffff1673ffffffffffffffffffffffffffffffffffffffff161480156117d9575060001515600e600083815260200190815260200160002060050160009054906101000a900460ff161515145b801561187c5750600e600082815260200190815260200160002060010160009054906101000a900473ffffffffffffffffffffffffffffffffffffffff1673ffffffffffffffffffffffffffffffffffffffff16600d600086815260200190815260200160002060000160009054906101000a900473ffffffffffffffffffffffffffffffffffffffff1673ffffffffffffffffffffffffffffffffffffffff16145b156118985761188a816113c7565b826118959190614220565b91505b80806118a39061444c565b915050611731565b508091505092915050565b60106020528060005260406000206000915090505481565b6000600160009054906101000a900473ffffffffffffffffffffffffffffffffffffffff16905090565b600080611904836116e5565b90506000808214611950578160646018603c601460055461192591906142a7565b61192f91906142a7565b61193991906142a7565b61194391906142a7565b61194d9190614276565b90505b8092505050919050565b6000600e600084815260200190815260200160002090503373ffffffffffffffffffffffffffffffffffffffff168160020160009054906101000a900473ffffffffffffffffffffffffffffffffffffffff1673ffffffffffffffffffffffffffffffffffffffff1614611a03576040517f08c379a00000000000000000000000000000000000000000000000000000000081526004016119fa90613f70565b60405180910390fd5b600015158160050160009054906101000a900460ff16151514611a5b576040517f08c379a0000000000000000000000000000000000000000000000000000000008152600401611a5290613ff0565b60405180910390fd5b611a658333612e03565b8060010160009054906101000a900473ffffffffffffffffffffffffffffffffffffffff1673ffffffffffffffffffffffffffffffffffffffff166323b872dd303384600301546040518463ffffffff167c0100000000000000000000000000000000000000000000000000000000028152600401611ae693929190613d87565b600060405180830381600087803b158015611b0057600080fd5b505af1158015611b14573d6000803e3d6000fd5b5050505060018160050160006101000a81548160ff0219169083151502179055506001821415611b5b5760086000815480929190611b51906143bf565b9190505550611b7e565b6002821415611b7d5760076000815480929190611b77906143bf565b91905055505b5b505050565b600d6020528060005260406000206000915090508060000160009054906101000a900473ffffffffffffffffffffffffffffffffffffffff1690806001015490806003015490806004018054611bd8906143e9565b80601f0160208091040260200160405190810160405280929190818152602001828054611c04906143e9565b8015611c515780601f10611c2657610100808354040283529160200191611c51565b820191906000526020600020905b815481529060010190602001808311611c3457829003601f168201915b5050505050905084565b611c63612c1c565b73ffffffffffffffffffffffffffffffffffffffff16611c816118ce565b73ffffffffffffffffffffffffffffffffffffffff1614611cd7576040517f08c379a0000000000000000000000000000000000000000000000000000000008152600401611cce90613fb0565b60405180910390fd5b611ce16002612c24565b871115611d23576040517f08c379a0000000000000000000000000000000000000000000000000000000008152600401611d1a90614010565b60405180910390fd5b600d600088815260200190815260200160002060010154600654611d479190614301565b6006819055506040518060a001604052808773ffffffffffffffffffffffffffffffffffffffff168152602001868152602001858580806020026020016040519081016040528093929190818152602001838360200280828437600081840152601f19601f82011690508083019250505050505050815260200183815260200182815250600d600089815260200190815260200160002060008201518160000160006101000a81548173ffffffffffffffffffffffffffffffffffffffff021916908373ffffffffffffffffffffffffffffffffffffffff160217905550602082015181600101556040820151816002019080519060200190611e4b929190613369565b50606082015181600301556080820151816004019080519060200190611e729291906133b6565b5090505084600654611e849190614220565b60068190555050505050505050565b60026000541415611ed9576040517f08c379a0000000000000000000000000000000000000000000000000000000008152600401611ed090614070565b60405180910390fd5b60026000819055503382828273ffffffffffffffffffffffffffffffffffffffff168273ffffffffffffffffffffffffffffffffffffffff16636352211e836040518263ffffffff167c0100000000000000000000000000000000000000000000000000000000028152600401611f5091906140d0565b60206040518083038186803b158015611f6857600080fd5b505afa158015611f7c573d6000803e3d6000fd5b505050506040513d601f19601f82011682018060405250810190611fa09190613616565b73ffffffffffffffffffffffffffffffffffffffff1614611ff6576040517f08c379a0000000000000000000000000000000000000000000000000000000008152600401611fed906140b0565b60405180910390fd5b600754600f60008573ffffffffffffffffffffffffffffffffffffffff1673ffffffffffffffffffffffffffffffffffffffff16815260200190815260200160002054111561207a576040517f08c379a000000000000000000000000000000000000000000000000000000000815260040161207190613fd0565b60405180910390fd5b600854601060008573ffffffffffffffffffffffffffffffffffffffff1673ffffffffffffffffffffffffffffffffffffffff1681526020019081526020016000205411156120fe576040517f08c379a00000000000000000000000000000000000000000000000000000000081526004016120f590613f10565b60405180910390fd5b600a5443101580156121125750600b544311155b8015612131575060011515600c60009054906101000a900460ff161515145b612170576040517f08c379a000000000000000000000000000000000000000000000000000000000815260040161216790613f30565b60405180910390fd5b61217a6003612d27565b60006121866003612c24565b90506040518060c001604052808281526020018773ffffffffffffffffffffffffffffffffffffffff1681526020013373ffffffffffffffffffffffffffffffffffffffff16815260200186815260200143815260200160001515815250600e60008381526020019081526020016000206000820151816000015560208201518160010160006101000a81548173ffffffffffffffffffffffffffffffffffffffff021916908373ffffffffffffffffffffffffffffffffffffffff16021790555060408201518160020160006101000a81548173ffffffffffffffffffffffffffffffffffffffff021916908373ffffffffffffffffffffffffffffffffffffffff160217905550606082015181600301556080820151816004015560a08201518160050160006101000a81548160ff0219169083151502179055509050508573ffffffffffffffffffffffffffffffffffffffff166323b872dd3330886040518463ffffffff167c010000000000000000000000000000000000000000000000000000000002815260040161231f93929190613d87565b600060405180830381600087803b15801561233957600080fd5b505af115801561234d573d6000803e3d6000fd5b5050505061235a8161325e565b156123b957600f60003373ffffffffffffffffffffffffffffffffffffffff1673ffffffffffffffffffffffffffffffffffffffff16815260200190815260200160002060008154809291906123af9061444c565b919050555061240f565b601060003373ffffffffffffffffffffffffffffffffffffffff1673ffffffffffffffffffffffffffffffffffffffff16815260200190815260200160002060008154809291906124099061444c565b91905055505b3373ffffffffffffffffffffffffffffffffffffffff168673ffffffffffffffffffffffffffffffffffffffff167f4249649a2f5c977056f4db60e40a673eabf996b3ec3dc5b5b5713971888e6020838860405161246e92919061414c565b60405180910390a35050505060016000819055505050565b60095481565b600e6020528060005260406000206000915090508060000154908060010160009054906101000a900473ffffffffffffffffffffffffffffffffffffffff16908060020160009054906101000a900473ffffffffffffffffffffffffffffffffffffffff16908060030154908060040154908060050160009054906101000a900460ff16905086565b60075481565b606060006125296003612c24565b90506000806000600190505b8381116125fc57600e600082815260200190815260200160002060020160009054906101000a900473ffffffffffffffffffffffffffffffffffffffff1673ffffffffffffffffffffffffffffffffffffffff168673ffffffffffffffffffffffffffffffffffffffff161480156125d4575060001515600e600083815260200190815260200160002060050160009054906101000a900460ff161515145b156125e9576001836125e69190614220565b92505b80806125f49061444c565b915050612535565b5060008267ffffffffffffffff81111561263f577f4e487b7100000000000000000000000000000000000000000000000000000000600052604160045260246000fd5b60405190808252806020026020018201604052801561267857816020015b61266561343c565b81526020019060019003908161265d5790505b5090506000600190505b84811161289657600e600082815260200190815260200160002060020160009054906101000a900473ffffffffffffffffffffffffffffffffffffffff1673ffffffffffffffffffffffffffffffffffffffff168773ffffffffffffffffffffffffffffffffffffffff16148015612721575060001515600e600083815260200190815260200160002060050160009054906101000a900460ff161515145b15612883576000600e60008381526020019081526020016000209050806040518060c0016040529081600082015481526020016001820160009054906101000a900473ffffffffffffffffffffffffffffffffffffffff1673ffffffffffffffffffffffffffffffffffffffff1673ffffffffffffffffffffffffffffffffffffffff1681526020016002820160009054906101000a900473ffffffffffffffffffffffffffffffffffffffff1673ffffffffffffffffffffffffffffffffffffffff1673ffffffffffffffffffffffffffffffffffffffff16815260200160038201548152602001600482015481526020016005820160009054906101000a900460ff161515151581525050838581518110612867577f4e487b7100000000000000000000000000000000000000000000000000000000600052603260045260246000fd5b602002602001018190525060018461287f9190614220565b9350505b808061288e9061444c565b915050612682565b5080945050505050919050565b600080600e600084815260200190815260200160002090508060040154915050919050565b6000600190505b6128d96003612c24565b8111612a3d573373ffffffffffffffffffffffffffffffffffffffff16600e600083815260200190815260200160002060020160009054906101000a900473ffffffffffffffffffffffffffffffffffffffff1673ffffffffffffffffffffffffffffffffffffffff16148015612977575060001515600e600083815260200190815260200160002060050160009054906101000a900460ff161515145b8015612a1a5750600e600082815260200190815260200160002060010160009054906101000a900473ffffffffffffffffffffffffffffffffffffffff1673ffffffffffffffffffffffffffffffffffffffff16600d600084815260200190815260200160002060000160009054906101000a900473ffffffffffffffffffffffffffffffffffffffff1673ffffffffffffffffffffffffffffffffffffffff16145b15612a2a57612a298133612e03565b5b8080612a359061444c565b9150506128cf565b5050565b600080600090506000600190505b612a596002612c24565b8111612b1a57600e600085815260200190815260200160002060010160009054906101000a900473ffffffffffffffffffffffffffffffffffffffff1673ffffffffffffffffffffffffffffffffffffffff16600d600083815260200190815260200160002060000160009054906101000a900473ffffffffffffffffffffffffffffffffffffffff1673ffffffffffffffffffffffffffffffffffffffff161415612b0757809150612b1a565b8080612b129061444c565b915050612a4f565b5080915050919050565b612b2c612c1c565b73ffffffffffffffffffffffffffffffffffffffff16612b4a6118ce565b73ffffffffffffffffffffffffffffffffffffffff1614612ba0576040517f08c379a0000000000000000000000000000000000000000000000000000000008152600401612b9790613fb0565b60405180910390fd5b600073ffffffffffffffffffffffffffffffffffffffff168173ffffffffffffffffffffffffffffffffffffffff161415612c10576040517f08c379a0000000000000000000000000000000000000000000000000000000008152600401612c0790613eb0565b60405180910390fd5b612c1981612d3d565b50565b600033905090565b600081600001549050919050565b600080600190505b612c446002612c24565b8111612d1c57600e600084815260200190815260200160002060010160009054906101000a900473ffffffffffffffffffffffffffffffffffffffff1673ffffffffffffffffffffffffffffffffffffffff16600d600083815260200190815260200160002060000160009054906101000a900473ffffffffffffffffffffffffffffffffffffffff1673ffffffffffffffffffffffffffffffffffffffff161415612d0957600d600082815260200190815260200160002060010154915050612d22565b8080612d149061444c565b915050612c3a565b50600090505b919050565b6001816000016000828254019250508190555050565b6000600160009054906101000a900473ffffffffffffffffffffffffffffffffffffffff16905081600160006101000a81548173ffffffffffffffffffffffffffffffffffffffff021916908373ffffffffffffffffffffffffffffffffffffffff1602179055508173ffffffffffffffffffffffffffffffffffffffff168173ffffffffffffffffffffffffffffffffffffffff167f8be0079c531659141344cd1fd0a4f28419497f9722a3daafe3b4186f6b6457e060405160405180910390a35050565b6000600e60008481526020019081526020016000209050612e246003612c24565b831115612e66576040517f08c379a0000000000000000000000000000000000000000000000000000000008152600401612e5d90613ef0565b60405180910390fd5b600e600084815260200190815260200160002060020160009054906101000a900473ffffffffffffffffffffffffffffffffffffffff1673ffffffffffffffffffffffffffffffffffffffff168273ffffffffffffffffffffffffffffffffffffffff1614612f0a576040517f08c379a0000000000000000000000000000000000000000000000000000000008152600401612f0190613ed0565b60405180910390fd5b43816004015410612f50576040517f08c379a0000000000000000000000000000000000000000000000000000000008152600401612f4790614030565b60405180910390fd5b6000600b54431115612f6657600b549050612f6a565b4390505b600080612f7686612a41565b90506000612f8382610c07565b905080600654612f9289612c32565b876004015487612fa29190614301565b600554612faf91906142a7565b612fb991906142a7565b612fc39190614276565b612fcd9190614276565b925082600460009054906101000a900473ffffffffffffffffffffffffffffffffffffffff1673ffffffffffffffffffffffffffffffffffffffff166370a08231306040518263ffffffff167c01000000000000000000000000000000000000000000000000000000000281526004016130479190613d6c565b60206040518083038186803b15801561305f57600080fd5b505afa158015613073573d6000803e3d6000fd5b505050506040513d601f19601f8201168201806040525081019061309791906137a0565b10156130d8576040517f08c379a00000000000000000000000000000000000000000000000000000000081526004016130cf90613e70565b60405180910390fd5b600460009054906101000a900473ffffffffffffffffffffffffffffffffffffffff1673ffffffffffffffffffffffffffffffffffffffff1663a9059cbb8660020160009054906101000a900473ffffffffffffffffffffffffffffffffffffffff1664e8d4a510008661314c91906142a7565b6040518363ffffffff167c0100000000000000000000000000000000000000000000000000000000028152600401613185929190613dbe565b602060405180830381600087803b15801561319f57600080fd5b505af11580156131b3573d6000803e3d6000fd5b505050506040513d601f19601f820116820180604052508101906131d7919061374e565b508385600401819055508460020160009054906101000a900473ffffffffffffffffffffffffffffffffffffffff1673ffffffffffffffffffffffffffffffffffffffff167f393ccd03ff98115189a2796d79ffa176e434468dbeea90a87972324be8c50718888560405161324d92919061414c565b60405180910390a250505050505050565b600080600190505b6132706002612c24565b811161335e57600e600084815260200190815260200160002060010160009054906101000a900473ffffffffffffffffffffffffffffffffffffffff1673ffffffffffffffffffffffffffffffffffffffff16600d600083815260200190815260200160002060000160009054906101000a900473ffffffffffffffffffffffffffffffffffffffff1673ffffffffffffffffffffffffffffffffffffffff16141561334b576000600d60008381526020019081526020016000206002018054905014613341576001915050613364565b6000915050613364565b80806133569061444c565b915050613266565b50600090505b919050565b8280548282559060005260206000209081019282156133a5579160200282015b828111156133a4578251825591602001919060010190613389565b5b5090506133b291906134a0565b5090565b8280546133c2906143e9565b90600052602060002090601f0160209004810192826133e4576000855561342b565b82601f106133fd57805160ff191683800117855561342b565b8280016001018555821561342b579182015b8281111561342a57825182559160200191906001019061340f565b5b50905061343891906134a0565b5090565b6040518060c0016040528060008152602001600073ffffffffffffffffffffffffffffffffffffffff168152602001600073ffffffffffffffffffffffffffffffffffffffff16815260200160008152602001600081526020016000151581525090565b5b808211156134b95760008160009055506001016134a1565b5090565b60006134d06134cb8461419a565b614175565b9050828152602081018484840111156134e857600080fd5b6134f384828561437d565b509392505050565b60008135905061350a81614977565b92915050565b60008151905061351f81614977565b92915050565b60008083601f84011261353757600080fd5b8235905067ffffffffffffffff81111561355057600080fd5b60208301915083602082028301111561356857600080fd5b9250929050565b60008135905061357e8161498e565b92915050565b6000815190506135938161498e565b92915050565b600082601f8301126135aa57600080fd5b81356135ba8482602086016134bd565b91505092915050565b6000813590506135d2816149a5565b92915050565b6000815190506135e7816149a5565b92915050565b6000602082840312156135ff57600080fd5b600061360d848285016134fb565b91505092915050565b60006020828403121561362857600080fd5b600061363684828501613510565b91505092915050565b6000806040838503121561365257600080fd5b6000613660858286016134fb565b9250506020613671858286016135c3565b9150509250929050565b60008060008060008060a0878903121561369457600080fd5b60006136a289828a016134fb565b96505060206136b389828a016135c3565b955050604087013567ffffffffffffffff8111156136d057600080fd5b6136dc89828a01613525565b945094505060606136ef89828a016135c3565b925050608087013567ffffffffffffffff81111561370c57600080fd5b61371889828a01613599565b9150509295509295509295565b60006020828403121561373757600080fd5b60006137458482850161356f565b91505092915050565b60006020828403121561376057600080fd5b600061376e84828501613584565b91505092915050565b60006020828403121561378957600080fd5b6000613797848285016135c3565b91505092915050565b6000602082840312156137b257600080fd5b60006137c0848285016135d8565b91505092915050565b600080604083850312156137dc57600080fd5b60006137ea858286016135c3565b92505060206137fb858286016134fb565b9150509250929050565b600080600080600080600060c0888a03121561382057600080fd5b600061382e8a828b016135c3565b975050602061383f8a828b016134fb565b96505060406138508a828b016135c3565b955050606088013567ffffffffffffffff81111561386d57600080fd5b6138798a828b01613525565b9450945050608061388c8a828b016135c3565b92505060a088013567ffffffffffffffff8111156138a957600080fd5b6138b58a828b01613599565b91505092959891949750929550565b600080604083850312156138d757600080fd5b60006138e5858286016135c3565b92505060206138f6858286016135c3565b9150509250929050565b60008060006060848603121561391557600080fd5b6000613923868287016135c3565b9350506020613934868287016135c3565b9250506040613945868287016135c3565b9150509250925092565b600061395b8383613cd3565b60c08301905092915050565b61397081614335565b82525050565b61397f81614335565b82525050565b6000613990826141db565b61399a81856141fe565b93506139a5836141cb565b8060005b838110156139d65781516139bd888261394f565b97506139c8836141f1565b9250506001810190506139a9565b5085935050505092915050565b6139ec81614347565b82525050565b6139fb81614347565b82525050565b6000613a0c826141e6565b613a16818561420f565b9350613a2681856020860161438c565b613a2f81614551565b840191505092915050565b6000613a4760238361420f565b9150613a5282614562565b604082019050919050565b6000613a6a60348361420f565b9150613a75826145b1565b604082019050919050565b6000613a8d60268361420f565b9150613a9882614600565b604082019050919050565b6000613ab060168361420f565b9150613abb8261464f565b602082019050919050565b6000613ad3600f8361420f565b9150613ade82614678565b602082019050919050565b6000613af6602d8361420f565b9150613b01826146a1565b604082019050919050565b6000613b1960178361420f565b9150613b24826146f0565b602082019050919050565b6000613b3c60238361420f565b9150613b4782614719565b604082019050919050565b6000613b5f60118361420f565b9150613b6a82614768565b602082019050919050565b6000613b8260178361420f565b9150613b8d82614791565b602082019050919050565b6000613ba560208361420f565b9150613bb0826147ba565b602082019050919050565b6000613bc860288361420f565b9150613bd3826147e3565b604082019050919050565b6000613beb60278361420f565b9150613bf682614832565b604082019050919050565b6000613c0e600e8361420f565b9150613c1982614881565b602082019050919050565b6000613c3160148361420f565b9150613c3c826148aa565b602082019050919050565b6000613c54601f8361420f565b9150613c5f826148d3565b602082019050919050565b6000613c77601f8361420f565b9150613c82826148fc565b602082019050919050565b6000613c9a601e8361420f565b9150613ca582614925565b602082019050919050565b6000613cbd60098361420f565b9150613cc88261494e565b602082019050919050565b60c082016000820151613ce96000850182613d4e565b506020820151613cfc6020850182613967565b506040820151613d0f6040850182613967565b506060820151613d226060850182613d4e565b506080820151613d356080850182613d4e565b5060a0820151613d4860a08501826139e3565b50505050565b613d5781614373565b82525050565b613d6681614373565b82525050565b6000602082019050613d816000830184613976565b92915050565b6000606082019050613d9c6000830186613976565b613da96020830185613976565b613db66040830184613d5d565b949350505050565b6000604082019050613dd36000830185613976565b613de06020830184613d5d565b9392505050565b6000608082019050613dfc6000830187613976565b613e096020830186613d5d565b613e166040830185613d5d565b8181036060830152613e288184613a01565b905095945050505050565b60006020820190508181036000830152613e4d8184613985565b905092915050565b6000602082019050613e6a60008301846139f2565b92915050565b60006020820190508181036000830152613e8981613a3a565b9050919050565b60006020820190508181036000830152613ea981613a5d565b9050919050565b60006020820190508181036000830152613ec981613a80565b9050919050565b60006020820190508181036000830152613ee981613aa3565b9050919050565b60006020820190508181036000830152613f0981613ac6565b9050919050565b60006020820190508181036000830152613f2981613ae9565b9050919050565b60006020820190508181036000830152613f4981613b0c565b9050919050565b60006020820190508181036000830152613f6981613b2f565b9050919050565b60006020820190508181036000830152613f8981613b52565b9050919050565b60006020820190508181036000830152613fa981613b75565b9050919050565b60006020820190508181036000830152613fc981613b98565b9050919050565b60006020820190508181036000830152613fe981613bbb565b9050919050565b6000602082019050818103600083015261400981613bde565b9050919050565b6000602082019050818103600083015261402981613c01565b9050919050565b6000602082019050818103600083015261404981613c24565b9050919050565b6000602082019050818103600083015261406981613c47565b9050919050565b6000602082019050818103600083015261408981613c6a565b9050919050565b600060208201905081810360008301526140a981613c8d565b9050919050565b600060208201905081810360008301526140c981613cb0565b9050919050565b60006020820190506140e56000830184613d5d565b92915050565b600060c0820190506141006000830189613d5d565b61410d6020830188613976565b61411a6040830187613976565b6141276060830186613d5d565b6141346080830185613d5d565b61414160a08301846139f2565b979650505050505050565b60006040820190506141616000830185613d5d565b61416e6020830184613d5d565b9392505050565b600061417f614190565b905061418b828261441b565b919050565b6000604051905090565b600067ffffffffffffffff8211156141b5576141b4614522565b5b6141be82614551565b9050602081019050919050565b6000819050602082019050919050565b600081519050919050565b600081519050919050565b6000602082019050919050565b600082825260208201905092915050565b600082825260208201905092915050565b600061422b82614373565b915061423683614373565b9250827fffffffffffffffffffffffffffffffffffffffffffffffffffffffffffffffff0382111561426b5761426a614495565b5b828201905092915050565b600061428182614373565b915061428c83614373565b92508261429c5761429b6144c4565b5b828204905092915050565b60006142b282614373565b91506142bd83614373565b9250817fffffffffffffffffffffffffffffffffffffffffffffffffffffffffffffffff04831182151516156142f6576142f5614495565b5b828202905092915050565b600061430c82614373565b915061431783614373565b92508282101561432a57614329614495565b5b828203905092915050565b600061434082614353565b9050919050565b60008115159050919050565b600073ffffffffffffffffffffffffffffffffffffffff82169050919050565b6000819050919050565b82818337600083830152505050565b60005b838110156143aa57808201518184015260208101905061438f565b838111156143b9576000848401525b50505050565b60006143ca82614373565b915060008214156143de576143dd614495565b5b600182039050919050565b6000600282049050600182168061440157607f821691505b60208210811415614415576144146144f3565b5b50919050565b61442482614551565b810181811067ffffffffffffffff8211171561444357614442614522565b5b80604052505050565b600061445782614373565b91507fffffffffffffffffffffffffffffffffffffffffffffffffffffffffffffffff82141561448a57614489614495565b5b600182019050919050565b7f4e487b7100000000000000000000000000000000000000000000000000000000600052601160045260246000fd5b7f4e487b7100000000000000000000000000000000000000000000000000000000600052601260045260246000fd5b7f4e487b7100000000000000000000000000000000000000000000000000000000600052602260045260246000fd5b7f4e487b7100000000000000000000000000000000000000000000000000000000600052604160045260246000fd5b6000601f19601f8301169050919050565b7f696e73756666696369656e74204d696c6b20616d6f756e7420746f206861727660008201527f6573740000000000000000000000000000000000000000000000000000000000602082015250565b7f456e6420426c6f636b204e756d626572206d757374206269676765722074686160008201527f6e20537461727420426c6f636b204e756d626572000000000000000000000000602082015250565b7f4f776e61626c653a206e6577206f776e657220697320746865207a65726f206160008201527f6464726573730000000000000000000000000000000000000000000000000000602082015250565b7f4e6f74206f776e6572206f662074686973204974656d00000000000000000000600082015250565b7f696e76616c6964204974656d2049640000000000000000000000000000000000600082015250565b7f616c7265616479207374616b6564206d6178696d756d206e756d626572206f6660008201527f20636f6c6c65637469626c657300000000000000000000000000000000000000602082015250565b7f5374616b696e67206973206e6f74207374617274656421000000000000000000600082015250565b7f696e73756666696369656e74204d696c6b20616d6f756e7420746f204465706f60008201527f7369740000000000000000000000000000000000000000000000000000000000602082015250565b7f796f7520617265206e6f74206f776e6572000000000000000000000000000000600082015250565b7f5374616b696e67206973206e6f742066696e6973686564000000000000000000600082015250565b7f4f776e61626c653a2063616c6c6572206973206e6f7420746865206f776e6572600082015250565b7f616c7265616479207374616b6564206d6178696d756d206e756d626572206f6660008201527f2067656e65736973000000000000000000000000000000000000000000000000602082015250565b7f54686973205374616b696e67204974656d2077617320756e7374616b6564206160008201527f6c72656164792100000000000000000000000000000000000000000000000000602082015250565b7f696e76616c696420706f6f6c4964000000000000000000000000000000000000600082015250565b7f6e6f7420726561647920746f2068617276657374000000000000000000000000600082015250565b7f76616c7565206d7573742062652067726561746572207468616e207a65726f00600082015250565b7f5265656e7472616e637947756172643a207265656e7472616e742063616c6c00600082015250565b7f456e6420426c6f636b206d75737420626967676572207468616e206e6f770000600082015250565b7f6e6f74206f776e65720000000000000000000000000000000000000000000000600082015250565b61498081614335565b811461498b57600080fd5b50565b61499781614347565b81146149a257600080fd5b50565b6149ae81614373565b81146149b957600080fd5b5056fea26469706673582212201fcc1915d023c61e9e82c759079965a2712374923aa6868d6371c42447b8349264736f6c63430008040033",
  "immutableReferences": {},
  "source": "// SPDX-License-Identifier: MIT\r\npragma solidity ^0.8.4;\r\nimport \"@openzeppelin/contracts/utils/Counters.sol\";\r\nimport \"@openzeppelin/contracts/token/ERC721/ERC721.sol\";\r\nimport \"@openzeppelin/contracts/security/ReentrancyGuard.sol\";\r\nimport \"@openzeppelin/contracts/access/Ownable.sol\";\r\nimport \"./interfaces/IMilkToken.sol\";\r\n\r\ncontract Staking is ReentrancyGuard, Ownable {\r\n    using Counters for Counters.Counter;\r\n    \r\n    struct StakingItem {\r\n        uint256 itemId;\r\n        address contractAddress;\r\n        address owner;\r\n        uint256 tokenId;\r\n        uint256 lastHarvestBlock;\r\n        bool isEnded;\r\n    }\r\n\r\n    struct PoolInfo {\r\n        address contractAddress;\r\n        uint256 allocPoint;\r\n        uint256[] tokenIds;\r\n        uint256 milkPower;\r\n        string poolName;\r\n    }\r\n\r\n    Counters.Counter public stakingPoolCount;\r\n    Counters.Counter public stakingItemCount;\r\n    IMilkToken tokenMilk;\r\n    \r\n    uint256 public milkPerBlock;\r\n    uint256 public totalAllocPoint;\r\n    uint256 public maxGenesisPerWallet;\r\n    uint256 public maxCollectiblesPerWallet;\r\n    uint256 public totalAmountDepositedPool;\r\n    uint256 public startBlock;\r\n    uint256 public endBlock;\r\n    bool public isStakingAvailable;\r\n    mapping(uint256 => PoolInfo) public pools;\r\n    mapping(uint256 => StakingItem) public items;\r\n    mapping(address => uint256) public genesisOfUser;\r\n    mapping(address => uint256) public collectiblesOfUser;\r\n\r\n    event StakingItemCreated(\r\n        uint256 itemId,\r\n        address indexed nftContract,\r\n        address indexed owner,\r\n        uint256 tokenId\r\n    );\r\n\r\n    event Harvest(\r\n        uint256 itemId,\r\n        address indexed owner,\r\n        uint256 amount\r\n    );\r\n\r\n    constructor(IMilkToken _tokenMilk) {\r\n        tokenMilk = _tokenMilk;\r\n        totalAllocPoint = 0;\r\n        milkPerBlock = 0;\r\n        maxGenesisPerWallet = 5;\r\n        maxCollectiblesPerWallet = 10;\r\n        totalAmountDepositedPool = 0;\r\n        isStakingAvailable = false;\r\n    }\r\n\r\n    function depositMilkToPool(uint256 _totalAmountDepositedPool, uint256 _startBlock, uint256 _endBlock) public onlyOwner {\r\n        require(tokenMilk.balanceOf(owner()) >= _totalAmountDepositedPool, \"insufficient Milk amount to Deposit\");\r\n        require(_endBlock > block.number, \"End Block must bigger than now\");\r\n        require(_endBlock > _startBlock, \"End Block Number must bigger than Start Block Number\");\r\n        tokenMilk.transferFrom(owner(), address(this), _totalAmountDepositedPool);\r\n        totalAmountDepositedPool = _totalAmountDepositedPool;\r\n        startBlock = _startBlock;\r\n        endBlock = _endBlock;\r\n        milkPerBlock = 10 ** 6 * _totalAmountDepositedPool / (_endBlock - _startBlock);\r\n        isStakingAvailable = true;\r\n    }\r\n\r\n    function setPeriod(uint256 _startBlock, uint256 _endBlock) public onlyOwner {\r\n        require(_endBlock > block.number, \"End Block must bigger than now\");\r\n        require(_endBlock > _startBlock, \"End Block Number must bigger than Start Block Number\");\r\n        milkPerBlock = 10 ** 6 * totalAmountDepositedPool / (_endBlock - _startBlock);\r\n        startBlock = _startBlock;\r\n        endBlock = _endBlock;\r\n    }    \r\n\r\n    function setIsStakingAvailable(bool _isStakingAvailable) public onlyOwner{\r\n        isStakingAvailable = _isStakingAvailable;\r\n    }\r\n\r\n    function setMaxGenesisPerWallet(uint256 _value) public onlyOwner {\r\n        require(\r\n            _value > 0,\r\n            \"value must be greater than zero\"\r\n        );\r\n        maxGenesisPerWallet = _value;\r\n    }\r\n\r\n    function setMaxCollectiblesPerWallet(uint256 _value) public onlyOwner {\r\n        require(\r\n            _value > 0,\r\n            \"value must be greater than zero\"\r\n        );\r\n        maxCollectiblesPerWallet = _value;\r\n    }\r\n\r\n    function addPool(address _contractAddress, uint256 _allocPoint, uint256[] calldata _tokenIds, uint256 _milkPower, string memory _poolName) public onlyOwner {\r\n        stakingPoolCount.increment();\r\n        uint256 poolId = stakingPoolCount.current();\r\n\r\n        pools[poolId] = PoolInfo(\r\n            _contractAddress,\r\n            _allocPoint,\r\n            _tokenIds,\r\n            _milkPower,\r\n            _poolName\r\n        );\r\n\r\n        totalAllocPoint = totalAllocPoint + _allocPoint;\r\n    }\r\n\r\n    function updatePool(\r\n        uint256 _poolId, \r\n        address _contractAddress, \r\n        uint256 _allocPoint, \r\n        uint256[] calldata _tokenIds,\r\n        uint256 _milkPower, \r\n        string memory _poolName\r\n    ) public onlyOwner {\r\n        require(_poolId <= stakingPoolCount.current(), \"invalid poolId\");\r\n\r\n        totalAllocPoint = totalAllocPoint - pools[_poolId].allocPoint;\r\n\r\n        pools[_poolId] = PoolInfo(\r\n            _contractAddress,\r\n            _allocPoint,\r\n            _tokenIds,\r\n            _milkPower,\r\n            _poolName\r\n        );\r\n\r\n        totalAllocPoint = totalAllocPoint + _allocPoint;\r\n    }\r\n\r\n    modifier isValid(address _msgSender, address _contractAddress, uint256 _tokenId) {\r\n        require(IERC721(_contractAddress).ownerOf(_tokenId) == _msgSender, \"not owner\");\r\n        require(genesisOfUser[_msgSender] <= maxGenesisPerWallet, \"already staked maximum number of genesis\");\r\n        require(collectiblesOfUser[_msgSender] <= maxCollectiblesPerWallet, \"already staked maximum number of collectibles\");\r\n\r\n        _;\r\n    }\r\n\r\n    function stake(\r\n        address _nftContract,\r\n        uint256 _tokenId\r\n    ) public nonReentrant isValid(msg.sender, _nftContract, _tokenId) {\r\n\r\n        require(block.number >= startBlock && block.number <= endBlock && isStakingAvailable == true, \"Staking is not started!\");\r\n\r\n        stakingItemCount.increment();\r\n        uint256 itemId = stakingItemCount.current();\r\n\r\n        items[itemId] = StakingItem(\r\n            itemId,\r\n            _nftContract,\r\n            msg.sender,\r\n            _tokenId,\r\n            block.number,\r\n            false\r\n        );\r\n\r\n        IERC721(_nftContract).transferFrom(msg.sender, address(this), _tokenId);\r\n        \r\n        if(isGenesisNFT(itemId)) genesisOfUser[msg.sender] ++;\r\n\r\n        else collectiblesOfUser[msg.sender] ++;\r\n\r\n        emit StakingItemCreated(\r\n            itemId,\r\n            _nftContract,\r\n            msg.sender,\r\n            _tokenId\r\n        );\r\n    }\r\n\r\n    function getAllocPoint(uint256 _itemId) internal view returns(uint256) {\r\n        for(uint256 i = 1; i <= stakingPoolCount.current(); i++) {\r\n            if (pools[i].contractAddress == items[_itemId].contractAddress) {\r\n                return pools[i].allocPoint;\r\n            }\r\n        }\r\n        return 0;\r\n    }\r\n\r\n    function isGenesisNFT(uint256 _itemId) internal view returns(bool) {\r\n        for(uint256 i = 1; i <= stakingPoolCount.current(); i++) {\r\n            if (pools[i].contractAddress == items[_itemId].contractAddress) {\r\n                if(pools[i].tokenIds.length != 0)\r\n                    return true;\r\n                else\r\n                    return false;\r\n            }\r\n        }\r\n        return false;\r\n    }\r\n\r\n    function _harvest(\r\n        uint256 _itemId,\r\n        address _owner\r\n    ) internal {\r\n        StakingItem storage item = items[_itemId];\r\n        require(_itemId <= stakingItemCount.current(), \"invalid Item Id\");\r\n        require(_owner == items[_itemId].owner, \"Not owner of this Item\" );\r\n        require(item.lastHarvestBlock < block.number, \"not ready to harvest\");\r\n\r\n        uint256 tmpEndBlock = 0;\r\n        if(block.number > endBlock)\r\n            tmpEndBlock = endBlock;\r\n        else\r\n            tmpEndBlock = block.number;\r\n        \r\n        uint256 amount = 0;\r\n\r\n        uint256 poolId = getPoolId(_itemId);\r\n        uint256 stakedCount = getTotalStakedCount(poolId);\r\n        amount = milkPerBlock * (tmpEndBlock - item.lastHarvestBlock) * getAllocPoint(_itemId) / totalAllocPoint / stakedCount;\r\n        // uint256 poolId = getPoolId(_itemId);\r\n        // uint256 totalMilkPower = 0;\r\n        // for(uint256 i = 1; i <= stakingPoolCount.current(); i ++) {\r\n        //     uint256 stakedCount = getTotalStakedCount(i);\r\n        //     totalMilkPower += stakedCount * pools[i].milkPower;\r\n        // }\r\n        // amount = milkPerBlock * (tmpEndBlock - item.lastHarvestBlock) * pools[poolId].milkPower / totalMilkPower;\r\n\r\n        require(tokenMilk.balanceOf(address(this)) >= amount, \"insufficient Milk amount to harvest\");\r\n\r\n        tokenMilk.transfer(item.owner, amount * 10 ** 12);\r\n\r\n        item.lastHarvestBlock = tmpEndBlock;\r\n\r\n        emit Harvest(_itemId, item.owner, amount);\r\n    }\r\n\r\n    function harvest(uint256 _poolId) public {\r\n        for(uint256 i = 1; i <= stakingItemCount.current(); i ++) {\r\n            if(items[i].owner == msg.sender && items[i].isEnded == false && pools[_poolId].contractAddress == items[i].contractAddress) {\r\n                _harvest(i, msg.sender);\r\n            }\r\n        }\r\n    }\r\n\r\n    function getStakedItems(address _owner) public view returns(StakingItem[] memory){\r\n        uint256 totalItemCount = stakingItemCount.current();\r\n        uint256 itemCount = 0;\r\n        uint256 currentIndex = 0;\r\n\r\n        for(uint256 i = 1; i <= totalItemCount; i ++) {\r\n            if(_owner == items[i].owner && items[i].isEnded == false) {\r\n                itemCount += 1;\r\n            }\r\n        }\r\n\r\n        StakingItem[] memory stakedItems = new StakingItem[](itemCount);\r\n    \r\n        for (uint256 i = 1; i <= totalItemCount; i ++) {\r\n            if(_owner == items[i].owner && items[i].isEnded == false) {\r\n                StakingItem storage currentItem = items[i];\r\n                stakedItems[currentIndex] = currentItem;\r\n                currentIndex += 1;\r\n            }\r\n        }\r\n\r\n        return stakedItems;\r\n\r\n    }\r\n\r\n    function getPendingMilk(uint256 _itemId) public view returns(uint256){\r\n        StakingItem storage item = items[_itemId];\r\n\r\n        uint256 amount = 0;\r\n\r\n        uint256 tmpEndBlock = 0;\r\n        if(block.number > endBlock)\r\n            tmpEndBlock = endBlock;\r\n        else\r\n            tmpEndBlock = block.number;\r\n\r\n        uint256 poolId = getPoolId(_itemId);\r\n        uint256 stakedCount = getTotalStakedCount(poolId);\r\n        amount = milkPerBlock * (tmpEndBlock - item.lastHarvestBlock) * getAllocPoint(_itemId) / totalAllocPoint / stakedCount;\r\n        // uint256 poolId = getPoolId(_itemId);\r\n        // uint256 totalMilkPower = 0;\r\n        // for(uint256 i = 1; i <= stakingPoolCount.current(); i ++) {\r\n        //     uint256 stakedCount = getTotalStakedCount(i);\r\n        //     totalMilkPower += stakedCount * pools[i].milkPower;\r\n        // }\r\n        // amount = milkPerBlock * (tmpEndBlock - item.lastHarvestBlock) * pools[poolId].milkPower / totalMilkPower;\r\n\r\n        return amount;\r\n    }\r\n\r\n    function getPendingMilkForAll(address _owner, uint256 _poolId) public view returns(uint256) {\r\n        uint256 totalMilkReward = 0;\r\n        for(uint256 i = 1; i <= stakingItemCount.current(); i ++) {\r\n            if(items[i].owner == _owner && items[i].isEnded == false && pools[_poolId].contractAddress == items[i].contractAddress) {\r\n                totalMilkReward += getPendingMilk(i);\r\n            }\r\n        }\r\n        return totalMilkReward;\r\n    }\r\n    \r\n    function getBlockNumber() public view returns(uint256) {\r\n        return block.number;\r\n    }\r\n\r\n    function getPoolId(uint256 _itemId) public view returns(uint256) {\r\n\r\n        uint256 poolId = 0;\r\n        for(uint256 i = 1; i <= stakingPoolCount.current(); i ++) {\r\n            if(pools[i].contractAddress == items[_itemId].contractAddress)\r\n            {\r\n                poolId = i;\r\n                break;\r\n            }\r\n        }\r\n        return poolId;\r\n\r\n    }\r\n    function getTotalStakedCount(uint256 _poolId) public view returns(uint256) {\r\n        uint256 count = 0;\r\n        for(uint256 i = 1; i <= stakingItemCount.current(); i ++)\r\n        {\r\n            if(items[i].isEnded == false && items[i].contractAddress == pools[_poolId].contractAddress) {\r\n                count ++;\r\n            }\r\n        }\r\n        return count;\r\n    }\r\n\r\n    function getTotalMilkPower(uint256 _poolId) public view returns(uint256) {\r\n        uint256 count = getTotalStakedCount(_poolId);\r\n        uint256 totalMilkPower =  count * pools[_poolId].milkPower;\r\n        return totalMilkPower;\r\n    }\r\n\r\n    function getMyMilkPower(uint256 _poolId, address _owner) public view returns(uint256) {\r\n        uint256 count = 0;\r\n        for(uint256 i = 1; i <= stakingItemCount.current(); i ++)\r\n        {\r\n            if(items[i].isEnded == false && items[i].contractAddress == pools[_poolId].contractAddress && items[i].owner == _owner) {\r\n                count ++;\r\n            }\r\n        }\r\n        uint256 myMilkPower =  count * pools[_poolId].milkPower;\r\n        return myMilkPower;\r\n    }\r\n\r\n    function getDailyMilkRate(uint256 _poolId) public view returns(uint256) {\r\n        uint256 totalMilkPower = getTotalMilkPower(_poolId);\r\n        uint256 dailyRate = 0;\r\n        if(totalMilkPower != 0)\r\n            dailyRate = milkPerBlock * 20 * 60 * 24 * 100 / totalMilkPower;\r\n        return dailyRate;\r\n    }\r\n\r\n    function getLastHarvestBlock(uint256 _itemId) public view returns(uint256) {\r\n        StakingItem storage item = items[_itemId];\r\n        return item.lastHarvestBlock;\r\n    }\r\n\r\n    function unstake(\r\n        uint256 _itemId,\r\n        uint256 _poolId\r\n    ) public {\r\n        StakingItem storage item = items[_itemId];\r\n\r\n        require(item.owner == msg.sender, \"you are not owner\");\r\n        require(item.isEnded == false, \"This Staking Item was unstaked already!\");\r\n        _harvest(_itemId, msg.sender);\r\n        IERC721(item.contractAddress).transferFrom(address(this), msg.sender, item.tokenId);\r\n        item.isEnded = true;\r\n        if(_poolId == 1) maxCollectiblesPerWallet --;\r\n        else if(_poolId == 2) maxGenesisPerWallet --;\r\n    }\r\n\r\n    function withDraw() public onlyOwner {\r\n        require(block.number > endBlock, \"Staking is not finished\");\r\n        uint256 remainBalance = tokenMilk.balanceOf(address(this));\r\n        tokenMilk.transfer(owner(), remainBalance);\r\n        isStakingAvailable = false;\r\n    }\r\n}\r\n",
  "sourcePath": "E:\\Git for Project\\Ethereum\\NFT\\CashCow\\nft-contracts\\contracts\\Staking.sol",
  "compiler": {
    "name": "solc",
    "version": "0.8.4+commit.c7e474f2.Emscripten.clang"
  },
  "schemaVersion": "3.4.2",
  "updatedAt": "2022-02-10T12:43:52.158Z",
  "networkType": "ethereum",
  "devdoc": {
    "kind": "dev",
    "methods": {
      "owner()": {
        "details": "Returns the address of the current owner."
      },
      "renounceOwnership()": {
        "details": "Leaves the contract without owner. It will not be possible to call `onlyOwner` functions anymore. Can only be called by the current owner. NOTE: Renouncing ownership will leave the contract without an owner, thereby removing any functionality that is only available to the owner."
      },
      "transferOwnership(address)": {
        "details": "Transfers ownership of the contract to a new account (`newOwner`). Can only be called by the current owner."
      }
    },
    "version": 1
  },
  "userdoc": {
    "kind": "user",
    "methods": {},
    "version": 1
  }
}