{
  "contractName": "Staking",
  "abi": [
    {
      "inputs": [
        {
          "internalType": "contract IMilkToken",
          "name": "_tokenMilk",
          "type": "address"
        }
      ],
      "stateMutability": "nonpayable",
      "type": "constructor"
    },
    {
      "anonymous": false,
      "inputs": [
        {
          "indexed": false,
          "internalType": "uint256",
          "name": "itemId",
          "type": "uint256"
        },
        {
          "indexed": true,
          "internalType": "address",
          "name": "owner",
          "type": "address"
        },
        {
          "indexed": false,
          "internalType": "uint256",
          "name": "amount",
          "type": "uint256"
        }
      ],
      "name": "Harvest",
      "type": "event"
    },
    {
      "anonymous": false,
      "inputs": [
        {
          "indexed": true,
          "internalType": "address",
          "name": "previousOwner",
          "type": "address"
        },
        {
          "indexed": true,
          "internalType": "address",
          "name": "newOwner",
          "type": "address"
        }
      ],
      "name": "OwnershipTransferred",
      "type": "event"
    },
    {
      "anonymous": false,
      "inputs": [
        {
          "indexed": false,
          "internalType": "uint256",
          "name": "itemId",
          "type": "uint256"
        },
        {
          "indexed": true,
          "internalType": "address",
          "name": "nftContract",
          "type": "address"
        },
        {
          "indexed": true,
          "internalType": "address",
          "name": "owner",
          "type": "address"
        },
        {
          "indexed": false,
          "internalType": "uint256",
          "name": "tokenId",
          "type": "uint256"
        }
      ],
      "name": "StakingItemCreated",
      "type": "event"
    },
    {
      "inputs": [],
      "name": "endBlock",
      "outputs": [
        {
          "internalType": "uint256",
          "name": "",
          "type": "uint256"
        }
      ],
      "stateMutability": "view",
      "type": "function",
      "constant": true
    },
    {
      "inputs": [],
      "name": "isStakingAvailable",
      "outputs": [
        {
          "internalType": "bool",
          "name": "",
          "type": "bool"
        }
      ],
      "stateMutability": "view",
      "type": "function",
      "constant": true
    },
    {
      "inputs": [
        {
          "internalType": "uint256",
          "name": "",
          "type": "uint256"
        }
      ],
      "name": "items",
      "outputs": [
        {
          "internalType": "uint256",
          "name": "itemId",
          "type": "uint256"
        },
        {
          "internalType": "address",
          "name": "contractAddress",
          "type": "address"
        },
        {
          "internalType": "address",
          "name": "owner",
          "type": "address"
        },
        {
          "internalType": "uint256",
          "name": "tokenId",
          "type": "uint256"
        },
        {
          "internalType": "uint256",
          "name": "pendingMilk",
          "type": "uint256"
        },
        {
          "internalType": "uint256",
          "name": "poolId",
          "type": "uint256"
        },
        {
          "internalType": "bool",
          "name": "isEnded",
          "type": "bool"
        }
      ],
      "stateMutability": "view",
      "type": "function",
      "constant": true
    },
    {
      "inputs": [],
      "name": "milkPerBlock",
      "outputs": [
        {
          "internalType": "uint256",
          "name": "",
          "type": "uint256"
        }
      ],
      "stateMutability": "view",
      "type": "function",
      "constant": true
    },
    {
      "inputs": [],
      "name": "owner",
      "outputs": [
        {
          "internalType": "address",
          "name": "",
          "type": "address"
        }
      ],
      "stateMutability": "view",
      "type": "function",
      "constant": true
    },
    {
      "inputs": [
        {
          "internalType": "address",
          "name": "",
          "type": "address"
        }
      ],
      "name": "poolIdOfContract",
      "outputs": [
        {
          "internalType": "uint256",
          "name": "",
          "type": "uint256"
        }
      ],
      "stateMutability": "view",
      "type": "function",
      "constant": true
    },
    {
      "inputs": [
        {
          "internalType": "uint256",
          "name": "",
          "type": "uint256"
        }
      ],
      "name": "pools",
      "outputs": [
        {
          "internalType": "address",
          "name": "contractAddress",
          "type": "address"
        },
        {
          "internalType": "uint256",
          "name": "allocPoint",
          "type": "uint256"
        },
        {
          "internalType": "uint256",
          "name": "milkPower",
          "type": "uint256"
        },
        {
          "internalType": "uint256",
          "name": "maxStakedCount",
          "type": "uint256"
        },
        {
          "internalType": "uint256",
          "name": "lastUpdatedBlock",
          "type": "uint256"
        }
      ],
      "stateMutability": "view",
      "type": "function",
      "constant": true
    },
    {
      "inputs": [],
      "name": "renounceOwnership",
      "outputs": [],
      "stateMutability": "nonpayable",
      "type": "function"
    },
    {
      "inputs": [],
      "name": "stakingItemCount",
      "outputs": [
        {
          "internalType": "uint256",
          "name": "_value",
          "type": "uint256"
        }
      ],
      "stateMutability": "view",
      "type": "function",
      "constant": true
    },
    {
      "inputs": [],
      "name": "stakingPoolCount",
      "outputs": [
        {
          "internalType": "uint256",
          "name": "_value",
          "type": "uint256"
        }
      ],
      "stateMutability": "view",
      "type": "function",
      "constant": true
    },
    {
      "inputs": [],
      "name": "startBlock",
      "outputs": [
        {
          "internalType": "uint256",
          "name": "",
          "type": "uint256"
        }
      ],
      "stateMutability": "view",
      "type": "function",
      "constant": true
    },
    {
      "inputs": [],
      "name": "totalAllocPoint",
      "outputs": [
        {
          "internalType": "uint256",
          "name": "",
          "type": "uint256"
        }
      ],
      "stateMutability": "view",
      "type": "function",
      "constant": true
    },
    {
      "inputs": [],
      "name": "totalAmountDepositedPool",
      "outputs": [
        {
          "internalType": "uint256",
          "name": "",
          "type": "uint256"
        }
      ],
      "stateMutability": "view",
      "type": "function",
      "constant": true
    },
    {
      "inputs": [
        {
          "internalType": "address",
          "name": "newOwner",
          "type": "address"
        }
      ],
      "name": "transferOwnership",
      "outputs": [],
      "stateMutability": "nonpayable",
      "type": "function"
    },
    {
      "inputs": [
        {
          "internalType": "uint256",
          "name": "_totalAmountDepositedPool",
          "type": "uint256"
        },
        {
          "internalType": "uint256",
          "name": "_startBlock",
          "type": "uint256"
        },
        {
          "internalType": "uint256",
          "name": "_endBlock",
          "type": "uint256"
        }
      ],
      "name": "depositMilkToPool",
      "outputs": [],
      "stateMutability": "nonpayable",
      "type": "function"
    },
    {
      "inputs": [
        {
          "internalType": "uint256",
          "name": "_startBlock",
          "type": "uint256"
        },
        {
          "internalType": "uint256",
          "name": "_endBlock",
          "type": "uint256"
        }
      ],
      "name": "setPeriod",
      "outputs": [],
      "stateMutability": "nonpayable",
      "type": "function"
    },
    {
      "inputs": [
        {
          "internalType": "bool",
          "name": "_isStakingAvailable",
          "type": "bool"
        }
      ],
      "name": "setIsStakingAvailable",
      "outputs": [],
      "stateMutability": "nonpayable",
      "type": "function"
    },
    {
      "inputs": [
        {
          "internalType": "address",
          "name": "_contractAddress",
          "type": "address"
        },
        {
          "internalType": "uint256",
          "name": "_allocPoint",
          "type": "uint256"
        },
        {
          "internalType": "uint256[]",
          "name": "_tokenIds",
          "type": "uint256[]"
        },
        {
          "internalType": "uint256",
          "name": "_milkPower",
          "type": "uint256"
        },
        {
          "internalType": "uint256",
          "name": "_maxStakedCount",
          "type": "uint256"
        }
      ],
      "name": "addPool",
      "outputs": [],
      "stateMutability": "nonpayable",
      "type": "function"
    },
    {
      "inputs": [
        {
          "internalType": "uint256",
          "name": "_poolId",
          "type": "uint256"
        },
        {
          "internalType": "address",
          "name": "_contractAddress",
          "type": "address"
        },
        {
          "internalType": "uint256",
          "name": "_allocPoint",
          "type": "uint256"
        },
        {
          "internalType": "uint256[]",
          "name": "_tokenIds",
          "type": "uint256[]"
        },
        {
          "internalType": "uint256",
          "name": "_milkPower",
          "type": "uint256"
        },
        {
          "internalType": "uint256",
          "name": "_maxStakedCount",
          "type": "uint256"
        }
      ],
      "name": "updatePool",
      "outputs": [],
      "stateMutability": "nonpayable",
      "type": "function"
    },
    {
      "inputs": [
        {
          "internalType": "address",
          "name": "_nftContract",
          "type": "address"
        },
        {
          "internalType": "uint256",
          "name": "_tokenId",
          "type": "uint256"
        }
      ],
      "name": "stake",
      "outputs": [],
      "stateMutability": "nonpayable",
      "type": "function"
    },
    {
      "inputs": [
        {
          "internalType": "uint256",
          "name": "_poolId",
          "type": "uint256"
        }
      ],
      "name": "harvest",
      "outputs": [],
      "stateMutability": "nonpayable",
      "type": "function"
    },
    {
      "inputs": [
        {
          "internalType": "uint256",
          "name": "_itemId",
          "type": "uint256"
        }
      ],
      "name": "getPendingMilk",
      "outputs": [
        {
          "internalType": "uint256",
          "name": "",
          "type": "uint256"
        }
      ],
      "stateMutability": "view",
      "type": "function",
      "constant": true
    },
    {
      "inputs": [
        {
          "internalType": "uint256",
          "name": "_poolId",
          "type": "uint256"
        }
      ],
      "name": "getPendingMilkForAll",
      "outputs": [
        {
          "internalType": "uint256",
          "name": "",
          "type": "uint256"
        }
      ],
      "stateMutability": "view",
      "type": "function",
      "constant": true
    },
    {
      "inputs": [
        {
          "internalType": "address",
          "name": "_owner",
          "type": "address"
        }
      ],
      "name": "getStakedItems",
      "outputs": [
        {
          "components": [
            {
              "internalType": "uint256",
              "name": "itemId",
              "type": "uint256"
            },
            {
              "internalType": "address",
              "name": "contractAddress",
              "type": "address"
            },
            {
              "internalType": "address",
              "name": "owner",
              "type": "address"
            },
            {
              "internalType": "uint256",
              "name": "tokenId",
              "type": "uint256"
            },
            {
              "internalType": "uint256",
              "name": "pendingMilk",
              "type": "uint256"
            },
            {
              "internalType": "uint256",
              "name": "poolId",
              "type": "uint256"
            },
            {
              "internalType": "bool",
              "name": "isEnded",
              "type": "bool"
            }
          ],
          "internalType": "struct Staking.StakingItem[]",
          "name": "",
          "type": "tuple[]"
        }
      ],
      "stateMutability": "view",
      "type": "function",
      "constant": true
    },
    {
      "inputs": [],
      "name": "getBlockNumber",
      "outputs": [
        {
          "internalType": "uint256",
          "name": "",
          "type": "uint256"
        }
      ],
      "stateMutability": "view",
      "type": "function",
      "constant": true
    },
    {
      "inputs": [
        {
          "internalType": "uint256",
          "name": "_poolId",
          "type": "uint256"
        }
      ],
      "name": "getTotalStakedCount",
      "outputs": [
        {
          "internalType": "uint256",
          "name": "",
          "type": "uint256"
        }
      ],
      "stateMutability": "view",
      "type": "function",
      "constant": true
    },
    {
      "inputs": [
        {
          "internalType": "uint256",
          "name": "_poolId",
          "type": "uint256"
        }
      ],
      "name": "getTotalMilkPower",
      "outputs": [
        {
          "internalType": "uint256",
          "name": "",
          "type": "uint256"
        }
      ],
      "stateMutability": "view",
      "type": "function",
      "constant": true
    },
    {
      "inputs": [
        {
          "internalType": "uint256",
          "name": "_poolId",
          "type": "uint256"
        },
        {
          "internalType": "address",
          "name": "_owner",
          "type": "address"
        }
      ],
      "name": "getMyMilkPower",
      "outputs": [
        {
          "internalType": "uint256",
          "name": "",
          "type": "uint256"
        }
      ],
      "stateMutability": "view",
      "type": "function",
      "constant": true
    },
    {
      "inputs": [
        {
          "internalType": "uint256",
          "name": "_poolId",
          "type": "uint256"
        },
        {
          "internalType": "address",
          "name": "_owner",
          "type": "address"
        }
      ],
      "name": "getMyStakedCount",
      "outputs": [
        {
          "internalType": "uint256",
          "name": "",
          "type": "uint256"
        }
      ],
      "stateMutability": "view",
      "type": "function",
      "constant": true
    },
    {
      "inputs": [
        {
          "internalType": "uint256",
          "name": "_poolId",
          "type": "uint256"
        }
      ],
      "name": "getDailyMilkRate",
      "outputs": [
        {
          "internalType": "uint256",
          "name": "",
          "type": "uint256"
        }
      ],
      "stateMutability": "view",
      "type": "function",
      "constant": true
    },
    {
      "inputs": [
        {
          "internalType": "uint256",
          "name": "_itemId",
          "type": "uint256"
        }
      ],
      "name": "unstake",
      "outputs": [],
      "stateMutability": "nonpayable",
      "type": "function"
    },
    {
      "inputs": [],
      "name": "withDraw",
      "outputs": [],
      "stateMutability": "nonpayable",
      "type": "function"
    }
  ],
  "bytecode": "0x60806040523480156200001157600080fd5b50604051620044f6380380620044f68339818101604052810190620000379190620001d1565b6001600081905550620000716200005c620000ec640100000000026401000000009004565b620000f4640100000000026401000000009004565b80600560006101000a81548173ffffffffffffffffffffffffffffffffffffffff021916908373ffffffffffffffffffffffffffffffffffffffff1602179055506000600781905550600060068190555060006008819055506000600b60006101000a81548160ff021916908315150217905550506200025f565b600033905090565b6000600160009054906101000a900473ffffffffffffffffffffffffffffffffffffffff16905081600160006101000a81548173ffffffffffffffffffffffffffffffffffffffff021916908373ffffffffffffffffffffffffffffffffffffffff1602179055508173ffffffffffffffffffffffffffffffffffffffff168173ffffffffffffffffffffffffffffffffffffffff167f8be0079c531659141344cd1fd0a4f28419497f9722a3daafe3b4186f6b6457e060405160405180910390a35050565b600081519050620001cb8162000245565b92915050565b600060208284031215620001e457600080fd5b6000620001f484828501620001ba565b91505092915050565b60006200020a8262000225565b9050919050565b60006200021e82620001fd565b9050919050565b600073ffffffffffffffffffffffffffffffffffffffff82169050919050565b620002508162000211565b81146200025c57600080fd5b50565b614287806200026f6000396000f3fe608060405234801561001057600080fd5b506004361061020d576000357c0100000000000000000000000000000000000000000000000000000000900480637506f5341161012c578063bb7a8054116100bf578063ddc632621161008e578063ddc63262146105e4578063f2fde38b14610600578063f8d49dfa1461061c578063fcd0ca1f1461064c5761020d565b8063bb7a805414610530578063bfb231d21461054e578063d06cd51814610584578063d5dfc265146105b45761020d565b80639c5a8540116100fb5780639c5a854014610494578063ac4afa38146104c4578063adc9772e146104f8578063b3eaa74b146105145761020d565b80637506f5341461040a578063811e1cf914610428578063872c7a50146104465780638da5cb5b146104765761020d565b80632dd96be9116101a45780634b8e4ace116101735780634b8e4ace146103845780635119913c146103a05780635c4943fe146103d0578063715018a6146104005761020d565b80632dd96be91461030e5780632e17de781461032c57806342cbb15c1461034857806348cd4cb1146103665761020d565b806315a73197116101e057806315a731971461027457806317caf6f1146102905780631f9a3c37146102ae57806323171529146102de5761020d565b806303c5b1dc14610212578063083c63231461022e5780630dea2d5c1461024c5780630fdb1c101461026a575b600080fd5b61022c6004803603810190610227919061339b565b610668565b005b6102366107a7565b6040516102439190613b45565b60405180910390f35b6102546107ad565b60405161026191906138ea565b60405180910390f35b6102726107c0565b005b61028e60048036038101906102899190613214565b610a3c565b005b610298610ad5565b6040516102a59190613b45565b60405180910390f35b6102c860048036038101906102c391906132b8565b610adb565b6040516102d59190613b45565b60405180910390f35b6102f860048036038101906102f39190613266565b610c83565b6040516103059190613b45565b60405180910390f35b610316610da0565b6040516103239190613b45565b60405180910390f35b61034660048036038101906103419190613266565b610dac565b005b610350610f98565b60405161035d9190613b45565b60405180910390f35b61036e610fa0565b60405161037b9190613b45565b60405180910390f35b61039e600480360381019061039991906133d7565b610fa6565b005b6103ba60048036038101906103b591906132b8565b6112fe565b6040516103c79190613b45565b60405180910390f35b6103ea60048036038101906103e59190613266565b6114b0565b6040516103f79190613b45565b60405180910390f35b6104086115af565b005b610412611637565b60405161041f9190613b45565b60405180910390f35b61043061163d565b60405161043d9190613b45565b60405180910390f35b610460600480360381019061045b9190613266565b611649565b60405161046d9190613b45565b60405180910390f35b61047e611687565b60405161048b91906137fa565b60405180910390f35b6104ae60048036038101906104a99190613266565b6116b1565b6040516104bb9190613b45565b60405180910390f35b6104de60048036038101906104d99190613266565b611741565b6040516104ef959493929190613875565b60405180910390f35b610512600480360381019061050d9190613146565b611797565b005b61052e600480360381019061052991906132f4565b611cce565b005b610538611f5d565b6040516105459190613b45565b60405180910390f35b61056860048036038101906105639190613266565b611f63565b60405161057b9796959493929190613b60565b60405180910390f35b61059e600480360381019061059991906130f4565b611ff2565b6040516105ab9190613b45565b60405180910390f35b6105ce60048036038101906105c991906130f4565b61200a565b6040516105db91906138c8565b60405180910390f35b6105fe60048036038101906105f99190613266565b61239c565b005b61061a600480360381019061061591906130f4565b61251e565b005b61063660048036038101906106319190613266565b612616565b6040516106439190613b45565b60405180910390f35b61066660048036038101906106619190613182565b6126b3565b005b610670612925565b73ffffffffffffffffffffffffffffffffffffffff1661068e611687565b73ffffffffffffffffffffffffffffffffffffffff16146106e4576040517f08c379a00000000000000000000000000000000000000000000000000000000081526004016106db90613a85565b60405180910390fd5b438111610726576040517f08c379a000000000000000000000000000000000000000000000000000000000815260040161071d90613b05565b60405180910390fd5b818111610768576040517f08c379a000000000000000000000000000000000000000000000000000000000815260040161075f90613925565b60405180910390fd5b81816107749190613d23565b600854620f42406107859190613cc9565b61078f9190613c98565b6006819055508160098190555080600a819055505050565b600a5481565b600b60009054906101000a900460ff1681565b6107c8612925565b73ffffffffffffffffffffffffffffffffffffffff166107e6611687565b73ffffffffffffffffffffffffffffffffffffffff161461083c576040517f08c379a000000000000000000000000000000000000000000000000000000000815260040161083390613a85565b60405180910390fd5b600a544311610880576040517f08c379a000000000000000000000000000000000000000000000000000000000815260040161087790613a65565b60405180910390fd5b6000600560009054906101000a900473ffffffffffffffffffffffffffffffffffffffff1673ffffffffffffffffffffffffffffffffffffffff166370a08231306040518263ffffffff167c01000000000000000000000000000000000000000000000000000000000281526004016108f991906137fa565b60206040518083038186803b15801561091157600080fd5b505afa158015610925573d6000803e3d6000fd5b505050506040513d601f19601f82011682018060405250810190610949919061328f565b9050600560009054906101000a900473ffffffffffffffffffffffffffffffffffffffff1673ffffffffffffffffffffffffffffffffffffffff1663a9059cbb610991611687565b836040518363ffffffff167c01000000000000000000000000000000000000000000000000000000000281526004016109cb92919061384c565b602060405180830381600087803b1580156109e557600080fd5b505af11580156109f9573d6000803e3d6000fd5b505050506040513d601f19601f82011682018060405250810190610a1d919061323d565b506000600b60006101000a81548160ff02191690831515021790555050565b610a44612925565b73ffffffffffffffffffffffffffffffffffffffff16610a62611687565b73ffffffffffffffffffffffffffffffffffffffff1614610ab8576040517f08c379a0000000000000000000000000000000000000000000000000000000008152600401610aaf90613a85565b60405180910390fd5b80600b60006101000a81548160ff02191690831515021790555050565b60075481565b600080600090506001610aee600461292d565b1015610afe576000915050610c7d565b6000600190505b610b0f600461292d565b8111610c775760001515600d600083815260200190815260200160002060060160009054906101000a900460ff161515148015610be35750600c600086815260200190815260200160002060000160009054906101000a900473ffffffffffffffffffffffffffffffffffffffff1673ffffffffffffffffffffffffffffffffffffffff16600d600083815260200190815260200160002060010160009054906101000a900473ffffffffffffffffffffffffffffffffffffffff1673ffffffffffffffffffffffffffffffffffffffff16145b8015610c5057508373ffffffffffffffffffffffffffffffffffffffff16600d600083815260200190815260200160002060020160009054906101000a900473ffffffffffffffffffffffffffffffffffffffff1673ffffffffffffffffffffffffffffffffffffffff16145b15610c64578180610c6090613d9f565b9250505b8080610c6f90613d9f565b915050610b05565b50809150505b92915050565b600080600090506000600190505b610c9b600461292d565b8111610d965760001515600d600083815260200190815260200160002060060160009054906101000a900460ff161515148015610d6f5750600c600085815260200190815260200160002060000160009054906101000a900473ffffffffffffffffffffffffffffffffffffffff1673ffffffffffffffffffffffffffffffffffffffff16600d600083815260200190815260200160002060010160009054906101000a900473ffffffffffffffffffffffffffffffffffffffff1673ffffffffffffffffffffffffffffffffffffffff16145b15610d83578180610d7f90613d9f565b9250505b8080610d8e90613d9f565b915050610c91565b5080915050919050565b60038060000154905081565b6000600d600083815260200190815260200160002090503373ffffffffffffffffffffffffffffffffffffffff168160020160009054906101000a900473ffffffffffffffffffffffffffffffffffffffff1673ffffffffffffffffffffffffffffffffffffffff1614610e55576040517f08c379a0000000000000000000000000000000000000000000000000000000008152600401610e4c90613a45565b60405180910390fd5b600015158160060160009054906101000a900460ff16151514610ead576040517f08c379a0000000000000000000000000000000000000000000000000000000008152600401610ea490613aa5565b60405180910390fd5b610eba816005015461293b565b610ec48233612aba565b8060010160009054906101000a900473ffffffffffffffffffffffffffffffffffffffff1673ffffffffffffffffffffffffffffffffffffffff166323b872dd303384600301546040518463ffffffff167c0100000000000000000000000000000000000000000000000000000000028152600401610f4593929190613815565b600060405180830381600087803b158015610f5f57600080fd5b505af1158015610f73573d6000803e3d6000fd5b5050505060018160060160006101000a81548160ff0219169083151502179055505050565b600043905090565b60095481565b610fae612925565b73ffffffffffffffffffffffffffffffffffffffff16610fcc611687565b73ffffffffffffffffffffffffffffffffffffffff1614611022576040517f08c379a000000000000000000000000000000000000000000000000000000000815260040161101990613a85565b60405180910390fd5b82600560009054906101000a900473ffffffffffffffffffffffffffffffffffffffff1673ffffffffffffffffffffffffffffffffffffffff166370a08231611069611687565b6040518263ffffffff167c01000000000000000000000000000000000000000000000000000000000281526004016110a191906137fa565b60206040518083038186803b1580156110b957600080fd5b505afa1580156110cd573d6000803e3d6000fd5b505050506040513d601f19601f820116820180604052508101906110f1919061328f565b1015611132576040517f08c379a000000000000000000000000000000000000000000000000000000000815260040161112990613a25565b60405180910390fd5b438111611174576040517f08c379a000000000000000000000000000000000000000000000000000000000815260040161116b90613b05565b60405180910390fd5b8181116111b6576040517f08c379a00000000000000000000000000000000000000000000000000000000081526004016111ad90613925565b60405180910390fd5b600560009054906101000a900473ffffffffffffffffffffffffffffffffffffffff1673ffffffffffffffffffffffffffffffffffffffff166323b872dd6111fc611687565b30670de0b6b3a7640000876112119190613cc9565b6040518463ffffffff167c010000000000000000000000000000000000000000000000000000000002815260040161124b93929190613815565b602060405180830381600087803b15801561126557600080fd5b505af1158015611279573d6000803e3d6000fd5b505050506040513d601f19601f8201168201806040525081019061129d919061323d565b50826008819055508160098190555080600a8190555081816112bf9190613d23565b83620f42406112ce9190613cc9565b6112d89190613c98565b6006819055506001600b60006101000a81548160ff021916908315150217905550505050565b600080600090506000600190505b611316600461292d565b811161147e5760001515600d600083815260200190815260200160002060060160009054906101000a900460ff1615151480156113ea5750600c600086815260200190815260200160002060000160009054906101000a900473ffffffffffffffffffffffffffffffffffffffff1673ffffffffffffffffffffffffffffffffffffffff16600d600083815260200190815260200160002060010160009054906101000a900473ffffffffffffffffffffffffffffffffffffffff1673ffffffffffffffffffffffffffffffffffffffff16145b801561145757508373ffffffffffffffffffffffffffffffffffffffff16600d600083815260200190815260200160002060020160009054906101000a900473ffffffffffffffffffffffffffffffffffffffff1673ffffffffffffffffffffffffffffffffffffffff16145b1561146b57818061146790613d9f565b9250505b808061147690613d9f565b91505061130c565b506000600c600086815260200190815260200160002060030154826114a39190613cc9565b9050809250505092915050565b600080600d6000848152602001908152602001600020600401549050600080600d600086815260200190815260200160002060050154905060006114f382611649565b9050600a5443111561150957600a54925061150d565b4392505b80600c600084815260200190815260200160002060030154600754600c600086815260200190815260200160002060010154600c600087815260200190815260200160002060050154876115619190613d23565b60065461156e9190613cc9565b6115789190613cc9565b6115829190613c98565b61158c9190613cc9565b6115969190613c98565b846115a19190613c42565b935083945050505050919050565b6115b7612925565b73ffffffffffffffffffffffffffffffffffffffff166115d5611687565b73ffffffffffffffffffffffffffffffffffffffff161461162b576040517f08c379a000000000000000000000000000000000000000000000000000000000815260040161162290613a85565b60405180910390fd5b6116356000612e7b565b565b60065481565b60048060000154905081565b60008061165583610c83565b90506000600c6000858152602001908152602001600020600301548261167b9190613cc9565b90508092505050919050565b6000600160009054906101000a900473ffffffffffffffffffffffffffffffffffffffff16905090565b6000806116bd83611649565b9050600080821461173757600754600c6000868152602001908152602001600020600101548360646018603c60146006546116f89190613cc9565b6117029190613cc9565b61170c9190613cc9565b6117169190613cc9565b6117209190613c98565b61172a9190613cc9565b6117349190613c98565b90505b8092505050919050565b600c6020528060005260406000206000915090508060000160009054906101000a900473ffffffffffffffffffffffffffffffffffffffff16908060010154908060030154908060040154908060050154905085565b600260005414156117dd576040517f08c379a00000000000000000000000000000000000000000000000000000000081526004016117d490613ae5565b60405180910390fd5b60026000819055503382828273ffffffffffffffffffffffffffffffffffffffff168273ffffffffffffffffffffffffffffffffffffffff16636352211e836040518263ffffffff167c01000000000000000000000000000000000000000000000000000000000281526004016118549190613b45565b60206040518083038186803b15801561186c57600080fd5b505afa158015611880573d6000803e3d6000fd5b505050506040513d601f19601f820116820180604052508101906118a4919061311d565b73ffffffffffffffffffffffffffffffffffffffff16146118fa576040517f08c379a00000000000000000000000000000000000000000000000000000000081526004016118f190613b25565b60405180910390fd5b600954431015801561190e5750600a544311155b801561192d575060011515600b60009054906101000a900460ff161515145b61196c576040517f08c379a000000000000000000000000000000000000000000000000000000000815260040161196390613a05565b60405180910390fd5b6000600260008773ffffffffffffffffffffffffffffffffffffffff1673ffffffffffffffffffffffffffffffffffffffff16815260200190815260200160002054905060008114156119f4576040517f08c379a00000000000000000000000000000000000000000000000000000000081526004016119eb906139e5565b60405180910390fd5b6000611a008233610adb565b9050600c6000838152602001908152602001600020600401548110611a5a576040517f08c379a0000000000000000000000000000000000000000000000000000000008152600401611a5190613945565b60405180910390fd5b611a638261293b565b611a6d6004612f41565b6000611a79600461292d565b90506040518060e001604052808281526020018973ffffffffffffffffffffffffffffffffffffffff1681526020013373ffffffffffffffffffffffffffffffffffffffff1681526020018881526020016000815260200184815260200160001515815250600d60008381526020019081526020016000206000820151816000015560208201518160010160006101000a81548173ffffffffffffffffffffffffffffffffffffffff021916908373ffffffffffffffffffffffffffffffffffffffff16021790555060408201518160020160006101000a81548173ffffffffffffffffffffffffffffffffffffffff021916908373ffffffffffffffffffffffffffffffffffffffff160217905550606082015181600301556080820151816004015560a0820151816005015560c08201518160060160006101000a81548160ff0219169083151502179055509050508773ffffffffffffffffffffffffffffffffffffffff166323b872dd33308a6040518463ffffffff167c0100000000000000000000000000000000000000000000000000000000028152600401611c2393929190613815565b600060405180830381600087803b158015611c3d57600080fd5b505af1158015611c51573d6000803e3d6000fd5b505050503373ffffffffffffffffffffffffffffffffffffffff168873ffffffffffffffffffffffffffffffffffffffff167f4249649a2f5c977056f4db60e40a673eabf996b3ec3dc5b5b5713971888e6020838a604051611cb4929190613bcf565b60405180910390a350505050505060016000819055505050565b611cd6612925565b73ffffffffffffffffffffffffffffffffffffffff16611cf4611687565b73ffffffffffffffffffffffffffffffffffffffff1614611d4a576040517f08c379a0000000000000000000000000000000000000000000000000000000008152600401611d4190613a85565b60405180910390fd5b611d54600361292d565b871115611d96576040517f08c379a0000000000000000000000000000000000000000000000000000000008152600401611d8d90613ac5565b60405180910390fd5b600c600088815260200190815260200160002060010154600754611dba9190613d23565b6007819055506040518060c001604052808773ffffffffffffffffffffffffffffffffffffffff168152602001868152602001858580806020026020016040519081016040528093929190818152602001838360200280828437600081840152601f19601f820116905080830192505050505050508152602001838152602001828152602001600c60008a815260200190815260200160002060050154815250600c600089815260200190815260200160002060008201518160000160006101000a81548173ffffffffffffffffffffffffffffffffffffffff021916908373ffffffffffffffffffffffffffffffffffffffff160217905550602082015181600101556040820151816002019080519060200190611eda929190612f57565b50606082015181600301556080820151816004015560a0820151816005015590505086600260008873ffffffffffffffffffffffffffffffffffffffff1673ffffffffffffffffffffffffffffffffffffffff1681526020019081526020016000208190555084600754611f4e9190613c42565b60078190555050505050505050565b60085481565b600d6020528060005260406000206000915090508060000154908060010160009054906101000a900473ffffffffffffffffffffffffffffffffffffffff16908060020160009054906101000a900473ffffffffffffffffffffffffffffffffffffffff16908060030154908060040154908060050154908060060160009054906101000a900460ff16905087565b60026020528060005260406000206000915090505481565b60606000612018600461292d565b90506000806000600190505b8381116120eb57600d600082815260200190815260200160002060020160009054906101000a900473ffffffffffffffffffffffffffffffffffffffff1673ffffffffffffffffffffffffffffffffffffffff168673ffffffffffffffffffffffffffffffffffffffff161480156120c3575060001515600d600083815260200190815260200160002060060160009054906101000a900460ff161515145b156120d8576001836120d59190613c42565b92505b80806120e390613d9f565b915050612024565b5060008267ffffffffffffffff81111561212e577f4e487b7100000000000000000000000000000000000000000000000000000000600052604160045260246000fd5b60405190808252806020026020018201604052801561216757816020015b612154612fa4565b81526020019060019003908161214c5790505b5090506000600190505b84811161238f57600d600082815260200190815260200160002060020160009054906101000a900473ffffffffffffffffffffffffffffffffffffffff1673ffffffffffffffffffffffffffffffffffffffff168773ffffffffffffffffffffffffffffffffffffffff16148015612210575060001515600d600083815260200190815260200160002060060160009054906101000a900460ff161515145b1561237c576000600d60008381526020019081526020016000209050806040518060e0016040529081600082015481526020016001820160009054906101000a900473ffffffffffffffffffffffffffffffffffffffff1673ffffffffffffffffffffffffffffffffffffffff1673ffffffffffffffffffffffffffffffffffffffff1681526020016002820160009054906101000a900473ffffffffffffffffffffffffffffffffffffffff1673ffffffffffffffffffffffffffffffffffffffff1673ffffffffffffffffffffffffffffffffffffffff1681526020016003820154815260200160048201548152602001600582015481526020016006820160009054906101000a900460ff161515151581525050838581518110612360577f4e487b7100000000000000000000000000000000000000000000000000000000600052603260045260246000fd5b60200260200101819052506001846123789190613c42565b9350505b808061238790613d9f565b915050612171565b5080945050505050919050565b6123a58161293b565b6000600190505b6123b6600461292d565b811161251a573373ffffffffffffffffffffffffffffffffffffffff16600d600083815260200190815260200160002060020160009054906101000a900473ffffffffffffffffffffffffffffffffffffffff1673ffffffffffffffffffffffffffffffffffffffff16148015612454575060001515600d600083815260200190815260200160002060060160009054906101000a900460ff161515145b80156124f75750600d600082815260200190815260200160002060010160009054906101000a900473ffffffffffffffffffffffffffffffffffffffff1673ffffffffffffffffffffffffffffffffffffffff16600c600084815260200190815260200160002060000160009054906101000a900473ffffffffffffffffffffffffffffffffffffffff1673ffffffffffffffffffffffffffffffffffffffff16145b15612507576125068133612aba565b5b808061251290613d9f565b9150506123ac565b5050565b612526612925565b73ffffffffffffffffffffffffffffffffffffffff16612544611687565b73ffffffffffffffffffffffffffffffffffffffff161461259a576040517f08c379a000000000000000000000000000000000000000000000000000000000815260040161259190613a85565b60405180910390fd5b600073ffffffffffffffffffffffffffffffffffffffff168173ffffffffffffffffffffffffffffffffffffffff16141561260a576040517f08c379a000000000000000000000000000000000000000000000000000000000815260040161260190613965565b60405180910390fd5b61261381612e7b565b50565b600080600090506000600190505b61262e600461292d565b81116126a957600d600082815260200190815260200160002060060160009054906101000a900460ff1615801561267a575083600d600083815260200190815260200160002060050154145b1561269657612688816114b0565b826126939190613c42565b91505b80806126a190613d9f565b915050612624565b5080915050919050565b6126bb612925565b73ffffffffffffffffffffffffffffffffffffffff166126d9611687565b73ffffffffffffffffffffffffffffffffffffffff161461272f576040517f08c379a000000000000000000000000000000000000000000000000000000000815260040161272690613a85565b60405180910390fd5b60006009541415801561274557506000600a5414155b612784576040517f08c379a000000000000000000000000000000000000000000000000000000000815260040161277b90613985565b60405180910390fd5b61278e6003612f41565b600061279a600361292d565b90506040518060c001604052808873ffffffffffffffffffffffffffffffffffffffff168152602001878152602001868680806020026020016040519081016040528093929190818152602001838360200280828437600081840152601f19601f820116905080830192505050505050508152602001848152602001838152602001600954815250600c600083815260200190815260200160002060008201518160000160006101000a81548173ffffffffffffffffffffffffffffffffffffffff021916908373ffffffffffffffffffffffffffffffffffffffff1602179055506020820151816001015560408201518160020190805190602001906128a2929190612f57565b50606082015181600301556080820151816004015560a0820151816005015590505080600260008973ffffffffffffffffffffffffffffffffffffffff1673ffffffffffffffffffffffffffffffffffffffff16815260200190815260200160002081905550856007546129169190613c42565b60078190555050505050505050565b600033905090565b600081600001549050919050565b6000600a5443111561295157600a549050612955565b4390505b600061296083611649565b90506000600190505b612973600461292d565b8111612a995760001515600d600083815260200190815260200160002060060160009054906101000a900460ff1615151480156129c5575083600d600083815260200190815260200160002060050154145b15612a8657600082600c600087815260200190815260200160002060030154600754600c600089815260200190815260200160002060010154600c60008a81526020019081526020016000206005015488612a209190613d23565b600654612a2d9190613cc9565b612a379190613cc9565b612a419190613c98565b612a4b9190613cc9565b612a559190613c98565b905080600d60008481526020019081526020016000206004016000828254612a7d9190613c42565b92505081905550505b8080612a9190613d9f565b915050612969565b5081600c600085815260200190815260200160002060050181905550505050565b6000600d60008481526020019081526020016000209050612adb600461292d565b831115612b1d576040517f08c379a0000000000000000000000000000000000000000000000000000000008152600401612b14906139c5565b60405180910390fd5b600d600084815260200190815260200160002060020160009054906101000a900473ffffffffffffffffffffffffffffffffffffffff1673ffffffffffffffffffffffffffffffffffffffff168273ffffffffffffffffffffffffffffffffffffffff1614612bc1576040517f08c379a0000000000000000000000000000000000000000000000000000000008152600401612bb8906139a5565b60405180910390fd5b6000600d600085815260200190815260200160002060040154905080600560009054906101000a900473ffffffffffffffffffffffffffffffffffffffff1673ffffffffffffffffffffffffffffffffffffffff166370a08231306040518263ffffffff167c0100000000000000000000000000000000000000000000000000000000028152600401612c5491906137fa565b60206040518083038186803b158015612c6c57600080fd5b505afa158015612c80573d6000803e3d6000fd5b505050506040513d601f19601f82011682018060405250810190612ca4919061328f565b1015612ce5576040517f08c379a0000000000000000000000000000000000000000000000000000000008152600401612cdc90613905565b60405180910390fd5b600560009054906101000a900473ffffffffffffffffffffffffffffffffffffffff1673ffffffffffffffffffffffffffffffffffffffff1663a9059cbb8360020160009054906101000a900473ffffffffffffffffffffffffffffffffffffffff1664e8d4a5100084612d599190613cc9565b6040518363ffffffff167c0100000000000000000000000000000000000000000000000000000000028152600401612d9292919061384c565b602060405180830381600087803b158015612dac57600080fd5b505af1158015612dc0573d6000803e3d6000fd5b505050506040513d601f19601f82011682018060405250810190612de4919061323d565b506000600d6000868152602001908152602001600020600401819055508160020160009054906101000a900473ffffffffffffffffffffffffffffffffffffffff1673ffffffffffffffffffffffffffffffffffffffff167f393ccd03ff98115189a2796d79ffa176e434468dbeea90a87972324be8c507188583604051612e6d929190613bcf565b60405180910390a250505050565b6000600160009054906101000a900473ffffffffffffffffffffffffffffffffffffffff16905081600160006101000a81548173ffffffffffffffffffffffffffffffffffffffff021916908373ffffffffffffffffffffffffffffffffffffffff1602179055508173ffffffffffffffffffffffffffffffffffffffff168173ffffffffffffffffffffffffffffffffffffffff167f8be0079c531659141344cd1fd0a4f28419497f9722a3daafe3b4186f6b6457e060405160405180910390a35050565b6001816000016000828254019250508190555050565b828054828255906000526020600020908101928215612f93579160200282015b82811115612f92578251825591602001919060010190612f77565b5b509050612fa0919061300f565b5090565b6040518060e0016040528060008152602001600073ffffffffffffffffffffffffffffffffffffffff168152602001600073ffffffffffffffffffffffffffffffffffffffff1681526020016000815260200160008152602001600081526020016000151581525090565b5b80821115613028576000816000905550600101613010565b5090565b60008135905061303b8161420c565b92915050565b6000815190506130508161420c565b92915050565b60008083601f84011261306857600080fd5b8235905067ffffffffffffffff81111561308157600080fd5b60208301915083602082028301111561309957600080fd5b9250929050565b6000813590506130af81614223565b92915050565b6000815190506130c481614223565b92915050565b6000813590506130d98161423a565b92915050565b6000815190506130ee8161423a565b92915050565b60006020828403121561310657600080fd5b60006131148482850161302c565b91505092915050565b60006020828403121561312f57600080fd5b600061313d84828501613041565b91505092915050565b6000806040838503121561315957600080fd5b60006131678582860161302c565b9250506020613178858286016130ca565b9150509250929050565b60008060008060008060a0878903121561319b57600080fd5b60006131a989828a0161302c565b96505060206131ba89828a016130ca565b955050604087013567ffffffffffffffff8111156131d757600080fd5b6131e389828a01613056565b945094505060606131f689828a016130ca565b925050608061320789828a016130ca565b9150509295509295509295565b60006020828403121561322657600080fd5b6000613234848285016130a0565b91505092915050565b60006020828403121561324f57600080fd5b600061325d848285016130b5565b91505092915050565b60006020828403121561327857600080fd5b6000613286848285016130ca565b91505092915050565b6000602082840312156132a157600080fd5b60006132af848285016130df565b91505092915050565b600080604083850312156132cb57600080fd5b60006132d9858286016130ca565b92505060206132ea8582860161302c565b9150509250929050565b600080600080600080600060c0888a03121561330f57600080fd5b600061331d8a828b016130ca565b975050602061332e8a828b0161302c565b965050604061333f8a828b016130ca565b955050606088013567ffffffffffffffff81111561335c57600080fd5b6133688a828b01613056565b9450945050608061337b8a828b016130ca565b92505060a061338c8a828b016130ca565b91505092959891949750929550565b600080604083850312156133ae57600080fd5b60006133bc858286016130ca565b92505060206133cd858286016130ca565b9150509250929050565b6000806000606084860312156133ec57600080fd5b60006133fa868287016130ca565b935050602061340b868287016130ca565b925050604061341c868287016130ca565b9150509250925092565b6000613432838361374e565b60e08301905092915050565b61344781613d57565b82525050565b61345681613d57565b82525050565b600061346782613c08565b6134718185613c20565b935061347c83613bf8565b8060005b838110156134ad5781516134948882613426565b975061349f83613c13565b925050600181019050613480565b5085935050505092915050565b6134c381613d69565b82525050565b6134d281613d69565b82525050565b60006134e5602383613c31565b91506134f082613e46565b604082019050919050565b6000613508603483613c31565b915061351382613e95565b604082019050919050565b600061352b601d83613c31565b915061353682613ee4565b602082019050919050565b600061354e602683613c31565b915061355982613f0d565b604082019050919050565b6000613571601f83613c31565b915061357c82613f5c565b602082019050919050565b6000613594601683613c31565b915061359f82613f85565b602082019050919050565b60006135b7600f83613c31565b91506135c282613fae565b602082019050919050565b60006135da602483613c31565b91506135e582613fd7565b604082019050919050565b60006135fd601783613c31565b915061360882614026565b602082019050919050565b6000613620602383613c31565b915061362b8261404f565b604082019050919050565b6000613643601183613c31565b915061364e8261409e565b602082019050919050565b6000613666601783613c31565b9150613671826140c7565b602082019050919050565b6000613689602083613c31565b9150613694826140f0565b602082019050919050565b60006136ac602783613c31565b91506136b782614119565b604082019050919050565b60006136cf600e83613c31565b91506136da82614168565b602082019050919050565b60006136f2601f83613c31565b91506136fd82614191565b602082019050919050565b6000613715601e83613c31565b9150613720826141ba565b602082019050919050565b6000613738600983613c31565b9150613743826141e3565b602082019050919050565b60e08201600082015161376460008501826137dc565b506020820151613777602085018261343e565b50604082015161378a604085018261343e565b50606082015161379d60608501826137dc565b5060808201516137b060808501826137dc565b5060a08201516137c360a08501826137dc565b5060c08201516137d660c08501826134ba565b50505050565b6137e581613d95565b82525050565b6137f481613d95565b82525050565b600060208201905061380f600083018461344d565b92915050565b600060608201905061382a600083018661344d565b613837602083018561344d565b61384460408301846137eb565b949350505050565b6000604082019050613861600083018561344d565b61386e60208301846137eb565b9392505050565b600060a08201905061388a600083018861344d565b61389760208301876137eb565b6138a460408301866137eb565b6138b160608301856137eb565b6138be60808301846137eb565b9695505050505050565b600060208201905081810360008301526138e2818461345c565b905092915050565b60006020820190506138ff60008301846134c9565b92915050565b6000602082019050818103600083015261391e816134d8565b9050919050565b6000602082019050818103600083015261393e816134fb565b9050919050565b6000602082019050818103600083015261395e8161351e565b9050919050565b6000602082019050818103600083015261397e81613541565b9050919050565b6000602082019050818103600083015261399e81613564565b9050919050565b600060208201905081810360008301526139be81613587565b9050919050565b600060208201905081810360008301526139de816135aa565b9050919050565b600060208201905081810360008301526139fe816135cd565b9050919050565b60006020820190508181036000830152613a1e816135f0565b9050919050565b60006020820190508181036000830152613a3e81613613565b9050919050565b60006020820190508181036000830152613a5e81613636565b9050919050565b60006020820190508181036000830152613a7e81613659565b9050919050565b60006020820190508181036000830152613a9e8161367c565b9050919050565b60006020820190508181036000830152613abe8161369f565b9050919050565b60006020820190508181036000830152613ade816136c2565b9050919050565b60006020820190508181036000830152613afe816136e5565b9050919050565b60006020820190508181036000830152613b1e81613708565b9050919050565b60006020820190508181036000830152613b3e8161372b565b9050919050565b6000602082019050613b5a60008301846137eb565b92915050565b600060e082019050613b75600083018a6137eb565b613b82602083018961344d565b613b8f604083018861344d565b613b9c60608301876137eb565b613ba960808301866137eb565b613bb660a08301856137eb565b613bc360c08301846134c9565b98975050505050505050565b6000604082019050613be460008301856137eb565b613bf160208301846137eb565b9392505050565b6000819050602082019050919050565b600081519050919050565b6000602082019050919050565b600082825260208201905092915050565b600082825260208201905092915050565b6000613c4d82613d95565b9150613c5883613d95565b9250827fffffffffffffffffffffffffffffffffffffffffffffffffffffffffffffffff03821115613c8d57613c8c613de8565b5b828201905092915050565b6000613ca382613d95565b9150613cae83613d95565b925082613cbe57613cbd613e17565b5b828204905092915050565b6000613cd482613d95565b9150613cdf83613d95565b9250817fffffffffffffffffffffffffffffffffffffffffffffffffffffffffffffffff0483118215151615613d1857613d17613de8565b5b828202905092915050565b6000613d2e82613d95565b9150613d3983613d95565b925082821015613d4c57613d4b613de8565b5b828203905092915050565b6000613d6282613d75565b9050919050565b60008115159050919050565b600073ffffffffffffffffffffffffffffffffffffffff82169050919050565b6000819050919050565b6000613daa82613d95565b91507fffffffffffffffffffffffffffffffffffffffffffffffffffffffffffffffff821415613ddd57613ddc613de8565b5b600182019050919050565b7f4e487b7100000000000000000000000000000000000000000000000000000000600052601160045260246000fd5b7f4e487b7100000000000000000000000000000000000000000000000000000000600052601260045260246000fd5b7f696e73756666696369656e74204d696c6b20616d6f756e7420746f206861727660008201527f6573740000000000000000000000000000000000000000000000000000000000602082015250565b7f456e6420426c6f636b204e756d626572206d757374206269676765722074686160008201527f6e20537461727420426c6f636b204e756d626572000000000000000000000000602082015250565b7f4f766572666c6f77206f66204d6178205374616b696e6720436f756e74000000600082015250565b7f4f776e61626c653a206e6577206f776e657220697320746865207a65726f206160008201527f6464726573730000000000000000000000000000000000000000000000000000602082015250565b7f52657761726420546f6b656e206e6f74206465706f7369746564207965742100600082015250565b7f4e6f74206f776e6572206f662074686973204974656d00000000000000000000600082015250565b7f696e76616c6964204974656d2049640000000000000000000000000000000000600082015250565b7f5468657265206973206e6f20436f6e7472616374204164647265737320696e2060008201527f506f6f6c00000000000000000000000000000000000000000000000000000000602082015250565b7f5374616b696e67206973206e6f74207374617274656421000000000000000000600082015250565b7f696e73756666696369656e74204d696c6b20616d6f756e7420746f204465706f60008201527f7369740000000000000000000000000000000000000000000000000000000000602082015250565b7f796f7520617265206e6f74206f776e6572000000000000000000000000000000600082015250565b7f5374616b696e67206973206e6f742066696e6973686564000000000000000000600082015250565b7f4f776e61626c653a2063616c6c6572206973206e6f7420746865206f776e6572600082015250565b7f54686973205374616b696e67204974656d2077617320756e7374616b6564206160008201527f6c72656164792100000000000000000000000000000000000000000000000000602082015250565b7f696e76616c696420706f6f6c4964000000000000000000000000000000000000600082015250565b7f5265656e7472616e637947756172643a207265656e7472616e742063616c6c00600082015250565b7f456e6420426c6f636b206d75737420626967676572207468616e206e6f770000600082015250565b7f6e6f74206f776e65720000000000000000000000000000000000000000000000600082015250565b61421581613d57565b811461422057600080fd5b50565b61422c81613d69565b811461423757600080fd5b50565b61424381613d95565b811461424e57600080fd5b5056fea264697066735822122041ecd754fdecd15a63f3e912567e07b0c1f99a11b905d6b25ddcec2bb8b413b264736f6c63430008040033",
  "immutableReferences": {},
  "source": "// SPDX-License-Identifier: MIT\r\npragma solidity ^0.8.4;\r\nimport \"@openzeppelin/contracts/utils/Counters.sol\";\r\nimport \"@openzeppelin/contracts/token/ERC721/ERC721.sol\";\r\nimport \"@openzeppelin/contracts/security/ReentrancyGuard.sol\";\r\nimport \"@openzeppelin/contracts/access/Ownable.sol\";\r\nimport \"./interfaces/IMilkToken.sol\";\r\n\r\ncontract Staking is ReentrancyGuard, Ownable {\r\n    using Counters for Counters.Counter;\r\n    \r\n    struct StakingItem {\r\n        uint256 itemId;\r\n        address contractAddress;\r\n        address owner;\r\n        uint256 tokenId;\r\n        uint256 pendingMilk;\r\n        uint256 poolId;\r\n        bool isEnded;\r\n    }\r\n\r\n    struct PoolInfo {\r\n        address contractAddress;\r\n        uint256 allocPoint;\r\n        uint256[] tokenIds;\r\n        uint256 milkPower;\r\n        uint256 maxStakedCount;\r\n        uint256 lastUpdatedBlock;\r\n    }\r\n\r\n    mapping(address => uint256) public poolIdOfContract;\r\n\r\n    Counters.Counter public stakingPoolCount;\r\n    Counters.Counter public stakingItemCount;\r\n    IMilkToken tokenMilk;\r\n    \r\n    uint256 public milkPerBlock;\r\n    uint256 public totalAllocPoint;\r\n    uint256 public totalAmountDepositedPool;\r\n    uint256 public startBlock;\r\n    uint256 public endBlock;\r\n    bool public isStakingAvailable;\r\n    mapping(uint256 => PoolInfo) public pools;\r\n    mapping(uint256 => StakingItem) public items;\r\n\r\n    event StakingItemCreated(\r\n        uint256 itemId,\r\n        address indexed nftContract,\r\n        address indexed owner,\r\n        uint256 tokenId\r\n    );\r\n\r\n    event Harvest(\r\n        uint256 itemId,\r\n        address indexed owner,\r\n        uint256 amount\r\n    );\r\n\r\n    constructor(IMilkToken _tokenMilk) {\r\n        tokenMilk = _tokenMilk;\r\n        totalAllocPoint = 0;\r\n        milkPerBlock = 0;\r\n        totalAmountDepositedPool = 0;\r\n        isStakingAvailable = false;\r\n    }\r\n\r\n    function depositMilkToPool(uint256 _totalAmountDepositedPool, uint256 _startBlock, uint256 _endBlock) public onlyOwner {\r\n        require(tokenMilk.balanceOf(owner()) >= _totalAmountDepositedPool, \"insufficient Milk amount to Deposit\");\r\n        require(_endBlock > block.number, \"End Block must bigger than now\");\r\n        require(_endBlock > _startBlock, \"End Block Number must bigger than Start Block Number\");\r\n        tokenMilk.transferFrom(owner(), address(this), _totalAmountDepositedPool * 10 ** 18);\r\n        totalAmountDepositedPool = _totalAmountDepositedPool;\r\n        startBlock = _startBlock;\r\n        endBlock = _endBlock;\r\n        milkPerBlock = 10 ** 6 * _totalAmountDepositedPool / (_endBlock - _startBlock);\r\n        isStakingAvailable = true;\r\n    }\r\n\r\n    function setPeriod(uint256 _startBlock, uint256 _endBlock) public onlyOwner {\r\n        require(_endBlock > block.number, \"End Block must bigger than now\");\r\n        require(_endBlock > _startBlock, \"End Block Number must bigger than Start Block Number\");\r\n        milkPerBlock = 10 ** 6 * totalAmountDepositedPool / (_endBlock - _startBlock);\r\n        startBlock = _startBlock;\r\n        endBlock = _endBlock;\r\n    }    \r\n\r\n    function setIsStakingAvailable(bool _isStakingAvailable) public onlyOwner{\r\n        isStakingAvailable = _isStakingAvailable;\r\n    }\r\n\r\n    function addPool(address _contractAddress, uint256 _allocPoint, uint256[] calldata _tokenIds, uint256 _milkPower, uint256 _maxStakedCount) public onlyOwner {\r\n        require(startBlock != 0 && endBlock != 0, \"Reward Token not deposited yet!\");\r\n        stakingPoolCount.increment();\r\n        uint256 poolId = stakingPoolCount.current();\r\n\r\n        pools[poolId] = PoolInfo(\r\n            _contractAddress,\r\n            _allocPoint,\r\n            _tokenIds,\r\n            _milkPower,\r\n            _maxStakedCount,\r\n            startBlock\r\n        );\r\n\r\n        poolIdOfContract[_contractAddress] = poolId;\r\n\r\n        totalAllocPoint = totalAllocPoint + _allocPoint;\r\n    }\r\n\r\n    function updatePool(\r\n        uint256 _poolId, \r\n        address _contractAddress, \r\n        uint256 _allocPoint, \r\n        uint256[] calldata _tokenIds,\r\n        uint256 _milkPower, \r\n        uint256 _maxStakedCount\r\n    ) public onlyOwner {\r\n        require(_poolId <= stakingPoolCount.current(), \"invalid poolId\");\r\n\r\n        totalAllocPoint = totalAllocPoint - pools[_poolId].allocPoint;\r\n\r\n        pools[_poolId] = PoolInfo(\r\n            _contractAddress,\r\n            _allocPoint,\r\n            _tokenIds,\r\n            _milkPower,\r\n            _maxStakedCount,\r\n            pools[_poolId].lastUpdatedBlock\r\n        );\r\n\r\n        poolIdOfContract[_contractAddress] = _poolId;\r\n\r\n        totalAllocPoint = totalAllocPoint + _allocPoint;\r\n    }\r\n\r\n    modifier isValid(address _msgSender, address _contractAddress, uint256 _tokenId) {\r\n        require(IERC721(_contractAddress).ownerOf(_tokenId) == _msgSender, \"not owner\");\r\n        _;\r\n    }\r\n\r\n    function _updatePendingMilk(uint256 _poolId) internal {\r\n\r\n        /**Update the Pending Milk for All Items */\r\n        uint256 tmpEndBlock = 0;\r\n        if(block.number > endBlock)\r\n            tmpEndBlock = endBlock;\r\n        else \r\n            tmpEndBlock = block.number;\r\n        uint256 totalMilkPower = getTotalMilkPower(_poolId);\r\n        for(uint256 i = 1; i <= stakingItemCount.current(); i ++) {\r\n            if(items[i].isEnded == false && items[i].poolId == _poolId) {\r\n                uint256 amount = milkPerBlock * (tmpEndBlock - pools[_poolId].lastUpdatedBlock) *  pools[_poolId].allocPoint / totalAllocPoint * pools[_poolId].milkPower / totalMilkPower;  \r\n                items[i].pendingMilk += amount;\r\n            }\r\n        }\r\n        pools[_poolId].lastUpdatedBlock = tmpEndBlock;\r\n        /**End Update */\r\n    }\r\n\r\n    function stake(\r\n        address _nftContract,\r\n        uint256 _tokenId\r\n    ) public nonReentrant isValid(msg.sender, _nftContract, _tokenId) {\r\n\r\n        require(block.number >= startBlock && block.number <= endBlock && isStakingAvailable == true, \"Staking is not started!\");\r\n\r\n        uint256 poolId = poolIdOfContract[_nftContract];\r\n        require(poolId != 0, \"There is no Contract Address in Pool\");\r\n        \r\n\r\n        uint256 myStakedCount = getMyStakedCount(poolId, msg.sender);\r\n        require(myStakedCount < pools[poolId].maxStakedCount, \"Overflow of Max Staking Count\");\r\n\r\n        _updatePendingMilk(poolId);\r\n\r\n        stakingItemCount.increment();\r\n        uint256 itemId = stakingItemCount.current();\r\n\r\n        items[itemId] = StakingItem(\r\n            itemId,\r\n            _nftContract,\r\n            msg.sender,\r\n            _tokenId,\r\n            0,\r\n            poolId,\r\n            false\r\n        );\r\n\r\n        IERC721(_nftContract).transferFrom(msg.sender, address(this), _tokenId);\r\n        \r\n        emit StakingItemCreated(\r\n            itemId,\r\n            _nftContract,\r\n            msg.sender,\r\n            _tokenId\r\n        );\r\n    }\r\n\r\n    function getAllocPoint(uint256 _itemId) internal view returns(uint256) {\r\n        for(uint256 i = 1; i <= stakingPoolCount.current(); i++) {\r\n            if (pools[i].contractAddress == items[_itemId].contractAddress) {\r\n                return pools[i].allocPoint;\r\n            }\r\n        }\r\n        return 0;\r\n    }\r\n    function _harvest(\r\n        uint256 _itemId,\r\n        address _owner\r\n    ) internal {\r\n        StakingItem storage item = items[_itemId];\r\n        require(_itemId <= stakingItemCount.current(), \"invalid Item Id\");\r\n        require(_owner == items[_itemId].owner, \"Not owner of this Item\" );\r\n\r\n        uint256 amount = items[_itemId].pendingMilk;\r\n        require(tokenMilk.balanceOf(address(this)) >= amount, \"insufficient Milk amount to harvest\");\r\n\r\n        tokenMilk.transfer(item.owner, amount * 10 ** 12);\r\n        items[_itemId].pendingMilk = 0;\r\n        emit Harvest(_itemId, item.owner, amount);\r\n    }\r\n\r\n    function harvest(uint256 _poolId) public {\r\n\r\n        _updatePendingMilk(_poolId);\r\n        for(uint256 i = 1; i <= stakingItemCount.current(); i ++) {\r\n            if(items[i].owner == msg.sender && items[i].isEnded == false && pools[_poolId].contractAddress == items[i].contractAddress) {\r\n                _harvest(i, msg.sender);\r\n            }\r\n        }\r\n    }\r\n\r\n    function getPendingMilk(uint256 _itemId) public view returns(uint256){\r\n        uint256 amount = items[_itemId].pendingMilk;\r\n        uint256 tmpEndBlock = 0;\r\n        uint256 poolId = items[_itemId].poolId;\r\n        uint256 totalMilkPower = getTotalMilkPower(poolId);\r\n        if(block.number > endBlock)\r\n            tmpEndBlock = endBlock;\r\n        else \r\n            tmpEndBlock = block.number;\r\n        amount += milkPerBlock * (tmpEndBlock - pools[poolId].lastUpdatedBlock) *  pools[poolId].allocPoint / totalAllocPoint * pools[poolId].milkPower / totalMilkPower;\r\n        return amount;\r\n    }\r\n\r\n    function getPendingMilkForAll(uint256 _poolId) public view returns(uint256){\r\n        uint256 amount = 0;\r\n        for(uint256 i = 1; i <= stakingItemCount.current(); i ++) {\r\n            if(!items[i].isEnded && items[i].poolId == _poolId)\r\n                amount += getPendingMilk(i);\r\n        }\r\n        \r\n        return amount;\r\n    }\r\n\r\n    function getStakedItems(address _owner) public view returns(StakingItem[] memory){\r\n        uint256 totalItemCount = stakingItemCount.current();\r\n        uint256 itemCount = 0;\r\n        uint256 currentIndex = 0;\r\n\r\n        for(uint256 i = 1; i <= totalItemCount; i ++) {\r\n            if(_owner == items[i].owner && items[i].isEnded == false) {\r\n                itemCount += 1;\r\n            }\r\n        }\r\n\r\n        StakingItem[] memory stakedItems = new StakingItem[](itemCount);\r\n    \r\n        for (uint256 i = 1; i <= totalItemCount; i ++) {\r\n            if(_owner == items[i].owner && items[i].isEnded == false) {\r\n                StakingItem storage currentItem = items[i];\r\n                stakedItems[currentIndex] = currentItem;\r\n                currentIndex += 1;\r\n            }\r\n        }\r\n\r\n        return stakedItems;\r\n\r\n    }\r\n   \r\n    function getBlockNumber() public view returns(uint256) {\r\n        return block.number;\r\n    }\r\n\r\n    function getTotalStakedCount(uint256 _poolId) public view returns(uint256) {\r\n        uint256 count = 0;\r\n        for(uint256 i = 1; i <= stakingItemCount.current(); i ++)\r\n        {\r\n            if(items[i].isEnded == false && items[i].contractAddress == pools[_poolId].contractAddress) {\r\n                count ++;\r\n            }\r\n        }\r\n        return count;\r\n    }\r\n\r\n    function getTotalMilkPower(uint256 _poolId) public view returns(uint256) {\r\n        uint256 count = getTotalStakedCount(_poolId);\r\n        uint256 totalMilkPower =  count * pools[_poolId].milkPower;\r\n        return totalMilkPower;\r\n    }\r\n\r\n    function getMyMilkPower(uint256 _poolId, address _owner) public view returns(uint256) {\r\n        uint256 count = 0;\r\n        for(uint256 i = 1; i <= stakingItemCount.current(); i ++)\r\n        {\r\n            if(items[i].isEnded == false && items[i].contractAddress == pools[_poolId].contractAddress && items[i].owner == _owner) {\r\n                count ++;\r\n            }\r\n        }\r\n        uint256 myMilkPower =  count * pools[_poolId].milkPower;\r\n        return myMilkPower;\r\n    }\r\n\r\n    function getMyStakedCount(uint256 _poolId, address _owner) public view returns(uint256) {\r\n        uint256 count = 0;\r\n        if(stakingItemCount.current() < 1)\r\n            return 0;\r\n        for(uint256 i = 1; i <= stakingItemCount.current(); i ++)\r\n        {\r\n            if(items[i].isEnded == false && items[i].contractAddress == pools[_poolId].contractAddress && items[i].owner == _owner) {\r\n                count ++;\r\n            }\r\n        }\r\n        return count;\r\n    }\r\n\r\n    function getDailyMilkRate(uint256 _poolId) public view returns(uint256) {\r\n        uint256 totalMilkPower = getTotalMilkPower(_poolId);\r\n        uint256 dailyRate = 0;\r\n        if(totalMilkPower != 0)\r\n            dailyRate = milkPerBlock * 20 * 60 * 24 * 100 / totalMilkPower * pools[_poolId].allocPoint / totalAllocPoint;\r\n        return dailyRate;\r\n    }\r\n\r\n    function unstake(\r\n        uint256 _itemId\r\n    ) public {\r\n        StakingItem storage item = items[_itemId];\r\n\r\n        require(item.owner == msg.sender, \"you are not owner\");\r\n        require(item.isEnded == false, \"This Staking Item was unstaked already!\");\r\n\r\n        _updatePendingMilk(item.poolId);\r\n\r\n        _harvest(_itemId, msg.sender);\r\n        IERC721(item.contractAddress).transferFrom(address(this), msg.sender, item.tokenId);\r\n        item.isEnded = true;\r\n    }\r\n\r\n    function withDraw() public onlyOwner {\r\n        require(block.number > endBlock, \"Staking is not finished\");\r\n        uint256 remainBalance = tokenMilk.balanceOf(address(this));\r\n        tokenMilk.transfer(owner(), remainBalance);\r\n        isStakingAvailable = false;\r\n    }\r\n}\r\n",
  "sourcePath": "E:\\Git for Project\\Ethereum\\NFT\\CashCow\\nft-contracts\\contracts\\Staking.sol",
  "compiler": {
    "name": "solc",
    "version": "0.8.4+commit.c7e474f2.Emscripten.clang"
  },
  "schemaVersion": "3.4.2",
  "updatedAt": "2022-02-14T19:41:38.226Z",
  "networkType": "ethereum",
  "devdoc": {
    "kind": "dev",
    "methods": {
      "owner()": {
        "details": "Returns the address of the current owner."
      },
      "renounceOwnership()": {
        "details": "Leaves the contract without owner. It will not be possible to call `onlyOwner` functions anymore. Can only be called by the current owner. NOTE: Renouncing ownership will leave the contract without an owner, thereby removing any functionality that is only available to the owner."
      },
      "transferOwnership(address)": {
        "details": "Transfers ownership of the contract to a new account (`newOwner`). Can only be called by the current owner."
      }
    },
    "version": 1
  },
  "userdoc": {
    "kind": "user",
    "methods": {},
    "version": 1
  }
}